{
  "_format": "hh-sol-artifact-1",
  "contractName": "PiratesOfTheMetaverse",
  "sourceName": "contracts/PiratesOfTheMetaverse.sol",
  "abi": [
    {
      "inputs": [
        {
          "internalType": "bytes32",
          "name": "merkleroot",
          "type": "bytes32"
        },
        {
          "internalType": "string",
          "name": "uri",
          "type": "string"
        },
        {
          "internalType": "bytes32",
          "name": "_rootMintFree",
          "type": "bytes32"
        },
        {
          "internalType": "bytes32",
          "name": "_provenanceHash",
          "type": "bytes32"
        },
        {
          "internalType": "address",
          "name": "vrfCoordinator",
          "type": "address"
        },
        {
          "internalType": "address",
          "name": "link",
          "type": "address"
        },
        {
          "internalType": "bytes32",
          "name": "keyhash",
          "type": "bytes32"
        },
        {
          "internalType": "uint256",
          "name": "fee",
          "type": "uint256"
        },
        {
          "internalType": "address",
          "name": "_multiSigWallet",
          "type": "address"
        }
      ],
      "stateMutability": "nonpayable",
      "type": "constructor"
    },
    {
      "anonymous": false,
      "inputs": [
        {
          "indexed": true,
          "internalType": "address",
          "name": "owner",
          "type": "address"
        },
        {
          "indexed": true,
          "internalType": "address",
          "name": "approved",
          "type": "address"
        },
        {
          "indexed": true,
          "internalType": "uint256",
          "name": "tokenId",
          "type": "uint256"
        }
      ],
      "name": "Approval",
      "type": "event"
    },
    {
      "anonymous": false,
      "inputs": [
        {
          "indexed": true,
          "internalType": "address",
          "name": "owner",
          "type": "address"
        },
        {
          "indexed": true,
          "internalType": "address",
          "name": "operator",
          "type": "address"
        },
        {
          "indexed": false,
          "internalType": "bool",
          "name": "approved",
          "type": "bool"
        }
      ],
      "name": "ApprovalForAll",
      "type": "event"
    },
    {
      "anonymous": false,
      "inputs": [
        {
          "indexed": true,
          "internalType": "address",
          "name": "previousOwner",
          "type": "address"
        },
        {
          "indexed": true,
          "internalType": "address",
          "name": "newOwner",
          "type": "address"
        }
      ],
      "name": "OwnershipTransferred",
      "type": "event"
    },
    {
      "anonymous": false,
      "inputs": [
        {
          "indexed": true,
          "internalType": "address",
          "name": "from",
          "type": "address"
        },
        {
          "indexed": true,
          "internalType": "address",
          "name": "to",
          "type": "address"
        },
        {
          "indexed": true,
          "internalType": "uint256",
          "name": "tokenId",
          "type": "uint256"
        }
      ],
      "name": "Transfer",
      "type": "event"
    },
    {
      "inputs": [
        {
          "internalType": "uint256",
          "name": "tokenId",
          "type": "uint256"
        }
      ],
      "name": "_tokenURI",
      "outputs": [
        {
          "internalType": "string",
          "name": "",
          "type": "string"
        }
      ],
      "stateMutability": "view",
      "type": "function"
    },
    {
      "inputs": [],
      "name": "allowBurning",
      "outputs": [
        {
          "internalType": "bool",
          "name": "",
          "type": "bool"
        }
      ],
      "stateMutability": "view",
      "type": "function"
    },
    {
      "inputs": [
        {
          "internalType": "address",
          "name": "to",
          "type": "address"
        },
        {
          "internalType": "uint256",
          "name": "tokenId",
          "type": "uint256"
        }
      ],
      "name": "approve",
      "outputs": [],
      "stateMutability": "nonpayable",
      "type": "function"
    },
    {
      "inputs": [
        {
          "internalType": "address",
          "name": "owner",
          "type": "address"
        }
      ],
      "name": "balanceOf",
      "outputs": [
        {
          "internalType": "uint256",
          "name": "",
          "type": "uint256"
        }
      ],
      "stateMutability": "view",
      "type": "function"
    },
    {
      "inputs": [
        {
          "internalType": "uint256",
          "name": "tokenId",
          "type": "uint256"
        }
      ],
      "name": "burn",
      "outputs": [],
      "stateMutability": "nonpayable",
      "type": "function"
    },
    {
      "inputs": [
        {
          "internalType": "address",
          "name": "",
          "type": "address"
        }
      ],
      "name": "freeMints",
      "outputs": [
        {
          "internalType": "uint256",
          "name": "",
          "type": "uint256"
        }
      ],
      "stateMutability": "view",
      "type": "function"
    },
    {
      "inputs": [],
      "name": "generateRandomOffset",
      "outputs": [
        {
          "internalType": "bytes32",
          "name": "requestId",
          "type": "bytes32"
        }
      ],
      "stateMutability": "nonpayable",
      "type": "function"
    },
    {
      "inputs": [
        {
          "internalType": "uint256",
          "name": "tokenId",
          "type": "uint256"
        }
      ],
      "name": "getApproved",
      "outputs": [
        {
          "internalType": "address",
          "name": "",
          "type": "address"
        }
      ],
      "stateMutability": "view",
      "type": "function"
    },
    {
      "inputs": [
        {
          "internalType": "address",
          "name": "owner",
          "type": "address"
        },
        {
          "internalType": "address",
          "name": "operator",
          "type": "address"
        }
      ],
      "name": "isApprovedForAll",
      "outputs": [
        {
          "internalType": "bool",
          "name": "",
          "type": "bool"
        }
      ],
      "stateMutability": "view",
      "type": "function"
    },
    {
      "inputs": [],
      "name": "letContractMint",
      "outputs": [
        {
          "internalType": "bool",
          "name": "",
          "type": "bool"
        }
      ],
      "stateMutability": "view",
      "type": "function"
    },
    {
      "inputs": [],
      "name": "maxPerTransaction",
      "outputs": [
        {
          "internalType": "uint256",
          "name": "",
          "type": "uint256"
        }
      ],
      "stateMutability": "view",
      "type": "function"
    },
    {
      "inputs": [],
      "name": "maxSupply",
      "outputs": [
        {
          "internalType": "uint256",
          "name": "",
          "type": "uint256"
        }
      ],
      "stateMutability": "view",
      "type": "function"
    },
    {
      "inputs": [
        {
          "internalType": "uint256",
          "name": "tokenQuantity",
          "type": "uint256"
        }
      ],
      "name": "mint",
      "outputs": [],
      "stateMutability": "payable",
      "type": "function"
    },
    {
      "inputs": [
        {
          "internalType": "uint256",
          "name": "allowance",
          "type": "uint256"
        },
        {
          "internalType": "bytes32[]",
          "name": "proof",
          "type": "bytes32[]"
        },
        {
          "internalType": "uint256",
          "name": "tokenQuantity",
          "type": "uint256"
        }
      ],
      "name": "mintFree",
      "outputs": [],
      "stateMutability": "nonpayable",
      "type": "function"
    },
    {
      "inputs": [
        {
          "internalType": "uint256",
          "name": "allowance",
          "type": "uint256"
        },
        {
          "internalType": "bytes32[]",
          "name": "proof",
          "type": "bytes32[]"
        },
        {
          "internalType": "uint256",
          "name": "tokenQuantity",
          "type": "uint256"
        }
      ],
      "name": "mintPresale",
      "outputs": [],
      "stateMutability": "payable",
      "type": "function"
    },
    {
      "inputs": [],
      "name": "multiSigWallet",
      "outputs": [
        {
          "internalType": "address",
          "name": "",
          "type": "address"
        }
      ],
      "stateMutability": "view",
      "type": "function"
    },
    {
      "inputs": [],
      "name": "name",
      "outputs": [
        {
          "internalType": "string",
          "name": "",
          "type": "string"
        }
      ],
      "stateMutability": "view",
      "type": "function"
    },
    {
      "inputs": [],
      "name": "offset",
      "outputs": [
        {
          "internalType": "uint256",
          "name": "",
          "type": "uint256"
        }
      ],
      "stateMutability": "view",
      "type": "function"
    },
    {
      "inputs": [],
      "name": "offsetRequested",
      "outputs": [
        {
          "internalType": "bool",
          "name": "",
          "type": "bool"
        }
      ],
      "stateMutability": "view",
      "type": "function"
    },
    {
      "inputs": [],
      "name": "owner",
      "outputs": [
        {
          "internalType": "address",
          "name": "",
          "type": "address"
        }
      ],
      "stateMutability": "view",
      "type": "function"
    },
    {
      "inputs": [
        {
          "internalType": "uint256",
          "name": "tokenQuantity",
          "type": "uint256"
        }
      ],
      "name": "ownerMint",
      "outputs": [],
      "stateMutability": "nonpayable",
      "type": "function"
    },
    {
      "inputs": [],
      "name": "ownerMintBuffer",
      "outputs": [
        {
          "internalType": "uint256",
          "name": "",
          "type": "uint256"
        }
      ],
      "stateMutability": "view",
      "type": "function"
    },
    {
      "inputs": [
        {
          "internalType": "uint256",
          "name": "tokenId",
          "type": "uint256"
        }
      ],
      "name": "ownerOf",
      "outputs": [
        {
          "internalType": "address",
          "name": "",
          "type": "address"
        }
      ],
      "stateMutability": "view",
      "type": "function"
    },
    {
      "inputs": [],
      "name": "presaleActive",
      "outputs": [
        {
          "internalType": "bool",
          "name": "",
          "type": "bool"
        }
      ],
      "stateMutability": "view",
      "type": "function"
    },
    {
      "inputs": [
        {
          "internalType": "address",
          "name": "",
          "type": "address"
        }
      ],
      "name": "presaleMints",
      "outputs": [
        {
          "internalType": "uint256",
          "name": "",
          "type": "uint256"
        }
      ],
      "stateMutability": "view",
      "type": "function"
    },
    {
      "inputs": [],
      "name": "presalePrice",
      "outputs": [
        {
          "internalType": "uint256",
          "name": "",
          "type": "uint256"
        }
      ],
      "stateMutability": "view",
      "type": "function"
    },
    {
      "inputs": [],
      "name": "provenanceHash",
      "outputs": [
        {
          "internalType": "bytes32",
          "name": "",
          "type": "bytes32"
        }
      ],
      "stateMutability": "view",
      "type": "function"
    },
    {
      "inputs": [
        {
          "internalType": "bytes32",
          "name": "requestId",
          "type": "bytes32"
        },
        {
          "internalType": "uint256",
          "name": "randomness",
          "type": "uint256"
        }
      ],
      "name": "rawFulfillRandomness",
      "outputs": [],
      "stateMutability": "nonpayable",
      "type": "function"
    },
    {
      "inputs": [],
      "name": "renounceOwnership",
      "outputs": [],
      "stateMutability": "nonpayable",
      "type": "function"
    },
    {
      "inputs": [],
      "name": "root",
      "outputs": [
        {
          "internalType": "bytes32",
          "name": "",
          "type": "bytes32"
        }
      ],
      "stateMutability": "view",
      "type": "function"
    },
    {
      "inputs": [],
      "name": "rootMintFree",
      "outputs": [
        {
          "internalType": "bytes32",
          "name": "",
          "type": "bytes32"
        }
      ],
      "stateMutability": "view",
      "type": "function"
    },
    {
      "inputs": [
        {
          "internalType": "address",
          "name": "from",
          "type": "address"
        },
        {
          "internalType": "address",
          "name": "to",
          "type": "address"
        },
        {
          "internalType": "uint256",
          "name": "tokenId",
          "type": "uint256"
        }
      ],
      "name": "safeTransferFrom",
      "outputs": [],
      "stateMutability": "nonpayable",
      "type": "function"
    },
    {
      "inputs": [
        {
          "internalType": "address",
          "name": "from",
          "type": "address"
        },
        {
          "internalType": "address",
          "name": "to",
          "type": "address"
        },
        {
          "internalType": "uint256",
          "name": "tokenId",
          "type": "uint256"
        },
        {
          "internalType": "bytes",
          "name": "_data",
          "type": "bytes"
        }
      ],
      "name": "safeTransferFrom",
      "outputs": [],
      "stateMutability": "nonpayable",
      "type": "function"
    },
    {
      "inputs": [],
      "name": "saleActive",
      "outputs": [
        {
          "internalType": "bool",
          "name": "",
          "type": "bool"
        }
      ],
      "stateMutability": "view",
      "type": "function"
    },
    {
      "inputs": [],
      "name": "salePrice",
      "outputs": [
        {
          "internalType": "uint256",
          "name": "",
          "type": "uint256"
        }
      ],
      "stateMutability": "view",
      "type": "function"
    },
    {
      "inputs": [
        {
          "internalType": "bool",
          "name": "_allowBurning",
          "type": "bool"
        }
      ],
      "name": "setAllowBurning",
      "outputs": [],
      "stateMutability": "nonpayable",
      "type": "function"
    },
    {
      "inputs": [
        {
          "internalType": "address",
          "name": "operator",
          "type": "address"
        },
        {
          "internalType": "bool",
          "name": "approved",
          "type": "bool"
        }
      ],
      "name": "setApprovalForAll",
      "outputs": [],
      "stateMutability": "nonpayable",
      "type": "function"
    },
    {
      "inputs": [
        {
          "internalType": "bool",
          "name": "_letContractMint",
          "type": "bool"
        }
      ],
      "name": "setLetContractMint",
      "outputs": [],
      "stateMutability": "nonpayable",
      "type": "function"
    },
    {
      "inputs": [
        {
          "internalType": "uint256",
          "name": "_maxPerTransaction",
          "type": "uint256"
        }
      ],
      "name": "setMaxPerTransaction",
      "outputs": [],
      "stateMutability": "nonpayable",
      "type": "function"
    },
    {
      "inputs": [
        {
          "internalType": "uint256",
          "name": "_ownerMintBuffer",
          "type": "uint256"
        }
      ],
      "name": "setOwnerMintBuffer",
      "outputs": [],
      "stateMutability": "nonpayable",
      "type": "function"
    },
    {
      "inputs": [
        {
          "internalType": "bool",
          "name": "_presaleStatus",
          "type": "bool"
        }
      ],
      "name": "setPresale",
      "outputs": [],
      "stateMutability": "nonpayable",
      "type": "function"
    },
    {
      "inputs": [
        {
          "internalType": "uint256",
          "name": "_presalePrice",
          "type": "uint256"
        }
      ],
      "name": "setPresalePrice",
      "outputs": [],
      "stateMutability": "nonpayable",
      "type": "function"
    },
    {
      "inputs": [
        {
          "internalType": "uint256",
          "name": "_salePrice",
          "type": "uint256"
        }
      ],
      "name": "setPrice",
      "outputs": [],
      "stateMutability": "nonpayable",
      "type": "function"
    },
    {
      "inputs": [
        {
          "internalType": "bytes32",
          "name": "_root",
          "type": "bytes32"
        }
      ],
      "name": "setRoot",
      "outputs": [],
      "stateMutability": "nonpayable",
      "type": "function"
    },
    {
      "inputs": [
        {
          "internalType": "bytes32",
          "name": "_root",
          "type": "bytes32"
        }
      ],
      "name": "setRootMintFree",
      "outputs": [],
      "stateMutability": "nonpayable",
      "type": "function"
    },
    {
      "inputs": [
        {
          "internalType": "bool",
          "name": "_saleStatus",
          "type": "bool"
        }
      ],
      "name": "setSale",
      "outputs": [],
      "stateMutability": "nonpayable",
      "type": "function"
    },
    {
      "inputs": [
        {
          "internalType": "bool",
          "name": "_revealed",
          "type": "bool"
        },
        {
          "internalType": "string",
          "name": "_tokenBaseURI",
          "type": "string"
        }
      ],
      "name": "setURIStatus",
      "outputs": [],
      "stateMutability": "nonpayable",
      "type": "function"
    },
    {
      "inputs": [
        {
          "internalType": "bytes4",
          "name": "interfaceId",
          "type": "bytes4"
        }
      ],
      "name": "supportsInterface",
      "outputs": [
        {
          "internalType": "bool",
          "name": "",
          "type": "bool"
        }
      ],
      "stateMutability": "view",
      "type": "function"
    },
    {
      "inputs": [],
      "name": "symbol",
      "outputs": [
        {
          "internalType": "string",
          "name": "",
          "type": "string"
        }
      ],
      "stateMutability": "view",
      "type": "function"
    },
    {
      "inputs": [
        {
          "internalType": "uint256",
          "name": "index",
          "type": "uint256"
        }
      ],
      "name": "tokenByIndexOffChain",
      "outputs": [
        {
          "internalType": "uint256",
          "name": "",
          "type": "uint256"
        }
      ],
      "stateMutability": "view",
      "type": "function"
    },
    {
      "inputs": [
        {
          "internalType": "address",
          "name": "owner",
          "type": "address"
        },
        {
          "internalType": "uint256",
          "name": "index",
          "type": "uint256"
        }
      ],
      "name": "tokenOfOwnerByIndexOffChain",
      "outputs": [
        {
          "internalType": "uint256",
          "name": "",
          "type": "uint256"
        }
      ],
      "stateMutability": "view",
      "type": "function"
    },
    {
      "inputs": [
        {
          "internalType": "uint256",
          "name": "tokenId",
          "type": "uint256"
        }
      ],
      "name": "tokenURI",
      "outputs": [
        {
          "internalType": "string",
          "name": "",
          "type": "string"
        }
      ],
      "stateMutability": "view",
      "type": "function"
    },
    {
      "inputs": [
        {
          "internalType": "address",
          "name": "owner",
          "type": "address"
        }
      ],
      "name": "tokensOfOwnerOffChain",
      "outputs": [
        {
          "internalType": "uint256[]",
          "name": "",
          "type": "uint256[]"
        }
      ],
      "stateMutability": "view",
      "type": "function"
    },
    {
      "inputs": [],
      "name": "totalNonBurnedSupply",
      "outputs": [
        {
          "internalType": "uint256",
          "name": "",
          "type": "uint256"
        }
      ],
      "stateMutability": "view",
      "type": "function"
    },
    {
      "inputs": [],
      "name": "totalSupply",
      "outputs": [
        {
          "internalType": "uint256",
          "name": "",
          "type": "uint256"
        }
      ],
      "stateMutability": "view",
      "type": "function"
    },
    {
      "inputs": [
        {
          "internalType": "address",
          "name": "from",
          "type": "address"
        },
        {
          "internalType": "address",
          "name": "to",
          "type": "address"
        },
        {
          "internalType": "uint256",
          "name": "tokenId",
          "type": "uint256"
        }
      ],
      "name": "transferFrom",
      "outputs": [],
      "stateMutability": "nonpayable",
      "type": "function"
    },
    {
      "inputs": [
        {
          "internalType": "address",
          "name": "newOwner",
          "type": "address"
        }
      ],
      "name": "transferOwnership",
      "outputs": [],
      "stateMutability": "nonpayable",
      "type": "function"
    },
    {
      "inputs": [],
      "name": "withdraw",
      "outputs": [],
      "stateMutability": "nonpayable",
      "type": "function"
    }
  ],
  "bytecode": "0x60c0604052600a60015567016345785d8a00006002556701118f178fb480006003556004805461ffff191690556007805460ff19908116909155600c805460ff60ff60a81b011916905560c8600d556019805490911690553480156200006457600080fd5b50604051620040bb380380620040bb8339810160408190526200008791620002b2565b84846040518060400160405280601881526020017f50697261746573206f6620746865204d65746176657273650000000000000000815250604051806040016040528060048152602001632827a6ab60e11b815250620000f6620000f06200019b60201b60201c565b6200019f565b81516200010b90600e906020850190620001ef565b5080516200012190600f906020840190620001ef565b5050506001600160601b0319606092831b811660a052911b1660805260088990558751620001579060069060208b0190620001ef565b50600996909655600a949094556017555050601855600c80546001600160a01b0390921661010002610100600160a81b0319909216919091179055506200044b9050565b3390565b600080546001600160a01b038381166001600160a01b0319831681178455604051919092169283917f8be0079c531659141344cd1fd0a4f28419497f9722a3daafe3b4186f6b6457e09190a35050565b828054620001fd90620003f8565b90600052602060002090601f0160209004810192826200022157600085556200026c565b82601f106200023c57805160ff19168380011785556200026c565b828001600101855582156200026c579182015b828111156200026c5782518255916020019190600101906200024f565b506200027a9291506200027e565b5090565b5b808211156200027a57600081556001016200027f565b80516001600160a01b0381168114620002ad57600080fd5b919050565b60008060008060008060008060006101208a8c031215620002d1578485fd5b895160208b01519099506001600160401b0380821115620002f0578687fd5b818c0191508c601f83011262000304578687fd5b81518181111562000319576200031962000435565b604051601f8201601f19908116603f0116810190838211818310171562000344576200034462000435565b816040528281528f60208487010111156200035d57898afd5b8993505b828410156200038457602084860101516020858301015260208401935062000361565b82841115620003965789602084830101525b809c50505050505060408a0151965060608a01519550620003ba60808b0162000295565b9450620003ca60a08b0162000295565b935060c08a0151925060e08a01519150620003e96101008b0162000295565b90509295985092959850929598565b600181811c908216806200040d57607f821691505b602082108114156200042f57634e487b7160e01b600052602260045260246000fd5b50919050565b634e487b7160e01b600052604160045260246000fd5b60805160601c60a05160601c613c366200048560003960008181611d32015261307c015260008181612249015261304d0152613c366000f3fe6080604052600436106103805760003560e01c806384c3672c116101d1578063c6ab67a311610102578063dab5f340116100a0578063f2fde38b1161006f578063f2fde38b14610a16578063f51f96dd14610a36578063fc05dc8014610a4c578063ff50188514610a6257600080fd5b8063dab5f34014610977578063e985e9c514610997578063ebf0c717146109e0578063f19e75d4146109f657600080fd5b8063ccfdd2f8116100dc578063ccfdd2f81461090b578063d55565441461092b578063d5a162f114610941578063d5abeb011461096157600080fd5b8063c6ab67a3146108c0578063c87b56dd146108d6578063cc7a856c146108f657600080fd5b806395d89b411161016f578063a22cb46511610149578063a22cb46514610840578063b88d4fde14610860578063c54e73e314610880578063c56c0b92146108a057600080fd5b806395d89b41146107f757806398029d2a1461080c578063a0712d681461082d57600080fd5b80638da5cb5b116101ab5780638da5cb5b1461077957806391b7f5ed1461079757806392c46da3146107b757806394985ddd146107d757600080fd5b806384c3672c1461071f5780638c0326af1461073f5780638d17e7121461075957600080fd5b806342966c68116102b65780635fc9c0e6116102545780636d41d4fb116102235780636d41d4fb1461069d5780636f8d9305146106ca57806370a08231146106ea578063715018a61461070a57600080fd5b80635fc9c0e61461062e5780636352211e1461064457806367753a151461066457806368428a1b1461067e57600080fd5b8063513f9ff711610290578063513f9ff7146105b257806353135ca0146105c7578063583c1775146105e15780635b7bcff71461060e57600080fd5b806342966c68146105575780634b8feb4f146105775780634b980d671461059c57600080fd5b80631d2e5a3a116103235780633549345e116102fd5780633549345e146104ef5780633c14a2de1461050f5780633ccfd60b1461052257806342842e0e1461053757600080fd5b80631d2e5a3a1461048f5780631fbb4e27146104af57806323b872dd146104cf57600080fd5b806306fdde031161035f57806306fdde03146103fe578063081812fc14610420578063095ea7b31461045857806318160ddd1461047a57600080fd5b80620e7fa81461038557806301ffc9a7146103ae578063038d7c67146103de575b600080fd5b34801561039157600080fd5b5061039b60035481565b6040519081526020015b60405180910390f35b3480156103ba57600080fd5b506103ce6103c93660046137a4565b610a8f565b60405190151581526020016103a5565b3480156103ea57600080fd5b5061039b6103f936600461368a565b610b2c565b34801561040a57600080fd5b50610413610c85565b6040516103a59190613a01565b34801561042c57600080fd5b5061044061043b36600461376b565b610d17565b6040516001600160a01b0390911681526020016103a5565b34801561046457600080fd5b5061047861047336600461368a565b610d9f565b005b34801561048657600080fd5b5061039b610ed1565b34801561049b57600080fd5b506104786104aa3660046136b3565b610ee8565b3480156104bb57600080fd5b506104786104ca36600461376b565b610f4a565b3480156104db57600080fd5b506104786104ea366004613544565b610f97565b3480156104fb57600080fd5b5061047861050a36600461376b565b61101f565b61047861051d3660046137f4565b61106c565b34801561052e57600080fd5b50610478611316565b34801561054357600080fd5b50610478610552366004613544565b61137b565b34801561056357600080fd5b5061047861057236600461376b565b611396565b34801561058357600080fd5b50600c546104409061010090046001600160a01b031681565b3480156105a857600080fd5b5061039b60015481565b3480156105be57600080fd5b5060105461039b565b3480156105d357600080fd5b506004546103ce9060ff1681565b3480156105ed57600080fd5b506106016105fc3660046134f1565b61146f565b6040516103a591906139bd565b34801561061a57600080fd5b5061047861062936600461376b565b611581565b34801561063a57600080fd5b5061039b60095481565b34801561065057600080fd5b5061044061065f36600461376b565b6115ce565b34801561067057600080fd5b50600c546103ce9060ff1681565b34801561068a57600080fd5b506004546103ce90610100900460ff1681565b3480156106a957600080fd5b5061039b6106b83660046134f1565b60166020526000908152604090205481565b3480156106d657600080fd5b506104786106e53660046136eb565b611691565b3480156106f657600080fd5b5061039b6107053660046134f1565b611746565b34801561071657600080fd5b50610478611839565b34801561072b57600080fd5b5061039b61073a36600461376b565b61188b565b34801561074b57600080fd5b506019546103ce9060ff1681565b34801561076557600080fd5b5061041361077436600461376b565b611a17565b34801561078557600080fd5b506000546001600160a01b0316610440565b3480156107a357600080fd5b506104786107b236600461376b565b611aed565b3480156107c357600080fd5b506104786107d23660046137f4565b611b3a565b3480156107e357600080fd5b506104786107f2366004613783565b611d27565b34801561080357600080fd5b50610413611dad565b34801561081857600080fd5b50600c546103ce90600160a81b900460ff1681565b61047861083b36600461376b565b611dbc565b34801561084c57600080fd5b5061047861085b366004613654565b612000565b34801561086c57600080fd5b5061047861087b36600461357f565b61200b565b34801561088c57600080fd5b5061047861089b3660046136b3565b612093565b3480156108ac57600080fd5b506104786108bb3660046136b3565b6120ee565b3480156108cc57600080fd5b5061039b600a5481565b3480156108e257600080fd5b506104136108f136600461376b565b61216f565b34801561090257600080fd5b5061039b6121cf565b34801561091757600080fd5b5061047861092636600461376b565b61237a565b34801561093757600080fd5b5061039b600b5481565b34801561094d57600080fd5b5061047861095c3660046136b3565b61243c565b34801561096d57600080fd5b5061039b61271081565b34801561098357600080fd5b5061047861099236600461376b565b612497565b3480156109a357600080fd5b506103ce6109b2366004613512565b6001600160a01b03918216600090815260126020908152604080832093909416825291909152205460ff1690565b3480156109ec57600080fd5b5061039b60085481565b348015610a0257600080fd5b50610478610a1136600461376b565b6124e4565b348015610a2257600080fd5b50610478610a313660046134f1565b6125d0565b348015610a4257600080fd5b5061039b60025481565b348015610a5857600080fd5b5061039b600d5481565b348015610a6e57600080fd5b5061039b610a7d3660046134f1565b60156020526000908152604090205481565b60006001600160e01b031982167f80ac58cd000000000000000000000000000000000000000000000000000000001480610af257506001600160e01b031982167f5b5e139f00000000000000000000000000000000000000000000000000000000145b80610b2657507f01ffc9a7000000000000000000000000000000000000000000000000000000006001600160e01b03198316145b92915050565b6000610b3783611746565b8210610b9e5760405162461bcd60e51b815260206004820152602b60248201527f455243373231456e756d657261626c653a206f776e657220696e646578206f7560448201526a74206f6620626f756e647360a81b60648201526084015b60405180910390fd5b6000805b601054811015610c285760108181548110610bcd57634e487b7160e01b600052603260045260246000fd5b6000918252602090912001546001600160a01b0386811691161415610c165783821415610c0857610bff816001613a14565b92505050610b26565b81610c1281613b4b565b9250505b80610c2081613b4b565b915050610ba2565b5060405162461bcd60e51b815260206004820152602b60248201527f455243373231456e756d657261626c653a206f776e657220696e646578206f7560448201526a74206f6620626f756e647360a81b6064820152608401610b95565b6060600e8054610c9490613b16565b80601f0160208091040260200160405190810160405280929190818152602001828054610cc090613b16565b8015610d0d5780601f10610ce257610100808354040283529160200191610d0d565b820191906000526020600020905b815481529060010190602001808311610cf057829003601f168201915b5050505050905090565b6000610d228261269d565b610d835760405162461bcd60e51b815260206004820152602c60248201527f4552433732313a20617070726f76656420717565727920666f72206e6f6e657860448201526b34b9ba32b73a103a37b5b2b760a11b6064820152608401610b95565b506000908152601160205260409020546001600160a01b031690565b6000610daa826115ce565b9050806001600160a01b0316836001600160a01b03161415610e345760405162461bcd60e51b815260206004820152602160248201527f4552433732313a20617070726f76616c20746f2063757272656e74206f776e6560448201527f72000000000000000000000000000000000000000000000000000000000000006064820152608401610b95565b336001600160a01b0382161480610e505750610e5081336109b2565b610ec25760405162461bcd60e51b815260206004820152603860248201527f4552433732313a20617070726f76652063616c6c6572206973206e6f74206f7760448201527f6e6572206e6f7220617070726f76656420666f7220616c6c00000000000000006064820152608401610b95565b610ecc8383612727565b505050565b601354601054600091610ee391613ad3565b905090565b6000546001600160a01b03163314610f305760405162461bcd60e51b81526020600482018190526024820152600080516020613be18339815191526044820152606401610b95565b600480549115156101000261ff0019909216919091179055565b6000546001600160a01b03163314610f925760405162461bcd60e51b81526020600482018190526024820152600080516020613be18339815191526044820152606401610b95565b600955565b610fa2335b82612795565b6110145760405162461bcd60e51b815260206004820152603160248201527f4552433732313a207472616e736665722063616c6c6572206973206e6f74206f60448201527f776e6572206e6f7220617070726f7665640000000000000000000000000000006064820152608401610b95565b610ecc83838361287b565b6000546001600160a01b031633146110675760405162461bcd60e51b81526020600482018190526024820152600080516020613be18339815191526044820152606401610b95565b600355565b60045460ff166110be5760405162461bcd60e51b815260206004820152601260248201527f50524553414c45204e4f542041435449564500000000000000000000000000006044820152606401610b95565b6008546040516bffffffffffffffffffffffff193360601b1660208201526034810186905261113f91906054015b60405160208183030381529060405280519060200120858580806020026020016040519081016040528093929190818152602001838360200280828437600092019190915250929493925050612a219050565b61118b5760405162461bcd60e51b815260206004820152601060248201527f4e4f54204f4e20414c4c4f574c495354000000000000000000000000000000006044820152606401610b95565b3360009081526015602052604090205484906111a8908390613a14565b11156111f65760405162461bcd60e51b815260206004820152601960248201527f4d494e54494e47204d4f5245205448414e20414c4c4f574544000000000000006044820152606401610b95565b600061120160105490565b90506127106112108284613a14565b111561125e5760405162461bcd60e51b815260206004820152601860248201527f4e4f5420454e4f554748204c45465420494e2053544f434b00000000000000006044820152606401610b95565b346003548361126d9190613a40565b11156112bb5760405162461bcd60e51b815260206004820152601860248201527f494e434f5252454354205041594d454e5420414d4f554e5400000000000000006044820152606401610b95565b60015b8281116112ea576112d8336112d38385613a14565b612a37565b806112e281613b4b565b9150506112be565b50336000908152601560205260408120805484929061130a908490613a14565b90915550505050505050565b6000546001600160a01b0316331461135e5760405162461bcd60e51b81526020600482018190526024820152600080516020613be18339815191526044820152606401610b95565b600c546113799061010090046001600160a01b031647612b6b565b565b610ecc8383836040518060200160405280600081525061200b565b60195460ff166113e85760405162461bcd60e51b815260206004820152601d60248201527f4275726e696e67206e6f742063757272656e746c7920616c6c6f7765640000006044820152606401610b95565b6113f133610f9c565b6114635760405162461bcd60e51b815260206004820152603060248201527f4552433732314275726e61626c653a2063616c6c6572206973206e6f74206f7760448201527f6e6572206e6f7220617070726f766564000000000000000000000000000000006064820152608401610b95565b61146c81612c84565b50565b6060600061147c83611746565b905060008167ffffffffffffffff8111156114a757634e487b7160e01b600052604160045260246000fd5b6040519080825280602002602001820160405280156114d0578160200160208202803683370190505b5090506000805b601054811015611577576010818154811061150257634e487b7160e01b600052603260045260246000fd5b6000918252602090912001546001600160a01b03878116911614156115655761152c816001613a14565b83838151811061154c57634e487b7160e01b600052603260045260246000fd5b60209081029190910101528161156181613b4b565b9250505b8061156f81613b4b565b9150506114d7565b5090949350505050565b6000546001600160a01b031633146115c95760405162461bcd60e51b81526020600482018190526024820152600080516020613be18339815191526044820152606401610b95565b600d55565b60006115d98261269d565b61164b5760405162461bcd60e51b815260206004820152602960248201527f4552433732313a206f776e657220717565727920666f72206e6f6e657869737460448201527f656e7420746f6b656e00000000000000000000000000000000000000000000006064820152608401610b95565b6010611658600184613ad3565b8154811061167657634e487b7160e01b600052603260045260246000fd5b6000918252602090912001546001600160a01b031692915050565b6000546001600160a01b031633146116d95760405162461bcd60e51b81526020600482018190526024820152600080516020613be18339815191526044820152606401610b95565b806117265760405162461bcd60e51b815260206004820152601660248201527f5f746f6b656e4261736555524920697320656d707479000000000000000000006044820152606401610b95565b6007805460ff191684151517905561174060058383613441565b50505050565b60006001600160a01b0382166117c45760405162461bcd60e51b815260206004820152602a60248201527f4552433732313a2062616c616e636520717565727920666f7220746865207a6560448201527f726f2061646472657373000000000000000000000000000000000000000000006064820152608401610b95565b6000805b60105481101561183257601081815481106117f357634e487b7160e01b600052603260045260246000fd5b6000918252602090912001546001600160a01b0385811691161415611820578161181c81613b4b565b9250505b8061182a81613b4b565b9150506117c8565b5092915050565b6000546001600160a01b031633146118815760405162461bcd60e51b81526020600482018190526024820152600080516020613be18339815191526044820152606401610b95565b6113796000612d25565b6000611895610ed1565b82106119095760405162461bcd60e51b815260206004820152602c60248201527f455243373231456e756d657261626c653a20676c6f62616c20696e646578206f60448201527f7574206f6620626f756e647300000000000000000000000000000000000000006064820152608401610b95565b6000805b6010548110156119a25760006001600160a01b03166010828154811061194357634e487b7160e01b600052603260045260246000fd5b6000918252602090912001546001600160a01b0316141561196c57611969600183613a14565b91505b836119778383613a5f565b141561199057611988816001613a14565b949350505050565b8061199a81613b4b565b91505061190d565b5060405162461bcd60e51b815260206004820152602160248201527f455243373231456e756d657261626c653a20696e646578206e6f7420666f756e60448201527f64000000000000000000000000000000000000000000000000000000000000006064820152608401610b95565b50919050565b60075460609060ff16611ab65760068054611a3190613b16565b80601f0160208091040260200160405190810160405280929190818152602001828054611a5d90613b16565b8015611aaa5780601f10611a7f57610100808354040283529160200191611aaa565b820191906000526020600020905b815481529060010190602001808311611a8d57829003601f168201915b50505050509050919050565b6005611ac183612d75565b604051602001611ad29291906138bc565b6040516020818303038152906040529050919050565b919050565b6000546001600160a01b03163314611b355760405162461bcd60e51b81526020600482018190526024820152600080516020613be18339815191526044820152606401610b95565b600255565b60045460ff16611b8c5760405162461bcd60e51b815260206004820152601560248201527f46726565206d696e74206e6f7420616c6c6f77656400000000000000000000006044820152606401610b95565b6009546040516bffffffffffffffffffffffff193360601b16602082015260348101869052611bbe91906054016110ec565b611c0a5760405162461bcd60e51b815260206004820152601a60248201527f4e4f54204f4e2046524545204d494e5420414c4c4f574c4953540000000000006044820152606401610b95565b336000908152601660205260409020548490611c27908390613a14565b1115611c755760405162461bcd60e51b815260206004820152601960248201527f4d494e54494e47204d4f5245205448414e20414c4c4f574544000000000000006044820152606401610b95565b6000611c8060105490565b9050612710611c8f8284613a14565b1115611cdd5760405162461bcd60e51b815260206004820152601860248201527f4e4f5420454e4f554748204c45465420494e2053544f434b00000000000000006044820152606401610b95565b60015b828111611d0757611cf5336112d38385613a14565b80611cff81613b4b565b915050611ce0565b50336000908152601660205260408120805484929061130a908490613a14565b336001600160a01b037f00000000000000000000000000000000000000000000000000000000000000001614611d9f5760405162461bcd60e51b815260206004820152601f60248201527f4f6e6c7920565246436f6f7264696e61746f722063616e2066756c66696c6c006044820152606401610b95565b611da98282612ec3565b5050565b6060600f8054610c9490613b16565b600c54600160a81b900460ff16611e4257333214611e425760405162461bcd60e51b815260206004820152602b60248201527f434f4e5452414354204e4f5420414c4c4f57454420544f204d494e5420494e2060448201527f5055424c49432053414c450000000000000000000000000000000000000000006064820152608401610b95565b600454610100900460ff16611e995760405162461bcd60e51b815260206004820152600f60248201527f53414c45204e4f542041435449564500000000000000000000000000000000006044820152606401610b95565b600154811115611f115760405162461bcd60e51b815260206004820152603160248201527f4d494e54494e47204d4f5245205448414e20414c4c4f57454420494e2041205360448201527f494e474c45205452414e53414354494f4e0000000000000000000000000000006064820152608401610b95565b6000611f1c60105490565b9050612710611f2b8284613a14565b1115611f795760405162461bcd60e51b815260206004820152601860248201527f4e4f5420454e4f554748204c45465420494e2053544f434b00000000000000006044820152606401610b95565b3460025483611f889190613a40565b1115611fd65760405162461bcd60e51b815260206004820152601860248201527f494e434f5252454354205041594d454e5420414d4f554e5400000000000000006044820152606401610b95565b60015b828111610ecc57611fee336112d38385613a14565b80611ff881613b4b565b915050611fd9565b611da9338383612ef1565b6120153383612795565b6120875760405162461bcd60e51b815260206004820152603160248201527f4552433732313a207472616e736665722063616c6c6572206973206e6f74206f60448201527f776e6572206e6f7220617070726f7665640000000000000000000000000000006064820152608401610b95565b61174084848484612fc0565b6000546001600160a01b031633146120db5760405162461bcd60e51b81526020600482018190526024820152600080516020613be18339815191526044820152606401610b95565b6004805460ff1916911515919091179055565b6000546001600160a01b031633146121365760405162461bcd60e51b81526020600482018190526024820152600080516020613be18339815191526044820152606401610b95565b600c8054911515600160a81b027fffffffffffffffffffff00ffffffffffffffffffffffffffffffffffffffffff909216919091179055565b606061217a8261269d565b6121c65760405162461bcd60e51b815260206004820152601f60248201527f55524920717565727920666f72206e6f6e6578697374656e7420746f6b656e006044820152606401610b95565b610b2682611a17565b600080546001600160a01b031633146122185760405162461bcd60e51b81526020600482018190526024820152600080516020613be18339815191526044820152606401610b95565b6018546040517f70a082310000000000000000000000000000000000000000000000000000000081523060048201527f00000000000000000000000000000000000000000000000000000000000000006001600160a01b0316906370a082319060240160206040518083038186803b15801561229357600080fd5b505afa1580156122a7573d6000803e3d6000fd5b505050506040513d601f19601f820116820180604052508101906122cb91906137dc565b10156123195760405162461bcd60e51b815260206004820152601a60248201527f4e6f7420656e6f756768204c494e4b20746f20706179206665650000000000006044820152606401610b95565b600c5460ff161561236c5760405162461bcd60e51b815260206004820152601f60248201527f416c72656164792067656e6572617465642072616e646f6d206f6666736574006044820152606401610b95565b610ee3601754601854613049565b6000546001600160a01b031633146123c25760405162461bcd60e51b81526020600482018190526024820152600080516020613be18339815191526044820152606401610b95565b600081116124375760405162461bcd60e51b8152602060048201526024808201527f6d61785065725472616e73616374696f6e2073686f756c6420626520706f736960448201527f74697665000000000000000000000000000000000000000000000000000000006064820152608401610b95565b600155565b6000546001600160a01b031633146124845760405162461bcd60e51b81526020600482018190526024820152600080516020613be18339815191526044820152606401610b95565b6019805460ff1916911515919091179055565b6000546001600160a01b031633146124df5760405162461bcd60e51b81526020600482018190526024820152600080516020613be18339815191526044820152606401610b95565b600855565b6000546001600160a01b0316331461252c5760405162461bcd60e51b81526020600482018190526024820152600080516020613be18339815191526044820152606401610b95565b600061253760105490565b600d549091506125478284613a14565b11156125955760405162461bcd60e51b815260206004820152601860248201527f4e4f5420454e4f554748204c45465420494e2053544f434b00000000000000006044820152606401610b95565b60015b828111610ecc57600c546125be9061010090046001600160a01b03166112d38385613a14565b806125c881613b4b565b915050612598565b6000546001600160a01b031633146126185760405162461bcd60e51b81526020600482018190526024820152600080516020613be18339815191526044820152606401610b95565b6001600160a01b0381166126945760405162461bcd60e51b815260206004820152602660248201527f4f776e61626c653a206e6577206f776e657220697320746865207a65726f206160448201527f64647265737300000000000000000000000000000000000000000000000000006064820152608401610b95565b61146c81612d25565b6000811515816126ac60105490565b6126b7906001613a14565b841090506001811561270b57600060106126d2600188613ad3565b815481106126f057634e487b7160e01b600052603260045260246000fd5b6000918252602090912001546001600160a01b031615159150505b8280156127155750815b801561271e5750805b95945050505050565b600081815260116020526040902080546001600160a01b0319166001600160a01b038416908117909155819061275c826115ce565b6001600160a01b03167f8c5be1e5ebec7d5bd14f71427d1e84f3dd0314c0f7b2291e5b200ac8c7c3b92560405160405180910390a45050565b60006127a08261269d565b6128015760405162461bcd60e51b815260206004820152602c60248201527f4552433732313a206f70657261746f7220717565727920666f72206e6f6e657860448201526b34b9ba32b73a103a37b5b2b760a11b6064820152608401610b95565b600061280c836115ce565b9050806001600160a01b0316846001600160a01b031614806128475750836001600160a01b031661283c84610d17565b6001600160a01b0316145b8061198857506001600160a01b0380821660009081526012602090815260408083209388168352929052205460ff16611988565b826001600160a01b031661288e826115ce565b6001600160a01b03161461290a5760405162461bcd60e51b815260206004820152602560248201527f4552433732313a207472616e736665722066726f6d20696e636f72726563742060448201527f6f776e65720000000000000000000000000000000000000000000000000000006064820152608401610b95565b6001600160a01b0382166129855760405162461bcd60e51b8152602060048201526024808201527f4552433732313a207472616e7366657220746f20746865207a65726f2061646460448201527f72657373000000000000000000000000000000000000000000000000000000006064820152608401610b95565b6129908383836131d4565b61299b600082612727565b8160106129a9600184613ad3565b815481106129c757634e487b7160e01b600052603260045260246000fd5b6000918252602082200180546001600160a01b0319166001600160a01b03938416179055604051839285811692908716917fddf252ad1be2c89b69c2b068fc378daa952ba7f163c4a11628f55a4df523b3ef9190a4505050565b600082612a2e8584613209565b14949350505050565b6001600160a01b038216612a8d5760405162461bcd60e51b815260206004820181905260248201527f4552433732313a206d696e7420746f20746865207a65726f20616464726573736044820152606401610b95565b612a968161269d565b15612ae35760405162461bcd60e51b815260206004820152601c60248201527f4552433732313a20746f6b656e20616c7265616479206d696e746564000000006044820152606401610b95565b612aef600083836131d4565b6010805460018101825560009182527f1b6847dc741a1b0cd08d278845f9d819d87b734759afb55fe2de5cb82a9ae6720180546001600160a01b0319166001600160a01b0385169081179091556040518392907fddf252ad1be2c89b69c2b068fc378daa952ba7f163c4a11628f55a4df523b3ef908290a45050565b80471015612bbb5760405162461bcd60e51b815260206004820152601d60248201527f416464726573733a20696e73756666696369656e742062616c616e63650000006044820152606401610b95565b6000826001600160a01b03168260405160006040518083038185875af1925050503d8060008114612c08576040519150601f19603f3d011682016040523d82523d6000602084013e612c0d565b606091505b5050905080610ecc5760405162461bcd60e51b815260206004820152603a60248201527f416464726573733a20756e61626c6520746f2073656e642076616c75652c207260448201527f6563697069656e74206d617920686176652072657665727465640000000000006064820152608401610b95565b6000612c8f826115ce565b9050612c9d816000846131d4565b612ca8600083612727565b6010612cb5600184613ad3565b81548110612cd357634e487b7160e01b600052603260045260246000fd5b6000918252602082200180546001600160a01b03191690556040518391906001600160a01b038416907fddf252ad1be2c89b69c2b068fc378daa952ba7f163c4a11628f55a4df523b3ef908390a45050565b600080546001600160a01b038381166001600160a01b0319831681178455604051919092169283917f8be0079c531659141344cd1fd0a4f28419497f9722a3daafe3b4186f6b6457e09190a35050565b606081612db557505060408051808201909152600181527f3000000000000000000000000000000000000000000000000000000000000000602082015290565b8160005b8115612ddf5780612dc981613b4b565b9150612dd89050600a83613a2c565b9150612db9565b60008167ffffffffffffffff811115612e0857634e487b7160e01b600052604160045260246000fd5b6040519080825280601f01601f191660200182016040528015612e32576020820181803683370190505b5090505b841561198857612e47600183613ad3565b9150612e54600a86613b66565b612e5f906030613a14565b60f81b818381518110612e8257634e487b7160e01b600052603260045260246000fd5b60200101907effffffffffffffffffffffffffffffffffffffffffffffffffffffffffffff1916908160001a905350612ebc600a86613a2c565b9450612e36565b6000612ed26002612710613ad3565b612edc9083613b66565b600b555050600c805460ff1916600117905550565b816001600160a01b0316836001600160a01b03161415612f535760405162461bcd60e51b815260206004820152601960248201527f4552433732313a20617070726f766520746f2063616c6c6572000000000000006044820152606401610b95565b6001600160a01b03838116600081815260126020908152604080832094871680845294825291829020805460ff191686151590811790915591519182527f17307eab39ab6107e8899845ad3d59bd9653f200f220920489ca2b5937696c31910160405180910390a3505050565b612fcb84848461287b565b612fd7848484846132c3565b6117405760405162461bcd60e51b815260206004820152603260248201527f4552433732313a207472616e7366657220746f206e6f6e20455243373231526560448201527f63656976657220696d706c656d656e74657200000000000000000000000000006064820152608401610b95565b60007f00000000000000000000000000000000000000000000000000000000000000006001600160a01b0316634000aea07f0000000000000000000000000000000000000000000000000000000000000000848660006040516020016130b9929190918252602082015260400190565b6040516020818303038152906040526040518463ffffffff1660e01b81526004016130e693929190613995565b602060405180830381600087803b15801561310057600080fd5b505af1158015613114573d6000803e3d6000fd5b505050506040513d601f19601f8201168201806040525081019061313891906136cf565b50600083815260146020818152604080842054815180840189905280830186905230606082015260808082018390528351808303909101815260a090910190925281519183019190912093879052919052613194906001613a14565b6000858152601460205260409020556119888482604080516020808201949094528082019290925280518083038201815260609092019052805191012090565b6001600160a01b0382166131eb57610ecc81613426565b826001600160a01b0316826001600160a01b031614610ecc57505050565b600081815b84518110156132bb57600085828151811061323957634e487b7160e01b600052603260045260246000fd5b6020026020010151905080831161327b5760408051602081018590529081018290526060016040516020818303038152906040528051906020012092506132a8565b60408051602081018390529081018490526060016040516020818303038152906040528051906020012092505b50806132b381613b4b565b91505061320e565b509392505050565b60006001600160a01b0384163b1561341b57604051630a85bd0160e11b81526001600160a01b0385169063150b7a0290613307903390899088908890600401613959565b602060405180830381600087803b15801561332157600080fd5b505af1925050508015613351575060408051601f3d908101601f1916820190925261334e918101906137c0565b60015b613401573d80801561337f576040519150601f19603f3d011682016040523d82523d6000602084013e613384565b606091505b5080516133f95760405162461bcd60e51b815260206004820152603260248201527f4552433732313a207472616e7366657220746f206e6f6e20455243373231526560448201527f63656976657220696d706c656d656e74657200000000000000000000000000006064820152608401610b95565b805181602001fd5b6001600160e01b031916630a85bd0160e11b149050611988565b506001949350505050565b6001601360008282546134399190613a14565b909155505050565b82805461344d90613b16565b90600052602060002090601f01602090048101928261346f57600085556134b5565b82601f106134885782800160ff198235161785556134b5565b828001600101855582156134b5579182015b828111156134b557823582559160200191906001019061349a565b506134c19291506134c5565b5090565b5b808211156134c157600081556001016134c6565b80356001600160a01b0381168114611ae857600080fd5b600060208284031215613502578081fd5b61350b826134da565b9392505050565b60008060408385031215613524578081fd5b61352d836134da565b915061353b602084016134da565b90509250929050565b600080600060608486031215613558578081fd5b613561846134da565b925061356f602085016134da565b9150604084013590509250925092565b60008060008060808587031215613594578081fd5b61359d856134da565b93506135ab602086016134da565b925060408501359150606085013567ffffffffffffffff808211156135ce578283fd5b818701915087601f8301126135e1578283fd5b8135818111156135f3576135f3613ba6565b604051601f8201601f19908116603f0116810190838211818310171561361b5761361b613ba6565b816040528281528a6020848701011115613633578586fd5b82602086016020830137918201602001949094529598949750929550505050565b60008060408385031215613666578182fd5b61366f836134da565b9150602083013561367f81613bbc565b809150509250929050565b6000806040838503121561369c578182fd5b6136a5836134da565b946020939093013593505050565b6000602082840312156136c4578081fd5b813561350b81613bbc565b6000602082840312156136e0578081fd5b815161350b81613bbc565b6000806000604084860312156136ff578283fd5b833561370a81613bbc565b9250602084013567ffffffffffffffff80821115613726578384fd5b818601915086601f830112613739578384fd5b813581811115613747578485fd5b876020828501011115613758578485fd5b6020830194508093505050509250925092565b60006020828403121561377c578081fd5b5035919050565b60008060408385031215613795578182fd5b50508035926020909101359150565b6000602082840312156137b5578081fd5b813561350b81613bca565b6000602082840312156137d1578081fd5b815161350b81613bca565b6000602082840312156137ed578081fd5b5051919050565b60008060008060608587031215613809578182fd5b84359350602085013567ffffffffffffffff80821115613827578384fd5b818701915087601f83011261383a578384fd5b813581811115613848578485fd5b8860208260051b850101111561385c578485fd5b95986020929092019750949560400135945092505050565b6000815180845261388c816020860160208601613aea565b601f01601f19169290920160200192915050565b600081516138b2818560208601613aea565b9290920192915050565b600080845482600182811c9150808316806138d857607f831692505b60208084108214156138f857634e487b7160e01b87526022600452602487fd5b81801561390c576001811461391d57613949565b60ff19861689528489019650613949565b60008b815260209020885b868110156139415781548b820152908501908301613928565b505084890196505b50505050505061271e81856138a0565b60006001600160a01b0380871683528086166020840152508360408301526080606083015261398b6080830184613874565b9695505050505050565b6001600160a01b038416815282602082015260606040820152600061271e6060830184613874565b6020808252825182820181905260009190848201906040850190845b818110156139f5578351835292840192918401916001016139d9565b50909695505050505050565b60208152600061350b6020830184613874565b60008219821115613a2757613a27613b7a565b500190565b600082613a3b57613a3b613b90565b500490565b6000816000190483118215151615613a5a57613a5a613b7a565b500290565b6000808312837f800000000000000000000000000000000000000000000000000000000000000001831281151615613a9957613a99613b7a565b837f7fffffffffffffffffffffffffffffffffffffffffffffffffffffffffffffff018313811615613acd57613acd613b7a565b50500390565b600082821015613ae557613ae5613b7a565b500390565b60005b83811015613b05578181015183820152602001613aed565b838111156117405750506000910152565b600181811c90821680613b2a57607f821691505b60208210811415611a1157634e487b7160e01b600052602260045260246000fd5b6000600019821415613b5f57613b5f613b7a565b5060010190565b600082613b7557613b75613b90565b500690565b634e487b7160e01b600052601160045260246000fd5b634e487b7160e01b600052601260045260246000fd5b634e487b7160e01b600052604160045260246000fd5b801515811461146c57600080fd5b6001600160e01b03198116811461146c57600080fdfe4f776e61626c653a2063616c6c6572206973206e6f7420746865206f776e6572a2646970667358221220364180a08dc50787660e1028f35d4b0484bb3dd57e1ff5e1617f4648866da06964736f6c63430008040033",
  "linkReferences": {},
  "deployedLinkReferences": {}
}