{
  "_format": "hh-sol-artifact-1",
  "contractName": "PMV",
  "sourceName": "contracts/PMV.sol",
  "abi": [
    {
      "inputs": [
        {
          "internalType": "bytes32",
          "name": "merkleroot",
          "type": "bytes32"
        },
        {
          "internalType": "string",
          "name": "uri",
          "type": "string"
        }
      ],
      "stateMutability": "nonpayable",
      "type": "constructor"
    },
    {
      "anonymous": false,
      "inputs": [
        {
          "indexed": true,
          "internalType": "address",
          "name": "owner",
          "type": "address"
        },
        {
          "indexed": true,
          "internalType": "address",
          "name": "approved",
          "type": "address"
        },
        {
          "indexed": true,
          "internalType": "uint256",
          "name": "tokenId",
          "type": "uint256"
        }
      ],
      "name": "Approval",
      "type": "event"
    },
    {
      "anonymous": false,
      "inputs": [
        {
          "indexed": true,
          "internalType": "address",
          "name": "owner",
          "type": "address"
        },
        {
          "indexed": true,
          "internalType": "address",
          "name": "operator",
          "type": "address"
        },
        {
          "indexed": false,
          "internalType": "bool",
          "name": "approved",
          "type": "bool"
        }
      ],
      "name": "ApprovalForAll",
      "type": "event"
    },
    {
      "anonymous": false,
      "inputs": [
        {
          "indexed": true,
          "internalType": "address",
          "name": "previousOwner",
          "type": "address"
        },
        {
          "indexed": true,
          "internalType": "address",
          "name": "newOwner",
          "type": "address"
        }
      ],
      "name": "OwnershipTransferred",
      "type": "event"
    },
    {
      "anonymous": false,
      "inputs": [
        {
          "indexed": true,
          "internalType": "address",
          "name": "from",
          "type": "address"
        },
        {
          "indexed": true,
          "internalType": "address",
          "name": "to",
          "type": "address"
        },
        {
          "indexed": true,
          "internalType": "uint256",
          "name": "tokenId",
          "type": "uint256"
        }
      ],
      "name": "Transfer",
      "type": "event"
    },
    {
      "inputs": [
        {
          "internalType": "address",
          "name": "to",
          "type": "address"
        },
        {
          "internalType": "uint256",
          "name": "tokenId",
          "type": "uint256"
        }
      ],
      "name": "approve",
      "outputs": [],
      "stateMutability": "nonpayable",
      "type": "function"
    },
    {
      "inputs": [
        {
          "internalType": "address",
          "name": "owner",
          "type": "address"
        }
      ],
      "name": "balanceOf",
      "outputs": [
        {
          "internalType": "uint256",
          "name": "",
          "type": "uint256"
        }
      ],
      "stateMutability": "view",
      "type": "function"
    },
    {
      "inputs": [
        {
          "internalType": "uint256",
          "name": "tokenId",
          "type": "uint256"
        }
      ],
      "name": "getApproved",
      "outputs": [
        {
          "internalType": "address",
          "name": "",
          "type": "address"
        }
      ],
      "stateMutability": "view",
      "type": "function"
    },
    {
      "inputs": [
        {
          "internalType": "address",
          "name": "owner",
          "type": "address"
        },
        {
          "internalType": "address",
          "name": "operator",
          "type": "address"
        }
      ],
      "name": "isApprovedForAll",
      "outputs": [
        {
          "internalType": "bool",
          "name": "",
          "type": "bool"
        }
      ],
      "stateMutability": "view",
      "type": "function"
    },
    {
      "inputs": [],
      "name": "maxPerWallet",
      "outputs": [
        {
          "internalType": "uint256",
          "name": "",
          "type": "uint256"
        }
      ],
      "stateMutability": "view",
      "type": "function"
    },
    {
      "inputs": [],
      "name": "maxSupply",
      "outputs": [
        {
          "internalType": "uint256",
          "name": "",
          "type": "uint256"
        }
      ],
      "stateMutability": "view",
      "type": "function"
    },
    {
      "inputs": [
        {
          "internalType": "uint256",
          "name": "tokenQuantity",
          "type": "uint256"
        }
      ],
      "name": "mint",
      "outputs": [],
      "stateMutability": "payable",
      "type": "function"
    },
    {
      "inputs": [
        {
          "internalType": "uint256",
          "name": "allowance",
          "type": "uint256"
        },
        {
          "internalType": "bytes32[]",
          "name": "proof",
          "type": "bytes32[]"
        },
        {
          "internalType": "uint256",
          "name": "tokenQuantity",
          "type": "uint256"
        }
      ],
      "name": "mintPresale",
      "outputs": [],
      "stateMutability": "payable",
      "type": "function"
    },
    {
      "inputs": [],
      "name": "name",
      "outputs": [
        {
          "internalType": "string",
          "name": "",
          "type": "string"
        }
      ],
      "stateMutability": "view",
      "type": "function"
    },
    {
      "inputs": [],
      "name": "owner",
      "outputs": [
        {
          "internalType": "address",
          "name": "",
          "type": "address"
        }
      ],
      "stateMutability": "view",
      "type": "function"
    },
    {
      "inputs": [
        {
          "internalType": "uint256",
          "name": "tokenId",
          "type": "uint256"
        }
      ],
      "name": "ownerOf",
      "outputs": [
        {
          "internalType": "address",
          "name": "",
          "type": "address"
        }
      ],
      "stateMutability": "view",
      "type": "function"
    },
    {
      "inputs": [],
      "name": "presaleActive",
      "outputs": [
        {
          "internalType": "bool",
          "name": "",
          "type": "bool"
        }
      ],
      "stateMutability": "view",
      "type": "function"
    },
    {
      "inputs": [],
      "name": "renounceOwnership",
      "outputs": [],
      "stateMutability": "nonpayable",
      "type": "function"
    },
    {
      "inputs": [],
      "name": "root",
      "outputs": [
        {
          "internalType": "bytes32",
          "name": "",
          "type": "bytes32"
        }
      ],
      "stateMutability": "view",
      "type": "function"
    },
    {
      "inputs": [
        {
          "internalType": "address",
          "name": "from",
          "type": "address"
        },
        {
          "internalType": "address",
          "name": "to",
          "type": "address"
        },
        {
          "internalType": "uint256",
          "name": "tokenId",
          "type": "uint256"
        }
      ],
      "name": "safeTransferFrom",
      "outputs": [],
      "stateMutability": "nonpayable",
      "type": "function"
    },
    {
      "inputs": [
        {
          "internalType": "address",
          "name": "from",
          "type": "address"
        },
        {
          "internalType": "address",
          "name": "to",
          "type": "address"
        },
        {
          "internalType": "uint256",
          "name": "tokenId",
          "type": "uint256"
        },
        {
          "internalType": "bytes",
          "name": "_data",
          "type": "bytes"
        }
      ],
      "name": "safeTransferFrom",
      "outputs": [],
      "stateMutability": "nonpayable",
      "type": "function"
    },
    {
      "inputs": [],
      "name": "saleActive",
      "outputs": [
        {
          "internalType": "bool",
          "name": "",
          "type": "bool"
        }
      ],
      "stateMutability": "view",
      "type": "function"
    },
    {
      "inputs": [],
      "name": "salePrice",
      "outputs": [
        {
          "internalType": "uint256",
          "name": "",
          "type": "uint256"
        }
      ],
      "stateMutability": "view",
      "type": "function"
    },
    {
      "inputs": [
        {
          "internalType": "address",
          "name": "operator",
          "type": "address"
        },
        {
          "internalType": "bool",
          "name": "approved",
          "type": "bool"
        }
      ],
      "name": "setApprovalForAll",
      "outputs": [],
      "stateMutability": "nonpayable",
      "type": "function"
    },
    {
      "inputs": [
        {
          "internalType": "bool",
          "name": "_presaleStatus",
          "type": "bool"
        }
      ],
      "name": "setPresale",
      "outputs": [],
      "stateMutability": "nonpayable",
      "type": "function"
    },
    {
      "inputs": [
        {
          "internalType": "bytes32",
          "name": "_root",
          "type": "bytes32"
        }
      ],
      "name": "setRoot",
      "outputs": [],
      "stateMutability": "nonpayable",
      "type": "function"
    },
    {
      "inputs": [
        {
          "internalType": "bool",
          "name": "_saleStatus",
          "type": "bool"
        }
      ],
      "name": "setSale",
      "outputs": [],
      "stateMutability": "nonpayable",
      "type": "function"
    },
    {
      "inputs": [
        {
          "internalType": "bool",
          "name": "_revealed",
          "type": "bool"
        },
        {
          "internalType": "string",
          "name": "_tokenBaseURI",
          "type": "string"
        }
      ],
      "name": "setURIStatus",
      "outputs": [],
      "stateMutability": "nonpayable",
      "type": "function"
    },
    {
      "inputs": [
        {
          "internalType": "bytes4",
          "name": "interfaceId",
          "type": "bytes4"
        }
      ],
      "name": "supportsInterface",
      "outputs": [
        {
          "internalType": "bool",
          "name": "",
          "type": "bool"
        }
      ],
      "stateMutability": "view",
      "type": "function"
    },
    {
      "inputs": [],
      "name": "symbol",
      "outputs": [
        {
          "internalType": "string",
          "name": "",
          "type": "string"
        }
      ],
      "stateMutability": "view",
      "type": "function"
    },
    {
      "inputs": [
        {
          "internalType": "uint256",
          "name": "index",
          "type": "uint256"
        }
      ],
      "name": "tokenByIndex",
      "outputs": [
        {
          "internalType": "uint256",
          "name": "",
          "type": "uint256"
        }
      ],
      "stateMutability": "view",
      "type": "function"
    },
    {
      "inputs": [
        {
          "internalType": "address",
          "name": "owner",
          "type": "address"
        },
        {
          "internalType": "uint256",
          "name": "index",
          "type": "uint256"
        }
      ],
      "name": "tokenOfOwnerByIndex",
      "outputs": [
        {
          "internalType": "uint256",
          "name": "",
          "type": "uint256"
        }
      ],
      "stateMutability": "view",
      "type": "function"
    },
    {
      "inputs": [
        {
          "internalType": "uint256",
          "name": "tokenId",
          "type": "uint256"
        }
      ],
      "name": "tokenURI",
      "outputs": [
        {
          "internalType": "string",
          "name": "",
          "type": "string"
        }
      ],
      "stateMutability": "view",
      "type": "function"
    },
    {
      "inputs": [],
      "name": "totalSupply",
      "outputs": [
        {
          "internalType": "uint256",
          "name": "",
          "type": "uint256"
        }
      ],
      "stateMutability": "view",
      "type": "function"
    },
    {
      "inputs": [
        {
          "internalType": "address",
          "name": "from",
          "type": "address"
        },
        {
          "internalType": "address",
          "name": "to",
          "type": "address"
        },
        {
          "internalType": "uint256",
          "name": "tokenId",
          "type": "uint256"
        }
      ],
      "name": "transferFrom",
      "outputs": [],
      "stateMutability": "nonpayable",
      "type": "function"
    },
    {
      "inputs": [
        {
          "internalType": "address",
          "name": "newOwner",
          "type": "address"
        }
      ],
      "name": "transferOwnership",
      "outputs": [],
      "stateMutability": "nonpayable",
      "type": "function"
    },
    {
      "inputs": [],
      "name": "withdraw",
      "outputs": [],
      "stateMutability": "nonpayable",
      "type": "function"
    }
  ],
  "bytecode": "0x60806040526000600c60006101000a81548160ff0219169083151502179055506000600c60016101000a81548160ff0219169083151502179055506000601160006101000a81548160ff0219169083151502179055503480156200006257600080fd5b5060405162004ef038038062004ef0833981810160405281019062000088919062000377565b6040518060400160405280600381526020017f504d5600000000000000000000000000000000000000000000000000000000008152506040518060400160405280600681526020017f504d56544b4e000000000000000000000000000000000000000000000000000081525081600090805190602001906200010c9291906200023e565b508060019080519060200190620001259291906200023e565b505050620001486200013c6200017060201b60201c565b6200017860201b60201c565b81600b819055508060109080519060200190620001679291906200023e565b50505062000565565b600033905090565b6000600a60009054906101000a900473ffffffffffffffffffffffffffffffffffffffff16905081600a60006101000a81548173ffffffffffffffffffffffffffffffffffffffff021916908373ffffffffffffffffffffffffffffffffffffffff1602179055508173ffffffffffffffffffffffffffffffffffffffff168173ffffffffffffffffffffffffffffffffffffffff167f8be0079c531659141344cd1fd0a4f28419497f9722a3daafe3b4186f6b6457e060405160405180910390a35050565b8280546200024c9062000470565b90600052602060002090601f016020900481019282620002705760008555620002bc565b82601f106200028b57805160ff1916838001178555620002bc565b82800160010185558215620002bc579182015b82811115620002bb5782518255916020019190600101906200029e565b5b509050620002cb9190620002cf565b5090565b5b80821115620002ea576000816000905550600101620002d0565b5090565b600062000305620002ff84620003fa565b620003d1565b9050828152602081018484840111156200031e57600080fd5b6200032b8482856200043a565b509392505050565b60008151905062000344816200054b565b92915050565b600082601f8301126200035c57600080fd5b81516200036e848260208601620002ee565b91505092915050565b600080604083850312156200038b57600080fd5b60006200039b8582860162000333565b925050602083015167ffffffffffffffff811115620003b957600080fd5b620003c7858286016200034a565b9150509250929050565b6000620003dd620003f0565b9050620003eb8282620004a6565b919050565b6000604051905090565b600067ffffffffffffffff8211156200041857620004176200050b565b5b62000423826200053a565b9050602081019050919050565b6000819050919050565b60005b838110156200045a5780820151818401526020810190506200043d565b838111156200046a576000848401525b50505050565b600060028204905060018216806200048957607f821691505b60208210811415620004a0576200049f620004dc565b5b50919050565b620004b1826200053a565b810181811067ffffffffffffffff82111715620004d357620004d26200050b565b5b80604052505050565b7f4e487b7100000000000000000000000000000000000000000000000000000000600052602260045260246000fd5b7f4e487b7100000000000000000000000000000000000000000000000000000000600052604160045260246000fd5b6000601f19601f8301169050919050565b620005568162000430565b81146200056257600080fd5b50565b61497b80620005756000396000f3fe6080604052600436106101e35760003560e01c80636f8d930511610102578063c54e73e311610095578063e985e9c511610064578063e985e9c5146106c2578063ebf0c717146106ff578063f2fde38b1461072a578063f51f96dd14610753576101e3565b8063c54e73e314610608578063c87b56dd14610631578063d5abeb011461066e578063dab5f34014610699576101e3565b806395d89b41116100d157806395d89b411461056f578063a0712d681461059a578063a22cb465146105b6578063b88d4fde146105df576101e3565b80636f8d9305146104c757806370a08231146104f0578063715018a61461052d5780638da5cb5b14610544576101e3565b80633c14a2de1161017a5780634f6ccce7116101495780634f6ccce7146103f757806353135ca0146104345780636352211e1461045f57806368428a1b1461049c576101e3565b80633c14a2de146103705780633ccfd60b1461038c57806342842e0e146103a3578063453c2310146103cc576101e3565b806318160ddd116101b657806318160ddd146102b65780631d2e5a3a146102e157806323b872dd1461030a5780632f745c5914610333576101e3565b806301ffc9a7146101e857806306fdde0314610225578063081812fc14610250578063095ea7b31461028d575b600080fd5b3480156101f457600080fd5b5061020f600480360381019061020a91906132c2565b61077e565b60405161021c9190613a03565b60405180910390f35b34801561023157600080fd5b5061023a6107f8565b6040516102479190613a39565b60405180910390f35b34801561025c57600080fd5b5061027760048036038101906102729190613314565b61088a565b604051610284919061399c565b60405180910390f35b34801561029957600080fd5b506102b460048036038101906102af91906131dc565b61090f565b005b3480156102c257600080fd5b506102cb610a27565b6040516102d89190613ddb565b60405180910390f35b3480156102ed57600080fd5b5061030860048036038101906103039190613218565b610a34565b005b34801561031657600080fd5b50610331600480360381019061032c91906130d6565b610acd565b005b34801561033f57600080fd5b5061035a600480360381019061035591906131dc565b610b2d565b6040516103679190613ddb565b60405180910390f35b61038a6004803603810190610385919061333d565b610bd2565b005b34801561039857600080fd5b506103a1610ea9565b005b3480156103af57600080fd5b506103ca60048036038101906103c591906130d6565b610f6e565b005b3480156103d857600080fd5b506103e1610f8e565b6040516103ee9190613ddb565b60405180910390f35b34801561040357600080fd5b5061041e60048036038101906104199190613314565b610f93565b60405161042b9190613ddb565b60405180910390f35b34801561044057600080fd5b5061044961102a565b6040516104569190613a03565b60405180910390f35b34801561046b57600080fd5b5061048660048036038101906104819190613314565b61103d565b604051610493919061399c565b60405180910390f35b3480156104a857600080fd5b506104b16110ef565b6040516104be9190613a03565b60405180910390f35b3480156104d357600080fd5b506104ee60048036038101906104e99190613241565b611102565b005b3480156104fc57600080fd5b5061051760048036038101906105129190613071565b6111f5565b6040516105249190613ddb565b60405180910390f35b34801561053957600080fd5b506105426112ad565b005b34801561055057600080fd5b50610559611335565b604051610566919061399c565b60405180910390f35b34801561057b57600080fd5b5061058461135f565b6040516105919190613a39565b60405180910390f35b6105b460048036038101906105af9190613314565b6113f1565b005b3480156105c257600080fd5b506105dd60048036038101906105d891906131a0565b61165e565b005b3480156105eb57600080fd5b5061060660048036038101906106019190613125565b6117df565b005b34801561061457600080fd5b5061062f600480360381019061062a9190613218565b611841565b005b34801561063d57600080fd5b5061065860048036038101906106539190613314565b6118da565b6040516106659190613a39565b60405180910390f35b34801561067a57600080fd5b50610683611a05565b6040516106909190613ddb565b60405180910390f35b3480156106a557600080fd5b506106c060048036038101906106bb9190613299565b611a0a565b005b3480156106ce57600080fd5b506106e960048036038101906106e4919061309a565b611ad7565b6040516106f69190613a03565b60405180910390f35b34801561070b57600080fd5b50610714611b6b565b6040516107219190613a1e565b60405180910390f35b34801561073657600080fd5b50610751600480360381019061074c9190613071565b611b71565b005b34801561075f57600080fd5b50610768611c69565b6040516107759190613ddb565b60405180910390f35b60007f780e9d63000000000000000000000000000000000000000000000000000000007bffffffffffffffffffffffffffffffffffffffffffffffffffffffff1916827bffffffffffffffffffffffffffffffffffffffffffffffffffffffff191614806107f157506107f082611c74565b5b9050919050565b60606000805461080790614079565b80601f016020809104026020016040519081016040528092919081815260200182805461083390614079565b80156108805780601f1061085557610100808354040283529160200191610880565b820191906000526020600020905b81548152906001019060200180831161086357829003601f168201915b5050505050905090565b600061089582611d56565b6108d4576040517f08c379a00000000000000000000000000000000000000000000000000000000081526004016108cb90613c5b565b60405180910390fd5b6004600083815260200190815260200160002060009054906101000a900473ffffffffffffffffffffffffffffffffffffffff169050919050565b600061091a8261103d565b90508073ffffffffffffffffffffffffffffffffffffffff168373ffffffffffffffffffffffffffffffffffffffff16141561098b576040517f08c379a000000000000000000000000000000000000000000000000000000000815260040161098290613cdb565b60405180910390fd5b8073ffffffffffffffffffffffffffffffffffffffff166109aa611dc2565b73ffffffffffffffffffffffffffffffffffffffff1614806109d957506109d8816109d3611dc2565b611ad7565b5b610a18576040517f08c379a0000000000000000000000000000000000000000000000000000000008152600401610a0f90613bdb565b60405180910390fd5b610a228383611dca565b505050565b6000600880549050905090565b610a3c611dc2565b73ffffffffffffffffffffffffffffffffffffffff16610a5a611335565b73ffffffffffffffffffffffffffffffffffffffff1614610ab0576040517f08c379a0000000000000000000000000000000000000000000000000000000008152600401610aa790613c7b565b60405180910390fd5b80600c60016101000a81548160ff02191690831515021790555050565b610ade610ad8611dc2565b82611e83565b610b1d576040517f08c379a0000000000000000000000000000000000000000000000000000000008152600401610b1490613cfb565b60405180910390fd5b610b28838383611f61565b505050565b6000610b38836111f5565b8210610b79576040517f08c379a0000000000000000000000000000000000000000000000000000000008152600401610b7090613a7b565b60405180910390fd5b600660008473ffffffffffffffffffffffffffffffffffffffff1673ffffffffffffffffffffffffffffffffffffffff168152602001908152602001600020600083815260200190815260200160002054905092915050565b600c60009054906101000a900460ff16610c21576040517f08c379a0000000000000000000000000000000000000000000000000000000008152600401610c1890613d7b565b60405180910390fd5b600c60019054906101000a900460ff1615610c71576040517f08c379a0000000000000000000000000000000000000000000000000000000008152600401610c6890613cbb565b60405180910390fd5b610cf1600b543386604051602001610c8a929190613920565b60405160208183030381529060405280519060200120858580806020026020016040519081016040528093929190818152602001838360200280828437600081840152601f19601f820116905080830192505050505050506121bd9092919063ffffffff16565b610d30576040517f08c379a0000000000000000000000000000000000000000000000000000000008152600401610d2790613adb565b60405180910390fd5b8381600d60003373ffffffffffffffffffffffffffffffffffffffff1673ffffffffffffffffffffffffffffffffffffffff16815260200190815260200160002054610d7c9190613ea4565b1115610dbd576040517f08c379a0000000000000000000000000000000000000000000000000000000008152600401610db490613d5b565b60405180910390fd5b3466470de4df82000082610dd19190613f2b565b14610e11576040517f08c379a0000000000000000000000000000000000000000000000000000000008152600401610e0890613b3b565b60405180910390fd5b60005b81811015610e4c57610e39336001610e2a610a27565b610e349190613ea4565b612299565b8080610e44906140dc565b915050610e14565b5080600d60003373ffffffffffffffffffffffffffffffffffffffff1673ffffffffffffffffffffffffffffffffffffffff1681526020019081526020016000206000828254610e9c9190613ea4565b9250508190555050505050565b610eb1611dc2565b73ffffffffffffffffffffffffffffffffffffffff16610ecf611335565b73ffffffffffffffffffffffffffffffffffffffff1614610f25576040517f08c379a0000000000000000000000000000000000000000000000000000000008152600401610f1c90613c7b565b60405180910390fd5b3373ffffffffffffffffffffffffffffffffffffffff166108fc479081150290604051600060405180830381858888f19350505050158015610f6b573d6000803e3d6000fd5b50565b610f89838383604051806020016040528060008152506117df565b505050565b600a81565b6000610f9d610a27565b8210610fde576040517f08c379a0000000000000000000000000000000000000000000000000000000008152600401610fd590613d1b565b60405180910390fd5b60088281548110611018577f4e487b7100000000000000000000000000000000000000000000000000000000600052603260045260246000fd5b90600052602060002001549050919050565b600c60009054906101000a900460ff1681565b6000806002600084815260200190815260200160002060009054906101000a900473ffffffffffffffffffffffffffffffffffffffff169050600073ffffffffffffffffffffffffffffffffffffffff168173ffffffffffffffffffffffffffffffffffffffff1614156110e6576040517f08c379a00000000000000000000000000000000000000000000000000000000081526004016110dd90613c1b565b60405180910390fd5b80915050919050565b600c60019054906101000a900460ff1681565b61110a611dc2565b73ffffffffffffffffffffffffffffffffffffffff16611128611335565b73ffffffffffffffffffffffffffffffffffffffff161461117e576040517f08c379a000000000000000000000000000000000000000000000000000000000815260040161117590613c7b565b60405180910390fd5b600082829050116111c4576040517f08c379a00000000000000000000000000000000000000000000000000000000081526004016111bb90613dbb565b60405180910390fd5b82601160006101000a81548160ff0219169083151502179055508181600f91906111ef929190612e54565b50505050565b60008073ffffffffffffffffffffffffffffffffffffffff168273ffffffffffffffffffffffffffffffffffffffff161415611266576040517f08c379a000000000000000000000000000000000000000000000000000000000815260040161125d90613bfb565b60405180910390fd5b600360008373ffffffffffffffffffffffffffffffffffffffff1673ffffffffffffffffffffffffffffffffffffffff168152602001908152602001600020549050919050565b6112b5611dc2565b73ffffffffffffffffffffffffffffffffffffffff166112d3611335565b73ffffffffffffffffffffffffffffffffffffffff1614611329576040517f08c379a000000000000000000000000000000000000000000000000000000000815260040161132090613c7b565b60405180910390fd5b61133360006122b7565b565b6000600a60009054906101000a900473ffffffffffffffffffffffffffffffffffffffff16905090565b60606001805461136e90614079565b80601f016020809104026020016040519081016040528092919081815260200182805461139a90614079565b80156113e75780601f106113bc576101008083540402835291602001916113e7565b820191906000526020600020905b8154815290600101906020018083116113ca57829003601f168201915b5050505050905090565b600c60019054906101000a900460ff16611440576040517f08c379a000000000000000000000000000000000000000000000000000000000815260040161143790613d3b565b60405180910390fd5b600c60009054906101000a900460ff1615611490576040517f08c379a000000000000000000000000000000000000000000000000000000000815260040161148790613b1b565b60405180910390fd5b600a81600e60003373ffffffffffffffffffffffffffffffffffffffff1673ffffffffffffffffffffffffffffffffffffffff168152602001908152602001600020546114dd9190613ea4565b111561151e576040517f08c379a000000000000000000000000000000000000000000000000000000000815260040161151590613d5b565b60405180910390fd5b601e611528610a27565b826115339190613ea4565b1115611574576040517f08c379a000000000000000000000000000000000000000000000000000000000815260040161156b90613b5b565b60405180910390fd5b3466470de4df820000826115889190613f2b565b11156115c9576040517f08c379a00000000000000000000000000000000000000000000000000000000081526004016115c090613b3b565b60405180910390fd5b60005b81811015611604576115f13360016115e2610a27565b6115ec9190613ea4565b612299565b80806115fc906140dc565b9150506115cc565b5080600e60003373ffffffffffffffffffffffffffffffffffffffff1673ffffffffffffffffffffffffffffffffffffffff16815260200190815260200160002060008282546116549190613ea4565b9250508190555050565b611666611dc2565b73ffffffffffffffffffffffffffffffffffffffff168273ffffffffffffffffffffffffffffffffffffffff1614156116d4576040517f08c379a00000000000000000000000000000000000000000000000000000000081526004016116cb90613b9b565b60405180910390fd5b80600560006116e1611dc2565b73ffffffffffffffffffffffffffffffffffffffff1673ffffffffffffffffffffffffffffffffffffffff16815260200190815260200160002060008473ffffffffffffffffffffffffffffffffffffffff1673ffffffffffffffffffffffffffffffffffffffff16815260200190815260200160002060006101000a81548160ff0219169083151502179055508173ffffffffffffffffffffffffffffffffffffffff1661178e611dc2565b73ffffffffffffffffffffffffffffffffffffffff167f17307eab39ab6107e8899845ad3d59bd9653f200f220920489ca2b5937696c31836040516117d39190613a03565b60405180910390a35050565b6117f06117ea611dc2565b83611e83565b61182f576040517f08c379a000000000000000000000000000000000000000000000000000000000815260040161182690613cfb565b60405180910390fd5b61183b8484848461237d565b50505050565b611849611dc2565b73ffffffffffffffffffffffffffffffffffffffff16611867611335565b73ffffffffffffffffffffffffffffffffffffffff16146118bd576040517f08c379a00000000000000000000000000000000000000000000000000000000081526004016118b490613c7b565b60405180910390fd5b80600c60006101000a81548160ff02191690831515021790555050565b60606118e582611d56565b611924576040517f08c379a000000000000000000000000000000000000000000000000000000000815260040161191b90613a5b565b60405180910390fd5b60001515601160009054906101000a900460ff16151514156119d2576010805461194d90614079565b80601f016020809104026020016040519081016040528092919081815260200182805461197990614079565b80156119c65780601f1061199b576101008083540402835291602001916119c6565b820191906000526020600020905b8154815290600101906020018083116119a957829003601f168201915b50505050509050611a00565b600f6119dd836123d9565b6040516020016119ee929190613978565b60405160208183030381529060405290505b919050565b601e81565b611a12611dc2565b73ffffffffffffffffffffffffffffffffffffffff16611a30611335565b73ffffffffffffffffffffffffffffffffffffffff1614611a86576040517f08c379a0000000000000000000000000000000000000000000000000000000008152600401611a7d90613c7b565b60405180910390fd5b6000602060ff1611611acd576040517f08c379a0000000000000000000000000000000000000000000000000000000008152600401611ac490613d9b565b60405180910390fd5b80600b8190555050565b6000600560008473ffffffffffffffffffffffffffffffffffffffff1673ffffffffffffffffffffffffffffffffffffffff16815260200190815260200160002060008373ffffffffffffffffffffffffffffffffffffffff1673ffffffffffffffffffffffffffffffffffffffff16815260200190815260200160002060009054906101000a900460ff16905092915050565b600b5481565b611b79611dc2565b73ffffffffffffffffffffffffffffffffffffffff16611b97611335565b73ffffffffffffffffffffffffffffffffffffffff1614611bed576040517f08c379a0000000000000000000000000000000000000000000000000000000008152600401611be490613c7b565b60405180910390fd5b600073ffffffffffffffffffffffffffffffffffffffff168173ffffffffffffffffffffffffffffffffffffffff161415611c5d576040517f08c379a0000000000000000000000000000000000000000000000000000000008152600401611c5490613abb565b60405180910390fd5b611c66816122b7565b50565b66470de4df82000081565b60007f80ac58cd000000000000000000000000000000000000000000000000000000007bffffffffffffffffffffffffffffffffffffffffffffffffffffffff1916827bffffffffffffffffffffffffffffffffffffffffffffffffffffffff19161480611d3f57507f5b5e139f000000000000000000000000000000000000000000000000000000007bffffffffffffffffffffffffffffffffffffffffffffffffffffffff1916827bffffffffffffffffffffffffffffffffffffffffffffffffffffffff1916145b80611d4f5750611d4e82612586565b5b9050919050565b60008073ffffffffffffffffffffffffffffffffffffffff166002600084815260200190815260200160002060009054906101000a900473ffffffffffffffffffffffffffffffffffffffff1673ffffffffffffffffffffffffffffffffffffffff1614159050919050565b600033905090565b816004600083815260200190815260200160002060006101000a81548173ffffffffffffffffffffffffffffffffffffffff021916908373ffffffffffffffffffffffffffffffffffffffff160217905550808273ffffffffffffffffffffffffffffffffffffffff16611e3d8361103d565b73ffffffffffffffffffffffffffffffffffffffff167f8c5be1e5ebec7d5bd14f71427d1e84f3dd0314c0f7b2291e5b200ac8c7c3b92560405160405180910390a45050565b6000611e8e82611d56565b611ecd576040517f08c379a0000000000000000000000000000000000000000000000000000000008152600401611ec490613bbb565b60405180910390fd5b6000611ed88361103d565b90508073ffffffffffffffffffffffffffffffffffffffff168473ffffffffffffffffffffffffffffffffffffffff161480611f4757508373ffffffffffffffffffffffffffffffffffffffff16611f2f8461088a565b73ffffffffffffffffffffffffffffffffffffffff16145b80611f585750611f578185611ad7565b5b91505092915050565b8273ffffffffffffffffffffffffffffffffffffffff16611f818261103d565b73ffffffffffffffffffffffffffffffffffffffff1614611fd7576040517f08c379a0000000000000000000000000000000000000000000000000000000008152600401611fce90613c9b565b60405180910390fd5b600073ffffffffffffffffffffffffffffffffffffffff168273ffffffffffffffffffffffffffffffffffffffff161415612047576040517f08c379a000000000000000000000000000000000000000000000000000000000815260040161203e90613b7b565b60405180910390fd5b6120528383836125f0565b61205d600082611dca565b6001600360008573ffffffffffffffffffffffffffffffffffffffff1673ffffffffffffffffffffffffffffffffffffffff16815260200190815260200160002060008282546120ad9190613f85565b925050819055506001600360008473ffffffffffffffffffffffffffffffffffffffff1673ffffffffffffffffffffffffffffffffffffffff16815260200190815260200160002060008282546121049190613ea4565b92505081905550816002600083815260200190815260200160002060006101000a81548173ffffffffffffffffffffffffffffffffffffffff021916908373ffffffffffffffffffffffffffffffffffffffff160217905550808273ffffffffffffffffffffffffffffffffffffffff168473ffffffffffffffffffffffffffffffffffffffff167fddf252ad1be2c89b69c2b068fc378daa952ba7f163c4a11628f55a4df523b3ef60405160405180910390a4505050565b60008082905060005b855181101561228b57600086828151811061220a577f4e487b7100000000000000000000000000000000000000000000000000000000600052603260045260246000fd5b6020026020010151905080831161224b57828160405160200161222e92919061394c565b604051602081830303815290604052805190602001209250612277565b808360405160200161225e92919061394c565b6040516020818303038152906040528051906020012092505b508080612283906140dc565b9150506121c6565b508381149150509392505050565b6122b3828260405180602001604052806000815250612704565b5050565b6000600a60009054906101000a900473ffffffffffffffffffffffffffffffffffffffff16905081600a60006101000a81548173ffffffffffffffffffffffffffffffffffffffff021916908373ffffffffffffffffffffffffffffffffffffffff1602179055508173ffffffffffffffffffffffffffffffffffffffff168173ffffffffffffffffffffffffffffffffffffffff167f8be0079c531659141344cd1fd0a4f28419497f9722a3daafe3b4186f6b6457e060405160405180910390a35050565b612388848484611f61565b6123948484848461275f565b6123d3576040517f08c379a00000000000000000000000000000000000000000000000000000000081526004016123ca90613a9b565b60405180910390fd5b50505050565b60606000821415612421576040518060400160405280600181526020017f30000000000000000000000000000000000000000000000000000000000000008152509050612581565b600082905060005b6000821461245357808061243c906140dc565b915050600a8261244c9190613efa565b9150612429565b60008167ffffffffffffffff811115612495577f4e487b7100000000000000000000000000000000000000000000000000000000600052604160045260246000fd5b6040519080825280601f01601f1916602001820160405280156124c75781602001600182028036833780820191505090505b5090505b6000851461257a576001826124e09190613f85565b9150600a856124ef919061415d565b60306124fb9190613ea4565b60f81b818381518110612537577f4e487b7100000000000000000000000000000000000000000000000000000000600052603260045260246000fd5b60200101907effffffffffffffffffffffffffffffffffffffffffffffffffffffffffffff1916908160001a905350600a856125739190613efa565b94506124cb565b8093505050505b919050565b60007f01ffc9a7000000000000000000000000000000000000000000000000000000007bffffffffffffffffffffffffffffffffffffffffffffffffffffffff1916827bffffffffffffffffffffffffffffffffffffffffffffffffffffffff1916149050919050565b6125fb8383836128f6565b600073ffffffffffffffffffffffffffffffffffffffff168373ffffffffffffffffffffffffffffffffffffffff16141561263e57612639816128fb565b61267d565b8173ffffffffffffffffffffffffffffffffffffffff168373ffffffffffffffffffffffffffffffffffffffff161461267c5761267b8382612944565b5b5b600073ffffffffffffffffffffffffffffffffffffffff168273ffffffffffffffffffffffffffffffffffffffff1614156126c0576126bb81612ab1565b6126ff565b8273ffffffffffffffffffffffffffffffffffffffff168273ffffffffffffffffffffffffffffffffffffffff16146126fe576126fd8282612bf4565b5b5b505050565b61270e8383612c73565b61271b600084848461275f565b61275a576040517f08c379a000000000000000000000000000000000000000000000000000000000815260040161275190613a9b565b60405180910390fd5b505050565b60006127808473ffffffffffffffffffffffffffffffffffffffff16612e41565b156128e9578373ffffffffffffffffffffffffffffffffffffffff1663150b7a026127a9611dc2565b8786866040518563ffffffff1660e01b81526004016127cb94939291906139b7565b602060405180830381600087803b1580156127e557600080fd5b505af192505050801561281657506040513d601f19601f8201168201806040525081019061281391906132eb565b60015b612899573d8060008114612846576040519150601f19603f3d011682016040523d82523d6000602084013e61284b565b606091505b50600081511415612891576040517f08c379a000000000000000000000000000000000000000000000000000000000815260040161288890613a9b565b60405180910390fd5b805181602001fd5b63150b7a0260e01b7bffffffffffffffffffffffffffffffffffffffffffffffffffffffff1916817bffffffffffffffffffffffffffffffffffffffffffffffffffffffff1916149150506128ee565b600190505b949350505050565b505050565b6008805490506009600083815260200190815260200160002081905550600881908060018154018082558091505060019003906000526020600020016000909190919091505550565b60006001612951846111f5565b61295b9190613f85565b9050600060076000848152602001908152602001600020549050818114612a40576000600660008673ffffffffffffffffffffffffffffffffffffffff1673ffffffffffffffffffffffffffffffffffffffff168152602001908152602001600020600084815260200190815260200160002054905080600660008773ffffffffffffffffffffffffffffffffffffffff1673ffffffffffffffffffffffffffffffffffffffff168152602001908152602001600020600084815260200190815260200160002081905550816007600083815260200190815260200160002081905550505b6007600084815260200190815260200160002060009055600660008573ffffffffffffffffffffffffffffffffffffffff1673ffffffffffffffffffffffffffffffffffffffff16815260200190815260200160002060008381526020019081526020016000206000905550505050565b60006001600880549050612ac59190613f85565b9050600060096000848152602001908152602001600020549050600060088381548110612b1b577f4e487b7100000000000000000000000000000000000000000000000000000000600052603260045260246000fd5b906000526020600020015490508060088381548110612b63577f4e487b7100000000000000000000000000000000000000000000000000000000600052603260045260246000fd5b906000526020600020018190555081600960008381526020019081526020016000208190555060096000858152602001908152602001600020600090556008805480612bd8577f4e487b7100000000000000000000000000000000000000000000000000000000600052603160045260246000fd5b6001900381819060005260206000200160009055905550505050565b6000612bff836111f5565b905081600660008573ffffffffffffffffffffffffffffffffffffffff1673ffffffffffffffffffffffffffffffffffffffff168152602001908152602001600020600083815260200190815260200160002081905550806007600084815260200190815260200160002081905550505050565b600073ffffffffffffffffffffffffffffffffffffffff168273ffffffffffffffffffffffffffffffffffffffff161415612ce3576040517f08c379a0000000000000000000000000000000000000000000000000000000008152600401612cda90613c3b565b60405180910390fd5b612cec81611d56565b15612d2c576040517f08c379a0000000000000000000000000000000000000000000000000000000008152600401612d2390613afb565b60405180910390fd5b612d38600083836125f0565b6001600360008473ffffffffffffffffffffffffffffffffffffffff1673ffffffffffffffffffffffffffffffffffffffff1681526020019081526020016000206000828254612d889190613ea4565b92505081905550816002600083815260200190815260200160002060006101000a81548173ffffffffffffffffffffffffffffffffffffffff021916908373ffffffffffffffffffffffffffffffffffffffff160217905550808273ffffffffffffffffffffffffffffffffffffffff16600073ffffffffffffffffffffffffffffffffffffffff167fddf252ad1be2c89b69c2b068fc378daa952ba7f163c4a11628f55a4df523b3ef60405160405180910390a45050565b600080823b905060008111915050919050565b828054612e6090614079565b90600052602060002090601f016020900481019282612e825760008555612ec9565b82601f10612e9b57803560ff1916838001178555612ec9565b82800160010185558215612ec9579182015b82811115612ec8578235825591602001919060010190612ead565b5b509050612ed69190612eda565b5090565b5b80821115612ef3576000816000905550600101612edb565b5090565b6000612f0a612f0584613e1b565b613df6565b905082815260208101848484011115612f2257600080fd5b612f2d848285614037565b509392505050565b600081359050612f44816148d2565b92915050565b60008083601f840112612f5c57600080fd5b8235905067ffffffffffffffff811115612f7557600080fd5b602083019150836020820283011115612f8d57600080fd5b9250929050565b600081359050612fa3816148e9565b92915050565b600081359050612fb881614900565b92915050565b600081359050612fcd81614917565b92915050565b600081519050612fe281614917565b92915050565b600082601f830112612ff957600080fd5b8135613009848260208601612ef7565b91505092915050565b60008083601f84011261302457600080fd5b8235905067ffffffffffffffff81111561303d57600080fd5b60208301915083600182028301111561305557600080fd5b9250929050565b60008135905061306b8161492e565b92915050565b60006020828403121561308357600080fd5b600061309184828501612f35565b91505092915050565b600080604083850312156130ad57600080fd5b60006130bb85828601612f35565b92505060206130cc85828601612f35565b9150509250929050565b6000806000606084860312156130eb57600080fd5b60006130f986828701612f35565b935050602061310a86828701612f35565b925050604061311b8682870161305c565b9150509250925092565b6000806000806080858703121561313b57600080fd5b600061314987828801612f35565b945050602061315a87828801612f35565b935050604061316b8782880161305c565b925050606085013567ffffffffffffffff81111561318857600080fd5b61319487828801612fe8565b91505092959194509250565b600080604083850312156131b357600080fd5b60006131c185828601612f35565b92505060206131d285828601612f94565b9150509250929050565b600080604083850312156131ef57600080fd5b60006131fd85828601612f35565b925050602061320e8582860161305c565b9150509250929050565b60006020828403121561322a57600080fd5b600061323884828501612f94565b91505092915050565b60008060006040848603121561325657600080fd5b600061326486828701612f94565b935050602084013567ffffffffffffffff81111561328157600080fd5b61328d86828701613012565b92509250509250925092565b6000602082840312156132ab57600080fd5b60006132b984828501612fa9565b91505092915050565b6000602082840312156132d457600080fd5b60006132e284828501612fbe565b91505092915050565b6000602082840312156132fd57600080fd5b600061330b84828501612fd3565b91505092915050565b60006020828403121561332657600080fd5b60006133348482850161305c565b91505092915050565b6000806000806060858703121561335357600080fd5b60006133618782880161305c565b945050602085013567ffffffffffffffff81111561337e57600080fd5b61338a87828801612f4a565b9350935050604061339d8782880161305c565b91505092959194509250565b6133b281613fb9565b82525050565b6133c96133c482613fb9565b614125565b82525050565b6133d881613fcb565b82525050565b6133e781613fd7565b82525050565b6133fe6133f982613fd7565b614137565b82525050565b600061340f82613e61565b6134198185613e77565b9350613429818560208601614046565b6134328161424a565b840191505092915050565b600061344882613e6c565b6134528185613e88565b9350613462818560208601614046565b61346b8161424a565b840191505092915050565b600061348182613e6c565b61348b8185613e99565b935061349b818560208601614046565b80840191505092915050565b600081546134b481614079565b6134be8186613e99565b945060018216600081146134d957600181146134ea5761351d565b60ff1983168652818601935061351d565b6134f385613e4c565b60005b83811015613515578154818901526001820191506020810190506134f6565b838801955050505b50505092915050565b6000613533601f83613e88565b915061353e82614268565b602082019050919050565b6000613556602b83613e88565b915061356182614291565b604082019050919050565b6000613579603283613e88565b9150613584826142e0565b604082019050919050565b600061359c602683613e88565b91506135a78261432f565b604082019050919050565b60006135bf601083613e88565b91506135ca8261437e565b602082019050919050565b60006135e2601c83613e88565b91506135ed826143a7565b602082019050919050565b6000613605601683613e88565b9150613610826143d0565b602082019050919050565b6000613628601883613e88565b9150613633826143f9565b602082019050919050565b600061364b601883613e88565b915061365682614422565b602082019050919050565b600061366e602483613e88565b91506136798261444b565b604082019050919050565b6000613691601983613e88565b915061369c8261449a565b602082019050919050565b60006136b4602c83613e88565b91506136bf826144c3565b604082019050919050565b60006136d7603883613e88565b91506136e282614512565b604082019050919050565b60006136fa602a83613e88565b915061370582614561565b604082019050919050565b600061371d602983613e88565b9150613728826145b0565b604082019050919050565b6000613740602083613e88565b915061374b826145ff565b602082019050919050565b6000613763602c83613e88565b915061376e82614628565b604082019050919050565b6000613786602083613e88565b915061379182614677565b602082019050919050565b60006137a9602983613e88565b91506137b4826146a0565b604082019050919050565b60006137cc601583613e88565b91506137d7826146ef565b602082019050919050565b60006137ef602183613e88565b91506137fa82614718565b604082019050919050565b6000613812603183613e88565b915061381d82614767565b604082019050919050565b6000613835602c83613e88565b9150613840826147b6565b604082019050919050565b6000613858600f83613e88565b915061386382614805565b602082019050919050565b600061387b601983613e88565b91506138868261482e565b602082019050919050565b600061389e601283613e88565b91506138a982614857565b602082019050919050565b60006138c1600e83613e88565b91506138cc82614880565b602082019050919050565b60006138e4601683613e88565b91506138ef826148a9565b602082019050919050565b6139038161402d565b82525050565b61391a6139158261402d565b614153565b82525050565b600061392c82856133b8565b60148201915061393c8284613909565b6020820191508190509392505050565b600061395882856133ed565b60208201915061396882846133ed565b6020820191508190509392505050565b600061398482856134a7565b91506139908284613476565b91508190509392505050565b60006020820190506139b160008301846133a9565b92915050565b60006080820190506139cc60008301876133a9565b6139d960208301866133a9565b6139e660408301856138fa565b81810360608301526139f88184613404565b905095945050505050565b6000602082019050613a1860008301846133cf565b92915050565b6000602082019050613a3360008301846133de565b92915050565b60006020820190508181036000830152613a53818461343d565b905092915050565b60006020820190508181036000830152613a7481613526565b9050919050565b60006020820190508181036000830152613a9481613549565b9050919050565b60006020820190508181036000830152613ab48161356c565b9050919050565b60006020820190508181036000830152613ad48161358f565b9050919050565b60006020820190508181036000830152613af4816135b2565b9050919050565b60006020820190508181036000830152613b14816135d5565b9050919050565b60006020820190508181036000830152613b34816135f8565b9050919050565b60006020820190508181036000830152613b548161361b565b9050919050565b60006020820190508181036000830152613b748161363e565b9050919050565b60006020820190508181036000830152613b9481613661565b9050919050565b60006020820190508181036000830152613bb481613684565b9050919050565b60006020820190508181036000830152613bd4816136a7565b9050919050565b60006020820190508181036000830152613bf4816136ca565b9050919050565b60006020820190508181036000830152613c14816136ed565b9050919050565b60006020820190508181036000830152613c3481613710565b9050919050565b60006020820190508181036000830152613c5481613733565b9050919050565b60006020820190508181036000830152613c7481613756565b9050919050565b60006020820190508181036000830152613c9481613779565b9050919050565b60006020820190508181036000830152613cb48161379c565b9050919050565b60006020820190508181036000830152613cd4816137bf565b9050919050565b60006020820190508181036000830152613cf4816137e2565b9050919050565b60006020820190508181036000830152613d1481613805565b9050919050565b60006020820190508181036000830152613d3481613828565b9050919050565b60006020820190508181036000830152613d548161384b565b9050919050565b60006020820190508181036000830152613d748161386e565b9050919050565b60006020820190508181036000830152613d9481613891565b9050919050565b60006020820190508181036000830152613db4816138b4565b9050919050565b60006020820190508181036000830152613dd4816138d7565b9050919050565b6000602082019050613df060008301846138fa565b92915050565b6000613e00613e11565b9050613e0c82826140ab565b919050565b6000604051905090565b600067ffffffffffffffff821115613e3657613e3561421b565b5b613e3f8261424a565b9050602081019050919050565b60008190508160005260206000209050919050565b600081519050919050565b600081519050919050565b600082825260208201905092915050565b600082825260208201905092915050565b600081905092915050565b6000613eaf8261402d565b9150613eba8361402d565b9250827fffffffffffffffffffffffffffffffffffffffffffffffffffffffffffffffff03821115613eef57613eee61418e565b5b828201905092915050565b6000613f058261402d565b9150613f108361402d565b925082613f2057613f1f6141bd565b5b828204905092915050565b6000613f368261402d565b9150613f418361402d565b9250817fffffffffffffffffffffffffffffffffffffffffffffffffffffffffffffffff0483118215151615613f7a57613f7961418e565b5b828202905092915050565b6000613f908261402d565b9150613f9b8361402d565b925082821015613fae57613fad61418e565b5b828203905092915050565b6000613fc48261400d565b9050919050565b60008115159050919050565b6000819050919050565b60007fffffffff0000000000000000000000000000000000000000000000000000000082169050919050565b600073ffffffffffffffffffffffffffffffffffffffff82169050919050565b6000819050919050565b82818337600083830152505050565b60005b83811015614064578082015181840152602081019050614049565b83811115614073576000848401525b50505050565b6000600282049050600182168061409157607f821691505b602082108114156140a5576140a46141ec565b5b50919050565b6140b48261424a565b810181811067ffffffffffffffff821117156140d3576140d261421b565b5b80604052505050565b60006140e78261402d565b91507fffffffffffffffffffffffffffffffffffffffffffffffffffffffffffffffff82141561411a5761411961418e565b5b600182019050919050565b600061413082614141565b9050919050565b6000819050919050565b600061414c8261425b565b9050919050565b6000819050919050565b60006141688261402d565b91506141738361402d565b925082614183576141826141bd565b5b828206905092915050565b7f4e487b7100000000000000000000000000000000000000000000000000000000600052601160045260246000fd5b7f4e487b7100000000000000000000000000000000000000000000000000000000600052601260045260246000fd5b7f4e487b7100000000000000000000000000000000000000000000000000000000600052602260045260246000fd5b7f4e487b7100000000000000000000000000000000000000000000000000000000600052604160045260246000fd5b6000601f19601f8301169050919050565b60008160601b9050919050565b7f55524920717565727920666f72206e6f6e6578697374656e7420746f6b656e00600082015250565b7f455243373231456e756d657261626c653a206f776e657220696e646578206f7560008201527f74206f6620626f756e6473000000000000000000000000000000000000000000602082015250565b7f4552433732313a207472616e7366657220746f206e6f6e20455243373231526560008201527f63656976657220696d706c656d656e7465720000000000000000000000000000602082015250565b7f4f776e61626c653a206e6577206f776e657220697320746865207a65726f206160008201527f6464726573730000000000000000000000000000000000000000000000000000602082015250565b7f4e4f54204f4e2057484954454c49535400000000000000000000000000000000600082015250565b7f4552433732313a20746f6b656e20616c7265616479206d696e74656400000000600082015250565b7f50524553414c45204f4e4c59205249474854204e4f5700000000000000000000600082015250565b7f494e434f5252454354205041594d454e5420414d4f554e540000000000000000600082015250565b7f4e4f5420454e4f554748204c45465420494e2053544f434b0000000000000000600082015250565b7f4552433732313a207472616e7366657220746f20746865207a65726f2061646460008201527f7265737300000000000000000000000000000000000000000000000000000000602082015250565b7f4552433732313a20617070726f766520746f2063616c6c657200000000000000600082015250565b7f4552433732313a206f70657261746f7220717565727920666f72206e6f6e657860008201527f697374656e7420746f6b656e0000000000000000000000000000000000000000602082015250565b7f4552433732313a20617070726f76652063616c6c6572206973206e6f74206f7760008201527f6e6572206e6f7220617070726f76656420666f7220616c6c0000000000000000602082015250565b7f4552433732313a2062616c616e636520717565727920666f7220746865207a6560008201527f726f206164647265737300000000000000000000000000000000000000000000602082015250565b7f4552433732313a206f776e657220717565727920666f72206e6f6e657869737460008201527f656e7420746f6b656e0000000000000000000000000000000000000000000000602082015250565b7f4552433732313a206d696e7420746f20746865207a65726f2061646472657373600082015250565b7f4552433732313a20617070726f76656420717565727920666f72206e6f6e657860008201527f697374656e7420746f6b656e0000000000000000000000000000000000000000602082015250565b7f4f776e61626c653a2063616c6c6572206973206e6f7420746865206f776e6572600082015250565b7f4552433732313a207472616e73666572206f6620746f6b656e2074686174206960008201527f73206e6f74206f776e0000000000000000000000000000000000000000000000602082015250565b7f53414c4520414354495645205249474854204e4f570000000000000000000000600082015250565b7f4552433732313a20617070726f76616c20746f2063757272656e74206f776e6560008201527f7200000000000000000000000000000000000000000000000000000000000000602082015250565b7f4552433732313a207472616e736665722063616c6c6572206973206e6f74206f60008201527f776e6572206e6f7220617070726f766564000000000000000000000000000000602082015250565b7f455243373231456e756d657261626c653a20676c6f62616c20696e646578206f60008201527f7574206f6620626f756e64730000000000000000000000000000000000000000602082015250565b7f53414c45204e4f54204143544956450000000000000000000000000000000000600082015250565b7f4d494e54494e47204d4f5245205448414e20414c4c4f57454400000000000000600082015250565b7f50524553414c45204e4f54204143544956450000000000000000000000000000600082015250565b7f5f726f6f7420697320656d707479000000000000000000000000000000000000600082015250565b7f5f746f6b656e4261736555524920697320656d70747900000000000000000000600082015250565b6148db81613fb9565b81146148e657600080fd5b50565b6148f281613fcb565b81146148fd57600080fd5b50565b61490981613fd7565b811461491457600080fd5b50565b61492081613fe1565b811461492b57600080fd5b50565b6149378161402d565b811461494257600080fd5b5056fea2646970667358221220c021643204eb36da3ec0f1c2958d2471b03ce062102d2ea1c1d9c4449216e50964736f6c63430008040033",
  "linkReferences": {},
  "deployedLinkReferences": {}
}