{
  "_format": "hh-sol-artifact-1",
  "contractName": "PMV",
  "sourceName": "contracts/PMV.sol",
  "abi": [
    {
      "inputs": [
        {
          "internalType": "bytes32",
          "name": "merkleroot",
          "type": "bytes32"
        },
        {
          "internalType": "string",
          "name": "uri",
          "type": "string"
        },
        {
          "internalType": "bytes32",
          "name": "_rootMintFree",
          "type": "bytes32"
        }
      ],
      "stateMutability": "nonpayable",
      "type": "constructor"
    },
    {
      "anonymous": false,
      "inputs": [
        {
          "indexed": true,
          "internalType": "address",
          "name": "owner",
          "type": "address"
        },
        {
          "indexed": true,
          "internalType": "address",
          "name": "approved",
          "type": "address"
        },
        {
          "indexed": true,
          "internalType": "uint256",
          "name": "tokenId",
          "type": "uint256"
        }
      ],
      "name": "Approval",
      "type": "event"
    },
    {
      "anonymous": false,
      "inputs": [
        {
          "indexed": true,
          "internalType": "address",
          "name": "owner",
          "type": "address"
        },
        {
          "indexed": true,
          "internalType": "address",
          "name": "operator",
          "type": "address"
        },
        {
          "indexed": false,
          "internalType": "bool",
          "name": "approved",
          "type": "bool"
        }
      ],
      "name": "ApprovalForAll",
      "type": "event"
    },
    {
      "anonymous": false,
      "inputs": [
        {
          "indexed": true,
          "internalType": "address",
          "name": "previousOwner",
          "type": "address"
        },
        {
          "indexed": true,
          "internalType": "address",
          "name": "newOwner",
          "type": "address"
        }
      ],
      "name": "OwnershipTransferred",
      "type": "event"
    },
    {
      "anonymous": false,
      "inputs": [
        {
          "indexed": true,
          "internalType": "address",
          "name": "from",
          "type": "address"
        },
        {
          "indexed": true,
          "internalType": "address",
          "name": "to",
          "type": "address"
        },
        {
          "indexed": true,
          "internalType": "uint256",
          "name": "tokenId",
          "type": "uint256"
        }
      ],
      "name": "Transfer",
      "type": "event"
    },
    {
      "inputs": [
        {
          "internalType": "uint256",
          "name": "tokenId",
          "type": "uint256"
        }
      ],
      "name": "_tokenURI",
      "outputs": [
        {
          "internalType": "string",
          "name": "",
          "type": "string"
        }
      ],
      "stateMutability": "view",
      "type": "function"
    },
    {
      "inputs": [
        {
          "internalType": "address",
          "name": "to",
          "type": "address"
        },
        {
          "internalType": "uint256",
          "name": "tokenId",
          "type": "uint256"
        }
      ],
      "name": "approve",
      "outputs": [],
      "stateMutability": "nonpayable",
      "type": "function"
    },
    {
      "inputs": [
        {
          "internalType": "address",
          "name": "owner",
          "type": "address"
        }
      ],
      "name": "balanceOf",
      "outputs": [
        {
          "internalType": "uint256",
          "name": "",
          "type": "uint256"
        }
      ],
      "stateMutability": "view",
      "type": "function"
    },
    {
      "inputs": [],
      "name": "freeMintAllowed",
      "outputs": [
        {
          "internalType": "bool",
          "name": "",
          "type": "bool"
        }
      ],
      "stateMutability": "view",
      "type": "function"
    },
    {
      "inputs": [
        {
          "internalType": "uint256",
          "name": "tokenId",
          "type": "uint256"
        }
      ],
      "name": "getApproved",
      "outputs": [
        {
          "internalType": "address",
          "name": "",
          "type": "address"
        }
      ],
      "stateMutability": "view",
      "type": "function"
    },
    {
      "inputs": [
        {
          "internalType": "address",
          "name": "owner",
          "type": "address"
        },
        {
          "internalType": "address",
          "name": "operator",
          "type": "address"
        }
      ],
      "name": "isApprovedForAll",
      "outputs": [
        {
          "internalType": "bool",
          "name": "",
          "type": "bool"
        }
      ],
      "stateMutability": "view",
      "type": "function"
    },
    {
      "inputs": [],
      "name": "maxPerTransaction",
      "outputs": [
        {
          "internalType": "uint256",
          "name": "",
          "type": "uint256"
        }
      ],
      "stateMutability": "view",
      "type": "function"
    },
    {
      "inputs": [],
      "name": "maxSupply",
      "outputs": [
        {
          "internalType": "uint256",
          "name": "",
          "type": "uint256"
        }
      ],
      "stateMutability": "view",
      "type": "function"
    },
    {
      "inputs": [
        {
          "internalType": "uint256",
          "name": "tokenQuantity",
          "type": "uint256"
        }
      ],
      "name": "mint",
      "outputs": [],
      "stateMutability": "payable",
      "type": "function"
    },
    {
      "inputs": [
        {
          "internalType": "uint256",
          "name": "allowance",
          "type": "uint256"
        },
        {
          "internalType": "bytes32[]",
          "name": "proof",
          "type": "bytes32[]"
        },
        {
          "internalType": "uint256",
          "name": "tokenQuantity",
          "type": "uint256"
        }
      ],
      "name": "mintFree",
      "outputs": [],
      "stateMutability": "nonpayable",
      "type": "function"
    },
    {
      "inputs": [
        {
          "internalType": "uint256",
          "name": "allowance",
          "type": "uint256"
        },
        {
          "internalType": "bytes32[]",
          "name": "proof",
          "type": "bytes32[]"
        },
        {
          "internalType": "uint256",
          "name": "tokenQuantity",
          "type": "uint256"
        }
      ],
      "name": "mintPresale",
      "outputs": [],
      "stateMutability": "payable",
      "type": "function"
    },
    {
      "inputs": [],
      "name": "name",
      "outputs": [
        {
          "internalType": "string",
          "name": "",
          "type": "string"
        }
      ],
      "stateMutability": "view",
      "type": "function"
    },
    {
      "inputs": [],
      "name": "owner",
      "outputs": [
        {
          "internalType": "address",
          "name": "",
          "type": "address"
        }
      ],
      "stateMutability": "view",
      "type": "function"
    },
    {
      "inputs": [
        {
          "internalType": "uint256",
          "name": "tokenId",
          "type": "uint256"
        }
      ],
      "name": "ownerOf",
      "outputs": [
        {
          "internalType": "address",
          "name": "",
          "type": "address"
        }
      ],
      "stateMutability": "view",
      "type": "function"
    },
    {
      "inputs": [],
      "name": "presaleActive",
      "outputs": [
        {
          "internalType": "bool",
          "name": "",
          "type": "bool"
        }
      ],
      "stateMutability": "view",
      "type": "function"
    },
    {
      "inputs": [],
      "name": "presalePrice",
      "outputs": [
        {
          "internalType": "uint256",
          "name": "",
          "type": "uint256"
        }
      ],
      "stateMutability": "view",
      "type": "function"
    },
    {
      "inputs": [],
      "name": "renounceOwnership",
      "outputs": [],
      "stateMutability": "nonpayable",
      "type": "function"
    },
    {
      "inputs": [],
      "name": "root",
      "outputs": [
        {
          "internalType": "bytes32",
          "name": "",
          "type": "bytes32"
        }
      ],
      "stateMutability": "view",
      "type": "function"
    },
    {
      "inputs": [],
      "name": "rootMintFree",
      "outputs": [
        {
          "internalType": "bytes32",
          "name": "",
          "type": "bytes32"
        }
      ],
      "stateMutability": "view",
      "type": "function"
    },
    {
      "inputs": [
        {
          "internalType": "address",
          "name": "from",
          "type": "address"
        },
        {
          "internalType": "address",
          "name": "to",
          "type": "address"
        },
        {
          "internalType": "uint256",
          "name": "tokenId",
          "type": "uint256"
        }
      ],
      "name": "safeTransferFrom",
      "outputs": [],
      "stateMutability": "nonpayable",
      "type": "function"
    },
    {
      "inputs": [
        {
          "internalType": "address",
          "name": "from",
          "type": "address"
        },
        {
          "internalType": "address",
          "name": "to",
          "type": "address"
        },
        {
          "internalType": "uint256",
          "name": "tokenId",
          "type": "uint256"
        },
        {
          "internalType": "bytes",
          "name": "_data",
          "type": "bytes"
        }
      ],
      "name": "safeTransferFrom",
      "outputs": [],
      "stateMutability": "nonpayable",
      "type": "function"
    },
    {
      "inputs": [],
      "name": "saleActive",
      "outputs": [
        {
          "internalType": "bool",
          "name": "",
          "type": "bool"
        }
      ],
      "stateMutability": "view",
      "type": "function"
    },
    {
      "inputs": [],
      "name": "salePrice",
      "outputs": [
        {
          "internalType": "uint256",
          "name": "",
          "type": "uint256"
        }
      ],
      "stateMutability": "view",
      "type": "function"
    },
    {
      "inputs": [
        {
          "internalType": "address",
          "name": "operator",
          "type": "address"
        },
        {
          "internalType": "bool",
          "name": "approved",
          "type": "bool"
        }
      ],
      "name": "setApprovalForAll",
      "outputs": [],
      "stateMutability": "nonpayable",
      "type": "function"
    },
    {
      "inputs": [
        {
          "internalType": "bool",
          "name": "_freeMintAllowed",
          "type": "bool"
        }
      ],
      "name": "setFreeMintAllowed",
      "outputs": [],
      "stateMutability": "nonpayable",
      "type": "function"
    },
    {
      "inputs": [
        {
          "internalType": "uint256",
          "name": "_maxPerTransaction",
          "type": "uint256"
        }
      ],
      "name": "setMaxPerTransaction",
      "outputs": [],
      "stateMutability": "nonpayable",
      "type": "function"
    },
    {
      "inputs": [
        {
          "internalType": "bool",
          "name": "_presaleStatus",
          "type": "bool"
        }
      ],
      "name": "setPresale",
      "outputs": [],
      "stateMutability": "nonpayable",
      "type": "function"
    },
    {
      "inputs": [
        {
          "internalType": "uint256",
          "name": "_presalePrice",
          "type": "uint256"
        }
      ],
      "name": "setPresalePrice",
      "outputs": [],
      "stateMutability": "nonpayable",
      "type": "function"
    },
    {
      "inputs": [
        {
          "internalType": "uint256",
          "name": "_salePrice",
          "type": "uint256"
        }
      ],
      "name": "setPrice",
      "outputs": [],
      "stateMutability": "nonpayable",
      "type": "function"
    },
    {
      "inputs": [
        {
          "internalType": "bytes32",
          "name": "_root",
          "type": "bytes32"
        }
      ],
      "name": "setRoot",
      "outputs": [],
      "stateMutability": "nonpayable",
      "type": "function"
    },
    {
      "inputs": [
        {
          "internalType": "bytes32",
          "name": "_root",
          "type": "bytes32"
        }
      ],
      "name": "setRootMintFree",
      "outputs": [],
      "stateMutability": "nonpayable",
      "type": "function"
    },
    {
      "inputs": [
        {
          "internalType": "bool",
          "name": "_saleStatus",
          "type": "bool"
        }
      ],
      "name": "setSale",
      "outputs": [],
      "stateMutability": "nonpayable",
      "type": "function"
    },
    {
      "inputs": [
        {
          "internalType": "bool",
          "name": "_revealed",
          "type": "bool"
        },
        {
          "internalType": "string",
          "name": "_tokenBaseURI",
          "type": "string"
        }
      ],
      "name": "setURIStatus",
      "outputs": [],
      "stateMutability": "nonpayable",
      "type": "function"
    },
    {
      "inputs": [
        {
          "internalType": "bytes4",
          "name": "interfaceId",
          "type": "bytes4"
        }
      ],
      "name": "supportsInterface",
      "outputs": [
        {
          "internalType": "bool",
          "name": "",
          "type": "bool"
        }
      ],
      "stateMutability": "view",
      "type": "function"
    },
    {
      "inputs": [],
      "name": "symbol",
      "outputs": [
        {
          "internalType": "string",
          "name": "",
          "type": "string"
        }
      ],
      "stateMutability": "view",
      "type": "function"
    },
    {
      "inputs": [
        {
          "internalType": "uint256",
          "name": "index",
          "type": "uint256"
        }
      ],
      "name": "tokenByIndex",
      "outputs": [
        {
          "internalType": "uint256",
          "name": "",
          "type": "uint256"
        }
      ],
      "stateMutability": "view",
      "type": "function"
    },
    {
      "inputs": [
        {
          "internalType": "address",
          "name": "owner",
          "type": "address"
        },
        {
          "internalType": "uint256",
          "name": "index",
          "type": "uint256"
        }
      ],
      "name": "tokenOfOwnerByIndex",
      "outputs": [
        {
          "internalType": "uint256",
          "name": "",
          "type": "uint256"
        }
      ],
      "stateMutability": "view",
      "type": "function"
    },
    {
      "inputs": [
        {
          "internalType": "uint256",
          "name": "tokenId",
          "type": "uint256"
        }
      ],
      "name": "tokenURI",
      "outputs": [
        {
          "internalType": "string",
          "name": "",
          "type": "string"
        }
      ],
      "stateMutability": "view",
      "type": "function"
    },
    {
      "inputs": [],
      "name": "totalSupply",
      "outputs": [
        {
          "internalType": "uint256",
          "name": "",
          "type": "uint256"
        }
      ],
      "stateMutability": "view",
      "type": "function"
    },
    {
      "inputs": [
        {
          "internalType": "address",
          "name": "from",
          "type": "address"
        },
        {
          "internalType": "address",
          "name": "to",
          "type": "address"
        },
        {
          "internalType": "uint256",
          "name": "tokenId",
          "type": "uint256"
        }
      ],
      "name": "transferFrom",
      "outputs": [],
      "stateMutability": "nonpayable",
      "type": "function"
    },
    {
      "inputs": [
        {
          "internalType": "address",
          "name": "newOwner",
          "type": "address"
        }
      ],
      "name": "transferOwnership",
      "outputs": [],
      "stateMutability": "nonpayable",
      "type": "function"
    },
    {
      "inputs": [],
      "name": "withdraw",
      "outputs": [],
      "stateMutability": "nonpayable",
      "type": "function"
    }
  ],
  "bytecode": "0x6080604052600a600b5567016345785d8a0000600c556701118f178fb48000600d556000600e60006101000a81548160ff0219169083151502179055506000600e60016101000a81548160ff0219169083151502179055506000600e60026101000a81548160ff0219169083151502179055506000601160006101000a81548160ff0219169083151502179055503480156200009a57600080fd5b50604051620058a1380380620058a18339818101604052810190620000c09190620003b7565b6040518060400160405280600381526020017f504d5600000000000000000000000000000000000000000000000000000000008152506040518060400160405280600681526020017f504d56544b4e00000000000000000000000000000000000000000000000000008152508160009080519060200190620001449291906200027e565b5080600190805190602001906200015d9291906200027e565b5050506200018062000174620001b060201b60201c565b620001b860201b60201c565b8260128190555081601090805190602001906200019f9291906200027e565b5080601381905550505050620005ba565b600033905090565b6000600a60009054906101000a900473ffffffffffffffffffffffffffffffffffffffff16905081600a60006101000a81548173ffffffffffffffffffffffffffffffffffffffff021916908373ffffffffffffffffffffffffffffffffffffffff1602179055508173ffffffffffffffffffffffffffffffffffffffff168173ffffffffffffffffffffffffffffffffffffffff167f8be0079c531659141344cd1fd0a4f28419497f9722a3daafe3b4186f6b6457e060405160405180910390a35050565b8280546200028c90620004c5565b90600052602060002090601f016020900481019282620002b05760008555620002fc565b82601f10620002cb57805160ff1916838001178555620002fc565b82800160010185558215620002fc579182015b82811115620002fb578251825591602001919060010190620002de565b5b5090506200030b91906200030f565b5090565b5b808211156200032a57600081600090555060010162000310565b5090565b6000620003456200033f846200044f565b62000426565b9050828152602081018484840111156200035e57600080fd5b6200036b8482856200048f565b509392505050565b6000815190506200038481620005a0565b92915050565b600082601f8301126200039c57600080fd5b8151620003ae8482602086016200032e565b91505092915050565b600080600060608486031215620003cd57600080fd5b6000620003dd8682870162000373565b935050602084015167ffffffffffffffff811115620003fb57600080fd5b62000409868287016200038a565b92505060406200041c8682870162000373565b9150509250925092565b60006200043262000445565b9050620004408282620004fb565b919050565b6000604051905090565b600067ffffffffffffffff8211156200046d576200046c62000560565b5b62000478826200058f565b9050602081019050919050565b6000819050919050565b60005b83811015620004af57808201518184015260208101905062000492565b83811115620004bf576000848401525b50505050565b60006002820490506001821680620004de57607f821691505b60208210811415620004f557620004f462000531565b5b50919050565b62000506826200058f565b810181811067ffffffffffffffff8211171562000528576200052762000560565b5b80604052505050565b7f4e487b7100000000000000000000000000000000000000000000000000000000600052602260045260246000fd5b7f4e487b7100000000000000000000000000000000000000000000000000000000600052604160045260246000fd5b6000601f19601f8301169050919050565b620005ab8162000485565b8114620005b757600080fd5b50565b6152d780620005ca6000396000f3fe6080604052600436106102505760003560e01c806368428a1b11610139578063a22cb465116100b6578063d5abeb011161007a578063d5abeb011461088f578063dab5f340146108ba578063e985e9c5146108e3578063ebf0c71714610920578063f2fde38b1461094b578063f51f96dd1461097457610250565b8063a22cb465146107ae578063b88d4fde146107d7578063c54e73e314610800578063c87b56dd14610829578063ccfdd2f81461086657610250565b80638da5cb5b116100fd5780638da5cb5b146106ea57806391b7f5ed1461071557806392c46da31461073e57806395d89b4114610767578063a0712d681461079257610250565b806368428a1b146106055780636f8d93051461063057806370a0823114610659578063715018a6146106965780638d17e712146106ad57610250565b80632a613fa7116101d257806342842e0e1161019657806342842e0e146104e15780634b980d671461050a5780634f6ccce71461053557806353135ca0146105725780635fc9c0e61461059d5780636352211e146105c857610250565b80632a613fa71461041d5780632f745c59146104485780633549345e146104855780633c14a2de146104ae5780633ccfd60b146104ca57610250565b806318160ddd1161021957806318160ddd1461034e5780631d2e5a3a146103795780631fbb4e27146103a257806323b872dd146103cb57806329770e04146103f457610250565b80620e7fa81461025557806301ffc9a71461028057806306fdde03146102bd578063081812fc146102e8578063095ea7b314610325575b600080fd5b34801561026157600080fd5b5061026a61099f565b6040516102779190614647565b60405180910390f35b34801561028c57600080fd5b506102a760048036038101906102a29190613a22565b6109a5565b6040516102b491906141ef565b60405180910390f35b3480156102c957600080fd5b506102d2610a1f565b6040516102df9190614225565b60405180910390f35b3480156102f457600080fd5b5061030f600480360381019061030a9190613a74565b610ab1565b60405161031c9190614188565b60405180910390f35b34801561033157600080fd5b5061034c6004803603810190610347919061393c565b610b36565b005b34801561035a57600080fd5b50610363610c4e565b6040516103709190614647565b60405180910390f35b34801561038557600080fd5b506103a0600480360381019061039b9190613978565b610c5b565b005b3480156103ae57600080fd5b506103c960048036038101906103c491906139f9565b610cf4565b005b3480156103d757600080fd5b506103f260048036038101906103ed9190613836565b610dc1565b005b34801561040057600080fd5b5061041b60048036038101906104169190613978565b610e21565b005b34801561042957600080fd5b50610432610eba565b60405161043f91906141ef565b60405180910390f35b34801561045457600080fd5b5061046f600480360381019061046a919061393c565b610ecd565b60405161047c9190614647565b60405180910390f35b34801561049157600080fd5b506104ac60048036038101906104a79190613a74565b610f72565b005b6104c860048036038101906104c39190613a9d565b610ff8565b005b3480156104d657600080fd5b506104df611322565b005b3480156104ed57600080fd5b5061050860048036038101906105039190613836565b6113e7565b005b34801561051657600080fd5b5061051f611407565b60405161052c9190614647565b60405180910390f35b34801561054157600080fd5b5061055c60048036038101906105579190613a74565b61140d565b6040516105699190614647565b60405180910390f35b34801561057e57600080fd5b506105876114a4565b60405161059491906141ef565b60405180910390f35b3480156105a957600080fd5b506105b26114b7565b6040516105bf919061420a565b60405180910390f35b3480156105d457600080fd5b506105ef60048036038101906105ea9190613a74565b6114bd565b6040516105fc9190614188565b60405180910390f35b34801561061157600080fd5b5061061a61156f565b60405161062791906141ef565b60405180910390f35b34801561063c57600080fd5b50610657600480360381019061065291906139a1565b611582565b005b34801561066557600080fd5b50610680600480360381019061067b91906137d1565b611675565b60405161068d9190614647565b60405180910390f35b3480156106a257600080fd5b506106ab61172d565b005b3480156106b957600080fd5b506106d460048036038101906106cf9190613a74565b6117b5565b6040516106e19190614225565b60405180910390f35b3480156106f657600080fd5b506106ff611898565b60405161070c9190614188565b60405180910390f35b34801561072157600080fd5b5061073c60048036038101906107379190613a74565b6118c2565b005b34801561074a57600080fd5b5061076560048036038101906107609190613a9d565b611948565b005b34801561077357600080fd5b5061077c611bd2565b6040516107899190614225565b60405180910390f35b6107ac60048036038101906107a79190613a74565b611c64565b005b3480156107ba57600080fd5b506107d560048036038101906107d09190613900565b611e2e565b005b3480156107e357600080fd5b506107fe60048036038101906107f99190613885565b611e44565b005b34801561080c57600080fd5b5061082760048036038101906108229190613978565b611ea6565b005b34801561083557600080fd5b50610850600480360381019061084b9190613a74565b611f3f565b60405161085d9190614225565b60405180910390f35b34801561087257600080fd5b5061088d60048036038101906108889190613a74565b611f99565b005b34801561089b57600080fd5b506108a4612062565b6040516108b19190614647565b60405180910390f35b3480156108c657600080fd5b506108e160048036038101906108dc91906139f9565b612067565b005b3480156108ef57600080fd5b5061090a600480360381019061090591906137fa565b612134565b60405161091791906141ef565b60405180910390f35b34801561092c57600080fd5b506109356121c8565b604051610942919061420a565b60405180910390f35b34801561095757600080fd5b50610972600480360381019061096d91906137d1565b6121ce565b005b34801561098057600080fd5b506109896122c6565b6040516109969190614647565b60405180910390f35b600d5481565b60007f780e9d63000000000000000000000000000000000000000000000000000000007bffffffffffffffffffffffffffffffffffffffffffffffffffffffff1916827bffffffffffffffffffffffffffffffffffffffffffffffffffffffff19161480610a185750610a17826122cc565b5b9050919050565b606060008054610a2e906148e5565b80601f0160208091040260200160405190810160405280929190818152602001828054610a5a906148e5565b8015610aa75780601f10610a7c57610100808354040283529160200191610aa7565b820191906000526020600020905b815481529060010190602001808311610a8a57829003601f168201915b5050505050905090565b6000610abc826123ae565b610afb576040517f08c379a0000000000000000000000000000000000000000000000000000000008152600401610af290614487565b60405180910390fd5b6004600083815260200190815260200160002060009054906101000a900473ffffffffffffffffffffffffffffffffffffffff169050919050565b6000610b41826114bd565b90508073ffffffffffffffffffffffffffffffffffffffff168373ffffffffffffffffffffffffffffffffffffffff161415610bb2576040517f08c379a0000000000000000000000000000000000000000000000000000000008152600401610ba990614527565b60405180910390fd5b8073ffffffffffffffffffffffffffffffffffffffff16610bd161241a565b73ffffffffffffffffffffffffffffffffffffffff161480610c005750610bff81610bfa61241a565b612134565b5b610c3f576040517f08c379a0000000000000000000000000000000000000000000000000000000008152600401610c3690614407565b60405180910390fd5b610c498383612422565b505050565b6000600880549050905090565b610c6361241a565b73ffffffffffffffffffffffffffffffffffffffff16610c81611898565b73ffffffffffffffffffffffffffffffffffffffff1614610cd7576040517f08c379a0000000000000000000000000000000000000000000000000000000008152600401610cce906144a7565b60405180910390fd5b80600e60026101000a81548160ff02191690831515021790555050565b610cfc61241a565b73ffffffffffffffffffffffffffffffffffffffff16610d1a611898565b73ffffffffffffffffffffffffffffffffffffffff1614610d70576040517f08c379a0000000000000000000000000000000000000000000000000000000008152600401610d67906144a7565b60405180910390fd5b6000602060ff1611610db7576040517f08c379a0000000000000000000000000000000000000000000000000000000008152600401610dae90614607565b60405180910390fd5b8060138190555050565b610dd2610dcc61241a565b826124db565b610e11576040517f08c379a0000000000000000000000000000000000000000000000000000000008152600401610e0890614547565b60405180910390fd5b610e1c8383836125b9565b505050565b610e2961241a565b73ffffffffffffffffffffffffffffffffffffffff16610e47611898565b73ffffffffffffffffffffffffffffffffffffffff1614610e9d576040517f08c379a0000000000000000000000000000000000000000000000000000000008152600401610e94906144a7565b60405180910390fd5b80600e60016101000a81548160ff02191690831515021790555050565b600e60019054906101000a900460ff1681565b6000610ed883611675565b8210610f19576040517f08c379a0000000000000000000000000000000000000000000000000000000008152600401610f1090614267565b60405180910390fd5b600660008473ffffffffffffffffffffffffffffffffffffffff1673ffffffffffffffffffffffffffffffffffffffff168152602001908152602001600020600083815260200190815260200160002054905092915050565b610f7a61241a565b73ffffffffffffffffffffffffffffffffffffffff16610f98611898565b73ffffffffffffffffffffffffffffffffffffffff1614610fee576040517f08c379a0000000000000000000000000000000000000000000000000000000008152600401610fe5906144a7565b60405180910390fd5b80600d8190555050565b600e60009054906101000a900460ff16611047576040517f08c379a000000000000000000000000000000000000000000000000000000000815260040161103e906145c7565b60405180910390fd5b600e60029054906101000a900460ff1615611097576040517f08c379a000000000000000000000000000000000000000000000000000000000815260040161108e90614507565b60405180910390fd5b61111760125433866040516020016110b092919061410c565b60405160208183030381529060405280519060200120858580806020026020016040519081016040528093929190818152602001838360200280828437600081840152601f19601f820116905080830192505050505050506128159092919063ffffffff16565b611156576040517f08c379a000000000000000000000000000000000000000000000000000000000815260040161114d906143c7565b60405180910390fd5b8381601460003373ffffffffffffffffffffffffffffffffffffffff1673ffffffffffffffffffffffffffffffffffffffff168152602001908152602001600020546111a29190614710565b11156111e3576040517f08c379a00000000000000000000000000000000000000000000000000000000081526004016111da906145a7565b60405180910390fd5b34600d54826111f29190614797565b1115611233576040517f08c379a000000000000000000000000000000000000000000000000000000000815260040161122a90614307565b60405180910390fd5b600061123d610c4e565b9050601e818361124d9190614710565b111561128e576040517f08c379a000000000000000000000000000000000000000000000000000000000815260040161128590614327565b60405180910390fd5b6000600190505b8281116112c4576112b13382846112ac9190614710565b61282c565b80806112bc90614948565b915050611295565b5081601460003373ffffffffffffffffffffffffffffffffffffffff1673ffffffffffffffffffffffffffffffffffffffff16815260200190815260200160002060008282546113149190614710565b925050819055505050505050565b61132a61241a565b73ffffffffffffffffffffffffffffffffffffffff16611348611898565b73ffffffffffffffffffffffffffffffffffffffff161461139e576040517f08c379a0000000000000000000000000000000000000000000000000000000008152600401611395906144a7565b60405180910390fd5b3373ffffffffffffffffffffffffffffffffffffffff166108fc479081150290604051600060405180830381858888f193505050501580156113e4573d6000803e3d6000fd5b50565b61140283838360405180602001604052806000815250611e44565b505050565b600b5481565b6000611417610c4e565b8210611458576040517f08c379a000000000000000000000000000000000000000000000000000000000815260040161144f90614567565b60405180910390fd5b60088281548110611492577f4e487b7100000000000000000000000000000000000000000000000000000000600052603260045260246000fd5b90600052602060002001549050919050565b600e60009054906101000a900460ff1681565b60135481565b6000806002600084815260200190815260200160002060009054906101000a900473ffffffffffffffffffffffffffffffffffffffff169050600073ffffffffffffffffffffffffffffffffffffffff168173ffffffffffffffffffffffffffffffffffffffff161415611566576040517f08c379a000000000000000000000000000000000000000000000000000000000815260040161155d90614447565b60405180910390fd5b80915050919050565b600e60029054906101000a900460ff1681565b61158a61241a565b73ffffffffffffffffffffffffffffffffffffffff166115a8611898565b73ffffffffffffffffffffffffffffffffffffffff16146115fe576040517f08c379a00000000000000000000000000000000000000000000000000000000081526004016115f5906144a7565b60405180910390fd5b60008282905011611644576040517f08c379a000000000000000000000000000000000000000000000000000000000815260040161163b90614627565b60405180910390fd5b82601160006101000a81548160ff0219169083151502179055508181600f919061166f9291906135b4565b50505050565b60008073ffffffffffffffffffffffffffffffffffffffff168273ffffffffffffffffffffffffffffffffffffffff1614156116e6576040517f08c379a00000000000000000000000000000000000000000000000000000000081526004016116dd90614427565b60405180910390fd5b600360008373ffffffffffffffffffffffffffffffffffffffff1673ffffffffffffffffffffffffffffffffffffffff168152602001908152602001600020549050919050565b61173561241a565b73ffffffffffffffffffffffffffffffffffffffff16611753611898565b73ffffffffffffffffffffffffffffffffffffffff16146117a9576040517f08c379a00000000000000000000000000000000000000000000000000000000081526004016117a0906144a7565b60405180910390fd5b6117b360006129fa565b565b606060001515601160009054906101000a900460ff161515141561186557601080546117e0906148e5565b80601f016020809104026020016040519081016040528092919081815260200182805461180c906148e5565b80156118595780601f1061182e57610100808354040283529160200191611859565b820191906000526020600020905b81548152906001019060200180831161183c57829003601f168201915b50505050509050611893565b600f61187083612ac0565b604051602001611881929190614164565b60405160208183030381529060405290505b919050565b6000600a60009054906101000a900473ffffffffffffffffffffffffffffffffffffffff16905090565b6118ca61241a565b73ffffffffffffffffffffffffffffffffffffffff166118e8611898565b73ffffffffffffffffffffffffffffffffffffffff161461193e576040517f08c379a0000000000000000000000000000000000000000000000000000000008152600401611935906144a7565b60405180910390fd5b80600c8190555050565b600e60019054906101000a900460ff16611997576040517f08c379a000000000000000000000000000000000000000000000000000000000815260040161198e906145e7565b60405180910390fd5b611a1760135433866040516020016119b092919061410c565b60405160208183030381529060405280519060200120858580806020026020016040519081016040528093929190818152602001838360200280828437600081840152601f19601f820116905080830192505050505050506128159092919063ffffffff16565b611a56576040517f08c379a0000000000000000000000000000000000000000000000000000000008152600401611a4d906144e7565b60405180910390fd5b8381601560003373ffffffffffffffffffffffffffffffffffffffff1673ffffffffffffffffffffffffffffffffffffffff16815260200190815260200160002054611aa29190614710565b1115611ae3576040517f08c379a0000000000000000000000000000000000000000000000000000000008152600401611ada906145a7565b60405180910390fd5b6000611aed610c4e565b9050601e8183611afd9190614710565b1115611b3e576040517f08c379a0000000000000000000000000000000000000000000000000000000008152600401611b3590614327565b60405180910390fd5b6000600190505b828111611b7457611b61338284611b5c9190614710565b61282c565b8080611b6c90614948565b915050611b45565b5081601560003373ffffffffffffffffffffffffffffffffffffffff1673ffffffffffffffffffffffffffffffffffffffff1681526020019081526020016000206000828254611bc49190614710565b925050819055505050505050565b606060018054611be1906148e5565b80601f0160208091040260200160405190810160405280929190818152602001828054611c0d906148e5565b8015611c5a5780601f10611c2f57610100808354040283529160200191611c5a565b820191906000526020600020905b815481529060010190602001808311611c3d57829003601f168201915b5050505050905090565b600e60029054906101000a900460ff16611cb3576040517f08c379a0000000000000000000000000000000000000000000000000000000008152600401611caa90614587565b60405180910390fd5b600e60009054906101000a900460ff1615611d03576040517f08c379a0000000000000000000000000000000000000000000000000000000008152600401611cfa906142e7565b60405180910390fd5b600b54811115611d48576040517f08c379a0000000000000000000000000000000000000000000000000000000008152600401611d3f90614347565b60405180910390fd5b34600c5482611d579190614797565b1115611d98576040517f08c379a0000000000000000000000000000000000000000000000000000000008152600401611d8f90614307565b60405180910390fd5b6000611da2610c4e565b9050601e8183611db29190614710565b1115611df3576040517f08c379a0000000000000000000000000000000000000000000000000000000008152600401611dea90614327565b60405180910390fd5b6000600190505b828111611e2957611e16338284611e119190614710565b61282c565b8080611e2190614948565b915050611dfa565b505050565b611e40611e3961241a565b8383612c6d565b5050565b611e55611e4f61241a565b836124db565b611e94576040517f08c379a0000000000000000000000000000000000000000000000000000000008152600401611e8b90614547565b60405180910390fd5b611ea084848484612dda565b50505050565b611eae61241a565b73ffffffffffffffffffffffffffffffffffffffff16611ecc611898565b73ffffffffffffffffffffffffffffffffffffffff1614611f22576040517f08c379a0000000000000000000000000000000000000000000000000000000008152600401611f19906144a7565b60405180910390fd5b80600e60006101000a81548160ff02191690831515021790555050565b6060611f4a826123ae565b611f89576040517f08c379a0000000000000000000000000000000000000000000000000000000008152600401611f8090614247565b60405180910390fd5b611f92826117b5565b9050919050565b611fa161241a565b73ffffffffffffffffffffffffffffffffffffffff16611fbf611898565b73ffffffffffffffffffffffffffffffffffffffff1614612015576040517f08c379a000000000000000000000000000000000000000000000000000000000815260040161200c906144a7565b60405180910390fd5b60008111612058576040517f08c379a000000000000000000000000000000000000000000000000000000000815260040161204f906143e7565b60405180910390fd5b80600b8190555050565b601e81565b61206f61241a565b73ffffffffffffffffffffffffffffffffffffffff1661208d611898565b73ffffffffffffffffffffffffffffffffffffffff16146120e3576040517f08c379a00000000000000000000000000000000000000000000000000000000081526004016120da906144a7565b60405180910390fd5b6000602060ff161161212a576040517f08c379a000000000000000000000000000000000000000000000000000000000815260040161212190614607565b60405180910390fd5b8060128190555050565b6000600560008473ffffffffffffffffffffffffffffffffffffffff1673ffffffffffffffffffffffffffffffffffffffff16815260200190815260200160002060008373ffffffffffffffffffffffffffffffffffffffff1673ffffffffffffffffffffffffffffffffffffffff16815260200190815260200160002060009054906101000a900460ff16905092915050565b60125481565b6121d661241a565b73ffffffffffffffffffffffffffffffffffffffff166121f4611898565b73ffffffffffffffffffffffffffffffffffffffff161461224a576040517f08c379a0000000000000000000000000000000000000000000000000000000008152600401612241906144a7565b60405180910390fd5b600073ffffffffffffffffffffffffffffffffffffffff168173ffffffffffffffffffffffffffffffffffffffff1614156122ba576040517f08c379a00000000000000000000000000000000000000000000000000000000081526004016122b1906142a7565b60405180910390fd5b6122c3816129fa565b50565b600c5481565b60007f80ac58cd000000000000000000000000000000000000000000000000000000007bffffffffffffffffffffffffffffffffffffffffffffffffffffffff1916827bffffffffffffffffffffffffffffffffffffffffffffffffffffffff1916148061239757507f5b5e139f000000000000000000000000000000000000000000000000000000007bffffffffffffffffffffffffffffffffffffffffffffffffffffffff1916827bffffffffffffffffffffffffffffffffffffffffffffffffffffffff1916145b806123a757506123a682612e36565b5b9050919050565b60008073ffffffffffffffffffffffffffffffffffffffff166002600084815260200190815260200160002060009054906101000a900473ffffffffffffffffffffffffffffffffffffffff1673ffffffffffffffffffffffffffffffffffffffff1614159050919050565b600033905090565b816004600083815260200190815260200160002060006101000a81548173ffffffffffffffffffffffffffffffffffffffff021916908373ffffffffffffffffffffffffffffffffffffffff160217905550808273ffffffffffffffffffffffffffffffffffffffff16612495836114bd565b73ffffffffffffffffffffffffffffffffffffffff167f8c5be1e5ebec7d5bd14f71427d1e84f3dd0314c0f7b2291e5b200ac8c7c3b92560405160405180910390a45050565b60006124e6826123ae565b612525576040517f08c379a000000000000000000000000000000000000000000000000000000000815260040161251c906143a7565b60405180910390fd5b6000612530836114bd565b90508073ffffffffffffffffffffffffffffffffffffffff168473ffffffffffffffffffffffffffffffffffffffff16148061259f57508373ffffffffffffffffffffffffffffffffffffffff1661258784610ab1565b73ffffffffffffffffffffffffffffffffffffffff16145b806125b057506125af8185612134565b5b91505092915050565b8273ffffffffffffffffffffffffffffffffffffffff166125d9826114bd565b73ffffffffffffffffffffffffffffffffffffffff161461262f576040517f08c379a0000000000000000000000000000000000000000000000000000000008152600401612626906144c7565b60405180910390fd5b600073ffffffffffffffffffffffffffffffffffffffff168273ffffffffffffffffffffffffffffffffffffffff16141561269f576040517f08c379a000000000000000000000000000000000000000000000000000000000815260040161269690614367565b60405180910390fd5b6126aa838383612ea0565b6126b5600082612422565b6001600360008573ffffffffffffffffffffffffffffffffffffffff1673ffffffffffffffffffffffffffffffffffffffff168152602001908152602001600020600082825461270591906147f1565b925050819055506001600360008473ffffffffffffffffffffffffffffffffffffffff1673ffffffffffffffffffffffffffffffffffffffff168152602001908152602001600020600082825461275c9190614710565b92505081905550816002600083815260200190815260200160002060006101000a81548173ffffffffffffffffffffffffffffffffffffffff021916908373ffffffffffffffffffffffffffffffffffffffff160217905550808273ffffffffffffffffffffffffffffffffffffffff168473ffffffffffffffffffffffffffffffffffffffff167fddf252ad1be2c89b69c2b068fc378daa952ba7f163c4a11628f55a4df523b3ef60405160405180910390a4505050565b6000826128228584612fb4565b1490509392505050565b600073ffffffffffffffffffffffffffffffffffffffff168273ffffffffffffffffffffffffffffffffffffffff16141561289c576040517f08c379a000000000000000000000000000000000000000000000000000000000815260040161289390614467565b60405180910390fd5b6128a5816123ae565b156128e5576040517f08c379a00000000000000000000000000000000000000000000000000000000081526004016128dc906142c7565b60405180910390fd5b6128f160008383612ea0565b6001600360008473ffffffffffffffffffffffffffffffffffffffff1673ffffffffffffffffffffffffffffffffffffffff16815260200190815260200160002060008282546129419190614710565b92505081905550816002600083815260200190815260200160002060006101000a81548173ffffffffffffffffffffffffffffffffffffffff021916908373ffffffffffffffffffffffffffffffffffffffff160217905550808273ffffffffffffffffffffffffffffffffffffffff16600073ffffffffffffffffffffffffffffffffffffffff167fddf252ad1be2c89b69c2b068fc378daa952ba7f163c4a11628f55a4df523b3ef60405160405180910390a45050565b6000600a60009054906101000a900473ffffffffffffffffffffffffffffffffffffffff16905081600a60006101000a81548173ffffffffffffffffffffffffffffffffffffffff021916908373ffffffffffffffffffffffffffffffffffffffff1602179055508173ffffffffffffffffffffffffffffffffffffffff168173ffffffffffffffffffffffffffffffffffffffff167f8be0079c531659141344cd1fd0a4f28419497f9722a3daafe3b4186f6b6457e060405160405180910390a35050565b60606000821415612b08576040518060400160405280600181526020017f30000000000000000000000000000000000000000000000000000000000000008152509050612c68565b600082905060005b60008214612b3a578080612b2390614948565b915050600a82612b339190614766565b9150612b10565b60008167ffffffffffffffff811115612b7c577f4e487b7100000000000000000000000000000000000000000000000000000000600052604160045260246000fd5b6040519080825280601f01601f191660200182016040528015612bae5781602001600182028036833780820191505090505b5090505b60008514612c6157600182612bc791906147f1565b9150600a85612bd691906149c9565b6030612be29190614710565b60f81b818381518110612c1e577f4e487b7100000000000000000000000000000000000000000000000000000000600052603260045260246000fd5b60200101907effffffffffffffffffffffffffffffffffffffffffffffffffffffffffffff1916908160001a905350600a85612c5a9190614766565b9450612bb2565b8093505050505b919050565b8173ffffffffffffffffffffffffffffffffffffffff168373ffffffffffffffffffffffffffffffffffffffff161415612cdc576040517f08c379a0000000000000000000000000000000000000000000000000000000008152600401612cd390614387565b60405180910390fd5b80600560008573ffffffffffffffffffffffffffffffffffffffff1673ffffffffffffffffffffffffffffffffffffffff16815260200190815260200160002060008473ffffffffffffffffffffffffffffffffffffffff1673ffffffffffffffffffffffffffffffffffffffff16815260200190815260200160002060006101000a81548160ff0219169083151502179055508173ffffffffffffffffffffffffffffffffffffffff168373ffffffffffffffffffffffffffffffffffffffff167f17307eab39ab6107e8899845ad3d59bd9653f200f220920489ca2b5937696c3183604051612dcd91906141ef565b60405180910390a3505050565b612de58484846125b9565b612df18484848461308d565b612e30576040517f08c379a0000000000000000000000000000000000000000000000000000000008152600401612e2790614287565b60405180910390fd5b50505050565b60007f01ffc9a7000000000000000000000000000000000000000000000000000000007bffffffffffffffffffffffffffffffffffffffffffffffffffffffff1916827bffffffffffffffffffffffffffffffffffffffffffffffffffffffff1916149050919050565b612eab838383613224565b600073ffffffffffffffffffffffffffffffffffffffff168373ffffffffffffffffffffffffffffffffffffffff161415612eee57612ee981613229565b612f2d565b8173ffffffffffffffffffffffffffffffffffffffff168373ffffffffffffffffffffffffffffffffffffffff1614612f2c57612f2b8382613272565b5b5b600073ffffffffffffffffffffffffffffffffffffffff168273ffffffffffffffffffffffffffffffffffffffff161415612f7057612f6b816133df565b612faf565b8273ffffffffffffffffffffffffffffffffffffffff168273ffffffffffffffffffffffffffffffffffffffff1614612fae57612fad8282613522565b5b5b505050565b60008082905060005b8451811015613082576000858281518110613001577f4e487b7100000000000000000000000000000000000000000000000000000000600052603260045260246000fd5b60200260200101519050808311613042578281604051602001613025929190614138565b60405160208183030381529060405280519060200120925061306e565b8083604051602001613055929190614138565b6040516020818303038152906040528051906020012092505b50808061307a90614948565b915050612fbd565b508091505092915050565b60006130ae8473ffffffffffffffffffffffffffffffffffffffff166135a1565b15613217578373ffffffffffffffffffffffffffffffffffffffff1663150b7a026130d761241a565b8786866040518563ffffffff1660e01b81526004016130f994939291906141a3565b602060405180830381600087803b15801561311357600080fd5b505af192505050801561314457506040513d601f19601f820116820180604052508101906131419190613a4b565b60015b6131c7573d8060008114613174576040519150601f19603f3d011682016040523d82523d6000602084013e613179565b606091505b506000815114156131bf576040517f08c379a00000000000000000000000000000000000000000000000000000000081526004016131b690614287565b60405180910390fd5b805181602001fd5b63150b7a0260e01b7bffffffffffffffffffffffffffffffffffffffffffffffffffffffff1916817bffffffffffffffffffffffffffffffffffffffffffffffffffffffff19161491505061321c565b600190505b949350505050565b505050565b6008805490506009600083815260200190815260200160002081905550600881908060018154018082558091505060019003906000526020600020016000909190919091505550565b6000600161327f84611675565b61328991906147f1565b905060006007600084815260200190815260200160002054905081811461336e576000600660008673ffffffffffffffffffffffffffffffffffffffff1673ffffffffffffffffffffffffffffffffffffffff168152602001908152602001600020600084815260200190815260200160002054905080600660008773ffffffffffffffffffffffffffffffffffffffff1673ffffffffffffffffffffffffffffffffffffffff168152602001908152602001600020600084815260200190815260200160002081905550816007600083815260200190815260200160002081905550505b6007600084815260200190815260200160002060009055600660008573ffffffffffffffffffffffffffffffffffffffff1673ffffffffffffffffffffffffffffffffffffffff16815260200190815260200160002060008381526020019081526020016000206000905550505050565b600060016008805490506133f391906147f1565b9050600060096000848152602001908152602001600020549050600060088381548110613449577f4e487b7100000000000000000000000000000000000000000000000000000000600052603260045260246000fd5b906000526020600020015490508060088381548110613491577f4e487b7100000000000000000000000000000000000000000000000000000000600052603260045260246000fd5b906000526020600020018190555081600960008381526020019081526020016000208190555060096000858152602001908152602001600020600090556008805480613506577f4e487b7100000000000000000000000000000000000000000000000000000000600052603160045260246000fd5b6001900381819060005260206000200160009055905550505050565b600061352d83611675565b905081600660008573ffffffffffffffffffffffffffffffffffffffff1673ffffffffffffffffffffffffffffffffffffffff168152602001908152602001600020600083815260200190815260200160002081905550806007600084815260200190815260200160002081905550505050565b600080823b905060008111915050919050565b8280546135c0906148e5565b90600052602060002090601f0160209004810192826135e25760008555613629565b82601f106135fb57803560ff1916838001178555613629565b82800160010185558215613629579182015b8281111561362857823582559160200191906001019061360d565b5b509050613636919061363a565b5090565b5b8082111561365357600081600090555060010161363b565b5090565b600061366a61366584614687565b614662565b90508281526020810184848401111561368257600080fd5b61368d8482856148a3565b509392505050565b6000813590506136a48161522e565b92915050565b60008083601f8401126136bc57600080fd5b8235905067ffffffffffffffff8111156136d557600080fd5b6020830191508360208202830111156136ed57600080fd5b9250929050565b60008135905061370381615245565b92915050565b6000813590506137188161525c565b92915050565b60008135905061372d81615273565b92915050565b60008151905061374281615273565b92915050565b600082601f83011261375957600080fd5b8135613769848260208601613657565b91505092915050565b60008083601f84011261378457600080fd5b8235905067ffffffffffffffff81111561379d57600080fd5b6020830191508360018202830111156137b557600080fd5b9250929050565b6000813590506137cb8161528a565b92915050565b6000602082840312156137e357600080fd5b60006137f184828501613695565b91505092915050565b6000806040838503121561380d57600080fd5b600061381b85828601613695565b925050602061382c85828601613695565b9150509250929050565b60008060006060848603121561384b57600080fd5b600061385986828701613695565b935050602061386a86828701613695565b925050604061387b868287016137bc565b9150509250925092565b6000806000806080858703121561389b57600080fd5b60006138a987828801613695565b94505060206138ba87828801613695565b93505060406138cb878288016137bc565b925050606085013567ffffffffffffffff8111156138e857600080fd5b6138f487828801613748565b91505092959194509250565b6000806040838503121561391357600080fd5b600061392185828601613695565b9250506020613932858286016136f4565b9150509250929050565b6000806040838503121561394f57600080fd5b600061395d85828601613695565b925050602061396e858286016137bc565b9150509250929050565b60006020828403121561398a57600080fd5b6000613998848285016136f4565b91505092915050565b6000806000604084860312156139b657600080fd5b60006139c4868287016136f4565b935050602084013567ffffffffffffffff8111156139e157600080fd5b6139ed86828701613772565b92509250509250925092565b600060208284031215613a0b57600080fd5b6000613a1984828501613709565b91505092915050565b600060208284031215613a3457600080fd5b6000613a428482850161371e565b91505092915050565b600060208284031215613a5d57600080fd5b6000613a6b84828501613733565b91505092915050565b600060208284031215613a8657600080fd5b6000613a94848285016137bc565b91505092915050565b60008060008060608587031215613ab357600080fd5b6000613ac1878288016137bc565b945050602085013567ffffffffffffffff811115613ade57600080fd5b613aea878288016136aa565b93509350506040613afd878288016137bc565b91505092959194509250565b613b1281614825565b82525050565b613b29613b2482614825565b614991565b82525050565b613b3881614837565b82525050565b613b4781614843565b82525050565b613b5e613b5982614843565b6149a3565b82525050565b6000613b6f826146cd565b613b7981856146e3565b9350613b898185602086016148b2565b613b9281614ab6565b840191505092915050565b6000613ba8826146d8565b613bb281856146f4565b9350613bc28185602086016148b2565b613bcb81614ab6565b840191505092915050565b6000613be1826146d8565b613beb8185614705565b9350613bfb8185602086016148b2565b80840191505092915050565b60008154613c14816148e5565b613c1e8186614705565b94506001821660008114613c395760018114613c4a57613c7d565b60ff19831686528186019350613c7d565b613c53856146b8565b60005b83811015613c7557815481890152600182019150602081019050613c56565b838801955050505b50505092915050565b6000613c93601f836146f4565b9150613c9e82614ad4565b602082019050919050565b6000613cb6602b836146f4565b9150613cc182614afd565b604082019050919050565b6000613cd96032836146f4565b9150613ce482614b4c565b604082019050919050565b6000613cfc6026836146f4565b9150613d0782614b9b565b604082019050919050565b6000613d1f601c836146f4565b9150613d2a82614bea565b602082019050919050565b6000613d426016836146f4565b9150613d4d82614c13565b602082019050919050565b6000613d656018836146f4565b9150613d7082614c3c565b602082019050919050565b6000613d886018836146f4565b9150613d9382614c65565b602082019050919050565b6000613dab6031836146f4565b9150613db682614c8e565b604082019050919050565b6000613dce6024836146f4565b9150613dd982614cdd565b604082019050919050565b6000613df16019836146f4565b9150613dfc82614d2c565b602082019050919050565b6000613e14602c836146f4565b9150613e1f82614d55565b604082019050919050565b6000613e376010836146f4565b9150613e4282614da4565b602082019050919050565b6000613e5a6024836146f4565b9150613e6582614dcd565b604082019050919050565b6000613e7d6038836146f4565b9150613e8882614e1c565b604082019050919050565b6000613ea0602a836146f4565b9150613eab82614e6b565b604082019050919050565b6000613ec36029836146f4565b9150613ece82614eba565b604082019050919050565b6000613ee66020836146f4565b9150613ef182614f09565b602082019050919050565b6000613f09602c836146f4565b9150613f1482614f32565b604082019050919050565b6000613f2c6020836146f4565b9150613f3782614f81565b602082019050919050565b6000613f4f6029836146f4565b9150613f5a82614faa565b604082019050919050565b6000613f72601a836146f4565b9150613f7d82614ff9565b602082019050919050565b6000613f956015836146f4565b9150613fa082615022565b602082019050919050565b6000613fb86021836146f4565b9150613fc38261504b565b604082019050919050565b6000613fdb6031836146f4565b9150613fe68261509a565b604082019050919050565b6000613ffe602c836146f4565b9150614009826150e9565b604082019050919050565b6000614021600f836146f4565b915061402c82615138565b602082019050919050565b60006140446019836146f4565b915061404f82615161565b602082019050919050565b60006140676012836146f4565b91506140728261518a565b602082019050919050565b600061408a6015836146f4565b9150614095826151b3565b602082019050919050565b60006140ad600e836146f4565b91506140b8826151dc565b602082019050919050565b60006140d06016836146f4565b91506140db82615205565b602082019050919050565b6140ef81614899565b82525050565b61410661410182614899565b6149bf565b82525050565b60006141188285613b18565b60148201915061412882846140f5565b6020820191508190509392505050565b60006141448285613b4d565b6020820191506141548284613b4d565b6020820191508190509392505050565b60006141708285613c07565b915061417c8284613bd6565b91508190509392505050565b600060208201905061419d6000830184613b09565b92915050565b60006080820190506141b86000830187613b09565b6141c56020830186613b09565b6141d260408301856140e6565b81810360608301526141e48184613b64565b905095945050505050565b60006020820190506142046000830184613b2f565b92915050565b600060208201905061421f6000830184613b3e565b92915050565b6000602082019050818103600083015261423f8184613b9d565b905092915050565b6000602082019050818103600083015261426081613c86565b9050919050565b6000602082019050818103600083015261428081613ca9565b9050919050565b600060208201905081810360008301526142a081613ccc565b9050919050565b600060208201905081810360008301526142c081613cef565b9050919050565b600060208201905081810360008301526142e081613d12565b9050919050565b6000602082019050818103600083015261430081613d35565b9050919050565b6000602082019050818103600083015261432081613d58565b9050919050565b6000602082019050818103600083015261434081613d7b565b9050919050565b6000602082019050818103600083015261436081613d9e565b9050919050565b6000602082019050818103600083015261438081613dc1565b9050919050565b600060208201905081810360008301526143a081613de4565b9050919050565b600060208201905081810360008301526143c081613e07565b9050919050565b600060208201905081810360008301526143e081613e2a565b9050919050565b6000602082019050818103600083015261440081613e4d565b9050919050565b6000602082019050818103600083015261442081613e70565b9050919050565b6000602082019050818103600083015261444081613e93565b9050919050565b6000602082019050818103600083015261446081613eb6565b9050919050565b6000602082019050818103600083015261448081613ed9565b9050919050565b600060208201905081810360008301526144a081613efc565b9050919050565b600060208201905081810360008301526144c081613f1f565b9050919050565b600060208201905081810360008301526144e081613f42565b9050919050565b6000602082019050818103600083015261450081613f65565b9050919050565b6000602082019050818103600083015261452081613f88565b9050919050565b6000602082019050818103600083015261454081613fab565b9050919050565b6000602082019050818103600083015261456081613fce565b9050919050565b6000602082019050818103600083015261458081613ff1565b9050919050565b600060208201905081810360008301526145a081614014565b9050919050565b600060208201905081810360008301526145c081614037565b9050919050565b600060208201905081810360008301526145e08161405a565b9050919050565b600060208201905081810360008301526146008161407d565b9050919050565b60006020820190508181036000830152614620816140a0565b9050919050565b60006020820190508181036000830152614640816140c3565b9050919050565b600060208201905061465c60008301846140e6565b92915050565b600061466c61467d565b90506146788282614917565b919050565b6000604051905090565b600067ffffffffffffffff8211156146a2576146a1614a87565b5b6146ab82614ab6565b9050602081019050919050565b60008190508160005260206000209050919050565b600081519050919050565b600081519050919050565b600082825260208201905092915050565b600082825260208201905092915050565b600081905092915050565b600061471b82614899565b915061472683614899565b9250827fffffffffffffffffffffffffffffffffffffffffffffffffffffffffffffffff0382111561475b5761475a6149fa565b5b828201905092915050565b600061477182614899565b915061477c83614899565b92508261478c5761478b614a29565b5b828204905092915050565b60006147a282614899565b91506147ad83614899565b9250817fffffffffffffffffffffffffffffffffffffffffffffffffffffffffffffffff04831182151516156147e6576147e56149fa565b5b828202905092915050565b60006147fc82614899565b915061480783614899565b92508282101561481a576148196149fa565b5b828203905092915050565b600061483082614879565b9050919050565b60008115159050919050565b6000819050919050565b60007fffffffff0000000000000000000000000000000000000000000000000000000082169050919050565b600073ffffffffffffffffffffffffffffffffffffffff82169050919050565b6000819050919050565b82818337600083830152505050565b60005b838110156148d05780820151818401526020810190506148b5565b838111156148df576000848401525b50505050565b600060028204905060018216806148fd57607f821691505b6020821081141561491157614910614a58565b5b50919050565b61492082614ab6565b810181811067ffffffffffffffff8211171561493f5761493e614a87565b5b80604052505050565b600061495382614899565b91507fffffffffffffffffffffffffffffffffffffffffffffffffffffffffffffffff821415614986576149856149fa565b5b600182019050919050565b600061499c826149ad565b9050919050565b6000819050919050565b60006149b882614ac7565b9050919050565b6000819050919050565b60006149d482614899565b91506149df83614899565b9250826149ef576149ee614a29565b5b828206905092915050565b7f4e487b7100000000000000000000000000000000000000000000000000000000600052601160045260246000fd5b7f4e487b7100000000000000000000000000000000000000000000000000000000600052601260045260246000fd5b7f4e487b7100000000000000000000000000000000000000000000000000000000600052602260045260246000fd5b7f4e487b7100000000000000000000000000000000000000000000000000000000600052604160045260246000fd5b6000601f19601f8301169050919050565b60008160601b9050919050565b7f55524920717565727920666f72206e6f6e6578697374656e7420746f6b656e00600082015250565b7f455243373231456e756d657261626c653a206f776e657220696e646578206f7560008201527f74206f6620626f756e6473000000000000000000000000000000000000000000602082015250565b7f4552433732313a207472616e7366657220746f206e6f6e20455243373231526560008201527f63656976657220696d706c656d656e7465720000000000000000000000000000602082015250565b7f4f776e61626c653a206e6577206f776e657220697320746865207a65726f206160008201527f6464726573730000000000000000000000000000000000000000000000000000602082015250565b7f4552433732313a20746f6b656e20616c7265616479206d696e74656400000000600082015250565b7f50524553414c45204f4e4c59205249474854204e4f5700000000000000000000600082015250565b7f494e434f5252454354205041594d454e5420414d4f554e540000000000000000600082015250565b7f4e4f5420454e4f554748204c45465420494e2053544f434b0000000000000000600082015250565b7f4d494e54494e47204d4f5245205448414e20414c4c4f57454420494e2041205360008201527f494e474c45205452414e53414354494f4e000000000000000000000000000000602082015250565b7f4552433732313a207472616e7366657220746f20746865207a65726f2061646460008201527f7265737300000000000000000000000000000000000000000000000000000000602082015250565b7f4552433732313a20617070726f766520746f2063616c6c657200000000000000600082015250565b7f4552433732313a206f70657261746f7220717565727920666f72206e6f6e657860008201527f697374656e7420746f6b656e0000000000000000000000000000000000000000602082015250565b7f4e4f54204f4e20414c4c4f574c49535400000000000000000000000000000000600082015250565b7f6d61785065725472616e73616374696f6e2073686f756c6420626520706f736960008201527f7469766500000000000000000000000000000000000000000000000000000000602082015250565b7f4552433732313a20617070726f76652063616c6c6572206973206e6f74206f7760008201527f6e6572206e6f7220617070726f76656420666f7220616c6c0000000000000000602082015250565b7f4552433732313a2062616c616e636520717565727920666f7220746865207a6560008201527f726f206164647265737300000000000000000000000000000000000000000000602082015250565b7f4552433732313a206f776e657220717565727920666f72206e6f6e657869737460008201527f656e7420746f6b656e0000000000000000000000000000000000000000000000602082015250565b7f4552433732313a206d696e7420746f20746865207a65726f2061646472657373600082015250565b7f4552433732313a20617070726f76656420717565727920666f72206e6f6e657860008201527f697374656e7420746f6b656e0000000000000000000000000000000000000000602082015250565b7f4f776e61626c653a2063616c6c6572206973206e6f7420746865206f776e6572600082015250565b7f4552433732313a207472616e73666572206f6620746f6b656e2074686174206960008201527f73206e6f74206f776e0000000000000000000000000000000000000000000000602082015250565b7f4e4f54204f4e2046524545204d494e5420414c4c4f574c495354000000000000600082015250565b7f53414c4520414354495645205249474854204e4f570000000000000000000000600082015250565b7f4552433732313a20617070726f76616c20746f2063757272656e74206f776e6560008201527f7200000000000000000000000000000000000000000000000000000000000000602082015250565b7f4552433732313a207472616e736665722063616c6c6572206973206e6f74206f60008201527f776e6572206e6f7220617070726f766564000000000000000000000000000000602082015250565b7f455243373231456e756d657261626c653a20676c6f62616c20696e646578206f60008201527f7574206f6620626f756e64730000000000000000000000000000000000000000602082015250565b7f53414c45204e4f54204143544956450000000000000000000000000000000000600082015250565b7f4d494e54494e47204d4f5245205448414e20414c4c4f57454400000000000000600082015250565b7f50524553414c45204e4f54204143544956450000000000000000000000000000600082015250565b7f46726565206d696e74206e6f7420616c6c6f7765640000000000000000000000600082015250565b7f5f726f6f7420697320656d707479000000000000000000000000000000000000600082015250565b7f5f746f6b656e4261736555524920697320656d70747900000000000000000000600082015250565b61523781614825565b811461524257600080fd5b50565b61524e81614837565b811461525957600080fd5b50565b61526581614843565b811461527057600080fd5b50565b61527c8161484d565b811461528757600080fd5b50565b61529381614899565b811461529e57600080fd5b5056fea26469706673582212204e6791426d511088f6f4b15fa37ce6207bcdbb269098c856652827370451965564736f6c63430008040033",
  "linkReferences": {},
  "deployedLinkReferences": {}
}