{
  "_format": "hh-sol-artifact-1",
  "contractName": "PMV",
  "sourceName": "contracts/PMV.sol",
  "abi": [
    {
      "inputs": [
        {
          "internalType": "bytes32",
          "name": "merkleroot",
          "type": "bytes32"
        },
        {
          "internalType": "string",
          "name": "uri",
          "type": "string"
        },
        {
          "internalType": "bytes32",
          "name": "_rootMintFree",
          "type": "bytes32"
        }
      ],
      "stateMutability": "nonpayable",
      "type": "constructor"
    },
    {
      "anonymous": false,
      "inputs": [
        {
          "indexed": true,
          "internalType": "address",
          "name": "owner",
          "type": "address"
        },
        {
          "indexed": true,
          "internalType": "address",
          "name": "approved",
          "type": "address"
        },
        {
          "indexed": true,
          "internalType": "uint256",
          "name": "tokenId",
          "type": "uint256"
        }
      ],
      "name": "Approval",
      "type": "event"
    },
    {
      "anonymous": false,
      "inputs": [
        {
          "indexed": true,
          "internalType": "address",
          "name": "owner",
          "type": "address"
        },
        {
          "indexed": true,
          "internalType": "address",
          "name": "operator",
          "type": "address"
        },
        {
          "indexed": false,
          "internalType": "bool",
          "name": "approved",
          "type": "bool"
        }
      ],
      "name": "ApprovalForAll",
      "type": "event"
    },
    {
      "anonymous": false,
      "inputs": [
        {
          "indexed": true,
          "internalType": "address",
          "name": "previousOwner",
          "type": "address"
        },
        {
          "indexed": true,
          "internalType": "address",
          "name": "newOwner",
          "type": "address"
        }
      ],
      "name": "OwnershipTransferred",
      "type": "event"
    },
    {
      "anonymous": false,
      "inputs": [
        {
          "indexed": true,
          "internalType": "address",
          "name": "from",
          "type": "address"
        },
        {
          "indexed": true,
          "internalType": "address",
          "name": "to",
          "type": "address"
        },
        {
          "indexed": true,
          "internalType": "uint256",
          "name": "tokenId",
          "type": "uint256"
        }
      ],
      "name": "Transfer",
      "type": "event"
    },
    {
      "inputs": [
        {
          "internalType": "uint256",
          "name": "tokenId",
          "type": "uint256"
        }
      ],
      "name": "_tokenURI",
      "outputs": [
        {
          "internalType": "string",
          "name": "",
          "type": "string"
        }
      ],
      "stateMutability": "view",
      "type": "function"
    },
    {
      "inputs": [
        {
          "internalType": "address",
          "name": "to",
          "type": "address"
        },
        {
          "internalType": "uint256",
          "name": "tokenId",
          "type": "uint256"
        }
      ],
      "name": "approve",
      "outputs": [],
      "stateMutability": "nonpayable",
      "type": "function"
    },
    {
      "inputs": [
        {
          "internalType": "address",
          "name": "owner",
          "type": "address"
        }
      ],
      "name": "balanceOf",
      "outputs": [
        {
          "internalType": "uint256",
          "name": "",
          "type": "uint256"
        }
      ],
      "stateMutability": "view",
      "type": "function"
    },
    {
      "inputs": [],
      "name": "freeMintAllowed",
      "outputs": [
        {
          "internalType": "bool",
          "name": "",
          "type": "bool"
        }
      ],
      "stateMutability": "view",
      "type": "function"
    },
    {
      "inputs": [
        {
          "internalType": "uint256",
          "name": "tokenId",
          "type": "uint256"
        }
      ],
      "name": "getApproved",
      "outputs": [
        {
          "internalType": "address",
          "name": "",
          "type": "address"
        }
      ],
      "stateMutability": "view",
      "type": "function"
    },
    {
      "inputs": [
        {
          "internalType": "address",
          "name": "owner",
          "type": "address"
        },
        {
          "internalType": "address",
          "name": "operator",
          "type": "address"
        }
      ],
      "name": "isApprovedForAll",
      "outputs": [
        {
          "internalType": "bool",
          "name": "",
          "type": "bool"
        }
      ],
      "stateMutability": "view",
      "type": "function"
    },
    {
      "inputs": [],
      "name": "maxPerWallet",
      "outputs": [
        {
          "internalType": "uint256",
          "name": "",
          "type": "uint256"
        }
      ],
      "stateMutability": "view",
      "type": "function"
    },
    {
      "inputs": [],
      "name": "maxSupply",
      "outputs": [
        {
          "internalType": "uint256",
          "name": "",
          "type": "uint256"
        }
      ],
      "stateMutability": "view",
      "type": "function"
    },
    {
      "inputs": [
        {
          "internalType": "uint256",
          "name": "tokenQuantity",
          "type": "uint256"
        }
      ],
      "name": "mint",
      "outputs": [],
      "stateMutability": "payable",
      "type": "function"
    },
    {
      "inputs": [
        {
          "internalType": "uint256",
          "name": "allowance",
          "type": "uint256"
        },
        {
          "internalType": "bytes32[]",
          "name": "proof",
          "type": "bytes32[]"
        },
        {
          "internalType": "uint256",
          "name": "tokenQuantity",
          "type": "uint256"
        }
      ],
      "name": "mintFree",
      "outputs": [],
      "stateMutability": "nonpayable",
      "type": "function"
    },
    {
      "inputs": [
        {
          "internalType": "uint256",
          "name": "allowance",
          "type": "uint256"
        },
        {
          "internalType": "bytes32[]",
          "name": "proof",
          "type": "bytes32[]"
        },
        {
          "internalType": "uint256",
          "name": "tokenQuantity",
          "type": "uint256"
        }
      ],
      "name": "mintPresale",
      "outputs": [],
      "stateMutability": "payable",
      "type": "function"
    },
    {
      "inputs": [],
      "name": "name",
      "outputs": [
        {
          "internalType": "string",
          "name": "",
          "type": "string"
        }
      ],
      "stateMutability": "view",
      "type": "function"
    },
    {
      "inputs": [],
      "name": "owner",
      "outputs": [
        {
          "internalType": "address",
          "name": "",
          "type": "address"
        }
      ],
      "stateMutability": "view",
      "type": "function"
    },
    {
      "inputs": [
        {
          "internalType": "uint256",
          "name": "tokenId",
          "type": "uint256"
        }
      ],
      "name": "ownerOf",
      "outputs": [
        {
          "internalType": "address",
          "name": "",
          "type": "address"
        }
      ],
      "stateMutability": "view",
      "type": "function"
    },
    {
      "inputs": [],
      "name": "presaleActive",
      "outputs": [
        {
          "internalType": "bool",
          "name": "",
          "type": "bool"
        }
      ],
      "stateMutability": "view",
      "type": "function"
    },
    {
      "inputs": [],
      "name": "renounceOwnership",
      "outputs": [],
      "stateMutability": "nonpayable",
      "type": "function"
    },
    {
      "inputs": [],
      "name": "root",
      "outputs": [
        {
          "internalType": "bytes32",
          "name": "",
          "type": "bytes32"
        }
      ],
      "stateMutability": "view",
      "type": "function"
    },
    {
      "inputs": [],
      "name": "rootMintFree",
      "outputs": [
        {
          "internalType": "bytes32",
          "name": "",
          "type": "bytes32"
        }
      ],
      "stateMutability": "view",
      "type": "function"
    },
    {
      "inputs": [
        {
          "internalType": "address",
          "name": "from",
          "type": "address"
        },
        {
          "internalType": "address",
          "name": "to",
          "type": "address"
        },
        {
          "internalType": "uint256",
          "name": "tokenId",
          "type": "uint256"
        }
      ],
      "name": "safeTransferFrom",
      "outputs": [],
      "stateMutability": "nonpayable",
      "type": "function"
    },
    {
      "inputs": [
        {
          "internalType": "address",
          "name": "from",
          "type": "address"
        },
        {
          "internalType": "address",
          "name": "to",
          "type": "address"
        },
        {
          "internalType": "uint256",
          "name": "tokenId",
          "type": "uint256"
        },
        {
          "internalType": "bytes",
          "name": "_data",
          "type": "bytes"
        }
      ],
      "name": "safeTransferFrom",
      "outputs": [],
      "stateMutability": "nonpayable",
      "type": "function"
    },
    {
      "inputs": [],
      "name": "saleActive",
      "outputs": [
        {
          "internalType": "bool",
          "name": "",
          "type": "bool"
        }
      ],
      "stateMutability": "view",
      "type": "function"
    },
    {
      "inputs": [],
      "name": "salePrice",
      "outputs": [
        {
          "internalType": "uint256",
          "name": "",
          "type": "uint256"
        }
      ],
      "stateMutability": "view",
      "type": "function"
    },
    {
      "inputs": [
        {
          "internalType": "address",
          "name": "operator",
          "type": "address"
        },
        {
          "internalType": "bool",
          "name": "approved",
          "type": "bool"
        }
      ],
      "name": "setApprovalForAll",
      "outputs": [],
      "stateMutability": "nonpayable",
      "type": "function"
    },
    {
      "inputs": [
        {
          "internalType": "bool",
          "name": "_freeMintAllowed",
          "type": "bool"
        }
      ],
      "name": "setFreeMintAllowed",
      "outputs": [],
      "stateMutability": "nonpayable",
      "type": "function"
    },
    {
      "inputs": [
        {
          "internalType": "uint256",
          "name": "_maxPerWallet",
          "type": "uint256"
        }
      ],
      "name": "setMaxPerWallet",
      "outputs": [],
      "stateMutability": "nonpayable",
      "type": "function"
    },
    {
      "inputs": [
        {
          "internalType": "bool",
          "name": "_presaleStatus",
          "type": "bool"
        }
      ],
      "name": "setPresale",
      "outputs": [],
      "stateMutability": "nonpayable",
      "type": "function"
    },
    {
      "inputs": [
        {
          "internalType": "bytes32",
          "name": "_root",
          "type": "bytes32"
        }
      ],
      "name": "setRoot",
      "outputs": [],
      "stateMutability": "nonpayable",
      "type": "function"
    },
    {
      "inputs": [
        {
          "internalType": "bytes32",
          "name": "_root",
          "type": "bytes32"
        }
      ],
      "name": "setRootMintFree",
      "outputs": [],
      "stateMutability": "nonpayable",
      "type": "function"
    },
    {
      "inputs": [
        {
          "internalType": "bool",
          "name": "_saleStatus",
          "type": "bool"
        }
      ],
      "name": "setSale",
      "outputs": [],
      "stateMutability": "nonpayable",
      "type": "function"
    },
    {
      "inputs": [
        {
          "internalType": "bool",
          "name": "_revealed",
          "type": "bool"
        },
        {
          "internalType": "string",
          "name": "_tokenBaseURI",
          "type": "string"
        }
      ],
      "name": "setURIStatus",
      "outputs": [],
      "stateMutability": "nonpayable",
      "type": "function"
    },
    {
      "inputs": [
        {
          "internalType": "bytes4",
          "name": "interfaceId",
          "type": "bytes4"
        }
      ],
      "name": "supportsInterface",
      "outputs": [
        {
          "internalType": "bool",
          "name": "",
          "type": "bool"
        }
      ],
      "stateMutability": "view",
      "type": "function"
    },
    {
      "inputs": [],
      "name": "symbol",
      "outputs": [
        {
          "internalType": "string",
          "name": "",
          "type": "string"
        }
      ],
      "stateMutability": "view",
      "type": "function"
    },
    {
      "inputs": [
        {
          "internalType": "uint256",
          "name": "index",
          "type": "uint256"
        }
      ],
      "name": "tokenByIndex",
      "outputs": [
        {
          "internalType": "uint256",
          "name": "",
          "type": "uint256"
        }
      ],
      "stateMutability": "view",
      "type": "function"
    },
    {
      "inputs": [
        {
          "internalType": "address",
          "name": "owner",
          "type": "address"
        },
        {
          "internalType": "uint256",
          "name": "index",
          "type": "uint256"
        }
      ],
      "name": "tokenOfOwnerByIndex",
      "outputs": [
        {
          "internalType": "uint256",
          "name": "",
          "type": "uint256"
        }
      ],
      "stateMutability": "view",
      "type": "function"
    },
    {
      "inputs": [
        {
          "internalType": "uint256",
          "name": "tokenId",
          "type": "uint256"
        }
      ],
      "name": "tokenURI",
      "outputs": [
        {
          "internalType": "string",
          "name": "",
          "type": "string"
        }
      ],
      "stateMutability": "view",
      "type": "function"
    },
    {
      "inputs": [],
      "name": "totalSupply",
      "outputs": [
        {
          "internalType": "uint256",
          "name": "",
          "type": "uint256"
        }
      ],
      "stateMutability": "view",
      "type": "function"
    },
    {
      "inputs": [
        {
          "internalType": "address",
          "name": "from",
          "type": "address"
        },
        {
          "internalType": "address",
          "name": "to",
          "type": "address"
        },
        {
          "internalType": "uint256",
          "name": "tokenId",
          "type": "uint256"
        }
      ],
      "name": "transferFrom",
      "outputs": [],
      "stateMutability": "nonpayable",
      "type": "function"
    },
    {
      "inputs": [
        {
          "internalType": "address",
          "name": "newOwner",
          "type": "address"
        }
      ],
      "name": "transferOwnership",
      "outputs": [],
      "stateMutability": "nonpayable",
      "type": "function"
    },
    {
      "inputs": [],
      "name": "withdraw",
      "outputs": [],
      "stateMutability": "nonpayable",
      "type": "function"
    }
  ],
  "bytecode": "0x6080604052600a600b556000600c60006101000a81548160ff0219169083151502179055506000600c60016101000a81548160ff0219169083151502179055506000600c60026101000a81548160ff0219169083151502179055506000600f60006101000a81548160ff0219169083151502179055503480156200008257600080fd5b506040516200582c3803806200582c8339818101604052810190620000a891906200039f565b6040518060400160405280600381526020017f504d5600000000000000000000000000000000000000000000000000000000008152506040518060400160405280600681526020017f504d56544b4e000000000000000000000000000000000000000000000000000081525081600090805190602001906200012c92919062000266565b5080600190805190602001906200014592919062000266565b505050620001686200015c6200019860201b60201c565b620001a060201b60201c565b8260108190555081600e90805190602001906200018792919062000266565b5080601181905550505050620005a2565b600033905090565b6000600a60009054906101000a900473ffffffffffffffffffffffffffffffffffffffff16905081600a60006101000a81548173ffffffffffffffffffffffffffffffffffffffff021916908373ffffffffffffffffffffffffffffffffffffffff1602179055508173ffffffffffffffffffffffffffffffffffffffff168173ffffffffffffffffffffffffffffffffffffffff167f8be0079c531659141344cd1fd0a4f28419497f9722a3daafe3b4186f6b6457e060405160405180910390a35050565b8280546200027490620004ad565b90600052602060002090601f016020900481019282620002985760008555620002e4565b82601f10620002b357805160ff1916838001178555620002e4565b82800160010185558215620002e4579182015b82811115620002e3578251825591602001919060010190620002c6565b5b509050620002f39190620002f7565b5090565b5b8082111562000312576000816000905550600101620002f8565b5090565b60006200032d620003278462000437565b6200040e565b9050828152602081018484840111156200034657600080fd5b6200035384828562000477565b509392505050565b6000815190506200036c8162000588565b92915050565b600082601f8301126200038457600080fd5b81516200039684826020860162000316565b91505092915050565b600080600060608486031215620003b557600080fd5b6000620003c5868287016200035b565b935050602084015167ffffffffffffffff811115620003e357600080fd5b620003f18682870162000372565b925050604062000404868287016200035b565b9150509250925092565b60006200041a6200042d565b9050620004288282620004e3565b919050565b6000604051905090565b600067ffffffffffffffff82111562000455576200045462000548565b5b620004608262000577565b9050602081019050919050565b6000819050919050565b60005b83811015620004975780820151818401526020810190506200047a565b83811115620004a7576000848401525b50505050565b60006002820490506001821680620004c657607f821691505b60208210811415620004dd57620004dc62000519565b5b50919050565b620004ee8262000577565b810181811067ffffffffffffffff8211171562000510576200050f62000548565b5b80604052505050565b7f4e487b7100000000000000000000000000000000000000000000000000000000600052602260045260246000fd5b7f4e487b7100000000000000000000000000000000000000000000000000000000600052604160045260246000fd5b6000601f19601f8301169050919050565b62000593816200046d565b81146200059f57600080fd5b50565b61527a80620005b26000396000f3fe6080604052600436106102305760003560e01c806368428a1b1161012e578063b88d4fde116100ab578063e268e4d31161006f578063e268e4d31461081d578063e985e9c514610846578063ebf0c71714610883578063f2fde38b146108ae578063f51f96dd146108d757610230565b8063b88d4fde1461073a578063c54e73e314610763578063c87b56dd1461078c578063d5abeb01146107c9578063dab5f340146107f457610230565b80638da5cb5b116100f25780638da5cb5b1461067657806392c46da3146106a157806395d89b41146106ca578063a0712d68146106f5578063a22cb4651461071157610230565b806368428a1b146105915780636f8d9305146105bc57806370a08231146105e5578063715018a6146106225780638d17e7121461063957610230565b80632a613fa7116101bc578063453c231011610180578063453c2310146104965780634f6ccce7146104c157806353135ca0146104fe5780635fc9c0e6146105295780636352211e1461055457610230565b80632a613fa7146103d25780632f745c59146103fd5780633c14a2de1461043a5780633ccfd60b1461045657806342842e0e1461046d57610230565b806318160ddd1161020357806318160ddd146103035780631d2e5a3a1461032e5780631fbb4e271461035757806323b872dd1461038057806329770e04146103a957610230565b806301ffc9a71461023557806306fdde0314610272578063081812fc1461029d578063095ea7b3146102da575b600080fd5b34801561024157600080fd5b5061025c600480360381019061025791906139a5565b610902565b60405161026991906141aa565b60405180910390f35b34801561027e57600080fd5b5061028761097c565b60405161029491906141e0565b60405180910390f35b3480156102a957600080fd5b506102c460048036038101906102bf91906139f7565b610a0e565b6040516102d19190614143565b60405180910390f35b3480156102e657600080fd5b5061030160048036038101906102fc91906138bf565b610a93565b005b34801561030f57600080fd5b50610318610bab565b6040516103259190614602565b60405180910390f35b34801561033a57600080fd5b50610355600480360381019061035091906138fb565b610bb8565b005b34801561036357600080fd5b5061037e6004803603810190610379919061397c565b610c51565b005b34801561038c57600080fd5b506103a760048036038101906103a291906137b9565b610d1e565b005b3480156103b557600080fd5b506103d060048036038101906103cb91906138fb565b610d7e565b005b3480156103de57600080fd5b506103e7610e17565b6040516103f491906141aa565b60405180910390f35b34801561040957600080fd5b50610424600480360381019061041f91906138bf565b610e2a565b6040516104319190614602565b60405180910390f35b610454600480360381019061044f9190613a20565b610ecf565b005b34801561046257600080fd5b5061046b6111a6565b005b34801561047957600080fd5b50610494600480360381019061048f91906137b9565b611254565b005b3480156104a257600080fd5b506104ab611274565b6040516104b89190614602565b60405180910390f35b3480156104cd57600080fd5b506104e860048036038101906104e391906139f7565b61127a565b6040516104f59190614602565b60405180910390f35b34801561050a57600080fd5b50610513611311565b60405161052091906141aa565b60405180910390f35b34801561053557600080fd5b5061053e611324565b60405161054b91906141c5565b60405180910390f35b34801561056057600080fd5b5061057b600480360381019061057691906139f7565b61132a565b6040516105889190614143565b60405180910390f35b34801561059d57600080fd5b506105a66113dc565b6040516105b391906141aa565b60405180910390f35b3480156105c857600080fd5b506105e360048036038101906105de9190613924565b6113ef565b005b3480156105f157600080fd5b5061060c60048036038101906106079190613754565b6114e2565b6040516106199190614602565b60405180910390f35b34801561062e57600080fd5b5061063761159a565b005b34801561064557600080fd5b50610660600480360381019061065b91906139f7565b611622565b60405161066d91906141e0565b60405180910390f35b34801561068257600080fd5b5061068b611705565b6040516106989190614143565b60405180910390f35b3480156106ad57600080fd5b506106c860048036038101906106c39190613a20565b61172f565b005b3480156106d657600080fd5b506106df6119b8565b6040516106ec91906141e0565b60405180910390f35b61070f600480360381019061070a91906139f7565b611a4a565b005b34801561071d57600080fd5b5061073860048036038101906107339190613883565b611cb8565b005b34801561074657600080fd5b50610761600480360381019061075c9190613808565b611cce565b005b34801561076f57600080fd5b5061078a600480360381019061078591906138fb565b611d30565b005b34801561079857600080fd5b506107b360048036038101906107ae91906139f7565b611dc9565b6040516107c091906141e0565b60405180910390f35b3480156107d557600080fd5b506107de611e23565b6040516107eb9190614602565b60405180910390f35b34801561080057600080fd5b5061081b6004803603810190610816919061397c565b611e28565b005b34801561082957600080fd5b50610844600480360381019061083f91906139f7565b611ef5565b005b34801561085257600080fd5b5061086d6004803603810190610868919061377d565b611fbe565b60405161087a91906141aa565b60405180910390f35b34801561088f57600080fd5b50610898612052565b6040516108a591906141c5565b60405180910390f35b3480156108ba57600080fd5b506108d560048036038101906108d09190613754565b612058565b005b3480156108e357600080fd5b506108ec612150565b6040516108f99190614602565b60405180910390f35b60007f780e9d63000000000000000000000000000000000000000000000000000000007bffffffffffffffffffffffffffffffffffffffffffffffffffffffff1916827bffffffffffffffffffffffffffffffffffffffffffffffffffffffff1916148061097557506109748261215b565b5b9050919050565b60606000805461098b906148ab565b80601f01602080910402602001604051908101604052809291908181526020018280546109b7906148ab565b8015610a045780601f106109d957610100808354040283529160200191610a04565b820191906000526020600020905b8154815290600101906020018083116109e757829003601f168201915b5050505050905090565b6000610a198261223d565b610a58576040517f08c379a0000000000000000000000000000000000000000000000000000000008152600401610a4f90614462565b60405180910390fd5b6004600083815260200190815260200160002060009054906101000a900473ffffffffffffffffffffffffffffffffffffffff169050919050565b6000610a9e8261132a565b90508073ffffffffffffffffffffffffffffffffffffffff168373ffffffffffffffffffffffffffffffffffffffff161415610b0f576040517f08c379a0000000000000000000000000000000000000000000000000000000008152600401610b06906144e2565b60405180910390fd5b8073ffffffffffffffffffffffffffffffffffffffff16610b2e6122a9565b73ffffffffffffffffffffffffffffffffffffffff161480610b5d5750610b5c81610b576122a9565b611fbe565b5b610b9c576040517f08c379a0000000000000000000000000000000000000000000000000000000008152600401610b93906143e2565b60405180910390fd5b610ba683836122b1565b505050565b6000600880549050905090565b610bc06122a9565b73ffffffffffffffffffffffffffffffffffffffff16610bde611705565b73ffffffffffffffffffffffffffffffffffffffff1614610c34576040517f08c379a0000000000000000000000000000000000000000000000000000000008152600401610c2b90614482565b60405180910390fd5b80600c60026101000a81548160ff02191690831515021790555050565b610c596122a9565b73ffffffffffffffffffffffffffffffffffffffff16610c77611705565b73ffffffffffffffffffffffffffffffffffffffff1614610ccd576040517f08c379a0000000000000000000000000000000000000000000000000000000008152600401610cc490614482565b60405180910390fd5b6000602060ff1611610d14576040517f08c379a0000000000000000000000000000000000000000000000000000000008152600401610d0b906145c2565b60405180910390fd5b8060118190555050565b610d2f610d296122a9565b8261236a565b610d6e576040517f08c379a0000000000000000000000000000000000000000000000000000000008152600401610d6590614502565b60405180910390fd5b610d79838383612448565b505050565b610d866122a9565b73ffffffffffffffffffffffffffffffffffffffff16610da4611705565b73ffffffffffffffffffffffffffffffffffffffff1614610dfa576040517f08c379a0000000000000000000000000000000000000000000000000000000008152600401610df190614482565b60405180910390fd5b80600c60016101000a81548160ff02191690831515021790555050565b600c60019054906101000a900460ff1681565b6000610e35836114e2565b8210610e76576040517f08c379a0000000000000000000000000000000000000000000000000000000008152600401610e6d90614242565b60405180910390fd5b600660008473ffffffffffffffffffffffffffffffffffffffff1673ffffffffffffffffffffffffffffffffffffffff168152602001908152602001600020600083815260200190815260200160002054905092915050565b600c60009054906101000a900460ff16610f1e576040517f08c379a0000000000000000000000000000000000000000000000000000000008152600401610f1590614582565b60405180910390fd5b600c60029054906101000a900460ff1615610f6e576040517f08c379a0000000000000000000000000000000000000000000000000000000008152600401610f65906144c2565b60405180910390fd5b610fee6010543386604051602001610f879291906140b2565b60405160208183030381529060405280519060200120858580806020026020016040519081016040528093929190818152602001838360200280828437600081840152601f19601f820116905080830192505050505050506126a49092919063ffffffff16565b61102d576040517f08c379a0000000000000000000000000000000000000000000000000000000008152600401611024906142a2565b60405180910390fd5b8381601260003373ffffffffffffffffffffffffffffffffffffffff1673ffffffffffffffffffffffffffffffffffffffff1681526020019081526020016000205461107991906146d6565b11156110ba576040517f08c379a00000000000000000000000000000000000000000000000000000000081526004016110b190614562565b60405180910390fd5b3466470de4df820000826110ce919061475d565b1461110e576040517f08c379a000000000000000000000000000000000000000000000000000000000815260040161110590614302565b60405180910390fd5b60005b8181101561114957611136336001611127610bab565b61113191906146d6565b6126bb565b80806111419061490e565b915050611111565b5080601260003373ffffffffffffffffffffffffffffffffffffffff1673ffffffffffffffffffffffffffffffffffffffff168152602001908152602001600020600082825461119991906146d6565b9250508190555050505050565b6111ae6122a9565b73ffffffffffffffffffffffffffffffffffffffff166111cc611705565b73ffffffffffffffffffffffffffffffffffffffff1614611222576040517f08c379a000000000000000000000000000000000000000000000000000000000815260040161121990614482565b60405180910390fd5b6112524761122e611705565b73ffffffffffffffffffffffffffffffffffffffff1661288990919063ffffffff16565b565b61126f83838360405180602001604052806000815250611cce565b505050565b600b5481565b6000611284610bab565b82106112c5576040517f08c379a00000000000000000000000000000000000000000000000000000000081526004016112bc90614522565b60405180910390fd5b600882815481106112ff577f4e487b7100000000000000000000000000000000000000000000000000000000600052603260045260246000fd5b90600052602060002001549050919050565b600c60009054906101000a900460ff1681565b60115481565b6000806002600084815260200190815260200160002060009054906101000a900473ffffffffffffffffffffffffffffffffffffffff169050600073ffffffffffffffffffffffffffffffffffffffff168173ffffffffffffffffffffffffffffffffffffffff1614156113d3576040517f08c379a00000000000000000000000000000000000000000000000000000000081526004016113ca90614422565b60405180910390fd5b80915050919050565b600c60029054906101000a900460ff1681565b6113f76122a9565b73ffffffffffffffffffffffffffffffffffffffff16611415611705565b73ffffffffffffffffffffffffffffffffffffffff161461146b576040517f08c379a000000000000000000000000000000000000000000000000000000000815260040161146290614482565b60405180910390fd5b600082829050116114b1576040517f08c379a00000000000000000000000000000000000000000000000000000000081526004016114a8906145e2565b60405180910390fd5b82600f60006101000a81548160ff0219169083151502179055508181600d91906114dc929190613537565b50505050565b60008073ffffffffffffffffffffffffffffffffffffffff168273ffffffffffffffffffffffffffffffffffffffff161415611553576040517f08c379a000000000000000000000000000000000000000000000000000000000815260040161154a90614402565b60405180910390fd5b600360008373ffffffffffffffffffffffffffffffffffffffff1673ffffffffffffffffffffffffffffffffffffffff168152602001908152602001600020549050919050565b6115a26122a9565b73ffffffffffffffffffffffffffffffffffffffff166115c0611705565b73ffffffffffffffffffffffffffffffffffffffff1614611616576040517f08c379a000000000000000000000000000000000000000000000000000000000815260040161160d90614482565b60405180910390fd5b611620600061297d565b565b606060001515600f60009054906101000a900460ff16151514156116d257600e805461164d906148ab565b80601f0160208091040260200160405190810160405280929190818152602001828054611679906148ab565b80156116c65780601f1061169b576101008083540402835291602001916116c6565b820191906000526020600020905b8154815290600101906020018083116116a957829003601f168201915b50505050509050611700565b600d6116dd83612a43565b6040516020016116ee92919061410a565b60405160208183030381529060405290505b919050565b6000600a60009054906101000a900473ffffffffffffffffffffffffffffffffffffffff16905090565b600c60019054906101000a900460ff1661177e576040517f08c379a0000000000000000000000000000000000000000000000000000000008152600401611775906145a2565b60405180910390fd5b6117fe60115433866040516020016117979291906140b2565b60405160208183030381529060405280519060200120858580806020026020016040519081016040528093929190818152602001838360200280828437600081840152601f19601f820116905080830192505050505050506126a49092919063ffffffff16565b61183d576040517f08c379a0000000000000000000000000000000000000000000000000000000008152600401611834906142a2565b60405180910390fd5b8381601360003373ffffffffffffffffffffffffffffffffffffffff1673ffffffffffffffffffffffffffffffffffffffff1681526020019081526020016000205461188991906146d6565b11156118ca576040517f08c379a00000000000000000000000000000000000000000000000000000000081526004016118c190614562565b60405180910390fd5b601e6118d4610bab565b826118df91906146d6565b1115611920576040517f08c379a000000000000000000000000000000000000000000000000000000000815260040161191790614322565b60405180910390fd5b60005b8181101561195b57611948336001611939610bab565b61194391906146d6565b6126bb565b80806119539061490e565b915050611923565b5080601360003373ffffffffffffffffffffffffffffffffffffffff1673ffffffffffffffffffffffffffffffffffffffff16815260200190815260200160002060008282546119ab91906146d6565b9250508190555050505050565b6060600180546119c7906148ab565b80601f01602080910402602001604051908101604052809291908181526020018280546119f3906148ab565b8015611a405780601f10611a1557610100808354040283529160200191611a40565b820191906000526020600020905b815481529060010190602001808311611a2357829003601f168201915b5050505050905090565b600c60029054906101000a900460ff16611a99576040517f08c379a0000000000000000000000000000000000000000000000000000000008152600401611a9090614542565b60405180910390fd5b600c60009054906101000a900460ff1615611ae9576040517f08c379a0000000000000000000000000000000000000000000000000000000008152600401611ae0906142e2565b60405180910390fd5b600b5481601460003373ffffffffffffffffffffffffffffffffffffffff1673ffffffffffffffffffffffffffffffffffffffff16815260200190815260200160002054611b3791906146d6565b1115611b78576040517f08c379a0000000000000000000000000000000000000000000000000000000008152600401611b6f90614562565b60405180910390fd5b601e611b82610bab565b82611b8d91906146d6565b1115611bce576040517f08c379a0000000000000000000000000000000000000000000000000000000008152600401611bc590614322565b60405180910390fd5b3466470de4df82000082611be2919061475d565b1115611c23576040517f08c379a0000000000000000000000000000000000000000000000000000000008152600401611c1a90614302565b60405180910390fd5b60005b81811015611c5e57611c4b336001611c3c610bab565b611c4691906146d6565b6126bb565b8080611c569061490e565b915050611c26565b5080601460003373ffffffffffffffffffffffffffffffffffffffff1673ffffffffffffffffffffffffffffffffffffffff1681526020019081526020016000206000828254611cae91906146d6565b9250508190555050565b611cca611cc36122a9565b8383612bf0565b5050565b611cdf611cd96122a9565b8361236a565b611d1e576040517f08c379a0000000000000000000000000000000000000000000000000000000008152600401611d1590614502565b60405180910390fd5b611d2a84848484612d5d565b50505050565b611d386122a9565b73ffffffffffffffffffffffffffffffffffffffff16611d56611705565b73ffffffffffffffffffffffffffffffffffffffff1614611dac576040517f08c379a0000000000000000000000000000000000000000000000000000000008152600401611da390614482565b60405180910390fd5b80600c60006101000a81548160ff02191690831515021790555050565b6060611dd48261223d565b611e13576040517f08c379a0000000000000000000000000000000000000000000000000000000008152600401611e0a90614222565b60405180910390fd5b611e1c82611622565b9050919050565b601e81565b611e306122a9565b73ffffffffffffffffffffffffffffffffffffffff16611e4e611705565b73ffffffffffffffffffffffffffffffffffffffff1614611ea4576040517f08c379a0000000000000000000000000000000000000000000000000000000008152600401611e9b90614482565b60405180910390fd5b6000602060ff1611611eeb576040517f08c379a0000000000000000000000000000000000000000000000000000000008152600401611ee2906145c2565b60405180910390fd5b8060108190555050565b611efd6122a9565b73ffffffffffffffffffffffffffffffffffffffff16611f1b611705565b73ffffffffffffffffffffffffffffffffffffffff1614611f71576040517f08c379a0000000000000000000000000000000000000000000000000000000008152600401611f6890614482565b60405180910390fd5b60008111611fb4576040517f08c379a0000000000000000000000000000000000000000000000000000000008152600401611fab90614202565b60405180910390fd5b80600b8190555050565b6000600560008473ffffffffffffffffffffffffffffffffffffffff1673ffffffffffffffffffffffffffffffffffffffff16815260200190815260200160002060008373ffffffffffffffffffffffffffffffffffffffff1673ffffffffffffffffffffffffffffffffffffffff16815260200190815260200160002060009054906101000a900460ff16905092915050565b60105481565b6120606122a9565b73ffffffffffffffffffffffffffffffffffffffff1661207e611705565b73ffffffffffffffffffffffffffffffffffffffff16146120d4576040517f08c379a00000000000000000000000000000000000000000000000000000000081526004016120cb90614482565b60405180910390fd5b600073ffffffffffffffffffffffffffffffffffffffff168173ffffffffffffffffffffffffffffffffffffffff161415612144576040517f08c379a000000000000000000000000000000000000000000000000000000000815260040161213b90614282565b60405180910390fd5b61214d8161297d565b50565b66470de4df82000081565b60007f80ac58cd000000000000000000000000000000000000000000000000000000007bffffffffffffffffffffffffffffffffffffffffffffffffffffffff1916827bffffffffffffffffffffffffffffffffffffffffffffffffffffffff1916148061222657507f5b5e139f000000000000000000000000000000000000000000000000000000007bffffffffffffffffffffffffffffffffffffffffffffffffffffffff1916827bffffffffffffffffffffffffffffffffffffffffffffffffffffffff1916145b80612236575061223582612db9565b5b9050919050565b60008073ffffffffffffffffffffffffffffffffffffffff166002600084815260200190815260200160002060009054906101000a900473ffffffffffffffffffffffffffffffffffffffff1673ffffffffffffffffffffffffffffffffffffffff1614159050919050565b600033905090565b816004600083815260200190815260200160002060006101000a81548173ffffffffffffffffffffffffffffffffffffffff021916908373ffffffffffffffffffffffffffffffffffffffff160217905550808273ffffffffffffffffffffffffffffffffffffffff166123248361132a565b73ffffffffffffffffffffffffffffffffffffffff167f8c5be1e5ebec7d5bd14f71427d1e84f3dd0314c0f7b2291e5b200ac8c7c3b92560405160405180910390a45050565b60006123758261223d565b6123b4576040517f08c379a00000000000000000000000000000000000000000000000000000000081526004016123ab906143c2565b60405180910390fd5b60006123bf8361132a565b90508073ffffffffffffffffffffffffffffffffffffffff168473ffffffffffffffffffffffffffffffffffffffff16148061242e57508373ffffffffffffffffffffffffffffffffffffffff1661241684610a0e565b73ffffffffffffffffffffffffffffffffffffffff16145b8061243f575061243e8185611fbe565b5b91505092915050565b8273ffffffffffffffffffffffffffffffffffffffff166124688261132a565b73ffffffffffffffffffffffffffffffffffffffff16146124be576040517f08c379a00000000000000000000000000000000000000000000000000000000081526004016124b5906144a2565b60405180910390fd5b600073ffffffffffffffffffffffffffffffffffffffff168273ffffffffffffffffffffffffffffffffffffffff16141561252e576040517f08c379a000000000000000000000000000000000000000000000000000000000815260040161252590614342565b60405180910390fd5b612539838383612e23565b6125446000826122b1565b6001600360008573ffffffffffffffffffffffffffffffffffffffff1673ffffffffffffffffffffffffffffffffffffffff168152602001908152602001600020600082825461259491906147b7565b925050819055506001600360008473ffffffffffffffffffffffffffffffffffffffff1673ffffffffffffffffffffffffffffffffffffffff16815260200190815260200160002060008282546125eb91906146d6565b92505081905550816002600083815260200190815260200160002060006101000a81548173ffffffffffffffffffffffffffffffffffffffff021916908373ffffffffffffffffffffffffffffffffffffffff160217905550808273ffffffffffffffffffffffffffffffffffffffff168473ffffffffffffffffffffffffffffffffffffffff167fddf252ad1be2c89b69c2b068fc378daa952ba7f163c4a11628f55a4df523b3ef60405160405180910390a4505050565b6000826126b18584612f37565b1490509392505050565b600073ffffffffffffffffffffffffffffffffffffffff168273ffffffffffffffffffffffffffffffffffffffff16141561272b576040517f08c379a000000000000000000000000000000000000000000000000000000000815260040161272290614442565b60405180910390fd5b6127348161223d565b15612774576040517f08c379a000000000000000000000000000000000000000000000000000000000815260040161276b906142c2565b60405180910390fd5b61278060008383612e23565b6001600360008473ffffffffffffffffffffffffffffffffffffffff1673ffffffffffffffffffffffffffffffffffffffff16815260200190815260200160002060008282546127d091906146d6565b92505081905550816002600083815260200190815260200160002060006101000a81548173ffffffffffffffffffffffffffffffffffffffff021916908373ffffffffffffffffffffffffffffffffffffffff160217905550808273ffffffffffffffffffffffffffffffffffffffff16600073ffffffffffffffffffffffffffffffffffffffff167fddf252ad1be2c89b69c2b068fc378daa952ba7f163c4a11628f55a4df523b3ef60405160405180910390a45050565b804710156128cc576040517f08c379a00000000000000000000000000000000000000000000000000000000081526004016128c3906143a2565b60405180910390fd5b60008273ffffffffffffffffffffffffffffffffffffffff16826040516128f29061412e565b60006040518083038185875af1925050503d806000811461292f576040519150601f19603f3d011682016040523d82523d6000602084013e612934565b606091505b5050905080612978576040517f08c379a000000000000000000000000000000000000000000000000000000000815260040161296f90614382565b60405180910390fd5b505050565b6000600a60009054906101000a900473ffffffffffffffffffffffffffffffffffffffff16905081600a60006101000a81548173ffffffffffffffffffffffffffffffffffffffff021916908373ffffffffffffffffffffffffffffffffffffffff1602179055508173ffffffffffffffffffffffffffffffffffffffff168173ffffffffffffffffffffffffffffffffffffffff167f8be0079c531659141344cd1fd0a4f28419497f9722a3daafe3b4186f6b6457e060405160405180910390a35050565b60606000821415612a8b576040518060400160405280600181526020017f30000000000000000000000000000000000000000000000000000000000000008152509050612beb565b600082905060005b60008214612abd578080612aa69061490e565b915050600a82612ab6919061472c565b9150612a93565b60008167ffffffffffffffff811115612aff577f4e487b7100000000000000000000000000000000000000000000000000000000600052604160045260246000fd5b6040519080825280601f01601f191660200182016040528015612b315781602001600182028036833780820191505090505b5090505b60008514612be457600182612b4a91906147b7565b9150600a85612b59919061498f565b6030612b6591906146d6565b60f81b818381518110612ba1577f4e487b7100000000000000000000000000000000000000000000000000000000600052603260045260246000fd5b60200101907effffffffffffffffffffffffffffffffffffffffffffffffffffffffffffff1916908160001a905350600a85612bdd919061472c565b9450612b35565b8093505050505b919050565b8173ffffffffffffffffffffffffffffffffffffffff168373ffffffffffffffffffffffffffffffffffffffff161415612c5f576040517f08c379a0000000000000000000000000000000000000000000000000000000008152600401612c5690614362565b60405180910390fd5b80600560008573ffffffffffffffffffffffffffffffffffffffff1673ffffffffffffffffffffffffffffffffffffffff16815260200190815260200160002060008473ffffffffffffffffffffffffffffffffffffffff1673ffffffffffffffffffffffffffffffffffffffff16815260200190815260200160002060006101000a81548160ff0219169083151502179055508173ffffffffffffffffffffffffffffffffffffffff168373ffffffffffffffffffffffffffffffffffffffff167f17307eab39ab6107e8899845ad3d59bd9653f200f220920489ca2b5937696c3183604051612d5091906141aa565b60405180910390a3505050565b612d68848484612448565b612d7484848484613010565b612db3576040517f08c379a0000000000000000000000000000000000000000000000000000000008152600401612daa90614262565b60405180910390fd5b50505050565b60007f01ffc9a7000000000000000000000000000000000000000000000000000000007bffffffffffffffffffffffffffffffffffffffffffffffffffffffff1916827bffffffffffffffffffffffffffffffffffffffffffffffffffffffff1916149050919050565b612e2e8383836131a7565b600073ffffffffffffffffffffffffffffffffffffffff168373ffffffffffffffffffffffffffffffffffffffff161415612e7157612e6c816131ac565b612eb0565b8173ffffffffffffffffffffffffffffffffffffffff168373ffffffffffffffffffffffffffffffffffffffff1614612eaf57612eae83826131f5565b5b5b600073ffffffffffffffffffffffffffffffffffffffff168273ffffffffffffffffffffffffffffffffffffffff161415612ef357612eee81613362565b612f32565b8273ffffffffffffffffffffffffffffffffffffffff168273ffffffffffffffffffffffffffffffffffffffff1614612f3157612f3082826134a5565b5b5b505050565b60008082905060005b8451811015613005576000858281518110612f84577f4e487b7100000000000000000000000000000000000000000000000000000000600052603260045260246000fd5b60200260200101519050808311612fc5578281604051602001612fa89291906140de565b604051602081830303815290604052805190602001209250612ff1565b8083604051602001612fd89291906140de565b6040516020818303038152906040528051906020012092505b508080612ffd9061490e565b915050612f40565b508091505092915050565b60006130318473ffffffffffffffffffffffffffffffffffffffff16613524565b1561319a578373ffffffffffffffffffffffffffffffffffffffff1663150b7a0261305a6122a9565b8786866040518563ffffffff1660e01b815260040161307c949392919061415e565b602060405180830381600087803b15801561309657600080fd5b505af19250505080156130c757506040513d601f19601f820116820180604052508101906130c491906139ce565b60015b61314a573d80600081146130f7576040519150601f19603f3d011682016040523d82523d6000602084013e6130fc565b606091505b50600081511415613142576040517f08c379a000000000000000000000000000000000000000000000000000000000815260040161313990614262565b60405180910390fd5b805181602001fd5b63150b7a0260e01b7bffffffffffffffffffffffffffffffffffffffffffffffffffffffff1916817bffffffffffffffffffffffffffffffffffffffffffffffffffffffff19161491505061319f565b600190505b949350505050565b505050565b6008805490506009600083815260200190815260200160002081905550600881908060018154018082558091505060019003906000526020600020016000909190919091505550565b60006001613202846114e2565b61320c91906147b7565b90506000600760008481526020019081526020016000205490508181146132f1576000600660008673ffffffffffffffffffffffffffffffffffffffff1673ffffffffffffffffffffffffffffffffffffffff168152602001908152602001600020600084815260200190815260200160002054905080600660008773ffffffffffffffffffffffffffffffffffffffff1673ffffffffffffffffffffffffffffffffffffffff168152602001908152602001600020600084815260200190815260200160002081905550816007600083815260200190815260200160002081905550505b6007600084815260200190815260200160002060009055600660008573ffffffffffffffffffffffffffffffffffffffff1673ffffffffffffffffffffffffffffffffffffffff16815260200190815260200160002060008381526020019081526020016000206000905550505050565b6000600160088054905061337691906147b7565b90506000600960008481526020019081526020016000205490506000600883815481106133cc577f4e487b7100000000000000000000000000000000000000000000000000000000600052603260045260246000fd5b906000526020600020015490508060088381548110613414577f4e487b7100000000000000000000000000000000000000000000000000000000600052603260045260246000fd5b906000526020600020018190555081600960008381526020019081526020016000208190555060096000858152602001908152602001600020600090556008805480613489577f4e487b7100000000000000000000000000000000000000000000000000000000600052603160045260246000fd5b6001900381819060005260206000200160009055905550505050565b60006134b0836114e2565b905081600660008573ffffffffffffffffffffffffffffffffffffffff1673ffffffffffffffffffffffffffffffffffffffff168152602001908152602001600020600083815260200190815260200160002081905550806007600084815260200190815260200160002081905550505050565b600080823b905060008111915050919050565b828054613543906148ab565b90600052602060002090601f01602090048101928261356557600085556135ac565b82601f1061357e57803560ff19168380011785556135ac565b828001600101855582156135ac579182015b828111156135ab578235825591602001919060010190613590565b5b5090506135b991906135bd565b5090565b5b808211156135d65760008160009055506001016135be565b5090565b60006135ed6135e884614642565b61461d565b90508281526020810184848401111561360557600080fd5b613610848285614869565b509392505050565b600081359050613627816151d1565b92915050565b60008083601f84011261363f57600080fd5b8235905067ffffffffffffffff81111561365857600080fd5b60208301915083602082028301111561367057600080fd5b9250929050565b600081359050613686816151e8565b92915050565b60008135905061369b816151ff565b92915050565b6000813590506136b081615216565b92915050565b6000815190506136c581615216565b92915050565b600082601f8301126136dc57600080fd5b81356136ec8482602086016135da565b91505092915050565b60008083601f84011261370757600080fd5b8235905067ffffffffffffffff81111561372057600080fd5b60208301915083600182028301111561373857600080fd5b9250929050565b60008135905061374e8161522d565b92915050565b60006020828403121561376657600080fd5b600061377484828501613618565b91505092915050565b6000806040838503121561379057600080fd5b600061379e85828601613618565b92505060206137af85828601613618565b9150509250929050565b6000806000606084860312156137ce57600080fd5b60006137dc86828701613618565b93505060206137ed86828701613618565b92505060406137fe8682870161373f565b9150509250925092565b6000806000806080858703121561381e57600080fd5b600061382c87828801613618565b945050602061383d87828801613618565b935050604061384e8782880161373f565b925050606085013567ffffffffffffffff81111561386b57600080fd5b613877878288016136cb565b91505092959194509250565b6000806040838503121561389657600080fd5b60006138a485828601613618565b92505060206138b585828601613677565b9150509250929050565b600080604083850312156138d257600080fd5b60006138e085828601613618565b92505060206138f18582860161373f565b9150509250929050565b60006020828403121561390d57600080fd5b600061391b84828501613677565b91505092915050565b60008060006040848603121561393957600080fd5b600061394786828701613677565b935050602084013567ffffffffffffffff81111561396457600080fd5b613970868287016136f5565b92509250509250925092565b60006020828403121561398e57600080fd5b600061399c8482850161368c565b91505092915050565b6000602082840312156139b757600080fd5b60006139c5848285016136a1565b91505092915050565b6000602082840312156139e057600080fd5b60006139ee848285016136b6565b91505092915050565b600060208284031215613a0957600080fd5b6000613a178482850161373f565b91505092915050565b60008060008060608587031215613a3657600080fd5b6000613a448782880161373f565b945050602085013567ffffffffffffffff811115613a6157600080fd5b613a6d8782880161362d565b93509350506040613a808782880161373f565b91505092959194509250565b613a95816147eb565b82525050565b613aac613aa7826147eb565b614957565b82525050565b613abb816147fd565b82525050565b613aca81614809565b82525050565b613ae1613adc82614809565b614969565b82525050565b6000613af282614688565b613afc818561469e565b9350613b0c818560208601614878565b613b1581614a7c565b840191505092915050565b6000613b2b82614693565b613b3581856146ba565b9350613b45818560208601614878565b613b4e81614a7c565b840191505092915050565b6000613b6482614693565b613b6e81856146cb565b9350613b7e818560208601614878565b80840191505092915050565b60008154613b97816148ab565b613ba181866146cb565b94506001821660008114613bbc5760018114613bcd57613c00565b60ff19831686528186019350613c00565b613bd685614673565b60005b83811015613bf857815481890152600182019150602081019050613bd9565b838801955050505b50505092915050565b6000613c16601f836146ba565b9150613c2182614a9a565b602082019050919050565b6000613c39601f836146ba565b9150613c4482614ac3565b602082019050919050565b6000613c5c602b836146ba565b9150613c6782614aec565b604082019050919050565b6000613c7f6032836146ba565b9150613c8a82614b3b565b604082019050919050565b6000613ca26026836146ba565b9150613cad82614b8a565b604082019050919050565b6000613cc56010836146ba565b9150613cd082614bd9565b602082019050919050565b6000613ce8601c836146ba565b9150613cf382614c02565b602082019050919050565b6000613d0b6016836146ba565b9150613d1682614c2b565b602082019050919050565b6000613d2e6018836146ba565b9150613d3982614c54565b602082019050919050565b6000613d516018836146ba565b9150613d5c82614c7d565b602082019050919050565b6000613d746024836146ba565b9150613d7f82614ca6565b604082019050919050565b6000613d976019836146ba565b9150613da282614cf5565b602082019050919050565b6000613dba603a836146ba565b9150613dc582614d1e565b604082019050919050565b6000613ddd601d836146ba565b9150613de882614d6d565b602082019050919050565b6000613e00602c836146ba565b9150613e0b82614d96565b604082019050919050565b6000613e236038836146ba565b9150613e2e82614de5565b604082019050919050565b6000613e46602a836146ba565b9150613e5182614e34565b604082019050919050565b6000613e696029836146ba565b9150613e7482614e83565b604082019050919050565b6000613e8c6020836146ba565b9150613e9782614ed2565b602082019050919050565b6000613eaf602c836146ba565b9150613eba82614efb565b604082019050919050565b6000613ed26020836146ba565b9150613edd82614f4a565b602082019050919050565b6000613ef56029836146ba565b9150613f0082614f73565b604082019050919050565b6000613f186015836146ba565b9150613f2382614fc2565b602082019050919050565b6000613f3b6021836146ba565b9150613f4682614feb565b604082019050919050565b6000613f5e6000836146af565b9150613f698261503a565b600082019050919050565b6000613f816031836146ba565b9150613f8c8261503d565b604082019050919050565b6000613fa4602c836146ba565b9150613faf8261508c565b604082019050919050565b6000613fc7600f836146ba565b9150613fd2826150db565b602082019050919050565b6000613fea6019836146ba565b9150613ff582615104565b602082019050919050565b600061400d6012836146ba565b91506140188261512d565b602082019050919050565b60006140306015836146ba565b915061403b82615156565b602082019050919050565b6000614053600e836146ba565b915061405e8261517f565b602082019050919050565b60006140766016836146ba565b9150614081826151a8565b602082019050919050565b6140958161485f565b82525050565b6140ac6140a78261485f565b614985565b82525050565b60006140be8285613a9b565b6014820191506140ce828461409b565b6020820191508190509392505050565b60006140ea8285613ad0565b6020820191506140fa8284613ad0565b6020820191508190509392505050565b60006141168285613b8a565b91506141228284613b59565b91508190509392505050565b600061413982613f51565b9150819050919050565b60006020820190506141586000830184613a8c565b92915050565b60006080820190506141736000830187613a8c565b6141806020830186613a8c565b61418d604083018561408c565b818103606083015261419f8184613ae7565b905095945050505050565b60006020820190506141bf6000830184613ab2565b92915050565b60006020820190506141da6000830184613ac1565b92915050565b600060208201905081810360008301526141fa8184613b20565b905092915050565b6000602082019050818103600083015261421b81613c09565b9050919050565b6000602082019050818103600083015261423b81613c2c565b9050919050565b6000602082019050818103600083015261425b81613c4f565b9050919050565b6000602082019050818103600083015261427b81613c72565b9050919050565b6000602082019050818103600083015261429b81613c95565b9050919050565b600060208201905081810360008301526142bb81613cb8565b9050919050565b600060208201905081810360008301526142db81613cdb565b9050919050565b600060208201905081810360008301526142fb81613cfe565b9050919050565b6000602082019050818103600083015261431b81613d21565b9050919050565b6000602082019050818103600083015261433b81613d44565b9050919050565b6000602082019050818103600083015261435b81613d67565b9050919050565b6000602082019050818103600083015261437b81613d8a565b9050919050565b6000602082019050818103600083015261439b81613dad565b9050919050565b600060208201905081810360008301526143bb81613dd0565b9050919050565b600060208201905081810360008301526143db81613df3565b9050919050565b600060208201905081810360008301526143fb81613e16565b9050919050565b6000602082019050818103600083015261441b81613e39565b9050919050565b6000602082019050818103600083015261443b81613e5c565b9050919050565b6000602082019050818103600083015261445b81613e7f565b9050919050565b6000602082019050818103600083015261447b81613ea2565b9050919050565b6000602082019050818103600083015261449b81613ec5565b9050919050565b600060208201905081810360008301526144bb81613ee8565b9050919050565b600060208201905081810360008301526144db81613f0b565b9050919050565b600060208201905081810360008301526144fb81613f2e565b9050919050565b6000602082019050818103600083015261451b81613f74565b9050919050565b6000602082019050818103600083015261453b81613f97565b9050919050565b6000602082019050818103600083015261455b81613fba565b9050919050565b6000602082019050818103600083015261457b81613fdd565b9050919050565b6000602082019050818103600083015261459b81614000565b9050919050565b600060208201905081810360008301526145bb81614023565b9050919050565b600060208201905081810360008301526145db81614046565b9050919050565b600060208201905081810360008301526145fb81614069565b9050919050565b6000602082019050614617600083018461408c565b92915050565b6000614627614638565b905061463382826148dd565b919050565b6000604051905090565b600067ffffffffffffffff82111561465d5761465c614a4d565b5b61466682614a7c565b9050602081019050919050565b60008190508160005260206000209050919050565b600081519050919050565b600081519050919050565b600082825260208201905092915050565b600081905092915050565b600082825260208201905092915050565b600081905092915050565b60006146e18261485f565b91506146ec8361485f565b9250827fffffffffffffffffffffffffffffffffffffffffffffffffffffffffffffffff03821115614721576147206149c0565b5b828201905092915050565b60006147378261485f565b91506147428361485f565b925082614752576147516149ef565b5b828204905092915050565b60006147688261485f565b91506147738361485f565b9250817fffffffffffffffffffffffffffffffffffffffffffffffffffffffffffffffff04831182151516156147ac576147ab6149c0565b5b828202905092915050565b60006147c28261485f565b91506147cd8361485f565b9250828210156147e0576147df6149c0565b5b828203905092915050565b60006147f68261483f565b9050919050565b60008115159050919050565b6000819050919050565b60007fffffffff0000000000000000000000000000000000000000000000000000000082169050919050565b600073ffffffffffffffffffffffffffffffffffffffff82169050919050565b6000819050919050565b82818337600083830152505050565b60005b8381101561489657808201518184015260208101905061487b565b838111156148a5576000848401525b50505050565b600060028204905060018216806148c357607f821691505b602082108114156148d7576148d6614a1e565b5b50919050565b6148e682614a7c565b810181811067ffffffffffffffff8211171561490557614904614a4d565b5b80604052505050565b60006149198261485f565b91507fffffffffffffffffffffffffffffffffffffffffffffffffffffffffffffffff82141561494c5761494b6149c0565b5b600182019050919050565b600061496282614973565b9050919050565b6000819050919050565b600061497e82614a8d565b9050919050565b6000819050919050565b600061499a8261485f565b91506149a58361485f565b9250826149b5576149b46149ef565b5b828206905092915050565b7f4e487b7100000000000000000000000000000000000000000000000000000000600052601160045260246000fd5b7f4e487b7100000000000000000000000000000000000000000000000000000000600052601260045260246000fd5b7f4e487b7100000000000000000000000000000000000000000000000000000000600052602260045260246000fd5b7f4e487b7100000000000000000000000000000000000000000000000000000000600052604160045260246000fd5b6000601f19601f8301169050919050565b60008160601b9050919050565b7f6d617850657257616c6c65742073686f756c6420626520706f73697469766500600082015250565b7f55524920717565727920666f72206e6f6e6578697374656e7420746f6b656e00600082015250565b7f455243373231456e756d657261626c653a206f776e657220696e646578206f7560008201527f74206f6620626f756e6473000000000000000000000000000000000000000000602082015250565b7f4552433732313a207472616e7366657220746f206e6f6e20455243373231526560008201527f63656976657220696d706c656d656e7465720000000000000000000000000000602082015250565b7f4f776e61626c653a206e6577206f776e657220697320746865207a65726f206160008201527f6464726573730000000000000000000000000000000000000000000000000000602082015250565b7f4e4f54204f4e2057484954454c49535400000000000000000000000000000000600082015250565b7f4552433732313a20746f6b656e20616c7265616479206d696e74656400000000600082015250565b7f50524553414c45204f4e4c59205249474854204e4f5700000000000000000000600082015250565b7f494e434f5252454354205041594d454e5420414d4f554e540000000000000000600082015250565b7f4e4f5420454e4f554748204c45465420494e2053544f434b0000000000000000600082015250565b7f4552433732313a207472616e7366657220746f20746865207a65726f2061646460008201527f7265737300000000000000000000000000000000000000000000000000000000602082015250565b7f4552433732313a20617070726f766520746f2063616c6c657200000000000000600082015250565b7f416464726573733a20756e61626c6520746f2073656e642076616c75652c207260008201527f6563697069656e74206d61792068617665207265766572746564000000000000602082015250565b7f416464726573733a20696e73756666696369656e742062616c616e6365000000600082015250565b7f4552433732313a206f70657261746f7220717565727920666f72206e6f6e657860008201527f697374656e7420746f6b656e0000000000000000000000000000000000000000602082015250565b7f4552433732313a20617070726f76652063616c6c6572206973206e6f74206f7760008201527f6e6572206e6f7220617070726f76656420666f7220616c6c0000000000000000602082015250565b7f4552433732313a2062616c616e636520717565727920666f7220746865207a6560008201527f726f206164647265737300000000000000000000000000000000000000000000602082015250565b7f4552433732313a206f776e657220717565727920666f72206e6f6e657869737460008201527f656e7420746f6b656e0000000000000000000000000000000000000000000000602082015250565b7f4552433732313a206d696e7420746f20746865207a65726f2061646472657373600082015250565b7f4552433732313a20617070726f76656420717565727920666f72206e6f6e657860008201527f697374656e7420746f6b656e0000000000000000000000000000000000000000602082015250565b7f4f776e61626c653a2063616c6c6572206973206e6f7420746865206f776e6572600082015250565b7f4552433732313a207472616e73666572206f6620746f6b656e2074686174206960008201527f73206e6f74206f776e0000000000000000000000000000000000000000000000602082015250565b7f53414c4520414354495645205249474854204e4f570000000000000000000000600082015250565b7f4552433732313a20617070726f76616c20746f2063757272656e74206f776e6560008201527f7200000000000000000000000000000000000000000000000000000000000000602082015250565b50565b7f4552433732313a207472616e736665722063616c6c6572206973206e6f74206f60008201527f776e6572206e6f7220617070726f766564000000000000000000000000000000602082015250565b7f455243373231456e756d657261626c653a20676c6f62616c20696e646578206f60008201527f7574206f6620626f756e64730000000000000000000000000000000000000000602082015250565b7f53414c45204e4f54204143544956450000000000000000000000000000000000600082015250565b7f4d494e54494e47204d4f5245205448414e20414c4c4f57454400000000000000600082015250565b7f50524553414c45204e4f54204143544956450000000000000000000000000000600082015250565b7f46726565206d696e74206e6f7420616c6c6f7765640000000000000000000000600082015250565b7f5f726f6f7420697320656d707479000000000000000000000000000000000000600082015250565b7f5f746f6b656e4261736555524920697320656d70747900000000000000000000600082015250565b6151da816147eb565b81146151e557600080fd5b50565b6151f1816147fd565b81146151fc57600080fd5b50565b61520881614809565b811461521357600080fd5b50565b61521f81614813565b811461522a57600080fd5b50565b6152368161485f565b811461524157600080fd5b5056fea2646970667358221220ab6069b7bdb544e13d4604180a413930caf4be06af2306d2df119b4406b1abb864736f6c63430008040033",
  "linkReferences": {},
  "deployedLinkReferences": {}
}