{
  "_format": "hh-sol-artifact-1",
  "contractName": "PMV",
  "sourceName": "contracts/PMV.sol",
  "abi": [
    {
      "inputs": [
        {
          "internalType": "bytes32",
          "name": "merkleroot",
          "type": "bytes32"
        },
        {
          "internalType": "string",
          "name": "uri",
          "type": "string"
        },
        {
          "internalType": "bytes32",
          "name": "_rootMintFree",
          "type": "bytes32"
        }
      ],
      "stateMutability": "nonpayable",
      "type": "constructor"
    },
    {
      "anonymous": false,
      "inputs": [
        {
          "indexed": true,
          "internalType": "address",
          "name": "owner",
          "type": "address"
        },
        {
          "indexed": true,
          "internalType": "address",
          "name": "approved",
          "type": "address"
        },
        {
          "indexed": true,
          "internalType": "uint256",
          "name": "tokenId",
          "type": "uint256"
        }
      ],
      "name": "Approval",
      "type": "event"
    },
    {
      "anonymous": false,
      "inputs": [
        {
          "indexed": true,
          "internalType": "address",
          "name": "owner",
          "type": "address"
        },
        {
          "indexed": true,
          "internalType": "address",
          "name": "operator",
          "type": "address"
        },
        {
          "indexed": false,
          "internalType": "bool",
          "name": "approved",
          "type": "bool"
        }
      ],
      "name": "ApprovalForAll",
      "type": "event"
    },
    {
      "anonymous": false,
      "inputs": [
        {
          "indexed": true,
          "internalType": "address",
          "name": "previousOwner",
          "type": "address"
        },
        {
          "indexed": true,
          "internalType": "address",
          "name": "newOwner",
          "type": "address"
        }
      ],
      "name": "OwnershipTransferred",
      "type": "event"
    },
    {
      "anonymous": false,
      "inputs": [
        {
          "indexed": true,
          "internalType": "address",
          "name": "from",
          "type": "address"
        },
        {
          "indexed": true,
          "internalType": "address",
          "name": "to",
          "type": "address"
        },
        {
          "indexed": true,
          "internalType": "uint256",
          "name": "tokenId",
          "type": "uint256"
        }
      ],
      "name": "Transfer",
      "type": "event"
    },
    {
      "inputs": [
        {
          "internalType": "uint256",
          "name": "tokenId",
          "type": "uint256"
        }
      ],
      "name": "_tokenURI",
      "outputs": [
        {
          "internalType": "string",
          "name": "",
          "type": "string"
        }
      ],
      "stateMutability": "view",
      "type": "function"
    },
    {
      "inputs": [
        {
          "internalType": "address",
          "name": "to",
          "type": "address"
        },
        {
          "internalType": "uint256",
          "name": "tokenId",
          "type": "uint256"
        }
      ],
      "name": "approve",
      "outputs": [],
      "stateMutability": "nonpayable",
      "type": "function"
    },
    {
      "inputs": [
        {
          "internalType": "address",
          "name": "owner",
          "type": "address"
        }
      ],
      "name": "balanceOf",
      "outputs": [
        {
          "internalType": "uint256",
          "name": "",
          "type": "uint256"
        }
      ],
      "stateMutability": "view",
      "type": "function"
    },
    {
      "inputs": [],
      "name": "freeMintAllowed",
      "outputs": [
        {
          "internalType": "bool",
          "name": "",
          "type": "bool"
        }
      ],
      "stateMutability": "view",
      "type": "function"
    },
    {
      "inputs": [
        {
          "internalType": "uint256",
          "name": "tokenId",
          "type": "uint256"
        }
      ],
      "name": "getApproved",
      "outputs": [
        {
          "internalType": "address",
          "name": "",
          "type": "address"
        }
      ],
      "stateMutability": "view",
      "type": "function"
    },
    {
      "inputs": [
        {
          "internalType": "address",
          "name": "owner",
          "type": "address"
        },
        {
          "internalType": "address",
          "name": "operator",
          "type": "address"
        }
      ],
      "name": "isApprovedForAll",
      "outputs": [
        {
          "internalType": "bool",
          "name": "",
          "type": "bool"
        }
      ],
      "stateMutability": "view",
      "type": "function"
    },
    {
      "inputs": [],
      "name": "maxPerWallet",
      "outputs": [
        {
          "internalType": "uint256",
          "name": "",
          "type": "uint256"
        }
      ],
      "stateMutability": "view",
      "type": "function"
    },
    {
      "inputs": [],
      "name": "maxSupply",
      "outputs": [
        {
          "internalType": "uint256",
          "name": "",
          "type": "uint256"
        }
      ],
      "stateMutability": "view",
      "type": "function"
    },
    {
      "inputs": [
        {
          "internalType": "uint256",
          "name": "tokenQuantity",
          "type": "uint256"
        }
      ],
      "name": "mint",
      "outputs": [],
      "stateMutability": "payable",
      "type": "function"
    },
    {
      "inputs": [
        {
          "internalType": "uint256",
          "name": "allowance",
          "type": "uint256"
        },
        {
          "internalType": "bytes32[]",
          "name": "proof",
          "type": "bytes32[]"
        },
        {
          "internalType": "uint256",
          "name": "tokenQuantity",
          "type": "uint256"
        }
      ],
      "name": "mintFree",
      "outputs": [],
      "stateMutability": "nonpayable",
      "type": "function"
    },
    {
      "inputs": [
        {
          "internalType": "uint256",
          "name": "allowance",
          "type": "uint256"
        },
        {
          "internalType": "bytes32[]",
          "name": "proof",
          "type": "bytes32[]"
        },
        {
          "internalType": "uint256",
          "name": "tokenQuantity",
          "type": "uint256"
        }
      ],
      "name": "mintPresale",
      "outputs": [],
      "stateMutability": "payable",
      "type": "function"
    },
    {
      "inputs": [],
      "name": "name",
      "outputs": [
        {
          "internalType": "string",
          "name": "",
          "type": "string"
        }
      ],
      "stateMutability": "view",
      "type": "function"
    },
    {
      "inputs": [],
      "name": "owner",
      "outputs": [
        {
          "internalType": "address",
          "name": "",
          "type": "address"
        }
      ],
      "stateMutability": "view",
      "type": "function"
    },
    {
      "inputs": [
        {
          "internalType": "uint256",
          "name": "tokenId",
          "type": "uint256"
        }
      ],
      "name": "ownerOf",
      "outputs": [
        {
          "internalType": "address",
          "name": "",
          "type": "address"
        }
      ],
      "stateMutability": "view",
      "type": "function"
    },
    {
      "inputs": [],
      "name": "presaleActive",
      "outputs": [
        {
          "internalType": "bool",
          "name": "",
          "type": "bool"
        }
      ],
      "stateMutability": "view",
      "type": "function"
    },
    {
      "inputs": [],
      "name": "renounceOwnership",
      "outputs": [],
      "stateMutability": "nonpayable",
      "type": "function"
    },
    {
      "inputs": [],
      "name": "root",
      "outputs": [
        {
          "internalType": "bytes32",
          "name": "",
          "type": "bytes32"
        }
      ],
      "stateMutability": "view",
      "type": "function"
    },
    {
      "inputs": [],
      "name": "rootMintFree",
      "outputs": [
        {
          "internalType": "bytes32",
          "name": "",
          "type": "bytes32"
        }
      ],
      "stateMutability": "view",
      "type": "function"
    },
    {
      "inputs": [
        {
          "internalType": "address",
          "name": "from",
          "type": "address"
        },
        {
          "internalType": "address",
          "name": "to",
          "type": "address"
        },
        {
          "internalType": "uint256",
          "name": "tokenId",
          "type": "uint256"
        }
      ],
      "name": "safeTransferFrom",
      "outputs": [],
      "stateMutability": "nonpayable",
      "type": "function"
    },
    {
      "inputs": [
        {
          "internalType": "address",
          "name": "from",
          "type": "address"
        },
        {
          "internalType": "address",
          "name": "to",
          "type": "address"
        },
        {
          "internalType": "uint256",
          "name": "tokenId",
          "type": "uint256"
        },
        {
          "internalType": "bytes",
          "name": "_data",
          "type": "bytes"
        }
      ],
      "name": "safeTransferFrom",
      "outputs": [],
      "stateMutability": "nonpayable",
      "type": "function"
    },
    {
      "inputs": [],
      "name": "saleActive",
      "outputs": [
        {
          "internalType": "bool",
          "name": "",
          "type": "bool"
        }
      ],
      "stateMutability": "view",
      "type": "function"
    },
    {
      "inputs": [],
      "name": "salePrice",
      "outputs": [
        {
          "internalType": "uint256",
          "name": "",
          "type": "uint256"
        }
      ],
      "stateMutability": "view",
      "type": "function"
    },
    {
      "inputs": [
        {
          "internalType": "address",
          "name": "operator",
          "type": "address"
        },
        {
          "internalType": "bool",
          "name": "approved",
          "type": "bool"
        }
      ],
      "name": "setApprovalForAll",
      "outputs": [],
      "stateMutability": "nonpayable",
      "type": "function"
    },
    {
      "inputs": [
        {
          "internalType": "bool",
          "name": "_freeMintAllowed",
          "type": "bool"
        }
      ],
      "name": "setFreeMintAllowed",
      "outputs": [],
      "stateMutability": "nonpayable",
      "type": "function"
    },
    {
      "inputs": [
        {
          "internalType": "bool",
          "name": "_presaleStatus",
          "type": "bool"
        }
      ],
      "name": "setPresale",
      "outputs": [],
      "stateMutability": "nonpayable",
      "type": "function"
    },
    {
      "inputs": [
        {
          "internalType": "bytes32",
          "name": "_root",
          "type": "bytes32"
        }
      ],
      "name": "setRoot",
      "outputs": [],
      "stateMutability": "nonpayable",
      "type": "function"
    },
    {
      "inputs": [
        {
          "internalType": "bytes32",
          "name": "_root",
          "type": "bytes32"
        }
      ],
      "name": "setRootMintFree",
      "outputs": [],
      "stateMutability": "nonpayable",
      "type": "function"
    },
    {
      "inputs": [
        {
          "internalType": "bool",
          "name": "_saleStatus",
          "type": "bool"
        }
      ],
      "name": "setSale",
      "outputs": [],
      "stateMutability": "nonpayable",
      "type": "function"
    },
    {
      "inputs": [
        {
          "internalType": "bool",
          "name": "_revealed",
          "type": "bool"
        },
        {
          "internalType": "string",
          "name": "_tokenBaseURI",
          "type": "string"
        }
      ],
      "name": "setURIStatus",
      "outputs": [],
      "stateMutability": "nonpayable",
      "type": "function"
    },
    {
      "inputs": [
        {
          "internalType": "bytes4",
          "name": "interfaceId",
          "type": "bytes4"
        }
      ],
      "name": "supportsInterface",
      "outputs": [
        {
          "internalType": "bool",
          "name": "",
          "type": "bool"
        }
      ],
      "stateMutability": "view",
      "type": "function"
    },
    {
      "inputs": [],
      "name": "symbol",
      "outputs": [
        {
          "internalType": "string",
          "name": "",
          "type": "string"
        }
      ],
      "stateMutability": "view",
      "type": "function"
    },
    {
      "inputs": [
        {
          "internalType": "uint256",
          "name": "index",
          "type": "uint256"
        }
      ],
      "name": "tokenByIndex",
      "outputs": [
        {
          "internalType": "uint256",
          "name": "",
          "type": "uint256"
        }
      ],
      "stateMutability": "view",
      "type": "function"
    },
    {
      "inputs": [
        {
          "internalType": "address",
          "name": "owner",
          "type": "address"
        },
        {
          "internalType": "uint256",
          "name": "index",
          "type": "uint256"
        }
      ],
      "name": "tokenOfOwnerByIndex",
      "outputs": [
        {
          "internalType": "uint256",
          "name": "",
          "type": "uint256"
        }
      ],
      "stateMutability": "view",
      "type": "function"
    },
    {
      "inputs": [
        {
          "internalType": "uint256",
          "name": "tokenId",
          "type": "uint256"
        }
      ],
      "name": "tokenURI",
      "outputs": [
        {
          "internalType": "string",
          "name": "",
          "type": "string"
        }
      ],
      "stateMutability": "view",
      "type": "function"
    },
    {
      "inputs": [],
      "name": "totalSupply",
      "outputs": [
        {
          "internalType": "uint256",
          "name": "",
          "type": "uint256"
        }
      ],
      "stateMutability": "view",
      "type": "function"
    },
    {
      "inputs": [
        {
          "internalType": "address",
          "name": "from",
          "type": "address"
        },
        {
          "internalType": "address",
          "name": "to",
          "type": "address"
        },
        {
          "internalType": "uint256",
          "name": "tokenId",
          "type": "uint256"
        }
      ],
      "name": "transferFrom",
      "outputs": [],
      "stateMutability": "nonpayable",
      "type": "function"
    },
    {
      "inputs": [
        {
          "internalType": "address",
          "name": "newOwner",
          "type": "address"
        }
      ],
      "name": "transferOwnership",
      "outputs": [],
      "stateMutability": "nonpayable",
      "type": "function"
    },
    {
      "inputs": [],
      "name": "withdraw",
      "outputs": [],
      "stateMutability": "nonpayable",
      "type": "function"
    }
  ],
  "bytecode": "0x60806040526000600a60146101000a81548160ff0219169083151502179055506000600a60156101000a81548160ff0219169083151502179055506000600a60166101000a81548160ff0219169083151502179055506000600d60006101000a81548160ff0219169083151502179055503480156200007d57600080fd5b506040516200549b3803806200549b8339818101604052810190620000a391906200039a565b6040518060400160405280600381526020017f504d5600000000000000000000000000000000000000000000000000000000008152506040518060400160405280600681526020017f504d56544b4e000000000000000000000000000000000000000000000000000081525081600090805190602001906200012792919062000261565b5080600190805190602001906200014092919062000261565b50505062000163620001576200019360201b60201c565b6200019b60201b60201c565b82600e8190555081600c90805190602001906200018292919062000261565b5080600f819055505050506200059d565b600033905090565b6000600a60009054906101000a900473ffffffffffffffffffffffffffffffffffffffff16905081600a60006101000a81548173ffffffffffffffffffffffffffffffffffffffff021916908373ffffffffffffffffffffffffffffffffffffffff1602179055508173ffffffffffffffffffffffffffffffffffffffff168173ffffffffffffffffffffffffffffffffffffffff167f8be0079c531659141344cd1fd0a4f28419497f9722a3daafe3b4186f6b6457e060405160405180910390a35050565b8280546200026f90620004a8565b90600052602060002090601f016020900481019282620002935760008555620002df565b82601f10620002ae57805160ff1916838001178555620002df565b82800160010185558215620002df579182015b82811115620002de578251825591602001919060010190620002c1565b5b509050620002ee9190620002f2565b5090565b5b808211156200030d576000816000905550600101620002f3565b5090565b600062000328620003228462000432565b62000409565b9050828152602081018484840111156200034157600080fd5b6200034e84828562000472565b509392505050565b600081519050620003678162000583565b92915050565b600082601f8301126200037f57600080fd5b81516200039184826020860162000311565b91505092915050565b600080600060608486031215620003b057600080fd5b6000620003c08682870162000356565b935050602084015167ffffffffffffffff811115620003de57600080fd5b620003ec868287016200036d565b9250506040620003ff8682870162000356565b9150509250925092565b60006200041562000428565b9050620004238282620004de565b919050565b6000604051905090565b600067ffffffffffffffff82111562000450576200044f62000543565b5b6200045b8262000572565b9050602081019050919050565b6000819050919050565b60005b838110156200049257808201518184015260208101905062000475565b83811115620004a2576000848401525b50505050565b60006002820490506001821680620004c157607f821691505b60208210811415620004d857620004d762000514565b5b50919050565b620004e98262000572565b810181811067ffffffffffffffff821117156200050b576200050a62000543565b5b80604052505050565b7f4e487b7100000000000000000000000000000000000000000000000000000000600052602260045260246000fd5b7f4e487b7100000000000000000000000000000000000000000000000000000000600052604160045260246000fd5b6000601f19601f8301169050919050565b6200058e8162000468565b81146200059a57600080fd5b50565b614eee80620005ad6000396000f3fe6080604052600436106102255760003560e01c806368428a1b11610123578063a22cb465116100ab578063dab5f3401161006f578063dab5f340146107e9578063e985e9c514610812578063ebf0c7171461084f578063f2fde38b1461087a578063f51f96dd146108a357610225565b8063a22cb46514610706578063b88d4fde1461072f578063c54e73e314610758578063c87b56dd14610781578063d5abeb01146107be57610225565b80638d17e712116100f25780638d17e7121461062e5780638da5cb5b1461066b57806392c46da31461069657806395d89b41146106bf578063a0712d68146106ea57610225565b806368428a1b146105865780636f8d9305146105b157806370a08231146105da578063715018a61461061757610225565b80632a613fa7116101b1578063453c231011610175578063453c23101461048b5780634f6ccce7146104b657806353135ca0146104f35780635fc9c0e61461051e5780636352211e1461054957610225565b80632a613fa7146103c75780632f745c59146103f25780633c14a2de1461042f5780633ccfd60b1461044b57806342842e0e1461046257610225565b806318160ddd116101f857806318160ddd146102f85780631d2e5a3a146103235780631fbb4e271461034c57806323b872dd1461037557806329770e041461039e57610225565b806301ffc9a71461022a57806306fdde0314610267578063081812fc14610292578063095ea7b3146102cf575b600080fd5b34801561023657600080fd5b50610251600480360381019061024c91906137c9565b6108ce565b60405161025e9190613f2d565b60405180910390f35b34801561027357600080fd5b5061027c610948565b6040516102899190613f63565b60405180910390f35b34801561029e57600080fd5b506102b960048036038101906102b4919061381b565b6109da565b6040516102c69190613ec6565b60405180910390f35b3480156102db57600080fd5b506102f660048036038101906102f191906136e3565b610a5f565b005b34801561030457600080fd5b5061030d610b77565b60405161031a9190614325565b60405180910390f35b34801561032f57600080fd5b5061034a6004803603810190610345919061371f565b610b84565b005b34801561035857600080fd5b50610373600480360381019061036e91906137a0565b610c1d565b005b34801561038157600080fd5b5061039c600480360381019061039791906135dd565b610cea565b005b3480156103aa57600080fd5b506103c560048036038101906103c0919061371f565b610d4a565b005b3480156103d357600080fd5b506103dc610de3565b6040516103e99190613f2d565b60405180910390f35b3480156103fe57600080fd5b50610419600480360381019061041491906136e3565b610df6565b6040516104269190614325565b60405180910390f35b61044960048036038101906104449190613844565b610e9b565b005b34801561045757600080fd5b50610460611172565b005b34801561046e57600080fd5b50610489600480360381019061048491906135dd565b611237565b005b34801561049757600080fd5b506104a0611257565b6040516104ad9190614325565b60405180910390f35b3480156104c257600080fd5b506104dd60048036038101906104d8919061381b565b61125c565b6040516104ea9190614325565b60405180910390f35b3480156104ff57600080fd5b506105086112f3565b6040516105159190613f2d565b60405180910390f35b34801561052a57600080fd5b50610533611306565b6040516105409190613f48565b60405180910390f35b34801561055557600080fd5b50610570600480360381019061056b919061381b565b61130c565b60405161057d9190613ec6565b60405180910390f35b34801561059257600080fd5b5061059b6113be565b6040516105a89190613f2d565b60405180910390f35b3480156105bd57600080fd5b506105d860048036038101906105d39190613748565b6113d1565b005b3480156105e657600080fd5b5061060160048036038101906105fc9190613578565b6114c4565b60405161060e9190614325565b60405180910390f35b34801561062357600080fd5b5061062c61157c565b005b34801561063a57600080fd5b506106556004803603810190610650919061381b565b611604565b6040516106629190613f63565b60405180910390f35b34801561067757600080fd5b506106806116e7565b60405161068d9190613ec6565b60405180910390f35b3480156106a257600080fd5b506106bd60048036038101906106b89190613844565b611711565b005b3480156106cb57600080fd5b506106d461199a565b6040516106e19190613f63565b60405180910390f35b61070460048036038101906106ff919061381b565b611a2c565b005b34801561071257600080fd5b5061072d600480360381019061072891906136a7565b611c99565b005b34801561073b57600080fd5b506107566004803603810190610751919061362c565b611caf565b005b34801561076457600080fd5b5061077f600480360381019061077a919061371f565b611d11565b005b34801561078d57600080fd5b506107a860048036038101906107a3919061381b565b611daa565b6040516107b59190613f63565b60405180910390f35b3480156107ca57600080fd5b506107d3611e04565b6040516107e09190614325565b60405180910390f35b3480156107f557600080fd5b50610810600480360381019061080b91906137a0565b611e09565b005b34801561081e57600080fd5b50610839600480360381019061083491906135a1565b611ed6565b6040516108469190613f2d565b60405180910390f35b34801561085b57600080fd5b50610864611f6a565b6040516108719190613f48565b60405180910390f35b34801561088657600080fd5b506108a1600480360381019061089c9190613578565b611f70565b005b3480156108af57600080fd5b506108b8612068565b6040516108c59190614325565b60405180910390f35b60007f780e9d63000000000000000000000000000000000000000000000000000000007bffffffffffffffffffffffffffffffffffffffffffffffffffffffff1916827bffffffffffffffffffffffffffffffffffffffffffffffffffffffff19161480610941575061094082612073565b5b9050919050565b606060008054610957906145c3565b80601f0160208091040260200160405190810160405280929190818152602001828054610983906145c3565b80156109d05780601f106109a5576101008083540402835291602001916109d0565b820191906000526020600020905b8154815290600101906020018083116109b357829003601f168201915b5050505050905090565b60006109e582612155565b610a24576040517f08c379a0000000000000000000000000000000000000000000000000000000008152600401610a1b90614185565b60405180910390fd5b6004600083815260200190815260200160002060009054906101000a900473ffffffffffffffffffffffffffffffffffffffff169050919050565b6000610a6a8261130c565b90508073ffffffffffffffffffffffffffffffffffffffff168373ffffffffffffffffffffffffffffffffffffffff161415610adb576040517f08c379a0000000000000000000000000000000000000000000000000000000008152600401610ad290614205565b60405180910390fd5b8073ffffffffffffffffffffffffffffffffffffffff16610afa6121c1565b73ffffffffffffffffffffffffffffffffffffffff161480610b295750610b2881610b236121c1565b611ed6565b5b610b68576040517f08c379a0000000000000000000000000000000000000000000000000000000008152600401610b5f90614105565b60405180910390fd5b610b7283836121c9565b505050565b6000600880549050905090565b610b8c6121c1565b73ffffffffffffffffffffffffffffffffffffffff16610baa6116e7565b73ffffffffffffffffffffffffffffffffffffffff1614610c00576040517f08c379a0000000000000000000000000000000000000000000000000000000008152600401610bf7906141a5565b60405180910390fd5b80600a60166101000a81548160ff02191690831515021790555050565b610c256121c1565b73ffffffffffffffffffffffffffffffffffffffff16610c436116e7565b73ffffffffffffffffffffffffffffffffffffffff1614610c99576040517f08c379a0000000000000000000000000000000000000000000000000000000008152600401610c90906141a5565b60405180910390fd5b6000602060ff1611610ce0576040517f08c379a0000000000000000000000000000000000000000000000000000000008152600401610cd7906142e5565b60405180910390fd5b80600f8190555050565b610cfb610cf56121c1565b82612282565b610d3a576040517f08c379a0000000000000000000000000000000000000000000000000000000008152600401610d3190614225565b60405180910390fd5b610d45838383612360565b505050565b610d526121c1565b73ffffffffffffffffffffffffffffffffffffffff16610d706116e7565b73ffffffffffffffffffffffffffffffffffffffff1614610dc6576040517f08c379a0000000000000000000000000000000000000000000000000000000008152600401610dbd906141a5565b60405180910390fd5b80600a60156101000a81548160ff02191690831515021790555050565b600a60159054906101000a900460ff1681565b6000610e01836114c4565b8210610e42576040517f08c379a0000000000000000000000000000000000000000000000000000000008152600401610e3990613fa5565b60405180910390fd5b600660008473ffffffffffffffffffffffffffffffffffffffff1673ffffffffffffffffffffffffffffffffffffffff168152602001908152602001600020600083815260200190815260200160002054905092915050565b600a60149054906101000a900460ff16610eea576040517f08c379a0000000000000000000000000000000000000000000000000000000008152600401610ee1906142a5565b60405180910390fd5b600a60169054906101000a900460ff1615610f3a576040517f08c379a0000000000000000000000000000000000000000000000000000000008152600401610f31906141e5565b60405180910390fd5b610fba600e543386604051602001610f53929190613e4a565b60405160208183030381529060405280519060200120858580806020026020016040519081016040528093929190818152602001838360200280828437600081840152601f19601f820116905080830192505050505050506125bc9092919063ffffffff16565b610ff9576040517f08c379a0000000000000000000000000000000000000000000000000000000008152600401610ff090614005565b60405180910390fd5b8381601060003373ffffffffffffffffffffffffffffffffffffffff1673ffffffffffffffffffffffffffffffffffffffff1681526020019081526020016000205461104591906143ee565b1115611086576040517f08c379a000000000000000000000000000000000000000000000000000000000815260040161107d90614285565b60405180910390fd5b3466470de4df8200008261109a9190614475565b146110da576040517f08c379a00000000000000000000000000000000000000000000000000000000081526004016110d190614065565b60405180910390fd5b60005b81811015611115576111023360016110f3610b77565b6110fd91906143ee565b6125d3565b808061110d90614626565b9150506110dd565b5080601060003373ffffffffffffffffffffffffffffffffffffffff1673ffffffffffffffffffffffffffffffffffffffff168152602001908152602001600020600082825461116591906143ee565b9250508190555050505050565b61117a6121c1565b73ffffffffffffffffffffffffffffffffffffffff166111986116e7565b73ffffffffffffffffffffffffffffffffffffffff16146111ee576040517f08c379a00000000000000000000000000000000000000000000000000000000081526004016111e5906141a5565b60405180910390fd5b3373ffffffffffffffffffffffffffffffffffffffff166108fc479081150290604051600060405180830381858888f19350505050158015611234573d6000803e3d6000fd5b50565b61125283838360405180602001604052806000815250611caf565b505050565b600a81565b6000611266610b77565b82106112a7576040517f08c379a000000000000000000000000000000000000000000000000000000000815260040161129e90614245565b60405180910390fd5b600882815481106112e1577f4e487b7100000000000000000000000000000000000000000000000000000000600052603260045260246000fd5b90600052602060002001549050919050565b600a60149054906101000a900460ff1681565b600f5481565b6000806002600084815260200190815260200160002060009054906101000a900473ffffffffffffffffffffffffffffffffffffffff169050600073ffffffffffffffffffffffffffffffffffffffff168173ffffffffffffffffffffffffffffffffffffffff1614156113b5576040517f08c379a00000000000000000000000000000000000000000000000000000000081526004016113ac90614145565b60405180910390fd5b80915050919050565b600a60169054906101000a900460ff1681565b6113d96121c1565b73ffffffffffffffffffffffffffffffffffffffff166113f76116e7565b73ffffffffffffffffffffffffffffffffffffffff161461144d576040517f08c379a0000000000000000000000000000000000000000000000000000000008152600401611444906141a5565b60405180910390fd5b60008282905011611493576040517f08c379a000000000000000000000000000000000000000000000000000000000815260040161148a90614305565b60405180910390fd5b82600d60006101000a81548160ff0219169083151502179055508181600b91906114be92919061335b565b50505050565b60008073ffffffffffffffffffffffffffffffffffffffff168273ffffffffffffffffffffffffffffffffffffffff161415611535576040517f08c379a000000000000000000000000000000000000000000000000000000000815260040161152c90614125565b60405180910390fd5b600360008373ffffffffffffffffffffffffffffffffffffffff1673ffffffffffffffffffffffffffffffffffffffff168152602001908152602001600020549050919050565b6115846121c1565b73ffffffffffffffffffffffffffffffffffffffff166115a26116e7565b73ffffffffffffffffffffffffffffffffffffffff16146115f8576040517f08c379a00000000000000000000000000000000000000000000000000000000081526004016115ef906141a5565b60405180910390fd5b61160260006127a1565b565b606060001515600d60009054906101000a900460ff16151514156116b457600c805461162f906145c3565b80601f016020809104026020016040519081016040528092919081815260200182805461165b906145c3565b80156116a85780601f1061167d576101008083540402835291602001916116a8565b820191906000526020600020905b81548152906001019060200180831161168b57829003601f168201915b505050505090506116e2565b600b6116bf83612867565b6040516020016116d0929190613ea2565b60405160208183030381529060405290505b919050565b6000600a60009054906101000a900473ffffffffffffffffffffffffffffffffffffffff16905090565b600a60159054906101000a900460ff16611760576040517f08c379a0000000000000000000000000000000000000000000000000000000008152600401611757906142c5565b60405180910390fd5b6117e0600f543386604051602001611779929190613e4a565b60405160208183030381529060405280519060200120858580806020026020016040519081016040528093929190818152602001838360200280828437600081840152601f19601f820116905080830192505050505050506125bc9092919063ffffffff16565b61181f576040517f08c379a000000000000000000000000000000000000000000000000000000000815260040161181690614005565b60405180910390fd5b8381601160003373ffffffffffffffffffffffffffffffffffffffff1673ffffffffffffffffffffffffffffffffffffffff1681526020019081526020016000205461186b91906143ee565b11156118ac576040517f08c379a00000000000000000000000000000000000000000000000000000000081526004016118a390614285565b60405180910390fd5b601e6118b6610b77565b826118c191906143ee565b1115611902576040517f08c379a00000000000000000000000000000000000000000000000000000000081526004016118f990614085565b60405180910390fd5b60005b8181101561193d5761192a33600161191b610b77565b61192591906143ee565b6125d3565b808061193590614626565b915050611905565b5080601160003373ffffffffffffffffffffffffffffffffffffffff1673ffffffffffffffffffffffffffffffffffffffff168152602001908152602001600020600082825461198d91906143ee565b9250508190555050505050565b6060600180546119a9906145c3565b80601f01602080910402602001604051908101604052809291908181526020018280546119d5906145c3565b8015611a225780601f106119f757610100808354040283529160200191611a22565b820191906000526020600020905b815481529060010190602001808311611a0557829003601f168201915b5050505050905090565b600a60169054906101000a900460ff16611a7b576040517f08c379a0000000000000000000000000000000000000000000000000000000008152600401611a7290614265565b60405180910390fd5b600a60149054906101000a900460ff1615611acb576040517f08c379a0000000000000000000000000000000000000000000000000000000008152600401611ac290614045565b60405180910390fd5b600a81601260003373ffffffffffffffffffffffffffffffffffffffff1673ffffffffffffffffffffffffffffffffffffffff16815260200190815260200160002054611b1891906143ee565b1115611b59576040517f08c379a0000000000000000000000000000000000000000000000000000000008152600401611b5090614285565b60405180910390fd5b601e611b63610b77565b82611b6e91906143ee565b1115611baf576040517f08c379a0000000000000000000000000000000000000000000000000000000008152600401611ba690614085565b60405180910390fd5b3466470de4df82000082611bc39190614475565b1115611c04576040517f08c379a0000000000000000000000000000000000000000000000000000000008152600401611bfb90614065565b60405180910390fd5b60005b81811015611c3f57611c2c336001611c1d610b77565b611c2791906143ee565b6125d3565b8080611c3790614626565b915050611c07565b5080601260003373ffffffffffffffffffffffffffffffffffffffff1673ffffffffffffffffffffffffffffffffffffffff1681526020019081526020016000206000828254611c8f91906143ee565b9250508190555050565b611cab611ca46121c1565b8383612a14565b5050565b611cc0611cba6121c1565b83612282565b611cff576040517f08c379a0000000000000000000000000000000000000000000000000000000008152600401611cf690614225565b60405180910390fd5b611d0b84848484612b81565b50505050565b611d196121c1565b73ffffffffffffffffffffffffffffffffffffffff16611d376116e7565b73ffffffffffffffffffffffffffffffffffffffff1614611d8d576040517f08c379a0000000000000000000000000000000000000000000000000000000008152600401611d84906141a5565b60405180910390fd5b80600a60146101000a81548160ff02191690831515021790555050565b6060611db582612155565b611df4576040517f08c379a0000000000000000000000000000000000000000000000000000000008152600401611deb90613f85565b60405180910390fd5b611dfd82611604565b9050919050565b601e81565b611e116121c1565b73ffffffffffffffffffffffffffffffffffffffff16611e2f6116e7565b73ffffffffffffffffffffffffffffffffffffffff1614611e85576040517f08c379a0000000000000000000000000000000000000000000000000000000008152600401611e7c906141a5565b60405180910390fd5b6000602060ff1611611ecc576040517f08c379a0000000000000000000000000000000000000000000000000000000008152600401611ec3906142e5565b60405180910390fd5b80600e8190555050565b6000600560008473ffffffffffffffffffffffffffffffffffffffff1673ffffffffffffffffffffffffffffffffffffffff16815260200190815260200160002060008373ffffffffffffffffffffffffffffffffffffffff1673ffffffffffffffffffffffffffffffffffffffff16815260200190815260200160002060009054906101000a900460ff16905092915050565b600e5481565b611f786121c1565b73ffffffffffffffffffffffffffffffffffffffff16611f966116e7565b73ffffffffffffffffffffffffffffffffffffffff1614611fec576040517f08c379a0000000000000000000000000000000000000000000000000000000008152600401611fe3906141a5565b60405180910390fd5b600073ffffffffffffffffffffffffffffffffffffffff168173ffffffffffffffffffffffffffffffffffffffff16141561205c576040517f08c379a000000000000000000000000000000000000000000000000000000000815260040161205390613fe5565b60405180910390fd5b612065816127a1565b50565b66470de4df82000081565b60007f80ac58cd000000000000000000000000000000000000000000000000000000007bffffffffffffffffffffffffffffffffffffffffffffffffffffffff1916827bffffffffffffffffffffffffffffffffffffffffffffffffffffffff1916148061213e57507f5b5e139f000000000000000000000000000000000000000000000000000000007bffffffffffffffffffffffffffffffffffffffffffffffffffffffff1916827bffffffffffffffffffffffffffffffffffffffffffffffffffffffff1916145b8061214e575061214d82612bdd565b5b9050919050565b60008073ffffffffffffffffffffffffffffffffffffffff166002600084815260200190815260200160002060009054906101000a900473ffffffffffffffffffffffffffffffffffffffff1673ffffffffffffffffffffffffffffffffffffffff1614159050919050565b600033905090565b816004600083815260200190815260200160002060006101000a81548173ffffffffffffffffffffffffffffffffffffffff021916908373ffffffffffffffffffffffffffffffffffffffff160217905550808273ffffffffffffffffffffffffffffffffffffffff1661223c8361130c565b73ffffffffffffffffffffffffffffffffffffffff167f8c5be1e5ebec7d5bd14f71427d1e84f3dd0314c0f7b2291e5b200ac8c7c3b92560405160405180910390a45050565b600061228d82612155565b6122cc576040517f08c379a00000000000000000000000000000000000000000000000000000000081526004016122c3906140e5565b60405180910390fd5b60006122d78361130c565b90508073ffffffffffffffffffffffffffffffffffffffff168473ffffffffffffffffffffffffffffffffffffffff16148061234657508373ffffffffffffffffffffffffffffffffffffffff1661232e846109da565b73ffffffffffffffffffffffffffffffffffffffff16145b8061235757506123568185611ed6565b5b91505092915050565b8273ffffffffffffffffffffffffffffffffffffffff166123808261130c565b73ffffffffffffffffffffffffffffffffffffffff16146123d6576040517f08c379a00000000000000000000000000000000000000000000000000000000081526004016123cd906141c5565b60405180910390fd5b600073ffffffffffffffffffffffffffffffffffffffff168273ffffffffffffffffffffffffffffffffffffffff161415612446576040517f08c379a000000000000000000000000000000000000000000000000000000000815260040161243d906140a5565b60405180910390fd5b612451838383612c47565b61245c6000826121c9565b6001600360008573ffffffffffffffffffffffffffffffffffffffff1673ffffffffffffffffffffffffffffffffffffffff16815260200190815260200160002060008282546124ac91906144cf565b925050819055506001600360008473ffffffffffffffffffffffffffffffffffffffff1673ffffffffffffffffffffffffffffffffffffffff168152602001908152602001600020600082825461250391906143ee565b92505081905550816002600083815260200190815260200160002060006101000a81548173ffffffffffffffffffffffffffffffffffffffff021916908373ffffffffffffffffffffffffffffffffffffffff160217905550808273ffffffffffffffffffffffffffffffffffffffff168473ffffffffffffffffffffffffffffffffffffffff167fddf252ad1be2c89b69c2b068fc378daa952ba7f163c4a11628f55a4df523b3ef60405160405180910390a4505050565b6000826125c98584612d5b565b1490509392505050565b600073ffffffffffffffffffffffffffffffffffffffff168273ffffffffffffffffffffffffffffffffffffffff161415612643576040517f08c379a000000000000000000000000000000000000000000000000000000000815260040161263a90614165565b60405180910390fd5b61264c81612155565b1561268c576040517f08c379a000000000000000000000000000000000000000000000000000000000815260040161268390614025565b60405180910390fd5b61269860008383612c47565b6001600360008473ffffffffffffffffffffffffffffffffffffffff1673ffffffffffffffffffffffffffffffffffffffff16815260200190815260200160002060008282546126e891906143ee565b92505081905550816002600083815260200190815260200160002060006101000a81548173ffffffffffffffffffffffffffffffffffffffff021916908373ffffffffffffffffffffffffffffffffffffffff160217905550808273ffffffffffffffffffffffffffffffffffffffff16600073ffffffffffffffffffffffffffffffffffffffff167fddf252ad1be2c89b69c2b068fc378daa952ba7f163c4a11628f55a4df523b3ef60405160405180910390a45050565b6000600a60009054906101000a900473ffffffffffffffffffffffffffffffffffffffff16905081600a60006101000a81548173ffffffffffffffffffffffffffffffffffffffff021916908373ffffffffffffffffffffffffffffffffffffffff1602179055508173ffffffffffffffffffffffffffffffffffffffff168173ffffffffffffffffffffffffffffffffffffffff167f8be0079c531659141344cd1fd0a4f28419497f9722a3daafe3b4186f6b6457e060405160405180910390a35050565b606060008214156128af576040518060400160405280600181526020017f30000000000000000000000000000000000000000000000000000000000000008152509050612a0f565b600082905060005b600082146128e15780806128ca90614626565b915050600a826128da9190614444565b91506128b7565b60008167ffffffffffffffff811115612923577f4e487b7100000000000000000000000000000000000000000000000000000000600052604160045260246000fd5b6040519080825280601f01601f1916602001820160405280156129555781602001600182028036833780820191505090505b5090505b60008514612a085760018261296e91906144cf565b9150600a8561297d91906146a7565b603061298991906143ee565b60f81b8183815181106129c5577f4e487b7100000000000000000000000000000000000000000000000000000000600052603260045260246000fd5b60200101907effffffffffffffffffffffffffffffffffffffffffffffffffffffffffffff1916908160001a905350600a85612a019190614444565b9450612959565b8093505050505b919050565b8173ffffffffffffffffffffffffffffffffffffffff168373ffffffffffffffffffffffffffffffffffffffff161415612a83576040517f08c379a0000000000000000000000000000000000000000000000000000000008152600401612a7a906140c5565b60405180910390fd5b80600560008573ffffffffffffffffffffffffffffffffffffffff1673ffffffffffffffffffffffffffffffffffffffff16815260200190815260200160002060008473ffffffffffffffffffffffffffffffffffffffff1673ffffffffffffffffffffffffffffffffffffffff16815260200190815260200160002060006101000a81548160ff0219169083151502179055508173ffffffffffffffffffffffffffffffffffffffff168373ffffffffffffffffffffffffffffffffffffffff167f17307eab39ab6107e8899845ad3d59bd9653f200f220920489ca2b5937696c3183604051612b749190613f2d565b60405180910390a3505050565b612b8c848484612360565b612b9884848484612e34565b612bd7576040517f08c379a0000000000000000000000000000000000000000000000000000000008152600401612bce90613fc5565b60405180910390fd5b50505050565b60007f01ffc9a7000000000000000000000000000000000000000000000000000000007bffffffffffffffffffffffffffffffffffffffffffffffffffffffff1916827bffffffffffffffffffffffffffffffffffffffffffffffffffffffff1916149050919050565b612c52838383612fcb565b600073ffffffffffffffffffffffffffffffffffffffff168373ffffffffffffffffffffffffffffffffffffffff161415612c9557612c9081612fd0565b612cd4565b8173ffffffffffffffffffffffffffffffffffffffff168373ffffffffffffffffffffffffffffffffffffffff1614612cd357612cd28382613019565b5b5b600073ffffffffffffffffffffffffffffffffffffffff168273ffffffffffffffffffffffffffffffffffffffff161415612d1757612d1281613186565b612d56565b8273ffffffffffffffffffffffffffffffffffffffff168273ffffffffffffffffffffffffffffffffffffffff1614612d5557612d5482826132c9565b5b5b505050565b60008082905060005b8451811015612e29576000858281518110612da8577f4e487b7100000000000000000000000000000000000000000000000000000000600052603260045260246000fd5b60200260200101519050808311612de9578281604051602001612dcc929190613e76565b604051602081830303815290604052805190602001209250612e15565b8083604051602001612dfc929190613e76565b6040516020818303038152906040528051906020012092505b508080612e2190614626565b915050612d64565b508091505092915050565b6000612e558473ffffffffffffffffffffffffffffffffffffffff16613348565b15612fbe578373ffffffffffffffffffffffffffffffffffffffff1663150b7a02612e7e6121c1565b8786866040518563ffffffff1660e01b8152600401612ea09493929190613ee1565b602060405180830381600087803b158015612eba57600080fd5b505af1925050508015612eeb57506040513d601f19601f82011682018060405250810190612ee891906137f2565b60015b612f6e573d8060008114612f1b576040519150601f19603f3d011682016040523d82523d6000602084013e612f20565b606091505b50600081511415612f66576040517f08c379a0000000000000000000000000000000000000000000000000000000008152600401612f5d90613fc5565b60405180910390fd5b805181602001fd5b63150b7a0260e01b7bffffffffffffffffffffffffffffffffffffffffffffffffffffffff1916817bffffffffffffffffffffffffffffffffffffffffffffffffffffffff191614915050612fc3565b600190505b949350505050565b505050565b6008805490506009600083815260200190815260200160002081905550600881908060018154018082558091505060019003906000526020600020016000909190919091505550565b60006001613026846114c4565b61303091906144cf565b9050600060076000848152602001908152602001600020549050818114613115576000600660008673ffffffffffffffffffffffffffffffffffffffff1673ffffffffffffffffffffffffffffffffffffffff168152602001908152602001600020600084815260200190815260200160002054905080600660008773ffffffffffffffffffffffffffffffffffffffff1673ffffffffffffffffffffffffffffffffffffffff168152602001908152602001600020600084815260200190815260200160002081905550816007600083815260200190815260200160002081905550505b6007600084815260200190815260200160002060009055600660008573ffffffffffffffffffffffffffffffffffffffff1673ffffffffffffffffffffffffffffffffffffffff16815260200190815260200160002060008381526020019081526020016000206000905550505050565b6000600160088054905061319a91906144cf565b90506000600960008481526020019081526020016000205490506000600883815481106131f0577f4e487b7100000000000000000000000000000000000000000000000000000000600052603260045260246000fd5b906000526020600020015490508060088381548110613238577f4e487b7100000000000000000000000000000000000000000000000000000000600052603260045260246000fd5b9060005260206000200181905550816009600083815260200190815260200160002081905550600960008581526020019081526020016000206000905560088054806132ad577f4e487b7100000000000000000000000000000000000000000000000000000000600052603160045260246000fd5b6001900381819060005260206000200160009055905550505050565b60006132d4836114c4565b905081600660008573ffffffffffffffffffffffffffffffffffffffff1673ffffffffffffffffffffffffffffffffffffffff168152602001908152602001600020600083815260200190815260200160002081905550806007600084815260200190815260200160002081905550505050565b600080823b905060008111915050919050565b828054613367906145c3565b90600052602060002090601f01602090048101928261338957600085556133d0565b82601f106133a257803560ff19168380011785556133d0565b828001600101855582156133d0579182015b828111156133cf5782358255916020019190600101906133b4565b5b5090506133dd91906133e1565b5090565b5b808211156133fa5760008160009055506001016133e2565b5090565b600061341161340c84614365565b614340565b90508281526020810184848401111561342957600080fd5b613434848285614581565b509392505050565b60008135905061344b81614e45565b92915050565b60008083601f84011261346357600080fd5b8235905067ffffffffffffffff81111561347c57600080fd5b60208301915083602082028301111561349457600080fd5b9250929050565b6000813590506134aa81614e5c565b92915050565b6000813590506134bf81614e73565b92915050565b6000813590506134d481614e8a565b92915050565b6000815190506134e981614e8a565b92915050565b600082601f83011261350057600080fd5b81356135108482602086016133fe565b91505092915050565b60008083601f84011261352b57600080fd5b8235905067ffffffffffffffff81111561354457600080fd5b60208301915083600182028301111561355c57600080fd5b9250929050565b60008135905061357281614ea1565b92915050565b60006020828403121561358a57600080fd5b60006135988482850161343c565b91505092915050565b600080604083850312156135b457600080fd5b60006135c28582860161343c565b92505060206135d38582860161343c565b9150509250929050565b6000806000606084860312156135f257600080fd5b60006136008682870161343c565b93505060206136118682870161343c565b925050604061362286828701613563565b9150509250925092565b6000806000806080858703121561364257600080fd5b60006136508782880161343c565b94505060206136618782880161343c565b935050604061367287828801613563565b925050606085013567ffffffffffffffff81111561368f57600080fd5b61369b878288016134ef565b91505092959194509250565b600080604083850312156136ba57600080fd5b60006136c88582860161343c565b92505060206136d98582860161349b565b9150509250929050565b600080604083850312156136f657600080fd5b60006137048582860161343c565b925050602061371585828601613563565b9150509250929050565b60006020828403121561373157600080fd5b600061373f8482850161349b565b91505092915050565b60008060006040848603121561375d57600080fd5b600061376b8682870161349b565b935050602084013567ffffffffffffffff81111561378857600080fd5b61379486828701613519565b92509250509250925092565b6000602082840312156137b257600080fd5b60006137c0848285016134b0565b91505092915050565b6000602082840312156137db57600080fd5b60006137e9848285016134c5565b91505092915050565b60006020828403121561380457600080fd5b6000613812848285016134da565b91505092915050565b60006020828403121561382d57600080fd5b600061383b84828501613563565b91505092915050565b6000806000806060858703121561385a57600080fd5b600061386887828801613563565b945050602085013567ffffffffffffffff81111561388557600080fd5b61389187828801613451565b935093505060406138a487828801613563565b91505092959194509250565b6138b981614503565b82525050565b6138d06138cb82614503565b61466f565b82525050565b6138df81614515565b82525050565b6138ee81614521565b82525050565b61390561390082614521565b614681565b82525050565b6000613916826143ab565b61392081856143c1565b9350613930818560208601614590565b61393981614794565b840191505092915050565b600061394f826143b6565b61395981856143d2565b9350613969818560208601614590565b61397281614794565b840191505092915050565b6000613988826143b6565b61399281856143e3565b93506139a2818560208601614590565b80840191505092915050565b600081546139bb816145c3565b6139c581866143e3565b945060018216600081146139e057600181146139f157613a24565b60ff19831686528186019350613a24565b6139fa85614396565b60005b83811015613a1c578154818901526001820191506020810190506139fd565b838801955050505b50505092915050565b6000613a3a601f836143d2565b9150613a45826147b2565b602082019050919050565b6000613a5d602b836143d2565b9150613a68826147db565b604082019050919050565b6000613a806032836143d2565b9150613a8b8261482a565b604082019050919050565b6000613aa36026836143d2565b9150613aae82614879565b604082019050919050565b6000613ac66010836143d2565b9150613ad1826148c8565b602082019050919050565b6000613ae9601c836143d2565b9150613af4826148f1565b602082019050919050565b6000613b0c6016836143d2565b9150613b178261491a565b602082019050919050565b6000613b2f6018836143d2565b9150613b3a82614943565b602082019050919050565b6000613b526018836143d2565b9150613b5d8261496c565b602082019050919050565b6000613b756024836143d2565b9150613b8082614995565b604082019050919050565b6000613b986019836143d2565b9150613ba3826149e4565b602082019050919050565b6000613bbb602c836143d2565b9150613bc682614a0d565b604082019050919050565b6000613bde6038836143d2565b9150613be982614a5c565b604082019050919050565b6000613c01602a836143d2565b9150613c0c82614aab565b604082019050919050565b6000613c246029836143d2565b9150613c2f82614afa565b604082019050919050565b6000613c476020836143d2565b9150613c5282614b49565b602082019050919050565b6000613c6a602c836143d2565b9150613c7582614b72565b604082019050919050565b6000613c8d6020836143d2565b9150613c9882614bc1565b602082019050919050565b6000613cb06029836143d2565b9150613cbb82614bea565b604082019050919050565b6000613cd36015836143d2565b9150613cde82614c39565b602082019050919050565b6000613cf66021836143d2565b9150613d0182614c62565b604082019050919050565b6000613d196031836143d2565b9150613d2482614cb1565b604082019050919050565b6000613d3c602c836143d2565b9150613d4782614d00565b604082019050919050565b6000613d5f600f836143d2565b9150613d6a82614d4f565b602082019050919050565b6000613d826019836143d2565b9150613d8d82614d78565b602082019050919050565b6000613da56012836143d2565b9150613db082614da1565b602082019050919050565b6000613dc86015836143d2565b9150613dd382614dca565b602082019050919050565b6000613deb600e836143d2565b9150613df682614df3565b602082019050919050565b6000613e0e6016836143d2565b9150613e1982614e1c565b602082019050919050565b613e2d81614577565b82525050565b613e44613e3f82614577565b61469d565b82525050565b6000613e5682856138bf565b601482019150613e668284613e33565b6020820191508190509392505050565b6000613e8282856138f4565b602082019150613e9282846138f4565b6020820191508190509392505050565b6000613eae82856139ae565b9150613eba828461397d565b91508190509392505050565b6000602082019050613edb60008301846138b0565b92915050565b6000608082019050613ef660008301876138b0565b613f0360208301866138b0565b613f106040830185613e24565b8181036060830152613f22818461390b565b905095945050505050565b6000602082019050613f4260008301846138d6565b92915050565b6000602082019050613f5d60008301846138e5565b92915050565b60006020820190508181036000830152613f7d8184613944565b905092915050565b60006020820190508181036000830152613f9e81613a2d565b9050919050565b60006020820190508181036000830152613fbe81613a50565b9050919050565b60006020820190508181036000830152613fde81613a73565b9050919050565b60006020820190508181036000830152613ffe81613a96565b9050919050565b6000602082019050818103600083015261401e81613ab9565b9050919050565b6000602082019050818103600083015261403e81613adc565b9050919050565b6000602082019050818103600083015261405e81613aff565b9050919050565b6000602082019050818103600083015261407e81613b22565b9050919050565b6000602082019050818103600083015261409e81613b45565b9050919050565b600060208201905081810360008301526140be81613b68565b9050919050565b600060208201905081810360008301526140de81613b8b565b9050919050565b600060208201905081810360008301526140fe81613bae565b9050919050565b6000602082019050818103600083015261411e81613bd1565b9050919050565b6000602082019050818103600083015261413e81613bf4565b9050919050565b6000602082019050818103600083015261415e81613c17565b9050919050565b6000602082019050818103600083015261417e81613c3a565b9050919050565b6000602082019050818103600083015261419e81613c5d565b9050919050565b600060208201905081810360008301526141be81613c80565b9050919050565b600060208201905081810360008301526141de81613ca3565b9050919050565b600060208201905081810360008301526141fe81613cc6565b9050919050565b6000602082019050818103600083015261421e81613ce9565b9050919050565b6000602082019050818103600083015261423e81613d0c565b9050919050565b6000602082019050818103600083015261425e81613d2f565b9050919050565b6000602082019050818103600083015261427e81613d52565b9050919050565b6000602082019050818103600083015261429e81613d75565b9050919050565b600060208201905081810360008301526142be81613d98565b9050919050565b600060208201905081810360008301526142de81613dbb565b9050919050565b600060208201905081810360008301526142fe81613dde565b9050919050565b6000602082019050818103600083015261431e81613e01565b9050919050565b600060208201905061433a6000830184613e24565b92915050565b600061434a61435b565b905061435682826145f5565b919050565b6000604051905090565b600067ffffffffffffffff8211156143805761437f614765565b5b61438982614794565b9050602081019050919050565b60008190508160005260206000209050919050565b600081519050919050565b600081519050919050565b600082825260208201905092915050565b600082825260208201905092915050565b600081905092915050565b60006143f982614577565b915061440483614577565b9250827fffffffffffffffffffffffffffffffffffffffffffffffffffffffffffffffff03821115614439576144386146d8565b5b828201905092915050565b600061444f82614577565b915061445a83614577565b92508261446a57614469614707565b5b828204905092915050565b600061448082614577565b915061448b83614577565b9250817fffffffffffffffffffffffffffffffffffffffffffffffffffffffffffffffff04831182151516156144c4576144c36146d8565b5b828202905092915050565b60006144da82614577565b91506144e583614577565b9250828210156144f8576144f76146d8565b5b828203905092915050565b600061450e82614557565b9050919050565b60008115159050919050565b6000819050919050565b60007fffffffff0000000000000000000000000000000000000000000000000000000082169050919050565b600073ffffffffffffffffffffffffffffffffffffffff82169050919050565b6000819050919050565b82818337600083830152505050565b60005b838110156145ae578082015181840152602081019050614593565b838111156145bd576000848401525b50505050565b600060028204905060018216806145db57607f821691505b602082108114156145ef576145ee614736565b5b50919050565b6145fe82614794565b810181811067ffffffffffffffff8211171561461d5761461c614765565b5b80604052505050565b600061463182614577565b91507fffffffffffffffffffffffffffffffffffffffffffffffffffffffffffffffff821415614664576146636146d8565b5b600182019050919050565b600061467a8261468b565b9050919050565b6000819050919050565b6000614696826147a5565b9050919050565b6000819050919050565b60006146b282614577565b91506146bd83614577565b9250826146cd576146cc614707565b5b828206905092915050565b7f4e487b7100000000000000000000000000000000000000000000000000000000600052601160045260246000fd5b7f4e487b7100000000000000000000000000000000000000000000000000000000600052601260045260246000fd5b7f4e487b7100000000000000000000000000000000000000000000000000000000600052602260045260246000fd5b7f4e487b7100000000000000000000000000000000000000000000000000000000600052604160045260246000fd5b6000601f19601f8301169050919050565b60008160601b9050919050565b7f55524920717565727920666f72206e6f6e6578697374656e7420746f6b656e00600082015250565b7f455243373231456e756d657261626c653a206f776e657220696e646578206f7560008201527f74206f6620626f756e6473000000000000000000000000000000000000000000602082015250565b7f4552433732313a207472616e7366657220746f206e6f6e20455243373231526560008201527f63656976657220696d706c656d656e7465720000000000000000000000000000602082015250565b7f4f776e61626c653a206e6577206f776e657220697320746865207a65726f206160008201527f6464726573730000000000000000000000000000000000000000000000000000602082015250565b7f4e4f54204f4e2057484954454c49535400000000000000000000000000000000600082015250565b7f4552433732313a20746f6b656e20616c7265616479206d696e74656400000000600082015250565b7f50524553414c45204f4e4c59205249474854204e4f5700000000000000000000600082015250565b7f494e434f5252454354205041594d454e5420414d4f554e540000000000000000600082015250565b7f4e4f5420454e4f554748204c45465420494e2053544f434b0000000000000000600082015250565b7f4552433732313a207472616e7366657220746f20746865207a65726f2061646460008201527f7265737300000000000000000000000000000000000000000000000000000000602082015250565b7f4552433732313a20617070726f766520746f2063616c6c657200000000000000600082015250565b7f4552433732313a206f70657261746f7220717565727920666f72206e6f6e657860008201527f697374656e7420746f6b656e0000000000000000000000000000000000000000602082015250565b7f4552433732313a20617070726f76652063616c6c6572206973206e6f74206f7760008201527f6e6572206e6f7220617070726f76656420666f7220616c6c0000000000000000602082015250565b7f4552433732313a2062616c616e636520717565727920666f7220746865207a6560008201527f726f206164647265737300000000000000000000000000000000000000000000602082015250565b7f4552433732313a206f776e657220717565727920666f72206e6f6e657869737460008201527f656e7420746f6b656e0000000000000000000000000000000000000000000000602082015250565b7f4552433732313a206d696e7420746f20746865207a65726f2061646472657373600082015250565b7f4552433732313a20617070726f76656420717565727920666f72206e6f6e657860008201527f697374656e7420746f6b656e0000000000000000000000000000000000000000602082015250565b7f4f776e61626c653a2063616c6c6572206973206e6f7420746865206f776e6572600082015250565b7f4552433732313a207472616e73666572206f6620746f6b656e2074686174206960008201527f73206e6f74206f776e0000000000000000000000000000000000000000000000602082015250565b7f53414c4520414354495645205249474854204e4f570000000000000000000000600082015250565b7f4552433732313a20617070726f76616c20746f2063757272656e74206f776e6560008201527f7200000000000000000000000000000000000000000000000000000000000000602082015250565b7f4552433732313a207472616e736665722063616c6c6572206973206e6f74206f60008201527f776e6572206e6f7220617070726f766564000000000000000000000000000000602082015250565b7f455243373231456e756d657261626c653a20676c6f62616c20696e646578206f60008201527f7574206f6620626f756e64730000000000000000000000000000000000000000602082015250565b7f53414c45204e4f54204143544956450000000000000000000000000000000000600082015250565b7f4d494e54494e47204d4f5245205448414e20414c4c4f57454400000000000000600082015250565b7f50524553414c45204e4f54204143544956450000000000000000000000000000600082015250565b7f46726565206d696e74206e6f7420616c6c6f7765640000000000000000000000600082015250565b7f5f726f6f7420697320656d707479000000000000000000000000000000000000600082015250565b7f5f746f6b656e4261736555524920697320656d70747900000000000000000000600082015250565b614e4e81614503565b8114614e5957600080fd5b50565b614e6581614515565b8114614e7057600080fd5b50565b614e7c81614521565b8114614e8757600080fd5b50565b614e938161452b565b8114614e9e57600080fd5b50565b614eaa81614577565b8114614eb557600080fd5b5056fea2646970667358221220447f796e89373ba55f718bd9f23bd7c762814e12ca6ec59b1c69f518b677094564736f6c63430008040033",
  "linkReferences": {},
  "deployedLinkReferences": {}
}