{
  "_format": "hh-sol-artifact-1",
  "contractName": "PMV",
  "sourceName": "contracts/PMV.sol",
  "abi": [
    {
      "inputs": [
        {
          "internalType": "bytes32",
          "name": "merkleroot",
          "type": "bytes32"
        },
        {
          "internalType": "string",
          "name": "uri",
          "type": "string"
        },
        {
          "internalType": "bytes32",
          "name": "_rootMintFree",
          "type": "bytes32"
        },
        {
          "internalType": "bytes32",
          "name": "_provenanceHash",
          "type": "bytes32"
        },
        {
          "internalType": "address",
          "name": "vrfCoordinator",
          "type": "address"
        },
        {
          "internalType": "address",
          "name": "link",
          "type": "address"
        },
        {
          "internalType": "bytes32",
          "name": "keyhash",
          "type": "bytes32"
        },
        {
          "internalType": "uint256",
          "name": "fee",
          "type": "uint256"
        }
      ],
      "stateMutability": "nonpayable",
      "type": "constructor"
    },
    {
      "anonymous": false,
      "inputs": [
        {
          "indexed": true,
          "internalType": "address",
          "name": "owner",
          "type": "address"
        },
        {
          "indexed": true,
          "internalType": "address",
          "name": "approved",
          "type": "address"
        },
        {
          "indexed": true,
          "internalType": "uint256",
          "name": "tokenId",
          "type": "uint256"
        }
      ],
      "name": "Approval",
      "type": "event"
    },
    {
      "anonymous": false,
      "inputs": [
        {
          "indexed": true,
          "internalType": "address",
          "name": "owner",
          "type": "address"
        },
        {
          "indexed": true,
          "internalType": "address",
          "name": "operator",
          "type": "address"
        },
        {
          "indexed": false,
          "internalType": "bool",
          "name": "approved",
          "type": "bool"
        }
      ],
      "name": "ApprovalForAll",
      "type": "event"
    },
    {
      "anonymous": false,
      "inputs": [
        {
          "indexed": true,
          "internalType": "address",
          "name": "previousOwner",
          "type": "address"
        },
        {
          "indexed": true,
          "internalType": "address",
          "name": "newOwner",
          "type": "address"
        }
      ],
      "name": "OwnershipTransferred",
      "type": "event"
    },
    {
      "anonymous": false,
      "inputs": [
        {
          "indexed": true,
          "internalType": "address",
          "name": "from",
          "type": "address"
        },
        {
          "indexed": true,
          "internalType": "address",
          "name": "to",
          "type": "address"
        },
        {
          "indexed": true,
          "internalType": "uint256",
          "name": "tokenId",
          "type": "uint256"
        }
      ],
      "name": "Transfer",
      "type": "event"
    },
    {
      "inputs": [
        {
          "internalType": "uint256",
          "name": "tokenId",
          "type": "uint256"
        }
      ],
      "name": "_tokenURI",
      "outputs": [
        {
          "internalType": "string",
          "name": "",
          "type": "string"
        }
      ],
      "stateMutability": "view",
      "type": "function"
    },
    {
      "inputs": [
        {
          "internalType": "address",
          "name": "to",
          "type": "address"
        },
        {
          "internalType": "uint256",
          "name": "tokenId",
          "type": "uint256"
        }
      ],
      "name": "approve",
      "outputs": [],
      "stateMutability": "nonpayable",
      "type": "function"
    },
    {
      "inputs": [
        {
          "internalType": "address",
          "name": "owner",
          "type": "address"
        }
      ],
      "name": "balanceOf",
      "outputs": [
        {
          "internalType": "uint256",
          "name": "",
          "type": "uint256"
        }
      ],
      "stateMutability": "view",
      "type": "function"
    },
    {
      "inputs": [],
      "name": "freeMintAllowed",
      "outputs": [
        {
          "internalType": "bool",
          "name": "",
          "type": "bool"
        }
      ],
      "stateMutability": "view",
      "type": "function"
    },
    {
      "inputs": [],
      "name": "generateRandomOffset",
      "outputs": [
        {
          "internalType": "bytes32",
          "name": "requestId",
          "type": "bytes32"
        }
      ],
      "stateMutability": "nonpayable",
      "type": "function"
    },
    {
      "inputs": [
        {
          "internalType": "uint256",
          "name": "tokenId",
          "type": "uint256"
        }
      ],
      "name": "getApproved",
      "outputs": [
        {
          "internalType": "address",
          "name": "",
          "type": "address"
        }
      ],
      "stateMutability": "view",
      "type": "function"
    },
    {
      "inputs": [
        {
          "internalType": "address",
          "name": "owner",
          "type": "address"
        },
        {
          "internalType": "address",
          "name": "operator",
          "type": "address"
        }
      ],
      "name": "isApprovedForAll",
      "outputs": [
        {
          "internalType": "bool",
          "name": "",
          "type": "bool"
        }
      ],
      "stateMutability": "view",
      "type": "function"
    },
    {
      "inputs": [],
      "name": "maxPerTransaction",
      "outputs": [
        {
          "internalType": "uint256",
          "name": "",
          "type": "uint256"
        }
      ],
      "stateMutability": "view",
      "type": "function"
    },
    {
      "inputs": [],
      "name": "maxSupply",
      "outputs": [
        {
          "internalType": "uint256",
          "name": "",
          "type": "uint256"
        }
      ],
      "stateMutability": "view",
      "type": "function"
    },
    {
      "inputs": [
        {
          "internalType": "uint256",
          "name": "tokenQuantity",
          "type": "uint256"
        }
      ],
      "name": "mint",
      "outputs": [],
      "stateMutability": "payable",
      "type": "function"
    },
    {
      "inputs": [
        {
          "internalType": "uint256",
          "name": "allowance",
          "type": "uint256"
        },
        {
          "internalType": "bytes32[]",
          "name": "proof",
          "type": "bytes32[]"
        },
        {
          "internalType": "uint256",
          "name": "tokenQuantity",
          "type": "uint256"
        }
      ],
      "name": "mintFree",
      "outputs": [],
      "stateMutability": "nonpayable",
      "type": "function"
    },
    {
      "inputs": [
        {
          "internalType": "uint256",
          "name": "allowance",
          "type": "uint256"
        },
        {
          "internalType": "bytes32[]",
          "name": "proof",
          "type": "bytes32[]"
        },
        {
          "internalType": "uint256",
          "name": "tokenQuantity",
          "type": "uint256"
        }
      ],
      "name": "mintPresale",
      "outputs": [],
      "stateMutability": "payable",
      "type": "function"
    },
    {
      "inputs": [],
      "name": "name",
      "outputs": [
        {
          "internalType": "string",
          "name": "",
          "type": "string"
        }
      ],
      "stateMutability": "view",
      "type": "function"
    },
    {
      "inputs": [],
      "name": "offset",
      "outputs": [
        {
          "internalType": "uint256",
          "name": "",
          "type": "uint256"
        }
      ],
      "stateMutability": "view",
      "type": "function"
    },
    {
      "inputs": [],
      "name": "offsetRequested",
      "outputs": [
        {
          "internalType": "bool",
          "name": "",
          "type": "bool"
        }
      ],
      "stateMutability": "view",
      "type": "function"
    },
    {
      "inputs": [],
      "name": "owner",
      "outputs": [
        {
          "internalType": "address",
          "name": "",
          "type": "address"
        }
      ],
      "stateMutability": "view",
      "type": "function"
    },
    {
      "inputs": [
        {
          "internalType": "uint256",
          "name": "tokenId",
          "type": "uint256"
        }
      ],
      "name": "ownerOf",
      "outputs": [
        {
          "internalType": "address",
          "name": "",
          "type": "address"
        }
      ],
      "stateMutability": "view",
      "type": "function"
    },
    {
      "inputs": [],
      "name": "presaleActive",
      "outputs": [
        {
          "internalType": "bool",
          "name": "",
          "type": "bool"
        }
      ],
      "stateMutability": "view",
      "type": "function"
    },
    {
      "inputs": [],
      "name": "presalePrice",
      "outputs": [
        {
          "internalType": "uint256",
          "name": "",
          "type": "uint256"
        }
      ],
      "stateMutability": "view",
      "type": "function"
    },
    {
      "inputs": [],
      "name": "provenanceHash",
      "outputs": [
        {
          "internalType": "bytes32",
          "name": "",
          "type": "bytes32"
        }
      ],
      "stateMutability": "view",
      "type": "function"
    },
    {
      "inputs": [
        {
          "internalType": "bytes32",
          "name": "requestId",
          "type": "bytes32"
        },
        {
          "internalType": "uint256",
          "name": "randomness",
          "type": "uint256"
        }
      ],
      "name": "rawFulfillRandomness",
      "outputs": [],
      "stateMutability": "nonpayable",
      "type": "function"
    },
    {
      "inputs": [],
      "name": "renounceOwnership",
      "outputs": [],
      "stateMutability": "nonpayable",
      "type": "function"
    },
    {
      "inputs": [],
      "name": "root",
      "outputs": [
        {
          "internalType": "bytes32",
          "name": "",
          "type": "bytes32"
        }
      ],
      "stateMutability": "view",
      "type": "function"
    },
    {
      "inputs": [],
      "name": "rootMintFree",
      "outputs": [
        {
          "internalType": "bytes32",
          "name": "",
          "type": "bytes32"
        }
      ],
      "stateMutability": "view",
      "type": "function"
    },
    {
      "inputs": [
        {
          "internalType": "address",
          "name": "from",
          "type": "address"
        },
        {
          "internalType": "address",
          "name": "to",
          "type": "address"
        },
        {
          "internalType": "uint256",
          "name": "tokenId",
          "type": "uint256"
        }
      ],
      "name": "safeTransferFrom",
      "outputs": [],
      "stateMutability": "nonpayable",
      "type": "function"
    },
    {
      "inputs": [
        {
          "internalType": "address",
          "name": "from",
          "type": "address"
        },
        {
          "internalType": "address",
          "name": "to",
          "type": "address"
        },
        {
          "internalType": "uint256",
          "name": "tokenId",
          "type": "uint256"
        },
        {
          "internalType": "bytes",
          "name": "_data",
          "type": "bytes"
        }
      ],
      "name": "safeTransferFrom",
      "outputs": [],
      "stateMutability": "nonpayable",
      "type": "function"
    },
    {
      "inputs": [],
      "name": "saleActive",
      "outputs": [
        {
          "internalType": "bool",
          "name": "",
          "type": "bool"
        }
      ],
      "stateMutability": "view",
      "type": "function"
    },
    {
      "inputs": [],
      "name": "salePrice",
      "outputs": [
        {
          "internalType": "uint256",
          "name": "",
          "type": "uint256"
        }
      ],
      "stateMutability": "view",
      "type": "function"
    },
    {
      "inputs": [
        {
          "internalType": "address",
          "name": "operator",
          "type": "address"
        },
        {
          "internalType": "bool",
          "name": "approved",
          "type": "bool"
        }
      ],
      "name": "setApprovalForAll",
      "outputs": [],
      "stateMutability": "nonpayable",
      "type": "function"
    },
    {
      "inputs": [
        {
          "internalType": "bool",
          "name": "_freeMintAllowed",
          "type": "bool"
        }
      ],
      "name": "setFreeMintAllowed",
      "outputs": [],
      "stateMutability": "nonpayable",
      "type": "function"
    },
    {
      "inputs": [
        {
          "internalType": "uint256",
          "name": "_maxPerTransaction",
          "type": "uint256"
        }
      ],
      "name": "setMaxPerTransaction",
      "outputs": [],
      "stateMutability": "nonpayable",
      "type": "function"
    },
    {
      "inputs": [
        {
          "internalType": "bool",
          "name": "_presaleStatus",
          "type": "bool"
        }
      ],
      "name": "setPresale",
      "outputs": [],
      "stateMutability": "nonpayable",
      "type": "function"
    },
    {
      "inputs": [
        {
          "internalType": "uint256",
          "name": "_presalePrice",
          "type": "uint256"
        }
      ],
      "name": "setPresalePrice",
      "outputs": [],
      "stateMutability": "nonpayable",
      "type": "function"
    },
    {
      "inputs": [
        {
          "internalType": "uint256",
          "name": "_salePrice",
          "type": "uint256"
        }
      ],
      "name": "setPrice",
      "outputs": [],
      "stateMutability": "nonpayable",
      "type": "function"
    },
    {
      "inputs": [
        {
          "internalType": "bytes32",
          "name": "_root",
          "type": "bytes32"
        }
      ],
      "name": "setRoot",
      "outputs": [],
      "stateMutability": "nonpayable",
      "type": "function"
    },
    {
      "inputs": [
        {
          "internalType": "bytes32",
          "name": "_root",
          "type": "bytes32"
        }
      ],
      "name": "setRootMintFree",
      "outputs": [],
      "stateMutability": "nonpayable",
      "type": "function"
    },
    {
      "inputs": [
        {
          "internalType": "bool",
          "name": "_saleStatus",
          "type": "bool"
        }
      ],
      "name": "setSale",
      "outputs": [],
      "stateMutability": "nonpayable",
      "type": "function"
    },
    {
      "inputs": [
        {
          "internalType": "bool",
          "name": "_revealed",
          "type": "bool"
        },
        {
          "internalType": "string",
          "name": "_tokenBaseURI",
          "type": "string"
        }
      ],
      "name": "setURIStatus",
      "outputs": [],
      "stateMutability": "nonpayable",
      "type": "function"
    },
    {
      "inputs": [
        {
          "internalType": "bytes4",
          "name": "interfaceId",
          "type": "bytes4"
        }
      ],
      "name": "supportsInterface",
      "outputs": [
        {
          "internalType": "bool",
          "name": "",
          "type": "bool"
        }
      ],
      "stateMutability": "view",
      "type": "function"
    },
    {
      "inputs": [],
      "name": "symbol",
      "outputs": [
        {
          "internalType": "string",
          "name": "",
          "type": "string"
        }
      ],
      "stateMutability": "view",
      "type": "function"
    },
    {
      "inputs": [
        {
          "internalType": "uint256",
          "name": "index",
          "type": "uint256"
        }
      ],
      "name": "tokenByIndex",
      "outputs": [
        {
          "internalType": "uint256",
          "name": "",
          "type": "uint256"
        }
      ],
      "stateMutability": "view",
      "type": "function"
    },
    {
      "inputs": [
        {
          "internalType": "address",
          "name": "owner",
          "type": "address"
        },
        {
          "internalType": "uint256",
          "name": "index",
          "type": "uint256"
        }
      ],
      "name": "tokenOfOwnerByIndex",
      "outputs": [
        {
          "internalType": "uint256",
          "name": "",
          "type": "uint256"
        }
      ],
      "stateMutability": "view",
      "type": "function"
    },
    {
      "inputs": [
        {
          "internalType": "uint256",
          "name": "tokenId",
          "type": "uint256"
        }
      ],
      "name": "tokenURI",
      "outputs": [
        {
          "internalType": "string",
          "name": "",
          "type": "string"
        }
      ],
      "stateMutability": "view",
      "type": "function"
    },
    {
      "inputs": [],
      "name": "totalSupply",
      "outputs": [
        {
          "internalType": "uint256",
          "name": "",
          "type": "uint256"
        }
      ],
      "stateMutability": "view",
      "type": "function"
    },
    {
      "inputs": [
        {
          "internalType": "address",
          "name": "from",
          "type": "address"
        },
        {
          "internalType": "address",
          "name": "to",
          "type": "address"
        },
        {
          "internalType": "uint256",
          "name": "tokenId",
          "type": "uint256"
        }
      ],
      "name": "transferFrom",
      "outputs": [],
      "stateMutability": "nonpayable",
      "type": "function"
    },
    {
      "inputs": [
        {
          "internalType": "address",
          "name": "newOwner",
          "type": "address"
        }
      ],
      "name": "transferOwnership",
      "outputs": [],
      "stateMutability": "nonpayable",
      "type": "function"
    },
    {
      "inputs": [],
      "name": "withdraw",
      "outputs": [],
      "stateMutability": "nonpayable",
      "type": "function"
    }
  ],
  "bytecode": "0x60c0604052600a600b5567016345785d8a0000600c556701118f178fb48000600d556000600e60006101000a81548160ff0219169083151502179055506000600e60016101000a81548160ff0219169083151502179055506000600e60026101000a81548160ff0219169083151502179055506000601160006101000a81548160ff0219169083151502179055506000601660006101000a81548160ff021916908315150217905550348015620000b557600080fd5b50604051620062fd380380620062fd8339818101604052810190620000db91906200048c565b83836040518060400160405280600381526020017f504d5600000000000000000000000000000000000000000000000000000000008152506040518060400160405280600681526020017f504d56544b4e000000000000000000000000000000000000000000000000000081525081600090805190602001906200016192919062000325565b5080600190805190602001906200017a92919062000325565b5050506200019d620001916200025760201b60201c565b6200025f60201b60201c565b8173ffffffffffffffffffffffffffffffffffffffff1660a08173ffffffffffffffffffffffffffffffffffffffff1660601b815250508073ffffffffffffffffffffffffffffffffffffffff1660808173ffffffffffffffffffffffffffffffffffffffff1660601b8152505050508760128190555086601090805190602001906200022c92919062000325565b50856013819055508460148190555081601b8190555080601c8190555050505050505050506200076e565b600033905090565b6000600a60009054906101000a900473ffffffffffffffffffffffffffffffffffffffff16905081600a60006101000a81548173ffffffffffffffffffffffffffffffffffffffff021916908373ffffffffffffffffffffffffffffffffffffffff1602179055508173ffffffffffffffffffffffffffffffffffffffff168173ffffffffffffffffffffffffffffffffffffffff167f8be0079c531659141344cd1fd0a4f28419497f9722a3daafe3b4186f6b6457e060405160405180910390a35050565b828054620003339062000645565b90600052602060002090601f016020900481019282620003575760008555620003a3565b82601f106200037257805160ff1916838001178555620003a3565b82800160010185558215620003a3579182015b82811115620003a257825182559160200191906001019062000385565b5b509050620003b29190620003b6565b5090565b5b80821115620003d1576000816000905550600101620003b7565b5090565b6000620003ec620003e68462000591565b62000568565b9050828152602081018484840111156200040557600080fd5b620004128482856200060f565b509392505050565b6000815190506200042b8162000720565b92915050565b60008151905062000442816200073a565b92915050565b600082601f8301126200045a57600080fd5b81516200046c848260208601620003d5565b91505092915050565b600081519050620004868162000754565b92915050565b600080600080600080600080610100898b031215620004aa57600080fd5b6000620004ba8b828c0162000431565b985050602089015167ffffffffffffffff811115620004d857600080fd5b620004e68b828c0162000448565b9750506040620004f98b828c0162000431565b96505060606200050c8b828c0162000431565b95505060806200051f8b828c016200041a565b94505060a0620005328b828c016200041a565b93505060c0620005458b828c0162000431565b92505060e0620005588b828c0162000475565b9150509295985092959890939650565b60006200057462000587565b90506200058282826200067b565b919050565b6000604051905090565b600067ffffffffffffffff821115620005af57620005ae620006e0565b5b620005ba826200070f565b9050602081019050919050565b6000620005d482620005e5565b9050919050565b6000819050919050565b600073ffffffffffffffffffffffffffffffffffffffff82169050919050565b6000819050919050565b60005b838110156200062f57808201518184015260208101905062000612565b838111156200063f576000848401525b50505050565b600060028204905060018216806200065e57607f821691505b60208210811415620006755762000674620006b1565b5b50919050565b62000686826200070f565b810181811067ffffffffffffffff82111715620006a857620006a7620006e0565b5b80604052505050565b7f4e487b7100000000000000000000000000000000000000000000000000000000600052602260045260246000fd5b7f4e487b7100000000000000000000000000000000000000000000000000000000600052604160045260246000fd5b6000601f19601f8301169050919050565b6200072b81620005c7565b81146200073757600080fd5b50565b6200074581620005db565b81146200075157600080fd5b50565b6200075f8162000605565b81146200076b57600080fd5b50565b60805160601c60a05160601c615b55620007a860003960008181611cf3015261324f0152600081816121dd01526132130152615b556000f3fe6080604052600436106102875760003560e01c80636f8d93051161015a578063c54e73e3116100c1578063d5abeb011161007a578063d5abeb011461099b578063dab5f340146109c6578063e985e9c5146109ef578063ebf0c71714610a2c578063f2fde38b14610a57578063f51f96dd14610a8057610287565b8063c54e73e31461088b578063c6ab67a3146108b4578063c87b56dd146108df578063cc7a856c1461091c578063ccfdd2f814610947578063d55565441461097057610287565b806392c46da31161011357806392c46da3146107a057806394985ddd146107c957806395d89b41146107f2578063a0712d681461081d578063a22cb46514610839578063b88d4fde1461086257610287565b80636f8d93051461069257806370a08231146106bb578063715018a6146106f85780638d17e7121461070f5780638da5cb5b1461074c57806391b7f5ed1461077757610287565b80632f745c59116101fe5780634f6ccce7116101b75780634f6ccce71461056c57806353135ca0146105a95780635fc9c0e6146105d45780636352211e146105ff57806367753a151461063c57806368428a1b1461066757610287565b80632f745c591461047f5780633549345e146104bc5780633c14a2de146104e55780633ccfd60b1461050157806342842e0e146105185780634b980d671461054157610287565b806318160ddd1161025057806318160ddd146103855780631d2e5a3a146103b05780631fbb4e27146103d957806323b872dd1461040257806329770e041461042b5780632a613fa71461045457610287565b80620e7fa81461028c57806301ffc9a7146102b757806306fdde03146102f4578063081812fc1461031f578063095ea7b31461035c575b600080fd5b34801561029857600080fd5b506102a1610aab565b6040516102ae9190614e4a565b60405180910390f35b3480156102c357600080fd5b506102de60048036038101906102d9919061405b565b610ab1565b6040516102eb9190614924565b60405180910390f35b34801561030057600080fd5b50610309610b2b565b60405161031691906149c8565b60405180910390f35b34801561032b57600080fd5b50610346600480360381019061034191906140ad565b610bbd565b604051610353919061487f565b60405180910390f35b34801561036857600080fd5b50610383600480360381019061037e9190613f10565b610c42565b005b34801561039157600080fd5b5061039a610d5a565b6040516103a79190614e4a565b60405180910390f35b3480156103bc57600080fd5b506103d760048036038101906103d29190613f4c565b610d67565b005b3480156103e557600080fd5b5061040060048036038101906103fb9190613ff6565b610e00565b005b34801561040e57600080fd5b5061042960048036038101906104249190613e0a565b610ecd565b005b34801561043757600080fd5b50610452600480360381019061044d9190613f4c565b610f2d565b005b34801561046057600080fd5b50610469610fc6565b6040516104769190614924565b60405180910390f35b34801561048b57600080fd5b506104a660048036038101906104a19190613f10565b610fd9565b6040516104b39190614e4a565b60405180910390f35b3480156104c857600080fd5b506104e360048036038101906104de91906140ad565b61107e565b005b6104ff60048036038101906104fa91906140ff565b611104565b005b34801561050d57600080fd5b5061051661142e565b005b34801561052457600080fd5b5061053f600480360381019061053a9190613e0a565b6114f3565b005b34801561054d57600080fd5b50610556611513565b6040516105639190614e4a565b60405180910390f35b34801561057857600080fd5b50610593600480360381019061058e91906140ad565b611519565b6040516105a09190614e4a565b60405180910390f35b3480156105b557600080fd5b506105be6115b0565b6040516105cb9190614924565b60405180910390f35b3480156105e057600080fd5b506105e96115c3565b6040516105f6919061493f565b60405180910390f35b34801561060b57600080fd5b50610626600480360381019061062191906140ad565b6115c9565b604051610633919061487f565b60405180910390f35b34801561064857600080fd5b5061065161167b565b60405161065e9190614924565b60405180910390f35b34801561067357600080fd5b5061067c61168e565b6040516106899190614924565b60405180910390f35b34801561069e57600080fd5b506106b960048036038101906106b49190613f9e565b6116a1565b005b3480156106c757600080fd5b506106e260048036038101906106dd9190613da5565b611794565b6040516106ef9190614e4a565b60405180910390f35b34801561070457600080fd5b5061070d61184c565b005b34801561071b57600080fd5b50610736600480360381019061073191906140ad565b6118d4565b60405161074391906149c8565b60405180910390f35b34801561075857600080fd5b506107616119b7565b60405161076e919061487f565b60405180910390f35b34801561078357600080fd5b5061079e600480360381019061079991906140ad565b6119e1565b005b3480156107ac57600080fd5b506107c760048036038101906107c291906140ff565b611a67565b005b3480156107d557600080fd5b506107f060048036038101906107eb919061401f565b611cf1565b005b3480156107fe57600080fd5b50610807611d8d565b60405161081491906149c8565b60405180910390f35b610837600480360381019061083291906140ad565b611e1f565b005b34801561084557600080fd5b50610860600480360381019061085b9190613ed4565b611fe9565b005b34801561086e57600080fd5b5061088960048036038101906108849190613e59565b611fff565b005b34801561089757600080fd5b506108b260048036038101906108ad9190613f4c565b612061565b005b3480156108c057600080fd5b506108c96120fa565b6040516108d6919061493f565b60405180910390f35b3480156108eb57600080fd5b50610906600480360381019061090191906140ad565b612100565b60405161091391906149c8565b60405180910390f35b34801561092857600080fd5b5061093161215a565b60405161093e919061493f565b60405180910390f35b34801561095357600080fd5b5061096e600480360381019061096991906140ad565b612328565b005b34801561097c57600080fd5b506109856123f1565b6040516109929190614e4a565b60405180910390f35b3480156109a757600080fd5b506109b06123f7565b6040516109bd9190614e4a565b60405180910390f35b3480156109d257600080fd5b506109ed60048036038101906109e89190613ff6565b6123fc565b005b3480156109fb57600080fd5b50610a166004803603810190610a119190613dce565b6124c9565b604051610a239190614924565b60405180910390f35b348015610a3857600080fd5b50610a4161255d565b604051610a4e919061493f565b60405180910390f35b348015610a6357600080fd5b50610a7e6004803603810190610a799190613da5565b612563565b005b348015610a8c57600080fd5b50610a9561265b565b604051610aa29190614e4a565b60405180910390f35b600d5481565b60007f780e9d63000000000000000000000000000000000000000000000000000000007bffffffffffffffffffffffffffffffffffffffffffffffffffffffff1916827bffffffffffffffffffffffffffffffffffffffffffffffffffffffff19161480610b245750610b2382612661565b5b9050919050565b606060008054610b3a906150e8565b80601f0160208091040260200160405190810160405280929190818152602001828054610b66906150e8565b8015610bb35780601f10610b8857610100808354040283529160200191610bb3565b820191906000526020600020905b815481529060010190602001808311610b9657829003601f168201915b5050505050905090565b6000610bc882612743565b610c07576040517f08c379a0000000000000000000000000000000000000000000000000000000008152600401610bfe90614c2a565b60405180910390fd5b6004600083815260200190815260200160002060009054906101000a900473ffffffffffffffffffffffffffffffffffffffff169050919050565b6000610c4d826115c9565b90508073ffffffffffffffffffffffffffffffffffffffff168373ffffffffffffffffffffffffffffffffffffffff161415610cbe576040517f08c379a0000000000000000000000000000000000000000000000000000000008152600401610cb590614d0a565b60405180910390fd5b8073ffffffffffffffffffffffffffffffffffffffff16610cdd6127af565b73ffffffffffffffffffffffffffffffffffffffff161480610d0c5750610d0b81610d066127af565b6124c9565b5b610d4b576040517f08c379a0000000000000000000000000000000000000000000000000000000008152600401610d4290614baa565b60405180910390fd5b610d5583836127b7565b505050565b6000600880549050905090565b610d6f6127af565b73ffffffffffffffffffffffffffffffffffffffff16610d8d6119b7565b73ffffffffffffffffffffffffffffffffffffffff1614610de3576040517f08c379a0000000000000000000000000000000000000000000000000000000008152600401610dda90614c4a565b60405180910390fd5b80600e60026101000a81548160ff02191690831515021790555050565b610e086127af565b73ffffffffffffffffffffffffffffffffffffffff16610e266119b7565b73ffffffffffffffffffffffffffffffffffffffff1614610e7c576040517f08c379a0000000000000000000000000000000000000000000000000000000008152600401610e7390614c4a565b60405180910390fd5b6000602060ff1611610ec3576040517f08c379a0000000000000000000000000000000000000000000000000000000008152600401610eba90614e0a565b60405180910390fd5b8060138190555050565b610ede610ed86127af565b82612870565b610f1d576040517f08c379a0000000000000000000000000000000000000000000000000000000008152600401610f1490614d4a565b60405180910390fd5b610f2883838361294e565b505050565b610f356127af565b73ffffffffffffffffffffffffffffffffffffffff16610f536119b7565b73ffffffffffffffffffffffffffffffffffffffff1614610fa9576040517f08c379a0000000000000000000000000000000000000000000000000000000008152600401610fa090614c4a565b60405180910390fd5b80600e60016101000a81548160ff02191690831515021790555050565b600e60019054906101000a900460ff1681565b6000610fe483611794565b8210611025576040517f08c379a000000000000000000000000000000000000000000000000000000000815260040161101c90614a0a565b60405180910390fd5b600660008473ffffffffffffffffffffffffffffffffffffffff1673ffffffffffffffffffffffffffffffffffffffff168152602001908152602001600020600083815260200190815260200160002054905092915050565b6110866127af565b73ffffffffffffffffffffffffffffffffffffffff166110a46119b7565b73ffffffffffffffffffffffffffffffffffffffff16146110fa576040517f08c379a00000000000000000000000000000000000000000000000000000000081526004016110f190614c4a565b60405180910390fd5b80600d8190555050565b600e60009054906101000a900460ff16611153576040517f08c379a000000000000000000000000000000000000000000000000000000000815260040161114a90614dca565b60405180910390fd5b600e60029054906101000a900460ff16156111a3576040517f08c379a000000000000000000000000000000000000000000000000000000000815260040161119a90614cea565b60405180910390fd5b61122360125433866040516020016111bc9291906147d7565b60405160208183030381529060405280519060200120858580806020026020016040519081016040528093929190818152602001838360200280828437600081840152601f19601f82011690508083019250505050505050612baa9092919063ffffffff16565b611262576040517f08c379a000000000000000000000000000000000000000000000000000000000815260040161125990614b6a565b60405180910390fd5b8381601860003373ffffffffffffffffffffffffffffffffffffffff1673ffffffffffffffffffffffffffffffffffffffff168152602001908152602001600020546112ae9190614f13565b11156112ef576040517f08c379a00000000000000000000000000000000000000000000000000000000081526004016112e690614daa565b60405180910390fd5b34600d54826112fe9190614f9a565b111561133f576040517f08c379a000000000000000000000000000000000000000000000000000000000815260040161133690614aaa565b60405180910390fd5b6000611349610d5a565b9050601e81836113599190614f13565b111561139a576040517f08c379a000000000000000000000000000000000000000000000000000000000815260040161139190614aca565b60405180910390fd5b6000600190505b8281116113d0576113bd3382846113b89190614f13565b612bc1565b80806113c89061514b565b9150506113a1565b5081601860003373ffffffffffffffffffffffffffffffffffffffff1673ffffffffffffffffffffffffffffffffffffffff16815260200190815260200160002060008282546114209190614f13565b925050819055505050505050565b6114366127af565b73ffffffffffffffffffffffffffffffffffffffff166114546119b7565b73ffffffffffffffffffffffffffffffffffffffff16146114aa576040517f08c379a00000000000000000000000000000000000000000000000000000000081526004016114a190614c4a565b60405180910390fd5b3373ffffffffffffffffffffffffffffffffffffffff166108fc479081150290604051600060405180830381858888f193505050501580156114f0573d6000803e3d6000fd5b50565b61150e83838360405180602001604052806000815250611fff565b505050565b600b5481565b6000611523610d5a565b8210611564576040517f08c379a000000000000000000000000000000000000000000000000000000000815260040161155b90614d6a565b60405180910390fd5b6008828154811061159e577f4e487b7100000000000000000000000000000000000000000000000000000000600052603260045260246000fd5b90600052602060002001549050919050565b600e60009054906101000a900460ff1681565b60135481565b6000806002600084815260200190815260200160002060009054906101000a900473ffffffffffffffffffffffffffffffffffffffff169050600073ffffffffffffffffffffffffffffffffffffffff168173ffffffffffffffffffffffffffffffffffffffff161415611672576040517f08c379a000000000000000000000000000000000000000000000000000000000815260040161166990614bea565b60405180910390fd5b80915050919050565b601660009054906101000a900460ff1681565b600e60029054906101000a900460ff1681565b6116a96127af565b73ffffffffffffffffffffffffffffffffffffffff166116c76119b7565b73ffffffffffffffffffffffffffffffffffffffff161461171d576040517f08c379a000000000000000000000000000000000000000000000000000000000815260040161171490614c4a565b60405180910390fd5b60008282905011611763576040517f08c379a000000000000000000000000000000000000000000000000000000000815260040161175a90614e2a565b60405180910390fd5b82601160006101000a81548160ff0219169083151502179055508181600f919061178e929190613b5e565b50505050565b60008073ffffffffffffffffffffffffffffffffffffffff168273ffffffffffffffffffffffffffffffffffffffff161415611805576040517f08c379a00000000000000000000000000000000000000000000000000000000081526004016117fc90614bca565b60405180910390fd5b600360008373ffffffffffffffffffffffffffffffffffffffff1673ffffffffffffffffffffffffffffffffffffffff168152602001908152602001600020549050919050565b6118546127af565b73ffffffffffffffffffffffffffffffffffffffff166118726119b7565b73ffffffffffffffffffffffffffffffffffffffff16146118c8576040517f08c379a00000000000000000000000000000000000000000000000000000000081526004016118bf90614c4a565b60405180910390fd5b6118d26000612d8f565b565b606060001515601160009054906101000a900460ff161515141561198457601080546118ff906150e8565b80601f016020809104026020016040519081016040528092919081815260200182805461192b906150e8565b80156119785780601f1061194d57610100808354040283529160200191611978565b820191906000526020600020905b81548152906001019060200180831161195b57829003601f168201915b505050505090506119b2565b600f61198f83612e55565b6040516020016119a092919061485b565b60405160208183030381529060405290505b919050565b6000600a60009054906101000a900473ffffffffffffffffffffffffffffffffffffffff16905090565b6119e96127af565b73ffffffffffffffffffffffffffffffffffffffff16611a076119b7565b73ffffffffffffffffffffffffffffffffffffffff1614611a5d576040517f08c379a0000000000000000000000000000000000000000000000000000000008152600401611a5490614c4a565b60405180910390fd5b80600c8190555050565b600e60019054906101000a900460ff16611ab6576040517f08c379a0000000000000000000000000000000000000000000000000000000008152600401611aad90614dea565b60405180910390fd5b611b366013543386604051602001611acf9291906147d7565b60405160208183030381529060405280519060200120858580806020026020016040519081016040528093929190818152602001838360200280828437600081840152601f19601f82011690508083019250505050505050612baa9092919063ffffffff16565b611b75576040517f08c379a0000000000000000000000000000000000000000000000000000000008152600401611b6c90614caa565b60405180910390fd5b8381601960003373ffffffffffffffffffffffffffffffffffffffff1673ffffffffffffffffffffffffffffffffffffffff16815260200190815260200160002054611bc19190614f13565b1115611c02576040517f08c379a0000000000000000000000000000000000000000000000000000000008152600401611bf990614daa565b60405180910390fd5b6000611c0c610d5a565b9050601e8183611c1c9190614f13565b1115611c5d576040517f08c379a0000000000000000000000000000000000000000000000000000000008152600401611c5490614aca565b60405180910390fd5b6000600190505b828111611c9357611c80338284611c7b9190614f13565b612bc1565b8080611c8b9061514b565b915050611c64565b5081601960003373ffffffffffffffffffffffffffffffffffffffff1673ffffffffffffffffffffffffffffffffffffffff1681526020019081526020016000206000828254611ce39190614f13565b925050819055505050505050565b7f000000000000000000000000000000000000000000000000000000000000000073ffffffffffffffffffffffffffffffffffffffff163373ffffffffffffffffffffffffffffffffffffffff1614611d7f576040517f08c379a0000000000000000000000000000000000000000000000000000000008152600401611d7690614cca565b60405180910390fd5b611d898282613002565b5050565b606060018054611d9c906150e8565b80601f0160208091040260200160405190810160405280929190818152602001828054611dc8906150e8565b8015611e155780601f10611dea57610100808354040283529160200191611e15565b820191906000526020600020905b815481529060010190602001808311611df857829003601f168201915b5050505050905090565b600e60029054906101000a900460ff16611e6e576040517f08c379a0000000000000000000000000000000000000000000000000000000008152600401611e6590614d8a565b60405180910390fd5b600e60009054906101000a900460ff1615611ebe576040517f08c379a0000000000000000000000000000000000000000000000000000000008152600401611eb590614a8a565b60405180910390fd5b600b54811115611f03576040517f08c379a0000000000000000000000000000000000000000000000000000000008152600401611efa90614aea565b60405180910390fd5b34600c5482611f129190614f9a565b1115611f53576040517f08c379a0000000000000000000000000000000000000000000000000000000008152600401611f4a90614aaa565b60405180910390fd5b6000611f5d610d5a565b9050601e8183611f6d9190614f13565b1115611fae576040517f08c379a0000000000000000000000000000000000000000000000000000000008152600401611fa590614aca565b60405180910390fd5b6000600190505b828111611fe457611fd1338284611fcc9190614f13565b612bc1565b8080611fdc9061514b565b915050611fb5565b505050565b611ffb611ff46127af565b8383613046565b5050565b61201061200a6127af565b83612870565b61204f576040517f08c379a000000000000000000000000000000000000000000000000000000000815260040161204690614d4a565b60405180910390fd5b61205b848484846131b3565b50505050565b6120696127af565b73ffffffffffffffffffffffffffffffffffffffff166120876119b7565b73ffffffffffffffffffffffffffffffffffffffff16146120dd576040517f08c379a00000000000000000000000000000000000000000000000000000000081526004016120d490614c4a565b60405180910390fd5b80600e60006101000a81548160ff02191690831515021790555050565b60145481565b606061210b82612743565b61214a576040517f08c379a0000000000000000000000000000000000000000000000000000000008152600401612141906149ea565b60405180910390fd5b612153826118d4565b9050919050565b60006121646127af565b73ffffffffffffffffffffffffffffffffffffffff166121826119b7565b73ffffffffffffffffffffffffffffffffffffffff16146121d8576040517f08c379a00000000000000000000000000000000000000000000000000000000081526004016121cf90614c4a565b60405180910390fd5b601c547f000000000000000000000000000000000000000000000000000000000000000073ffffffffffffffffffffffffffffffffffffffff166370a08231306040518263ffffffff1660e01b8152600401612234919061487f565b60206040518083038186803b15801561224c57600080fd5b505afa158015612260573d6000803e3d6000fd5b505050506040513d601f19601f8201168201806040525081019061228491906140d6565b10156122c5576040517f08c379a00000000000000000000000000000000000000000000000000000000081526004016122bc90614d2a565b60405180910390fd5b601660009054906101000a900460ff1615612315576040517f08c379a000000000000000000000000000000000000000000000000000000000815260040161230c90614c8a565b60405180910390fd5b612323601b54601c5461320f565b905090565b6123306127af565b73ffffffffffffffffffffffffffffffffffffffff1661234e6119b7565b73ffffffffffffffffffffffffffffffffffffffff16146123a4576040517f08c379a000000000000000000000000000000000000000000000000000000000815260040161239b90614c4a565b60405180910390fd5b600081116123e7576040517f08c379a00000000000000000000000000000000000000000000000000000000081526004016123de90614b8a565b60405180910390fd5b80600b8190555050565b60155481565b601e81565b6124046127af565b73ffffffffffffffffffffffffffffffffffffffff166124226119b7565b73ffffffffffffffffffffffffffffffffffffffff1614612478576040517f08c379a000000000000000000000000000000000000000000000000000000000815260040161246f90614c4a565b60405180910390fd5b6000602060ff16116124bf576040517f08c379a00000000000000000000000000000000000000000000000000000000081526004016124b690614e0a565b60405180910390fd5b8060128190555050565b6000600560008473ffffffffffffffffffffffffffffffffffffffff1673ffffffffffffffffffffffffffffffffffffffff16815260200190815260200160002060008373ffffffffffffffffffffffffffffffffffffffff1673ffffffffffffffffffffffffffffffffffffffff16815260200190815260200160002060009054906101000a900460ff16905092915050565b60125481565b61256b6127af565b73ffffffffffffffffffffffffffffffffffffffff166125896119b7565b73ffffffffffffffffffffffffffffffffffffffff16146125df576040517f08c379a00000000000000000000000000000000000000000000000000000000081526004016125d690614c4a565b60405180910390fd5b600073ffffffffffffffffffffffffffffffffffffffff168173ffffffffffffffffffffffffffffffffffffffff16141561264f576040517f08c379a000000000000000000000000000000000000000000000000000000000815260040161264690614a4a565b60405180910390fd5b61265881612d8f565b50565b600c5481565b60007f80ac58cd000000000000000000000000000000000000000000000000000000007bffffffffffffffffffffffffffffffffffffffffffffffffffffffff1916827bffffffffffffffffffffffffffffffffffffffffffffffffffffffff1916148061272c57507f5b5e139f000000000000000000000000000000000000000000000000000000007bffffffffffffffffffffffffffffffffffffffffffffffffffffffff1916827bffffffffffffffffffffffffffffffffffffffffffffffffffffffff1916145b8061273c575061273b82613371565b5b9050919050565b60008073ffffffffffffffffffffffffffffffffffffffff166002600084815260200190815260200160002060009054906101000a900473ffffffffffffffffffffffffffffffffffffffff1673ffffffffffffffffffffffffffffffffffffffff1614159050919050565b600033905090565b816004600083815260200190815260200160002060006101000a81548173ffffffffffffffffffffffffffffffffffffffff021916908373ffffffffffffffffffffffffffffffffffffffff160217905550808273ffffffffffffffffffffffffffffffffffffffff1661282a836115c9565b73ffffffffffffffffffffffffffffffffffffffff167f8c5be1e5ebec7d5bd14f71427d1e84f3dd0314c0f7b2291e5b200ac8c7c3b92560405160405180910390a45050565b600061287b82612743565b6128ba576040517f08c379a00000000000000000000000000000000000000000000000000000000081526004016128b190614b4a565b60405180910390fd5b60006128c5836115c9565b90508073ffffffffffffffffffffffffffffffffffffffff168473ffffffffffffffffffffffffffffffffffffffff16148061293457508373ffffffffffffffffffffffffffffffffffffffff1661291c84610bbd565b73ffffffffffffffffffffffffffffffffffffffff16145b80612945575061294481856124c9565b5b91505092915050565b8273ffffffffffffffffffffffffffffffffffffffff1661296e826115c9565b73ffffffffffffffffffffffffffffffffffffffff16146129c4576040517f08c379a00000000000000000000000000000000000000000000000000000000081526004016129bb90614c6a565b60405180910390fd5b600073ffffffffffffffffffffffffffffffffffffffff168273ffffffffffffffffffffffffffffffffffffffff161415612a34576040517f08c379a0000000000000000000000000000000000000000000000000000000008152600401612a2b90614b0a565b60405180910390fd5b612a3f8383836133db565b612a4a6000826127b7565b6001600360008573ffffffffffffffffffffffffffffffffffffffff1673ffffffffffffffffffffffffffffffffffffffff1681526020019081526020016000206000828254612a9a9190614ff4565b925050819055506001600360008473ffffffffffffffffffffffffffffffffffffffff1673ffffffffffffffffffffffffffffffffffffffff1681526020019081526020016000206000828254612af19190614f13565b92505081905550816002600083815260200190815260200160002060006101000a81548173ffffffffffffffffffffffffffffffffffffffff021916908373ffffffffffffffffffffffffffffffffffffffff160217905550808273ffffffffffffffffffffffffffffffffffffffff168473ffffffffffffffffffffffffffffffffffffffff167fddf252ad1be2c89b69c2b068fc378daa952ba7f163c4a11628f55a4df523b3ef60405160405180910390a4505050565b600082612bb785846134ef565b1490509392505050565b600073ffffffffffffffffffffffffffffffffffffffff168273ffffffffffffffffffffffffffffffffffffffff161415612c31576040517f08c379a0000000000000000000000000000000000000000000000000000000008152600401612c2890614c0a565b60405180910390fd5b612c3a81612743565b15612c7a576040517f08c379a0000000000000000000000000000000000000000000000000000000008152600401612c7190614a6a565b60405180910390fd5b612c86600083836133db565b6001600360008473ffffffffffffffffffffffffffffffffffffffff1673ffffffffffffffffffffffffffffffffffffffff1681526020019081526020016000206000828254612cd69190614f13565b92505081905550816002600083815260200190815260200160002060006101000a81548173ffffffffffffffffffffffffffffffffffffffff021916908373ffffffffffffffffffffffffffffffffffffffff160217905550808273ffffffffffffffffffffffffffffffffffffffff16600073ffffffffffffffffffffffffffffffffffffffff167fddf252ad1be2c89b69c2b068fc378daa952ba7f163c4a11628f55a4df523b3ef60405160405180910390a45050565b6000600a60009054906101000a900473ffffffffffffffffffffffffffffffffffffffff16905081600a60006101000a81548173ffffffffffffffffffffffffffffffffffffffff021916908373ffffffffffffffffffffffffffffffffffffffff1602179055508173ffffffffffffffffffffffffffffffffffffffff168173ffffffffffffffffffffffffffffffffffffffff167f8be0079c531659141344cd1fd0a4f28419497f9722a3daafe3b4186f6b6457e060405160405180910390a35050565b60606000821415612e9d576040518060400160405280600181526020017f30000000000000000000000000000000000000000000000000000000000000008152509050612ffd565b600082905060005b60008214612ecf578080612eb89061514b565b915050600a82612ec89190614f69565b9150612ea5565b60008167ffffffffffffffff811115612f11577f4e487b7100000000000000000000000000000000000000000000000000000000600052604160045260246000fd5b6040519080825280601f01601f191660200182016040528015612f435781602001600182028036833780820191505090505b5090505b60008514612ff657600182612f5c9190614ff4565b9150600a85612f6b91906151cc565b6030612f779190614f13565b60f81b818381518110612fb3577f4e487b7100000000000000000000000000000000000000000000000000000000600052603260045260246000fd5b60200101907effffffffffffffffffffffffffffffffffffffffffffffffffffffffffffff1916908160001a905350600a85612fef9190614f69565b9450612f47565b8093505050505b919050565b60006001601e8361301391906151cc565b61301d9190614f13565b9050806015819055506001601660006101000a81548160ff021916908315150217905550505050565b8173ffffffffffffffffffffffffffffffffffffffff168373ffffffffffffffffffffffffffffffffffffffff1614156130b5576040517f08c379a00000000000000000000000000000000000000000000000000000000081526004016130ac90614b2a565b60405180910390fd5b80600560008573ffffffffffffffffffffffffffffffffffffffff1673ffffffffffffffffffffffffffffffffffffffff16815260200190815260200160002060008473ffffffffffffffffffffffffffffffffffffffff1673ffffffffffffffffffffffffffffffffffffffff16815260200190815260200160002060006101000a81548160ff0219169083151502179055508173ffffffffffffffffffffffffffffffffffffffff168373ffffffffffffffffffffffffffffffffffffffff167f17307eab39ab6107e8899845ad3d59bd9653f200f220920489ca2b5937696c31836040516131a69190614924565b60405180910390a3505050565b6131be84848461294e565b6131ca848484846135c8565b613209576040517f08c379a000000000000000000000000000000000000000000000000000000000815260040161320090614a2a565b60405180910390fd5b50505050565b60007f000000000000000000000000000000000000000000000000000000000000000073ffffffffffffffffffffffffffffffffffffffff16634000aea07f00000000000000000000000000000000000000000000000000000000000000008486600060405160200161328392919061495a565b6040516020818303038152906040526040518463ffffffff1660e01b81526004016132b0939291906148e6565b602060405180830381600087803b1580156132ca57600080fd5b505af11580156132de573d6000803e3d6000fd5b505050506040513d601f19601f820116820180604052508101906133029190613f75565b50600061332584600030601760008981526020019081526020016000205461375f565b9050600160176000868152602001908152602001600020546133479190614f13565b6017600086815260200190815260200160002081905550613368848261379b565b91505092915050565b60007f01ffc9a7000000000000000000000000000000000000000000000000000000007bffffffffffffffffffffffffffffffffffffffffffffffffffffffff1916827bffffffffffffffffffffffffffffffffffffffffffffffffffffffff1916149050919050565b6133e68383836137ce565b600073ffffffffffffffffffffffffffffffffffffffff168373ffffffffffffffffffffffffffffffffffffffff16141561342957613424816137d3565b613468565b8173ffffffffffffffffffffffffffffffffffffffff168373ffffffffffffffffffffffffffffffffffffffff161461346757613466838261381c565b5b5b600073ffffffffffffffffffffffffffffffffffffffff168273ffffffffffffffffffffffffffffffffffffffff1614156134ab576134a681613989565b6134ea565b8273ffffffffffffffffffffffffffffffffffffffff168273ffffffffffffffffffffffffffffffffffffffff16146134e9576134e88282613acc565b5b5b505050565b60008082905060005b84518110156135bd57600085828151811061353c577f4e487b7100000000000000000000000000000000000000000000000000000000600052603260045260246000fd5b6020026020010151905080831161357d578281604051602001613560929190614803565b6040516020818303038152906040528051906020012092506135a9565b8083604051602001613590929190614803565b6040516020818303038152906040528051906020012092505b5080806135b59061514b565b9150506134f8565b508091505092915050565b60006135e98473ffffffffffffffffffffffffffffffffffffffff16613b4b565b15613752578373ffffffffffffffffffffffffffffffffffffffff1663150b7a026136126127af565b8786866040518563ffffffff1660e01b8152600401613634949392919061489a565b602060405180830381600087803b15801561364e57600080fd5b505af192505050801561367f57506040513d601f19601f8201168201806040525081019061367c9190614084565b60015b613702573d80600081146136af576040519150601f19603f3d011682016040523d82523d6000602084013e6136b4565b606091505b506000815114156136fa576040517f08c379a00000000000000000000000000000000000000000000000000000000081526004016136f190614a2a565b60405180910390fd5b805181602001fd5b63150b7a0260e01b7bffffffffffffffffffffffffffffffffffffffffffffffffffffffff1916817bffffffffffffffffffffffffffffffffffffffffffffffffffffffff191614915050613757565b600190505b949350505050565b6000848484846040516020016137789493929190614983565b6040516020818303038152906040528051906020012060001c9050949350505050565b600082826040516020016137b092919061482f565b60405160208183030381529060405280519060200120905092915050565b505050565b6008805490506009600083815260200190815260200160002081905550600881908060018154018082558091505060019003906000526020600020016000909190919091505550565b6000600161382984611794565b6138339190614ff4565b9050600060076000848152602001908152602001600020549050818114613918576000600660008673ffffffffffffffffffffffffffffffffffffffff1673ffffffffffffffffffffffffffffffffffffffff168152602001908152602001600020600084815260200190815260200160002054905080600660008773ffffffffffffffffffffffffffffffffffffffff1673ffffffffffffffffffffffffffffffffffffffff168152602001908152602001600020600084815260200190815260200160002081905550816007600083815260200190815260200160002081905550505b6007600084815260200190815260200160002060009055600660008573ffffffffffffffffffffffffffffffffffffffff1673ffffffffffffffffffffffffffffffffffffffff16815260200190815260200160002060008381526020019081526020016000206000905550505050565b6000600160088054905061399d9190614ff4565b90506000600960008481526020019081526020016000205490506000600883815481106139f3577f4e487b7100000000000000000000000000000000000000000000000000000000600052603260045260246000fd5b906000526020600020015490508060088381548110613a3b577f4e487b7100000000000000000000000000000000000000000000000000000000600052603260045260246000fd5b906000526020600020018190555081600960008381526020019081526020016000208190555060096000858152602001908152602001600020600090556008805480613ab0577f4e487b7100000000000000000000000000000000000000000000000000000000600052603160045260246000fd5b6001900381819060005260206000200160009055905550505050565b6000613ad783611794565b905081600660008573ffffffffffffffffffffffffffffffffffffffff1673ffffffffffffffffffffffffffffffffffffffff168152602001908152602001600020600083815260200190815260200160002081905550806007600084815260200190815260200160002081905550505050565b600080823b905060008111915050919050565b828054613b6a906150e8565b90600052602060002090601f016020900481019282613b8c5760008555613bd3565b82601f10613ba557803560ff1916838001178555613bd3565b82800160010185558215613bd3579182015b82811115613bd2578235825591602001919060010190613bb7565b5b509050613be09190613be4565b5090565b5b80821115613bfd576000816000905550600101613be5565b5090565b6000613c14613c0f84614e8a565b614e65565b905082815260208101848484011115613c2c57600080fd5b613c378482856150a6565b509392505050565b600081359050613c4e81615aac565b92915050565b60008083601f840112613c6657600080fd5b8235905067ffffffffffffffff811115613c7f57600080fd5b602083019150836020820283011115613c9757600080fd5b9250929050565b600081359050613cad81615ac3565b92915050565b600081519050613cc281615ac3565b92915050565b600081359050613cd781615ada565b92915050565b600081359050613cec81615af1565b92915050565b600081519050613d0181615af1565b92915050565b600082601f830112613d1857600080fd5b8135613d28848260208601613c01565b91505092915050565b60008083601f840112613d4357600080fd5b8235905067ffffffffffffffff811115613d5c57600080fd5b602083019150836001820283011115613d7457600080fd5b9250929050565b600081359050613d8a81615b08565b92915050565b600081519050613d9f81615b08565b92915050565b600060208284031215613db757600080fd5b6000613dc584828501613c3f565b91505092915050565b60008060408385031215613de157600080fd5b6000613def85828601613c3f565b9250506020613e0085828601613c3f565b9150509250929050565b600080600060608486031215613e1f57600080fd5b6000613e2d86828701613c3f565b9350506020613e3e86828701613c3f565b9250506040613e4f86828701613d7b565b9150509250925092565b60008060008060808587031215613e6f57600080fd5b6000613e7d87828801613c3f565b9450506020613e8e87828801613c3f565b9350506040613e9f87828801613d7b565b925050606085013567ffffffffffffffff811115613ebc57600080fd5b613ec887828801613d07565b91505092959194509250565b60008060408385031215613ee757600080fd5b6000613ef585828601613c3f565b9250506020613f0685828601613c9e565b9150509250929050565b60008060408385031215613f2357600080fd5b6000613f3185828601613c3f565b9250506020613f4285828601613d7b565b9150509250929050565b600060208284031215613f5e57600080fd5b6000613f6c84828501613c9e565b91505092915050565b600060208284031215613f8757600080fd5b6000613f9584828501613cb3565b91505092915050565b600080600060408486031215613fb357600080fd5b6000613fc186828701613c9e565b935050602084013567ffffffffffffffff811115613fde57600080fd5b613fea86828701613d31565b92509250509250925092565b60006020828403121561400857600080fd5b600061401684828501613cc8565b91505092915050565b6000806040838503121561403257600080fd5b600061404085828601613cc8565b925050602061405185828601613d7b565b9150509250929050565b60006020828403121561406d57600080fd5b600061407b84828501613cdd565b91505092915050565b60006020828403121561409657600080fd5b60006140a484828501613cf2565b91505092915050565b6000602082840312156140bf57600080fd5b60006140cd84828501613d7b565b91505092915050565b6000602082840312156140e857600080fd5b60006140f684828501613d90565b91505092915050565b6000806000806060858703121561411557600080fd5b600061412387828801613d7b565b945050602085013567ffffffffffffffff81111561414057600080fd5b61414c87828801613c54565b9350935050604061415f87828801613d7b565b91505092959194509250565b61417481615028565b82525050565b61418b61418682615028565b615194565b82525050565b61419a8161503a565b82525050565b6141a981615046565b82525050565b6141c06141bb82615046565b6151a6565b82525050565b60006141d182614ed0565b6141db8185614ee6565b93506141eb8185602086016150b5565b6141f4816152b9565b840191505092915050565b600061420a82614edb565b6142148185614ef7565b93506142248185602086016150b5565b61422d816152b9565b840191505092915050565b600061424382614edb565b61424d8185614f08565b935061425d8185602086016150b5565b80840191505092915050565b60008154614276816150e8565b6142808186614f08565b9450600182166000811461429b57600181146142ac576142df565b60ff198316865281860193506142df565b6142b585614ebb565b60005b838110156142d7578154818901526001820191506020810190506142b8565b838801955050505b50505092915050565b60006142f5601f83614ef7565b9150614300826152d7565b602082019050919050565b6000614318602b83614ef7565b915061432382615300565b604082019050919050565b600061433b603283614ef7565b91506143468261534f565b604082019050919050565b600061435e602683614ef7565b91506143698261539e565b604082019050919050565b6000614381601c83614ef7565b915061438c826153ed565b602082019050919050565b60006143a4601683614ef7565b91506143af82615416565b602082019050919050565b60006143c7601883614ef7565b91506143d28261543f565b602082019050919050565b60006143ea601883614ef7565b91506143f582615468565b602082019050919050565b600061440d603183614ef7565b915061441882615491565b604082019050919050565b6000614430602483614ef7565b915061443b826154e0565b604082019050919050565b6000614453601983614ef7565b915061445e8261552f565b602082019050919050565b6000614476602c83614ef7565b915061448182615558565b604082019050919050565b6000614499601083614ef7565b91506144a4826155a7565b602082019050919050565b60006144bc602483614ef7565b91506144c7826155d0565b604082019050919050565b60006144df603883614ef7565b91506144ea8261561f565b604082019050919050565b6000614502602a83614ef7565b915061450d8261566e565b604082019050919050565b6000614525602983614ef7565b9150614530826156bd565b604082019050919050565b6000614548602083614ef7565b91506145538261570c565b602082019050919050565b600061456b602c83614ef7565b915061457682615735565b604082019050919050565b600061458e602083614ef7565b915061459982615784565b602082019050919050565b60006145b1602983614ef7565b91506145bc826157ad565b604082019050919050565b60006145d4601f83614ef7565b91506145df826157fc565b602082019050919050565b60006145f7601a83614ef7565b915061460282615825565b602082019050919050565b600061461a601f83614ef7565b91506146258261584e565b602082019050919050565b600061463d601583614ef7565b915061464882615877565b602082019050919050565b6000614660602183614ef7565b915061466b826158a0565b604082019050919050565b6000614683601a83614ef7565b915061468e826158ef565b602082019050919050565b60006146a6603183614ef7565b91506146b182615918565b604082019050919050565b60006146c9602c83614ef7565b91506146d482615967565b604082019050919050565b60006146ec600f83614ef7565b91506146f7826159b6565b602082019050919050565b600061470f601983614ef7565b915061471a826159df565b602082019050919050565b6000614732601283614ef7565b915061473d82615a08565b602082019050919050565b6000614755601583614ef7565b915061476082615a31565b602082019050919050565b6000614778600e83614ef7565b915061478382615a5a565b602082019050919050565b600061479b601683614ef7565b91506147a682615a83565b602082019050919050565b6147ba8161509c565b82525050565b6147d16147cc8261509c565b6151c2565b82525050565b60006147e3828561417a565b6014820191506147f382846147c0565b6020820191508190509392505050565b600061480f82856141af565b60208201915061481f82846141af565b6020820191508190509392505050565b600061483b82856141af565b60208201915061484b82846147c0565b6020820191508190509392505050565b60006148678285614269565b91506148738284614238565b91508190509392505050565b6000602082019050614894600083018461416b565b92915050565b60006080820190506148af600083018761416b565b6148bc602083018661416b565b6148c960408301856147b1565b81810360608301526148db81846141c6565b905095945050505050565b60006060820190506148fb600083018661416b565b61490860208301856147b1565b818103604083015261491a81846141c6565b9050949350505050565b60006020820190506149396000830184614191565b92915050565b600060208201905061495460008301846141a0565b92915050565b600060408201905061496f60008301856141a0565b61497c60208301846147b1565b9392505050565b600060808201905061499860008301876141a0565b6149a560208301866147b1565b6149b2604083018561416b565b6149bf60608301846147b1565b95945050505050565b600060208201905081810360008301526149e281846141ff565b905092915050565b60006020820190508181036000830152614a03816142e8565b9050919050565b60006020820190508181036000830152614a238161430b565b9050919050565b60006020820190508181036000830152614a438161432e565b9050919050565b60006020820190508181036000830152614a6381614351565b9050919050565b60006020820190508181036000830152614a8381614374565b9050919050565b60006020820190508181036000830152614aa381614397565b9050919050565b60006020820190508181036000830152614ac3816143ba565b9050919050565b60006020820190508181036000830152614ae3816143dd565b9050919050565b60006020820190508181036000830152614b0381614400565b9050919050565b60006020820190508181036000830152614b2381614423565b9050919050565b60006020820190508181036000830152614b4381614446565b9050919050565b60006020820190508181036000830152614b6381614469565b9050919050565b60006020820190508181036000830152614b838161448c565b9050919050565b60006020820190508181036000830152614ba3816144af565b9050919050565b60006020820190508181036000830152614bc3816144d2565b9050919050565b60006020820190508181036000830152614be3816144f5565b9050919050565b60006020820190508181036000830152614c0381614518565b9050919050565b60006020820190508181036000830152614c238161453b565b9050919050565b60006020820190508181036000830152614c438161455e565b9050919050565b60006020820190508181036000830152614c6381614581565b9050919050565b60006020820190508181036000830152614c83816145a4565b9050919050565b60006020820190508181036000830152614ca3816145c7565b9050919050565b60006020820190508181036000830152614cc3816145ea565b9050919050565b60006020820190508181036000830152614ce38161460d565b9050919050565b60006020820190508181036000830152614d0381614630565b9050919050565b60006020820190508181036000830152614d2381614653565b9050919050565b60006020820190508181036000830152614d4381614676565b9050919050565b60006020820190508181036000830152614d6381614699565b9050919050565b60006020820190508181036000830152614d83816146bc565b9050919050565b60006020820190508181036000830152614da3816146df565b9050919050565b60006020820190508181036000830152614dc381614702565b9050919050565b60006020820190508181036000830152614de381614725565b9050919050565b60006020820190508181036000830152614e0381614748565b9050919050565b60006020820190508181036000830152614e238161476b565b9050919050565b60006020820190508181036000830152614e438161478e565b9050919050565b6000602082019050614e5f60008301846147b1565b92915050565b6000614e6f614e80565b9050614e7b828261511a565b919050565b6000604051905090565b600067ffffffffffffffff821115614ea557614ea461528a565b5b614eae826152b9565b9050602081019050919050565b60008190508160005260206000209050919050565b600081519050919050565b600081519050919050565b600082825260208201905092915050565b600082825260208201905092915050565b600081905092915050565b6000614f1e8261509c565b9150614f298361509c565b9250827fffffffffffffffffffffffffffffffffffffffffffffffffffffffffffffffff03821115614f5e57614f5d6151fd565b5b828201905092915050565b6000614f748261509c565b9150614f7f8361509c565b925082614f8f57614f8e61522c565b5b828204905092915050565b6000614fa58261509c565b9150614fb08361509c565b9250817fffffffffffffffffffffffffffffffffffffffffffffffffffffffffffffffff0483118215151615614fe957614fe86151fd565b5b828202905092915050565b6000614fff8261509c565b915061500a8361509c565b92508282101561501d5761501c6151fd565b5b828203905092915050565b60006150338261507c565b9050919050565b60008115159050919050565b6000819050919050565b60007fffffffff0000000000000000000000000000000000000000000000000000000082169050919050565b600073ffffffffffffffffffffffffffffffffffffffff82169050919050565b6000819050919050565b82818337600083830152505050565b60005b838110156150d35780820151818401526020810190506150b8565b838111156150e2576000848401525b50505050565b6000600282049050600182168061510057607f821691505b602082108114156151145761511361525b565b5b50919050565b615123826152b9565b810181811067ffffffffffffffff821117156151425761514161528a565b5b80604052505050565b60006151568261509c565b91507fffffffffffffffffffffffffffffffffffffffffffffffffffffffffffffffff821415615189576151886151fd565b5b600182019050919050565b600061519f826151b0565b9050919050565b6000819050919050565b60006151bb826152ca565b9050919050565b6000819050919050565b60006151d78261509c565b91506151e28361509c565b9250826151f2576151f161522c565b5b828206905092915050565b7f4e487b7100000000000000000000000000000000000000000000000000000000600052601160045260246000fd5b7f4e487b7100000000000000000000000000000000000000000000000000000000600052601260045260246000fd5b7f4e487b7100000000000000000000000000000000000000000000000000000000600052602260045260246000fd5b7f4e487b7100000000000000000000000000000000000000000000000000000000600052604160045260246000fd5b6000601f19601f8301169050919050565b60008160601b9050919050565b7f55524920717565727920666f72206e6f6e6578697374656e7420746f6b656e00600082015250565b7f455243373231456e756d657261626c653a206f776e657220696e646578206f7560008201527f74206f6620626f756e6473000000000000000000000000000000000000000000602082015250565b7f4552433732313a207472616e7366657220746f206e6f6e20455243373231526560008201527f63656976657220696d706c656d656e7465720000000000000000000000000000602082015250565b7f4f776e61626c653a206e6577206f776e657220697320746865207a65726f206160008201527f6464726573730000000000000000000000000000000000000000000000000000602082015250565b7f4552433732313a20746f6b656e20616c7265616479206d696e74656400000000600082015250565b7f50524553414c45204f4e4c59205249474854204e4f5700000000000000000000600082015250565b7f494e434f5252454354205041594d454e5420414d4f554e540000000000000000600082015250565b7f4e4f5420454e4f554748204c45465420494e2053544f434b0000000000000000600082015250565b7f4d494e54494e47204d4f5245205448414e20414c4c4f57454420494e2041205360008201527f494e474c45205452414e53414354494f4e000000000000000000000000000000602082015250565b7f4552433732313a207472616e7366657220746f20746865207a65726f2061646460008201527f7265737300000000000000000000000000000000000000000000000000000000602082015250565b7f4552433732313a20617070726f766520746f2063616c6c657200000000000000600082015250565b7f4552433732313a206f70657261746f7220717565727920666f72206e6f6e657860008201527f697374656e7420746f6b656e0000000000000000000000000000000000000000602082015250565b7f4e4f54204f4e20414c4c4f574c49535400000000000000000000000000000000600082015250565b7f6d61785065725472616e73616374696f6e2073686f756c6420626520706f736960008201527f7469766500000000000000000000000000000000000000000000000000000000602082015250565b7f4552433732313a20617070726f76652063616c6c6572206973206e6f74206f7760008201527f6e6572206e6f7220617070726f76656420666f7220616c6c0000000000000000602082015250565b7f4552433732313a2062616c616e636520717565727920666f7220746865207a6560008201527f726f206164647265737300000000000000000000000000000000000000000000602082015250565b7f4552433732313a206f776e657220717565727920666f72206e6f6e657869737460008201527f656e7420746f6b656e0000000000000000000000000000000000000000000000602082015250565b7f4552433732313a206d696e7420746f20746865207a65726f2061646472657373600082015250565b7f4552433732313a20617070726f76656420717565727920666f72206e6f6e657860008201527f697374656e7420746f6b656e0000000000000000000000000000000000000000602082015250565b7f4f776e61626c653a2063616c6c6572206973206e6f7420746865206f776e6572600082015250565b7f4552433732313a207472616e73666572206f6620746f6b656e2074686174206960008201527f73206e6f74206f776e0000000000000000000000000000000000000000000000602082015250565b7f416c72656164792067656e6572617465642072616e646f6d206f666673657400600082015250565b7f4e4f54204f4e2046524545204d494e5420414c4c4f574c495354000000000000600082015250565b7f4f6e6c7920565246436f6f7264696e61746f722063616e2066756c66696c6c00600082015250565b7f53414c4520414354495645205249474854204e4f570000000000000000000000600082015250565b7f4552433732313a20617070726f76616c20746f2063757272656e74206f776e6560008201527f7200000000000000000000000000000000000000000000000000000000000000602082015250565b7f4e6f7420656e6f756768204c494e4b20746f2070617920666565000000000000600082015250565b7f4552433732313a207472616e736665722063616c6c6572206973206e6f74206f60008201527f776e6572206e6f7220617070726f766564000000000000000000000000000000602082015250565b7f455243373231456e756d657261626c653a20676c6f62616c20696e646578206f60008201527f7574206f6620626f756e64730000000000000000000000000000000000000000602082015250565b7f53414c45204e4f54204143544956450000000000000000000000000000000000600082015250565b7f4d494e54494e47204d4f5245205448414e20414c4c4f57454400000000000000600082015250565b7f50524553414c45204e4f54204143544956450000000000000000000000000000600082015250565b7f46726565206d696e74206e6f7420616c6c6f7765640000000000000000000000600082015250565b7f5f726f6f7420697320656d707479000000000000000000000000000000000000600082015250565b7f5f746f6b656e4261736555524920697320656d70747900000000000000000000600082015250565b615ab581615028565b8114615ac057600080fd5b50565b615acc8161503a565b8114615ad757600080fd5b50565b615ae381615046565b8114615aee57600080fd5b50565b615afa81615050565b8114615b0557600080fd5b50565b615b118161509c565b8114615b1c57600080fd5b5056fea2646970667358221220be2b90c972f25ea7a1ce24900819bcb931e52b796f4c069e1bef1f13f484773664736f6c63430008040033",
  "linkReferences": {},
  "deployedLinkReferences": {}
}