{
  "_format": "hh-sol-artifact-1",
  "contractName": "PMV",
  "sourceName": "contracts/PMV.sol",
  "abi": [
    {
      "inputs": [
        {
          "internalType": "bytes32",
          "name": "merkleroot",
          "type": "bytes32"
        },
        {
          "internalType": "string",
          "name": "uri",
          "type": "string"
        }
      ],
      "stateMutability": "nonpayable",
      "type": "constructor"
    },
    {
      "anonymous": false,
      "inputs": [
        {
          "indexed": true,
          "internalType": "address",
          "name": "owner",
          "type": "address"
        },
        {
          "indexed": true,
          "internalType": "address",
          "name": "approved",
          "type": "address"
        },
        {
          "indexed": true,
          "internalType": "uint256",
          "name": "tokenId",
          "type": "uint256"
        }
      ],
      "name": "Approval",
      "type": "event"
    },
    {
      "anonymous": false,
      "inputs": [
        {
          "indexed": true,
          "internalType": "address",
          "name": "owner",
          "type": "address"
        },
        {
          "indexed": true,
          "internalType": "address",
          "name": "operator",
          "type": "address"
        },
        {
          "indexed": false,
          "internalType": "bool",
          "name": "approved",
          "type": "bool"
        }
      ],
      "name": "ApprovalForAll",
      "type": "event"
    },
    {
      "anonymous": false,
      "inputs": [
        {
          "indexed": true,
          "internalType": "address",
          "name": "previousOwner",
          "type": "address"
        },
        {
          "indexed": true,
          "internalType": "address",
          "name": "newOwner",
          "type": "address"
        }
      ],
      "name": "OwnershipTransferred",
      "type": "event"
    },
    {
      "anonymous": false,
      "inputs": [
        {
          "indexed": true,
          "internalType": "address",
          "name": "from",
          "type": "address"
        },
        {
          "indexed": true,
          "internalType": "address",
          "name": "to",
          "type": "address"
        },
        {
          "indexed": true,
          "internalType": "uint256",
          "name": "tokenId",
          "type": "uint256"
        }
      ],
      "name": "Transfer",
      "type": "event"
    },
    {
      "inputs": [
        {
          "internalType": "address",
          "name": "to",
          "type": "address"
        },
        {
          "internalType": "uint256",
          "name": "tokenId",
          "type": "uint256"
        }
      ],
      "name": "approve",
      "outputs": [],
      "stateMutability": "nonpayable",
      "type": "function"
    },
    {
      "inputs": [
        {
          "internalType": "address",
          "name": "owner",
          "type": "address"
        }
      ],
      "name": "balanceOf",
      "outputs": [
        {
          "internalType": "uint256",
          "name": "",
          "type": "uint256"
        }
      ],
      "stateMutability": "view",
      "type": "function"
    },
    {
      "inputs": [
        {
          "internalType": "uint256",
          "name": "tokenId",
          "type": "uint256"
        }
      ],
      "name": "getApproved",
      "outputs": [
        {
          "internalType": "address",
          "name": "",
          "type": "address"
        }
      ],
      "stateMutability": "view",
      "type": "function"
    },
    {
      "inputs": [
        {
          "internalType": "address",
          "name": "owner",
          "type": "address"
        },
        {
          "internalType": "address",
          "name": "operator",
          "type": "address"
        }
      ],
      "name": "isApprovedForAll",
      "outputs": [
        {
          "internalType": "bool",
          "name": "",
          "type": "bool"
        }
      ],
      "stateMutability": "view",
      "type": "function"
    },
    {
      "inputs": [],
      "name": "maxPerWallet",
      "outputs": [
        {
          "internalType": "uint256",
          "name": "",
          "type": "uint256"
        }
      ],
      "stateMutability": "view",
      "type": "function"
    },
    {
      "inputs": [],
      "name": "maxSupply",
      "outputs": [
        {
          "internalType": "uint256",
          "name": "",
          "type": "uint256"
        }
      ],
      "stateMutability": "view",
      "type": "function"
    },
    {
      "inputs": [
        {
          "internalType": "uint256",
          "name": "tokenQuantity",
          "type": "uint256"
        }
      ],
      "name": "mint",
      "outputs": [],
      "stateMutability": "payable",
      "type": "function"
    },
    {
      "inputs": [
        {
          "internalType": "uint256",
          "name": "allowance",
          "type": "uint256"
        },
        {
          "internalType": "bytes32[]",
          "name": "proof",
          "type": "bytes32[]"
        },
        {
          "internalType": "uint256",
          "name": "tokenQuantity",
          "type": "uint256"
        }
      ],
      "name": "mintPresale",
      "outputs": [],
      "stateMutability": "payable",
      "type": "function"
    },
    {
      "inputs": [],
      "name": "name",
      "outputs": [
        {
          "internalType": "string",
          "name": "",
          "type": "string"
        }
      ],
      "stateMutability": "view",
      "type": "function"
    },
    {
      "inputs": [],
      "name": "owner",
      "outputs": [
        {
          "internalType": "address",
          "name": "",
          "type": "address"
        }
      ],
      "stateMutability": "view",
      "type": "function"
    },
    {
      "inputs": [
        {
          "internalType": "uint256",
          "name": "tokenId",
          "type": "uint256"
        }
      ],
      "name": "ownerOf",
      "outputs": [
        {
          "internalType": "address",
          "name": "",
          "type": "address"
        }
      ],
      "stateMutability": "view",
      "type": "function"
    },
    {
      "inputs": [],
      "name": "presaleActive",
      "outputs": [
        {
          "internalType": "bool",
          "name": "",
          "type": "bool"
        }
      ],
      "stateMutability": "view",
      "type": "function"
    },
    {
      "inputs": [],
      "name": "renounceOwnership",
      "outputs": [],
      "stateMutability": "nonpayable",
      "type": "function"
    },
    {
      "inputs": [],
      "name": "root",
      "outputs": [
        {
          "internalType": "bytes32",
          "name": "",
          "type": "bytes32"
        }
      ],
      "stateMutability": "view",
      "type": "function"
    },
    {
      "inputs": [
        {
          "internalType": "address",
          "name": "from",
          "type": "address"
        },
        {
          "internalType": "address",
          "name": "to",
          "type": "address"
        },
        {
          "internalType": "uint256",
          "name": "tokenId",
          "type": "uint256"
        }
      ],
      "name": "safeTransferFrom",
      "outputs": [],
      "stateMutability": "nonpayable",
      "type": "function"
    },
    {
      "inputs": [
        {
          "internalType": "address",
          "name": "from",
          "type": "address"
        },
        {
          "internalType": "address",
          "name": "to",
          "type": "address"
        },
        {
          "internalType": "uint256",
          "name": "tokenId",
          "type": "uint256"
        },
        {
          "internalType": "bytes",
          "name": "_data",
          "type": "bytes"
        }
      ],
      "name": "safeTransferFrom",
      "outputs": [],
      "stateMutability": "nonpayable",
      "type": "function"
    },
    {
      "inputs": [],
      "name": "saleActive",
      "outputs": [
        {
          "internalType": "bool",
          "name": "",
          "type": "bool"
        }
      ],
      "stateMutability": "view",
      "type": "function"
    },
    {
      "inputs": [],
      "name": "salePrice",
      "outputs": [
        {
          "internalType": "uint256",
          "name": "",
          "type": "uint256"
        }
      ],
      "stateMutability": "view",
      "type": "function"
    },
    {
      "inputs": [
        {
          "internalType": "address",
          "name": "operator",
          "type": "address"
        },
        {
          "internalType": "bool",
          "name": "approved",
          "type": "bool"
        }
      ],
      "name": "setApprovalForAll",
      "outputs": [],
      "stateMutability": "nonpayable",
      "type": "function"
    },
    {
      "inputs": [
        {
          "internalType": "bool",
          "name": "_presaleStatus",
          "type": "bool"
        }
      ],
      "name": "setPresale",
      "outputs": [],
      "stateMutability": "nonpayable",
      "type": "function"
    },
    {
      "inputs": [
        {
          "internalType": "bytes32",
          "name": "_root",
          "type": "bytes32"
        }
      ],
      "name": "setRoot",
      "outputs": [],
      "stateMutability": "nonpayable",
      "type": "function"
    },
    {
      "inputs": [
        {
          "internalType": "bool",
          "name": "_saleStatus",
          "type": "bool"
        }
      ],
      "name": "setSale",
      "outputs": [],
      "stateMutability": "nonpayable",
      "type": "function"
    },
    {
      "inputs": [
        {
          "internalType": "bool",
          "name": "_revealed",
          "type": "bool"
        },
        {
          "internalType": "string",
          "name": "_tokenBaseURI",
          "type": "string"
        }
      ],
      "name": "setURIStatus",
      "outputs": [],
      "stateMutability": "nonpayable",
      "type": "function"
    },
    {
      "inputs": [
        {
          "internalType": "bytes4",
          "name": "interfaceId",
          "type": "bytes4"
        }
      ],
      "name": "supportsInterface",
      "outputs": [
        {
          "internalType": "bool",
          "name": "",
          "type": "bool"
        }
      ],
      "stateMutability": "view",
      "type": "function"
    },
    {
      "inputs": [],
      "name": "symbol",
      "outputs": [
        {
          "internalType": "string",
          "name": "",
          "type": "string"
        }
      ],
      "stateMutability": "view",
      "type": "function"
    },
    {
      "inputs": [
        {
          "internalType": "uint256",
          "name": "index",
          "type": "uint256"
        }
      ],
      "name": "tokenByIndex",
      "outputs": [
        {
          "internalType": "uint256",
          "name": "",
          "type": "uint256"
        }
      ],
      "stateMutability": "view",
      "type": "function"
    },
    {
      "inputs": [
        {
          "internalType": "address",
          "name": "owner",
          "type": "address"
        },
        {
          "internalType": "uint256",
          "name": "index",
          "type": "uint256"
        }
      ],
      "name": "tokenOfOwnerByIndex",
      "outputs": [
        {
          "internalType": "uint256",
          "name": "",
          "type": "uint256"
        }
      ],
      "stateMutability": "view",
      "type": "function"
    },
    {
      "inputs": [
        {
          "internalType": "uint256",
          "name": "tokenId",
          "type": "uint256"
        }
      ],
      "name": "tokenURI",
      "outputs": [
        {
          "internalType": "string",
          "name": "",
          "type": "string"
        }
      ],
      "stateMutability": "view",
      "type": "function"
    },
    {
      "inputs": [],
      "name": "totalSupply",
      "outputs": [
        {
          "internalType": "uint256",
          "name": "",
          "type": "uint256"
        }
      ],
      "stateMutability": "view",
      "type": "function"
    },
    {
      "inputs": [
        {
          "internalType": "address",
          "name": "from",
          "type": "address"
        },
        {
          "internalType": "address",
          "name": "to",
          "type": "address"
        },
        {
          "internalType": "uint256",
          "name": "tokenId",
          "type": "uint256"
        }
      ],
      "name": "transferFrom",
      "outputs": [],
      "stateMutability": "nonpayable",
      "type": "function"
    },
    {
      "inputs": [
        {
          "internalType": "address",
          "name": "newOwner",
          "type": "address"
        }
      ],
      "name": "transferOwnership",
      "outputs": [],
      "stateMutability": "nonpayable",
      "type": "function"
    }
  ],
  "bytecode": "0x60806040526000600c60006101000a81548160ff0219169083151502179055506000600c60016101000a81548160ff0219169083151502179055506000601160006101000a81548160ff0219169083151502179055503480156200006257600080fd5b5060405162004e0938038062004e09833981810160405281019062000088919062000377565b6040518060400160405280600381526020017f504d5600000000000000000000000000000000000000000000000000000000008152506040518060400160405280600681526020017f504d56544b4e000000000000000000000000000000000000000000000000000081525081600090805190602001906200010c9291906200023e565b508060019080519060200190620001259291906200023e565b505050620001486200013c6200017060201b60201c565b6200017860201b60201c565b81600b819055508060109080519060200190620001679291906200023e565b50505062000565565b600033905090565b6000600a60009054906101000a900473ffffffffffffffffffffffffffffffffffffffff16905081600a60006101000a81548173ffffffffffffffffffffffffffffffffffffffff021916908373ffffffffffffffffffffffffffffffffffffffff1602179055508173ffffffffffffffffffffffffffffffffffffffff168173ffffffffffffffffffffffffffffffffffffffff167f8be0079c531659141344cd1fd0a4f28419497f9722a3daafe3b4186f6b6457e060405160405180910390a35050565b8280546200024c9062000470565b90600052602060002090601f016020900481019282620002705760008555620002bc565b82601f106200028b57805160ff1916838001178555620002bc565b82800160010185558215620002bc579182015b82811115620002bb5782518255916020019190600101906200029e565b5b509050620002cb9190620002cf565b5090565b5b80821115620002ea576000816000905550600101620002d0565b5090565b600062000305620002ff84620003fa565b620003d1565b9050828152602081018484840111156200031e57600080fd5b6200032b8482856200043a565b509392505050565b60008151905062000344816200054b565b92915050565b600082601f8301126200035c57600080fd5b81516200036e848260208601620002ee565b91505092915050565b600080604083850312156200038b57600080fd5b60006200039b8582860162000333565b925050602083015167ffffffffffffffff811115620003b957600080fd5b620003c7858286016200034a565b9150509250929050565b6000620003dd620003f0565b9050620003eb8282620004a6565b919050565b6000604051905090565b600067ffffffffffffffff8211156200041857620004176200050b565b5b62000423826200053a565b9050602081019050919050565b6000819050919050565b60005b838110156200045a5780820151818401526020810190506200043d565b838111156200046a576000848401525b50505050565b600060028204905060018216806200048957607f821691505b60208210811415620004a0576200049f620004dc565b5b50919050565b620004b1826200053a565b810181811067ffffffffffffffff82111715620004d357620004d26200050b565b5b80604052505050565b7f4e487b7100000000000000000000000000000000000000000000000000000000600052602260045260246000fd5b7f4e487b7100000000000000000000000000000000000000000000000000000000600052604160045260246000fd5b6000601f19601f8301169050919050565b620005568162000430565b81146200056257600080fd5b50565b61489480620005756000396000f3fe6080604052600436106101d85760003560e01c80636f8d930511610102578063c54e73e311610095578063e985e9c511610064578063e985e9c5146106a0578063ebf0c717146106dd578063f2fde38b14610708578063f51f96dd14610731576101d8565b8063c54e73e3146105e6578063c87b56dd1461060f578063d5abeb011461064c578063dab5f34014610677576101d8565b806395d89b41116100d157806395d89b411461054d578063a0712d6814610578578063a22cb46514610594578063b88d4fde146105bd576101d8565b80636f8d9305146104a557806370a08231146104ce578063715018a61461050b5780638da5cb5b14610522576101d8565b80632f745c591161017a5780634f6ccce7116101495780634f6ccce7146103d557806353135ca0146104125780636352211e1461043d57806368428a1b1461047a576101d8565b80632f745c59146103285780633c14a2de1461036557806342842e0e14610381578063453c2310146103aa576101d8565b8063095ea7b3116101b6578063095ea7b31461028257806318160ddd146102ab5780631d2e5a3a146102d657806323b872dd146102ff576101d8565b806301ffc9a7146101dd57806306fdde031461021a578063081812fc14610245575b600080fd5b3480156101e957600080fd5b5061020460048036038101906101ff91906131db565b61075c565b604051610211919061391c565b60405180910390f35b34801561022657600080fd5b5061022f6107d6565b60405161023c9190613952565b60405180910390f35b34801561025157600080fd5b5061026c6004803603810190610267919061322d565b610868565b60405161027991906138b5565b60405180910390f35b34801561028e57600080fd5b506102a960048036038101906102a491906130f5565b6108ed565b005b3480156102b757600080fd5b506102c0610a05565b6040516102cd9190613cf4565b60405180910390f35b3480156102e257600080fd5b506102fd60048036038101906102f89190613131565b610a12565b005b34801561030b57600080fd5b5061032660048036038101906103219190612fef565b610aab565b005b34801561033457600080fd5b5061034f600480360381019061034a91906130f5565b610b0b565b60405161035c9190613cf4565b60405180910390f35b61037f600480360381019061037a9190613256565b610bb0565b005b34801561038d57600080fd5b506103a860048036038101906103a39190612fef565b610e87565b005b3480156103b657600080fd5b506103bf610ea7565b6040516103cc9190613cf4565b60405180910390f35b3480156103e157600080fd5b506103fc60048036038101906103f7919061322d565b610eac565b6040516104099190613cf4565b60405180910390f35b34801561041e57600080fd5b50610427610f43565b604051610434919061391c565b60405180910390f35b34801561044957600080fd5b50610464600480360381019061045f919061322d565b610f56565b60405161047191906138b5565b60405180910390f35b34801561048657600080fd5b5061048f611008565b60405161049c919061391c565b60405180910390f35b3480156104b157600080fd5b506104cc60048036038101906104c7919061315a565b61101b565b005b3480156104da57600080fd5b506104f560048036038101906104f09190612f8a565b61110e565b6040516105029190613cf4565b60405180910390f35b34801561051757600080fd5b506105206111c6565b005b34801561052e57600080fd5b5061053761124e565b60405161054491906138b5565b60405180910390f35b34801561055957600080fd5b50610562611278565b60405161056f9190613952565b60405180910390f35b610592600480360381019061058d919061322d565b61130a565b005b3480156105a057600080fd5b506105bb60048036038101906105b691906130b9565b611577565b005b3480156105c957600080fd5b506105e460048036038101906105df919061303e565b6116f8565b005b3480156105f257600080fd5b5061060d60048036038101906106089190613131565b61175a565b005b34801561061b57600080fd5b506106366004803603810190610631919061322d565b6117f3565b6040516106439190613952565b60405180910390f35b34801561065857600080fd5b5061066161191e565b60405161066e9190613cf4565b60405180910390f35b34801561068357600080fd5b5061069e600480360381019061069991906131b2565b611923565b005b3480156106ac57600080fd5b506106c760048036038101906106c29190612fb3565b6119f0565b6040516106d4919061391c565b60405180910390f35b3480156106e957600080fd5b506106f2611a84565b6040516106ff9190613937565b60405180910390f35b34801561071457600080fd5b5061072f600480360381019061072a9190612f8a565b611a8a565b005b34801561073d57600080fd5b50610746611b82565b6040516107539190613cf4565b60405180910390f35b60007f780e9d63000000000000000000000000000000000000000000000000000000007bffffffffffffffffffffffffffffffffffffffffffffffffffffffff1916827bffffffffffffffffffffffffffffffffffffffffffffffffffffffff191614806107cf57506107ce82611b8d565b5b9050919050565b6060600080546107e590613f92565b80601f016020809104026020016040519081016040528092919081815260200182805461081190613f92565b801561085e5780601f106108335761010080835404028352916020019161085e565b820191906000526020600020905b81548152906001019060200180831161084157829003601f168201915b5050505050905090565b600061087382611c6f565b6108b2576040517f08c379a00000000000000000000000000000000000000000000000000000000081526004016108a990613b74565b60405180910390fd5b6004600083815260200190815260200160002060009054906101000a900473ffffffffffffffffffffffffffffffffffffffff169050919050565b60006108f882610f56565b90508073ffffffffffffffffffffffffffffffffffffffff168373ffffffffffffffffffffffffffffffffffffffff161415610969576040517f08c379a000000000000000000000000000000000000000000000000000000000815260040161096090613bf4565b60405180910390fd5b8073ffffffffffffffffffffffffffffffffffffffff16610988611cdb565b73ffffffffffffffffffffffffffffffffffffffff1614806109b757506109b6816109b1611cdb565b6119f0565b5b6109f6576040517f08c379a00000000000000000000000000000000000000000000000000000000081526004016109ed90613af4565b60405180910390fd5b610a008383611ce3565b505050565b6000600880549050905090565b610a1a611cdb565b73ffffffffffffffffffffffffffffffffffffffff16610a3861124e565b73ffffffffffffffffffffffffffffffffffffffff1614610a8e576040517f08c379a0000000000000000000000000000000000000000000000000000000008152600401610a8590613b94565b60405180910390fd5b80600c60016101000a81548160ff02191690831515021790555050565b610abc610ab6611cdb565b82611d9c565b610afb576040517f08c379a0000000000000000000000000000000000000000000000000000000008152600401610af290613c14565b60405180910390fd5b610b06838383611e7a565b505050565b6000610b168361110e565b8210610b57576040517f08c379a0000000000000000000000000000000000000000000000000000000008152600401610b4e90613994565b60405180910390fd5b600660008473ffffffffffffffffffffffffffffffffffffffff1673ffffffffffffffffffffffffffffffffffffffff168152602001908152602001600020600083815260200190815260200160002054905092915050565b600c60009054906101000a900460ff16610bff576040517f08c379a0000000000000000000000000000000000000000000000000000000008152600401610bf690613c94565b60405180910390fd5b600c60019054906101000a900460ff1615610c4f576040517f08c379a0000000000000000000000000000000000000000000000000000000008152600401610c4690613bd4565b60405180910390fd5b610ccf600b543386604051602001610c68929190613839565b60405160208183030381529060405280519060200120858580806020026020016040519081016040528093929190818152602001838360200280828437600081840152601f19601f820116905080830192505050505050506120d69092919063ffffffff16565b610d0e576040517f08c379a0000000000000000000000000000000000000000000000000000000008152600401610d05906139f4565b60405180910390fd5b8381600d60003373ffffffffffffffffffffffffffffffffffffffff1673ffffffffffffffffffffffffffffffffffffffff16815260200190815260200160002054610d5a9190613dbd565b1115610d9b576040517f08c379a0000000000000000000000000000000000000000000000000000000008152600401610d9290613c74565b60405180910390fd5b3466470de4df82000082610daf9190613e44565b14610def576040517f08c379a0000000000000000000000000000000000000000000000000000000008152600401610de690613a54565b60405180910390fd5b60005b81811015610e2a57610e17336001610e08610a05565b610e129190613dbd565b6121b2565b8080610e2290613ff5565b915050610df2565b5080600d60003373ffffffffffffffffffffffffffffffffffffffff1673ffffffffffffffffffffffffffffffffffffffff1681526020019081526020016000206000828254610e7a9190613dbd565b9250508190555050505050565b610ea2838383604051806020016040528060008152506116f8565b505050565b600a81565b6000610eb6610a05565b8210610ef7576040517f08c379a0000000000000000000000000000000000000000000000000000000008152600401610eee90613c34565b60405180910390fd5b60088281548110610f31577f4e487b7100000000000000000000000000000000000000000000000000000000600052603260045260246000fd5b90600052602060002001549050919050565b600c60009054906101000a900460ff1681565b6000806002600084815260200190815260200160002060009054906101000a900473ffffffffffffffffffffffffffffffffffffffff169050600073ffffffffffffffffffffffffffffffffffffffff168173ffffffffffffffffffffffffffffffffffffffff161415610fff576040517f08c379a0000000000000000000000000000000000000000000000000000000008152600401610ff690613b34565b60405180910390fd5b80915050919050565b600c60019054906101000a900460ff1681565b611023611cdb565b73ffffffffffffffffffffffffffffffffffffffff1661104161124e565b73ffffffffffffffffffffffffffffffffffffffff1614611097576040517f08c379a000000000000000000000000000000000000000000000000000000000815260040161108e90613b94565b60405180910390fd5b600082829050116110dd576040517f08c379a00000000000000000000000000000000000000000000000000000000081526004016110d490613cd4565b60405180910390fd5b82601160006101000a81548160ff0219169083151502179055508181600f9190611108929190612d6d565b50505050565b60008073ffffffffffffffffffffffffffffffffffffffff168273ffffffffffffffffffffffffffffffffffffffff16141561117f576040517f08c379a000000000000000000000000000000000000000000000000000000000815260040161117690613b14565b60405180910390fd5b600360008373ffffffffffffffffffffffffffffffffffffffff1673ffffffffffffffffffffffffffffffffffffffff168152602001908152602001600020549050919050565b6111ce611cdb565b73ffffffffffffffffffffffffffffffffffffffff166111ec61124e565b73ffffffffffffffffffffffffffffffffffffffff1614611242576040517f08c379a000000000000000000000000000000000000000000000000000000000815260040161123990613b94565b60405180910390fd5b61124c60006121d0565b565b6000600a60009054906101000a900473ffffffffffffffffffffffffffffffffffffffff16905090565b60606001805461128790613f92565b80601f01602080910402602001604051908101604052809291908181526020018280546112b390613f92565b80156113005780601f106112d557610100808354040283529160200191611300565b820191906000526020600020905b8154815290600101906020018083116112e357829003601f168201915b5050505050905090565b600c60019054906101000a900460ff16611359576040517f08c379a000000000000000000000000000000000000000000000000000000000815260040161135090613c54565b60405180910390fd5b600c60009054906101000a900460ff16156113a9576040517f08c379a00000000000000000000000000000000000000000000000000000000081526004016113a090613a34565b60405180910390fd5b600a81600e60003373ffffffffffffffffffffffffffffffffffffffff1673ffffffffffffffffffffffffffffffffffffffff168152602001908152602001600020546113f69190613dbd565b1115611437576040517f08c379a000000000000000000000000000000000000000000000000000000000815260040161142e90613c74565b60405180910390fd5b601e611441610a05565b8261144c9190613dbd565b111561148d576040517f08c379a000000000000000000000000000000000000000000000000000000000815260040161148490613a74565b60405180910390fd5b3466470de4df820000826114a19190613e44565b11156114e2576040517f08c379a00000000000000000000000000000000000000000000000000000000081526004016114d990613a54565b60405180910390fd5b60005b8181101561151d5761150a3360016114fb610a05565b6115059190613dbd565b6121b2565b808061151590613ff5565b9150506114e5565b5080600e60003373ffffffffffffffffffffffffffffffffffffffff1673ffffffffffffffffffffffffffffffffffffffff168152602001908152602001600020600082825461156d9190613dbd565b9250508190555050565b61157f611cdb565b73ffffffffffffffffffffffffffffffffffffffff168273ffffffffffffffffffffffffffffffffffffffff1614156115ed576040517f08c379a00000000000000000000000000000000000000000000000000000000081526004016115e490613ab4565b60405180910390fd5b80600560006115fa611cdb565b73ffffffffffffffffffffffffffffffffffffffff1673ffffffffffffffffffffffffffffffffffffffff16815260200190815260200160002060008473ffffffffffffffffffffffffffffffffffffffff1673ffffffffffffffffffffffffffffffffffffffff16815260200190815260200160002060006101000a81548160ff0219169083151502179055508173ffffffffffffffffffffffffffffffffffffffff166116a7611cdb565b73ffffffffffffffffffffffffffffffffffffffff167f17307eab39ab6107e8899845ad3d59bd9653f200f220920489ca2b5937696c31836040516116ec919061391c565b60405180910390a35050565b611709611703611cdb565b83611d9c565b611748576040517f08c379a000000000000000000000000000000000000000000000000000000000815260040161173f90613c14565b60405180910390fd5b61175484848484612296565b50505050565b611762611cdb565b73ffffffffffffffffffffffffffffffffffffffff1661178061124e565b73ffffffffffffffffffffffffffffffffffffffff16146117d6576040517f08c379a00000000000000000000000000000000000000000000000000000000081526004016117cd90613b94565b60405180910390fd5b80600c60006101000a81548160ff02191690831515021790555050565b60606117fe82611c6f565b61183d576040517f08c379a000000000000000000000000000000000000000000000000000000000815260040161183490613974565b60405180910390fd5b60001515601160009054906101000a900460ff16151514156118eb576010805461186690613f92565b80601f016020809104026020016040519081016040528092919081815260200182805461189290613f92565b80156118df5780601f106118b4576101008083540402835291602001916118df565b820191906000526020600020905b8154815290600101906020018083116118c257829003601f168201915b50505050509050611919565b600f6118f6836122f2565b604051602001611907929190613891565b60405160208183030381529060405290505b919050565b601e81565b61192b611cdb565b73ffffffffffffffffffffffffffffffffffffffff1661194961124e565b73ffffffffffffffffffffffffffffffffffffffff161461199f576040517f08c379a000000000000000000000000000000000000000000000000000000000815260040161199690613b94565b60405180910390fd5b6000602060ff16116119e6576040517f08c379a00000000000000000000000000000000000000000000000000000000081526004016119dd90613cb4565b60405180910390fd5b80600b8190555050565b6000600560008473ffffffffffffffffffffffffffffffffffffffff1673ffffffffffffffffffffffffffffffffffffffff16815260200190815260200160002060008373ffffffffffffffffffffffffffffffffffffffff1673ffffffffffffffffffffffffffffffffffffffff16815260200190815260200160002060009054906101000a900460ff16905092915050565b600b5481565b611a92611cdb565b73ffffffffffffffffffffffffffffffffffffffff16611ab061124e565b73ffffffffffffffffffffffffffffffffffffffff1614611b06576040517f08c379a0000000000000000000000000000000000000000000000000000000008152600401611afd90613b94565b60405180910390fd5b600073ffffffffffffffffffffffffffffffffffffffff168173ffffffffffffffffffffffffffffffffffffffff161415611b76576040517f08c379a0000000000000000000000000000000000000000000000000000000008152600401611b6d906139d4565b60405180910390fd5b611b7f816121d0565b50565b66470de4df82000081565b60007f80ac58cd000000000000000000000000000000000000000000000000000000007bffffffffffffffffffffffffffffffffffffffffffffffffffffffff1916827bffffffffffffffffffffffffffffffffffffffffffffffffffffffff19161480611c5857507f5b5e139f000000000000000000000000000000000000000000000000000000007bffffffffffffffffffffffffffffffffffffffffffffffffffffffff1916827bffffffffffffffffffffffffffffffffffffffffffffffffffffffff1916145b80611c685750611c678261249f565b5b9050919050565b60008073ffffffffffffffffffffffffffffffffffffffff166002600084815260200190815260200160002060009054906101000a900473ffffffffffffffffffffffffffffffffffffffff1673ffffffffffffffffffffffffffffffffffffffff1614159050919050565b600033905090565b816004600083815260200190815260200160002060006101000a81548173ffffffffffffffffffffffffffffffffffffffff021916908373ffffffffffffffffffffffffffffffffffffffff160217905550808273ffffffffffffffffffffffffffffffffffffffff16611d5683610f56565b73ffffffffffffffffffffffffffffffffffffffff167f8c5be1e5ebec7d5bd14f71427d1e84f3dd0314c0f7b2291e5b200ac8c7c3b92560405160405180910390a45050565b6000611da782611c6f565b611de6576040517f08c379a0000000000000000000000000000000000000000000000000000000008152600401611ddd90613ad4565b60405180910390fd5b6000611df183610f56565b90508073ffffffffffffffffffffffffffffffffffffffff168473ffffffffffffffffffffffffffffffffffffffff161480611e6057508373ffffffffffffffffffffffffffffffffffffffff16611e4884610868565b73ffffffffffffffffffffffffffffffffffffffff16145b80611e715750611e7081856119f0565b5b91505092915050565b8273ffffffffffffffffffffffffffffffffffffffff16611e9a82610f56565b73ffffffffffffffffffffffffffffffffffffffff1614611ef0576040517f08c379a0000000000000000000000000000000000000000000000000000000008152600401611ee790613bb4565b60405180910390fd5b600073ffffffffffffffffffffffffffffffffffffffff168273ffffffffffffffffffffffffffffffffffffffff161415611f60576040517f08c379a0000000000000000000000000000000000000000000000000000000008152600401611f5790613a94565b60405180910390fd5b611f6b838383612509565b611f76600082611ce3565b6001600360008573ffffffffffffffffffffffffffffffffffffffff1673ffffffffffffffffffffffffffffffffffffffff1681526020019081526020016000206000828254611fc69190613e9e565b925050819055506001600360008473ffffffffffffffffffffffffffffffffffffffff1673ffffffffffffffffffffffffffffffffffffffff168152602001908152602001600020600082825461201d9190613dbd565b92505081905550816002600083815260200190815260200160002060006101000a81548173ffffffffffffffffffffffffffffffffffffffff021916908373ffffffffffffffffffffffffffffffffffffffff160217905550808273ffffffffffffffffffffffffffffffffffffffff168473ffffffffffffffffffffffffffffffffffffffff167fddf252ad1be2c89b69c2b068fc378daa952ba7f163c4a11628f55a4df523b3ef60405160405180910390a4505050565b60008082905060005b85518110156121a4576000868281518110612123577f4e487b7100000000000000000000000000000000000000000000000000000000600052603260045260246000fd5b60200260200101519050808311612164578281604051602001612147929190613865565b604051602081830303815290604052805190602001209250612190565b8083604051602001612177929190613865565b6040516020818303038152906040528051906020012092505b50808061219c90613ff5565b9150506120df565b508381149150509392505050565b6121cc82826040518060200160405280600081525061261d565b5050565b6000600a60009054906101000a900473ffffffffffffffffffffffffffffffffffffffff16905081600a60006101000a81548173ffffffffffffffffffffffffffffffffffffffff021916908373ffffffffffffffffffffffffffffffffffffffff1602179055508173ffffffffffffffffffffffffffffffffffffffff168173ffffffffffffffffffffffffffffffffffffffff167f8be0079c531659141344cd1fd0a4f28419497f9722a3daafe3b4186f6b6457e060405160405180910390a35050565b6122a1848484611e7a565b6122ad84848484612678565b6122ec576040517f08c379a00000000000000000000000000000000000000000000000000000000081526004016122e3906139b4565b60405180910390fd5b50505050565b6060600082141561233a576040518060400160405280600181526020017f3000000000000000000000000000000000000000000000000000000000000000815250905061249a565b600082905060005b6000821461236c57808061235590613ff5565b915050600a826123659190613e13565b9150612342565b60008167ffffffffffffffff8111156123ae577f4e487b7100000000000000000000000000000000000000000000000000000000600052604160045260246000fd5b6040519080825280601f01601f1916602001820160405280156123e05781602001600182028036833780820191505090505b5090505b60008514612493576001826123f99190613e9e565b9150600a856124089190614076565b60306124149190613dbd565b60f81b818381518110612450577f4e487b7100000000000000000000000000000000000000000000000000000000600052603260045260246000fd5b60200101907effffffffffffffffffffffffffffffffffffffffffffffffffffffffffffff1916908160001a905350600a8561248c9190613e13565b94506123e4565b8093505050505b919050565b60007f01ffc9a7000000000000000000000000000000000000000000000000000000007bffffffffffffffffffffffffffffffffffffffffffffffffffffffff1916827bffffffffffffffffffffffffffffffffffffffffffffffffffffffff1916149050919050565b61251483838361280f565b600073ffffffffffffffffffffffffffffffffffffffff168373ffffffffffffffffffffffffffffffffffffffff1614156125575761255281612814565b612596565b8173ffffffffffffffffffffffffffffffffffffffff168373ffffffffffffffffffffffffffffffffffffffff161461259557612594838261285d565b5b5b600073ffffffffffffffffffffffffffffffffffffffff168273ffffffffffffffffffffffffffffffffffffffff1614156125d9576125d4816129ca565b612618565b8273ffffffffffffffffffffffffffffffffffffffff168273ffffffffffffffffffffffffffffffffffffffff1614612617576126168282612b0d565b5b5b505050565b6126278383612b8c565b6126346000848484612678565b612673576040517f08c379a000000000000000000000000000000000000000000000000000000000815260040161266a906139b4565b60405180910390fd5b505050565b60006126998473ffffffffffffffffffffffffffffffffffffffff16612d5a565b15612802578373ffffffffffffffffffffffffffffffffffffffff1663150b7a026126c2611cdb565b8786866040518563ffffffff1660e01b81526004016126e494939291906138d0565b602060405180830381600087803b1580156126fe57600080fd5b505af192505050801561272f57506040513d601f19601f8201168201806040525081019061272c9190613204565b60015b6127b2573d806000811461275f576040519150601f19603f3d011682016040523d82523d6000602084013e612764565b606091505b506000815114156127aa576040517f08c379a00000000000000000000000000000000000000000000000000000000081526004016127a1906139b4565b60405180910390fd5b805181602001fd5b63150b7a0260e01b7bffffffffffffffffffffffffffffffffffffffffffffffffffffffff1916817bffffffffffffffffffffffffffffffffffffffffffffffffffffffff191614915050612807565b600190505b949350505050565b505050565b6008805490506009600083815260200190815260200160002081905550600881908060018154018082558091505060019003906000526020600020016000909190919091505550565b6000600161286a8461110e565b6128749190613e9e565b9050600060076000848152602001908152602001600020549050818114612959576000600660008673ffffffffffffffffffffffffffffffffffffffff1673ffffffffffffffffffffffffffffffffffffffff168152602001908152602001600020600084815260200190815260200160002054905080600660008773ffffffffffffffffffffffffffffffffffffffff1673ffffffffffffffffffffffffffffffffffffffff168152602001908152602001600020600084815260200190815260200160002081905550816007600083815260200190815260200160002081905550505b6007600084815260200190815260200160002060009055600660008573ffffffffffffffffffffffffffffffffffffffff1673ffffffffffffffffffffffffffffffffffffffff16815260200190815260200160002060008381526020019081526020016000206000905550505050565b600060016008805490506129de9190613e9e565b9050600060096000848152602001908152602001600020549050600060088381548110612a34577f4e487b7100000000000000000000000000000000000000000000000000000000600052603260045260246000fd5b906000526020600020015490508060088381548110612a7c577f4e487b7100000000000000000000000000000000000000000000000000000000600052603260045260246000fd5b906000526020600020018190555081600960008381526020019081526020016000208190555060096000858152602001908152602001600020600090556008805480612af1577f4e487b7100000000000000000000000000000000000000000000000000000000600052603160045260246000fd5b6001900381819060005260206000200160009055905550505050565b6000612b188361110e565b905081600660008573ffffffffffffffffffffffffffffffffffffffff1673ffffffffffffffffffffffffffffffffffffffff168152602001908152602001600020600083815260200190815260200160002081905550806007600084815260200190815260200160002081905550505050565b600073ffffffffffffffffffffffffffffffffffffffff168273ffffffffffffffffffffffffffffffffffffffff161415612bfc576040517f08c379a0000000000000000000000000000000000000000000000000000000008152600401612bf390613b54565b60405180910390fd5b612c0581611c6f565b15612c45576040517f08c379a0000000000000000000000000000000000000000000000000000000008152600401612c3c90613a14565b60405180910390fd5b612c5160008383612509565b6001600360008473ffffffffffffffffffffffffffffffffffffffff1673ffffffffffffffffffffffffffffffffffffffff1681526020019081526020016000206000828254612ca19190613dbd565b92505081905550816002600083815260200190815260200160002060006101000a81548173ffffffffffffffffffffffffffffffffffffffff021916908373ffffffffffffffffffffffffffffffffffffffff160217905550808273ffffffffffffffffffffffffffffffffffffffff16600073ffffffffffffffffffffffffffffffffffffffff167fddf252ad1be2c89b69c2b068fc378daa952ba7f163c4a11628f55a4df523b3ef60405160405180910390a45050565b600080823b905060008111915050919050565b828054612d7990613f92565b90600052602060002090601f016020900481019282612d9b5760008555612de2565b82601f10612db457803560ff1916838001178555612de2565b82800160010185558215612de2579182015b82811115612de1578235825591602001919060010190612dc6565b5b509050612def9190612df3565b5090565b5b80821115612e0c576000816000905550600101612df4565b5090565b6000612e23612e1e84613d34565b613d0f565b905082815260208101848484011115612e3b57600080fd5b612e46848285613f50565b509392505050565b600081359050612e5d816147eb565b92915050565b60008083601f840112612e7557600080fd5b8235905067ffffffffffffffff811115612e8e57600080fd5b602083019150836020820283011115612ea657600080fd5b9250929050565b600081359050612ebc81614802565b92915050565b600081359050612ed181614819565b92915050565b600081359050612ee681614830565b92915050565b600081519050612efb81614830565b92915050565b600082601f830112612f1257600080fd5b8135612f22848260208601612e10565b91505092915050565b60008083601f840112612f3d57600080fd5b8235905067ffffffffffffffff811115612f5657600080fd5b602083019150836001820283011115612f6e57600080fd5b9250929050565b600081359050612f8481614847565b92915050565b600060208284031215612f9c57600080fd5b6000612faa84828501612e4e565b91505092915050565b60008060408385031215612fc657600080fd5b6000612fd485828601612e4e565b9250506020612fe585828601612e4e565b9150509250929050565b60008060006060848603121561300457600080fd5b600061301286828701612e4e565b935050602061302386828701612e4e565b925050604061303486828701612f75565b9150509250925092565b6000806000806080858703121561305457600080fd5b600061306287828801612e4e565b945050602061307387828801612e4e565b935050604061308487828801612f75565b925050606085013567ffffffffffffffff8111156130a157600080fd5b6130ad87828801612f01565b91505092959194509250565b600080604083850312156130cc57600080fd5b60006130da85828601612e4e565b92505060206130eb85828601612ead565b9150509250929050565b6000806040838503121561310857600080fd5b600061311685828601612e4e565b925050602061312785828601612f75565b9150509250929050565b60006020828403121561314357600080fd5b600061315184828501612ead565b91505092915050565b60008060006040848603121561316f57600080fd5b600061317d86828701612ead565b935050602084013567ffffffffffffffff81111561319a57600080fd5b6131a686828701612f2b565b92509250509250925092565b6000602082840312156131c457600080fd5b60006131d284828501612ec2565b91505092915050565b6000602082840312156131ed57600080fd5b60006131fb84828501612ed7565b91505092915050565b60006020828403121561321657600080fd5b600061322484828501612eec565b91505092915050565b60006020828403121561323f57600080fd5b600061324d84828501612f75565b91505092915050565b6000806000806060858703121561326c57600080fd5b600061327a87828801612f75565b945050602085013567ffffffffffffffff81111561329757600080fd5b6132a387828801612e63565b935093505060406132b687828801612f75565b91505092959194509250565b6132cb81613ed2565b82525050565b6132e26132dd82613ed2565b61403e565b82525050565b6132f181613ee4565b82525050565b61330081613ef0565b82525050565b61331761331282613ef0565b614050565b82525050565b600061332882613d7a565b6133328185613d90565b9350613342818560208601613f5f565b61334b81614163565b840191505092915050565b600061336182613d85565b61336b8185613da1565b935061337b818560208601613f5f565b61338481614163565b840191505092915050565b600061339a82613d85565b6133a48185613db2565b93506133b4818560208601613f5f565b80840191505092915050565b600081546133cd81613f92565b6133d78186613db2565b945060018216600081146133f2576001811461340357613436565b60ff19831686528186019350613436565b61340c85613d65565b60005b8381101561342e5781548189015260018201915060208101905061340f565b838801955050505b50505092915050565b600061344c601f83613da1565b915061345782614181565b602082019050919050565b600061346f602b83613da1565b915061347a826141aa565b604082019050919050565b6000613492603283613da1565b915061349d826141f9565b604082019050919050565b60006134b5602683613da1565b91506134c082614248565b604082019050919050565b60006134d8601083613da1565b91506134e382614297565b602082019050919050565b60006134fb601c83613da1565b9150613506826142c0565b602082019050919050565b600061351e601683613da1565b9150613529826142e9565b602082019050919050565b6000613541601883613da1565b915061354c82614312565b602082019050919050565b6000613564601883613da1565b915061356f8261433b565b602082019050919050565b6000613587602483613da1565b915061359282614364565b604082019050919050565b60006135aa601983613da1565b91506135b5826143b3565b602082019050919050565b60006135cd602c83613da1565b91506135d8826143dc565b604082019050919050565b60006135f0603883613da1565b91506135fb8261442b565b604082019050919050565b6000613613602a83613da1565b915061361e8261447a565b604082019050919050565b6000613636602983613da1565b9150613641826144c9565b604082019050919050565b6000613659602083613da1565b915061366482614518565b602082019050919050565b600061367c602c83613da1565b915061368782614541565b604082019050919050565b600061369f602083613da1565b91506136aa82614590565b602082019050919050565b60006136c2602983613da1565b91506136cd826145b9565b604082019050919050565b60006136e5601583613da1565b91506136f082614608565b602082019050919050565b6000613708602183613da1565b915061371382614631565b604082019050919050565b600061372b603183613da1565b915061373682614680565b604082019050919050565b600061374e602c83613da1565b9150613759826146cf565b604082019050919050565b6000613771600f83613da1565b915061377c8261471e565b602082019050919050565b6000613794601983613da1565b915061379f82614747565b602082019050919050565b60006137b7601283613da1565b91506137c282614770565b602082019050919050565b60006137da600e83613da1565b91506137e582614799565b602082019050919050565b60006137fd601683613da1565b9150613808826147c2565b602082019050919050565b61381c81613f46565b82525050565b61383361382e82613f46565b61406c565b82525050565b600061384582856132d1565b6014820191506138558284613822565b6020820191508190509392505050565b60006138718285613306565b6020820191506138818284613306565b6020820191508190509392505050565b600061389d82856133c0565b91506138a9828461338f565b91508190509392505050565b60006020820190506138ca60008301846132c2565b92915050565b60006080820190506138e560008301876132c2565b6138f260208301866132c2565b6138ff6040830185613813565b8181036060830152613911818461331d565b905095945050505050565b600060208201905061393160008301846132e8565b92915050565b600060208201905061394c60008301846132f7565b92915050565b6000602082019050818103600083015261396c8184613356565b905092915050565b6000602082019050818103600083015261398d8161343f565b9050919050565b600060208201905081810360008301526139ad81613462565b9050919050565b600060208201905081810360008301526139cd81613485565b9050919050565b600060208201905081810360008301526139ed816134a8565b9050919050565b60006020820190508181036000830152613a0d816134cb565b9050919050565b60006020820190508181036000830152613a2d816134ee565b9050919050565b60006020820190508181036000830152613a4d81613511565b9050919050565b60006020820190508181036000830152613a6d81613534565b9050919050565b60006020820190508181036000830152613a8d81613557565b9050919050565b60006020820190508181036000830152613aad8161357a565b9050919050565b60006020820190508181036000830152613acd8161359d565b9050919050565b60006020820190508181036000830152613aed816135c0565b9050919050565b60006020820190508181036000830152613b0d816135e3565b9050919050565b60006020820190508181036000830152613b2d81613606565b9050919050565b60006020820190508181036000830152613b4d81613629565b9050919050565b60006020820190508181036000830152613b6d8161364c565b9050919050565b60006020820190508181036000830152613b8d8161366f565b9050919050565b60006020820190508181036000830152613bad81613692565b9050919050565b60006020820190508181036000830152613bcd816136b5565b9050919050565b60006020820190508181036000830152613bed816136d8565b9050919050565b60006020820190508181036000830152613c0d816136fb565b9050919050565b60006020820190508181036000830152613c2d8161371e565b9050919050565b60006020820190508181036000830152613c4d81613741565b9050919050565b60006020820190508181036000830152613c6d81613764565b9050919050565b60006020820190508181036000830152613c8d81613787565b9050919050565b60006020820190508181036000830152613cad816137aa565b9050919050565b60006020820190508181036000830152613ccd816137cd565b9050919050565b60006020820190508181036000830152613ced816137f0565b9050919050565b6000602082019050613d096000830184613813565b92915050565b6000613d19613d2a565b9050613d258282613fc4565b919050565b6000604051905090565b600067ffffffffffffffff821115613d4f57613d4e614134565b5b613d5882614163565b9050602081019050919050565b60008190508160005260206000209050919050565b600081519050919050565b600081519050919050565b600082825260208201905092915050565b600082825260208201905092915050565b600081905092915050565b6000613dc882613f46565b9150613dd383613f46565b9250827fffffffffffffffffffffffffffffffffffffffffffffffffffffffffffffffff03821115613e0857613e076140a7565b5b828201905092915050565b6000613e1e82613f46565b9150613e2983613f46565b925082613e3957613e386140d6565b5b828204905092915050565b6000613e4f82613f46565b9150613e5a83613f46565b9250817fffffffffffffffffffffffffffffffffffffffffffffffffffffffffffffffff0483118215151615613e9357613e926140a7565b5b828202905092915050565b6000613ea982613f46565b9150613eb483613f46565b925082821015613ec757613ec66140a7565b5b828203905092915050565b6000613edd82613f26565b9050919050565b60008115159050919050565b6000819050919050565b60007fffffffff0000000000000000000000000000000000000000000000000000000082169050919050565b600073ffffffffffffffffffffffffffffffffffffffff82169050919050565b6000819050919050565b82818337600083830152505050565b60005b83811015613f7d578082015181840152602081019050613f62565b83811115613f8c576000848401525b50505050565b60006002820490506001821680613faa57607f821691505b60208210811415613fbe57613fbd614105565b5b50919050565b613fcd82614163565b810181811067ffffffffffffffff82111715613fec57613feb614134565b5b80604052505050565b600061400082613f46565b91507fffffffffffffffffffffffffffffffffffffffffffffffffffffffffffffffff821415614033576140326140a7565b5b600182019050919050565b60006140498261405a565b9050919050565b6000819050919050565b600061406582614174565b9050919050565b6000819050919050565b600061408182613f46565b915061408c83613f46565b92508261409c5761409b6140d6565b5b828206905092915050565b7f4e487b7100000000000000000000000000000000000000000000000000000000600052601160045260246000fd5b7f4e487b7100000000000000000000000000000000000000000000000000000000600052601260045260246000fd5b7f4e487b7100000000000000000000000000000000000000000000000000000000600052602260045260246000fd5b7f4e487b7100000000000000000000000000000000000000000000000000000000600052604160045260246000fd5b6000601f19601f8301169050919050565b60008160601b9050919050565b7f55524920717565727920666f72206e6f6e6578697374656e7420746f6b656e00600082015250565b7f455243373231456e756d657261626c653a206f776e657220696e646578206f7560008201527f74206f6620626f756e6473000000000000000000000000000000000000000000602082015250565b7f4552433732313a207472616e7366657220746f206e6f6e20455243373231526560008201527f63656976657220696d706c656d656e7465720000000000000000000000000000602082015250565b7f4f776e61626c653a206e6577206f776e657220697320746865207a65726f206160008201527f6464726573730000000000000000000000000000000000000000000000000000602082015250565b7f4e4f54204f4e2057484954454c49535400000000000000000000000000000000600082015250565b7f4552433732313a20746f6b656e20616c7265616479206d696e74656400000000600082015250565b7f50524553414c45204f4e4c59205249474854204e4f5700000000000000000000600082015250565b7f494e434f5252454354205041594d454e5420414d4f554e540000000000000000600082015250565b7f4e4f5420454e4f554748204c45465420494e2053544f434b0000000000000000600082015250565b7f4552433732313a207472616e7366657220746f20746865207a65726f2061646460008201527f7265737300000000000000000000000000000000000000000000000000000000602082015250565b7f4552433732313a20617070726f766520746f2063616c6c657200000000000000600082015250565b7f4552433732313a206f70657261746f7220717565727920666f72206e6f6e657860008201527f697374656e7420746f6b656e0000000000000000000000000000000000000000602082015250565b7f4552433732313a20617070726f76652063616c6c6572206973206e6f74206f7760008201527f6e6572206e6f7220617070726f76656420666f7220616c6c0000000000000000602082015250565b7f4552433732313a2062616c616e636520717565727920666f7220746865207a6560008201527f726f206164647265737300000000000000000000000000000000000000000000602082015250565b7f4552433732313a206f776e657220717565727920666f72206e6f6e657869737460008201527f656e7420746f6b656e0000000000000000000000000000000000000000000000602082015250565b7f4552433732313a206d696e7420746f20746865207a65726f2061646472657373600082015250565b7f4552433732313a20617070726f76656420717565727920666f72206e6f6e657860008201527f697374656e7420746f6b656e0000000000000000000000000000000000000000602082015250565b7f4f776e61626c653a2063616c6c6572206973206e6f7420746865206f776e6572600082015250565b7f4552433732313a207472616e73666572206f6620746f6b656e2074686174206960008201527f73206e6f74206f776e0000000000000000000000000000000000000000000000602082015250565b7f53414c4520414354495645205249474854204e4f570000000000000000000000600082015250565b7f4552433732313a20617070726f76616c20746f2063757272656e74206f776e6560008201527f7200000000000000000000000000000000000000000000000000000000000000602082015250565b7f4552433732313a207472616e736665722063616c6c6572206973206e6f74206f60008201527f776e6572206e6f7220617070726f766564000000000000000000000000000000602082015250565b7f455243373231456e756d657261626c653a20676c6f62616c20696e646578206f60008201527f7574206f6620626f756e64730000000000000000000000000000000000000000602082015250565b7f53414c45204e4f54204143544956450000000000000000000000000000000000600082015250565b7f4d494e54494e47204d4f5245205448414e20414c4c4f57454400000000000000600082015250565b7f50524553414c45204e4f54204143544956450000000000000000000000000000600082015250565b7f5f726f6f7420697320656d707479000000000000000000000000000000000000600082015250565b7f5f746f6b656e4261736555524920697320656d70747900000000000000000000600082015250565b6147f481613ed2565b81146147ff57600080fd5b50565b61480b81613ee4565b811461481657600080fd5b50565b61482281613ef0565b811461482d57600080fd5b50565b61483981613efa565b811461484457600080fd5b50565b61485081613f46565b811461485b57600080fd5b5056fea2646970667358221220e3b27eec467a78f5b3c339530439043724a7a18b81c1915f19d9f3505bd6536f64736f6c63430008040033",
  "linkReferences": {},
  "deployedLinkReferences": {}
}