{
  "_format": "hh-sol-artifact-1",
  "contractName": "PMV",
  "sourceName": "contracts/PMV.sol",
  "abi": [
    {
      "inputs": [
        {
          "internalType": "bytes32",
          "name": "merkleroot",
          "type": "bytes32"
        },
        {
          "internalType": "string",
          "name": "uri",
          "type": "string"
        },
        {
          "internalType": "bytes32",
          "name": "_rootMintFree",
          "type": "bytes32"
        },
        {
          "internalType": "bytes32",
          "name": "_provenanceHash",
          "type": "bytes32"
        },
        {
          "internalType": "address",
          "name": "vrfCoordinator",
          "type": "address"
        },
        {
          "internalType": "address",
          "name": "link",
          "type": "address"
        },
        {
          "internalType": "bytes32",
          "name": "keyhash",
          "type": "bytes32"
        },
        {
          "internalType": "uint256",
          "name": "fee",
          "type": "uint256"
        },
        {
          "internalType": "address",
          "name": "_multiSigWallet",
          "type": "address"
        }
      ],
      "stateMutability": "nonpayable",
      "type": "constructor"
    },
    {
      "anonymous": false,
      "inputs": [
        {
          "indexed": true,
          "internalType": "address",
          "name": "owner",
          "type": "address"
        },
        {
          "indexed": true,
          "internalType": "address",
          "name": "approved",
          "type": "address"
        },
        {
          "indexed": true,
          "internalType": "uint256",
          "name": "tokenId",
          "type": "uint256"
        }
      ],
      "name": "Approval",
      "type": "event"
    },
    {
      "anonymous": false,
      "inputs": [
        {
          "indexed": true,
          "internalType": "address",
          "name": "owner",
          "type": "address"
        },
        {
          "indexed": true,
          "internalType": "address",
          "name": "operator",
          "type": "address"
        },
        {
          "indexed": false,
          "internalType": "bool",
          "name": "approved",
          "type": "bool"
        }
      ],
      "name": "ApprovalForAll",
      "type": "event"
    },
    {
      "anonymous": false,
      "inputs": [
        {
          "indexed": true,
          "internalType": "address",
          "name": "previousOwner",
          "type": "address"
        },
        {
          "indexed": true,
          "internalType": "address",
          "name": "newOwner",
          "type": "address"
        }
      ],
      "name": "OwnershipTransferred",
      "type": "event"
    },
    {
      "anonymous": false,
      "inputs": [
        {
          "indexed": true,
          "internalType": "address",
          "name": "from",
          "type": "address"
        },
        {
          "indexed": true,
          "internalType": "address",
          "name": "to",
          "type": "address"
        },
        {
          "indexed": true,
          "internalType": "uint256",
          "name": "tokenId",
          "type": "uint256"
        }
      ],
      "name": "Transfer",
      "type": "event"
    },
    {
      "inputs": [
        {
          "internalType": "uint256",
          "name": "tokenId",
          "type": "uint256"
        }
      ],
      "name": "_tokenURI",
      "outputs": [
        {
          "internalType": "string",
          "name": "",
          "type": "string"
        }
      ],
      "stateMutability": "view",
      "type": "function"
    },
    {
      "inputs": [
        {
          "internalType": "address",
          "name": "to",
          "type": "address"
        },
        {
          "internalType": "uint256",
          "name": "tokenId",
          "type": "uint256"
        }
      ],
      "name": "approve",
      "outputs": [],
      "stateMutability": "nonpayable",
      "type": "function"
    },
    {
      "inputs": [
        {
          "internalType": "address",
          "name": "owner",
          "type": "address"
        }
      ],
      "name": "balanceOf",
      "outputs": [
        {
          "internalType": "uint256",
          "name": "",
          "type": "uint256"
        }
      ],
      "stateMutability": "view",
      "type": "function"
    },
    {
      "inputs": [],
      "name": "freeMintAllowed",
      "outputs": [
        {
          "internalType": "bool",
          "name": "",
          "type": "bool"
        }
      ],
      "stateMutability": "view",
      "type": "function"
    },
    {
      "inputs": [],
      "name": "generateRandomOffset",
      "outputs": [
        {
          "internalType": "bytes32",
          "name": "requestId",
          "type": "bytes32"
        }
      ],
      "stateMutability": "nonpayable",
      "type": "function"
    },
    {
      "inputs": [
        {
          "internalType": "uint256",
          "name": "tokenId",
          "type": "uint256"
        }
      ],
      "name": "getApproved",
      "outputs": [
        {
          "internalType": "address",
          "name": "",
          "type": "address"
        }
      ],
      "stateMutability": "view",
      "type": "function"
    },
    {
      "inputs": [
        {
          "internalType": "address",
          "name": "owner",
          "type": "address"
        },
        {
          "internalType": "address",
          "name": "operator",
          "type": "address"
        }
      ],
      "name": "isApprovedForAll",
      "outputs": [
        {
          "internalType": "bool",
          "name": "",
          "type": "bool"
        }
      ],
      "stateMutability": "view",
      "type": "function"
    },
    {
      "inputs": [],
      "name": "letContractMint",
      "outputs": [
        {
          "internalType": "bool",
          "name": "",
          "type": "bool"
        }
      ],
      "stateMutability": "view",
      "type": "function"
    },
    {
      "inputs": [],
      "name": "maxPerTransaction",
      "outputs": [
        {
          "internalType": "uint256",
          "name": "",
          "type": "uint256"
        }
      ],
      "stateMutability": "view",
      "type": "function"
    },
    {
      "inputs": [],
      "name": "maxSupply",
      "outputs": [
        {
          "internalType": "uint256",
          "name": "",
          "type": "uint256"
        }
      ],
      "stateMutability": "view",
      "type": "function"
    },
    {
      "inputs": [
        {
          "internalType": "uint256",
          "name": "tokenQuantity",
          "type": "uint256"
        }
      ],
      "name": "mint",
      "outputs": [],
      "stateMutability": "payable",
      "type": "function"
    },
    {
      "inputs": [
        {
          "internalType": "uint256",
          "name": "allowance",
          "type": "uint256"
        },
        {
          "internalType": "bytes32[]",
          "name": "proof",
          "type": "bytes32[]"
        },
        {
          "internalType": "uint256",
          "name": "tokenQuantity",
          "type": "uint256"
        }
      ],
      "name": "mintFree",
      "outputs": [],
      "stateMutability": "nonpayable",
      "type": "function"
    },
    {
      "inputs": [
        {
          "internalType": "uint256",
          "name": "allowance",
          "type": "uint256"
        },
        {
          "internalType": "bytes32[]",
          "name": "proof",
          "type": "bytes32[]"
        },
        {
          "internalType": "uint256",
          "name": "tokenQuantity",
          "type": "uint256"
        }
      ],
      "name": "mintPresale",
      "outputs": [],
      "stateMutability": "payable",
      "type": "function"
    },
    {
      "inputs": [],
      "name": "multiSigWallet",
      "outputs": [
        {
          "internalType": "address",
          "name": "",
          "type": "address"
        }
      ],
      "stateMutability": "view",
      "type": "function"
    },
    {
      "inputs": [],
      "name": "name",
      "outputs": [
        {
          "internalType": "string",
          "name": "",
          "type": "string"
        }
      ],
      "stateMutability": "view",
      "type": "function"
    },
    {
      "inputs": [],
      "name": "offset",
      "outputs": [
        {
          "internalType": "uint256",
          "name": "",
          "type": "uint256"
        }
      ],
      "stateMutability": "view",
      "type": "function"
    },
    {
      "inputs": [],
      "name": "offsetRequested",
      "outputs": [
        {
          "internalType": "bool",
          "name": "",
          "type": "bool"
        }
      ],
      "stateMutability": "view",
      "type": "function"
    },
    {
      "inputs": [],
      "name": "owner",
      "outputs": [
        {
          "internalType": "address",
          "name": "",
          "type": "address"
        }
      ],
      "stateMutability": "view",
      "type": "function"
    },
    {
      "inputs": [
        {
          "internalType": "uint256",
          "name": "tokenQuantity",
          "type": "uint256"
        }
      ],
      "name": "ownerMint",
      "outputs": [],
      "stateMutability": "nonpayable",
      "type": "function"
    },
    {
      "inputs": [],
      "name": "ownerMintBuffer",
      "outputs": [
        {
          "internalType": "uint256",
          "name": "",
          "type": "uint256"
        }
      ],
      "stateMutability": "view",
      "type": "function"
    },
    {
      "inputs": [
        {
          "internalType": "uint256",
          "name": "tokenId",
          "type": "uint256"
        }
      ],
      "name": "ownerOf",
      "outputs": [
        {
          "internalType": "address",
          "name": "",
          "type": "address"
        }
      ],
      "stateMutability": "view",
      "type": "function"
    },
    {
      "inputs": [],
      "name": "presaleActive",
      "outputs": [
        {
          "internalType": "bool",
          "name": "",
          "type": "bool"
        }
      ],
      "stateMutability": "view",
      "type": "function"
    },
    {
      "inputs": [],
      "name": "presalePrice",
      "outputs": [
        {
          "internalType": "uint256",
          "name": "",
          "type": "uint256"
        }
      ],
      "stateMutability": "view",
      "type": "function"
    },
    {
      "inputs": [],
      "name": "provenanceHash",
      "outputs": [
        {
          "internalType": "bytes32",
          "name": "",
          "type": "bytes32"
        }
      ],
      "stateMutability": "view",
      "type": "function"
    },
    {
      "inputs": [
        {
          "internalType": "bytes32",
          "name": "requestId",
          "type": "bytes32"
        },
        {
          "internalType": "uint256",
          "name": "randomness",
          "type": "uint256"
        }
      ],
      "name": "rawFulfillRandomness",
      "outputs": [],
      "stateMutability": "nonpayable",
      "type": "function"
    },
    {
      "inputs": [],
      "name": "renounceOwnership",
      "outputs": [],
      "stateMutability": "nonpayable",
      "type": "function"
    },
    {
      "inputs": [],
      "name": "root",
      "outputs": [
        {
          "internalType": "bytes32",
          "name": "",
          "type": "bytes32"
        }
      ],
      "stateMutability": "view",
      "type": "function"
    },
    {
      "inputs": [],
      "name": "rootMintFree",
      "outputs": [
        {
          "internalType": "bytes32",
          "name": "",
          "type": "bytes32"
        }
      ],
      "stateMutability": "view",
      "type": "function"
    },
    {
      "inputs": [
        {
          "internalType": "address",
          "name": "from",
          "type": "address"
        },
        {
          "internalType": "address",
          "name": "to",
          "type": "address"
        },
        {
          "internalType": "uint256",
          "name": "tokenId",
          "type": "uint256"
        }
      ],
      "name": "safeTransferFrom",
      "outputs": [],
      "stateMutability": "nonpayable",
      "type": "function"
    },
    {
      "inputs": [
        {
          "internalType": "address",
          "name": "from",
          "type": "address"
        },
        {
          "internalType": "address",
          "name": "to",
          "type": "address"
        },
        {
          "internalType": "uint256",
          "name": "tokenId",
          "type": "uint256"
        },
        {
          "internalType": "bytes",
          "name": "_data",
          "type": "bytes"
        }
      ],
      "name": "safeTransferFrom",
      "outputs": [],
      "stateMutability": "nonpayable",
      "type": "function"
    },
    {
      "inputs": [],
      "name": "saleActive",
      "outputs": [
        {
          "internalType": "bool",
          "name": "",
          "type": "bool"
        }
      ],
      "stateMutability": "view",
      "type": "function"
    },
    {
      "inputs": [],
      "name": "salePrice",
      "outputs": [
        {
          "internalType": "uint256",
          "name": "",
          "type": "uint256"
        }
      ],
      "stateMutability": "view",
      "type": "function"
    },
    {
      "inputs": [
        {
          "internalType": "address",
          "name": "operator",
          "type": "address"
        },
        {
          "internalType": "bool",
          "name": "approved",
          "type": "bool"
        }
      ],
      "name": "setApprovalForAll",
      "outputs": [],
      "stateMutability": "nonpayable",
      "type": "function"
    },
    {
      "inputs": [
        {
          "internalType": "bool",
          "name": "_freeMintAllowed",
          "type": "bool"
        }
      ],
      "name": "setFreeMintAllowed",
      "outputs": [],
      "stateMutability": "nonpayable",
      "type": "function"
    },
    {
      "inputs": [
        {
          "internalType": "bool",
          "name": "_letContractMint",
          "type": "bool"
        }
      ],
      "name": "setLetContractMint",
      "outputs": [],
      "stateMutability": "nonpayable",
      "type": "function"
    },
    {
      "inputs": [
        {
          "internalType": "uint256",
          "name": "_maxPerTransaction",
          "type": "uint256"
        }
      ],
      "name": "setMaxPerTransaction",
      "outputs": [],
      "stateMutability": "nonpayable",
      "type": "function"
    },
    {
      "inputs": [
        {
          "internalType": "uint256",
          "name": "_ownerMintBuffer",
          "type": "uint256"
        }
      ],
      "name": "setOwnerMintBuffer",
      "outputs": [],
      "stateMutability": "nonpayable",
      "type": "function"
    },
    {
      "inputs": [
        {
          "internalType": "bool",
          "name": "_presaleStatus",
          "type": "bool"
        }
      ],
      "name": "setPresale",
      "outputs": [],
      "stateMutability": "nonpayable",
      "type": "function"
    },
    {
      "inputs": [
        {
          "internalType": "uint256",
          "name": "_presalePrice",
          "type": "uint256"
        }
      ],
      "name": "setPresalePrice",
      "outputs": [],
      "stateMutability": "nonpayable",
      "type": "function"
    },
    {
      "inputs": [
        {
          "internalType": "uint256",
          "name": "_salePrice",
          "type": "uint256"
        }
      ],
      "name": "setPrice",
      "outputs": [],
      "stateMutability": "nonpayable",
      "type": "function"
    },
    {
      "inputs": [
        {
          "internalType": "bytes32",
          "name": "_root",
          "type": "bytes32"
        }
      ],
      "name": "setRoot",
      "outputs": [],
      "stateMutability": "nonpayable",
      "type": "function"
    },
    {
      "inputs": [
        {
          "internalType": "bytes32",
          "name": "_root",
          "type": "bytes32"
        }
      ],
      "name": "setRootMintFree",
      "outputs": [],
      "stateMutability": "nonpayable",
      "type": "function"
    },
    {
      "inputs": [
        {
          "internalType": "bool",
          "name": "_saleStatus",
          "type": "bool"
        }
      ],
      "name": "setSale",
      "outputs": [],
      "stateMutability": "nonpayable",
      "type": "function"
    },
    {
      "inputs": [
        {
          "internalType": "bool",
          "name": "_revealed",
          "type": "bool"
        },
        {
          "internalType": "string",
          "name": "_tokenBaseURI",
          "type": "string"
        }
      ],
      "name": "setURIStatus",
      "outputs": [],
      "stateMutability": "nonpayable",
      "type": "function"
    },
    {
      "inputs": [
        {
          "internalType": "bytes4",
          "name": "interfaceId",
          "type": "bytes4"
        }
      ],
      "name": "supportsInterface",
      "outputs": [
        {
          "internalType": "bool",
          "name": "",
          "type": "bool"
        }
      ],
      "stateMutability": "view",
      "type": "function"
    },
    {
      "inputs": [],
      "name": "symbol",
      "outputs": [
        {
          "internalType": "string",
          "name": "",
          "type": "string"
        }
      ],
      "stateMutability": "view",
      "type": "function"
    },
    {
      "inputs": [
        {
          "internalType": "uint256",
          "name": "index",
          "type": "uint256"
        }
      ],
      "name": "tokenByIndex",
      "outputs": [
        {
          "internalType": "uint256",
          "name": "",
          "type": "uint256"
        }
      ],
      "stateMutability": "view",
      "type": "function"
    },
    {
      "inputs": [
        {
          "internalType": "address",
          "name": "owner",
          "type": "address"
        },
        {
          "internalType": "uint256",
          "name": "index",
          "type": "uint256"
        }
      ],
      "name": "tokenOfOwnerByIndex",
      "outputs": [
        {
          "internalType": "uint256",
          "name": "",
          "type": "uint256"
        }
      ],
      "stateMutability": "view",
      "type": "function"
    },
    {
      "inputs": [
        {
          "internalType": "uint256",
          "name": "tokenId",
          "type": "uint256"
        }
      ],
      "name": "tokenURI",
      "outputs": [
        {
          "internalType": "string",
          "name": "",
          "type": "string"
        }
      ],
      "stateMutability": "view",
      "type": "function"
    },
    {
      "inputs": [
        {
          "internalType": "address",
          "name": "owner",
          "type": "address"
        }
      ],
      "name": "tokensOfOwnerOffChain",
      "outputs": [
        {
          "internalType": "uint256[]",
          "name": "",
          "type": "uint256[]"
        }
      ],
      "stateMutability": "view",
      "type": "function"
    },
    {
      "inputs": [],
      "name": "totalSupply",
      "outputs": [
        {
          "internalType": "uint256",
          "name": "",
          "type": "uint256"
        }
      ],
      "stateMutability": "view",
      "type": "function"
    },
    {
      "inputs": [
        {
          "internalType": "address",
          "name": "from",
          "type": "address"
        },
        {
          "internalType": "address",
          "name": "to",
          "type": "address"
        },
        {
          "internalType": "uint256",
          "name": "tokenId",
          "type": "uint256"
        }
      ],
      "name": "transferFrom",
      "outputs": [],
      "stateMutability": "nonpayable",
      "type": "function"
    },
    {
      "inputs": [
        {
          "internalType": "address",
          "name": "newOwner",
          "type": "address"
        }
      ],
      "name": "transferOwnership",
      "outputs": [],
      "stateMutability": "nonpayable",
      "type": "function"
    },
    {
      "inputs": [],
      "name": "withdraw",
      "outputs": [],
      "stateMutability": "nonpayable",
      "type": "function"
    }
  ],
  "bytecode": "0x60c0604052600a600b5567016345785d8a0000600c556701118f178fb48000600d55600e805462ffffff191690556011805460ff191690556016805460ff60ff60a81b011916905560c86017553480156200005957600080fd5b5060405162003ecb38038062003ecb8339810160408190526200007c916200028c565b60408051808201825260038152622826ab60e91b6020808301918252835180850190945260068452652826ab2a25a760d11b90840152815188938893929091620000c991600091620001c9565b508051620000df906001906020840190620001c9565b505050620000fc620000f66200017360201b60201c565b62000177565b6001600160601b0319606092831b811660a052911b16608052601289905587516200012f9060109060208b0190620001c9565b50601396909655601494909455601c555050601d55601680546001600160a01b0390921661010002610100600160a81b031990921691909117905550620004259050565b3390565b600a80546001600160a01b038381166001600160a01b0319831681179093556040519116919082907f8be0079c531659141344cd1fd0a4f28419497f9722a3daafe3b4186f6b6457e090600090a35050565b828054620001d790620003d2565b90600052602060002090601f016020900481019282620001fb576000855562000246565b82601f106200021657805160ff191683800117855562000246565b8280016001018555821562000246579182015b828111156200024657825182559160200191906001019062000229565b506200025492915062000258565b5090565b5b8082111562000254576000815560010162000259565b80516001600160a01b03811681146200028757600080fd5b919050565b60008060008060008060008060006101208a8c031215620002ab578485fd5b895160208b01519099506001600160401b0380821115620002ca578687fd5b818c0191508c601f830112620002de578687fd5b815181811115620002f357620002f36200040f565b604051601f8201601f19908116603f011681019083821181831017156200031e576200031e6200040f565b816040528281528f60208487010111156200033757898afd5b8993505b828410156200035e5760208486010151602085830101526020840193506200033b565b82841115620003705789602084830101525b809c50505050505060408a0151965060608a015195506200039460808b016200026f565b9450620003a460a08b016200026f565b935060c08a0151925060e08a01519150620003c36101008b016200026f565b90509295985092959850929598565b600181811c90821680620003e757607f821691505b602082108114156200040957634e487b7160e01b600052602260045260246000fd5b50919050565b634e487b7160e01b600052604160045260246000fd5b60805160601c60a05160601c613a6c6200045f600039600081816119940152612cfd015260008181611f100152612cce0152613a6c6000f3fe6080604052600436106103545760003560e01c806370a08231116101bb578063c56c0b92116100f7578063dab5f34011610095578063f19e75d41161006f578063f19e75d41461096d578063f2fde38b1461098d578063f51f96dd146109ad578063fc05dc80146109c357600080fd5b8063dab5f340146108ee578063e985e9c51461090e578063ebf0c7171461095757600080fd5b8063cc7a856c116100d1578063cc7a856c1461088e578063ccfdd2f8146108a3578063d5556544146108c3578063d5abeb01146108d957600080fd5b8063c56c0b9214610838578063c6ab67a314610858578063c87b56dd1461086e57600080fd5b806394985ddd11610164578063a0712d681161013e578063a0712d68146107c5578063a22cb465146107d8578063b88d4fde146107f8578063c54e73e31461081857600080fd5b806394985ddd1461076f57806395d89b411461078f57806398029d2a146107a457600080fd5b80638da5cb5b116101955780638da5cb5b1461071157806391b7f5ed1461072f57806392c46da31461074f57600080fd5b806370a08231146106bc578063715018a6146106dc5780638d17e712146106f157600080fd5b80633c14a2de11610295578063583c1775116102335780636352211e1161020d5780636352211e1461064257806367753a151461066257806368428a1b1461067c5780636f8d93051461069c57600080fd5b8063583c1775146105df5780635b7bcff71461060c5780635fc9c0e61461062c57600080fd5b80634b8feb4f1161026f5780634b8feb4f1461056a5780634b980d671461058f5780634f6ccce7146105a557806353135ca0146105c557600080fd5b80633c14a2de146105225780633ccfd60b1461053557806342842e0e1461054a57600080fd5b80631d2e5a3a1161030257806329770e04116102dc57806329770e04146104a35780632a613fa7146104c35780632f745c59146104e25780633549345e1461050257600080fd5b80631d2e5a3a146104435780631fbb4e271461046357806323b872dd1461048357600080fd5b8063081812fc11610333578063081812fc146103d4578063095ea7b31461040c57806318160ddd1461042e57600080fd5b80620e7fa81461035957806301ffc9a71461038257806306fdde03146103b2575b600080fd5b34801561036557600080fd5b5061036f600d5481565b6040519081526020015b60405180910390f35b34801561038e57600080fd5b506103a261039d36600461363f565b6109d9565b6040519015158152602001610379565b3480156103be57600080fd5b506103c7610a1d565b60405161037991906138a5565b3480156103e057600080fd5b506103f46103ef366004613606565b610aaf565b6040516001600160a01b039091168152602001610379565b34801561041857600080fd5b5061042c610427366004613525565b610b49565b005b34801561043a57600080fd5b5060085461036f565b34801561044f57600080fd5b5061042c61045e36600461354e565b610c7b565b34801561046f57600080fd5b5061042c61047e366004613606565b610cdf565b34801561048f57600080fd5b5061042c61049e3660046133df565b610d2c565b3480156104af57600080fd5b5061042c6104be36600461354e565b610db3565b3480156104cf57600080fd5b50600e546103a290610100900460ff1681565b3480156104ee57600080fd5b5061036f6104fd366004613525565b610e15565b34801561050e57600080fd5b5061042c61051d366004613606565b610ebd565b61042c61053036600461368f565b610f0a565b34801561054157600080fd5b5061042c61120c565b34801561055657600080fd5b5061042c6105653660046133df565b611271565b34801561057657600080fd5b506016546103f49061010090046001600160a01b031681565b34801561059b57600080fd5b5061036f600b5481565b3480156105b157600080fd5b5061036f6105c0366004613606565b61128c565b3480156105d157600080fd5b50600e546103a29060ff1681565b3480156105eb57600080fd5b506105ff6105fa36600461338c565b61133e565b6040516103799190613861565b34801561061857600080fd5b5061042c610627366004613606565b6113fc565b34801561063857600080fd5b5061036f60135481565b34801561064e57600080fd5b506103f461065d366004613606565b611449565b34801561066e57600080fd5b506016546103a29060ff1681565b34801561068857600080fd5b50600e546103a29062010000900460ff1681565b3480156106a857600080fd5b5061042c6106b7366004613586565b6114d4565b3480156106c857600080fd5b5061036f6106d736600461338c565b611589565b3480156106e857600080fd5b5061042c611623565b3480156106fd57600080fd5b506103c761070c366004613606565b611675565b34801561071d57600080fd5b50600a546001600160a01b03166103f4565b34801561073b57600080fd5b5061042c61074a366004613606565b61174b565b34801561075b57600080fd5b5061042c61076a36600461368f565b611798565b34801561077b57600080fd5b5061042c61078a36600461361e565b611989565b34801561079b57600080fd5b506103c7611a0f565b3480156107b057600080fd5b506016546103a290600160a81b900460ff1681565b61042c6107d3366004613606565b611a1e565b3480156107e457600080fd5b5061042c6107f33660046134ef565b611cb5565b34801561080457600080fd5b5061042c61081336600461341a565b611cc0565b34801561082457600080fd5b5061042c61083336600461354e565b611d48565b34801561084457600080fd5b5061042c61085336600461354e565b611da3565b34801561086457600080fd5b5061036f60145481565b34801561087a57600080fd5b506103c7610889366004613606565b611e24565b34801561089a57600080fd5b5061036f611e94565b3480156108af57600080fd5b5061042c6108be366004613606565b612046565b3480156108cf57600080fd5b5061036f60155481565b3480156108e557600080fd5b5061036f601e81565b3480156108fa57600080fd5b5061042c610909366004613606565b612108565b34801561091a57600080fd5b506103a26109293660046133ad565b6001600160a01b03918216600090815260056020908152604080832093909416825291909152205460ff1690565b34801561096357600080fd5b5061036f60125481565b34801561097957600080fd5b5061042c610988366004613606565b612155565b34801561099957600080fd5b5061042c6109a836600461338c565b61224c565b3480156109b957600080fd5b5061036f600c5481565b3480156109cf57600080fd5b5061036f60175481565b60006001600160e01b031982167f780e9d63000000000000000000000000000000000000000000000000000000001480610a175750610a178261231c565b92915050565b606060008054610a2c90613946565b80601f0160208091040260200160405190810160405280929190818152602001828054610a5890613946565b8015610aa55780601f10610a7a57610100808354040283529160200191610aa5565b820191906000526020600020905b815481529060010190602001808311610a8857829003601f168201915b5050505050905090565b6000818152600260205260408120546001600160a01b0316610b2d5760405162461bcd60e51b815260206004820152602c60248201527f4552433732313a20617070726f76656420717565727920666f72206e6f6e657860448201526b34b9ba32b73a103a37b5b2b760a11b60648201526084015b60405180910390fd5b506000908152600460205260409020546001600160a01b031690565b6000610b5482611449565b9050806001600160a01b0316836001600160a01b03161415610bde5760405162461bcd60e51b815260206004820152602160248201527f4552433732313a20617070726f76616c20746f2063757272656e74206f776e6560448201527f72000000000000000000000000000000000000000000000000000000000000006064820152608401610b24565b336001600160a01b0382161480610bfa5750610bfa8133610929565b610c6c5760405162461bcd60e51b815260206004820152603860248201527f4552433732313a20617070726f76652063616c6c6572206973206e6f74206f7760448201527f6e6572206e6f7220617070726f76656420666f7220616c6c00000000000000006064820152608401610b24565b610c7683836123b7565b505050565b600a546001600160a01b03163314610cc35760405162461bcd60e51b81526020600482018190526024820152600080516020613a178339815191526044820152606401610b24565b600e8054911515620100000262ff000019909216919091179055565b600a546001600160a01b03163314610d275760405162461bcd60e51b81526020600482018190526024820152600080516020613a178339815191526044820152606401610b24565b601355565b610d363382612432565b610da85760405162461bcd60e51b815260206004820152603160248201527f4552433732313a207472616e736665722063616c6c6572206973206e6f74206f60448201527f776e6572206e6f7220617070726f7665640000000000000000000000000000006064820152608401610b24565b610c76838383612529565b600a546001600160a01b03163314610dfb5760405162461bcd60e51b81526020600482018190526024820152600080516020613a178339815191526044820152606401610b24565b600e80549115156101000261ff0019909216919091179055565b6000610e2083611589565b8210610e945760405162461bcd60e51b815260206004820152602b60248201527f455243373231456e756d657261626c653a206f776e657220696e646578206f7560448201527f74206f6620626f756e64730000000000000000000000000000000000000000006064820152608401610b24565b506001600160a01b03919091166000908152600660209081526040808320938352929052205490565b600a546001600160a01b03163314610f055760405162461bcd60e51b81526020600482018190526024820152600080516020613a178339815191526044820152606401610b24565b600d55565b600e5460ff16610f5c5760405162461bcd60e51b815260206004820152601260248201527f50524553414c45204e4f542041435449564500000000000000000000000000006044820152606401610b24565b600e5462010000900460ff1615610fb55760405162461bcd60e51b815260206004820152601560248201527f53414c4520414354495645205249474854204e4f5700000000000000000000006044820152606401610b24565b6012546040516bffffffffffffffffffffffff193360601b1660208201526034810186905261103691906054015b6040516020818303038152906040528051906020012085858080602002602001604051908101604052809392919081815260200183836020028082843760009201919091525092949392505061270e9050565b6110825760405162461bcd60e51b815260206004820152601060248201527f4e4f54204f4e20414c4c4f574c495354000000000000000000000000000000006044820152606401610b24565b33600090815260196020526040902054849061109f9083906138b8565b11156110ed5760405162461bcd60e51b815260206004820152601960248201527f4d494e54494e47204d4f5245205448414e20414c4c4f574544000000000000006044820152606401610b24565b34600d54826110fc91906138e4565b111561114a5760405162461bcd60e51b815260206004820152601860248201527f494e434f5252454354205041594d454e5420414d4f554e5400000000000000006044820152606401610b24565b600061115560085490565b9050601e61116382846138b8565b11156111b15760405162461bcd60e51b815260206004820152601860248201527f4e4f5420454e4f554748204c45465420494e2053544f434b00000000000000006044820152606401610b24565b60015b8281116111e0576111ce336111c983856138b8565b612724565b806111d881613981565b9150506111b4565b5033600090815260196020526040812080548492906112009084906138b8565b90915550505050505050565b600a546001600160a01b031633146112545760405162461bcd60e51b81526020600482018190526024820152600080516020613a178339815191526044820152606401610b24565b60165461126f9061010090046001600160a01b03164761287f565b565b610c7683838360405180602001604052806000815250611cc0565b600061129760085490565b821061130b5760405162461bcd60e51b815260206004820152602c60248201527f455243373231456e756d657261626c653a20676c6f62616c20696e646578206f60448201527f7574206f6620626f756e647300000000000000000000000000000000000000006064820152608401610b24565b6008828154811061132c57634e487b7160e01b600052603260045260246000fd5b90600052602060002001549050919050565b6060600061134b83611589565b905060008167ffffffffffffffff81111561137657634e487b7160e01b600052604160045260246000fd5b60405190808252806020026020018201604052801561139f578160200160208202803683370190505b50905060005b828110156113f4576113b78582610e15565b8282815181106113d757634e487b7160e01b600052603260045260246000fd5b6020908102919091010152806113ec81613981565b9150506113a5565b509392505050565b600a546001600160a01b031633146114445760405162461bcd60e51b81526020600482018190526024820152600080516020613a178339815191526044820152606401610b24565b601755565b6000818152600260205260408120546001600160a01b031680610a175760405162461bcd60e51b815260206004820152602960248201527f4552433732313a206f776e657220717565727920666f72206e6f6e657869737460448201527f656e7420746f6b656e00000000000000000000000000000000000000000000006064820152608401610b24565b600a546001600160a01b0316331461151c5760405162461bcd60e51b81526020600482018190526024820152600080516020613a178339815191526044820152606401610b24565b806115695760405162461bcd60e51b815260206004820152601660248201527f5f746f6b656e4261736555524920697320656d707479000000000000000000006044820152606401610b24565b6011805460ff1916841515179055611583600f83836132dc565b50505050565b60006001600160a01b0382166116075760405162461bcd60e51b815260206004820152602a60248201527f4552433732313a2062616c616e636520717565727920666f7220746865207a6560448201527f726f2061646472657373000000000000000000000000000000000000000000006064820152608401610b24565b506001600160a01b031660009081526003602052604090205490565b600a546001600160a01b0316331461166b5760405162461bcd60e51b81526020600482018190526024820152600080516020613a178339815191526044820152606401610b24565b61126f6000612998565b60115460609060ff16611714576010805461168f90613946565b80601f01602080910402602001604051908101604052809291908181526020018280546116bb90613946565b80156117085780601f106116dd57610100808354040283529160200191611708565b820191906000526020600020905b8154815290600101906020018083116116eb57829003601f168201915b50505050509050919050565b600f61171f836129f7565b604051602001611730929190613757565b6040516020818303038152906040529050919050565b919050565b600a546001600160a01b031633146117935760405162461bcd60e51b81526020600482018190526024820152600080516020613a178339815191526044820152606401610b24565b600c55565b600e54610100900460ff166117ef5760405162461bcd60e51b815260206004820152601560248201527f46726565206d696e74206e6f7420616c6c6f77656400000000000000000000006044820152606401610b24565b6013546040516bffffffffffffffffffffffff193360601b166020820152603481018690526118219190605401610fe3565b61186d5760405162461bcd60e51b815260206004820152601a60248201527f4e4f54204f4e2046524545204d494e5420414c4c4f574c4953540000000000006044820152606401610b24565b336000908152601a6020526040902054849061188a9083906138b8565b11156118d85760405162461bcd60e51b815260206004820152601960248201527f4d494e54494e47204d4f5245205448414e20414c4c4f574544000000000000006044820152606401610b24565b60006118e360085490565b9050601e6118f182846138b8565b111561193f5760405162461bcd60e51b815260206004820152601860248201527f4e4f5420454e4f554748204c45465420494e2053544f434b00000000000000006044820152606401610b24565b60015b82811161196957611957336111c983856138b8565b8061196181613981565b915050611942565b50336000908152601a6020526040812080548492906112009084906138b8565b336001600160a01b037f00000000000000000000000000000000000000000000000000000000000000001614611a015760405162461bcd60e51b815260206004820152601f60248201527f4f6e6c7920565246436f6f7264696e61746f722063616e2066756c66696c6c006044820152606401610b24565b611a0b8282612b45565b5050565b606060018054610a2c90613946565b601654600160a81b900460ff16611aa457333214611aa45760405162461bcd60e51b815260206004820152602b60248201527f434f4e5452414354204e4f5420414c4c4f57454420544f204d494e5420494e2060448201527f5055424c49432053414c450000000000000000000000000000000000000000006064820152608401610b24565b600e5462010000900460ff16611afc5760405162461bcd60e51b815260206004820152600f60248201527f53414c45204e4f542041435449564500000000000000000000000000000000006044820152606401610b24565b600e5460ff1615611b4f5760405162461bcd60e51b815260206004820152601660248201527f50524553414c45204f4e4c59205249474854204e4f57000000000000000000006044820152606401610b24565b600b54811115611bc75760405162461bcd60e51b815260206004820152603160248201527f4d494e54494e47204d4f5245205448414e20414c4c4f57454420494e2041205360448201527f494e474c45205452414e53414354494f4e0000000000000000000000000000006064820152608401610b24565b34600c5482611bd691906138e4565b1115611c245760405162461bcd60e51b815260206004820152601860248201527f494e434f5252454354205041594d454e5420414d4f554e5400000000000000006044820152606401610b24565b6000611c2f60085490565b9050601e611c3d82846138b8565b1115611c8b5760405162461bcd60e51b815260206004820152601860248201527f4e4f5420454e4f554748204c45465420494e2053544f434b00000000000000006044820152606401610b24565b60015b828111610c7657611ca3336111c983856138b8565b80611cad81613981565b915050611c8e565b611a0b338383612b72565b611cca3383612432565b611d3c5760405162461bcd60e51b815260206004820152603160248201527f4552433732313a207472616e736665722063616c6c6572206973206e6f74206f60448201527f776e6572206e6f7220617070726f7665640000000000000000000000000000006064820152608401610b24565b61158384848484612c41565b600a546001600160a01b03163314611d905760405162461bcd60e51b81526020600482018190526024820152600080516020613a178339815191526044820152606401610b24565b600e805460ff1916911515919091179055565b600a546001600160a01b03163314611deb5760405162461bcd60e51b81526020600482018190526024820152600080516020613a178339815191526044820152606401610b24565b60168054911515600160a81b027fffffffffffffffffffff00ffffffffffffffffffffffffffffffffffffffffff909216919091179055565b6000818152600260205260409020546060906001600160a01b0316611e8b5760405162461bcd60e51b815260206004820152601f60248201527f55524920717565727920666f72206e6f6e6578697374656e7420746f6b656e006044820152606401610b24565b610a1782611675565b600a546000906001600160a01b03163314611edf5760405162461bcd60e51b81526020600482018190526024820152600080516020613a178339815191526044820152606401610b24565b601d546040517f70a082310000000000000000000000000000000000000000000000000000000081523060048201527f00000000000000000000000000000000000000000000000000000000000000006001600160a01b0316906370a082319060240160206040518083038186803b158015611f5a57600080fd5b505afa158015611f6e573d6000803e3d6000fd5b505050506040513d601f19601f82011682018060405250810190611f929190613677565b1015611fe05760405162461bcd60e51b815260206004820152601a60248201527f4e6f7420656e6f756768204c494e4b20746f20706179206665650000000000006044820152606401610b24565b60165460ff16156120335760405162461bcd60e51b815260206004820152601f60248201527f416c72656164792067656e6572617465642072616e646f6d206f6666736574006044820152606401610b24565b612041601c54601d54612cca565b905090565b600a546001600160a01b0316331461208e5760405162461bcd60e51b81526020600482018190526024820152600080516020613a178339815191526044820152606401610b24565b600081116121035760405162461bcd60e51b8152602060048201526024808201527f6d61785065725472616e73616374696f6e2073686f756c6420626520706f736960448201527f74697665000000000000000000000000000000000000000000000000000000006064820152608401610b24565b600b55565b600a546001600160a01b031633146121505760405162461bcd60e51b81526020600482018190526024820152600080516020613a178339815191526044820152606401610b24565b601255565b600a546001600160a01b0316331461219d5760405162461bcd60e51b81526020600482018190526024820152600080516020613a178339815191526044820152606401610b24565b60006121a860085490565b9050601754601e6121b99190613903565b6121c382846138b8565b11156122115760405162461bcd60e51b815260206004820152601860248201527f4e4f5420454e4f554748204c45465420494e2053544f434b00000000000000006044820152606401610b24565b60015b828111610c765760165461223a9061010090046001600160a01b03166111c983856138b8565b8061224481613981565b915050612214565b600a546001600160a01b031633146122945760405162461bcd60e51b81526020600482018190526024820152600080516020613a178339815191526044820152606401610b24565b6001600160a01b0381166123105760405162461bcd60e51b815260206004820152602660248201527f4f776e61626c653a206e6577206f776e657220697320746865207a65726f206160448201527f64647265737300000000000000000000000000000000000000000000000000006064820152608401610b24565b61231981612998565b50565b60006001600160e01b031982167f80ac58cd00000000000000000000000000000000000000000000000000000000148061237f57506001600160e01b031982167f5b5e139f00000000000000000000000000000000000000000000000000000000145b80610a1757507f01ffc9a7000000000000000000000000000000000000000000000000000000006001600160e01b0319831614610a17565b6000818152600460205260409020805473ffffffffffffffffffffffffffffffffffffffff19166001600160a01b03841690811790915581906123f982611449565b6001600160a01b03167f8c5be1e5ebec7d5bd14f71427d1e84f3dd0314c0f7b2291e5b200ac8c7c3b92560405160405180910390a45050565b6000818152600260205260408120546001600160a01b03166124ab5760405162461bcd60e51b815260206004820152602c60248201527f4552433732313a206f70657261746f7220717565727920666f72206e6f6e657860448201526b34b9ba32b73a103a37b5b2b760a11b6064820152608401610b24565b60006124b683611449565b9050806001600160a01b0316846001600160a01b031614806124f15750836001600160a01b03166124e684610aaf565b6001600160a01b0316145b8061252157506001600160a01b0380821660009081526005602090815260408083209388168352929052205460ff165b949350505050565b826001600160a01b031661253c82611449565b6001600160a01b0316146125b85760405162461bcd60e51b815260206004820152602960248201527f4552433732313a207472616e73666572206f6620746f6b656e2074686174206960448201527f73206e6f74206f776e00000000000000000000000000000000000000000000006064820152608401610b24565b6001600160a01b0382166126335760405162461bcd60e51b8152602060048201526024808201527f4552433732313a207472616e7366657220746f20746865207a65726f2061646460448201527f72657373000000000000000000000000000000000000000000000000000000006064820152608401610b24565b61263e838383612e55565b6126496000826123b7565b6001600160a01b0383166000908152600360205260408120805460019290612672908490613903565b90915550506001600160a01b03821660009081526003602052604081208054600192906126a09084906138b8565b9091555050600081815260026020526040808220805473ffffffffffffffffffffffffffffffffffffffff19166001600160a01b0386811691821790925591518493918716917fddf252ad1be2c89b69c2b068fc378daa952ba7f163c4a11628f55a4df523b3ef91a4505050565b60008261271b8584612f0d565b14949350505050565b6001600160a01b03821661277a5760405162461bcd60e51b815260206004820181905260248201527f4552433732313a206d696e7420746f20746865207a65726f20616464726573736044820152606401610b24565b6000818152600260205260409020546001600160a01b0316156127df5760405162461bcd60e51b815260206004820152601c60248201527f4552433732313a20746f6b656e20616c7265616479206d696e746564000000006044820152606401610b24565b6127eb60008383612e55565b6001600160a01b03821660009081526003602052604081208054600192906128149084906138b8565b9091555050600081815260026020526040808220805473ffffffffffffffffffffffffffffffffffffffff19166001600160a01b03861690811790915590518392907fddf252ad1be2c89b69c2b068fc378daa952ba7f163c4a11628f55a4df523b3ef908290a45050565b804710156128cf5760405162461bcd60e51b815260206004820152601d60248201527f416464726573733a20696e73756666696369656e742062616c616e63650000006044820152606401610b24565b6000826001600160a01b03168260405160006040518083038185875af1925050503d806000811461291c576040519150601f19603f3d011682016040523d82523d6000602084013e612921565b606091505b5050905080610c765760405162461bcd60e51b815260206004820152603a60248201527f416464726573733a20756e61626c6520746f2073656e642076616c75652c207260448201527f6563697069656e74206d617920686176652072657665727465640000000000006064820152608401610b24565b600a80546001600160a01b0383811673ffffffffffffffffffffffffffffffffffffffff19831681179093556040519116919082907f8be0079c531659141344cd1fd0a4f28419497f9722a3daafe3b4186f6b6457e090600090a35050565b606081612a3757505060408051808201909152600181527f3000000000000000000000000000000000000000000000000000000000000000602082015290565b8160005b8115612a615780612a4b81613981565b9150612a5a9050600a836138d0565b9150612a3b565b60008167ffffffffffffffff811115612a8a57634e487b7160e01b600052604160045260246000fd5b6040519080825280601f01601f191660200182016040528015612ab4576020820181803683370190505b5090505b841561252157612ac9600183613903565b9150612ad6600a8661399c565b612ae19060306138b8565b60f81b818381518110612b0457634e487b7160e01b600052603260045260246000fd5b60200101907effffffffffffffffffffffffffffffffffffffffffffffffffffffffffffff1916908160001a905350612b3e600a866138d0565b9450612ab8565b6000612b52601e8361399c565b612b5d9060016138b8565b60155550506016805460ff1916600117905550565b816001600160a01b0316836001600160a01b03161415612bd45760405162461bcd60e51b815260206004820152601960248201527f4552433732313a20617070726f766520746f2063616c6c6572000000000000006044820152606401610b24565b6001600160a01b03838116600081815260056020908152604080832094871680845294825291829020805460ff191686151590811790915591519182527f17307eab39ab6107e8899845ad3d59bd9653f200f220920489ca2b5937696c31910160405180910390a3505050565b612c4c848484612529565b612c5884848484612fbf565b6115835760405162461bcd60e51b815260206004820152603260248201527f4552433732313a207472616e7366657220746f206e6f6e20455243373231526560448201527f63656976657220696d706c656d656e74657200000000000000000000000000006064820152608401610b24565b60007f00000000000000000000000000000000000000000000000000000000000000006001600160a01b0316634000aea07f000000000000000000000000000000000000000000000000000000000000000084866000604051602001612d3a929190918252602082015260400190565b6040516020818303038152906040526040518463ffffffff1660e01b8152600401612d6793929190613839565b602060405180830381600087803b158015612d8157600080fd5b505af1158015612d95573d6000803e3d6000fd5b505050506040513d601f19601f82011682018060405250810190612db9919061356a565b50600083815260186020818152604080842054815180840189905280830186905230606082015260808082018390528351808303909101815260a090910190925281519183019190912093879052919052612e159060016138b8565b6000858152601860205260409020556125218482604080516020808201949094528082019290925280518083038201815260609092019052805191012090565b6001600160a01b038316612eb057612eab81600880546000838152600960205260408120829055600182018355919091527ff3f7a9fe364faab93b216da50a3214154f22a0a2b415b23a84c8169e8b636ee30155565b612ed3565b816001600160a01b0316836001600160a01b031614612ed357612ed38382613122565b6001600160a01b038216612eea57610c76816131bf565b826001600160a01b0316826001600160a01b031614610c7657610c768282613298565b600081815b84518110156113f4576000858281518110612f3d57634e487b7160e01b600052603260045260246000fd5b60200260200101519050808311612f7f576040805160208101859052908101829052606001604051602081830303815290604052805190602001209250612fac565b60408051602081018390529081018490526060016040516020818303038152906040528051906020012092505b5080612fb781613981565b915050612f12565b60006001600160a01b0384163b1561311757604051630a85bd0160e11b81526001600160a01b0385169063150b7a02906130039033908990889088906004016137fd565b602060405180830381600087803b15801561301d57600080fd5b505af192505050801561304d575060408051601f3d908101601f1916820190925261304a9181019061365b565b60015b6130fd573d80801561307b576040519150601f19603f3d011682016040523d82523d6000602084013e613080565b606091505b5080516130f55760405162461bcd60e51b815260206004820152603260248201527f4552433732313a207472616e7366657220746f206e6f6e20455243373231526560448201527f63656976657220696d706c656d656e74657200000000000000000000000000006064820152608401610b24565b805181602001fd5b6001600160e01b031916630a85bd0160e11b149050612521565b506001949350505050565b6000600161312f84611589565b6131399190613903565b60008381526007602052604090205490915080821461318c576001600160a01b03841660009081526006602090815260408083208584528252808320548484528184208190558352600790915290208190555b5060009182526007602090815260408084208490556001600160a01b039094168352600681528383209183525290812055565b6008546000906131d190600190613903565b6000838152600960205260408120546008805493945090928490811061320757634e487b7160e01b600052603260045260246000fd5b90600052602060002001549050806008838154811061323657634e487b7160e01b600052603260045260246000fd5b600091825260208083209091019290925582815260099091526040808220849055858252812055600880548061327c57634e487b7160e01b600052603160045260246000fd5b6001900381819060005260206000200160009055905550505050565b60006132a383611589565b6001600160a01b039093166000908152600660209081526040808320868452825280832085905593825260079052919091209190915550565b8280546132e890613946565b90600052602060002090601f01602090048101928261330a5760008555613350565b82601f106133235782800160ff19823516178555613350565b82800160010185558215613350579182015b82811115613350578235825591602001919060010190613335565b5061335c929150613360565b5090565b5b8082111561335c5760008155600101613361565b80356001600160a01b038116811461174657600080fd5b60006020828403121561339d578081fd5b6133a682613375565b9392505050565b600080604083850312156133bf578081fd5b6133c883613375565b91506133d660208401613375565b90509250929050565b6000806000606084860312156133f3578081fd5b6133fc84613375565b925061340a60208501613375565b9150604084013590509250925092565b6000806000806080858703121561342f578081fd5b61343885613375565b935061344660208601613375565b925060408501359150606085013567ffffffffffffffff80821115613469578283fd5b818701915087601f83011261347c578283fd5b81358181111561348e5761348e6139dc565b604051601f8201601f19908116603f011681019083821181831017156134b6576134b66139dc565b816040528281528a60208487010111156134ce578586fd5b82602086016020830137918201602001949094529598949750929550505050565b60008060408385031215613501578182fd5b61350a83613375565b9150602083013561351a816139f2565b809150509250929050565b60008060408385031215613537578182fd5b61354083613375565b946020939093013593505050565b60006020828403121561355f578081fd5b81356133a6816139f2565b60006020828403121561357b578081fd5b81516133a6816139f2565b60008060006040848603121561359a578283fd5b83356135a5816139f2565b9250602084013567ffffffffffffffff808211156135c1578384fd5b818601915086601f8301126135d4578384fd5b8135818111156135e2578485fd5b8760208285010111156135f3578485fd5b6020830194508093505050509250925092565b600060208284031215613617578081fd5b5035919050565b60008060408385031215613630578182fd5b50508035926020909101359150565b600060208284031215613650578081fd5b81356133a681613a00565b60006020828403121561366c578081fd5b81516133a681613a00565b600060208284031215613688578081fd5b5051919050565b600080600080606085870312156136a4578182fd5b84359350602085013567ffffffffffffffff808211156136c2578384fd5b818701915087601f8301126136d5578384fd5b8135818111156136e3578485fd5b8860208260051b85010111156136f7578485fd5b95986020929092019750949560400135945092505050565b6000815180845261372781602086016020860161391a565b601f01601f19169290920160200192915050565b6000815161374d81856020860161391a565b9290920192915050565b600080845482600182811c91508083168061377357607f831692505b602080841082141561379357634e487b7160e01b87526022600452602487fd5b8180156137a757600181146137b8576137e4565b60ff198616895284890196506137e4565b60008b815260209020885b868110156137dc5781548b8201529085019083016137c3565b505084890196505b5050505050506137f4818561373b565b95945050505050565b60006001600160a01b0380871683528086166020840152508360408301526080606083015261382f608083018461370f565b9695505050505050565b6001600160a01b03841681528260208201526060604082015260006137f4606083018461370f565b6020808252825182820181905260009190848201906040850190845b818110156138995783518352928401929184019160010161387d565b50909695505050505050565b6020815260006133a6602083018461370f565b600082198211156138cb576138cb6139b0565b500190565b6000826138df576138df6139c6565b500490565b60008160001904831182151516156138fe576138fe6139b0565b500290565b600082821015613915576139156139b0565b500390565b60005b8381101561393557818101518382015260200161391d565b838111156115835750506000910152565b600181811c9082168061395a57607f821691505b6020821081141561397b57634e487b7160e01b600052602260045260246000fd5b50919050565b6000600019821415613995576139956139b0565b5060010190565b6000826139ab576139ab6139c6565b500690565b634e487b7160e01b600052601160045260246000fd5b634e487b7160e01b600052601260045260246000fd5b634e487b7160e01b600052604160045260246000fd5b801515811461231957600080fd5b6001600160e01b03198116811461231957600080fdfe4f776e61626c653a2063616c6c6572206973206e6f7420746865206f776e6572a2646970667358221220f1373916b2b707af5b1bcbd6b88c05da00e40cdc6d22bc2cd4ad7014abd04bf164736f6c63430008040033",
  "linkReferences": {},
  "deployedLinkReferences": {}
}