{
  "_format": "hh-sol-artifact-1",
  "contractName": "PMV",
  "sourceName": "contracts/PMV.sol",
  "abi": [
    {
      "inputs": [
        {
          "internalType": "bytes32",
          "name": "merkleroot",
          "type": "bytes32"
        },
        {
          "internalType": "string",
          "name": "uri",
          "type": "string"
        }
      ],
      "stateMutability": "nonpayable",
      "type": "constructor"
    },
    {
      "anonymous": false,
      "inputs": [
        {
          "indexed": true,
          "internalType": "address",
          "name": "owner",
          "type": "address"
        },
        {
          "indexed": true,
          "internalType": "address",
          "name": "approved",
          "type": "address"
        },
        {
          "indexed": true,
          "internalType": "uint256",
          "name": "tokenId",
          "type": "uint256"
        }
      ],
      "name": "Approval",
      "type": "event"
    },
    {
      "anonymous": false,
      "inputs": [
        {
          "indexed": true,
          "internalType": "address",
          "name": "owner",
          "type": "address"
        },
        {
          "indexed": true,
          "internalType": "address",
          "name": "operator",
          "type": "address"
        },
        {
          "indexed": false,
          "internalType": "bool",
          "name": "approved",
          "type": "bool"
        }
      ],
      "name": "ApprovalForAll",
      "type": "event"
    },
    {
      "anonymous": false,
      "inputs": [
        {
          "indexed": true,
          "internalType": "address",
          "name": "previousOwner",
          "type": "address"
        },
        {
          "indexed": true,
          "internalType": "address",
          "name": "newOwner",
          "type": "address"
        }
      ],
      "name": "OwnershipTransferred",
      "type": "event"
    },
    {
      "anonymous": false,
      "inputs": [
        {
          "indexed": true,
          "internalType": "address",
          "name": "from",
          "type": "address"
        },
        {
          "indexed": true,
          "internalType": "address",
          "name": "to",
          "type": "address"
        },
        {
          "indexed": true,
          "internalType": "uint256",
          "name": "tokenId",
          "type": "uint256"
        }
      ],
      "name": "Transfer",
      "type": "event"
    },
    {
      "inputs": [
        {
          "internalType": "address",
          "name": "to",
          "type": "address"
        },
        {
          "internalType": "uint256",
          "name": "tokenId",
          "type": "uint256"
        }
      ],
      "name": "approve",
      "outputs": [],
      "stateMutability": "nonpayable",
      "type": "function"
    },
    {
      "inputs": [
        {
          "internalType": "address",
          "name": "owner",
          "type": "address"
        }
      ],
      "name": "balanceOf",
      "outputs": [
        {
          "internalType": "uint256",
          "name": "",
          "type": "uint256"
        }
      ],
      "stateMutability": "view",
      "type": "function"
    },
    {
      "inputs": [
        {
          "internalType": "uint256",
          "name": "tokenId",
          "type": "uint256"
        }
      ],
      "name": "getApproved",
      "outputs": [
        {
          "internalType": "address",
          "name": "",
          "type": "address"
        }
      ],
      "stateMutability": "view",
      "type": "function"
    },
    {
      "inputs": [
        {
          "internalType": "address",
          "name": "owner",
          "type": "address"
        },
        {
          "internalType": "address",
          "name": "operator",
          "type": "address"
        }
      ],
      "name": "isApprovedForAll",
      "outputs": [
        {
          "internalType": "bool",
          "name": "",
          "type": "bool"
        }
      ],
      "stateMutability": "view",
      "type": "function"
    },
    {
      "inputs": [],
      "name": "maxPerWallet",
      "outputs": [
        {
          "internalType": "uint256",
          "name": "",
          "type": "uint256"
        }
      ],
      "stateMutability": "view",
      "type": "function"
    },
    {
      "inputs": [],
      "name": "maxSupply",
      "outputs": [
        {
          "internalType": "uint256",
          "name": "",
          "type": "uint256"
        }
      ],
      "stateMutability": "view",
      "type": "function"
    },
    {
      "inputs": [
        {
          "internalType": "uint256",
          "name": "tokenQuantity",
          "type": "uint256"
        }
      ],
      "name": "mint",
      "outputs": [],
      "stateMutability": "payable",
      "type": "function"
    },
    {
      "inputs": [
        {
          "internalType": "uint256",
          "name": "allowance",
          "type": "uint256"
        },
        {
          "internalType": "bytes32[]",
          "name": "proof",
          "type": "bytes32[]"
        },
        {
          "internalType": "uint256",
          "name": "tokenQuantity",
          "type": "uint256"
        }
      ],
      "name": "mintPresale",
      "outputs": [],
      "stateMutability": "payable",
      "type": "function"
    },
    {
      "inputs": [],
      "name": "name",
      "outputs": [
        {
          "internalType": "string",
          "name": "",
          "type": "string"
        }
      ],
      "stateMutability": "view",
      "type": "function"
    },
    {
      "inputs": [],
      "name": "owner",
      "outputs": [
        {
          "internalType": "address",
          "name": "",
          "type": "address"
        }
      ],
      "stateMutability": "view",
      "type": "function"
    },
    {
      "inputs": [
        {
          "internalType": "uint256",
          "name": "tokenId",
          "type": "uint256"
        }
      ],
      "name": "ownerOf",
      "outputs": [
        {
          "internalType": "address",
          "name": "",
          "type": "address"
        }
      ],
      "stateMutability": "view",
      "type": "function"
    },
    {
      "inputs": [],
      "name": "presaleActive",
      "outputs": [
        {
          "internalType": "bool",
          "name": "",
          "type": "bool"
        }
      ],
      "stateMutability": "view",
      "type": "function"
    },
    {
      "inputs": [],
      "name": "renounceOwnership",
      "outputs": [],
      "stateMutability": "nonpayable",
      "type": "function"
    },
    {
      "inputs": [],
      "name": "root",
      "outputs": [
        {
          "internalType": "bytes32",
          "name": "",
          "type": "bytes32"
        }
      ],
      "stateMutability": "view",
      "type": "function"
    },
    {
      "inputs": [
        {
          "internalType": "address",
          "name": "from",
          "type": "address"
        },
        {
          "internalType": "address",
          "name": "to",
          "type": "address"
        },
        {
          "internalType": "uint256",
          "name": "tokenId",
          "type": "uint256"
        }
      ],
      "name": "safeTransferFrom",
      "outputs": [],
      "stateMutability": "nonpayable",
      "type": "function"
    },
    {
      "inputs": [
        {
          "internalType": "address",
          "name": "from",
          "type": "address"
        },
        {
          "internalType": "address",
          "name": "to",
          "type": "address"
        },
        {
          "internalType": "uint256",
          "name": "tokenId",
          "type": "uint256"
        },
        {
          "internalType": "bytes",
          "name": "_data",
          "type": "bytes"
        }
      ],
      "name": "safeTransferFrom",
      "outputs": [],
      "stateMutability": "nonpayable",
      "type": "function"
    },
    {
      "inputs": [],
      "name": "saleActive",
      "outputs": [
        {
          "internalType": "bool",
          "name": "",
          "type": "bool"
        }
      ],
      "stateMutability": "view",
      "type": "function"
    },
    {
      "inputs": [],
      "name": "salePrice",
      "outputs": [
        {
          "internalType": "uint256",
          "name": "",
          "type": "uint256"
        }
      ],
      "stateMutability": "view",
      "type": "function"
    },
    {
      "inputs": [
        {
          "internalType": "address",
          "name": "operator",
          "type": "address"
        },
        {
          "internalType": "bool",
          "name": "approved",
          "type": "bool"
        }
      ],
      "name": "setApprovalForAll",
      "outputs": [],
      "stateMutability": "nonpayable",
      "type": "function"
    },
    {
      "inputs": [
        {
          "internalType": "bool",
          "name": "_presaleStatus",
          "type": "bool"
        }
      ],
      "name": "setPresale",
      "outputs": [],
      "stateMutability": "nonpayable",
      "type": "function"
    },
    {
      "inputs": [
        {
          "internalType": "bytes32",
          "name": "_root",
          "type": "bytes32"
        }
      ],
      "name": "setRoot",
      "outputs": [],
      "stateMutability": "nonpayable",
      "type": "function"
    },
    {
      "inputs": [
        {
          "internalType": "bool",
          "name": "_saleStatus",
          "type": "bool"
        }
      ],
      "name": "setSale",
      "outputs": [],
      "stateMutability": "nonpayable",
      "type": "function"
    },
    {
      "inputs": [
        {
          "internalType": "bool",
          "name": "_revealed",
          "type": "bool"
        },
        {
          "internalType": "string",
          "name": "_tokenBaseURI",
          "type": "string"
        }
      ],
      "name": "setURIStatus",
      "outputs": [],
      "stateMutability": "nonpayable",
      "type": "function"
    },
    {
      "inputs": [
        {
          "internalType": "bytes4",
          "name": "interfaceId",
          "type": "bytes4"
        }
      ],
      "name": "supportsInterface",
      "outputs": [
        {
          "internalType": "bool",
          "name": "",
          "type": "bool"
        }
      ],
      "stateMutability": "view",
      "type": "function"
    },
    {
      "inputs": [],
      "name": "symbol",
      "outputs": [
        {
          "internalType": "string",
          "name": "",
          "type": "string"
        }
      ],
      "stateMutability": "view",
      "type": "function"
    },
    {
      "inputs": [
        {
          "internalType": "uint256",
          "name": "index",
          "type": "uint256"
        }
      ],
      "name": "tokenByIndex",
      "outputs": [
        {
          "internalType": "uint256",
          "name": "",
          "type": "uint256"
        }
      ],
      "stateMutability": "view",
      "type": "function"
    },
    {
      "inputs": [
        {
          "internalType": "address",
          "name": "owner",
          "type": "address"
        },
        {
          "internalType": "uint256",
          "name": "index",
          "type": "uint256"
        }
      ],
      "name": "tokenOfOwnerByIndex",
      "outputs": [
        {
          "internalType": "uint256",
          "name": "",
          "type": "uint256"
        }
      ],
      "stateMutability": "view",
      "type": "function"
    },
    {
      "inputs": [
        {
          "internalType": "uint256",
          "name": "tokenId",
          "type": "uint256"
        }
      ],
      "name": "tokenURI",
      "outputs": [
        {
          "internalType": "string",
          "name": "",
          "type": "string"
        }
      ],
      "stateMutability": "view",
      "type": "function"
    },
    {
      "inputs": [],
      "name": "totalSupply",
      "outputs": [
        {
          "internalType": "uint256",
          "name": "",
          "type": "uint256"
        }
      ],
      "stateMutability": "view",
      "type": "function"
    },
    {
      "inputs": [
        {
          "internalType": "address",
          "name": "from",
          "type": "address"
        },
        {
          "internalType": "address",
          "name": "to",
          "type": "address"
        },
        {
          "internalType": "uint256",
          "name": "tokenId",
          "type": "uint256"
        }
      ],
      "name": "transferFrom",
      "outputs": [],
      "stateMutability": "nonpayable",
      "type": "function"
    },
    {
      "inputs": [
        {
          "internalType": "address",
          "name": "newOwner",
          "type": "address"
        }
      ],
      "name": "transferOwnership",
      "outputs": [],
      "stateMutability": "nonpayable",
      "type": "function"
    },
    {
      "inputs": [],
      "name": "withdraw",
      "outputs": [],
      "stateMutability": "nonpayable",
      "type": "function"
    }
  ],
  "bytecode": "0x60806040526000600c60006101000a81548160ff0219169083151502179055506000600c60016101000a81548160ff0219169083151502179055506000601160006101000a81548160ff0219169083151502179055503480156200006257600080fd5b5060405162004f0638038062004f06833981810160405281019062000088919062000377565b6040518060400160405280600381526020017f504d5600000000000000000000000000000000000000000000000000000000008152506040518060400160405280600681526020017f504d56544b4e000000000000000000000000000000000000000000000000000081525081600090805190602001906200010c9291906200023e565b508060019080519060200190620001259291906200023e565b505050620001486200013c6200017060201b60201c565b6200017860201b60201c565b81600b819055508060109080519060200190620001679291906200023e565b50505062000565565b600033905090565b6000600a60009054906101000a900473ffffffffffffffffffffffffffffffffffffffff16905081600a60006101000a81548173ffffffffffffffffffffffffffffffffffffffff021916908373ffffffffffffffffffffffffffffffffffffffff1602179055508173ffffffffffffffffffffffffffffffffffffffff168173ffffffffffffffffffffffffffffffffffffffff167f8be0079c531659141344cd1fd0a4f28419497f9722a3daafe3b4186f6b6457e060405160405180910390a35050565b8280546200024c9062000470565b90600052602060002090601f016020900481019282620002705760008555620002bc565b82601f106200028b57805160ff1916838001178555620002bc565b82800160010185558215620002bc579182015b82811115620002bb5782518255916020019190600101906200029e565b5b509050620002cb9190620002cf565b5090565b5b80821115620002ea576000816000905550600101620002d0565b5090565b600062000305620002ff84620003fa565b620003d1565b9050828152602081018484840111156200031e57600080fd5b6200032b8482856200043a565b509392505050565b60008151905062000344816200054b565b92915050565b600082601f8301126200035c57600080fd5b81516200036e848260208601620002ee565b91505092915050565b600080604083850312156200038b57600080fd5b60006200039b8582860162000333565b925050602083015167ffffffffffffffff811115620003b957600080fd5b620003c7858286016200034a565b9150509250929050565b6000620003dd620003f0565b9050620003eb8282620004a6565b919050565b6000604051905090565b600067ffffffffffffffff8211156200041857620004176200050b565b5b62000423826200053a565b9050602081019050919050565b6000819050919050565b60005b838110156200045a5780820151818401526020810190506200043d565b838111156200046a576000848401525b50505050565b600060028204905060018216806200048957607f821691505b60208210811415620004a0576200049f620004dc565b5b50919050565b620004b1826200053a565b810181811067ffffffffffffffff82111715620004d357620004d26200050b565b5b80604052505050565b7f4e487b7100000000000000000000000000000000000000000000000000000000600052602260045260246000fd5b7f4e487b7100000000000000000000000000000000000000000000000000000000600052604160045260246000fd5b6000601f19601f8301169050919050565b620005568162000430565b81146200056257600080fd5b50565b61499180620005756000396000f3fe6080604052600436106101e35760003560e01c80636f8d930511610102578063c54e73e311610095578063e985e9c511610064578063e985e9c5146106c2578063ebf0c717146106ff578063f2fde38b1461072a578063f51f96dd14610753576101e3565b8063c54e73e314610608578063c87b56dd14610631578063d5abeb011461066e578063dab5f34014610699576101e3565b806395d89b41116100d157806395d89b411461056f578063a0712d681461059a578063a22cb465146105b6578063b88d4fde146105df576101e3565b80636f8d9305146104c757806370a08231146104f0578063715018a61461052d5780638da5cb5b14610544576101e3565b80633c14a2de1161017a5780634f6ccce7116101495780634f6ccce7146103f757806353135ca0146104345780636352211e1461045f57806368428a1b1461049c576101e3565b80633c14a2de146103705780633ccfd60b1461038c57806342842e0e146103a3578063453c2310146103cc576101e3565b806318160ddd116101b657806318160ddd146102b65780631d2e5a3a146102e157806323b872dd1461030a5780632f745c5914610333576101e3565b806301ffc9a7146101e857806306fdde0314610225578063081812fc14610250578063095ea7b31461028d575b600080fd5b3480156101f457600080fd5b5061020f600480360381019061020a91906132d8565b61077e565b60405161021c9190613a19565b60405180910390f35b34801561023157600080fd5b5061023a6107f8565b6040516102479190613a4f565b60405180910390f35b34801561025c57600080fd5b506102776004803603810190610272919061332a565b61088a565b60405161028491906139b2565b60405180910390f35b34801561029957600080fd5b506102b460048036038101906102af91906131f2565b61090f565b005b3480156102c257600080fd5b506102cb610a27565b6040516102d89190613df1565b60405180910390f35b3480156102ed57600080fd5b506103086004803603810190610303919061322e565b610a34565b005b34801561031657600080fd5b50610331600480360381019061032c91906130ec565b610acd565b005b34801561033f57600080fd5b5061035a600480360381019061035591906131f2565b610b2d565b6040516103679190613df1565b60405180910390f35b61038a60048036038101906103859190613353565b610bd2565b005b34801561039857600080fd5b506103a1610ea9565b005b3480156103af57600080fd5b506103ca60048036038101906103c591906130ec565b610f6e565b005b3480156103d857600080fd5b506103e1610f8e565b6040516103ee9190613df1565b60405180910390f35b34801561040357600080fd5b5061041e6004803603810190610419919061332a565b610f93565b60405161042b9190613df1565b60405180910390f35b34801561044057600080fd5b5061044961102a565b6040516104569190613a19565b60405180910390f35b34801561046b57600080fd5b506104866004803603810190610481919061332a565b61103d565b60405161049391906139b2565b60405180910390f35b3480156104a857600080fd5b506104b16110ef565b6040516104be9190613a19565b60405180910390f35b3480156104d357600080fd5b506104ee60048036038101906104e99190613257565b611102565b005b3480156104fc57600080fd5b5061051760048036038101906105129190613087565b6111f5565b6040516105249190613df1565b60405180910390f35b34801561053957600080fd5b506105426112ad565b005b34801561055057600080fd5b50610559611335565b60405161056691906139b2565b60405180910390f35b34801561057b57600080fd5b5061058461135f565b6040516105919190613a4f565b60405180910390f35b6105b460048036038101906105af919061332a565b6113f1565b005b3480156105c257600080fd5b506105dd60048036038101906105d891906131b6565b61165e565b005b3480156105eb57600080fd5b506106066004803603810190610601919061313b565b611674565b005b34801561061457600080fd5b5061062f600480360381019061062a919061322e565b6116d6565b005b34801561063d57600080fd5b506106586004803603810190610653919061332a565b61176f565b6040516106659190613a4f565b60405180910390f35b34801561067a57600080fd5b5061068361189a565b6040516106909190613df1565b60405180910390f35b3480156106a557600080fd5b506106c060048036038101906106bb91906132af565b61189f565b005b3480156106ce57600080fd5b506106e960048036038101906106e491906130b0565b61196c565b6040516106f69190613a19565b60405180910390f35b34801561070b57600080fd5b50610714611a00565b6040516107219190613a34565b60405180910390f35b34801561073657600080fd5b50610751600480360381019061074c9190613087565b611a06565b005b34801561075f57600080fd5b50610768611afe565b6040516107759190613df1565b60405180910390f35b60007f780e9d63000000000000000000000000000000000000000000000000000000007bffffffffffffffffffffffffffffffffffffffffffffffffffffffff1916827bffffffffffffffffffffffffffffffffffffffffffffffffffffffff191614806107f157506107f082611b09565b5b9050919050565b6060600080546108079061408f565b80601f01602080910402602001604051908101604052809291908181526020018280546108339061408f565b80156108805780601f1061085557610100808354040283529160200191610880565b820191906000526020600020905b81548152906001019060200180831161086357829003601f168201915b5050505050905090565b600061089582611beb565b6108d4576040517f08c379a00000000000000000000000000000000000000000000000000000000081526004016108cb90613c71565b60405180910390fd5b6004600083815260200190815260200160002060009054906101000a900473ffffffffffffffffffffffffffffffffffffffff169050919050565b600061091a8261103d565b90508073ffffffffffffffffffffffffffffffffffffffff168373ffffffffffffffffffffffffffffffffffffffff16141561098b576040517f08c379a000000000000000000000000000000000000000000000000000000000815260040161098290613cf1565b60405180910390fd5b8073ffffffffffffffffffffffffffffffffffffffff166109aa611c57565b73ffffffffffffffffffffffffffffffffffffffff1614806109d957506109d8816109d3611c57565b61196c565b5b610a18576040517f08c379a0000000000000000000000000000000000000000000000000000000008152600401610a0f90613bf1565b60405180910390fd5b610a228383611c5f565b505050565b6000600880549050905090565b610a3c611c57565b73ffffffffffffffffffffffffffffffffffffffff16610a5a611335565b73ffffffffffffffffffffffffffffffffffffffff1614610ab0576040517f08c379a0000000000000000000000000000000000000000000000000000000008152600401610aa790613c91565b60405180910390fd5b80600c60016101000a81548160ff02191690831515021790555050565b610ade610ad8611c57565b82611d18565b610b1d576040517f08c379a0000000000000000000000000000000000000000000000000000000008152600401610b1490613d11565b60405180910390fd5b610b28838383611df6565b505050565b6000610b38836111f5565b8210610b79576040517f08c379a0000000000000000000000000000000000000000000000000000000008152600401610b7090613a91565b60405180910390fd5b600660008473ffffffffffffffffffffffffffffffffffffffff1673ffffffffffffffffffffffffffffffffffffffff168152602001908152602001600020600083815260200190815260200160002054905092915050565b600c60009054906101000a900460ff16610c21576040517f08c379a0000000000000000000000000000000000000000000000000000000008152600401610c1890613d91565b60405180910390fd5b600c60019054906101000a900460ff1615610c71576040517f08c379a0000000000000000000000000000000000000000000000000000000008152600401610c6890613cd1565b60405180910390fd5b610cf1600b543386604051602001610c8a929190613936565b60405160208183030381529060405280519060200120858580806020026020016040519081016040528093929190818152602001838360200280828437600081840152601f19601f820116905080830192505050505050506120529092919063ffffffff16565b610d30576040517f08c379a0000000000000000000000000000000000000000000000000000000008152600401610d2790613af1565b60405180910390fd5b8381600d60003373ffffffffffffffffffffffffffffffffffffffff1673ffffffffffffffffffffffffffffffffffffffff16815260200190815260200160002054610d7c9190613eba565b1115610dbd576040517f08c379a0000000000000000000000000000000000000000000000000000000008152600401610db490613d71565b60405180910390fd5b3466470de4df82000082610dd19190613f41565b14610e11576040517f08c379a0000000000000000000000000000000000000000000000000000000008152600401610e0890613b51565b60405180910390fd5b60005b81811015610e4c57610e39336001610e2a610a27565b610e349190613eba565b612069565b8080610e44906140f2565b915050610e14565b5080600d60003373ffffffffffffffffffffffffffffffffffffffff1673ffffffffffffffffffffffffffffffffffffffff1681526020019081526020016000206000828254610e9c9190613eba565b9250508190555050505050565b610eb1611c57565b73ffffffffffffffffffffffffffffffffffffffff16610ecf611335565b73ffffffffffffffffffffffffffffffffffffffff1614610f25576040517f08c379a0000000000000000000000000000000000000000000000000000000008152600401610f1c90613c91565b60405180910390fd5b3373ffffffffffffffffffffffffffffffffffffffff166108fc479081150290604051600060405180830381858888f19350505050158015610f6b573d6000803e3d6000fd5b50565b610f8983838360405180602001604052806000815250611674565b505050565b600a81565b6000610f9d610a27565b8210610fde576040517f08c379a0000000000000000000000000000000000000000000000000000000008152600401610fd590613d31565b60405180910390fd5b60088281548110611018577f4e487b7100000000000000000000000000000000000000000000000000000000600052603260045260246000fd5b90600052602060002001549050919050565b600c60009054906101000a900460ff1681565b6000806002600084815260200190815260200160002060009054906101000a900473ffffffffffffffffffffffffffffffffffffffff169050600073ffffffffffffffffffffffffffffffffffffffff168173ffffffffffffffffffffffffffffffffffffffff1614156110e6576040517f08c379a00000000000000000000000000000000000000000000000000000000081526004016110dd90613c31565b60405180910390fd5b80915050919050565b600c60019054906101000a900460ff1681565b61110a611c57565b73ffffffffffffffffffffffffffffffffffffffff16611128611335565b73ffffffffffffffffffffffffffffffffffffffff161461117e576040517f08c379a000000000000000000000000000000000000000000000000000000000815260040161117590613c91565b60405180910390fd5b600082829050116111c4576040517f08c379a00000000000000000000000000000000000000000000000000000000081526004016111bb90613dd1565b60405180910390fd5b82601160006101000a81548160ff0219169083151502179055508181600f91906111ef929190612e6a565b50505050565b60008073ffffffffffffffffffffffffffffffffffffffff168273ffffffffffffffffffffffffffffffffffffffff161415611266576040517f08c379a000000000000000000000000000000000000000000000000000000000815260040161125d90613c11565b60405180910390fd5b600360008373ffffffffffffffffffffffffffffffffffffffff1673ffffffffffffffffffffffffffffffffffffffff168152602001908152602001600020549050919050565b6112b5611c57565b73ffffffffffffffffffffffffffffffffffffffff166112d3611335565b73ffffffffffffffffffffffffffffffffffffffff1614611329576040517f08c379a000000000000000000000000000000000000000000000000000000000815260040161132090613c91565b60405180910390fd5b6113336000612087565b565b6000600a60009054906101000a900473ffffffffffffffffffffffffffffffffffffffff16905090565b60606001805461136e9061408f565b80601f016020809104026020016040519081016040528092919081815260200182805461139a9061408f565b80156113e75780601f106113bc576101008083540402835291602001916113e7565b820191906000526020600020905b8154815290600101906020018083116113ca57829003601f168201915b5050505050905090565b600c60019054906101000a900460ff16611440576040517f08c379a000000000000000000000000000000000000000000000000000000000815260040161143790613d51565b60405180910390fd5b600c60009054906101000a900460ff1615611490576040517f08c379a000000000000000000000000000000000000000000000000000000000815260040161148790613b31565b60405180910390fd5b600a81600e60003373ffffffffffffffffffffffffffffffffffffffff1673ffffffffffffffffffffffffffffffffffffffff168152602001908152602001600020546114dd9190613eba565b111561151e576040517f08c379a000000000000000000000000000000000000000000000000000000000815260040161151590613d71565b60405180910390fd5b601e611528610a27565b826115339190613eba565b1115611574576040517f08c379a000000000000000000000000000000000000000000000000000000000815260040161156b90613b71565b60405180910390fd5b3466470de4df820000826115889190613f41565b11156115c9576040517f08c379a00000000000000000000000000000000000000000000000000000000081526004016115c090613b51565b60405180910390fd5b60005b81811015611604576115f13360016115e2610a27565b6115ec9190613eba565b612069565b80806115fc906140f2565b9150506115cc565b5080600e60003373ffffffffffffffffffffffffffffffffffffffff1673ffffffffffffffffffffffffffffffffffffffff16815260200190815260200160002060008282546116549190613eba565b9250508190555050565b611670611669611c57565b838361214d565b5050565b61168561167f611c57565b83611d18565b6116c4576040517f08c379a00000000000000000000000000000000000000000000000000000000081526004016116bb90613d11565b60405180910390fd5b6116d0848484846122ba565b50505050565b6116de611c57565b73ffffffffffffffffffffffffffffffffffffffff166116fc611335565b73ffffffffffffffffffffffffffffffffffffffff1614611752576040517f08c379a000000000000000000000000000000000000000000000000000000000815260040161174990613c91565b60405180910390fd5b80600c60006101000a81548160ff02191690831515021790555050565b606061177a82611beb565b6117b9576040517f08c379a00000000000000000000000000000000000000000000000000000000081526004016117b090613a71565b60405180910390fd5b60001515601160009054906101000a900460ff161515141561186757601080546117e29061408f565b80601f016020809104026020016040519081016040528092919081815260200182805461180e9061408f565b801561185b5780601f106118305761010080835404028352916020019161185b565b820191906000526020600020905b81548152906001019060200180831161183e57829003601f168201915b50505050509050611895565b600f61187283612316565b60405160200161188392919061398e565b60405160208183030381529060405290505b919050565b601e81565b6118a7611c57565b73ffffffffffffffffffffffffffffffffffffffff166118c5611335565b73ffffffffffffffffffffffffffffffffffffffff161461191b576040517f08c379a000000000000000000000000000000000000000000000000000000000815260040161191290613c91565b60405180910390fd5b6000602060ff1611611962576040517f08c379a000000000000000000000000000000000000000000000000000000000815260040161195990613db1565b60405180910390fd5b80600b8190555050565b6000600560008473ffffffffffffffffffffffffffffffffffffffff1673ffffffffffffffffffffffffffffffffffffffff16815260200190815260200160002060008373ffffffffffffffffffffffffffffffffffffffff1673ffffffffffffffffffffffffffffffffffffffff16815260200190815260200160002060009054906101000a900460ff16905092915050565b600b5481565b611a0e611c57565b73ffffffffffffffffffffffffffffffffffffffff16611a2c611335565b73ffffffffffffffffffffffffffffffffffffffff1614611a82576040517f08c379a0000000000000000000000000000000000000000000000000000000008152600401611a7990613c91565b60405180910390fd5b600073ffffffffffffffffffffffffffffffffffffffff168173ffffffffffffffffffffffffffffffffffffffff161415611af2576040517f08c379a0000000000000000000000000000000000000000000000000000000008152600401611ae990613ad1565b60405180910390fd5b611afb81612087565b50565b66470de4df82000081565b60007f80ac58cd000000000000000000000000000000000000000000000000000000007bffffffffffffffffffffffffffffffffffffffffffffffffffffffff1916827bffffffffffffffffffffffffffffffffffffffffffffffffffffffff19161480611bd457507f5b5e139f000000000000000000000000000000000000000000000000000000007bffffffffffffffffffffffffffffffffffffffffffffffffffffffff1916827bffffffffffffffffffffffffffffffffffffffffffffffffffffffff1916145b80611be45750611be3826124c3565b5b9050919050565b60008073ffffffffffffffffffffffffffffffffffffffff166002600084815260200190815260200160002060009054906101000a900473ffffffffffffffffffffffffffffffffffffffff1673ffffffffffffffffffffffffffffffffffffffff1614159050919050565b600033905090565b816004600083815260200190815260200160002060006101000a81548173ffffffffffffffffffffffffffffffffffffffff021916908373ffffffffffffffffffffffffffffffffffffffff160217905550808273ffffffffffffffffffffffffffffffffffffffff16611cd28361103d565b73ffffffffffffffffffffffffffffffffffffffff167f8c5be1e5ebec7d5bd14f71427d1e84f3dd0314c0f7b2291e5b200ac8c7c3b92560405160405180910390a45050565b6000611d2382611beb565b611d62576040517f08c379a0000000000000000000000000000000000000000000000000000000008152600401611d5990613bd1565b60405180910390fd5b6000611d6d8361103d565b90508073ffffffffffffffffffffffffffffffffffffffff168473ffffffffffffffffffffffffffffffffffffffff161480611ddc57508373ffffffffffffffffffffffffffffffffffffffff16611dc48461088a565b73ffffffffffffffffffffffffffffffffffffffff16145b80611ded5750611dec818561196c565b5b91505092915050565b8273ffffffffffffffffffffffffffffffffffffffff16611e168261103d565b73ffffffffffffffffffffffffffffffffffffffff1614611e6c576040517f08c379a0000000000000000000000000000000000000000000000000000000008152600401611e6390613cb1565b60405180910390fd5b600073ffffffffffffffffffffffffffffffffffffffff168273ffffffffffffffffffffffffffffffffffffffff161415611edc576040517f08c379a0000000000000000000000000000000000000000000000000000000008152600401611ed390613b91565b60405180910390fd5b611ee783838361252d565b611ef2600082611c5f565b6001600360008573ffffffffffffffffffffffffffffffffffffffff1673ffffffffffffffffffffffffffffffffffffffff1681526020019081526020016000206000828254611f429190613f9b565b925050819055506001600360008473ffffffffffffffffffffffffffffffffffffffff1673ffffffffffffffffffffffffffffffffffffffff1681526020019081526020016000206000828254611f999190613eba565b92505081905550816002600083815260200190815260200160002060006101000a81548173ffffffffffffffffffffffffffffffffffffffff021916908373ffffffffffffffffffffffffffffffffffffffff160217905550808273ffffffffffffffffffffffffffffffffffffffff168473ffffffffffffffffffffffffffffffffffffffff167fddf252ad1be2c89b69c2b068fc378daa952ba7f163c4a11628f55a4df523b3ef60405160405180910390a4505050565b60008261205f8584612641565b1490509392505050565b61208382826040518060200160405280600081525061271a565b5050565b6000600a60009054906101000a900473ffffffffffffffffffffffffffffffffffffffff16905081600a60006101000a81548173ffffffffffffffffffffffffffffffffffffffff021916908373ffffffffffffffffffffffffffffffffffffffff1602179055508173ffffffffffffffffffffffffffffffffffffffff168173ffffffffffffffffffffffffffffffffffffffff167f8be0079c531659141344cd1fd0a4f28419497f9722a3daafe3b4186f6b6457e060405160405180910390a35050565b8173ffffffffffffffffffffffffffffffffffffffff168373ffffffffffffffffffffffffffffffffffffffff1614156121bc576040517f08c379a00000000000000000000000000000000000000000000000000000000081526004016121b390613bb1565b60405180910390fd5b80600560008573ffffffffffffffffffffffffffffffffffffffff1673ffffffffffffffffffffffffffffffffffffffff16815260200190815260200160002060008473ffffffffffffffffffffffffffffffffffffffff1673ffffffffffffffffffffffffffffffffffffffff16815260200190815260200160002060006101000a81548160ff0219169083151502179055508173ffffffffffffffffffffffffffffffffffffffff168373ffffffffffffffffffffffffffffffffffffffff167f17307eab39ab6107e8899845ad3d59bd9653f200f220920489ca2b5937696c31836040516122ad9190613a19565b60405180910390a3505050565b6122c5848484611df6565b6122d184848484612775565b612310576040517f08c379a000000000000000000000000000000000000000000000000000000000815260040161230790613ab1565b60405180910390fd5b50505050565b6060600082141561235e576040518060400160405280600181526020017f300000000000000000000000000000000000000000000000000000000000000081525090506124be565b600082905060005b60008214612390578080612379906140f2565b915050600a826123899190613f10565b9150612366565b60008167ffffffffffffffff8111156123d2577f4e487b7100000000000000000000000000000000000000000000000000000000600052604160045260246000fd5b6040519080825280601f01601f1916602001820160405280156124045781602001600182028036833780820191505090505b5090505b600085146124b75760018261241d9190613f9b565b9150600a8561242c9190614173565b60306124389190613eba565b60f81b818381518110612474577f4e487b7100000000000000000000000000000000000000000000000000000000600052603260045260246000fd5b60200101907effffffffffffffffffffffffffffffffffffffffffffffffffffffffffffff1916908160001a905350600a856124b09190613f10565b9450612408565b8093505050505b919050565b60007f01ffc9a7000000000000000000000000000000000000000000000000000000007bffffffffffffffffffffffffffffffffffffffffffffffffffffffff1916827bffffffffffffffffffffffffffffffffffffffffffffffffffffffff1916149050919050565b61253883838361290c565b600073ffffffffffffffffffffffffffffffffffffffff168373ffffffffffffffffffffffffffffffffffffffff16141561257b5761257681612911565b6125ba565b8173ffffffffffffffffffffffffffffffffffffffff168373ffffffffffffffffffffffffffffffffffffffff16146125b9576125b8838261295a565b5b5b600073ffffffffffffffffffffffffffffffffffffffff168273ffffffffffffffffffffffffffffffffffffffff1614156125fd576125f881612ac7565b61263c565b8273ffffffffffffffffffffffffffffffffffffffff168273ffffffffffffffffffffffffffffffffffffffff161461263b5761263a8282612c0a565b5b5b505050565b60008082905060005b845181101561270f57600085828151811061268e577f4e487b7100000000000000000000000000000000000000000000000000000000600052603260045260246000fd5b602002602001015190508083116126cf5782816040516020016126b2929190613962565b6040516020818303038152906040528051906020012092506126fb565b80836040516020016126e2929190613962565b6040516020818303038152906040528051906020012092505b508080612707906140f2565b91505061264a565b508091505092915050565b6127248383612c89565b6127316000848484612775565b612770576040517f08c379a000000000000000000000000000000000000000000000000000000000815260040161276790613ab1565b60405180910390fd5b505050565b60006127968473ffffffffffffffffffffffffffffffffffffffff16612e57565b156128ff578373ffffffffffffffffffffffffffffffffffffffff1663150b7a026127bf611c57565b8786866040518563ffffffff1660e01b81526004016127e194939291906139cd565b602060405180830381600087803b1580156127fb57600080fd5b505af192505050801561282c57506040513d601f19601f820116820180604052508101906128299190613301565b60015b6128af573d806000811461285c576040519150601f19603f3d011682016040523d82523d6000602084013e612861565b606091505b506000815114156128a7576040517f08c379a000000000000000000000000000000000000000000000000000000000815260040161289e90613ab1565b60405180910390fd5b805181602001fd5b63150b7a0260e01b7bffffffffffffffffffffffffffffffffffffffffffffffffffffffff1916817bffffffffffffffffffffffffffffffffffffffffffffffffffffffff191614915050612904565b600190505b949350505050565b505050565b6008805490506009600083815260200190815260200160002081905550600881908060018154018082558091505060019003906000526020600020016000909190919091505550565b60006001612967846111f5565b6129719190613f9b565b9050600060076000848152602001908152602001600020549050818114612a56576000600660008673ffffffffffffffffffffffffffffffffffffffff1673ffffffffffffffffffffffffffffffffffffffff168152602001908152602001600020600084815260200190815260200160002054905080600660008773ffffffffffffffffffffffffffffffffffffffff1673ffffffffffffffffffffffffffffffffffffffff168152602001908152602001600020600084815260200190815260200160002081905550816007600083815260200190815260200160002081905550505b6007600084815260200190815260200160002060009055600660008573ffffffffffffffffffffffffffffffffffffffff1673ffffffffffffffffffffffffffffffffffffffff16815260200190815260200160002060008381526020019081526020016000206000905550505050565b60006001600880549050612adb9190613f9b565b9050600060096000848152602001908152602001600020549050600060088381548110612b31577f4e487b7100000000000000000000000000000000000000000000000000000000600052603260045260246000fd5b906000526020600020015490508060088381548110612b79577f4e487b7100000000000000000000000000000000000000000000000000000000600052603260045260246000fd5b906000526020600020018190555081600960008381526020019081526020016000208190555060096000858152602001908152602001600020600090556008805480612bee577f4e487b7100000000000000000000000000000000000000000000000000000000600052603160045260246000fd5b6001900381819060005260206000200160009055905550505050565b6000612c15836111f5565b905081600660008573ffffffffffffffffffffffffffffffffffffffff1673ffffffffffffffffffffffffffffffffffffffff168152602001908152602001600020600083815260200190815260200160002081905550806007600084815260200190815260200160002081905550505050565b600073ffffffffffffffffffffffffffffffffffffffff168273ffffffffffffffffffffffffffffffffffffffff161415612cf9576040517f08c379a0000000000000000000000000000000000000000000000000000000008152600401612cf090613c51565b60405180910390fd5b612d0281611beb565b15612d42576040517f08c379a0000000000000000000000000000000000000000000000000000000008152600401612d3990613b11565b60405180910390fd5b612d4e6000838361252d565b6001600360008473ffffffffffffffffffffffffffffffffffffffff1673ffffffffffffffffffffffffffffffffffffffff1681526020019081526020016000206000828254612d9e9190613eba565b92505081905550816002600083815260200190815260200160002060006101000a81548173ffffffffffffffffffffffffffffffffffffffff021916908373ffffffffffffffffffffffffffffffffffffffff160217905550808273ffffffffffffffffffffffffffffffffffffffff16600073ffffffffffffffffffffffffffffffffffffffff167fddf252ad1be2c89b69c2b068fc378daa952ba7f163c4a11628f55a4df523b3ef60405160405180910390a45050565b600080823b905060008111915050919050565b828054612e769061408f565b90600052602060002090601f016020900481019282612e985760008555612edf565b82601f10612eb157803560ff1916838001178555612edf565b82800160010185558215612edf579182015b82811115612ede578235825591602001919060010190612ec3565b5b509050612eec9190612ef0565b5090565b5b80821115612f09576000816000905550600101612ef1565b5090565b6000612f20612f1b84613e31565b613e0c565b905082815260208101848484011115612f3857600080fd5b612f4384828561404d565b509392505050565b600081359050612f5a816148e8565b92915050565b60008083601f840112612f7257600080fd5b8235905067ffffffffffffffff811115612f8b57600080fd5b602083019150836020820283011115612fa357600080fd5b9250929050565b600081359050612fb9816148ff565b92915050565b600081359050612fce81614916565b92915050565b600081359050612fe38161492d565b92915050565b600081519050612ff88161492d565b92915050565b600082601f83011261300f57600080fd5b813561301f848260208601612f0d565b91505092915050565b60008083601f84011261303a57600080fd5b8235905067ffffffffffffffff81111561305357600080fd5b60208301915083600182028301111561306b57600080fd5b9250929050565b60008135905061308181614944565b92915050565b60006020828403121561309957600080fd5b60006130a784828501612f4b565b91505092915050565b600080604083850312156130c357600080fd5b60006130d185828601612f4b565b92505060206130e285828601612f4b565b9150509250929050565b60008060006060848603121561310157600080fd5b600061310f86828701612f4b565b935050602061312086828701612f4b565b925050604061313186828701613072565b9150509250925092565b6000806000806080858703121561315157600080fd5b600061315f87828801612f4b565b945050602061317087828801612f4b565b935050604061318187828801613072565b925050606085013567ffffffffffffffff81111561319e57600080fd5b6131aa87828801612ffe565b91505092959194509250565b600080604083850312156131c957600080fd5b60006131d785828601612f4b565b92505060206131e885828601612faa565b9150509250929050565b6000806040838503121561320557600080fd5b600061321385828601612f4b565b925050602061322485828601613072565b9150509250929050565b60006020828403121561324057600080fd5b600061324e84828501612faa565b91505092915050565b60008060006040848603121561326c57600080fd5b600061327a86828701612faa565b935050602084013567ffffffffffffffff81111561329757600080fd5b6132a386828701613028565b92509250509250925092565b6000602082840312156132c157600080fd5b60006132cf84828501612fbf565b91505092915050565b6000602082840312156132ea57600080fd5b60006132f884828501612fd4565b91505092915050565b60006020828403121561331357600080fd5b600061332184828501612fe9565b91505092915050565b60006020828403121561333c57600080fd5b600061334a84828501613072565b91505092915050565b6000806000806060858703121561336957600080fd5b600061337787828801613072565b945050602085013567ffffffffffffffff81111561339457600080fd5b6133a087828801612f60565b935093505060406133b387828801613072565b91505092959194509250565b6133c881613fcf565b82525050565b6133df6133da82613fcf565b61413b565b82525050565b6133ee81613fe1565b82525050565b6133fd81613fed565b82525050565b61341461340f82613fed565b61414d565b82525050565b600061342582613e77565b61342f8185613e8d565b935061343f81856020860161405c565b61344881614260565b840191505092915050565b600061345e82613e82565b6134688185613e9e565b935061347881856020860161405c565b61348181614260565b840191505092915050565b600061349782613e82565b6134a18185613eaf565b93506134b181856020860161405c565b80840191505092915050565b600081546134ca8161408f565b6134d48186613eaf565b945060018216600081146134ef576001811461350057613533565b60ff19831686528186019350613533565b61350985613e62565b60005b8381101561352b5781548189015260018201915060208101905061350c565b838801955050505b50505092915050565b6000613549601f83613e9e565b91506135548261427e565b602082019050919050565b600061356c602b83613e9e565b9150613577826142a7565b604082019050919050565b600061358f603283613e9e565b915061359a826142f6565b604082019050919050565b60006135b2602683613e9e565b91506135bd82614345565b604082019050919050565b60006135d5601083613e9e565b91506135e082614394565b602082019050919050565b60006135f8601c83613e9e565b9150613603826143bd565b602082019050919050565b600061361b601683613e9e565b9150613626826143e6565b602082019050919050565b600061363e601883613e9e565b91506136498261440f565b602082019050919050565b6000613661601883613e9e565b915061366c82614438565b602082019050919050565b6000613684602483613e9e565b915061368f82614461565b604082019050919050565b60006136a7601983613e9e565b91506136b2826144b0565b602082019050919050565b60006136ca602c83613e9e565b91506136d5826144d9565b604082019050919050565b60006136ed603883613e9e565b91506136f882614528565b604082019050919050565b6000613710602a83613e9e565b915061371b82614577565b604082019050919050565b6000613733602983613e9e565b915061373e826145c6565b604082019050919050565b6000613756602083613e9e565b915061376182614615565b602082019050919050565b6000613779602c83613e9e565b91506137848261463e565b604082019050919050565b600061379c602083613e9e565b91506137a78261468d565b602082019050919050565b60006137bf602983613e9e565b91506137ca826146b6565b604082019050919050565b60006137e2601583613e9e565b91506137ed82614705565b602082019050919050565b6000613805602183613e9e565b91506138108261472e565b604082019050919050565b6000613828603183613e9e565b91506138338261477d565b604082019050919050565b600061384b602c83613e9e565b9150613856826147cc565b604082019050919050565b600061386e600f83613e9e565b91506138798261481b565b602082019050919050565b6000613891601983613e9e565b915061389c82614844565b602082019050919050565b60006138b4601283613e9e565b91506138bf8261486d565b602082019050919050565b60006138d7600e83613e9e565b91506138e282614896565b602082019050919050565b60006138fa601683613e9e565b9150613905826148bf565b602082019050919050565b61391981614043565b82525050565b61393061392b82614043565b614169565b82525050565b600061394282856133ce565b601482019150613952828461391f565b6020820191508190509392505050565b600061396e8285613403565b60208201915061397e8284613403565b6020820191508190509392505050565b600061399a82856134bd565b91506139a6828461348c565b91508190509392505050565b60006020820190506139c760008301846133bf565b92915050565b60006080820190506139e260008301876133bf565b6139ef60208301866133bf565b6139fc6040830185613910565b8181036060830152613a0e818461341a565b905095945050505050565b6000602082019050613a2e60008301846133e5565b92915050565b6000602082019050613a4960008301846133f4565b92915050565b60006020820190508181036000830152613a698184613453565b905092915050565b60006020820190508181036000830152613a8a8161353c565b9050919050565b60006020820190508181036000830152613aaa8161355f565b9050919050565b60006020820190508181036000830152613aca81613582565b9050919050565b60006020820190508181036000830152613aea816135a5565b9050919050565b60006020820190508181036000830152613b0a816135c8565b9050919050565b60006020820190508181036000830152613b2a816135eb565b9050919050565b60006020820190508181036000830152613b4a8161360e565b9050919050565b60006020820190508181036000830152613b6a81613631565b9050919050565b60006020820190508181036000830152613b8a81613654565b9050919050565b60006020820190508181036000830152613baa81613677565b9050919050565b60006020820190508181036000830152613bca8161369a565b9050919050565b60006020820190508181036000830152613bea816136bd565b9050919050565b60006020820190508181036000830152613c0a816136e0565b9050919050565b60006020820190508181036000830152613c2a81613703565b9050919050565b60006020820190508181036000830152613c4a81613726565b9050919050565b60006020820190508181036000830152613c6a81613749565b9050919050565b60006020820190508181036000830152613c8a8161376c565b9050919050565b60006020820190508181036000830152613caa8161378f565b9050919050565b60006020820190508181036000830152613cca816137b2565b9050919050565b60006020820190508181036000830152613cea816137d5565b9050919050565b60006020820190508181036000830152613d0a816137f8565b9050919050565b60006020820190508181036000830152613d2a8161381b565b9050919050565b60006020820190508181036000830152613d4a8161383e565b9050919050565b60006020820190508181036000830152613d6a81613861565b9050919050565b60006020820190508181036000830152613d8a81613884565b9050919050565b60006020820190508181036000830152613daa816138a7565b9050919050565b60006020820190508181036000830152613dca816138ca565b9050919050565b60006020820190508181036000830152613dea816138ed565b9050919050565b6000602082019050613e066000830184613910565b92915050565b6000613e16613e27565b9050613e2282826140c1565b919050565b6000604051905090565b600067ffffffffffffffff821115613e4c57613e4b614231565b5b613e5582614260565b9050602081019050919050565b60008190508160005260206000209050919050565b600081519050919050565b600081519050919050565b600082825260208201905092915050565b600082825260208201905092915050565b600081905092915050565b6000613ec582614043565b9150613ed083614043565b9250827fffffffffffffffffffffffffffffffffffffffffffffffffffffffffffffffff03821115613f0557613f046141a4565b5b828201905092915050565b6000613f1b82614043565b9150613f2683614043565b925082613f3657613f356141d3565b5b828204905092915050565b6000613f4c82614043565b9150613f5783614043565b9250817fffffffffffffffffffffffffffffffffffffffffffffffffffffffffffffffff0483118215151615613f9057613f8f6141a4565b5b828202905092915050565b6000613fa682614043565b9150613fb183614043565b925082821015613fc457613fc36141a4565b5b828203905092915050565b6000613fda82614023565b9050919050565b60008115159050919050565b6000819050919050565b60007fffffffff0000000000000000000000000000000000000000000000000000000082169050919050565b600073ffffffffffffffffffffffffffffffffffffffff82169050919050565b6000819050919050565b82818337600083830152505050565b60005b8381101561407a57808201518184015260208101905061405f565b83811115614089576000848401525b50505050565b600060028204905060018216806140a757607f821691505b602082108114156140bb576140ba614202565b5b50919050565b6140ca82614260565b810181811067ffffffffffffffff821117156140e9576140e8614231565b5b80604052505050565b60006140fd82614043565b91507fffffffffffffffffffffffffffffffffffffffffffffffffffffffffffffffff8214156141305761412f6141a4565b5b600182019050919050565b600061414682614157565b9050919050565b6000819050919050565b600061416282614271565b9050919050565b6000819050919050565b600061417e82614043565b915061418983614043565b925082614199576141986141d3565b5b828206905092915050565b7f4e487b7100000000000000000000000000000000000000000000000000000000600052601160045260246000fd5b7f4e487b7100000000000000000000000000000000000000000000000000000000600052601260045260246000fd5b7f4e487b7100000000000000000000000000000000000000000000000000000000600052602260045260246000fd5b7f4e487b7100000000000000000000000000000000000000000000000000000000600052604160045260246000fd5b6000601f19601f8301169050919050565b60008160601b9050919050565b7f55524920717565727920666f72206e6f6e6578697374656e7420746f6b656e00600082015250565b7f455243373231456e756d657261626c653a206f776e657220696e646578206f7560008201527f74206f6620626f756e6473000000000000000000000000000000000000000000602082015250565b7f4552433732313a207472616e7366657220746f206e6f6e20455243373231526560008201527f63656976657220696d706c656d656e7465720000000000000000000000000000602082015250565b7f4f776e61626c653a206e6577206f776e657220697320746865207a65726f206160008201527f6464726573730000000000000000000000000000000000000000000000000000602082015250565b7f4e4f54204f4e2057484954454c49535400000000000000000000000000000000600082015250565b7f4552433732313a20746f6b656e20616c7265616479206d696e74656400000000600082015250565b7f50524553414c45204f4e4c59205249474854204e4f5700000000000000000000600082015250565b7f494e434f5252454354205041594d454e5420414d4f554e540000000000000000600082015250565b7f4e4f5420454e4f554748204c45465420494e2053544f434b0000000000000000600082015250565b7f4552433732313a207472616e7366657220746f20746865207a65726f2061646460008201527f7265737300000000000000000000000000000000000000000000000000000000602082015250565b7f4552433732313a20617070726f766520746f2063616c6c657200000000000000600082015250565b7f4552433732313a206f70657261746f7220717565727920666f72206e6f6e657860008201527f697374656e7420746f6b656e0000000000000000000000000000000000000000602082015250565b7f4552433732313a20617070726f76652063616c6c6572206973206e6f74206f7760008201527f6e6572206e6f7220617070726f76656420666f7220616c6c0000000000000000602082015250565b7f4552433732313a2062616c616e636520717565727920666f7220746865207a6560008201527f726f206164647265737300000000000000000000000000000000000000000000602082015250565b7f4552433732313a206f776e657220717565727920666f72206e6f6e657869737460008201527f656e7420746f6b656e0000000000000000000000000000000000000000000000602082015250565b7f4552433732313a206d696e7420746f20746865207a65726f2061646472657373600082015250565b7f4552433732313a20617070726f76656420717565727920666f72206e6f6e657860008201527f697374656e7420746f6b656e0000000000000000000000000000000000000000602082015250565b7f4f776e61626c653a2063616c6c6572206973206e6f7420746865206f776e6572600082015250565b7f4552433732313a207472616e73666572206f6620746f6b656e2074686174206960008201527f73206e6f74206f776e0000000000000000000000000000000000000000000000602082015250565b7f53414c4520414354495645205249474854204e4f570000000000000000000000600082015250565b7f4552433732313a20617070726f76616c20746f2063757272656e74206f776e6560008201527f7200000000000000000000000000000000000000000000000000000000000000602082015250565b7f4552433732313a207472616e736665722063616c6c6572206973206e6f74206f60008201527f776e6572206e6f7220617070726f766564000000000000000000000000000000602082015250565b7f455243373231456e756d657261626c653a20676c6f62616c20696e646578206f60008201527f7574206f6620626f756e64730000000000000000000000000000000000000000602082015250565b7f53414c45204e4f54204143544956450000000000000000000000000000000000600082015250565b7f4d494e54494e47204d4f5245205448414e20414c4c4f57454400000000000000600082015250565b7f50524553414c45204e4f54204143544956450000000000000000000000000000600082015250565b7f5f726f6f7420697320656d707479000000000000000000000000000000000000600082015250565b7f5f746f6b656e4261736555524920697320656d70747900000000000000000000600082015250565b6148f181613fcf565b81146148fc57600080fd5b50565b61490881613fe1565b811461491357600080fd5b50565b61491f81613fed565b811461492a57600080fd5b50565b61493681613ff7565b811461494157600080fd5b50565b61494d81614043565b811461495857600080fd5b5056fea2646970667358221220d89388ee1d800e797befb92de418871a17da606046fba501be10056249f578d164736f6c63430008040033",
  "linkReferences": {},
  "deployedLinkReferences": {}
}