{
  "_format": "hh-sol-artifact-1",
  "contractName": "PMV",
  "sourceName": "contracts/PMV.sol",
  "abi": [
    {
      "inputs": [
        {
          "internalType": "bytes32",
          "name": "merkleroot",
          "type": "bytes32"
        },
        {
          "internalType": "string",
          "name": "uri",
          "type": "string"
        },
        {
          "internalType": "bytes32",
          "name": "_rootMintFree",
          "type": "bytes32"
        },
        {
          "internalType": "bytes32",
          "name": "_provenanceHash",
          "type": "bytes32"
        },
        {
          "internalType": "address",
          "name": "vrfCoordinator",
          "type": "address"
        },
        {
          "internalType": "address",
          "name": "link",
          "type": "address"
        },
        {
          "internalType": "bytes32",
          "name": "keyhash",
          "type": "bytes32"
        },
        {
          "internalType": "uint256",
          "name": "fee",
          "type": "uint256"
        },
        {
          "internalType": "address",
          "name": "_multiSigWallet",
          "type": "address"
        }
      ],
      "stateMutability": "nonpayable",
      "type": "constructor"
    },
    {
      "anonymous": false,
      "inputs": [
        {
          "indexed": true,
          "internalType": "address",
          "name": "owner",
          "type": "address"
        },
        {
          "indexed": true,
          "internalType": "address",
          "name": "approved",
          "type": "address"
        },
        {
          "indexed": true,
          "internalType": "uint256",
          "name": "tokenId",
          "type": "uint256"
        }
      ],
      "name": "Approval",
      "type": "event"
    },
    {
      "anonymous": false,
      "inputs": [
        {
          "indexed": true,
          "internalType": "address",
          "name": "owner",
          "type": "address"
        },
        {
          "indexed": true,
          "internalType": "address",
          "name": "operator",
          "type": "address"
        },
        {
          "indexed": false,
          "internalType": "bool",
          "name": "approved",
          "type": "bool"
        }
      ],
      "name": "ApprovalForAll",
      "type": "event"
    },
    {
      "anonymous": false,
      "inputs": [
        {
          "indexed": true,
          "internalType": "address",
          "name": "previousOwner",
          "type": "address"
        },
        {
          "indexed": true,
          "internalType": "address",
          "name": "newOwner",
          "type": "address"
        }
      ],
      "name": "OwnershipTransferred",
      "type": "event"
    },
    {
      "anonymous": false,
      "inputs": [
        {
          "indexed": true,
          "internalType": "address",
          "name": "from",
          "type": "address"
        },
        {
          "indexed": true,
          "internalType": "address",
          "name": "to",
          "type": "address"
        },
        {
          "indexed": true,
          "internalType": "uint256",
          "name": "tokenId",
          "type": "uint256"
        }
      ],
      "name": "Transfer",
      "type": "event"
    },
    {
      "inputs": [
        {
          "internalType": "uint256",
          "name": "tokenId",
          "type": "uint256"
        }
      ],
      "name": "_tokenURI",
      "outputs": [
        {
          "internalType": "string",
          "name": "",
          "type": "string"
        }
      ],
      "stateMutability": "view",
      "type": "function"
    },
    {
      "inputs": [
        {
          "internalType": "address",
          "name": "to",
          "type": "address"
        },
        {
          "internalType": "uint256",
          "name": "tokenId",
          "type": "uint256"
        }
      ],
      "name": "approve",
      "outputs": [],
      "stateMutability": "nonpayable",
      "type": "function"
    },
    {
      "inputs": [
        {
          "internalType": "address",
          "name": "owner",
          "type": "address"
        }
      ],
      "name": "balanceOf",
      "outputs": [
        {
          "internalType": "uint256",
          "name": "",
          "type": "uint256"
        }
      ],
      "stateMutability": "view",
      "type": "function"
    },
    {
      "inputs": [
        {
          "internalType": "address",
          "name": "",
          "type": "address"
        }
      ],
      "name": "freeMints",
      "outputs": [
        {
          "internalType": "uint256",
          "name": "",
          "type": "uint256"
        }
      ],
      "stateMutability": "view",
      "type": "function"
    },
    {
      "inputs": [],
      "name": "generateRandomOffset",
      "outputs": [
        {
          "internalType": "bytes32",
          "name": "requestId",
          "type": "bytes32"
        }
      ],
      "stateMutability": "nonpayable",
      "type": "function"
    },
    {
      "inputs": [
        {
          "internalType": "uint256",
          "name": "tokenId",
          "type": "uint256"
        }
      ],
      "name": "getApproved",
      "outputs": [
        {
          "internalType": "address",
          "name": "",
          "type": "address"
        }
      ],
      "stateMutability": "view",
      "type": "function"
    },
    {
      "inputs": [
        {
          "internalType": "address",
          "name": "owner",
          "type": "address"
        },
        {
          "internalType": "address",
          "name": "operator",
          "type": "address"
        }
      ],
      "name": "isApprovedForAll",
      "outputs": [
        {
          "internalType": "bool",
          "name": "",
          "type": "bool"
        }
      ],
      "stateMutability": "view",
      "type": "function"
    },
    {
      "inputs": [],
      "name": "letContractMint",
      "outputs": [
        {
          "internalType": "bool",
          "name": "",
          "type": "bool"
        }
      ],
      "stateMutability": "view",
      "type": "function"
    },
    {
      "inputs": [],
      "name": "maxPerTransaction",
      "outputs": [
        {
          "internalType": "uint256",
          "name": "",
          "type": "uint256"
        }
      ],
      "stateMutability": "view",
      "type": "function"
    },
    {
      "inputs": [],
      "name": "maxSupply",
      "outputs": [
        {
          "internalType": "uint256",
          "name": "",
          "type": "uint256"
        }
      ],
      "stateMutability": "view",
      "type": "function"
    },
    {
      "inputs": [
        {
          "internalType": "uint256",
          "name": "tokenQuantity",
          "type": "uint256"
        }
      ],
      "name": "mint",
      "outputs": [],
      "stateMutability": "payable",
      "type": "function"
    },
    {
      "inputs": [
        {
          "internalType": "uint256",
          "name": "allowance",
          "type": "uint256"
        },
        {
          "internalType": "bytes32[]",
          "name": "proof",
          "type": "bytes32[]"
        },
        {
          "internalType": "uint256",
          "name": "tokenQuantity",
          "type": "uint256"
        }
      ],
      "name": "mintFree",
      "outputs": [],
      "stateMutability": "nonpayable",
      "type": "function"
    },
    {
      "inputs": [
        {
          "internalType": "uint256",
          "name": "allowance",
          "type": "uint256"
        },
        {
          "internalType": "bytes32[]",
          "name": "proof",
          "type": "bytes32[]"
        },
        {
          "internalType": "uint256",
          "name": "tokenQuantity",
          "type": "uint256"
        }
      ],
      "name": "mintPresale",
      "outputs": [],
      "stateMutability": "payable",
      "type": "function"
    },
    {
      "inputs": [],
      "name": "multiSigWallet",
      "outputs": [
        {
          "internalType": "address",
          "name": "",
          "type": "address"
        }
      ],
      "stateMutability": "view",
      "type": "function"
    },
    {
      "inputs": [],
      "name": "name",
      "outputs": [
        {
          "internalType": "string",
          "name": "",
          "type": "string"
        }
      ],
      "stateMutability": "view",
      "type": "function"
    },
    {
      "inputs": [],
      "name": "offset",
      "outputs": [
        {
          "internalType": "uint256",
          "name": "",
          "type": "uint256"
        }
      ],
      "stateMutability": "view",
      "type": "function"
    },
    {
      "inputs": [],
      "name": "offsetRequested",
      "outputs": [
        {
          "internalType": "bool",
          "name": "",
          "type": "bool"
        }
      ],
      "stateMutability": "view",
      "type": "function"
    },
    {
      "inputs": [],
      "name": "owner",
      "outputs": [
        {
          "internalType": "address",
          "name": "",
          "type": "address"
        }
      ],
      "stateMutability": "view",
      "type": "function"
    },
    {
      "inputs": [
        {
          "internalType": "uint256",
          "name": "tokenQuantity",
          "type": "uint256"
        }
      ],
      "name": "ownerMint",
      "outputs": [],
      "stateMutability": "nonpayable",
      "type": "function"
    },
    {
      "inputs": [],
      "name": "ownerMintBuffer",
      "outputs": [
        {
          "internalType": "uint256",
          "name": "",
          "type": "uint256"
        }
      ],
      "stateMutability": "view",
      "type": "function"
    },
    {
      "inputs": [
        {
          "internalType": "uint256",
          "name": "tokenId",
          "type": "uint256"
        }
      ],
      "name": "ownerOf",
      "outputs": [
        {
          "internalType": "address",
          "name": "",
          "type": "address"
        }
      ],
      "stateMutability": "view",
      "type": "function"
    },
    {
      "inputs": [],
      "name": "presaleActive",
      "outputs": [
        {
          "internalType": "bool",
          "name": "",
          "type": "bool"
        }
      ],
      "stateMutability": "view",
      "type": "function"
    },
    {
      "inputs": [
        {
          "internalType": "address",
          "name": "",
          "type": "address"
        }
      ],
      "name": "presaleMints",
      "outputs": [
        {
          "internalType": "uint256",
          "name": "",
          "type": "uint256"
        }
      ],
      "stateMutability": "view",
      "type": "function"
    },
    {
      "inputs": [],
      "name": "presalePrice",
      "outputs": [
        {
          "internalType": "uint256",
          "name": "",
          "type": "uint256"
        }
      ],
      "stateMutability": "view",
      "type": "function"
    },
    {
      "inputs": [],
      "name": "provenanceHash",
      "outputs": [
        {
          "internalType": "bytes32",
          "name": "",
          "type": "bytes32"
        }
      ],
      "stateMutability": "view",
      "type": "function"
    },
    {
      "inputs": [
        {
          "internalType": "bytes32",
          "name": "requestId",
          "type": "bytes32"
        },
        {
          "internalType": "uint256",
          "name": "randomness",
          "type": "uint256"
        }
      ],
      "name": "rawFulfillRandomness",
      "outputs": [],
      "stateMutability": "nonpayable",
      "type": "function"
    },
    {
      "inputs": [],
      "name": "renounceOwnership",
      "outputs": [],
      "stateMutability": "nonpayable",
      "type": "function"
    },
    {
      "inputs": [],
      "name": "root",
      "outputs": [
        {
          "internalType": "bytes32",
          "name": "",
          "type": "bytes32"
        }
      ],
      "stateMutability": "view",
      "type": "function"
    },
    {
      "inputs": [],
      "name": "rootMintFree",
      "outputs": [
        {
          "internalType": "bytes32",
          "name": "",
          "type": "bytes32"
        }
      ],
      "stateMutability": "view",
      "type": "function"
    },
    {
      "inputs": [
        {
          "internalType": "address",
          "name": "from",
          "type": "address"
        },
        {
          "internalType": "address",
          "name": "to",
          "type": "address"
        },
        {
          "internalType": "uint256",
          "name": "tokenId",
          "type": "uint256"
        }
      ],
      "name": "safeTransferFrom",
      "outputs": [],
      "stateMutability": "nonpayable",
      "type": "function"
    },
    {
      "inputs": [
        {
          "internalType": "address",
          "name": "from",
          "type": "address"
        },
        {
          "internalType": "address",
          "name": "to",
          "type": "address"
        },
        {
          "internalType": "uint256",
          "name": "tokenId",
          "type": "uint256"
        },
        {
          "internalType": "bytes",
          "name": "_data",
          "type": "bytes"
        }
      ],
      "name": "safeTransferFrom",
      "outputs": [],
      "stateMutability": "nonpayable",
      "type": "function"
    },
    {
      "inputs": [],
      "name": "saleActive",
      "outputs": [
        {
          "internalType": "bool",
          "name": "",
          "type": "bool"
        }
      ],
      "stateMutability": "view",
      "type": "function"
    },
    {
      "inputs": [],
      "name": "salePrice",
      "outputs": [
        {
          "internalType": "uint256",
          "name": "",
          "type": "uint256"
        }
      ],
      "stateMutability": "view",
      "type": "function"
    },
    {
      "inputs": [
        {
          "internalType": "address",
          "name": "operator",
          "type": "address"
        },
        {
          "internalType": "bool",
          "name": "approved",
          "type": "bool"
        }
      ],
      "name": "setApprovalForAll",
      "outputs": [],
      "stateMutability": "nonpayable",
      "type": "function"
    },
    {
      "inputs": [
        {
          "internalType": "bool",
          "name": "_letContractMint",
          "type": "bool"
        }
      ],
      "name": "setLetContractMint",
      "outputs": [],
      "stateMutability": "nonpayable",
      "type": "function"
    },
    {
      "inputs": [
        {
          "internalType": "uint256",
          "name": "_maxPerTransaction",
          "type": "uint256"
        }
      ],
      "name": "setMaxPerTransaction",
      "outputs": [],
      "stateMutability": "nonpayable",
      "type": "function"
    },
    {
      "inputs": [
        {
          "internalType": "uint256",
          "name": "_ownerMintBuffer",
          "type": "uint256"
        }
      ],
      "name": "setOwnerMintBuffer",
      "outputs": [],
      "stateMutability": "nonpayable",
      "type": "function"
    },
    {
      "inputs": [
        {
          "internalType": "bool",
          "name": "_presaleStatus",
          "type": "bool"
        }
      ],
      "name": "setPresale",
      "outputs": [],
      "stateMutability": "nonpayable",
      "type": "function"
    },
    {
      "inputs": [
        {
          "internalType": "uint256",
          "name": "_presalePrice",
          "type": "uint256"
        }
      ],
      "name": "setPresalePrice",
      "outputs": [],
      "stateMutability": "nonpayable",
      "type": "function"
    },
    {
      "inputs": [
        {
          "internalType": "uint256",
          "name": "_salePrice",
          "type": "uint256"
        }
      ],
      "name": "setPrice",
      "outputs": [],
      "stateMutability": "nonpayable",
      "type": "function"
    },
    {
      "inputs": [
        {
          "internalType": "bytes32",
          "name": "_root",
          "type": "bytes32"
        }
      ],
      "name": "setRoot",
      "outputs": [],
      "stateMutability": "nonpayable",
      "type": "function"
    },
    {
      "inputs": [
        {
          "internalType": "bytes32",
          "name": "_root",
          "type": "bytes32"
        }
      ],
      "name": "setRootMintFree",
      "outputs": [],
      "stateMutability": "nonpayable",
      "type": "function"
    },
    {
      "inputs": [
        {
          "internalType": "bool",
          "name": "_saleStatus",
          "type": "bool"
        }
      ],
      "name": "setSale",
      "outputs": [],
      "stateMutability": "nonpayable",
      "type": "function"
    },
    {
      "inputs": [
        {
          "internalType": "bool",
          "name": "_revealed",
          "type": "bool"
        },
        {
          "internalType": "string",
          "name": "_tokenBaseURI",
          "type": "string"
        }
      ],
      "name": "setURIStatus",
      "outputs": [],
      "stateMutability": "nonpayable",
      "type": "function"
    },
    {
      "inputs": [
        {
          "internalType": "bytes4",
          "name": "interfaceId",
          "type": "bytes4"
        }
      ],
      "name": "supportsInterface",
      "outputs": [
        {
          "internalType": "bool",
          "name": "",
          "type": "bool"
        }
      ],
      "stateMutability": "view",
      "type": "function"
    },
    {
      "inputs": [],
      "name": "symbol",
      "outputs": [
        {
          "internalType": "string",
          "name": "",
          "type": "string"
        }
      ],
      "stateMutability": "view",
      "type": "function"
    },
    {
      "inputs": [
        {
          "internalType": "uint256",
          "name": "index",
          "type": "uint256"
        }
      ],
      "name": "tokenByIndex",
      "outputs": [
        {
          "internalType": "uint256",
          "name": "",
          "type": "uint256"
        }
      ],
      "stateMutability": "view",
      "type": "function"
    },
    {
      "inputs": [
        {
          "internalType": "address",
          "name": "owner",
          "type": "address"
        },
        {
          "internalType": "uint256",
          "name": "index",
          "type": "uint256"
        }
      ],
      "name": "tokenOfOwnerByIndex",
      "outputs": [
        {
          "internalType": "uint256",
          "name": "",
          "type": "uint256"
        }
      ],
      "stateMutability": "view",
      "type": "function"
    },
    {
      "inputs": [
        {
          "internalType": "uint256",
          "name": "tokenId",
          "type": "uint256"
        }
      ],
      "name": "tokenURI",
      "outputs": [
        {
          "internalType": "string",
          "name": "",
          "type": "string"
        }
      ],
      "stateMutability": "view",
      "type": "function"
    },
    {
      "inputs": [
        {
          "internalType": "address",
          "name": "owner",
          "type": "address"
        }
      ],
      "name": "tokensOfOwnerOffChain",
      "outputs": [
        {
          "internalType": "uint256[]",
          "name": "",
          "type": "uint256[]"
        }
      ],
      "stateMutability": "view",
      "type": "function"
    },
    {
      "inputs": [],
      "name": "totalSupply",
      "outputs": [
        {
          "internalType": "uint256",
          "name": "",
          "type": "uint256"
        }
      ],
      "stateMutability": "view",
      "type": "function"
    },
    {
      "inputs": [
        {
          "internalType": "address",
          "name": "from",
          "type": "address"
        },
        {
          "internalType": "address",
          "name": "to",
          "type": "address"
        },
        {
          "internalType": "uint256",
          "name": "tokenId",
          "type": "uint256"
        }
      ],
      "name": "transferFrom",
      "outputs": [],
      "stateMutability": "nonpayable",
      "type": "function"
    },
    {
      "inputs": [
        {
          "internalType": "address",
          "name": "newOwner",
          "type": "address"
        }
      ],
      "name": "transferOwnership",
      "outputs": [],
      "stateMutability": "nonpayable",
      "type": "function"
    },
    {
      "inputs": [],
      "name": "withdraw",
      "outputs": [],
      "stateMutability": "nonpayable",
      "type": "function"
    }
  ],
  "bytecode": "0x60c0604052600a600b5567016345785d8a0000600c556701118f178fb48000600d55600e805461ffff191690556011805460ff191690556016805460ff60ff60a81b011916905560c86017553480156200005857600080fd5b5060405162003dc838038062003dc88339810160408190526200007b916200028b565b60408051808201825260038152622826ab60e91b6020808301918252835180850190945260068452652826ab2a25a760d11b90840152815188938893929091620000c891600091620001c8565b508051620000de906001906020840190620001c8565b505050620000fb620000f56200017260201b60201c565b62000176565b6001600160601b0319606092831b811660a052911b16608052601289905587516200012e9060109060208b0190620001c8565b50601396909655601494909455601b555050601c55601680546001600160a01b0390921661010002610100600160a81b031990921691909117905550620004249050565b3390565b600a80546001600160a01b038381166001600160a01b0319831681179093556040519116919082907f8be0079c531659141344cd1fd0a4f28419497f9722a3daafe3b4186f6b6457e090600090a35050565b828054620001d690620003d1565b90600052602060002090601f016020900481019282620001fa576000855562000245565b82601f106200021557805160ff191683800117855562000245565b8280016001018555821562000245579182015b828111156200024557825182559160200191906001019062000228565b506200025392915062000257565b5090565b5b8082111562000253576000815560010162000258565b80516001600160a01b03811681146200028657600080fd5b919050565b60008060008060008060008060006101208a8c031215620002aa578485fd5b895160208b01519099506001600160401b0380821115620002c9578687fd5b818c0191508c601f830112620002dd578687fd5b815181811115620002f257620002f26200040e565b604051601f8201601f19908116603f011681019083821181831017156200031d576200031d6200040e565b816040528281528f60208487010111156200033657898afd5b8993505b828410156200035d5760208486010151602085830101526020840193506200033a565b828411156200036f5789602084830101525b809c50505050505060408a0151965060608a015195506200039360808b016200026e565b9450620003a360a08b016200026e565b935060c08a0151925060e08a01519150620003c26101008b016200026e565b90509295985092959850929598565b600181811c90821680620003e657607f821691505b602082108114156200040857634e487b7160e01b600052602260045260246000fd5b50919050565b634e487b7160e01b600052604160045260246000fd5b60805160601c60a05160601c61396a6200045e600039600081816118ef0152612bfb015260008181611e180152612bcc015261396a6000f3fe6080604052600436106103545760003560e01c8063715018a6116101bb578063c6ab67a3116100f7578063e985e9c511610095578063f2fde38b1161006f578063f2fde38b1461097b578063f51f96dd1461099b578063fc05dc80146109b1578063ff501885146109c757600080fd5b8063e985e9c5146108fc578063ebf0c71714610945578063f19e75d41461095b57600080fd5b8063ccfdd2f8116100d1578063ccfdd2f814610890578063d5556544146108b0578063d5abeb01146108c6578063dab5f340146108dc57600080fd5b8063c6ab67a314610845578063c87b56dd1461085b578063cc7a856c1461087b57600080fd5b806395d89b4111610164578063a22cb4651161013e578063a22cb465146107c5578063b88d4fde146107e5578063c54e73e314610805578063c56c0b921461082557600080fd5b806395d89b411461077c57806398029d2a14610791578063a0712d68146107b257600080fd5b806391b7f5ed1161019557806391b7f5ed1461071c57806392c46da31461073c57806394985ddd1461075c57600080fd5b8063715018a6146106c95780638d17e712146106de5780638da5cb5b146106fe57600080fd5b806342842e0e116102955780635fc9c0e61161023357806368428a1b1161020d57806368428a1b1461063d5780636d41d4fb1461065c5780636f8d93051461068957806370a08231146106a957600080fd5b80635fc9c0e6146105ed5780636352211e1461060357806367753a151461062357600080fd5b80634f6ccce71161026f5780634f6ccce71461056657806353135ca014610586578063583c1775146105a05780635b7bcff7146105cd57600080fd5b806342842e0e1461050b5780634b8feb4f1461052b5780634b980d671461055057600080fd5b80631d2e5a3a116103025780632f745c59116102dc5780632f745c59146104a35780633549345e146104c35780633c14a2de146104e35780633ccfd60b146104f657600080fd5b80631d2e5a3a146104435780631fbb4e271461046357806323b872dd1461048357600080fd5b8063081812fc11610333578063081812fc146103d4578063095ea7b31461040c57806318160ddd1461042e57600080fd5b80620e7fa81461035957806301ffc9a71461038257806306fdde03146103b2575b600080fd5b34801561036557600080fd5b5061036f600d5481565b6040519081526020015b60405180910390f35b34801561038e57600080fd5b506103a261039d36600461353d565b6109f4565b6040519015158152602001610379565b3480156103be57600080fd5b506103c7610a38565b60405161037991906137a3565b3480156103e057600080fd5b506103f46103ef366004613504565b610aca565b6040516001600160a01b039091168152602001610379565b34801561041857600080fd5b5061042c610427366004613423565b610b64565b005b34801561043a57600080fd5b5060085461036f565b34801561044f57600080fd5b5061042c61045e36600461344c565b610c96565b34801561046f57600080fd5b5061042c61047e366004613504565b610cf8565b34801561048f57600080fd5b5061042c61049e3660046132dd565b610d45565b3480156104af57600080fd5b5061036f6104be366004613423565b610dcc565b3480156104cf57600080fd5b5061042c6104de366004613504565b610e74565b61042c6104f136600461358d565b610ec1565b34801561050257600080fd5b5061042c61116b565b34801561051757600080fd5b5061042c6105263660046132dd565b6111d0565b34801561053757600080fd5b506016546103f49061010090046001600160a01b031681565b34801561055c57600080fd5b5061036f600b5481565b34801561057257600080fd5b5061036f610581366004613504565b6111eb565b34801561059257600080fd5b50600e546103a29060ff1681565b3480156105ac57600080fd5b506105c06105bb36600461328a565b61129d565b604051610379919061375f565b3480156105d957600080fd5b5061042c6105e8366004613504565b61135b565b3480156105f957600080fd5b5061036f60135481565b34801561060f57600080fd5b506103f461061e366004613504565b6113a8565b34801561062f57600080fd5b506016546103a29060ff1681565b34801561064957600080fd5b50600e546103a290610100900460ff1681565b34801561066857600080fd5b5061036f61067736600461328a565b601a6020526000908152604090205481565b34801561069557600080fd5b5061042c6106a4366004613484565b611433565b3480156106b557600080fd5b5061036f6106c436600461328a565b6114e8565b3480156106d557600080fd5b5061042c611582565b3480156106ea57600080fd5b506103c76106f9366004613504565b6115d4565b34801561070a57600080fd5b50600a546001600160a01b03166103f4565b34801561072857600080fd5b5061042c610737366004613504565b6116aa565b34801561074857600080fd5b5061042c61075736600461358d565b6116f7565b34801561076857600080fd5b5061042c61077736600461351c565b6118e4565b34801561078857600080fd5b506103c761196a565b34801561079d57600080fd5b506016546103a290600160a81b900460ff1681565b61042c6107c0366004613504565b611979565b3480156107d157600080fd5b5061042c6107e03660046133ed565b611bbd565b3480156107f157600080fd5b5061042c610800366004613318565b611bc8565b34801561081157600080fd5b5061042c61082036600461344c565b611c50565b34801561083157600080fd5b5061042c61084036600461344c565b611cab565b34801561085157600080fd5b5061036f60145481565b34801561086757600080fd5b506103c7610876366004613504565b611d2c565b34801561088757600080fd5b5061036f611d9c565b34801561089c57600080fd5b5061042c6108ab366004613504565b611f4e565b3480156108bc57600080fd5b5061036f60155481565b3480156108d257600080fd5b5061036f61271081565b3480156108e857600080fd5b5061042c6108f7366004613504565b612010565b34801561090857600080fd5b506103a26109173660046132ab565b6001600160a01b03918216600090815260056020908152604080832093909416825291909152205460ff1690565b34801561095157600080fd5b5061036f60125481565b34801561096757600080fd5b5061042c610976366004613504565b61205d565b34801561098757600080fd5b5061042c61099636600461328a565b612149565b3480156109a757600080fd5b5061036f600c5481565b3480156109bd57600080fd5b5061036f60175481565b3480156109d357600080fd5b5061036f6109e236600461328a565b60196020526000908152604090205481565b60006001600160e01b031982167f780e9d63000000000000000000000000000000000000000000000000000000001480610a325750610a3282612219565b92915050565b606060008054610a4790613844565b80601f0160208091040260200160405190810160405280929190818152602001828054610a7390613844565b8015610ac05780601f10610a9557610100808354040283529160200191610ac0565b820191906000526020600020905b815481529060010190602001808311610aa357829003601f168201915b5050505050905090565b6000818152600260205260408120546001600160a01b0316610b485760405162461bcd60e51b815260206004820152602c60248201527f4552433732313a20617070726f76656420717565727920666f72206e6f6e657860448201526b34b9ba32b73a103a37b5b2b760a11b60648201526084015b60405180910390fd5b506000908152600460205260409020546001600160a01b031690565b6000610b6f826113a8565b9050806001600160a01b0316836001600160a01b03161415610bf95760405162461bcd60e51b815260206004820152602160248201527f4552433732313a20617070726f76616c20746f2063757272656e74206f776e6560448201527f72000000000000000000000000000000000000000000000000000000000000006064820152608401610b3f565b336001600160a01b0382161480610c155750610c158133610917565b610c875760405162461bcd60e51b815260206004820152603860248201527f4552433732313a20617070726f76652063616c6c6572206973206e6f74206f7760448201527f6e6572206e6f7220617070726f76656420666f7220616c6c00000000000000006064820152608401610b3f565b610c9183836122b4565b505050565b600a546001600160a01b03163314610cde5760405162461bcd60e51b815260206004820181905260248201526000805160206139158339815191526044820152606401610b3f565b600e80549115156101000261ff0019909216919091179055565b600a546001600160a01b03163314610d405760405162461bcd60e51b815260206004820181905260248201526000805160206139158339815191526044820152606401610b3f565b601355565b610d4f338261232f565b610dc15760405162461bcd60e51b815260206004820152603160248201527f4552433732313a207472616e736665722063616c6c6572206973206e6f74206f60448201527f776e6572206e6f7220617070726f7665640000000000000000000000000000006064820152608401610b3f565b610c91838383612426565b6000610dd7836114e8565b8210610e4b5760405162461bcd60e51b815260206004820152602b60248201527f455243373231456e756d657261626c653a206f776e657220696e646578206f7560448201527f74206f6620626f756e64730000000000000000000000000000000000000000006064820152608401610b3f565b506001600160a01b03919091166000908152600660209081526040808320938352929052205490565b600a546001600160a01b03163314610ebc5760405162461bcd60e51b815260206004820181905260248201526000805160206139158339815191526044820152606401610b3f565b600d55565b600e5460ff16610f135760405162461bcd60e51b815260206004820152601260248201527f50524553414c45204e4f542041435449564500000000000000000000000000006044820152606401610b3f565b6012546040516bffffffffffffffffffffffff193360601b16602082015260348101869052610f9491906054015b6040516020818303038152906040528051906020012085858080602002602001604051908101604052809392919081815260200183836020028082843760009201919091525092949392505061260b9050565b610fe05760405162461bcd60e51b815260206004820152601060248201527f4e4f54204f4e20414c4c4f574c495354000000000000000000000000000000006044820152606401610b3f565b336000908152601960205260409020548490610ffd9083906137b6565b111561104b5760405162461bcd60e51b815260206004820152601960248201527f4d494e54494e47204d4f5245205448414e20414c4c4f574544000000000000006044820152606401610b3f565b34600d548261105a91906137e2565b11156110a85760405162461bcd60e51b815260206004820152601860248201527f494e434f5252454354205041594d454e5420414d4f554e5400000000000000006044820152606401610b3f565b60006110b360085490565b90506127106110c282846137b6565b11156111105760405162461bcd60e51b815260206004820152601860248201527f4e4f5420454e4f554748204c45465420494e2053544f434b00000000000000006044820152606401610b3f565b60015b82811161113f5761112d3361112883856137b6565b612621565b806111378161387f565b915050611113565b50336000908152601960205260408120805484929061115f9084906137b6565b90915550505050505050565b600a546001600160a01b031633146111b35760405162461bcd60e51b815260206004820181905260248201526000805160206139158339815191526044820152606401610b3f565b6016546111ce9061010090046001600160a01b03164761277c565b565b610c9183838360405180602001604052806000815250611bc8565b60006111f660085490565b821061126a5760405162461bcd60e51b815260206004820152602c60248201527f455243373231456e756d657261626c653a20676c6f62616c20696e646578206f60448201527f7574206f6620626f756e647300000000000000000000000000000000000000006064820152608401610b3f565b6008828154811061128b57634e487b7160e01b600052603260045260246000fd5b90600052602060002001549050919050565b606060006112aa836114e8565b905060008167ffffffffffffffff8111156112d557634e487b7160e01b600052604160045260246000fd5b6040519080825280602002602001820160405280156112fe578160200160208202803683370190505b50905060005b82811015611353576113168582610dcc565b82828151811061133657634e487b7160e01b600052603260045260246000fd5b60209081029190910101528061134b8161387f565b915050611304565b509392505050565b600a546001600160a01b031633146113a35760405162461bcd60e51b815260206004820181905260248201526000805160206139158339815191526044820152606401610b3f565b601755565b6000818152600260205260408120546001600160a01b031680610a325760405162461bcd60e51b815260206004820152602960248201527f4552433732313a206f776e657220717565727920666f72206e6f6e657869737460448201527f656e7420746f6b656e00000000000000000000000000000000000000000000006064820152608401610b3f565b600a546001600160a01b0316331461147b5760405162461bcd60e51b815260206004820181905260248201526000805160206139158339815191526044820152606401610b3f565b806114c85760405162461bcd60e51b815260206004820152601660248201527f5f746f6b656e4261736555524920697320656d707479000000000000000000006044820152606401610b3f565b6011805460ff19168415151790556114e2600f83836131da565b50505050565b60006001600160a01b0382166115665760405162461bcd60e51b815260206004820152602a60248201527f4552433732313a2062616c616e636520717565727920666f7220746865207a6560448201527f726f2061646472657373000000000000000000000000000000000000000000006064820152608401610b3f565b506001600160a01b031660009081526003602052604090205490565b600a546001600160a01b031633146115ca5760405162461bcd60e51b815260206004820181905260248201526000805160206139158339815191526044820152606401610b3f565b6111ce6000612895565b60115460609060ff1661167357601080546115ee90613844565b80601f016020809104026020016040519081016040528092919081815260200182805461161a90613844565b80156116675780601f1061163c57610100808354040283529160200191611667565b820191906000526020600020905b81548152906001019060200180831161164a57829003601f168201915b50505050509050919050565b600f61167e836128f4565b60405160200161168f929190613655565b6040516020818303038152906040529050919050565b919050565b600a546001600160a01b031633146116f25760405162461bcd60e51b815260206004820181905260248201526000805160206139158339815191526044820152606401610b3f565b600c55565b600e5460ff166117495760405162461bcd60e51b815260206004820152601560248201527f46726565206d696e74206e6f7420616c6c6f77656400000000000000000000006044820152606401610b3f565b6013546040516bffffffffffffffffffffffff193360601b1660208201526034810186905261177b9190605401610f41565b6117c75760405162461bcd60e51b815260206004820152601a60248201527f4e4f54204f4e2046524545204d494e5420414c4c4f574c4953540000000000006044820152606401610b3f565b336000908152601a602052604090205484906117e49083906137b6565b11156118325760405162461bcd60e51b815260206004820152601960248201527f4d494e54494e47204d4f5245205448414e20414c4c4f574544000000000000006044820152606401610b3f565b600061183d60085490565b905061271061184c82846137b6565b111561189a5760405162461bcd60e51b815260206004820152601860248201527f4e4f5420454e4f554748204c45465420494e2053544f434b00000000000000006044820152606401610b3f565b60015b8281116118c4576118b23361112883856137b6565b806118bc8161387f565b91505061189d565b50336000908152601a60205260408120805484929061115f9084906137b6565b336001600160a01b037f0000000000000000000000000000000000000000000000000000000000000000161461195c5760405162461bcd60e51b815260206004820152601f60248201527f4f6e6c7920565246436f6f7264696e61746f722063616e2066756c66696c6c006044820152606401610b3f565b6119668282612a42565b5050565b606060018054610a4790613844565b601654600160a81b900460ff166119ff573332146119ff5760405162461bcd60e51b815260206004820152602b60248201527f434f4e5452414354204e4f5420414c4c4f57454420544f204d494e5420494e2060448201527f5055424c49432053414c450000000000000000000000000000000000000000006064820152608401610b3f565b600e54610100900460ff16611a565760405162461bcd60e51b815260206004820152600f60248201527f53414c45204e4f542041435449564500000000000000000000000000000000006044820152606401610b3f565b600b54811115611ace5760405162461bcd60e51b815260206004820152603160248201527f4d494e54494e47204d4f5245205448414e20414c4c4f57454420494e2041205360448201527f494e474c45205452414e53414354494f4e0000000000000000000000000000006064820152608401610b3f565b34600c5482611add91906137e2565b1115611b2b5760405162461bcd60e51b815260206004820152601860248201527f494e434f5252454354205041594d454e5420414d4f554e5400000000000000006044820152606401610b3f565b6000611b3660085490565b9050612710611b4582846137b6565b1115611b935760405162461bcd60e51b815260206004820152601860248201527f4e4f5420454e4f554748204c45465420494e2053544f434b00000000000000006044820152606401610b3f565b60015b828111610c9157611bab3361112883856137b6565b80611bb58161387f565b915050611b96565b611966338383612a70565b611bd2338361232f565b611c445760405162461bcd60e51b815260206004820152603160248201527f4552433732313a207472616e736665722063616c6c6572206973206e6f74206f60448201527f776e6572206e6f7220617070726f7665640000000000000000000000000000006064820152608401610b3f565b6114e284848484612b3f565b600a546001600160a01b03163314611c985760405162461bcd60e51b815260206004820181905260248201526000805160206139158339815191526044820152606401610b3f565b600e805460ff1916911515919091179055565b600a546001600160a01b03163314611cf35760405162461bcd60e51b815260206004820181905260248201526000805160206139158339815191526044820152606401610b3f565b60168054911515600160a81b027fffffffffffffffffffff00ffffffffffffffffffffffffffffffffffffffffff909216919091179055565b6000818152600260205260409020546060906001600160a01b0316611d935760405162461bcd60e51b815260206004820152601f60248201527f55524920717565727920666f72206e6f6e6578697374656e7420746f6b656e006044820152606401610b3f565b610a32826115d4565b600a546000906001600160a01b03163314611de75760405162461bcd60e51b815260206004820181905260248201526000805160206139158339815191526044820152606401610b3f565b601c546040517f70a082310000000000000000000000000000000000000000000000000000000081523060048201527f00000000000000000000000000000000000000000000000000000000000000006001600160a01b0316906370a082319060240160206040518083038186803b158015611e6257600080fd5b505afa158015611e76573d6000803e3d6000fd5b505050506040513d601f19601f82011682018060405250810190611e9a9190613575565b1015611ee85760405162461bcd60e51b815260206004820152601a60248201527f4e6f7420656e6f756768204c494e4b20746f20706179206665650000000000006044820152606401610b3f565b60165460ff1615611f3b5760405162461bcd60e51b815260206004820152601f60248201527f416c72656164792067656e6572617465642072616e646f6d206f6666736574006044820152606401610b3f565b611f49601b54601c54612bc8565b905090565b600a546001600160a01b03163314611f965760405162461bcd60e51b815260206004820181905260248201526000805160206139158339815191526044820152606401610b3f565b6000811161200b5760405162461bcd60e51b8152602060048201526024808201527f6d61785065725472616e73616374696f6e2073686f756c6420626520706f736960448201527f74697665000000000000000000000000000000000000000000000000000000006064820152608401610b3f565b600b55565b600a546001600160a01b031633146120585760405162461bcd60e51b815260206004820181905260248201526000805160206139158339815191526044820152606401610b3f565b601255565b600a546001600160a01b031633146120a55760405162461bcd60e51b815260206004820181905260248201526000805160206139158339815191526044820152606401610b3f565b60006120b060085490565b6017549091506120c082846137b6565b111561210e5760405162461bcd60e51b815260206004820152601860248201527f4e4f5420454e4f554748204c45465420494e2053544f434b00000000000000006044820152606401610b3f565b60015b828111610c91576016546121379061010090046001600160a01b031661112883856137b6565b806121418161387f565b915050612111565b600a546001600160a01b031633146121915760405162461bcd60e51b815260206004820181905260248201526000805160206139158339815191526044820152606401610b3f565b6001600160a01b03811661220d5760405162461bcd60e51b815260206004820152602660248201527f4f776e61626c653a206e6577206f776e657220697320746865207a65726f206160448201527f64647265737300000000000000000000000000000000000000000000000000006064820152608401610b3f565b61221681612895565b50565b60006001600160e01b031982167f80ac58cd00000000000000000000000000000000000000000000000000000000148061227c57506001600160e01b031982167f5b5e139f00000000000000000000000000000000000000000000000000000000145b80610a3257507f01ffc9a7000000000000000000000000000000000000000000000000000000006001600160e01b0319831614610a32565b6000818152600460205260409020805473ffffffffffffffffffffffffffffffffffffffff19166001600160a01b03841690811790915581906122f6826113a8565b6001600160a01b03167f8c5be1e5ebec7d5bd14f71427d1e84f3dd0314c0f7b2291e5b200ac8c7c3b92560405160405180910390a45050565b6000818152600260205260408120546001600160a01b03166123a85760405162461bcd60e51b815260206004820152602c60248201527f4552433732313a206f70657261746f7220717565727920666f72206e6f6e657860448201526b34b9ba32b73a103a37b5b2b760a11b6064820152608401610b3f565b60006123b3836113a8565b9050806001600160a01b0316846001600160a01b031614806123ee5750836001600160a01b03166123e384610aca565b6001600160a01b0316145b8061241e57506001600160a01b0380821660009081526005602090815260408083209388168352929052205460ff165b949350505050565b826001600160a01b0316612439826113a8565b6001600160a01b0316146124b55760405162461bcd60e51b815260206004820152602960248201527f4552433732313a207472616e73666572206f6620746f6b656e2074686174206960448201527f73206e6f74206f776e00000000000000000000000000000000000000000000006064820152608401610b3f565b6001600160a01b0382166125305760405162461bcd60e51b8152602060048201526024808201527f4552433732313a207472616e7366657220746f20746865207a65726f2061646460448201527f72657373000000000000000000000000000000000000000000000000000000006064820152608401610b3f565b61253b838383612d53565b6125466000826122b4565b6001600160a01b038316600090815260036020526040812080546001929061256f908490613801565b90915550506001600160a01b038216600090815260036020526040812080546001929061259d9084906137b6565b9091555050600081815260026020526040808220805473ffffffffffffffffffffffffffffffffffffffff19166001600160a01b0386811691821790925591518493918716917fddf252ad1be2c89b69c2b068fc378daa952ba7f163c4a11628f55a4df523b3ef91a4505050565b6000826126188584612e0b565b14949350505050565b6001600160a01b0382166126775760405162461bcd60e51b815260206004820181905260248201527f4552433732313a206d696e7420746f20746865207a65726f20616464726573736044820152606401610b3f565b6000818152600260205260409020546001600160a01b0316156126dc5760405162461bcd60e51b815260206004820152601c60248201527f4552433732313a20746f6b656e20616c7265616479206d696e746564000000006044820152606401610b3f565b6126e860008383612d53565b6001600160a01b03821660009081526003602052604081208054600192906127119084906137b6565b9091555050600081815260026020526040808220805473ffffffffffffffffffffffffffffffffffffffff19166001600160a01b03861690811790915590518392907fddf252ad1be2c89b69c2b068fc378daa952ba7f163c4a11628f55a4df523b3ef908290a45050565b804710156127cc5760405162461bcd60e51b815260206004820152601d60248201527f416464726573733a20696e73756666696369656e742062616c616e63650000006044820152606401610b3f565b6000826001600160a01b03168260405160006040518083038185875af1925050503d8060008114612819576040519150601f19603f3d011682016040523d82523d6000602084013e61281e565b606091505b5050905080610c915760405162461bcd60e51b815260206004820152603a60248201527f416464726573733a20756e61626c6520746f2073656e642076616c75652c207260448201527f6563697069656e74206d617920686176652072657665727465640000000000006064820152608401610b3f565b600a80546001600160a01b0383811673ffffffffffffffffffffffffffffffffffffffff19831681179093556040519116919082907f8be0079c531659141344cd1fd0a4f28419497f9722a3daafe3b4186f6b6457e090600090a35050565b60608161293457505060408051808201909152600181527f3000000000000000000000000000000000000000000000000000000000000000602082015290565b8160005b811561295e57806129488161387f565b91506129579050600a836137ce565b9150612938565b60008167ffffffffffffffff81111561298757634e487b7160e01b600052604160045260246000fd5b6040519080825280601f01601f1916602001820160405280156129b1576020820181803683370190505b5090505b841561241e576129c6600183613801565b91506129d3600a8661389a565b6129de9060306137b6565b60f81b818381518110612a0157634e487b7160e01b600052603260045260246000fd5b60200101907effffffffffffffffffffffffffffffffffffffffffffffffffffffffffffff1916908160001a905350612a3b600a866137ce565b94506129b5565b6000612a506127108361389a565b612a5b9060016137b6565b60155550506016805460ff1916600117905550565b816001600160a01b0316836001600160a01b03161415612ad25760405162461bcd60e51b815260206004820152601960248201527f4552433732313a20617070726f766520746f2063616c6c6572000000000000006044820152606401610b3f565b6001600160a01b03838116600081815260056020908152604080832094871680845294825291829020805460ff191686151590811790915591519182527f17307eab39ab6107e8899845ad3d59bd9653f200f220920489ca2b5937696c31910160405180910390a3505050565b612b4a848484612426565b612b5684848484612ebd565b6114e25760405162461bcd60e51b815260206004820152603260248201527f4552433732313a207472616e7366657220746f206e6f6e20455243373231526560448201527f63656976657220696d706c656d656e74657200000000000000000000000000006064820152608401610b3f565b60007f00000000000000000000000000000000000000000000000000000000000000006001600160a01b0316634000aea07f000000000000000000000000000000000000000000000000000000000000000084866000604051602001612c38929190918252602082015260400190565b6040516020818303038152906040526040518463ffffffff1660e01b8152600401612c6593929190613737565b602060405180830381600087803b158015612c7f57600080fd5b505af1158015612c93573d6000803e3d6000fd5b505050506040513d601f19601f82011682018060405250810190612cb79190613468565b50600083815260186020818152604080842054815180840189905280830186905230606082015260808082018390528351808303909101815260a090910190925281519183019190912093879052919052612d139060016137b6565b60008581526018602052604090205561241e8482604080516020808201949094528082019290925280518083038201815260609092019052805191012090565b6001600160a01b038316612dae57612da981600880546000838152600960205260408120829055600182018355919091527ff3f7a9fe364faab93b216da50a3214154f22a0a2b415b23a84c8169e8b636ee30155565b612dd1565b816001600160a01b0316836001600160a01b031614612dd157612dd18382613020565b6001600160a01b038216612de857610c91816130bd565b826001600160a01b0316826001600160a01b031614610c9157610c918282613196565b600081815b8451811015611353576000858281518110612e3b57634e487b7160e01b600052603260045260246000fd5b60200260200101519050808311612e7d576040805160208101859052908101829052606001604051602081830303815290604052805190602001209250612eaa565b60408051602081018390529081018490526060016040516020818303038152906040528051906020012092505b5080612eb58161387f565b915050612e10565b60006001600160a01b0384163b1561301557604051630a85bd0160e11b81526001600160a01b0385169063150b7a0290612f019033908990889088906004016136fb565b602060405180830381600087803b158015612f1b57600080fd5b505af1925050508015612f4b575060408051601f3d908101601f19168201909252612f4891810190613559565b60015b612ffb573d808015612f79576040519150601f19603f3d011682016040523d82523d6000602084013e612f7e565b606091505b508051612ff35760405162461bcd60e51b815260206004820152603260248201527f4552433732313a207472616e7366657220746f206e6f6e20455243373231526560448201527f63656976657220696d706c656d656e74657200000000000000000000000000006064820152608401610b3f565b805181602001fd5b6001600160e01b031916630a85bd0160e11b14905061241e565b506001949350505050565b6000600161302d846114e8565b6130379190613801565b60008381526007602052604090205490915080821461308a576001600160a01b03841660009081526006602090815260408083208584528252808320548484528184208190558352600790915290208190555b5060009182526007602090815260408084208490556001600160a01b039094168352600681528383209183525290812055565b6008546000906130cf90600190613801565b6000838152600960205260408120546008805493945090928490811061310557634e487b7160e01b600052603260045260246000fd5b90600052602060002001549050806008838154811061313457634e487b7160e01b600052603260045260246000fd5b600091825260208083209091019290925582815260099091526040808220849055858252812055600880548061317a57634e487b7160e01b600052603160045260246000fd5b6001900381819060005260206000200160009055905550505050565b60006131a1836114e8565b6001600160a01b039093166000908152600660209081526040808320868452825280832085905593825260079052919091209190915550565b8280546131e690613844565b90600052602060002090601f016020900481019282613208576000855561324e565b82601f106132215782800160ff1982351617855561324e565b8280016001018555821561324e579182015b8281111561324e578235825591602001919060010190613233565b5061325a92915061325e565b5090565b5b8082111561325a576000815560010161325f565b80356001600160a01b03811681146116a557600080fd5b60006020828403121561329b578081fd5b6132a482613273565b9392505050565b600080604083850312156132bd578081fd5b6132c683613273565b91506132d460208401613273565b90509250929050565b6000806000606084860312156132f1578081fd5b6132fa84613273565b925061330860208501613273565b9150604084013590509250925092565b6000806000806080858703121561332d578081fd5b61333685613273565b935061334460208601613273565b925060408501359150606085013567ffffffffffffffff80821115613367578283fd5b818701915087601f83011261337a578283fd5b81358181111561338c5761338c6138da565b604051601f8201601f19908116603f011681019083821181831017156133b4576133b46138da565b816040528281528a60208487010111156133cc578586fd5b82602086016020830137918201602001949094529598949750929550505050565b600080604083850312156133ff578182fd5b61340883613273565b91506020830135613418816138f0565b809150509250929050565b60008060408385031215613435578182fd5b61343e83613273565b946020939093013593505050565b60006020828403121561345d578081fd5b81356132a4816138f0565b600060208284031215613479578081fd5b81516132a4816138f0565b600080600060408486031215613498578283fd5b83356134a3816138f0565b9250602084013567ffffffffffffffff808211156134bf578384fd5b818601915086601f8301126134d2578384fd5b8135818111156134e0578485fd5b8760208285010111156134f1578485fd5b6020830194508093505050509250925092565b600060208284031215613515578081fd5b5035919050565b6000806040838503121561352e578182fd5b50508035926020909101359150565b60006020828403121561354e578081fd5b81356132a4816138fe565b60006020828403121561356a578081fd5b81516132a4816138fe565b600060208284031215613586578081fd5b5051919050565b600080600080606085870312156135a2578182fd5b84359350602085013567ffffffffffffffff808211156135c0578384fd5b818701915087601f8301126135d3578384fd5b8135818111156135e1578485fd5b8860208260051b85010111156135f5578485fd5b95986020929092019750949560400135945092505050565b60008151808452613625816020860160208601613818565b601f01601f19169290920160200192915050565b6000815161364b818560208601613818565b9290920192915050565b600080845482600182811c91508083168061367157607f831692505b602080841082141561369157634e487b7160e01b87526022600452602487fd5b8180156136a557600181146136b6576136e2565b60ff198616895284890196506136e2565b60008b815260209020885b868110156136da5781548b8201529085019083016136c1565b505084890196505b5050505050506136f28185613639565b95945050505050565b60006001600160a01b0380871683528086166020840152508360408301526080606083015261372d608083018461360d565b9695505050505050565b6001600160a01b03841681528260208201526060604082015260006136f2606083018461360d565b6020808252825182820181905260009190848201906040850190845b818110156137975783518352928401929184019160010161377b565b50909695505050505050565b6020815260006132a4602083018461360d565b600082198211156137c9576137c96138ae565b500190565b6000826137dd576137dd6138c4565b500490565b60008160001904831182151516156137fc576137fc6138ae565b500290565b600082821015613813576138136138ae565b500390565b60005b8381101561383357818101518382015260200161381b565b838111156114e25750506000910152565b600181811c9082168061385857607f821691505b6020821081141561387957634e487b7160e01b600052602260045260246000fd5b50919050565b6000600019821415613893576138936138ae565b5060010190565b6000826138a9576138a96138c4565b500690565b634e487b7160e01b600052601160045260246000fd5b634e487b7160e01b600052601260045260246000fd5b634e487b7160e01b600052604160045260246000fd5b801515811461221657600080fd5b6001600160e01b03198116811461221657600080fdfe4f776e61626c653a2063616c6c6572206973206e6f7420746865206f776e6572a2646970667358221220ea4b97b3d07843156ff64f4d452f7642fe36737ba9939e242328f58db060a8d364736f6c63430008040033",
  "linkReferences": {},
  "deployedLinkReferences": {}
}