{
  "_format": "hh-sol-artifact-1",
  "contractName": "PMV",
  "sourceName": "contracts/PMV.sol",
  "abi": [
    {
      "inputs": [
        {
          "internalType": "bytes32",
          "name": "merkleroot",
          "type": "bytes32"
        },
        {
          "internalType": "string",
          "name": "uri",
          "type": "string"
        },
        {
          "internalType": "bytes32",
          "name": "_rootMintFree",
          "type": "bytes32"
        },
        {
          "internalType": "bytes32",
          "name": "_provenanceHash",
          "type": "bytes32"
        },
        {
          "internalType": "address",
          "name": "vrfCoordinator",
          "type": "address"
        },
        {
          "internalType": "address",
          "name": "link",
          "type": "address"
        },
        {
          "internalType": "bytes32",
          "name": "keyhash",
          "type": "bytes32"
        },
        {
          "internalType": "uint256",
          "name": "fee",
          "type": "uint256"
        },
        {
          "internalType": "address",
          "name": "_multiSigWallet",
          "type": "address"
        }
      ],
      "stateMutability": "nonpayable",
      "type": "constructor"
    },
    {
      "anonymous": false,
      "inputs": [
        {
          "indexed": true,
          "internalType": "address",
          "name": "owner",
          "type": "address"
        },
        {
          "indexed": true,
          "internalType": "address",
          "name": "approved",
          "type": "address"
        },
        {
          "indexed": true,
          "internalType": "uint256",
          "name": "tokenId",
          "type": "uint256"
        }
      ],
      "name": "Approval",
      "type": "event"
    },
    {
      "anonymous": false,
      "inputs": [
        {
          "indexed": true,
          "internalType": "address",
          "name": "owner",
          "type": "address"
        },
        {
          "indexed": true,
          "internalType": "address",
          "name": "operator",
          "type": "address"
        },
        {
          "indexed": false,
          "internalType": "bool",
          "name": "approved",
          "type": "bool"
        }
      ],
      "name": "ApprovalForAll",
      "type": "event"
    },
    {
      "anonymous": false,
      "inputs": [
        {
          "indexed": true,
          "internalType": "address",
          "name": "previousOwner",
          "type": "address"
        },
        {
          "indexed": true,
          "internalType": "address",
          "name": "newOwner",
          "type": "address"
        }
      ],
      "name": "OwnershipTransferred",
      "type": "event"
    },
    {
      "anonymous": false,
      "inputs": [
        {
          "indexed": true,
          "internalType": "address",
          "name": "from",
          "type": "address"
        },
        {
          "indexed": true,
          "internalType": "address",
          "name": "to",
          "type": "address"
        },
        {
          "indexed": true,
          "internalType": "uint256",
          "name": "tokenId",
          "type": "uint256"
        }
      ],
      "name": "Transfer",
      "type": "event"
    },
    {
      "inputs": [
        {
          "internalType": "uint256",
          "name": "tokenId",
          "type": "uint256"
        }
      ],
      "name": "_tokenURI",
      "outputs": [
        {
          "internalType": "string",
          "name": "",
          "type": "string"
        }
      ],
      "stateMutability": "view",
      "type": "function"
    },
    {
      "inputs": [
        {
          "internalType": "address",
          "name": "to",
          "type": "address"
        },
        {
          "internalType": "uint256",
          "name": "tokenId",
          "type": "uint256"
        }
      ],
      "name": "approve",
      "outputs": [],
      "stateMutability": "nonpayable",
      "type": "function"
    },
    {
      "inputs": [
        {
          "internalType": "address",
          "name": "owner",
          "type": "address"
        }
      ],
      "name": "balanceOf",
      "outputs": [
        {
          "internalType": "uint256",
          "name": "",
          "type": "uint256"
        }
      ],
      "stateMutability": "view",
      "type": "function"
    },
    {
      "inputs": [],
      "name": "freeMintAllowed",
      "outputs": [
        {
          "internalType": "bool",
          "name": "",
          "type": "bool"
        }
      ],
      "stateMutability": "view",
      "type": "function"
    },
    {
      "inputs": [],
      "name": "generateRandomOffset",
      "outputs": [
        {
          "internalType": "bytes32",
          "name": "requestId",
          "type": "bytes32"
        }
      ],
      "stateMutability": "nonpayable",
      "type": "function"
    },
    {
      "inputs": [
        {
          "internalType": "uint256",
          "name": "tokenId",
          "type": "uint256"
        }
      ],
      "name": "getApproved",
      "outputs": [
        {
          "internalType": "address",
          "name": "",
          "type": "address"
        }
      ],
      "stateMutability": "view",
      "type": "function"
    },
    {
      "inputs": [
        {
          "internalType": "address",
          "name": "owner",
          "type": "address"
        },
        {
          "internalType": "address",
          "name": "operator",
          "type": "address"
        }
      ],
      "name": "isApprovedForAll",
      "outputs": [
        {
          "internalType": "bool",
          "name": "",
          "type": "bool"
        }
      ],
      "stateMutability": "view",
      "type": "function"
    },
    {
      "inputs": [],
      "name": "maxPerTransaction",
      "outputs": [
        {
          "internalType": "uint256",
          "name": "",
          "type": "uint256"
        }
      ],
      "stateMutability": "view",
      "type": "function"
    },
    {
      "inputs": [],
      "name": "maxSupply",
      "outputs": [
        {
          "internalType": "uint256",
          "name": "",
          "type": "uint256"
        }
      ],
      "stateMutability": "view",
      "type": "function"
    },
    {
      "inputs": [
        {
          "internalType": "uint256",
          "name": "tokenQuantity",
          "type": "uint256"
        }
      ],
      "name": "mint",
      "outputs": [],
      "stateMutability": "payable",
      "type": "function"
    },
    {
      "inputs": [
        {
          "internalType": "uint256",
          "name": "allowance",
          "type": "uint256"
        },
        {
          "internalType": "bytes32[]",
          "name": "proof",
          "type": "bytes32[]"
        },
        {
          "internalType": "uint256",
          "name": "tokenQuantity",
          "type": "uint256"
        }
      ],
      "name": "mintFree",
      "outputs": [],
      "stateMutability": "nonpayable",
      "type": "function"
    },
    {
      "inputs": [
        {
          "internalType": "uint256",
          "name": "allowance",
          "type": "uint256"
        },
        {
          "internalType": "bytes32[]",
          "name": "proof",
          "type": "bytes32[]"
        },
        {
          "internalType": "uint256",
          "name": "tokenQuantity",
          "type": "uint256"
        }
      ],
      "name": "mintPresale",
      "outputs": [],
      "stateMutability": "payable",
      "type": "function"
    },
    {
      "inputs": [],
      "name": "multiSigWallet",
      "outputs": [
        {
          "internalType": "address",
          "name": "",
          "type": "address"
        }
      ],
      "stateMutability": "view",
      "type": "function"
    },
    {
      "inputs": [],
      "name": "name",
      "outputs": [
        {
          "internalType": "string",
          "name": "",
          "type": "string"
        }
      ],
      "stateMutability": "view",
      "type": "function"
    },
    {
      "inputs": [],
      "name": "offset",
      "outputs": [
        {
          "internalType": "uint256",
          "name": "",
          "type": "uint256"
        }
      ],
      "stateMutability": "view",
      "type": "function"
    },
    {
      "inputs": [],
      "name": "offsetRequested",
      "outputs": [
        {
          "internalType": "bool",
          "name": "",
          "type": "bool"
        }
      ],
      "stateMutability": "view",
      "type": "function"
    },
    {
      "inputs": [],
      "name": "owner",
      "outputs": [
        {
          "internalType": "address",
          "name": "",
          "type": "address"
        }
      ],
      "stateMutability": "view",
      "type": "function"
    },
    {
      "inputs": [
        {
          "internalType": "uint256",
          "name": "tokenId",
          "type": "uint256"
        }
      ],
      "name": "ownerOf",
      "outputs": [
        {
          "internalType": "address",
          "name": "",
          "type": "address"
        }
      ],
      "stateMutability": "view",
      "type": "function"
    },
    {
      "inputs": [],
      "name": "presaleActive",
      "outputs": [
        {
          "internalType": "bool",
          "name": "",
          "type": "bool"
        }
      ],
      "stateMutability": "view",
      "type": "function"
    },
    {
      "inputs": [],
      "name": "presalePrice",
      "outputs": [
        {
          "internalType": "uint256",
          "name": "",
          "type": "uint256"
        }
      ],
      "stateMutability": "view",
      "type": "function"
    },
    {
      "inputs": [],
      "name": "provenanceHash",
      "outputs": [
        {
          "internalType": "bytes32",
          "name": "",
          "type": "bytes32"
        }
      ],
      "stateMutability": "view",
      "type": "function"
    },
    {
      "inputs": [
        {
          "internalType": "bytes32",
          "name": "requestId",
          "type": "bytes32"
        },
        {
          "internalType": "uint256",
          "name": "randomness",
          "type": "uint256"
        }
      ],
      "name": "rawFulfillRandomness",
      "outputs": [],
      "stateMutability": "nonpayable",
      "type": "function"
    },
    {
      "inputs": [],
      "name": "renounceOwnership",
      "outputs": [],
      "stateMutability": "nonpayable",
      "type": "function"
    },
    {
      "inputs": [],
      "name": "root",
      "outputs": [
        {
          "internalType": "bytes32",
          "name": "",
          "type": "bytes32"
        }
      ],
      "stateMutability": "view",
      "type": "function"
    },
    {
      "inputs": [],
      "name": "rootMintFree",
      "outputs": [
        {
          "internalType": "bytes32",
          "name": "",
          "type": "bytes32"
        }
      ],
      "stateMutability": "view",
      "type": "function"
    },
    {
      "inputs": [
        {
          "internalType": "address",
          "name": "from",
          "type": "address"
        },
        {
          "internalType": "address",
          "name": "to",
          "type": "address"
        },
        {
          "internalType": "uint256",
          "name": "tokenId",
          "type": "uint256"
        }
      ],
      "name": "safeTransferFrom",
      "outputs": [],
      "stateMutability": "nonpayable",
      "type": "function"
    },
    {
      "inputs": [
        {
          "internalType": "address",
          "name": "from",
          "type": "address"
        },
        {
          "internalType": "address",
          "name": "to",
          "type": "address"
        },
        {
          "internalType": "uint256",
          "name": "tokenId",
          "type": "uint256"
        },
        {
          "internalType": "bytes",
          "name": "_data",
          "type": "bytes"
        }
      ],
      "name": "safeTransferFrom",
      "outputs": [],
      "stateMutability": "nonpayable",
      "type": "function"
    },
    {
      "inputs": [],
      "name": "saleActive",
      "outputs": [
        {
          "internalType": "bool",
          "name": "",
          "type": "bool"
        }
      ],
      "stateMutability": "view",
      "type": "function"
    },
    {
      "inputs": [],
      "name": "salePrice",
      "outputs": [
        {
          "internalType": "uint256",
          "name": "",
          "type": "uint256"
        }
      ],
      "stateMutability": "view",
      "type": "function"
    },
    {
      "inputs": [
        {
          "internalType": "address",
          "name": "operator",
          "type": "address"
        },
        {
          "internalType": "bool",
          "name": "approved",
          "type": "bool"
        }
      ],
      "name": "setApprovalForAll",
      "outputs": [],
      "stateMutability": "nonpayable",
      "type": "function"
    },
    {
      "inputs": [
        {
          "internalType": "bool",
          "name": "_freeMintAllowed",
          "type": "bool"
        }
      ],
      "name": "setFreeMintAllowed",
      "outputs": [],
      "stateMutability": "nonpayable",
      "type": "function"
    },
    {
      "inputs": [
        {
          "internalType": "uint256",
          "name": "_maxPerTransaction",
          "type": "uint256"
        }
      ],
      "name": "setMaxPerTransaction",
      "outputs": [],
      "stateMutability": "nonpayable",
      "type": "function"
    },
    {
      "inputs": [
        {
          "internalType": "bool",
          "name": "_presaleStatus",
          "type": "bool"
        }
      ],
      "name": "setPresale",
      "outputs": [],
      "stateMutability": "nonpayable",
      "type": "function"
    },
    {
      "inputs": [
        {
          "internalType": "uint256",
          "name": "_presalePrice",
          "type": "uint256"
        }
      ],
      "name": "setPresalePrice",
      "outputs": [],
      "stateMutability": "nonpayable",
      "type": "function"
    },
    {
      "inputs": [
        {
          "internalType": "uint256",
          "name": "_salePrice",
          "type": "uint256"
        }
      ],
      "name": "setPrice",
      "outputs": [],
      "stateMutability": "nonpayable",
      "type": "function"
    },
    {
      "inputs": [
        {
          "internalType": "bytes32",
          "name": "_root",
          "type": "bytes32"
        }
      ],
      "name": "setRoot",
      "outputs": [],
      "stateMutability": "nonpayable",
      "type": "function"
    },
    {
      "inputs": [
        {
          "internalType": "bytes32",
          "name": "_root",
          "type": "bytes32"
        }
      ],
      "name": "setRootMintFree",
      "outputs": [],
      "stateMutability": "nonpayable",
      "type": "function"
    },
    {
      "inputs": [
        {
          "internalType": "bool",
          "name": "_saleStatus",
          "type": "bool"
        }
      ],
      "name": "setSale",
      "outputs": [],
      "stateMutability": "nonpayable",
      "type": "function"
    },
    {
      "inputs": [
        {
          "internalType": "bool",
          "name": "_revealed",
          "type": "bool"
        },
        {
          "internalType": "string",
          "name": "_tokenBaseURI",
          "type": "string"
        }
      ],
      "name": "setURIStatus",
      "outputs": [],
      "stateMutability": "nonpayable",
      "type": "function"
    },
    {
      "inputs": [
        {
          "internalType": "bytes4",
          "name": "interfaceId",
          "type": "bytes4"
        }
      ],
      "name": "supportsInterface",
      "outputs": [
        {
          "internalType": "bool",
          "name": "",
          "type": "bool"
        }
      ],
      "stateMutability": "view",
      "type": "function"
    },
    {
      "inputs": [],
      "name": "symbol",
      "outputs": [
        {
          "internalType": "string",
          "name": "",
          "type": "string"
        }
      ],
      "stateMutability": "view",
      "type": "function"
    },
    {
      "inputs": [
        {
          "internalType": "uint256",
          "name": "index",
          "type": "uint256"
        }
      ],
      "name": "tokenByIndex",
      "outputs": [
        {
          "internalType": "uint256",
          "name": "",
          "type": "uint256"
        }
      ],
      "stateMutability": "view",
      "type": "function"
    },
    {
      "inputs": [
        {
          "internalType": "address",
          "name": "owner",
          "type": "address"
        },
        {
          "internalType": "uint256",
          "name": "index",
          "type": "uint256"
        }
      ],
      "name": "tokenOfOwnerByIndex",
      "outputs": [
        {
          "internalType": "uint256",
          "name": "",
          "type": "uint256"
        }
      ],
      "stateMutability": "view",
      "type": "function"
    },
    {
      "inputs": [
        {
          "internalType": "uint256",
          "name": "tokenId",
          "type": "uint256"
        }
      ],
      "name": "tokenURI",
      "outputs": [
        {
          "internalType": "string",
          "name": "",
          "type": "string"
        }
      ],
      "stateMutability": "view",
      "type": "function"
    },
    {
      "inputs": [],
      "name": "totalSupply",
      "outputs": [
        {
          "internalType": "uint256",
          "name": "",
          "type": "uint256"
        }
      ],
      "stateMutability": "view",
      "type": "function"
    },
    {
      "inputs": [
        {
          "internalType": "address",
          "name": "from",
          "type": "address"
        },
        {
          "internalType": "address",
          "name": "to",
          "type": "address"
        },
        {
          "internalType": "uint256",
          "name": "tokenId",
          "type": "uint256"
        }
      ],
      "name": "transferFrom",
      "outputs": [],
      "stateMutability": "nonpayable",
      "type": "function"
    },
    {
      "inputs": [
        {
          "internalType": "address",
          "name": "newOwner",
          "type": "address"
        }
      ],
      "name": "transferOwnership",
      "outputs": [],
      "stateMutability": "nonpayable",
      "type": "function"
    },
    {
      "inputs": [],
      "name": "withdraw",
      "outputs": [],
      "stateMutability": "nonpayable",
      "type": "function"
    }
  ],
  "bytecode": "0x60c0604052600a600b5567016345785d8a0000600c556701118f178fb48000600d556000600e60006101000a81548160ff0219169083151502179055506000600e60016101000a81548160ff0219169083151502179055506000600e60026101000a81548160ff0219169083151502179055506000601160006101000a81548160ff0219169083151502179055506000601660006101000a81548160ff021916908315150217905550348015620000b557600080fd5b506040516200702c3803806200702c8339818101604052810190620000db919062000cd4565b84846040518060400160405280600381526020017f504d5600000000000000000000000000000000000000000000000000000000008152506040518060400160405280600681526020017f504d56544b4e000000000000000000000000000000000000000000000000000081525081600090805190602001906200016192919062000b6d565b5080600190805190602001906200017a92919062000b6d565b5050506200019d62000191620002ac60201b60201c565b620002b460201b60201c565b8173ffffffffffffffffffffffffffffffffffffffff1660a08173ffffffffffffffffffffffffffffffffffffffff1660601b815250508073ffffffffffffffffffffffffffffffffffffffff1660808173ffffffffffffffffffffffffffffffffffffffff1660601b8152505050508860128190555087601090805190602001906200022c92919062000b6d565b50866013819055508560148190555082601b8190555081601c8190555080601660016101000a81548173ffffffffffffffffffffffffffffffffffffffff021916908373ffffffffffffffffffffffffffffffffffffffff1602179055506200029d3360016200037a60201b60201c565b50505050505050505062001220565b600033905090565b6000600a60009054906101000a900473ffffffffffffffffffffffffffffffffffffffff16905081600a60006101000a81548173ffffffffffffffffffffffffffffffffffffffff021916908373ffffffffffffffffffffffffffffffffffffffff1602179055508173ffffffffffffffffffffffffffffffffffffffff168173ffffffffffffffffffffffffffffffffffffffff167f8be0079c531659141344cd1fd0a4f28419497f9722a3daafe3b4186f6b6457e060405160405180910390a35050565b600073ffffffffffffffffffffffffffffffffffffffff168273ffffffffffffffffffffffffffffffffffffffff161415620003ed576040517f08c379a0000000000000000000000000000000000000000000000000000000008152600401620003e49062000e7f565b60405180910390fd5b620003fe816200056060201b60201c565b1562000441576040517f08c379a0000000000000000000000000000000000000000000000000000000008152600401620004389062000e3b565b60405180910390fd5b6200045560008383620005cc60201b60201c565b6001600360008473ffffffffffffffffffffffffffffffffffffffff1673ffffffffffffffffffffffffffffffffffffffff1681526020019081526020016000206000828254620004a7919062000f11565b92505081905550816002600083815260200190815260200160002060006101000a81548173ffffffffffffffffffffffffffffffffffffffff021916908373ffffffffffffffffffffffffffffffffffffffff160217905550808273ffffffffffffffffffffffffffffffffffffffff16600073ffffffffffffffffffffffffffffffffffffffff167fddf252ad1be2c89b69c2b068fc378daa952ba7f163c4a11628f55a4df523b3ef60405160405180910390a45050565b60008073ffffffffffffffffffffffffffffffffffffffff166002600084815260200190815260200160002060009054906101000a900473ffffffffffffffffffffffffffffffffffffffff1673ffffffffffffffffffffffffffffffffffffffff1614159050919050565b620005e48383836200071360201b620026a61760201c565b600073ffffffffffffffffffffffffffffffffffffffff168373ffffffffffffffffffffffffffffffffffffffff16141562000631576200062b816200071860201b60201c565b62000679565b8173ffffffffffffffffffffffffffffffffffffffff168373ffffffffffffffffffffffffffffffffffffffff161462000678576200067783826200076160201b60201c565b5b5b600073ffffffffffffffffffffffffffffffffffffffff168273ffffffffffffffffffffffffffffffffffffffff161415620006c657620006c081620008de60201b60201c565b6200070e565b8273ffffffffffffffffffffffffffffffffffffffff168273ffffffffffffffffffffffffffffffffffffffff16146200070d576200070c828262000a2660201b60201c565b5b5b505050565b505050565b6008805490506009600083815260200190815260200160002081905550600881908060018154018082558091505060019003906000526020600020016000909190919091505550565b600060016200077b8462000ab260201b620017d91760201c565b62000787919062000f6e565b90506000600760008481526020019081526020016000205490508181146200086d576000600660008673ffffffffffffffffffffffffffffffffffffffff1673ffffffffffffffffffffffffffffffffffffffff168152602001908152602001600020600084815260200190815260200160002054905080600660008773ffffffffffffffffffffffffffffffffffffffff1673ffffffffffffffffffffffffffffffffffffffff168152602001908152602001600020600084815260200190815260200160002081905550816007600083815260200190815260200160002081905550505b6007600084815260200190815260200160002060009055600660008573ffffffffffffffffffffffffffffffffffffffff1673ffffffffffffffffffffffffffffffffffffffff16815260200190815260200160002060008381526020019081526020016000206000905550505050565b60006001600880549050620008f4919062000f6e565b90506000600960008481526020019081526020016000205490506000600883815481106200094b577f4e487b7100000000000000000000000000000000000000000000000000000000600052603260045260246000fd5b90600052602060002001549050806008838154811062000994577f4e487b7100000000000000000000000000000000000000000000000000000000600052603260045260246000fd5b90600052602060002001819055508160096000838152602001908152602001600020819055506009600085815260200190815260200160002060009055600880548062000a0a577f4e487b7100000000000000000000000000000000000000000000000000000000600052603160045260246000fd5b6001900381819060005260206000200160009055905550505050565b600062000a3e8362000ab260201b620017d91760201c565b905081600660008573ffffffffffffffffffffffffffffffffffffffff1673ffffffffffffffffffffffffffffffffffffffff168152602001908152602001600020600083815260200190815260200160002081905550806007600084815260200190815260200160002081905550505050565b60008073ffffffffffffffffffffffffffffffffffffffff168273ffffffffffffffffffffffffffffffffffffffff16141562000b26576040517f08c379a000000000000000000000000000000000000000000000000000000000815260040162000b1d9062000e5d565b60405180910390fd5b600360008373ffffffffffffffffffffffffffffffffffffffff1673ffffffffffffffffffffffffffffffffffffffff168152602001908152602001600020549050919050565b82805462000b7b9062001027565b90600052602060002090601f01602090048101928262000b9f576000855562000beb565b82601f1062000bba57805160ff191683800117855562000beb565b8280016001018555821562000beb579182015b8281111562000bea57825182559160200191906001019062000bcd565b5b50905062000bfa919062000bfe565b5090565b5b8082111562000c1957600081600090555060010162000bff565b5090565b600062000c3462000c2e8462000eca565b62000ea1565b90508281526020810184848401111562000c4d57600080fd5b62000c5a84828562000ff1565b509392505050565b60008151905062000c7381620011d2565b92915050565b60008151905062000c8a81620011ec565b92915050565b600082601f83011262000ca257600080fd5b815162000cb484826020860162000c1d565b91505092915050565b60008151905062000cce8162001206565b92915050565b60008060008060008060008060006101208a8c03121562000cf457600080fd5b600062000d048c828d0162000c79565b99505060208a015167ffffffffffffffff81111562000d2257600080fd5b62000d308c828d0162000c90565b985050604062000d438c828d0162000c79565b975050606062000d568c828d0162000c79565b965050608062000d698c828d0162000c62565b95505060a062000d7c8c828d0162000c62565b94505060c062000d8f8c828d0162000c79565b93505060e062000da28c828d0162000cbd565b92505061010062000db68c828d0162000c62565b9150509295985092959850929598565b600062000dd5601c8362000f00565b915062000de28262001131565b602082019050919050565b600062000dfc602a8362000f00565b915062000e09826200115a565b604082019050919050565b600062000e2360208362000f00565b915062000e3082620011a9565b602082019050919050565b6000602082019050818103600083015262000e568162000dc6565b9050919050565b6000602082019050818103600083015262000e788162000ded565b9050919050565b6000602082019050818103600083015262000e9a8162000e14565b9050919050565b600062000ead62000ec0565b905062000ebb82826200105d565b919050565b6000604051905090565b600067ffffffffffffffff82111562000ee85762000ee7620010f1565b5b62000ef38262001120565b9050602081019050919050565b600082825260208201905092915050565b600062000f1e8262000fe7565b915062000f2b8362000fe7565b9250827fffffffffffffffffffffffffffffffffffffffffffffffffffffffffffffffff0382111562000f635762000f6262001093565b5b828201905092915050565b600062000f7b8262000fe7565b915062000f888362000fe7565b92508282101562000f9e5762000f9d62001093565b5b828203905092915050565b600062000fb68262000fc7565b9050919050565b6000819050919050565b600073ffffffffffffffffffffffffffffffffffffffff82169050919050565b6000819050919050565b60005b838110156200101157808201518184015260208101905062000ff4565b8381111562001021576000848401525b50505050565b600060028204905060018216806200104057607f821691505b60208210811415620010575762001056620010c2565b5b50919050565b620010688262001120565b810181811067ffffffffffffffff821117156200108a5762001089620010f1565b5b80604052505050565b7f4e487b7100000000000000000000000000000000000000000000000000000000600052601160045260246000fd5b7f4e487b7100000000000000000000000000000000000000000000000000000000600052602260045260246000fd5b7f4e487b7100000000000000000000000000000000000000000000000000000000600052604160045260246000fd5b6000601f19601f8301169050919050565b7f4552433732313a20746f6b656e20616c7265616479206d696e74656400000000600082015250565b7f4552433732313a2062616c616e636520717565727920666f7220746865207a6560008201527f726f206164647265737300000000000000000000000000000000000000000000602082015250565b7f4552433732313a206d696e7420746f20746865207a65726f2061646472657373600082015250565b620011dd8162000fa9565b8114620011e957600080fd5b50565b620011f78162000fbd565b81146200120357600080fd5b50565b620012118162000fe7565b81146200121d57600080fd5b50565b60805160601c60a05160601c615dd26200125a60003960008181611d38015261338d01526000818161222201526133510152615dd26000f3fe6080604052600436106102925760003560e01c80636f8d93051161015a578063c54e73e3116100c1578063d5abeb011161007a578063d5abeb01146109d1578063dab5f340146109fc578063e985e9c514610a25578063ebf0c71714610a62578063f2fde38b14610a8d578063f51f96dd14610ab657610292565b8063c54e73e3146108c1578063c6ab67a3146108ea578063c87b56dd14610915578063cc7a856c14610952578063ccfdd2f81461097d578063d5556544146109a657610292565b806392c46da31161011357806392c46da3146107d657806394985ddd146107ff57806395d89b4114610828578063a0712d6814610853578063a22cb4651461086f578063b88d4fde1461089857610292565b80636f8d9305146106c857806370a08231146106f1578063715018a61461072e5780638d17e712146107455780638da5cb5b1461078257806391b7f5ed146107ad57610292565b80633549345e116101fe5780634f6ccce7116101b75780634f6ccce7146105a257806353135ca0146105df5780635fc9c0e61461060a5780636352211e1461063557806367753a151461067257806368428a1b1461069d57610292565b80633549345e146104c75780633c14a2de146104f05780633ccfd60b1461050c57806342842e0e146105235780634b8feb4f1461054c5780634b980d671461057757610292565b80631d2e5a3a116102505780631d2e5a3a146103bb5780631fbb4e27146103e457806323b872dd1461040d57806329770e04146104365780632a613fa71461045f5780632f745c591461048a57610292565b80620e7fa81461029757806301ffc9a7146102c257806306fdde03146102ff578063081812fc1461032a578063095ea7b31461036757806318160ddd14610390575b600080fd5b3480156102a357600080fd5b506102ac610ae1565b6040516102b99190615041565b60405180910390f35b3480156102ce57600080fd5b506102e960048036038101906102e49190614194565b610ae7565b6040516102f69190614adb565b60405180910390f35b34801561030b57600080fd5b50610314610b61565b6040516103219190614b7f565b60405180910390f35b34801561033657600080fd5b50610351600480360381019061034c91906141e6565b610bf3565b60405161035e9190614a36565b60405180910390f35b34801561037357600080fd5b5061038e60048036038101906103899190614049565b610c78565b005b34801561039c57600080fd5b506103a5610d90565b6040516103b29190615041565b60405180910390f35b3480156103c757600080fd5b506103e260048036038101906103dd9190614085565b610d9d565b005b3480156103f057600080fd5b5061040b6004803603810190610406919061412f565b610e36565b005b34801561041957600080fd5b50610434600480360381019061042f9190613f43565b610f03565b005b34801561044257600080fd5b5061045d60048036038101906104589190614085565b610f63565b005b34801561046b57600080fd5b50610474610ffc565b6040516104819190614adb565b60405180910390f35b34801561049657600080fd5b506104b160048036038101906104ac9190614049565b61100f565b6040516104be9190615041565b60405180910390f35b3480156104d357600080fd5b506104ee60048036038101906104e991906141e6565b6110b4565b005b61050a60048036038101906105059190614238565b61113a565b005b34801561051857600080fd5b50610521611464565b005b34801561052f57600080fd5b5061054a60048036038101906105459190613f43565b611512565b005b34801561055857600080fd5b50610561611532565b60405161056e9190614a36565b60405180910390f35b34801561058357600080fd5b5061058c611558565b6040516105999190615041565b60405180910390f35b3480156105ae57600080fd5b506105c960048036038101906105c491906141e6565b61155e565b6040516105d69190615041565b60405180910390f35b3480156105eb57600080fd5b506105f46115f5565b6040516106019190614adb565b60405180910390f35b34801561061657600080fd5b5061061f611608565b60405161062c9190614af6565b60405180910390f35b34801561064157600080fd5b5061065c600480360381019061065791906141e6565b61160e565b6040516106699190614a36565b60405180910390f35b34801561067e57600080fd5b506106876116c0565b6040516106949190614adb565b60405180910390f35b3480156106a957600080fd5b506106b26116d3565b6040516106bf9190614adb565b60405180910390f35b3480156106d457600080fd5b506106ef60048036038101906106ea91906140d7565b6116e6565b005b3480156106fd57600080fd5b5061071860048036038101906107139190613ede565b6117d9565b6040516107259190615041565b60405180910390f35b34801561073a57600080fd5b50610743611891565b005b34801561075157600080fd5b5061076c600480360381019061076791906141e6565b611919565b6040516107799190614b7f565b60405180910390f35b34801561078e57600080fd5b506107976119fc565b6040516107a49190614a36565b60405180910390f35b3480156107b957600080fd5b506107d460048036038101906107cf91906141e6565b611a26565b005b3480156107e257600080fd5b506107fd60048036038101906107f89190614238565b611aac565b005b34801561080b57600080fd5b5061082660048036038101906108219190614158565b611d36565b005b34801561083457600080fd5b5061083d611dd2565b60405161084a9190614b7f565b60405180910390f35b61086d600480360381019061086891906141e6565b611e64565b005b34801561087b57600080fd5b506108966004803603810190610891919061400d565b61202e565b005b3480156108a457600080fd5b506108bf60048036038101906108ba9190613f92565b612044565b005b3480156108cd57600080fd5b506108e860048036038101906108e39190614085565b6120a6565b005b3480156108f657600080fd5b506108ff61213f565b60405161090c9190614af6565b60405180910390f35b34801561092157600080fd5b5061093c600480360381019061093791906141e6565b612145565b6040516109499190614b7f565b60405180910390f35b34801561095e57600080fd5b5061096761219f565b6040516109749190614af6565b60405180910390f35b34801561098957600080fd5b506109a4600480360381019061099f91906141e6565b61236d565b005b3480156109b257600080fd5b506109bb612436565b6040516109c89190615041565b60405180910390f35b3480156109dd57600080fd5b506109e661243c565b6040516109f39190615041565b60405180910390f35b348015610a0857600080fd5b50610a236004803603810190610a1e919061412f565b612441565b005b348015610a3157600080fd5b50610a4c6004803603810190610a479190613f07565b61250e565b604051610a599190614adb565b60405180910390f35b348015610a6e57600080fd5b50610a776125a2565b604051610a849190614af6565b60405180910390f35b348015610a9957600080fd5b50610ab46004803603810190610aaf9190613ede565b6125a8565b005b348015610ac257600080fd5b50610acb6126a0565b604051610ad89190615041565b60405180910390f35b600d5481565b60007f780e9d63000000000000000000000000000000000000000000000000000000007bffffffffffffffffffffffffffffffffffffffffffffffffffffffff1916827bffffffffffffffffffffffffffffffffffffffffffffffffffffffff19161480610b5a5750610b59826126ab565b5b9050919050565b606060008054610b70906152ea565b80601f0160208091040260200160405190810160405280929190818152602001828054610b9c906152ea565b8015610be95780601f10610bbe57610100808354040283529160200191610be9565b820191906000526020600020905b815481529060010190602001808311610bcc57829003601f168201915b5050505050905090565b6000610bfe8261278d565b610c3d576040517f08c379a0000000000000000000000000000000000000000000000000000000008152600401610c3490614e21565b60405180910390fd5b6004600083815260200190815260200160002060009054906101000a900473ffffffffffffffffffffffffffffffffffffffff169050919050565b6000610c838261160e565b90508073ffffffffffffffffffffffffffffffffffffffff168373ffffffffffffffffffffffffffffffffffffffff161415610cf4576040517f08c379a0000000000000000000000000000000000000000000000000000000008152600401610ceb90614f01565b60405180910390fd5b8073ffffffffffffffffffffffffffffffffffffffff16610d136127f9565b73ffffffffffffffffffffffffffffffffffffffff161480610d425750610d4181610d3c6127f9565b61250e565b5b610d81576040517f08c379a0000000000000000000000000000000000000000000000000000000008152600401610d7890614da1565b60405180910390fd5b610d8b8383612801565b505050565b6000600880549050905090565b610da56127f9565b73ffffffffffffffffffffffffffffffffffffffff16610dc36119fc565b73ffffffffffffffffffffffffffffffffffffffff1614610e19576040517f08c379a0000000000000000000000000000000000000000000000000000000008152600401610e1090614e41565b60405180910390fd5b80600e60026101000a81548160ff02191690831515021790555050565b610e3e6127f9565b73ffffffffffffffffffffffffffffffffffffffff16610e5c6119fc565b73ffffffffffffffffffffffffffffffffffffffff1614610eb2576040517f08c379a0000000000000000000000000000000000000000000000000000000008152600401610ea990614e41565b60405180910390fd5b6000602060ff1611610ef9576040517f08c379a0000000000000000000000000000000000000000000000000000000008152600401610ef090615001565b60405180910390fd5b8060138190555050565b610f14610f0e6127f9565b826128ba565b610f53576040517f08c379a0000000000000000000000000000000000000000000000000000000008152600401610f4a90614f41565b60405180910390fd5b610f5e838383612998565b505050565b610f6b6127f9565b73ffffffffffffffffffffffffffffffffffffffff16610f896119fc565b73ffffffffffffffffffffffffffffffffffffffff1614610fdf576040517f08c379a0000000000000000000000000000000000000000000000000000000008152600401610fd690614e41565b60405180910390fd5b80600e60016101000a81548160ff02191690831515021790555050565b600e60019054906101000a900460ff1681565b600061101a836117d9565b821061105b576040517f08c379a000000000000000000000000000000000000000000000000000000000815260040161105290614bc1565b60405180910390fd5b600660008473ffffffffffffffffffffffffffffffffffffffff1673ffffffffffffffffffffffffffffffffffffffff168152602001908152602001600020600083815260200190815260200160002054905092915050565b6110bc6127f9565b73ffffffffffffffffffffffffffffffffffffffff166110da6119fc565b73ffffffffffffffffffffffffffffffffffffffff1614611130576040517f08c379a000000000000000000000000000000000000000000000000000000000815260040161112790614e41565b60405180910390fd5b80600d8190555050565b600e60009054906101000a900460ff16611189576040517f08c379a000000000000000000000000000000000000000000000000000000000815260040161118090614fc1565b60405180910390fd5b600e60029054906101000a900460ff16156111d9576040517f08c379a00000000000000000000000000000000000000000000000000000000081526004016111d090614ee1565b60405180910390fd5b61125960125433866040516020016111f2929190614979565b60405160208183030381529060405280519060200120858580806020026020016040519081016040528093929190818152602001838360200280828437600081840152601f19601f82011690508083019250505050505050612bf49092919063ffffffff16565b611298576040517f08c379a000000000000000000000000000000000000000000000000000000000815260040161128f90614d61565b60405180910390fd5b8381601860003373ffffffffffffffffffffffffffffffffffffffff1673ffffffffffffffffffffffffffffffffffffffff168152602001908152602001600020546112e49190615115565b1115611325576040517f08c379a000000000000000000000000000000000000000000000000000000000815260040161131c90614fa1565b60405180910390fd5b34600d5482611334919061519c565b1115611375576040517f08c379a000000000000000000000000000000000000000000000000000000000815260040161136c90614c61565b60405180910390fd5b600061137f610d90565b9050601e818361138f9190615115565b11156113d0576040517f08c379a00000000000000000000000000000000000000000000000000000000081526004016113c790614c81565b60405180910390fd5b6000600190505b828111611406576113f33382846113ee9190615115565b612c0b565b80806113fe9061534d565b9150506113d7565b5081601860003373ffffffffffffffffffffffffffffffffffffffff1673ffffffffffffffffffffffffffffffffffffffff16815260200190815260200160002060008282546114569190615115565b925050819055505050505050565b61146c6127f9565b73ffffffffffffffffffffffffffffffffffffffff1661148a6119fc565b73ffffffffffffffffffffffffffffffffffffffff16146114e0576040517f08c379a00000000000000000000000000000000000000000000000000000000081526004016114d790614e41565b60405180910390fd5b611510476114ec6119fc565b73ffffffffffffffffffffffffffffffffffffffff16612dd990919063ffffffff16565b565b61152d83838360405180602001604052806000815250612044565b505050565b601660019054906101000a900473ffffffffffffffffffffffffffffffffffffffff1681565b600b5481565b6000611568610d90565b82106115a9576040517f08c379a00000000000000000000000000000000000000000000000000000000081526004016115a090614f61565b60405180910390fd5b600882815481106115e3577f4e487b7100000000000000000000000000000000000000000000000000000000600052603260045260246000fd5b90600052602060002001549050919050565b600e60009054906101000a900460ff1681565b60135481565b6000806002600084815260200190815260200160002060009054906101000a900473ffffffffffffffffffffffffffffffffffffffff169050600073ffffffffffffffffffffffffffffffffffffffff168173ffffffffffffffffffffffffffffffffffffffff1614156116b7576040517f08c379a00000000000000000000000000000000000000000000000000000000081526004016116ae90614de1565b60405180910390fd5b80915050919050565b601660009054906101000a900460ff1681565b600e60029054906101000a900460ff1681565b6116ee6127f9565b73ffffffffffffffffffffffffffffffffffffffff1661170c6119fc565b73ffffffffffffffffffffffffffffffffffffffff1614611762576040517f08c379a000000000000000000000000000000000000000000000000000000000815260040161175990614e41565b60405180910390fd5b600082829050116117a8576040517f08c379a000000000000000000000000000000000000000000000000000000000815260040161179f90615021565b60405180910390fd5b82601160006101000a81548160ff0219169083151502179055508181600f91906117d3929190613c97565b50505050565b60008073ffffffffffffffffffffffffffffffffffffffff168273ffffffffffffffffffffffffffffffffffffffff16141561184a576040517f08c379a000000000000000000000000000000000000000000000000000000000815260040161184190614dc1565b60405180910390fd5b600360008373ffffffffffffffffffffffffffffffffffffffff1673ffffffffffffffffffffffffffffffffffffffff168152602001908152602001600020549050919050565b6118996127f9565b73ffffffffffffffffffffffffffffffffffffffff166118b76119fc565b73ffffffffffffffffffffffffffffffffffffffff161461190d576040517f08c379a000000000000000000000000000000000000000000000000000000000815260040161190490614e41565b60405180910390fd5b6119176000612ecd565b565b606060001515601160009054906101000a900460ff16151514156119c95760108054611944906152ea565b80601f0160208091040260200160405190810160405280929190818152602001828054611970906152ea565b80156119bd5780601f10611992576101008083540402835291602001916119bd565b820191906000526020600020905b8154815290600101906020018083116119a057829003601f168201915b505050505090506119f7565b600f6119d483612f93565b6040516020016119e59291906149fd565b60405160208183030381529060405290505b919050565b6000600a60009054906101000a900473ffffffffffffffffffffffffffffffffffffffff16905090565b611a2e6127f9565b73ffffffffffffffffffffffffffffffffffffffff16611a4c6119fc565b73ffffffffffffffffffffffffffffffffffffffff1614611aa2576040517f08c379a0000000000000000000000000000000000000000000000000000000008152600401611a9990614e41565b60405180910390fd5b80600c8190555050565b600e60019054906101000a900460ff16611afb576040517f08c379a0000000000000000000000000000000000000000000000000000000008152600401611af290614fe1565b60405180910390fd5b611b7b6013543386604051602001611b14929190614979565b60405160208183030381529060405280519060200120858580806020026020016040519081016040528093929190818152602001838360200280828437600081840152601f19601f82011690508083019250505050505050612bf49092919063ffffffff16565b611bba576040517f08c379a0000000000000000000000000000000000000000000000000000000008152600401611bb190614ea1565b60405180910390fd5b8381601960003373ffffffffffffffffffffffffffffffffffffffff1673ffffffffffffffffffffffffffffffffffffffff16815260200190815260200160002054611c069190615115565b1115611c47576040517f08c379a0000000000000000000000000000000000000000000000000000000008152600401611c3e90614fa1565b60405180910390fd5b6000611c51610d90565b9050601e8183611c619190615115565b1115611ca2576040517f08c379a0000000000000000000000000000000000000000000000000000000008152600401611c9990614c81565b60405180910390fd5b6000600190505b828111611cd857611cc5338284611cc09190615115565b612c0b565b8080611cd09061534d565b915050611ca9565b5081601960003373ffffffffffffffffffffffffffffffffffffffff1673ffffffffffffffffffffffffffffffffffffffff1681526020019081526020016000206000828254611d289190615115565b925050819055505050505050565b7f000000000000000000000000000000000000000000000000000000000000000073ffffffffffffffffffffffffffffffffffffffff163373ffffffffffffffffffffffffffffffffffffffff1614611dc4576040517f08c379a0000000000000000000000000000000000000000000000000000000008152600401611dbb90614ec1565b60405180910390fd5b611dce8282613140565b5050565b606060018054611de1906152ea565b80601f0160208091040260200160405190810160405280929190818152602001828054611e0d906152ea565b8015611e5a5780601f10611e2f57610100808354040283529160200191611e5a565b820191906000526020600020905b815481529060010190602001808311611e3d57829003601f168201915b5050505050905090565b600e60029054906101000a900460ff16611eb3576040517f08c379a0000000000000000000000000000000000000000000000000000000008152600401611eaa90614f81565b60405180910390fd5b600e60009054906101000a900460ff1615611f03576040517f08c379a0000000000000000000000000000000000000000000000000000000008152600401611efa90614c41565b60405180910390fd5b600b54811115611f48576040517f08c379a0000000000000000000000000000000000000000000000000000000008152600401611f3f90614ca1565b60405180910390fd5b34600c5482611f57919061519c565b1115611f98576040517f08c379a0000000000000000000000000000000000000000000000000000000008152600401611f8f90614c61565b60405180910390fd5b6000611fa2610d90565b9050601e8183611fb29190615115565b1115611ff3576040517f08c379a0000000000000000000000000000000000000000000000000000000008152600401611fea90614c81565b60405180910390fd5b6000600190505b828111612029576120163382846120119190615115565b612c0b565b80806120219061534d565b915050611ffa565b505050565b6120406120396127f9565b8383613184565b5050565b61205561204f6127f9565b836128ba565b612094576040517f08c379a000000000000000000000000000000000000000000000000000000000815260040161208b90614f41565b60405180910390fd5b6120a0848484846132f1565b50505050565b6120ae6127f9565b73ffffffffffffffffffffffffffffffffffffffff166120cc6119fc565b73ffffffffffffffffffffffffffffffffffffffff1614612122576040517f08c379a000000000000000000000000000000000000000000000000000000000815260040161211990614e41565b60405180910390fd5b80600e60006101000a81548160ff02191690831515021790555050565b60145481565b60606121508261278d565b61218f576040517f08c379a000000000000000000000000000000000000000000000000000000000815260040161218690614ba1565b60405180910390fd5b61219882611919565b9050919050565b60006121a96127f9565b73ffffffffffffffffffffffffffffffffffffffff166121c76119fc565b73ffffffffffffffffffffffffffffffffffffffff161461221d576040517f08c379a000000000000000000000000000000000000000000000000000000000815260040161221490614e41565b60405180910390fd5b601c547f000000000000000000000000000000000000000000000000000000000000000073ffffffffffffffffffffffffffffffffffffffff166370a08231306040518263ffffffff1660e01b81526004016122799190614a36565b60206040518083038186803b15801561229157600080fd5b505afa1580156122a5573d6000803e3d6000fd5b505050506040513d601f19601f820116820180604052508101906122c9919061420f565b101561230a576040517f08c379a000000000000000000000000000000000000000000000000000000000815260040161230190614f21565b60405180910390fd5b601660009054906101000a900460ff161561235a576040517f08c379a000000000000000000000000000000000000000000000000000000000815260040161235190614e81565b60405180910390fd5b612368601b54601c5461334d565b905090565b6123756127f9565b73ffffffffffffffffffffffffffffffffffffffff166123936119fc565b73ffffffffffffffffffffffffffffffffffffffff16146123e9576040517f08c379a00000000000000000000000000000000000000000000000000000000081526004016123e090614e41565b60405180910390fd5b6000811161242c576040517f08c379a000000000000000000000000000000000000000000000000000000000815260040161242390614d81565b60405180910390fd5b80600b8190555050565b60155481565b601e81565b6124496127f9565b73ffffffffffffffffffffffffffffffffffffffff166124676119fc565b73ffffffffffffffffffffffffffffffffffffffff16146124bd576040517f08c379a00000000000000000000000000000000000000000000000000000000081526004016124b490614e41565b60405180910390fd5b6000602060ff1611612504576040517f08c379a00000000000000000000000000000000000000000000000000000000081526004016124fb90615001565b60405180910390fd5b8060128190555050565b6000600560008473ffffffffffffffffffffffffffffffffffffffff1673ffffffffffffffffffffffffffffffffffffffff16815260200190815260200160002060008373ffffffffffffffffffffffffffffffffffffffff1673ffffffffffffffffffffffffffffffffffffffff16815260200190815260200160002060009054906101000a900460ff16905092915050565b60125481565b6125b06127f9565b73ffffffffffffffffffffffffffffffffffffffff166125ce6119fc565b73ffffffffffffffffffffffffffffffffffffffff1614612624576040517f08c379a000000000000000000000000000000000000000000000000000000000815260040161261b90614e41565b60405180910390fd5b600073ffffffffffffffffffffffffffffffffffffffff168173ffffffffffffffffffffffffffffffffffffffff161415612694576040517f08c379a000000000000000000000000000000000000000000000000000000000815260040161268b90614c01565b60405180910390fd5b61269d81612ecd565b50565b600c5481565b505050565b60007f80ac58cd000000000000000000000000000000000000000000000000000000007bffffffffffffffffffffffffffffffffffffffffffffffffffffffff1916827bffffffffffffffffffffffffffffffffffffffffffffffffffffffff1916148061277657507f5b5e139f000000000000000000000000000000000000000000000000000000007bffffffffffffffffffffffffffffffffffffffffffffffffffffffff1916827bffffffffffffffffffffffffffffffffffffffffffffffffffffffff1916145b806127865750612785826134af565b5b9050919050565b60008073ffffffffffffffffffffffffffffffffffffffff166002600084815260200190815260200160002060009054906101000a900473ffffffffffffffffffffffffffffffffffffffff1673ffffffffffffffffffffffffffffffffffffffff1614159050919050565b600033905090565b816004600083815260200190815260200160002060006101000a81548173ffffffffffffffffffffffffffffffffffffffff021916908373ffffffffffffffffffffffffffffffffffffffff160217905550808273ffffffffffffffffffffffffffffffffffffffff166128748361160e565b73ffffffffffffffffffffffffffffffffffffffff167f8c5be1e5ebec7d5bd14f71427d1e84f3dd0314c0f7b2291e5b200ac8c7c3b92560405160405180910390a45050565b60006128c58261278d565b612904576040517f08c379a00000000000000000000000000000000000000000000000000000000081526004016128fb90614d41565b60405180910390fd5b600061290f8361160e565b90508073ffffffffffffffffffffffffffffffffffffffff168473ffffffffffffffffffffffffffffffffffffffff16148061297e57508373ffffffffffffffffffffffffffffffffffffffff1661296684610bf3565b73ffffffffffffffffffffffffffffffffffffffff16145b8061298f575061298e818561250e565b5b91505092915050565b8273ffffffffffffffffffffffffffffffffffffffff166129b88261160e565b73ffffffffffffffffffffffffffffffffffffffff1614612a0e576040517f08c379a0000000000000000000000000000000000000000000000000000000008152600401612a0590614e61565b60405180910390fd5b600073ffffffffffffffffffffffffffffffffffffffff168273ffffffffffffffffffffffffffffffffffffffff161415612a7e576040517f08c379a0000000000000000000000000000000000000000000000000000000008152600401612a7590614cc1565b60405180910390fd5b612a89838383613519565b612a94600082612801565b6001600360008573ffffffffffffffffffffffffffffffffffffffff1673ffffffffffffffffffffffffffffffffffffffff1681526020019081526020016000206000828254612ae491906151f6565b925050819055506001600360008473ffffffffffffffffffffffffffffffffffffffff1673ffffffffffffffffffffffffffffffffffffffff1681526020019081526020016000206000828254612b3b9190615115565b92505081905550816002600083815260200190815260200160002060006101000a81548173ffffffffffffffffffffffffffffffffffffffff021916908373ffffffffffffffffffffffffffffffffffffffff160217905550808273ffffffffffffffffffffffffffffffffffffffff168473ffffffffffffffffffffffffffffffffffffffff167fddf252ad1be2c89b69c2b068fc378daa952ba7f163c4a11628f55a4df523b3ef60405160405180910390a4505050565b600082612c01858461362d565b1490509392505050565b600073ffffffffffffffffffffffffffffffffffffffff168273ffffffffffffffffffffffffffffffffffffffff161415612c7b576040517f08c379a0000000000000000000000000000000000000000000000000000000008152600401612c7290614e01565b60405180910390fd5b612c848161278d565b15612cc4576040517f08c379a0000000000000000000000000000000000000000000000000000000008152600401612cbb90614c21565b60405180910390fd5b612cd060008383613519565b6001600360008473ffffffffffffffffffffffffffffffffffffffff1673ffffffffffffffffffffffffffffffffffffffff1681526020019081526020016000206000828254612d209190615115565b92505081905550816002600083815260200190815260200160002060006101000a81548173ffffffffffffffffffffffffffffffffffffffff021916908373ffffffffffffffffffffffffffffffffffffffff160217905550808273ffffffffffffffffffffffffffffffffffffffff16600073ffffffffffffffffffffffffffffffffffffffff167fddf252ad1be2c89b69c2b068fc378daa952ba7f163c4a11628f55a4df523b3ef60405160405180910390a45050565b80471015612e1c576040517f08c379a0000000000000000000000000000000000000000000000000000000008152600401612e1390614d21565b60405180910390fd5b60008273ffffffffffffffffffffffffffffffffffffffff1682604051612e4290614a21565b60006040518083038185875af1925050503d8060008114612e7f576040519150601f19603f3d011682016040523d82523d6000602084013e612e84565b606091505b5050905080612ec8576040517f08c379a0000000000000000000000000000000000000000000000000000000008152600401612ebf90614d01565b60405180910390fd5b505050565b6000600a60009054906101000a900473ffffffffffffffffffffffffffffffffffffffff16905081600a60006101000a81548173ffffffffffffffffffffffffffffffffffffffff021916908373ffffffffffffffffffffffffffffffffffffffff1602179055508173ffffffffffffffffffffffffffffffffffffffff168173ffffffffffffffffffffffffffffffffffffffff167f8be0079c531659141344cd1fd0a4f28419497f9722a3daafe3b4186f6b6457e060405160405180910390a35050565b60606000821415612fdb576040518060400160405280600181526020017f3000000000000000000000000000000000000000000000000000000000000000815250905061313b565b600082905060005b6000821461300d578080612ff69061534d565b915050600a82613006919061516b565b9150612fe3565b60008167ffffffffffffffff81111561304f577f4e487b7100000000000000000000000000000000000000000000000000000000600052604160045260246000fd5b6040519080825280601f01601f1916602001820160405280156130815781602001600182028036833780820191505090505b5090505b600085146131345760018261309a91906151f6565b9150600a856130a991906153ce565b60306130b59190615115565b60f81b8183815181106130f1577f4e487b7100000000000000000000000000000000000000000000000000000000600052603260045260246000fd5b60200101907effffffffffffffffffffffffffffffffffffffffffffffffffffffffffffff1916908160001a905350600a8561312d919061516b565b9450613085565b8093505050505b919050565b60006001601e8361315191906153ce565b61315b9190615115565b9050806015819055506001601660006101000a81548160ff021916908315150217905550505050565b8173ffffffffffffffffffffffffffffffffffffffff168373ffffffffffffffffffffffffffffffffffffffff1614156131f3576040517f08c379a00000000000000000000000000000000000000000000000000000000081526004016131ea90614ce1565b60405180910390fd5b80600560008573ffffffffffffffffffffffffffffffffffffffff1673ffffffffffffffffffffffffffffffffffffffff16815260200190815260200160002060008473ffffffffffffffffffffffffffffffffffffffff1673ffffffffffffffffffffffffffffffffffffffff16815260200190815260200160002060006101000a81548160ff0219169083151502179055508173ffffffffffffffffffffffffffffffffffffffff168373ffffffffffffffffffffffffffffffffffffffff167f17307eab39ab6107e8899845ad3d59bd9653f200f220920489ca2b5937696c31836040516132e49190614adb565b60405180910390a3505050565b6132fc848484612998565b61330884848484613706565b613347576040517f08c379a000000000000000000000000000000000000000000000000000000000815260040161333e90614be1565b60405180910390fd5b50505050565b60007f000000000000000000000000000000000000000000000000000000000000000073ffffffffffffffffffffffffffffffffffffffff16634000aea07f0000000000000000000000000000000000000000000000000000000000000000848660006040516020016133c1929190614b11565b6040516020818303038152906040526040518463ffffffff1660e01b81526004016133ee93929190614a9d565b602060405180830381600087803b15801561340857600080fd5b505af115801561341c573d6000803e3d6000fd5b505050506040513d601f19601f8201168201806040525081019061344091906140ae565b50600061346384600030601760008981526020019081526020016000205461389d565b9050600160176000868152602001908152602001600020546134859190615115565b60176000868152602001908152602001600020819055506134a684826138d9565b91505092915050565b60007f01ffc9a7000000000000000000000000000000000000000000000000000000007bffffffffffffffffffffffffffffffffffffffffffffffffffffffff1916827bffffffffffffffffffffffffffffffffffffffffffffffffffffffff1916149050919050565b6135248383836126a6565b600073ffffffffffffffffffffffffffffffffffffffff168373ffffffffffffffffffffffffffffffffffffffff161415613567576135628161390c565b6135a6565b8173ffffffffffffffffffffffffffffffffffffffff168373ffffffffffffffffffffffffffffffffffffffff16146135a5576135a48382613955565b5b5b600073ffffffffffffffffffffffffffffffffffffffff168273ffffffffffffffffffffffffffffffffffffffff1614156135e9576135e481613ac2565b613628565b8273ffffffffffffffffffffffffffffffffffffffff168273ffffffffffffffffffffffffffffffffffffffff1614613627576136268282613c05565b5b5b505050565b60008082905060005b84518110156136fb57600085828151811061367a577f4e487b7100000000000000000000000000000000000000000000000000000000600052603260045260246000fd5b602002602001015190508083116136bb57828160405160200161369e9291906149a5565b6040516020818303038152906040528051906020012092506136e7565b80836040516020016136ce9291906149a5565b6040516020818303038152906040528051906020012092505b5080806136f39061534d565b915050613636565b508091505092915050565b60006137278473ffffffffffffffffffffffffffffffffffffffff16613c84565b15613890578373ffffffffffffffffffffffffffffffffffffffff1663150b7a026137506127f9565b8786866040518563ffffffff1660e01b81526004016137729493929190614a51565b602060405180830381600087803b15801561378c57600080fd5b505af19250505080156137bd57506040513d601f19601f820116820180604052508101906137ba91906141bd565b60015b613840573d80600081146137ed576040519150601f19603f3d011682016040523d82523d6000602084013e6137f2565b606091505b50600081511415613838576040517f08c379a000000000000000000000000000000000000000000000000000000000815260040161382f90614be1565b60405180910390fd5b805181602001fd5b63150b7a0260e01b7bffffffffffffffffffffffffffffffffffffffffffffffffffffffff1916817bffffffffffffffffffffffffffffffffffffffffffffffffffffffff191614915050613895565b600190505b949350505050565b6000848484846040516020016138b69493929190614b3a565b6040516020818303038152906040528051906020012060001c9050949350505050565b600082826040516020016138ee9291906149d1565b60405160208183030381529060405280519060200120905092915050565b6008805490506009600083815260200190815260200160002081905550600881908060018154018082558091505060019003906000526020600020016000909190919091505550565b60006001613962846117d9565b61396c91906151f6565b9050600060076000848152602001908152602001600020549050818114613a51576000600660008673ffffffffffffffffffffffffffffffffffffffff1673ffffffffffffffffffffffffffffffffffffffff168152602001908152602001600020600084815260200190815260200160002054905080600660008773ffffffffffffffffffffffffffffffffffffffff1673ffffffffffffffffffffffffffffffffffffffff168152602001908152602001600020600084815260200190815260200160002081905550816007600083815260200190815260200160002081905550505b6007600084815260200190815260200160002060009055600660008573ffffffffffffffffffffffffffffffffffffffff1673ffffffffffffffffffffffffffffffffffffffff16815260200190815260200160002060008381526020019081526020016000206000905550505050565b60006001600880549050613ad691906151f6565b9050600060096000848152602001908152602001600020549050600060088381548110613b2c577f4e487b7100000000000000000000000000000000000000000000000000000000600052603260045260246000fd5b906000526020600020015490508060088381548110613b74577f4e487b7100000000000000000000000000000000000000000000000000000000600052603260045260246000fd5b906000526020600020018190555081600960008381526020019081526020016000208190555060096000858152602001908152602001600020600090556008805480613be9577f4e487b7100000000000000000000000000000000000000000000000000000000600052603160045260246000fd5b6001900381819060005260206000200160009055905550505050565b6000613c10836117d9565b905081600660008573ffffffffffffffffffffffffffffffffffffffff1673ffffffffffffffffffffffffffffffffffffffff168152602001908152602001600020600083815260200190815260200160002081905550806007600084815260200190815260200160002081905550505050565b600080823b905060008111915050919050565b828054613ca3906152ea565b90600052602060002090601f016020900481019282613cc55760008555613d0c565b82601f10613cde57803560ff1916838001178555613d0c565b82800160010185558215613d0c579182015b82811115613d0b578235825591602001919060010190613cf0565b5b509050613d199190613d1d565b5090565b5b80821115613d36576000816000905550600101613d1e565b5090565b6000613d4d613d4884615081565b61505c565b905082815260208101848484011115613d6557600080fd5b613d708482856152a8565b509392505050565b600081359050613d8781615d29565b92915050565b60008083601f840112613d9f57600080fd5b8235905067ffffffffffffffff811115613db857600080fd5b602083019150836020820283011115613dd057600080fd5b9250929050565b600081359050613de681615d40565b92915050565b600081519050613dfb81615d40565b92915050565b600081359050613e1081615d57565b92915050565b600081359050613e2581615d6e565b92915050565b600081519050613e3a81615d6e565b92915050565b600082601f830112613e5157600080fd5b8135613e61848260208601613d3a565b91505092915050565b60008083601f840112613e7c57600080fd5b8235905067ffffffffffffffff811115613e9557600080fd5b602083019150836001820283011115613ead57600080fd5b9250929050565b600081359050613ec381615d85565b92915050565b600081519050613ed881615d85565b92915050565b600060208284031215613ef057600080fd5b6000613efe84828501613d78565b91505092915050565b60008060408385031215613f1a57600080fd5b6000613f2885828601613d78565b9250506020613f3985828601613d78565b9150509250929050565b600080600060608486031215613f5857600080fd5b6000613f6686828701613d78565b9350506020613f7786828701613d78565b9250506040613f8886828701613eb4565b9150509250925092565b60008060008060808587031215613fa857600080fd5b6000613fb687828801613d78565b9450506020613fc787828801613d78565b9350506040613fd887828801613eb4565b925050606085013567ffffffffffffffff811115613ff557600080fd5b61400187828801613e40565b91505092959194509250565b6000806040838503121561402057600080fd5b600061402e85828601613d78565b925050602061403f85828601613dd7565b9150509250929050565b6000806040838503121561405c57600080fd5b600061406a85828601613d78565b925050602061407b85828601613eb4565b9150509250929050565b60006020828403121561409757600080fd5b60006140a584828501613dd7565b91505092915050565b6000602082840312156140c057600080fd5b60006140ce84828501613dec565b91505092915050565b6000806000604084860312156140ec57600080fd5b60006140fa86828701613dd7565b935050602084013567ffffffffffffffff81111561411757600080fd5b61412386828701613e6a565b92509250509250925092565b60006020828403121561414157600080fd5b600061414f84828501613e01565b91505092915050565b6000806040838503121561416b57600080fd5b600061417985828601613e01565b925050602061418a85828601613eb4565b9150509250929050565b6000602082840312156141a657600080fd5b60006141b484828501613e16565b91505092915050565b6000602082840312156141cf57600080fd5b60006141dd84828501613e2b565b91505092915050565b6000602082840312156141f857600080fd5b600061420684828501613eb4565b91505092915050565b60006020828403121561422157600080fd5b600061422f84828501613ec9565b91505092915050565b6000806000806060858703121561424e57600080fd5b600061425c87828801613eb4565b945050602085013567ffffffffffffffff81111561427957600080fd5b61428587828801613d8d565b9350935050604061429887828801613eb4565b91505092959194509250565b6142ad8161522a565b82525050565b6142c46142bf8261522a565b615396565b82525050565b6142d38161523c565b82525050565b6142e281615248565b82525050565b6142f96142f482615248565b6153a8565b82525050565b600061430a826150c7565b61431481856150dd565b93506143248185602086016152b7565b61432d816154bb565b840191505092915050565b6000614343826150d2565b61434d81856150f9565b935061435d8185602086016152b7565b614366816154bb565b840191505092915050565b600061437c826150d2565b614386818561510a565b93506143968185602086016152b7565b80840191505092915050565b600081546143af816152ea565b6143b9818661510a565b945060018216600081146143d457600181146143e557614418565b60ff19831686528186019350614418565b6143ee856150b2565b60005b83811015614410578154818901526001820191506020810190506143f1565b838801955050505b50505092915050565b600061442e601f836150f9565b9150614439826154d9565b602082019050919050565b6000614451602b836150f9565b915061445c82615502565b604082019050919050565b60006144746032836150f9565b915061447f82615551565b604082019050919050565b60006144976026836150f9565b91506144a2826155a0565b604082019050919050565b60006144ba601c836150f9565b91506144c5826155ef565b602082019050919050565b60006144dd6016836150f9565b91506144e882615618565b602082019050919050565b60006145006018836150f9565b915061450b82615641565b602082019050919050565b60006145236018836150f9565b915061452e8261566a565b602082019050919050565b60006145466031836150f9565b915061455182615693565b604082019050919050565b60006145696024836150f9565b9150614574826156e2565b604082019050919050565b600061458c6019836150f9565b915061459782615731565b602082019050919050565b60006145af603a836150f9565b91506145ba8261575a565b604082019050919050565b60006145d2601d836150f9565b91506145dd826157a9565b602082019050919050565b60006145f5602c836150f9565b9150614600826157d2565b604082019050919050565b60006146186010836150f9565b915061462382615821565b602082019050919050565b600061463b6024836150f9565b91506146468261584a565b604082019050919050565b600061465e6038836150f9565b915061466982615899565b604082019050919050565b6000614681602a836150f9565b915061468c826158e8565b604082019050919050565b60006146a46029836150f9565b91506146af82615937565b604082019050919050565b60006146c76020836150f9565b91506146d282615986565b602082019050919050565b60006146ea602c836150f9565b91506146f5826159af565b604082019050919050565b600061470d6020836150f9565b9150614718826159fe565b602082019050919050565b60006147306029836150f9565b915061473b82615a27565b604082019050919050565b6000614753601f836150f9565b915061475e82615a76565b602082019050919050565b6000614776601a836150f9565b915061478182615a9f565b602082019050919050565b6000614799601f836150f9565b91506147a482615ac8565b602082019050919050565b60006147bc6015836150f9565b91506147c782615af1565b602082019050919050565b60006147df6021836150f9565b91506147ea82615b1a565b604082019050919050565b6000614802601a836150f9565b915061480d82615b69565b602082019050919050565b60006148256000836150ee565b915061483082615b92565b600082019050919050565b60006148486031836150f9565b915061485382615b95565b604082019050919050565b600061486b602c836150f9565b915061487682615be4565b604082019050919050565b600061488e600f836150f9565b915061489982615c33565b602082019050919050565b60006148b16019836150f9565b91506148bc82615c5c565b602082019050919050565b60006148d46012836150f9565b91506148df82615c85565b602082019050919050565b60006148f76015836150f9565b915061490282615cae565b602082019050919050565b600061491a600e836150f9565b915061492582615cd7565b602082019050919050565b600061493d6016836150f9565b915061494882615d00565b602082019050919050565b61495c8161529e565b82525050565b61497361496e8261529e565b6153c4565b82525050565b600061498582856142b3565b6014820191506149958284614962565b6020820191508190509392505050565b60006149b182856142e8565b6020820191506149c182846142e8565b6020820191508190509392505050565b60006149dd82856142e8565b6020820191506149ed8284614962565b6020820191508190509392505050565b6000614a0982856143a2565b9150614a158284614371565b91508190509392505050565b6000614a2c82614818565b9150819050919050565b6000602082019050614a4b60008301846142a4565b92915050565b6000608082019050614a6660008301876142a4565b614a7360208301866142a4565b614a806040830185614953565b8181036060830152614a9281846142ff565b905095945050505050565b6000606082019050614ab260008301866142a4565b614abf6020830185614953565b8181036040830152614ad181846142ff565b9050949350505050565b6000602082019050614af060008301846142ca565b92915050565b6000602082019050614b0b60008301846142d9565b92915050565b6000604082019050614b2660008301856142d9565b614b336020830184614953565b9392505050565b6000608082019050614b4f60008301876142d9565b614b5c6020830186614953565b614b6960408301856142a4565b614b766060830184614953565b95945050505050565b60006020820190508181036000830152614b998184614338565b905092915050565b60006020820190508181036000830152614bba81614421565b9050919050565b60006020820190508181036000830152614bda81614444565b9050919050565b60006020820190508181036000830152614bfa81614467565b9050919050565b60006020820190508181036000830152614c1a8161448a565b9050919050565b60006020820190508181036000830152614c3a816144ad565b9050919050565b60006020820190508181036000830152614c5a816144d0565b9050919050565b60006020820190508181036000830152614c7a816144f3565b9050919050565b60006020820190508181036000830152614c9a81614516565b9050919050565b60006020820190508181036000830152614cba81614539565b9050919050565b60006020820190508181036000830152614cda8161455c565b9050919050565b60006020820190508181036000830152614cfa8161457f565b9050919050565b60006020820190508181036000830152614d1a816145a2565b9050919050565b60006020820190508181036000830152614d3a816145c5565b9050919050565b60006020820190508181036000830152614d5a816145e8565b9050919050565b60006020820190508181036000830152614d7a8161460b565b9050919050565b60006020820190508181036000830152614d9a8161462e565b9050919050565b60006020820190508181036000830152614dba81614651565b9050919050565b60006020820190508181036000830152614dda81614674565b9050919050565b60006020820190508181036000830152614dfa81614697565b9050919050565b60006020820190508181036000830152614e1a816146ba565b9050919050565b60006020820190508181036000830152614e3a816146dd565b9050919050565b60006020820190508181036000830152614e5a81614700565b9050919050565b60006020820190508181036000830152614e7a81614723565b9050919050565b60006020820190508181036000830152614e9a81614746565b9050919050565b60006020820190508181036000830152614eba81614769565b9050919050565b60006020820190508181036000830152614eda8161478c565b9050919050565b60006020820190508181036000830152614efa816147af565b9050919050565b60006020820190508181036000830152614f1a816147d2565b9050919050565b60006020820190508181036000830152614f3a816147f5565b9050919050565b60006020820190508181036000830152614f5a8161483b565b9050919050565b60006020820190508181036000830152614f7a8161485e565b9050919050565b60006020820190508181036000830152614f9a81614881565b9050919050565b60006020820190508181036000830152614fba816148a4565b9050919050565b60006020820190508181036000830152614fda816148c7565b9050919050565b60006020820190508181036000830152614ffa816148ea565b9050919050565b6000602082019050818103600083015261501a8161490d565b9050919050565b6000602082019050818103600083015261503a81614930565b9050919050565b60006020820190506150566000830184614953565b92915050565b6000615066615077565b9050615072828261531c565b919050565b6000604051905090565b600067ffffffffffffffff82111561509c5761509b61548c565b5b6150a5826154bb565b9050602081019050919050565b60008190508160005260206000209050919050565b600081519050919050565b600081519050919050565b600082825260208201905092915050565b600081905092915050565b600082825260208201905092915050565b600081905092915050565b60006151208261529e565b915061512b8361529e565b9250827fffffffffffffffffffffffffffffffffffffffffffffffffffffffffffffffff038211156151605761515f6153ff565b5b828201905092915050565b60006151768261529e565b91506151818361529e565b9250826151915761519061542e565b5b828204905092915050565b60006151a78261529e565b91506151b28361529e565b9250817fffffffffffffffffffffffffffffffffffffffffffffffffffffffffffffffff04831182151516156151eb576151ea6153ff565b5b828202905092915050565b60006152018261529e565b915061520c8361529e565b92508282101561521f5761521e6153ff565b5b828203905092915050565b60006152358261527e565b9050919050565b60008115159050919050565b6000819050919050565b60007fffffffff0000000000000000000000000000000000000000000000000000000082169050919050565b600073ffffffffffffffffffffffffffffffffffffffff82169050919050565b6000819050919050565b82818337600083830152505050565b60005b838110156152d55780820151818401526020810190506152ba565b838111156152e4576000848401525b50505050565b6000600282049050600182168061530257607f821691505b602082108114156153165761531561545d565b5b50919050565b615325826154bb565b810181811067ffffffffffffffff821117156153445761534361548c565b5b80604052505050565b60006153588261529e565b91507fffffffffffffffffffffffffffffffffffffffffffffffffffffffffffffffff82141561538b5761538a6153ff565b5b600182019050919050565b60006153a1826153b2565b9050919050565b6000819050919050565b60006153bd826154cc565b9050919050565b6000819050919050565b60006153d98261529e565b91506153e48361529e565b9250826153f4576153f361542e565b5b828206905092915050565b7f4e487b7100000000000000000000000000000000000000000000000000000000600052601160045260246000fd5b7f4e487b7100000000000000000000000000000000000000000000000000000000600052601260045260246000fd5b7f4e487b7100000000000000000000000000000000000000000000000000000000600052602260045260246000fd5b7f4e487b7100000000000000000000000000000000000000000000000000000000600052604160045260246000fd5b6000601f19601f8301169050919050565b60008160601b9050919050565b7f55524920717565727920666f72206e6f6e6578697374656e7420746f6b656e00600082015250565b7f455243373231456e756d657261626c653a206f776e657220696e646578206f7560008201527f74206f6620626f756e6473000000000000000000000000000000000000000000602082015250565b7f4552433732313a207472616e7366657220746f206e6f6e20455243373231526560008201527f63656976657220696d706c656d656e7465720000000000000000000000000000602082015250565b7f4f776e61626c653a206e6577206f776e657220697320746865207a65726f206160008201527f6464726573730000000000000000000000000000000000000000000000000000602082015250565b7f4552433732313a20746f6b656e20616c7265616479206d696e74656400000000600082015250565b7f50524553414c45204f4e4c59205249474854204e4f5700000000000000000000600082015250565b7f494e434f5252454354205041594d454e5420414d4f554e540000000000000000600082015250565b7f4e4f5420454e4f554748204c45465420494e2053544f434b0000000000000000600082015250565b7f4d494e54494e47204d4f5245205448414e20414c4c4f57454420494e2041205360008201527f494e474c45205452414e53414354494f4e000000000000000000000000000000602082015250565b7f4552433732313a207472616e7366657220746f20746865207a65726f2061646460008201527f7265737300000000000000000000000000000000000000000000000000000000602082015250565b7f4552433732313a20617070726f766520746f2063616c6c657200000000000000600082015250565b7f416464726573733a20756e61626c6520746f2073656e642076616c75652c207260008201527f6563697069656e74206d61792068617665207265766572746564000000000000602082015250565b7f416464726573733a20696e73756666696369656e742062616c616e6365000000600082015250565b7f4552433732313a206f70657261746f7220717565727920666f72206e6f6e657860008201527f697374656e7420746f6b656e0000000000000000000000000000000000000000602082015250565b7f4e4f54204f4e20414c4c4f574c49535400000000000000000000000000000000600082015250565b7f6d61785065725472616e73616374696f6e2073686f756c6420626520706f736960008201527f7469766500000000000000000000000000000000000000000000000000000000602082015250565b7f4552433732313a20617070726f76652063616c6c6572206973206e6f74206f7760008201527f6e6572206e6f7220617070726f76656420666f7220616c6c0000000000000000602082015250565b7f4552433732313a2062616c616e636520717565727920666f7220746865207a6560008201527f726f206164647265737300000000000000000000000000000000000000000000602082015250565b7f4552433732313a206f776e657220717565727920666f72206e6f6e657869737460008201527f656e7420746f6b656e0000000000000000000000000000000000000000000000602082015250565b7f4552433732313a206d696e7420746f20746865207a65726f2061646472657373600082015250565b7f4552433732313a20617070726f76656420717565727920666f72206e6f6e657860008201527f697374656e7420746f6b656e0000000000000000000000000000000000000000602082015250565b7f4f776e61626c653a2063616c6c6572206973206e6f7420746865206f776e6572600082015250565b7f4552433732313a207472616e73666572206f6620746f6b656e2074686174206960008201527f73206e6f74206f776e0000000000000000000000000000000000000000000000602082015250565b7f416c72656164792067656e6572617465642072616e646f6d206f666673657400600082015250565b7f4e4f54204f4e2046524545204d494e5420414c4c4f574c495354000000000000600082015250565b7f4f6e6c7920565246436f6f7264696e61746f722063616e2066756c66696c6c00600082015250565b7f53414c4520414354495645205249474854204e4f570000000000000000000000600082015250565b7f4552433732313a20617070726f76616c20746f2063757272656e74206f776e6560008201527f7200000000000000000000000000000000000000000000000000000000000000602082015250565b7f4e6f7420656e6f756768204c494e4b20746f2070617920666565000000000000600082015250565b50565b7f4552433732313a207472616e736665722063616c6c6572206973206e6f74206f60008201527f776e6572206e6f7220617070726f766564000000000000000000000000000000602082015250565b7f455243373231456e756d657261626c653a20676c6f62616c20696e646578206f60008201527f7574206f6620626f756e64730000000000000000000000000000000000000000602082015250565b7f53414c45204e4f54204143544956450000000000000000000000000000000000600082015250565b7f4d494e54494e47204d4f5245205448414e20414c4c4f57454400000000000000600082015250565b7f50524553414c45204e4f54204143544956450000000000000000000000000000600082015250565b7f46726565206d696e74206e6f7420616c6c6f7765640000000000000000000000600082015250565b7f5f726f6f7420697320656d707479000000000000000000000000000000000000600082015250565b7f5f746f6b656e4261736555524920697320656d70747900000000000000000000600082015250565b615d328161522a565b8114615d3d57600080fd5b50565b615d498161523c565b8114615d5457600080fd5b50565b615d6081615248565b8114615d6b57600080fd5b50565b615d7781615252565b8114615d8257600080fd5b50565b615d8e8161529e565b8114615d9957600080fd5b5056fea2646970667358221220c70b2d2523c06ff2ad7f9f327096eeefc582797f2ba751d2fdc363c97244f3d264736f6c63430008040033",
  "linkReferences": {},
  "deployedLinkReferences": {}
}