{
  "_format": "hh-sol-artifact-1",
  "contractName": "PMV",
  "sourceName": "contracts/PMV.sol",
  "abi": [
    {
      "inputs": [
        {
          "internalType": "bytes32",
          "name": "merkleroot",
          "type": "bytes32"
        },
        {
          "internalType": "string",
          "name": "uri",
          "type": "string"
        },
        {
          "internalType": "bytes32",
          "name": "_rootMintFree",
          "type": "bytes32"
        }
      ],
      "stateMutability": "nonpayable",
      "type": "constructor"
    },
    {
      "anonymous": false,
      "inputs": [
        {
          "indexed": true,
          "internalType": "address",
          "name": "owner",
          "type": "address"
        },
        {
          "indexed": true,
          "internalType": "address",
          "name": "approved",
          "type": "address"
        },
        {
          "indexed": true,
          "internalType": "uint256",
          "name": "tokenId",
          "type": "uint256"
        }
      ],
      "name": "Approval",
      "type": "event"
    },
    {
      "anonymous": false,
      "inputs": [
        {
          "indexed": true,
          "internalType": "address",
          "name": "owner",
          "type": "address"
        },
        {
          "indexed": true,
          "internalType": "address",
          "name": "operator",
          "type": "address"
        },
        {
          "indexed": false,
          "internalType": "bool",
          "name": "approved",
          "type": "bool"
        }
      ],
      "name": "ApprovalForAll",
      "type": "event"
    },
    {
      "anonymous": false,
      "inputs": [
        {
          "indexed": true,
          "internalType": "address",
          "name": "previousOwner",
          "type": "address"
        },
        {
          "indexed": true,
          "internalType": "address",
          "name": "newOwner",
          "type": "address"
        }
      ],
      "name": "OwnershipTransferred",
      "type": "event"
    },
    {
      "anonymous": false,
      "inputs": [
        {
          "indexed": true,
          "internalType": "address",
          "name": "from",
          "type": "address"
        },
        {
          "indexed": true,
          "internalType": "address",
          "name": "to",
          "type": "address"
        },
        {
          "indexed": true,
          "internalType": "uint256",
          "name": "tokenId",
          "type": "uint256"
        }
      ],
      "name": "Transfer",
      "type": "event"
    },
    {
      "inputs": [
        {
          "internalType": "uint256",
          "name": "tokenId",
          "type": "uint256"
        }
      ],
      "name": "_tokenURI",
      "outputs": [
        {
          "internalType": "string",
          "name": "",
          "type": "string"
        }
      ],
      "stateMutability": "view",
      "type": "function"
    },
    {
      "inputs": [
        {
          "internalType": "address",
          "name": "to",
          "type": "address"
        },
        {
          "internalType": "uint256",
          "name": "tokenId",
          "type": "uint256"
        }
      ],
      "name": "approve",
      "outputs": [],
      "stateMutability": "nonpayable",
      "type": "function"
    },
    {
      "inputs": [
        {
          "internalType": "address",
          "name": "owner",
          "type": "address"
        }
      ],
      "name": "balanceOf",
      "outputs": [
        {
          "internalType": "uint256",
          "name": "",
          "type": "uint256"
        }
      ],
      "stateMutability": "view",
      "type": "function"
    },
    {
      "inputs": [],
      "name": "freeMintAllowed",
      "outputs": [
        {
          "internalType": "bool",
          "name": "",
          "type": "bool"
        }
      ],
      "stateMutability": "view",
      "type": "function"
    },
    {
      "inputs": [
        {
          "internalType": "uint256",
          "name": "tokenId",
          "type": "uint256"
        }
      ],
      "name": "getApproved",
      "outputs": [
        {
          "internalType": "address",
          "name": "",
          "type": "address"
        }
      ],
      "stateMutability": "view",
      "type": "function"
    },
    {
      "inputs": [
        {
          "internalType": "address",
          "name": "owner",
          "type": "address"
        },
        {
          "internalType": "address",
          "name": "operator",
          "type": "address"
        }
      ],
      "name": "isApprovedForAll",
      "outputs": [
        {
          "internalType": "bool",
          "name": "",
          "type": "bool"
        }
      ],
      "stateMutability": "view",
      "type": "function"
    },
    {
      "inputs": [],
      "name": "maxPerWallet",
      "outputs": [
        {
          "internalType": "uint256",
          "name": "",
          "type": "uint256"
        }
      ],
      "stateMutability": "view",
      "type": "function"
    },
    {
      "inputs": [],
      "name": "maxSupply",
      "outputs": [
        {
          "internalType": "uint256",
          "name": "",
          "type": "uint256"
        }
      ],
      "stateMutability": "view",
      "type": "function"
    },
    {
      "inputs": [
        {
          "internalType": "uint256",
          "name": "tokenQuantity",
          "type": "uint256"
        }
      ],
      "name": "mint",
      "outputs": [],
      "stateMutability": "payable",
      "type": "function"
    },
    {
      "inputs": [
        {
          "internalType": "uint256",
          "name": "allowance",
          "type": "uint256"
        },
        {
          "internalType": "bytes32[]",
          "name": "proof",
          "type": "bytes32[]"
        },
        {
          "internalType": "uint256",
          "name": "tokenQuantity",
          "type": "uint256"
        }
      ],
      "name": "mintFree",
      "outputs": [],
      "stateMutability": "nonpayable",
      "type": "function"
    },
    {
      "inputs": [
        {
          "internalType": "uint256",
          "name": "allowance",
          "type": "uint256"
        },
        {
          "internalType": "bytes32[]",
          "name": "proof",
          "type": "bytes32[]"
        },
        {
          "internalType": "uint256",
          "name": "tokenQuantity",
          "type": "uint256"
        }
      ],
      "name": "mintPresale",
      "outputs": [],
      "stateMutability": "payable",
      "type": "function"
    },
    {
      "inputs": [],
      "name": "name",
      "outputs": [
        {
          "internalType": "string",
          "name": "",
          "type": "string"
        }
      ],
      "stateMutability": "view",
      "type": "function"
    },
    {
      "inputs": [],
      "name": "owner",
      "outputs": [
        {
          "internalType": "address",
          "name": "",
          "type": "address"
        }
      ],
      "stateMutability": "view",
      "type": "function"
    },
    {
      "inputs": [
        {
          "internalType": "uint256",
          "name": "tokenId",
          "type": "uint256"
        }
      ],
      "name": "ownerOf",
      "outputs": [
        {
          "internalType": "address",
          "name": "",
          "type": "address"
        }
      ],
      "stateMutability": "view",
      "type": "function"
    },
    {
      "inputs": [],
      "name": "presaleActive",
      "outputs": [
        {
          "internalType": "bool",
          "name": "",
          "type": "bool"
        }
      ],
      "stateMutability": "view",
      "type": "function"
    },
    {
      "inputs": [],
      "name": "renounceOwnership",
      "outputs": [],
      "stateMutability": "nonpayable",
      "type": "function"
    },
    {
      "inputs": [],
      "name": "root",
      "outputs": [
        {
          "internalType": "bytes32",
          "name": "",
          "type": "bytes32"
        }
      ],
      "stateMutability": "view",
      "type": "function"
    },
    {
      "inputs": [],
      "name": "rootMintFree",
      "outputs": [
        {
          "internalType": "bytes32",
          "name": "",
          "type": "bytes32"
        }
      ],
      "stateMutability": "view",
      "type": "function"
    },
    {
      "inputs": [
        {
          "internalType": "address",
          "name": "from",
          "type": "address"
        },
        {
          "internalType": "address",
          "name": "to",
          "type": "address"
        },
        {
          "internalType": "uint256",
          "name": "tokenId",
          "type": "uint256"
        }
      ],
      "name": "safeTransferFrom",
      "outputs": [],
      "stateMutability": "nonpayable",
      "type": "function"
    },
    {
      "inputs": [
        {
          "internalType": "address",
          "name": "from",
          "type": "address"
        },
        {
          "internalType": "address",
          "name": "to",
          "type": "address"
        },
        {
          "internalType": "uint256",
          "name": "tokenId",
          "type": "uint256"
        },
        {
          "internalType": "bytes",
          "name": "_data",
          "type": "bytes"
        }
      ],
      "name": "safeTransferFrom",
      "outputs": [],
      "stateMutability": "nonpayable",
      "type": "function"
    },
    {
      "inputs": [],
      "name": "saleActive",
      "outputs": [
        {
          "internalType": "bool",
          "name": "",
          "type": "bool"
        }
      ],
      "stateMutability": "view",
      "type": "function"
    },
    {
      "inputs": [],
      "name": "salePrice",
      "outputs": [
        {
          "internalType": "uint256",
          "name": "",
          "type": "uint256"
        }
      ],
      "stateMutability": "view",
      "type": "function"
    },
    {
      "inputs": [
        {
          "internalType": "address",
          "name": "operator",
          "type": "address"
        },
        {
          "internalType": "bool",
          "name": "approved",
          "type": "bool"
        }
      ],
      "name": "setApprovalForAll",
      "outputs": [],
      "stateMutability": "nonpayable",
      "type": "function"
    },
    {
      "inputs": [
        {
          "internalType": "bool",
          "name": "_freeMintAllowed",
          "type": "bool"
        }
      ],
      "name": "setFreeMintAllowed",
      "outputs": [],
      "stateMutability": "nonpayable",
      "type": "function"
    },
    {
      "inputs": [
        {
          "internalType": "uint256",
          "name": "_maxPerWallet",
          "type": "uint256"
        }
      ],
      "name": "setMaxPerWallet",
      "outputs": [],
      "stateMutability": "nonpayable",
      "type": "function"
    },
    {
      "inputs": [
        {
          "internalType": "bool",
          "name": "_presaleStatus",
          "type": "bool"
        }
      ],
      "name": "setPresale",
      "outputs": [],
      "stateMutability": "nonpayable",
      "type": "function"
    },
    {
      "inputs": [
        {
          "internalType": "bytes32",
          "name": "_root",
          "type": "bytes32"
        }
      ],
      "name": "setRoot",
      "outputs": [],
      "stateMutability": "nonpayable",
      "type": "function"
    },
    {
      "inputs": [
        {
          "internalType": "bytes32",
          "name": "_root",
          "type": "bytes32"
        }
      ],
      "name": "setRootMintFree",
      "outputs": [],
      "stateMutability": "nonpayable",
      "type": "function"
    },
    {
      "inputs": [
        {
          "internalType": "bool",
          "name": "_saleStatus",
          "type": "bool"
        }
      ],
      "name": "setSale",
      "outputs": [],
      "stateMutability": "nonpayable",
      "type": "function"
    },
    {
      "inputs": [
        {
          "internalType": "bool",
          "name": "_revealed",
          "type": "bool"
        },
        {
          "internalType": "string",
          "name": "_tokenBaseURI",
          "type": "string"
        }
      ],
      "name": "setURIStatus",
      "outputs": [],
      "stateMutability": "nonpayable",
      "type": "function"
    },
    {
      "inputs": [
        {
          "internalType": "bytes4",
          "name": "interfaceId",
          "type": "bytes4"
        }
      ],
      "name": "supportsInterface",
      "outputs": [
        {
          "internalType": "bool",
          "name": "",
          "type": "bool"
        }
      ],
      "stateMutability": "view",
      "type": "function"
    },
    {
      "inputs": [],
      "name": "symbol",
      "outputs": [
        {
          "internalType": "string",
          "name": "",
          "type": "string"
        }
      ],
      "stateMutability": "view",
      "type": "function"
    },
    {
      "inputs": [
        {
          "internalType": "uint256",
          "name": "index",
          "type": "uint256"
        }
      ],
      "name": "tokenByIndex",
      "outputs": [
        {
          "internalType": "uint256",
          "name": "",
          "type": "uint256"
        }
      ],
      "stateMutability": "view",
      "type": "function"
    },
    {
      "inputs": [
        {
          "internalType": "address",
          "name": "owner",
          "type": "address"
        },
        {
          "internalType": "uint256",
          "name": "index",
          "type": "uint256"
        }
      ],
      "name": "tokenOfOwnerByIndex",
      "outputs": [
        {
          "internalType": "uint256",
          "name": "",
          "type": "uint256"
        }
      ],
      "stateMutability": "view",
      "type": "function"
    },
    {
      "inputs": [
        {
          "internalType": "uint256",
          "name": "tokenId",
          "type": "uint256"
        }
      ],
      "name": "tokenURI",
      "outputs": [
        {
          "internalType": "string",
          "name": "",
          "type": "string"
        }
      ],
      "stateMutability": "view",
      "type": "function"
    },
    {
      "inputs": [],
      "name": "totalSupply",
      "outputs": [
        {
          "internalType": "uint256",
          "name": "",
          "type": "uint256"
        }
      ],
      "stateMutability": "view",
      "type": "function"
    },
    {
      "inputs": [
        {
          "internalType": "address",
          "name": "from",
          "type": "address"
        },
        {
          "internalType": "address",
          "name": "to",
          "type": "address"
        },
        {
          "internalType": "uint256",
          "name": "tokenId",
          "type": "uint256"
        }
      ],
      "name": "transferFrom",
      "outputs": [],
      "stateMutability": "nonpayable",
      "type": "function"
    },
    {
      "inputs": [
        {
          "internalType": "address",
          "name": "newOwner",
          "type": "address"
        }
      ],
      "name": "transferOwnership",
      "outputs": [],
      "stateMutability": "nonpayable",
      "type": "function"
    },
    {
      "inputs": [],
      "name": "withdraw",
      "outputs": [],
      "stateMutability": "nonpayable",
      "type": "function"
    }
  ],
  "bytecode": "0x6080604052600a600b556000600c60006101000a81548160ff0219169083151502179055506000600c60016101000a81548160ff0219169083151502179055506000600c60026101000a81548160ff0219169083151502179055506000600f60006101000a81548160ff0219169083151502179055503480156200008257600080fd5b5060405162005681380380620056818339818101604052810190620000a891906200039f565b6040518060400160405280600381526020017f504d5600000000000000000000000000000000000000000000000000000000008152506040518060400160405280600681526020017f504d56544b4e000000000000000000000000000000000000000000000000000081525081600090805190602001906200012c92919062000266565b5080600190805190602001906200014592919062000266565b505050620001686200015c6200019860201b60201c565b620001a060201b60201c565b8260108190555081600e90805190602001906200018792919062000266565b5080601181905550505050620005a2565b600033905090565b6000600a60009054906101000a900473ffffffffffffffffffffffffffffffffffffffff16905081600a60006101000a81548173ffffffffffffffffffffffffffffffffffffffff021916908373ffffffffffffffffffffffffffffffffffffffff1602179055508173ffffffffffffffffffffffffffffffffffffffff168173ffffffffffffffffffffffffffffffffffffffff167f8be0079c531659141344cd1fd0a4f28419497f9722a3daafe3b4186f6b6457e060405160405180910390a35050565b8280546200027490620004ad565b90600052602060002090601f016020900481019282620002985760008555620002e4565b82601f10620002b357805160ff1916838001178555620002e4565b82800160010185558215620002e4579182015b82811115620002e3578251825591602001919060010190620002c6565b5b509050620002f39190620002f7565b5090565b5b8082111562000312576000816000905550600101620002f8565b5090565b60006200032d620003278462000437565b6200040e565b9050828152602081018484840111156200034657600080fd5b6200035384828562000477565b509392505050565b6000815190506200036c8162000588565b92915050565b600082601f8301126200038457600080fd5b81516200039684826020860162000316565b91505092915050565b600080600060608486031215620003b557600080fd5b6000620003c5868287016200035b565b935050602084015167ffffffffffffffff811115620003e357600080fd5b620003f18682870162000372565b925050604062000404868287016200035b565b9150509250925092565b60006200041a6200042d565b9050620004288282620004e3565b919050565b6000604051905090565b600067ffffffffffffffff82111562000455576200045462000548565b5b620004608262000577565b9050602081019050919050565b6000819050919050565b60005b83811015620004975780820151818401526020810190506200047a565b83811115620004a7576000848401525b50505050565b60006002820490506001821680620004c657607f821691505b60208210811415620004dd57620004dc62000519565b5b50919050565b620004ee8262000577565b810181811067ffffffffffffffff8211171562000510576200050f62000548565b5b80604052505050565b7f4e487b7100000000000000000000000000000000000000000000000000000000600052602260045260246000fd5b7f4e487b7100000000000000000000000000000000000000000000000000000000600052604160045260246000fd5b6000601f19601f8301169050919050565b62000593816200046d565b81146200059f57600080fd5b50565b6150cf80620005b26000396000f3fe6080604052600436106102305760003560e01c806368428a1b1161012e578063b88d4fde116100ab578063e268e4d31161006f578063e268e4d31461081d578063e985e9c514610846578063ebf0c71714610883578063f2fde38b146108ae578063f51f96dd146108d757610230565b8063b88d4fde1461073a578063c54e73e314610763578063c87b56dd1461078c578063d5abeb01146107c9578063dab5f340146107f457610230565b80638da5cb5b116100f25780638da5cb5b1461067657806392c46da3146106a157806395d89b41146106ca578063a0712d68146106f5578063a22cb4651461071157610230565b806368428a1b146105915780636f8d9305146105bc57806370a08231146105e5578063715018a6146106225780638d17e7121461063957610230565b80632a613fa7116101bc578063453c231011610180578063453c2310146104965780634f6ccce7146104c157806353135ca0146104fe5780635fc9c0e6146105295780636352211e1461055457610230565b80632a613fa7146103d25780632f745c59146103fd5780633c14a2de1461043a5780633ccfd60b1461045657806342842e0e1461046d57610230565b806318160ddd1161020357806318160ddd146103035780631d2e5a3a1461032e5780631fbb4e271461035757806323b872dd1461038057806329770e04146103a957610230565b806301ffc9a71461023557806306fdde0314610272578063081812fc1461029d578063095ea7b3146102da575b600080fd5b34801561024157600080fd5b5061025c600480360381019061025791906138d2565b610902565b604051610269919061407c565b60405180910390f35b34801561027e57600080fd5b5061028761097c565b60405161029491906140b2565b60405180910390f35b3480156102a957600080fd5b506102c460048036038101906102bf9190613924565b610a0e565b6040516102d19190614015565b60405180910390f35b3480156102e657600080fd5b5061030160048036038101906102fc91906137ec565b610a93565b005b34801561030f57600080fd5b50610318610bab565b60405161032591906144b4565b60405180910390f35b34801561033a57600080fd5b5061035560048036038101906103509190613828565b610bb8565b005b34801561036357600080fd5b5061037e600480360381019061037991906138a9565b610c51565b005b34801561038c57600080fd5b506103a760048036038101906103a291906136e6565b610d1e565b005b3480156103b557600080fd5b506103d060048036038101906103cb9190613828565b610d7e565b005b3480156103de57600080fd5b506103e7610e17565b6040516103f4919061407c565b60405180910390f35b34801561040957600080fd5b50610424600480360381019061041f91906137ec565b610e2a565b60405161043191906144b4565b60405180910390f35b610454600480360381019061044f919061394d565b610ecf565b005b34801561046257600080fd5b5061046b6111ae565b005b34801561047957600080fd5b50610494600480360381019061048f91906136e6565b611273565b005b3480156104a257600080fd5b506104ab611293565b6040516104b891906144b4565b60405180910390f35b3480156104cd57600080fd5b506104e860048036038101906104e39190613924565b611299565b6040516104f591906144b4565b60405180910390f35b34801561050a57600080fd5b50610513611330565b604051610520919061407c565b60405180910390f35b34801561053557600080fd5b5061053e611343565b60405161054b9190614097565b60405180910390f35b34801561056057600080fd5b5061057b60048036038101906105769190613924565b611349565b6040516105889190614015565b60405180910390f35b34801561059d57600080fd5b506105a66113fb565b6040516105b3919061407c565b60405180910390f35b3480156105c857600080fd5b506105e360048036038101906105de9190613851565b61140e565b005b3480156105f157600080fd5b5061060c60048036038101906106079190613681565b611501565b60405161061991906144b4565b60405180910390f35b34801561062e57600080fd5b506106376115b9565b005b34801561064557600080fd5b50610660600480360381019061065b9190613924565b611641565b60405161066d91906140b2565b60405180910390f35b34801561068257600080fd5b5061068b611724565b6040516106989190614015565b60405180910390f35b3480156106ad57600080fd5b506106c860048036038101906106c3919061394d565b61174e565b005b3480156106d657600080fd5b506106df6119d8565b6040516106ec91906140b2565b60405180910390f35b61070f600480360381019061070a9190613924565b611a6a565b005b34801561071d57600080fd5b50610738600480360381019061073391906137b0565b611cd9565b005b34801561074657600080fd5b50610761600480360381019061075c9190613735565b611cef565b005b34801561076f57600080fd5b5061078a60048036038101906107859190613828565b611d51565b005b34801561079857600080fd5b506107b360048036038101906107ae9190613924565b611dea565b6040516107c091906140b2565b60405180910390f35b3480156107d557600080fd5b506107de611e44565b6040516107eb91906144b4565b60405180910390f35b34801561080057600080fd5b5061081b600480360381019061081691906138a9565b611e49565b005b34801561082957600080fd5b50610844600480360381019061083f9190613924565b611f16565b005b34801561085257600080fd5b5061086d600480360381019061086891906136aa565b611fdf565b60405161087a919061407c565b60405180910390f35b34801561088f57600080fd5b50610898612073565b6040516108a59190614097565b60405180910390f35b3480156108ba57600080fd5b506108d560048036038101906108d09190613681565b612079565b005b3480156108e357600080fd5b506108ec612171565b6040516108f991906144b4565b60405180910390f35b60007f780e9d63000000000000000000000000000000000000000000000000000000007bffffffffffffffffffffffffffffffffffffffffffffffffffffffff1916827bffffffffffffffffffffffffffffffffffffffffffffffffffffffff1916148061097557506109748261217c565b5b9050919050565b60606000805461098b90614752565b80601f01602080910402602001604051908101604052809291908181526020018280546109b790614752565b8015610a045780601f106109d957610100808354040283529160200191610a04565b820191906000526020600020905b8154815290600101906020018083116109e757829003601f168201915b5050505050905090565b6000610a198261225e565b610a58576040517f08c379a0000000000000000000000000000000000000000000000000000000008152600401610a4f906142f4565b60405180910390fd5b6004600083815260200190815260200160002060009054906101000a900473ffffffffffffffffffffffffffffffffffffffff169050919050565b6000610a9e82611349565b90508073ffffffffffffffffffffffffffffffffffffffff168373ffffffffffffffffffffffffffffffffffffffff161415610b0f576040517f08c379a0000000000000000000000000000000000000000000000000000000008152600401610b0690614394565b60405180910390fd5b8073ffffffffffffffffffffffffffffffffffffffff16610b2e6122ca565b73ffffffffffffffffffffffffffffffffffffffff161480610b5d5750610b5c81610b576122ca565b611fdf565b5b610b9c576040517f08c379a0000000000000000000000000000000000000000000000000000000008152600401610b9390614274565b60405180910390fd5b610ba683836122d2565b505050565b6000600880549050905090565b610bc06122ca565b73ffffffffffffffffffffffffffffffffffffffff16610bde611724565b73ffffffffffffffffffffffffffffffffffffffff1614610c34576040517f08c379a0000000000000000000000000000000000000000000000000000000008152600401610c2b90614314565b60405180910390fd5b80600c60026101000a81548160ff02191690831515021790555050565b610c596122ca565b73ffffffffffffffffffffffffffffffffffffffff16610c77611724565b73ffffffffffffffffffffffffffffffffffffffff1614610ccd576040517f08c379a0000000000000000000000000000000000000000000000000000000008152600401610cc490614314565b60405180910390fd5b6000602060ff1611610d14576040517f08c379a0000000000000000000000000000000000000000000000000000000008152600401610d0b90614474565b60405180910390fd5b8060118190555050565b610d2f610d296122ca565b8261238b565b610d6e576040517f08c379a0000000000000000000000000000000000000000000000000000000008152600401610d65906143b4565b60405180910390fd5b610d79838383612469565b505050565b610d866122ca565b73ffffffffffffffffffffffffffffffffffffffff16610da4611724565b73ffffffffffffffffffffffffffffffffffffffff1614610dfa576040517f08c379a0000000000000000000000000000000000000000000000000000000008152600401610df190614314565b60405180910390fd5b80600c60016101000a81548160ff02191690831515021790555050565b600c60019054906101000a900460ff1681565b6000610e3583611501565b8210610e76576040517f08c379a0000000000000000000000000000000000000000000000000000000008152600401610e6d90614114565b60405180910390fd5b600660008473ffffffffffffffffffffffffffffffffffffffff1673ffffffffffffffffffffffffffffffffffffffff168152602001908152602001600020600083815260200190815260200160002054905092915050565b600c60009054906101000a900460ff16610f1e576040517f08c379a0000000000000000000000000000000000000000000000000000000008152600401610f1590614434565b60405180910390fd5b600c60029054906101000a900460ff1615610f6e576040517f08c379a0000000000000000000000000000000000000000000000000000000008152600401610f6590614374565b60405180910390fd5b610fee6010543386604051602001610f87929190613f99565b60405160208183030381529060405280519060200120858580806020026020016040519081016040528093929190818152602001838360200280828437600081840152601f19601f820116905080830192505050505050506126c59092919063ffffffff16565b61102d576040517f08c379a000000000000000000000000000000000000000000000000000000000815260040161102490614254565b60405180910390fd5b8381601260003373ffffffffffffffffffffffffffffffffffffffff1673ffffffffffffffffffffffffffffffffffffffff16815260200190815260200160002054611079919061457d565b11156110ba576040517f08c379a00000000000000000000000000000000000000000000000000000000081526004016110b190614414565b60405180910390fd5b3466470de4df820000826110ce9190614604565b1461110e576040517f08c379a0000000000000000000000000000000000000000000000000000000008152600401611105906141b4565b60405180910390fd5b6000611118610bab565b90506000600190505b8281116111505761113d338284611138919061457d565b6126dc565b8080611148906147b5565b915050611121565b5081601260003373ffffffffffffffffffffffffffffffffffffffff1673ffffffffffffffffffffffffffffffffffffffff16815260200190815260200160002060008282546111a0919061457d565b925050819055505050505050565b6111b66122ca565b73ffffffffffffffffffffffffffffffffffffffff166111d4611724565b73ffffffffffffffffffffffffffffffffffffffff161461122a576040517f08c379a000000000000000000000000000000000000000000000000000000000815260040161122190614314565b60405180910390fd5b3373ffffffffffffffffffffffffffffffffffffffff166108fc479081150290604051600060405180830381858888f19350505050158015611270573d6000803e3d6000fd5b50565b61128e83838360405180602001604052806000815250611cef565b505050565b600b5481565b60006112a3610bab565b82106112e4576040517f08c379a00000000000000000000000000000000000000000000000000000000081526004016112db906143d4565b60405180910390fd5b6008828154811061131e577f4e487b7100000000000000000000000000000000000000000000000000000000600052603260045260246000fd5b90600052602060002001549050919050565b600c60009054906101000a900460ff1681565b60115481565b6000806002600084815260200190815260200160002060009054906101000a900473ffffffffffffffffffffffffffffffffffffffff169050600073ffffffffffffffffffffffffffffffffffffffff168173ffffffffffffffffffffffffffffffffffffffff1614156113f2576040517f08c379a00000000000000000000000000000000000000000000000000000000081526004016113e9906142b4565b60405180910390fd5b80915050919050565b600c60029054906101000a900460ff1681565b6114166122ca565b73ffffffffffffffffffffffffffffffffffffffff16611434611724565b73ffffffffffffffffffffffffffffffffffffffff161461148a576040517f08c379a000000000000000000000000000000000000000000000000000000000815260040161148190614314565b60405180910390fd5b600082829050116114d0576040517f08c379a00000000000000000000000000000000000000000000000000000000081526004016114c790614494565b60405180910390fd5b82600f60006101000a81548160ff0219169083151502179055508181600d91906114fb929190613464565b50505050565b60008073ffffffffffffffffffffffffffffffffffffffff168273ffffffffffffffffffffffffffffffffffffffff161415611572576040517f08c379a000000000000000000000000000000000000000000000000000000000815260040161156990614294565b60405180910390fd5b600360008373ffffffffffffffffffffffffffffffffffffffff1673ffffffffffffffffffffffffffffffffffffffff168152602001908152602001600020549050919050565b6115c16122ca565b73ffffffffffffffffffffffffffffffffffffffff166115df611724565b73ffffffffffffffffffffffffffffffffffffffff1614611635576040517f08c379a000000000000000000000000000000000000000000000000000000000815260040161162c90614314565b60405180910390fd5b61163f60006128aa565b565b606060001515600f60009054906101000a900460ff16151514156116f157600e805461166c90614752565b80601f016020809104026020016040519081016040528092919081815260200182805461169890614752565b80156116e55780601f106116ba576101008083540402835291602001916116e5565b820191906000526020600020905b8154815290600101906020018083116116c857829003601f168201915b5050505050905061171f565b600d6116fc83612970565b60405160200161170d929190613ff1565b60405160208183030381529060405290505b919050565b6000600a60009054906101000a900473ffffffffffffffffffffffffffffffffffffffff16905090565b600c60019054906101000a900460ff1661179d576040517f08c379a000000000000000000000000000000000000000000000000000000000815260040161179490614454565b60405180910390fd5b61181d60115433866040516020016117b6929190613f99565b60405160208183030381529060405280519060200120858580806020026020016040519081016040528093929190818152602001838360200280828437600081840152601f19601f820116905080830192505050505050506126c59092919063ffffffff16565b61185c576040517f08c379a000000000000000000000000000000000000000000000000000000000815260040161185390614354565b60405180910390fd5b8381601360003373ffffffffffffffffffffffffffffffffffffffff1673ffffffffffffffffffffffffffffffffffffffff168152602001908152602001600020546118a8919061457d565b11156118e9576040517f08c379a00000000000000000000000000000000000000000000000000000000081526004016118e090614414565b60405180910390fd5b60006118f3610bab565b9050601e8183611903919061457d565b1115611944576040517f08c379a000000000000000000000000000000000000000000000000000000000815260040161193b906141d4565b60405180910390fd5b6000600190505b82811161197a57611967338284611962919061457d565b6126dc565b8080611972906147b5565b91505061194b565b5081601360003373ffffffffffffffffffffffffffffffffffffffff1673ffffffffffffffffffffffffffffffffffffffff16815260200190815260200160002060008282546119ca919061457d565b925050819055505050505050565b6060600180546119e790614752565b80601f0160208091040260200160405190810160405280929190818152602001828054611a1390614752565b8015611a605780601f10611a3557610100808354040283529160200191611a60565b820191906000526020600020905b815481529060010190602001808311611a4357829003601f168201915b5050505050905090565b600c60029054906101000a900460ff16611ab9576040517f08c379a0000000000000000000000000000000000000000000000000000000008152600401611ab0906143f4565b60405180910390fd5b600c60009054906101000a900460ff1615611b09576040517f08c379a0000000000000000000000000000000000000000000000000000000008152600401611b0090614194565b60405180910390fd5b600b5481601460003373ffffffffffffffffffffffffffffffffffffffff1673ffffffffffffffffffffffffffffffffffffffff16815260200190815260200160002054611b57919061457d565b1115611b98576040517f08c379a0000000000000000000000000000000000000000000000000000000008152600401611b8f90614414565b60405180910390fd5b3466470de4df82000082611bac9190614604565b1115611bed576040517f08c379a0000000000000000000000000000000000000000000000000000000008152600401611be4906141b4565b60405180910390fd5b6000611bf7610bab565b9050601e8183611c07919061457d565b1115611c48576040517f08c379a0000000000000000000000000000000000000000000000000000000008152600401611c3f906141d4565b60405180910390fd5b6000600190505b828111611c7e57611c6b338284611c66919061457d565b6126dc565b8080611c76906147b5565b915050611c4f565b5081601460003373ffffffffffffffffffffffffffffffffffffffff1673ffffffffffffffffffffffffffffffffffffffff1681526020019081526020016000206000828254611cce919061457d565b925050819055505050565b611ceb611ce46122ca565b8383612b1d565b5050565b611d00611cfa6122ca565b8361238b565b611d3f576040517f08c379a0000000000000000000000000000000000000000000000000000000008152600401611d36906143b4565b60405180910390fd5b611d4b84848484612c8a565b50505050565b611d596122ca565b73ffffffffffffffffffffffffffffffffffffffff16611d77611724565b73ffffffffffffffffffffffffffffffffffffffff1614611dcd576040517f08c379a0000000000000000000000000000000000000000000000000000000008152600401611dc490614314565b60405180910390fd5b80600c60006101000a81548160ff02191690831515021790555050565b6060611df58261225e565b611e34576040517f08c379a0000000000000000000000000000000000000000000000000000000008152600401611e2b906140f4565b60405180910390fd5b611e3d82611641565b9050919050565b601e81565b611e516122ca565b73ffffffffffffffffffffffffffffffffffffffff16611e6f611724565b73ffffffffffffffffffffffffffffffffffffffff1614611ec5576040517f08c379a0000000000000000000000000000000000000000000000000000000008152600401611ebc90614314565b60405180910390fd5b6000602060ff1611611f0c576040517f08c379a0000000000000000000000000000000000000000000000000000000008152600401611f0390614474565b60405180910390fd5b8060108190555050565b611f1e6122ca565b73ffffffffffffffffffffffffffffffffffffffff16611f3c611724565b73ffffffffffffffffffffffffffffffffffffffff1614611f92576040517f08c379a0000000000000000000000000000000000000000000000000000000008152600401611f8990614314565b60405180910390fd5b60008111611fd5576040517f08c379a0000000000000000000000000000000000000000000000000000000008152600401611fcc906140d4565b60405180910390fd5b80600b8190555050565b6000600560008473ffffffffffffffffffffffffffffffffffffffff1673ffffffffffffffffffffffffffffffffffffffff16815260200190815260200160002060008373ffffffffffffffffffffffffffffffffffffffff1673ffffffffffffffffffffffffffffffffffffffff16815260200190815260200160002060009054906101000a900460ff16905092915050565b60105481565b6120816122ca565b73ffffffffffffffffffffffffffffffffffffffff1661209f611724565b73ffffffffffffffffffffffffffffffffffffffff16146120f5576040517f08c379a00000000000000000000000000000000000000000000000000000000081526004016120ec90614314565b60405180910390fd5b600073ffffffffffffffffffffffffffffffffffffffff168173ffffffffffffffffffffffffffffffffffffffff161415612165576040517f08c379a000000000000000000000000000000000000000000000000000000000815260040161215c90614154565b60405180910390fd5b61216e816128aa565b50565b66470de4df82000081565b60007f80ac58cd000000000000000000000000000000000000000000000000000000007bffffffffffffffffffffffffffffffffffffffffffffffffffffffff1916827bffffffffffffffffffffffffffffffffffffffffffffffffffffffff1916148061224757507f5b5e139f000000000000000000000000000000000000000000000000000000007bffffffffffffffffffffffffffffffffffffffffffffffffffffffff1916827bffffffffffffffffffffffffffffffffffffffffffffffffffffffff1916145b80612257575061225682612ce6565b5b9050919050565b60008073ffffffffffffffffffffffffffffffffffffffff166002600084815260200190815260200160002060009054906101000a900473ffffffffffffffffffffffffffffffffffffffff1673ffffffffffffffffffffffffffffffffffffffff1614159050919050565b600033905090565b816004600083815260200190815260200160002060006101000a81548173ffffffffffffffffffffffffffffffffffffffff021916908373ffffffffffffffffffffffffffffffffffffffff160217905550808273ffffffffffffffffffffffffffffffffffffffff1661234583611349565b73ffffffffffffffffffffffffffffffffffffffff167f8c5be1e5ebec7d5bd14f71427d1e84f3dd0314c0f7b2291e5b200ac8c7c3b92560405160405180910390a45050565b60006123968261225e565b6123d5576040517f08c379a00000000000000000000000000000000000000000000000000000000081526004016123cc90614234565b60405180910390fd5b60006123e083611349565b90508073ffffffffffffffffffffffffffffffffffffffff168473ffffffffffffffffffffffffffffffffffffffff16148061244f57508373ffffffffffffffffffffffffffffffffffffffff1661243784610a0e565b73ffffffffffffffffffffffffffffffffffffffff16145b80612460575061245f8185611fdf565b5b91505092915050565b8273ffffffffffffffffffffffffffffffffffffffff1661248982611349565b73ffffffffffffffffffffffffffffffffffffffff16146124df576040517f08c379a00000000000000000000000000000000000000000000000000000000081526004016124d690614334565b60405180910390fd5b600073ffffffffffffffffffffffffffffffffffffffff168273ffffffffffffffffffffffffffffffffffffffff16141561254f576040517f08c379a0000000000000000000000000000000000000000000000000000000008152600401612546906141f4565b60405180910390fd5b61255a838383612d50565b6125656000826122d2565b6001600360008573ffffffffffffffffffffffffffffffffffffffff1673ffffffffffffffffffffffffffffffffffffffff16815260200190815260200160002060008282546125b5919061465e565b925050819055506001600360008473ffffffffffffffffffffffffffffffffffffffff1673ffffffffffffffffffffffffffffffffffffffff168152602001908152602001600020600082825461260c919061457d565b92505081905550816002600083815260200190815260200160002060006101000a81548173ffffffffffffffffffffffffffffffffffffffff021916908373ffffffffffffffffffffffffffffffffffffffff160217905550808273ffffffffffffffffffffffffffffffffffffffff168473ffffffffffffffffffffffffffffffffffffffff167fddf252ad1be2c89b69c2b068fc378daa952ba7f163c4a11628f55a4df523b3ef60405160405180910390a4505050565b6000826126d28584612e64565b1490509392505050565b600073ffffffffffffffffffffffffffffffffffffffff168273ffffffffffffffffffffffffffffffffffffffff16141561274c576040517f08c379a0000000000000000000000000000000000000000000000000000000008152600401612743906142d4565b60405180910390fd5b6127558161225e565b15612795576040517f08c379a000000000000000000000000000000000000000000000000000000000815260040161278c90614174565b60405180910390fd5b6127a160008383612d50565b6001600360008473ffffffffffffffffffffffffffffffffffffffff1673ffffffffffffffffffffffffffffffffffffffff16815260200190815260200160002060008282546127f1919061457d565b92505081905550816002600083815260200190815260200160002060006101000a81548173ffffffffffffffffffffffffffffffffffffffff021916908373ffffffffffffffffffffffffffffffffffffffff160217905550808273ffffffffffffffffffffffffffffffffffffffff16600073ffffffffffffffffffffffffffffffffffffffff167fddf252ad1be2c89b69c2b068fc378daa952ba7f163c4a11628f55a4df523b3ef60405160405180910390a45050565b6000600a60009054906101000a900473ffffffffffffffffffffffffffffffffffffffff16905081600a60006101000a81548173ffffffffffffffffffffffffffffffffffffffff021916908373ffffffffffffffffffffffffffffffffffffffff1602179055508173ffffffffffffffffffffffffffffffffffffffff168173ffffffffffffffffffffffffffffffffffffffff167f8be0079c531659141344cd1fd0a4f28419497f9722a3daafe3b4186f6b6457e060405160405180910390a35050565b606060008214156129b8576040518060400160405280600181526020017f30000000000000000000000000000000000000000000000000000000000000008152509050612b18565b600082905060005b600082146129ea5780806129d3906147b5565b915050600a826129e391906145d3565b91506129c0565b60008167ffffffffffffffff811115612a2c577f4e487b7100000000000000000000000000000000000000000000000000000000600052604160045260246000fd5b6040519080825280601f01601f191660200182016040528015612a5e5781602001600182028036833780820191505090505b5090505b60008514612b1157600182612a77919061465e565b9150600a85612a869190614836565b6030612a92919061457d565b60f81b818381518110612ace577f4e487b7100000000000000000000000000000000000000000000000000000000600052603260045260246000fd5b60200101907effffffffffffffffffffffffffffffffffffffffffffffffffffffffffffff1916908160001a905350600a85612b0a91906145d3565b9450612a62565b8093505050505b919050565b8173ffffffffffffffffffffffffffffffffffffffff168373ffffffffffffffffffffffffffffffffffffffff161415612b8c576040517f08c379a0000000000000000000000000000000000000000000000000000000008152600401612b8390614214565b60405180910390fd5b80600560008573ffffffffffffffffffffffffffffffffffffffff1673ffffffffffffffffffffffffffffffffffffffff16815260200190815260200160002060008473ffffffffffffffffffffffffffffffffffffffff1673ffffffffffffffffffffffffffffffffffffffff16815260200190815260200160002060006101000a81548160ff0219169083151502179055508173ffffffffffffffffffffffffffffffffffffffff168373ffffffffffffffffffffffffffffffffffffffff167f17307eab39ab6107e8899845ad3d59bd9653f200f220920489ca2b5937696c3183604051612c7d919061407c565b60405180910390a3505050565b612c95848484612469565b612ca184848484612f3d565b612ce0576040517f08c379a0000000000000000000000000000000000000000000000000000000008152600401612cd790614134565b60405180910390fd5b50505050565b60007f01ffc9a7000000000000000000000000000000000000000000000000000000007bffffffffffffffffffffffffffffffffffffffffffffffffffffffff1916827bffffffffffffffffffffffffffffffffffffffffffffffffffffffff1916149050919050565b612d5b8383836130d4565b600073ffffffffffffffffffffffffffffffffffffffff168373ffffffffffffffffffffffffffffffffffffffff161415612d9e57612d99816130d9565b612ddd565b8173ffffffffffffffffffffffffffffffffffffffff168373ffffffffffffffffffffffffffffffffffffffff1614612ddc57612ddb8382613122565b5b5b600073ffffffffffffffffffffffffffffffffffffffff168273ffffffffffffffffffffffffffffffffffffffff161415612e2057612e1b8161328f565b612e5f565b8273ffffffffffffffffffffffffffffffffffffffff168273ffffffffffffffffffffffffffffffffffffffff1614612e5e57612e5d82826133d2565b5b5b505050565b60008082905060005b8451811015612f32576000858281518110612eb1577f4e487b7100000000000000000000000000000000000000000000000000000000600052603260045260246000fd5b60200260200101519050808311612ef2578281604051602001612ed5929190613fc5565b604051602081830303815290604052805190602001209250612f1e565b8083604051602001612f05929190613fc5565b6040516020818303038152906040528051906020012092505b508080612f2a906147b5565b915050612e6d565b508091505092915050565b6000612f5e8473ffffffffffffffffffffffffffffffffffffffff16613451565b156130c7578373ffffffffffffffffffffffffffffffffffffffff1663150b7a02612f876122ca565b8786866040518563ffffffff1660e01b8152600401612fa99493929190614030565b602060405180830381600087803b158015612fc357600080fd5b505af1925050508015612ff457506040513d601f19601f82011682018060405250810190612ff191906138fb565b60015b613077573d8060008114613024576040519150601f19603f3d011682016040523d82523d6000602084013e613029565b606091505b5060008151141561306f576040517f08c379a000000000000000000000000000000000000000000000000000000000815260040161306690614134565b60405180910390fd5b805181602001fd5b63150b7a0260e01b7bffffffffffffffffffffffffffffffffffffffffffffffffffffffff1916817bffffffffffffffffffffffffffffffffffffffffffffffffffffffff1916149150506130cc565b600190505b949350505050565b505050565b6008805490506009600083815260200190815260200160002081905550600881908060018154018082558091505060019003906000526020600020016000909190919091505550565b6000600161312f84611501565b613139919061465e565b905060006007600084815260200190815260200160002054905081811461321e576000600660008673ffffffffffffffffffffffffffffffffffffffff1673ffffffffffffffffffffffffffffffffffffffff168152602001908152602001600020600084815260200190815260200160002054905080600660008773ffffffffffffffffffffffffffffffffffffffff1673ffffffffffffffffffffffffffffffffffffffff168152602001908152602001600020600084815260200190815260200160002081905550816007600083815260200190815260200160002081905550505b6007600084815260200190815260200160002060009055600660008573ffffffffffffffffffffffffffffffffffffffff1673ffffffffffffffffffffffffffffffffffffffff16815260200190815260200160002060008381526020019081526020016000206000905550505050565b600060016008805490506132a3919061465e565b90506000600960008481526020019081526020016000205490506000600883815481106132f9577f4e487b7100000000000000000000000000000000000000000000000000000000600052603260045260246000fd5b906000526020600020015490508060088381548110613341577f4e487b7100000000000000000000000000000000000000000000000000000000600052603260045260246000fd5b9060005260206000200181905550816009600083815260200190815260200160002081905550600960008581526020019081526020016000206000905560088054806133b6577f4e487b7100000000000000000000000000000000000000000000000000000000600052603160045260246000fd5b6001900381819060005260206000200160009055905550505050565b60006133dd83611501565b905081600660008573ffffffffffffffffffffffffffffffffffffffff1673ffffffffffffffffffffffffffffffffffffffff168152602001908152602001600020600083815260200190815260200160002081905550806007600084815260200190815260200160002081905550505050565b600080823b905060008111915050919050565b82805461347090614752565b90600052602060002090601f01602090048101928261349257600085556134d9565b82601f106134ab57803560ff19168380011785556134d9565b828001600101855582156134d9579182015b828111156134d85782358255916020019190600101906134bd565b5b5090506134e691906134ea565b5090565b5b808211156135035760008160009055506001016134eb565b5090565b600061351a613515846144f4565b6144cf565b90508281526020810184848401111561353257600080fd5b61353d848285614710565b509392505050565b60008135905061355481615026565b92915050565b60008083601f84011261356c57600080fd5b8235905067ffffffffffffffff81111561358557600080fd5b60208301915083602082028301111561359d57600080fd5b9250929050565b6000813590506135b38161503d565b92915050565b6000813590506135c881615054565b92915050565b6000813590506135dd8161506b565b92915050565b6000815190506135f28161506b565b92915050565b600082601f83011261360957600080fd5b8135613619848260208601613507565b91505092915050565b60008083601f84011261363457600080fd5b8235905067ffffffffffffffff81111561364d57600080fd5b60208301915083600182028301111561366557600080fd5b9250929050565b60008135905061367b81615082565b92915050565b60006020828403121561369357600080fd5b60006136a184828501613545565b91505092915050565b600080604083850312156136bd57600080fd5b60006136cb85828601613545565b92505060206136dc85828601613545565b9150509250929050565b6000806000606084860312156136fb57600080fd5b600061370986828701613545565b935050602061371a86828701613545565b925050604061372b8682870161366c565b9150509250925092565b6000806000806080858703121561374b57600080fd5b600061375987828801613545565b945050602061376a87828801613545565b935050604061377b8782880161366c565b925050606085013567ffffffffffffffff81111561379857600080fd5b6137a4878288016135f8565b91505092959194509250565b600080604083850312156137c357600080fd5b60006137d185828601613545565b92505060206137e2858286016135a4565b9150509250929050565b600080604083850312156137ff57600080fd5b600061380d85828601613545565b925050602061381e8582860161366c565b9150509250929050565b60006020828403121561383a57600080fd5b6000613848848285016135a4565b91505092915050565b60008060006040848603121561386657600080fd5b6000613874868287016135a4565b935050602084013567ffffffffffffffff81111561389157600080fd5b61389d86828701613622565b92509250509250925092565b6000602082840312156138bb57600080fd5b60006138c9848285016135b9565b91505092915050565b6000602082840312156138e457600080fd5b60006138f2848285016135ce565b91505092915050565b60006020828403121561390d57600080fd5b600061391b848285016135e3565b91505092915050565b60006020828403121561393657600080fd5b60006139448482850161366c565b91505092915050565b6000806000806060858703121561396357600080fd5b60006139718782880161366c565b945050602085013567ffffffffffffffff81111561398e57600080fd5b61399a8782880161355a565b935093505060406139ad8782880161366c565b91505092959194509250565b6139c281614692565b82525050565b6139d96139d482614692565b6147fe565b82525050565b6139e8816146a4565b82525050565b6139f7816146b0565b82525050565b613a0e613a09826146b0565b614810565b82525050565b6000613a1f8261453a565b613a298185614550565b9350613a3981856020860161471f565b613a4281614923565b840191505092915050565b6000613a5882614545565b613a628185614561565b9350613a7281856020860161471f565b613a7b81614923565b840191505092915050565b6000613a9182614545565b613a9b8185614572565b9350613aab81856020860161471f565b80840191505092915050565b60008154613ac481614752565b613ace8186614572565b94506001821660008114613ae95760018114613afa57613b2d565b60ff19831686528186019350613b2d565b613b0385614525565b60005b83811015613b2557815481890152600182019150602081019050613b06565b838801955050505b50505092915050565b6000613b43601f83614561565b9150613b4e82614941565b602082019050919050565b6000613b66601f83614561565b9150613b718261496a565b602082019050919050565b6000613b89602b83614561565b9150613b9482614993565b604082019050919050565b6000613bac603283614561565b9150613bb7826149e2565b604082019050919050565b6000613bcf602683614561565b9150613bda82614a31565b604082019050919050565b6000613bf2601c83614561565b9150613bfd82614a80565b602082019050919050565b6000613c15601683614561565b9150613c2082614aa9565b602082019050919050565b6000613c38601883614561565b9150613c4382614ad2565b602082019050919050565b6000613c5b601883614561565b9150613c6682614afb565b602082019050919050565b6000613c7e602483614561565b9150613c8982614b24565b604082019050919050565b6000613ca1601983614561565b9150613cac82614b73565b602082019050919050565b6000613cc4602c83614561565b9150613ccf82614b9c565b604082019050919050565b6000613ce7601083614561565b9150613cf282614beb565b602082019050919050565b6000613d0a603883614561565b9150613d1582614c14565b604082019050919050565b6000613d2d602a83614561565b9150613d3882614c63565b604082019050919050565b6000613d50602983614561565b9150613d5b82614cb2565b604082019050919050565b6000613d73602083614561565b9150613d7e82614d01565b602082019050919050565b6000613d96602c83614561565b9150613da182614d2a565b604082019050919050565b6000613db9602083614561565b9150613dc482614d79565b602082019050919050565b6000613ddc602983614561565b9150613de782614da2565b604082019050919050565b6000613dff601a83614561565b9150613e0a82614df1565b602082019050919050565b6000613e22601583614561565b9150613e2d82614e1a565b602082019050919050565b6000613e45602183614561565b9150613e5082614e43565b604082019050919050565b6000613e68603183614561565b9150613e7382614e92565b604082019050919050565b6000613e8b602c83614561565b9150613e9682614ee1565b604082019050919050565b6000613eae600f83614561565b9150613eb982614f30565b602082019050919050565b6000613ed1601983614561565b9150613edc82614f59565b602082019050919050565b6000613ef4601283614561565b9150613eff82614f82565b602082019050919050565b6000613f17601583614561565b9150613f2282614fab565b602082019050919050565b6000613f3a600e83614561565b9150613f4582614fd4565b602082019050919050565b6000613f5d601683614561565b9150613f6882614ffd565b602082019050919050565b613f7c81614706565b82525050565b613f93613f8e82614706565b61482c565b82525050565b6000613fa582856139c8565b601482019150613fb58284613f82565b6020820191508190509392505050565b6000613fd182856139fd565b602082019150613fe182846139fd565b6020820191508190509392505050565b6000613ffd8285613ab7565b91506140098284613a86565b91508190509392505050565b600060208201905061402a60008301846139b9565b92915050565b600060808201905061404560008301876139b9565b61405260208301866139b9565b61405f6040830185613f73565b81810360608301526140718184613a14565b905095945050505050565b600060208201905061409160008301846139df565b92915050565b60006020820190506140ac60008301846139ee565b92915050565b600060208201905081810360008301526140cc8184613a4d565b905092915050565b600060208201905081810360008301526140ed81613b36565b9050919050565b6000602082019050818103600083015261410d81613b59565b9050919050565b6000602082019050818103600083015261412d81613b7c565b9050919050565b6000602082019050818103600083015261414d81613b9f565b9050919050565b6000602082019050818103600083015261416d81613bc2565b9050919050565b6000602082019050818103600083015261418d81613be5565b9050919050565b600060208201905081810360008301526141ad81613c08565b9050919050565b600060208201905081810360008301526141cd81613c2b565b9050919050565b600060208201905081810360008301526141ed81613c4e565b9050919050565b6000602082019050818103600083015261420d81613c71565b9050919050565b6000602082019050818103600083015261422d81613c94565b9050919050565b6000602082019050818103600083015261424d81613cb7565b9050919050565b6000602082019050818103600083015261426d81613cda565b9050919050565b6000602082019050818103600083015261428d81613cfd565b9050919050565b600060208201905081810360008301526142ad81613d20565b9050919050565b600060208201905081810360008301526142cd81613d43565b9050919050565b600060208201905081810360008301526142ed81613d66565b9050919050565b6000602082019050818103600083015261430d81613d89565b9050919050565b6000602082019050818103600083015261432d81613dac565b9050919050565b6000602082019050818103600083015261434d81613dcf565b9050919050565b6000602082019050818103600083015261436d81613df2565b9050919050565b6000602082019050818103600083015261438d81613e15565b9050919050565b600060208201905081810360008301526143ad81613e38565b9050919050565b600060208201905081810360008301526143cd81613e5b565b9050919050565b600060208201905081810360008301526143ed81613e7e565b9050919050565b6000602082019050818103600083015261440d81613ea1565b9050919050565b6000602082019050818103600083015261442d81613ec4565b9050919050565b6000602082019050818103600083015261444d81613ee7565b9050919050565b6000602082019050818103600083015261446d81613f0a565b9050919050565b6000602082019050818103600083015261448d81613f2d565b9050919050565b600060208201905081810360008301526144ad81613f50565b9050919050565b60006020820190506144c96000830184613f73565b92915050565b60006144d96144ea565b90506144e58282614784565b919050565b6000604051905090565b600067ffffffffffffffff82111561450f5761450e6148f4565b5b61451882614923565b9050602081019050919050565b60008190508160005260206000209050919050565b600081519050919050565b600081519050919050565b600082825260208201905092915050565b600082825260208201905092915050565b600081905092915050565b600061458882614706565b915061459383614706565b9250827fffffffffffffffffffffffffffffffffffffffffffffffffffffffffffffffff038211156145c8576145c7614867565b5b828201905092915050565b60006145de82614706565b91506145e983614706565b9250826145f9576145f8614896565b5b828204905092915050565b600061460f82614706565b915061461a83614706565b9250817fffffffffffffffffffffffffffffffffffffffffffffffffffffffffffffffff048311821515161561465357614652614867565b5b828202905092915050565b600061466982614706565b915061467483614706565b92508282101561468757614686614867565b5b828203905092915050565b600061469d826146e6565b9050919050565b60008115159050919050565b6000819050919050565b60007fffffffff0000000000000000000000000000000000000000000000000000000082169050919050565b600073ffffffffffffffffffffffffffffffffffffffff82169050919050565b6000819050919050565b82818337600083830152505050565b60005b8381101561473d578082015181840152602081019050614722565b8381111561474c576000848401525b50505050565b6000600282049050600182168061476a57607f821691505b6020821081141561477e5761477d6148c5565b5b50919050565b61478d82614923565b810181811067ffffffffffffffff821117156147ac576147ab6148f4565b5b80604052505050565b60006147c082614706565b91507fffffffffffffffffffffffffffffffffffffffffffffffffffffffffffffffff8214156147f3576147f2614867565b5b600182019050919050565b60006148098261481a565b9050919050565b6000819050919050565b600061482582614934565b9050919050565b6000819050919050565b600061484182614706565b915061484c83614706565b92508261485c5761485b614896565b5b828206905092915050565b7f4e487b7100000000000000000000000000000000000000000000000000000000600052601160045260246000fd5b7f4e487b7100000000000000000000000000000000000000000000000000000000600052601260045260246000fd5b7f4e487b7100000000000000000000000000000000000000000000000000000000600052602260045260246000fd5b7f4e487b7100000000000000000000000000000000000000000000000000000000600052604160045260246000fd5b6000601f19601f8301169050919050565b60008160601b9050919050565b7f6d617850657257616c6c65742073686f756c6420626520706f73697469766500600082015250565b7f55524920717565727920666f72206e6f6e6578697374656e7420746f6b656e00600082015250565b7f455243373231456e756d657261626c653a206f776e657220696e646578206f7560008201527f74206f6620626f756e6473000000000000000000000000000000000000000000602082015250565b7f4552433732313a207472616e7366657220746f206e6f6e20455243373231526560008201527f63656976657220696d706c656d656e7465720000000000000000000000000000602082015250565b7f4f776e61626c653a206e6577206f776e657220697320746865207a65726f206160008201527f6464726573730000000000000000000000000000000000000000000000000000602082015250565b7f4552433732313a20746f6b656e20616c7265616479206d696e74656400000000600082015250565b7f50524553414c45204f4e4c59205249474854204e4f5700000000000000000000600082015250565b7f494e434f5252454354205041594d454e5420414d4f554e540000000000000000600082015250565b7f4e4f5420454e4f554748204c45465420494e2053544f434b0000000000000000600082015250565b7f4552433732313a207472616e7366657220746f20746865207a65726f2061646460008201527f7265737300000000000000000000000000000000000000000000000000000000602082015250565b7f4552433732313a20617070726f766520746f2063616c6c657200000000000000600082015250565b7f4552433732313a206f70657261746f7220717565727920666f72206e6f6e657860008201527f697374656e7420746f6b656e0000000000000000000000000000000000000000602082015250565b7f4e4f54204f4e20414c4c4f574c49535400000000000000000000000000000000600082015250565b7f4552433732313a20617070726f76652063616c6c6572206973206e6f74206f7760008201527f6e6572206e6f7220617070726f76656420666f7220616c6c0000000000000000602082015250565b7f4552433732313a2062616c616e636520717565727920666f7220746865207a6560008201527f726f206164647265737300000000000000000000000000000000000000000000602082015250565b7f4552433732313a206f776e657220717565727920666f72206e6f6e657869737460008201527f656e7420746f6b656e0000000000000000000000000000000000000000000000602082015250565b7f4552433732313a206d696e7420746f20746865207a65726f2061646472657373600082015250565b7f4552433732313a20617070726f76656420717565727920666f72206e6f6e657860008201527f697374656e7420746f6b656e0000000000000000000000000000000000000000602082015250565b7f4f776e61626c653a2063616c6c6572206973206e6f7420746865206f776e6572600082015250565b7f4552433732313a207472616e73666572206f6620746f6b656e2074686174206960008201527f73206e6f74206f776e0000000000000000000000000000000000000000000000602082015250565b7f4e4f54204f4e2046524545204d494e5420414c4c4f574c495354000000000000600082015250565b7f53414c4520414354495645205249474854204e4f570000000000000000000000600082015250565b7f4552433732313a20617070726f76616c20746f2063757272656e74206f776e6560008201527f7200000000000000000000000000000000000000000000000000000000000000602082015250565b7f4552433732313a207472616e736665722063616c6c6572206973206e6f74206f60008201527f776e6572206e6f7220617070726f766564000000000000000000000000000000602082015250565b7f455243373231456e756d657261626c653a20676c6f62616c20696e646578206f60008201527f7574206f6620626f756e64730000000000000000000000000000000000000000602082015250565b7f53414c45204e4f54204143544956450000000000000000000000000000000000600082015250565b7f4d494e54494e47204d4f5245205448414e20414c4c4f57454400000000000000600082015250565b7f50524553414c45204e4f54204143544956450000000000000000000000000000600082015250565b7f46726565206d696e74206e6f7420616c6c6f7765640000000000000000000000600082015250565b7f5f726f6f7420697320656d707479000000000000000000000000000000000000600082015250565b7f5f746f6b656e4261736555524920697320656d70747900000000000000000000600082015250565b61502f81614692565b811461503a57600080fd5b50565b615046816146a4565b811461505157600080fd5b50565b61505d816146b0565b811461506857600080fd5b50565b615074816146ba565b811461507f57600080fd5b50565b61508b81614706565b811461509657600080fd5b5056fea264697066735822122040fa1a7125599710f9d0e94241bd58fc7c0f9d256886681be24ca43850cf629a64736f6c63430008040033",
  "linkReferences": {},
  "deployedLinkReferences": {}
}