{
  "_format": "hh-sol-artifact-1",
  "contractName": "PMV",
  "sourceName": "contracts/PMV.sol",
  "abi": [
    {
      "inputs": [
        {
          "internalType": "bytes32",
          "name": "merkleroot",
          "type": "bytes32"
        },
        {
          "internalType": "string",
          "name": "uri",
          "type": "string"
        },
        {
          "internalType": "bytes32",
          "name": "_rootMintFree",
          "type": "bytes32"
        }
      ],
      "stateMutability": "nonpayable",
      "type": "constructor"
    },
    {
      "anonymous": false,
      "inputs": [
        {
          "indexed": true,
          "internalType": "address",
          "name": "owner",
          "type": "address"
        },
        {
          "indexed": true,
          "internalType": "address",
          "name": "approved",
          "type": "address"
        },
        {
          "indexed": true,
          "internalType": "uint256",
          "name": "tokenId",
          "type": "uint256"
        }
      ],
      "name": "Approval",
      "type": "event"
    },
    {
      "anonymous": false,
      "inputs": [
        {
          "indexed": true,
          "internalType": "address",
          "name": "owner",
          "type": "address"
        },
        {
          "indexed": true,
          "internalType": "address",
          "name": "operator",
          "type": "address"
        },
        {
          "indexed": false,
          "internalType": "bool",
          "name": "approved",
          "type": "bool"
        }
      ],
      "name": "ApprovalForAll",
      "type": "event"
    },
    {
      "anonymous": false,
      "inputs": [
        {
          "indexed": true,
          "internalType": "address",
          "name": "previousOwner",
          "type": "address"
        },
        {
          "indexed": true,
          "internalType": "address",
          "name": "newOwner",
          "type": "address"
        }
      ],
      "name": "OwnershipTransferred",
      "type": "event"
    },
    {
      "anonymous": false,
      "inputs": [
        {
          "indexed": true,
          "internalType": "address",
          "name": "from",
          "type": "address"
        },
        {
          "indexed": true,
          "internalType": "address",
          "name": "to",
          "type": "address"
        },
        {
          "indexed": true,
          "internalType": "uint256",
          "name": "tokenId",
          "type": "uint256"
        }
      ],
      "name": "Transfer",
      "type": "event"
    },
    {
      "inputs": [
        {
          "internalType": "uint256",
          "name": "tokenId",
          "type": "uint256"
        }
      ],
      "name": "_tokenURI",
      "outputs": [
        {
          "internalType": "string",
          "name": "",
          "type": "string"
        }
      ],
      "stateMutability": "view",
      "type": "function"
    },
    {
      "inputs": [
        {
          "internalType": "address",
          "name": "to",
          "type": "address"
        },
        {
          "internalType": "uint256",
          "name": "tokenId",
          "type": "uint256"
        }
      ],
      "name": "approve",
      "outputs": [],
      "stateMutability": "nonpayable",
      "type": "function"
    },
    {
      "inputs": [
        {
          "internalType": "address",
          "name": "owner",
          "type": "address"
        }
      ],
      "name": "balanceOf",
      "outputs": [
        {
          "internalType": "uint256",
          "name": "",
          "type": "uint256"
        }
      ],
      "stateMutability": "view",
      "type": "function"
    },
    {
      "inputs": [
        {
          "internalType": "uint256",
          "name": "tokenId",
          "type": "uint256"
        }
      ],
      "name": "getApproved",
      "outputs": [
        {
          "internalType": "address",
          "name": "",
          "type": "address"
        }
      ],
      "stateMutability": "view",
      "type": "function"
    },
    {
      "inputs": [
        {
          "internalType": "address",
          "name": "owner",
          "type": "address"
        },
        {
          "internalType": "address",
          "name": "operator",
          "type": "address"
        }
      ],
      "name": "isApprovedForAll",
      "outputs": [
        {
          "internalType": "bool",
          "name": "",
          "type": "bool"
        }
      ],
      "stateMutability": "view",
      "type": "function"
    },
    {
      "inputs": [],
      "name": "maxPerWallet",
      "outputs": [
        {
          "internalType": "uint256",
          "name": "",
          "type": "uint256"
        }
      ],
      "stateMutability": "view",
      "type": "function"
    },
    {
      "inputs": [],
      "name": "maxSupply",
      "outputs": [
        {
          "internalType": "uint256",
          "name": "",
          "type": "uint256"
        }
      ],
      "stateMutability": "view",
      "type": "function"
    },
    {
      "inputs": [
        {
          "internalType": "uint256",
          "name": "tokenQuantity",
          "type": "uint256"
        }
      ],
      "name": "mint",
      "outputs": [],
      "stateMutability": "payable",
      "type": "function"
    },
    {
      "inputs": [
        {
          "internalType": "uint256",
          "name": "allowance",
          "type": "uint256"
        },
        {
          "internalType": "bytes32[]",
          "name": "proof",
          "type": "bytes32[]"
        },
        {
          "internalType": "uint256",
          "name": "tokenQuantity",
          "type": "uint256"
        }
      ],
      "name": "mintFree",
      "outputs": [],
      "stateMutability": "nonpayable",
      "type": "function"
    },
    {
      "inputs": [
        {
          "internalType": "uint256",
          "name": "allowance",
          "type": "uint256"
        },
        {
          "internalType": "bytes32[]",
          "name": "proof",
          "type": "bytes32[]"
        },
        {
          "internalType": "uint256",
          "name": "tokenQuantity",
          "type": "uint256"
        }
      ],
      "name": "mintPresale",
      "outputs": [],
      "stateMutability": "payable",
      "type": "function"
    },
    {
      "inputs": [],
      "name": "name",
      "outputs": [
        {
          "internalType": "string",
          "name": "",
          "type": "string"
        }
      ],
      "stateMutability": "view",
      "type": "function"
    },
    {
      "inputs": [],
      "name": "owner",
      "outputs": [
        {
          "internalType": "address",
          "name": "",
          "type": "address"
        }
      ],
      "stateMutability": "view",
      "type": "function"
    },
    {
      "inputs": [
        {
          "internalType": "uint256",
          "name": "tokenId",
          "type": "uint256"
        }
      ],
      "name": "ownerOf",
      "outputs": [
        {
          "internalType": "address",
          "name": "",
          "type": "address"
        }
      ],
      "stateMutability": "view",
      "type": "function"
    },
    {
      "inputs": [],
      "name": "presaleActive",
      "outputs": [
        {
          "internalType": "bool",
          "name": "",
          "type": "bool"
        }
      ],
      "stateMutability": "view",
      "type": "function"
    },
    {
      "inputs": [],
      "name": "renounceOwnership",
      "outputs": [],
      "stateMutability": "nonpayable",
      "type": "function"
    },
    {
      "inputs": [],
      "name": "root",
      "outputs": [
        {
          "internalType": "bytes32",
          "name": "",
          "type": "bytes32"
        }
      ],
      "stateMutability": "view",
      "type": "function"
    },
    {
      "inputs": [],
      "name": "rootMintFree",
      "outputs": [
        {
          "internalType": "bytes32",
          "name": "",
          "type": "bytes32"
        }
      ],
      "stateMutability": "view",
      "type": "function"
    },
    {
      "inputs": [
        {
          "internalType": "address",
          "name": "from",
          "type": "address"
        },
        {
          "internalType": "address",
          "name": "to",
          "type": "address"
        },
        {
          "internalType": "uint256",
          "name": "tokenId",
          "type": "uint256"
        }
      ],
      "name": "safeTransferFrom",
      "outputs": [],
      "stateMutability": "nonpayable",
      "type": "function"
    },
    {
      "inputs": [
        {
          "internalType": "address",
          "name": "from",
          "type": "address"
        },
        {
          "internalType": "address",
          "name": "to",
          "type": "address"
        },
        {
          "internalType": "uint256",
          "name": "tokenId",
          "type": "uint256"
        },
        {
          "internalType": "bytes",
          "name": "_data",
          "type": "bytes"
        }
      ],
      "name": "safeTransferFrom",
      "outputs": [],
      "stateMutability": "nonpayable",
      "type": "function"
    },
    {
      "inputs": [],
      "name": "saleActive",
      "outputs": [
        {
          "internalType": "bool",
          "name": "",
          "type": "bool"
        }
      ],
      "stateMutability": "view",
      "type": "function"
    },
    {
      "inputs": [],
      "name": "salePrice",
      "outputs": [
        {
          "internalType": "uint256",
          "name": "",
          "type": "uint256"
        }
      ],
      "stateMutability": "view",
      "type": "function"
    },
    {
      "inputs": [
        {
          "internalType": "address",
          "name": "operator",
          "type": "address"
        },
        {
          "internalType": "bool",
          "name": "approved",
          "type": "bool"
        }
      ],
      "name": "setApprovalForAll",
      "outputs": [],
      "stateMutability": "nonpayable",
      "type": "function"
    },
    {
      "inputs": [
        {
          "internalType": "bool",
          "name": "_presaleStatus",
          "type": "bool"
        }
      ],
      "name": "setPresale",
      "outputs": [],
      "stateMutability": "nonpayable",
      "type": "function"
    },
    {
      "inputs": [
        {
          "internalType": "bytes32",
          "name": "_root",
          "type": "bytes32"
        }
      ],
      "name": "setRoot",
      "outputs": [],
      "stateMutability": "nonpayable",
      "type": "function"
    },
    {
      "inputs": [
        {
          "internalType": "bytes32",
          "name": "_root",
          "type": "bytes32"
        }
      ],
      "name": "setRootMintFree",
      "outputs": [],
      "stateMutability": "nonpayable",
      "type": "function"
    },
    {
      "inputs": [
        {
          "internalType": "bool",
          "name": "_saleStatus",
          "type": "bool"
        }
      ],
      "name": "setSale",
      "outputs": [],
      "stateMutability": "nonpayable",
      "type": "function"
    },
    {
      "inputs": [
        {
          "internalType": "bool",
          "name": "_revealed",
          "type": "bool"
        },
        {
          "internalType": "string",
          "name": "_tokenBaseURI",
          "type": "string"
        }
      ],
      "name": "setURIStatus",
      "outputs": [],
      "stateMutability": "nonpayable",
      "type": "function"
    },
    {
      "inputs": [
        {
          "internalType": "bytes4",
          "name": "interfaceId",
          "type": "bytes4"
        }
      ],
      "name": "supportsInterface",
      "outputs": [
        {
          "internalType": "bool",
          "name": "",
          "type": "bool"
        }
      ],
      "stateMutability": "view",
      "type": "function"
    },
    {
      "inputs": [],
      "name": "symbol",
      "outputs": [
        {
          "internalType": "string",
          "name": "",
          "type": "string"
        }
      ],
      "stateMutability": "view",
      "type": "function"
    },
    {
      "inputs": [
        {
          "internalType": "uint256",
          "name": "index",
          "type": "uint256"
        }
      ],
      "name": "tokenByIndex",
      "outputs": [
        {
          "internalType": "uint256",
          "name": "",
          "type": "uint256"
        }
      ],
      "stateMutability": "view",
      "type": "function"
    },
    {
      "inputs": [
        {
          "internalType": "address",
          "name": "owner",
          "type": "address"
        },
        {
          "internalType": "uint256",
          "name": "index",
          "type": "uint256"
        }
      ],
      "name": "tokenOfOwnerByIndex",
      "outputs": [
        {
          "internalType": "uint256",
          "name": "",
          "type": "uint256"
        }
      ],
      "stateMutability": "view",
      "type": "function"
    },
    {
      "inputs": [
        {
          "internalType": "uint256",
          "name": "tokenId",
          "type": "uint256"
        }
      ],
      "name": "tokenURI",
      "outputs": [
        {
          "internalType": "string",
          "name": "",
          "type": "string"
        }
      ],
      "stateMutability": "view",
      "type": "function"
    },
    {
      "inputs": [],
      "name": "totalSupply",
      "outputs": [
        {
          "internalType": "uint256",
          "name": "",
          "type": "uint256"
        }
      ],
      "stateMutability": "view",
      "type": "function"
    },
    {
      "inputs": [
        {
          "internalType": "address",
          "name": "from",
          "type": "address"
        },
        {
          "internalType": "address",
          "name": "to",
          "type": "address"
        },
        {
          "internalType": "uint256",
          "name": "tokenId",
          "type": "uint256"
        }
      ],
      "name": "transferFrom",
      "outputs": [],
      "stateMutability": "nonpayable",
      "type": "function"
    },
    {
      "inputs": [
        {
          "internalType": "address",
          "name": "newOwner",
          "type": "address"
        }
      ],
      "name": "transferOwnership",
      "outputs": [],
      "stateMutability": "nonpayable",
      "type": "function"
    },
    {
      "inputs": [],
      "name": "withdraw",
      "outputs": [],
      "stateMutability": "nonpayable",
      "type": "function"
    }
  ],
  "bytecode": "0x60806040526000600a60146101000a81548160ff0219169083151502179055506000600a60156101000a81548160ff0219169083151502179055506000600d60006101000a81548160ff0219169083151502179055503480156200006257600080fd5b506040516200534e3803806200534e83398181016040528101906200008891906200037f565b6040518060400160405280600381526020017f504d5600000000000000000000000000000000000000000000000000000000008152506040518060400160405280600681526020017f504d56544b4e000000000000000000000000000000000000000000000000000081525081600090805190602001906200010c92919062000246565b5080600190805190602001906200012592919062000246565b505050620001486200013c6200017860201b60201c565b6200018060201b60201c565b82600e8190555081600c90805190602001906200016792919062000246565b5080600f8190555050505062000582565b600033905090565b6000600a60009054906101000a900473ffffffffffffffffffffffffffffffffffffffff16905081600a60006101000a81548173ffffffffffffffffffffffffffffffffffffffff021916908373ffffffffffffffffffffffffffffffffffffffff1602179055508173ffffffffffffffffffffffffffffffffffffffff168173ffffffffffffffffffffffffffffffffffffffff167f8be0079c531659141344cd1fd0a4f28419497f9722a3daafe3b4186f6b6457e060405160405180910390a35050565b82805462000254906200048d565b90600052602060002090601f016020900481019282620002785760008555620002c4565b82601f106200029357805160ff1916838001178555620002c4565b82800160010185558215620002c4579182015b82811115620002c3578251825591602001919060010190620002a6565b5b509050620002d39190620002d7565b5090565b5b80821115620002f2576000816000905550600101620002d8565b5090565b60006200030d620003078462000417565b620003ee565b9050828152602081018484840111156200032657600080fd5b6200033384828562000457565b509392505050565b6000815190506200034c8162000568565b92915050565b600082601f8301126200036457600080fd5b815162000376848260208601620002f6565b91505092915050565b6000806000606084860312156200039557600080fd5b6000620003a5868287016200033b565b935050602084015167ffffffffffffffff811115620003c357600080fd5b620003d18682870162000352565b9250506040620003e4868287016200033b565b9150509250925092565b6000620003fa6200040d565b9050620004088282620004c3565b919050565b6000604051905090565b600067ffffffffffffffff82111562000435576200043462000528565b5b620004408262000557565b9050602081019050919050565b6000819050919050565b60005b83811015620004775780820151818401526020810190506200045a565b8381111562000487576000848401525b50505050565b60006002820490506001821680620004a657607f821691505b60208210811415620004bd57620004bc620004f9565b5b50919050565b620004ce8262000557565b810181811067ffffffffffffffff82111715620004f057620004ef62000528565b5b80604052505050565b7f4e487b7100000000000000000000000000000000000000000000000000000000600052602260045260246000fd5b7f4e487b7100000000000000000000000000000000000000000000000000000000600052604160045260246000fd5b6000601f19601f8301169050919050565b62000573816200044d565b81146200057f57600080fd5b50565b614dbc80620005926000396000f3fe60806040526004361061020f5760003560e01c80636f8d930511610118578063b88d4fde116100a0578063dab5f3401161006f578063dab5f3401461077f578063e985e9c5146107a8578063ebf0c717146107e5578063f2fde38b14610810578063f51f96dd146108395761020f565b8063b88d4fde146106c5578063c54e73e3146106ee578063c87b56dd14610717578063d5abeb01146107545761020f565b80638da5cb5b116100e75780638da5cb5b1461060157806392c46da31461062c57806395d89b4114610655578063a0712d6814610680578063a22cb4651461069c5761020f565b80636f8d93051461054757806370a0823114610570578063715018a6146105ad5780638d17e712146105c45761020f565b80633c14a2de1161019b5780634f6ccce71161016a5780634f6ccce71461044c57806353135ca0146104895780635fc9c0e6146104b45780636352211e146104df57806368428a1b1461051c5761020f565b80633c14a2de146103c55780633ccfd60b146103e157806342842e0e146103f8578063453c2310146104215761020f565b806318160ddd116101e257806318160ddd146102e25780631d2e5a3a1461030d5780631fbb4e271461033657806323b872dd1461035f5780632f745c59146103885761020f565b806301ffc9a71461021457806306fdde0314610251578063081812fc1461027c578063095ea7b3146102b9575b600080fd5b34801561022057600080fd5b5061023b60048036038101906102369190613703565b610864565b6040516102489190613e44565b60405180910390f35b34801561025d57600080fd5b506102666108de565b6040516102739190613e7a565b60405180910390f35b34801561028857600080fd5b506102a3600480360381019061029e9190613755565b610970565b6040516102b09190613ddd565b60405180910390f35b3480156102c557600080fd5b506102e060048036038101906102db919061361d565b6109f5565b005b3480156102ee57600080fd5b506102f7610b0d565b604051610304919061421c565b60405180910390f35b34801561031957600080fd5b50610334600480360381019061032f9190613659565b610b1a565b005b34801561034257600080fd5b5061035d600480360381019061035891906136da565b610bb3565b005b34801561036b57600080fd5b5061038660048036038101906103819190613517565b610c80565b005b34801561039457600080fd5b506103af60048036038101906103aa919061361d565b610ce0565b6040516103bc919061421c565b60405180910390f35b6103df60048036038101906103da919061377e565b610d85565b005b3480156103ed57600080fd5b506103f661105c565b005b34801561040457600080fd5b5061041f600480360381019061041a9190613517565b611121565b005b34801561042d57600080fd5b50610436611141565b604051610443919061421c565b60405180910390f35b34801561045857600080fd5b50610473600480360381019061046e9190613755565b611146565b604051610480919061421c565b60405180910390f35b34801561049557600080fd5b5061049e6111dd565b6040516104ab9190613e44565b60405180910390f35b3480156104c057600080fd5b506104c96111f0565b6040516104d69190613e5f565b60405180910390f35b3480156104eb57600080fd5b5061050660048036038101906105019190613755565b6111f6565b6040516105139190613ddd565b60405180910390f35b34801561052857600080fd5b506105316112a8565b60405161053e9190613e44565b60405180910390f35b34801561055357600080fd5b5061056e60048036038101906105699190613682565b6112bb565b005b34801561057c57600080fd5b50610597600480360381019061059291906134b2565b6113ae565b6040516105a4919061421c565b60405180910390f35b3480156105b957600080fd5b506105c2611466565b005b3480156105d057600080fd5b506105eb60048036038101906105e69190613755565b6114ee565b6040516105f89190613e7a565b60405180910390f35b34801561060d57600080fd5b506106166115d1565b6040516106239190613ddd565b60405180910390f35b34801561063857600080fd5b50610653600480360381019061064e919061377e565b6115fb565b005b34801561066157600080fd5b5061066a6118d4565b6040516106779190613e7a565b60405180910390f35b61069a60048036038101906106959190613755565b611966565b005b3480156106a857600080fd5b506106c360048036038101906106be91906135e1565b611bd3565b005b3480156106d157600080fd5b506106ec60048036038101906106e79190613566565b611be9565b005b3480156106fa57600080fd5b5061071560048036038101906107109190613659565b611c4b565b005b34801561072357600080fd5b5061073e60048036038101906107399190613755565b611ce4565b60405161074b9190613e7a565b60405180910390f35b34801561076057600080fd5b50610769611d3e565b604051610776919061421c565b60405180910390f35b34801561078b57600080fd5b506107a660048036038101906107a191906136da565b611d43565b005b3480156107b457600080fd5b506107cf60048036038101906107ca91906134db565b611e10565b6040516107dc9190613e44565b60405180910390f35b3480156107f157600080fd5b506107fa611ea4565b6040516108079190613e5f565b60405180910390f35b34801561081c57600080fd5b50610837600480360381019061083291906134b2565b611eaa565b005b34801561084557600080fd5b5061084e611fa2565b60405161085b919061421c565b60405180910390f35b60007f780e9d63000000000000000000000000000000000000000000000000000000007bffffffffffffffffffffffffffffffffffffffffffffffffffffffff1916827bffffffffffffffffffffffffffffffffffffffffffffffffffffffff191614806108d757506108d682611fad565b5b9050919050565b6060600080546108ed906144ba565b80601f0160208091040260200160405190810160405280929190818152602001828054610919906144ba565b80156109665780601f1061093b57610100808354040283529160200191610966565b820191906000526020600020905b81548152906001019060200180831161094957829003601f168201915b5050505050905090565b600061097b8261208f565b6109ba576040517f08c379a00000000000000000000000000000000000000000000000000000000081526004016109b19061409c565b60405180910390fd5b6004600083815260200190815260200160002060009054906101000a900473ffffffffffffffffffffffffffffffffffffffff169050919050565b6000610a00826111f6565b90508073ffffffffffffffffffffffffffffffffffffffff168373ffffffffffffffffffffffffffffffffffffffff161415610a71576040517f08c379a0000000000000000000000000000000000000000000000000000000008152600401610a689061411c565b60405180910390fd5b8073ffffffffffffffffffffffffffffffffffffffff16610a906120fb565b73ffffffffffffffffffffffffffffffffffffffff161480610abf5750610abe81610ab96120fb565b611e10565b5b610afe576040517f08c379a0000000000000000000000000000000000000000000000000000000008152600401610af59061401c565b60405180910390fd5b610b088383612103565b505050565b6000600880549050905090565b610b226120fb565b73ffffffffffffffffffffffffffffffffffffffff16610b406115d1565b73ffffffffffffffffffffffffffffffffffffffff1614610b96576040517f08c379a0000000000000000000000000000000000000000000000000000000008152600401610b8d906140bc565b60405180910390fd5b80600a60156101000a81548160ff02191690831515021790555050565b610bbb6120fb565b73ffffffffffffffffffffffffffffffffffffffff16610bd96115d1565b73ffffffffffffffffffffffffffffffffffffffff1614610c2f576040517f08c379a0000000000000000000000000000000000000000000000000000000008152600401610c26906140bc565b60405180910390fd5b6000602060ff1611610c76576040517f08c379a0000000000000000000000000000000000000000000000000000000008152600401610c6d906141dc565b60405180910390fd5b80600f8190555050565b610c91610c8b6120fb565b826121bc565b610cd0576040517f08c379a0000000000000000000000000000000000000000000000000000000008152600401610cc79061413c565b60405180910390fd5b610cdb83838361229a565b505050565b6000610ceb836113ae565b8210610d2c576040517f08c379a0000000000000000000000000000000000000000000000000000000008152600401610d2390613ebc565b60405180910390fd5b600660008473ffffffffffffffffffffffffffffffffffffffff1673ffffffffffffffffffffffffffffffffffffffff168152602001908152602001600020600083815260200190815260200160002054905092915050565b600a60149054906101000a900460ff16610dd4576040517f08c379a0000000000000000000000000000000000000000000000000000000008152600401610dcb906141bc565b60405180910390fd5b600a60159054906101000a900460ff1615610e24576040517f08c379a0000000000000000000000000000000000000000000000000000000008152600401610e1b906140fc565b60405180910390fd5b610ea4600e543386604051602001610e3d929190613d61565b60405160208183030381529060405280519060200120858580806020026020016040519081016040528093929190818152602001838360200280828437600081840152601f19601f820116905080830192505050505050506124f69092919063ffffffff16565b610ee3576040517f08c379a0000000000000000000000000000000000000000000000000000000008152600401610eda90613f1c565b60405180910390fd5b8381601060003373ffffffffffffffffffffffffffffffffffffffff1673ffffffffffffffffffffffffffffffffffffffff16815260200190815260200160002054610f2f91906142e5565b1115610f70576040517f08c379a0000000000000000000000000000000000000000000000000000000008152600401610f679061419c565b60405180910390fd5b3466470de4df82000082610f84919061436c565b14610fc4576040517f08c379a0000000000000000000000000000000000000000000000000000000008152600401610fbb90613f7c565b60405180910390fd5b60005b81811015610fff57610fec336001610fdd610b0d565b610fe791906142e5565b61250d565b8080610ff79061451d565b915050610fc7565b5080601060003373ffffffffffffffffffffffffffffffffffffffff1673ffffffffffffffffffffffffffffffffffffffff168152602001908152602001600020600082825461104f91906142e5565b9250508190555050505050565b6110646120fb565b73ffffffffffffffffffffffffffffffffffffffff166110826115d1565b73ffffffffffffffffffffffffffffffffffffffff16146110d8576040517f08c379a00000000000000000000000000000000000000000000000000000000081526004016110cf906140bc565b60405180910390fd5b3373ffffffffffffffffffffffffffffffffffffffff166108fc479081150290604051600060405180830381858888f1935050505015801561111e573d6000803e3d6000fd5b50565b61113c83838360405180602001604052806000815250611be9565b505050565b600a81565b6000611150610b0d565b8210611191576040517f08c379a00000000000000000000000000000000000000000000000000000000081526004016111889061415c565b60405180910390fd5b600882815481106111cb577f4e487b7100000000000000000000000000000000000000000000000000000000600052603260045260246000fd5b90600052602060002001549050919050565b600a60149054906101000a900460ff1681565b600f5481565b6000806002600084815260200190815260200160002060009054906101000a900473ffffffffffffffffffffffffffffffffffffffff169050600073ffffffffffffffffffffffffffffffffffffffff168173ffffffffffffffffffffffffffffffffffffffff16141561129f576040517f08c379a00000000000000000000000000000000000000000000000000000000081526004016112969061405c565b60405180910390fd5b80915050919050565b600a60159054906101000a900460ff1681565b6112c36120fb565b73ffffffffffffffffffffffffffffffffffffffff166112e16115d1565b73ffffffffffffffffffffffffffffffffffffffff1614611337576040517f08c379a000000000000000000000000000000000000000000000000000000000815260040161132e906140bc565b60405180910390fd5b6000828290501161137d576040517f08c379a0000000000000000000000000000000000000000000000000000000008152600401611374906141fc565b60405180910390fd5b82600d60006101000a81548160ff0219169083151502179055508181600b91906113a8929190613295565b50505050565b60008073ffffffffffffffffffffffffffffffffffffffff168273ffffffffffffffffffffffffffffffffffffffff16141561141f576040517f08c379a00000000000000000000000000000000000000000000000000000000081526004016114169061403c565b60405180910390fd5b600360008373ffffffffffffffffffffffffffffffffffffffff1673ffffffffffffffffffffffffffffffffffffffff168152602001908152602001600020549050919050565b61146e6120fb565b73ffffffffffffffffffffffffffffffffffffffff1661148c6115d1565b73ffffffffffffffffffffffffffffffffffffffff16146114e2576040517f08c379a00000000000000000000000000000000000000000000000000000000081526004016114d9906140bc565b60405180910390fd5b6114ec60006126db565b565b606060001515600d60009054906101000a900460ff161515141561159e57600c8054611519906144ba565b80601f0160208091040260200160405190810160405280929190818152602001828054611545906144ba565b80156115925780601f1061156757610100808354040283529160200191611592565b820191906000526020600020905b81548152906001019060200180831161157557829003601f168201915b505050505090506115cc565b600b6115a9836127a1565b6040516020016115ba929190613db9565b60405160208183030381529060405290505b919050565b6000600a60009054906101000a900473ffffffffffffffffffffffffffffffffffffffff16905090565b600a60149054906101000a900460ff1661164a576040517f08c379a0000000000000000000000000000000000000000000000000000000008152600401611641906141bc565b60405180910390fd5b600a60159054906101000a900460ff161561169a576040517f08c379a0000000000000000000000000000000000000000000000000000000008152600401611691906140fc565b60405180910390fd5b61171a600f5433866040516020016116b3929190613d61565b60405160208183030381529060405280519060200120858580806020026020016040519081016040528093929190818152602001838360200280828437600081840152601f19601f820116905080830192505050505050506124f69092919063ffffffff16565b611759576040517f08c379a000000000000000000000000000000000000000000000000000000000815260040161175090613f1c565b60405180910390fd5b8381601160003373ffffffffffffffffffffffffffffffffffffffff1673ffffffffffffffffffffffffffffffffffffffff168152602001908152602001600020546117a591906142e5565b11156117e6576040517f08c379a00000000000000000000000000000000000000000000000000000000081526004016117dd9061419c565b60405180910390fd5b601e6117f0610b0d565b826117fb91906142e5565b111561183c576040517f08c379a000000000000000000000000000000000000000000000000000000000815260040161183390613f9c565b60405180910390fd5b60005b8181101561187757611864336001611855610b0d565b61185f91906142e5565b61250d565b808061186f9061451d565b91505061183f565b5080601160003373ffffffffffffffffffffffffffffffffffffffff1673ffffffffffffffffffffffffffffffffffffffff16815260200190815260200160002060008282546118c791906142e5565b9250508190555050505050565b6060600180546118e3906144ba565b80601f016020809104026020016040519081016040528092919081815260200182805461190f906144ba565b801561195c5780601f106119315761010080835404028352916020019161195c565b820191906000526020600020905b81548152906001019060200180831161193f57829003601f168201915b5050505050905090565b600a60159054906101000a900460ff166119b5576040517f08c379a00000000000000000000000000000000000000000000000000000000081526004016119ac9061417c565b60405180910390fd5b600a60149054906101000a900460ff1615611a05576040517f08c379a00000000000000000000000000000000000000000000000000000000081526004016119fc90613f5c565b60405180910390fd5b600a81601260003373ffffffffffffffffffffffffffffffffffffffff1673ffffffffffffffffffffffffffffffffffffffff16815260200190815260200160002054611a5291906142e5565b1115611a93576040517f08c379a0000000000000000000000000000000000000000000000000000000008152600401611a8a9061419c565b60405180910390fd5b601e611a9d610b0d565b82611aa891906142e5565b1115611ae9576040517f08c379a0000000000000000000000000000000000000000000000000000000008152600401611ae090613f9c565b60405180910390fd5b3466470de4df82000082611afd919061436c565b1115611b3e576040517f08c379a0000000000000000000000000000000000000000000000000000000008152600401611b3590613f7c565b60405180910390fd5b60005b81811015611b7957611b66336001611b57610b0d565b611b6191906142e5565b61250d565b8080611b719061451d565b915050611b41565b5080601260003373ffffffffffffffffffffffffffffffffffffffff1673ffffffffffffffffffffffffffffffffffffffff1681526020019081526020016000206000828254611bc991906142e5565b9250508190555050565b611be5611bde6120fb565b838361294e565b5050565b611bfa611bf46120fb565b836121bc565b611c39576040517f08c379a0000000000000000000000000000000000000000000000000000000008152600401611c309061413c565b60405180910390fd5b611c4584848484612abb565b50505050565b611c536120fb565b73ffffffffffffffffffffffffffffffffffffffff16611c716115d1565b73ffffffffffffffffffffffffffffffffffffffff1614611cc7576040517f08c379a0000000000000000000000000000000000000000000000000000000008152600401611cbe906140bc565b60405180910390fd5b80600a60146101000a81548160ff02191690831515021790555050565b6060611cef8261208f565b611d2e576040517f08c379a0000000000000000000000000000000000000000000000000000000008152600401611d2590613e9c565b60405180910390fd5b611d37826114ee565b9050919050565b601e81565b611d4b6120fb565b73ffffffffffffffffffffffffffffffffffffffff16611d696115d1565b73ffffffffffffffffffffffffffffffffffffffff1614611dbf576040517f08c379a0000000000000000000000000000000000000000000000000000000008152600401611db6906140bc565b60405180910390fd5b6000602060ff1611611e06576040517f08c379a0000000000000000000000000000000000000000000000000000000008152600401611dfd906141dc565b60405180910390fd5b80600e8190555050565b6000600560008473ffffffffffffffffffffffffffffffffffffffff1673ffffffffffffffffffffffffffffffffffffffff16815260200190815260200160002060008373ffffffffffffffffffffffffffffffffffffffff1673ffffffffffffffffffffffffffffffffffffffff16815260200190815260200160002060009054906101000a900460ff16905092915050565b600e5481565b611eb26120fb565b73ffffffffffffffffffffffffffffffffffffffff16611ed06115d1565b73ffffffffffffffffffffffffffffffffffffffff1614611f26576040517f08c379a0000000000000000000000000000000000000000000000000000000008152600401611f1d906140bc565b60405180910390fd5b600073ffffffffffffffffffffffffffffffffffffffff168173ffffffffffffffffffffffffffffffffffffffff161415611f96576040517f08c379a0000000000000000000000000000000000000000000000000000000008152600401611f8d90613efc565b60405180910390fd5b611f9f816126db565b50565b66470de4df82000081565b60007f80ac58cd000000000000000000000000000000000000000000000000000000007bffffffffffffffffffffffffffffffffffffffffffffffffffffffff1916827bffffffffffffffffffffffffffffffffffffffffffffffffffffffff1916148061207857507f5b5e139f000000000000000000000000000000000000000000000000000000007bffffffffffffffffffffffffffffffffffffffffffffffffffffffff1916827bffffffffffffffffffffffffffffffffffffffffffffffffffffffff1916145b80612088575061208782612b17565b5b9050919050565b60008073ffffffffffffffffffffffffffffffffffffffff166002600084815260200190815260200160002060009054906101000a900473ffffffffffffffffffffffffffffffffffffffff1673ffffffffffffffffffffffffffffffffffffffff1614159050919050565b600033905090565b816004600083815260200190815260200160002060006101000a81548173ffffffffffffffffffffffffffffffffffffffff021916908373ffffffffffffffffffffffffffffffffffffffff160217905550808273ffffffffffffffffffffffffffffffffffffffff16612176836111f6565b73ffffffffffffffffffffffffffffffffffffffff167f8c5be1e5ebec7d5bd14f71427d1e84f3dd0314c0f7b2291e5b200ac8c7c3b92560405160405180910390a45050565b60006121c78261208f565b612206576040517f08c379a00000000000000000000000000000000000000000000000000000000081526004016121fd90613ffc565b60405180910390fd5b6000612211836111f6565b90508073ffffffffffffffffffffffffffffffffffffffff168473ffffffffffffffffffffffffffffffffffffffff16148061228057508373ffffffffffffffffffffffffffffffffffffffff1661226884610970565b73ffffffffffffffffffffffffffffffffffffffff16145b8061229157506122908185611e10565b5b91505092915050565b8273ffffffffffffffffffffffffffffffffffffffff166122ba826111f6565b73ffffffffffffffffffffffffffffffffffffffff1614612310576040517f08c379a0000000000000000000000000000000000000000000000000000000008152600401612307906140dc565b60405180910390fd5b600073ffffffffffffffffffffffffffffffffffffffff168273ffffffffffffffffffffffffffffffffffffffff161415612380576040517f08c379a000000000000000000000000000000000000000000000000000000000815260040161237790613fbc565b60405180910390fd5b61238b838383612b81565b612396600082612103565b6001600360008573ffffffffffffffffffffffffffffffffffffffff1673ffffffffffffffffffffffffffffffffffffffff16815260200190815260200160002060008282546123e691906143c6565b925050819055506001600360008473ffffffffffffffffffffffffffffffffffffffff1673ffffffffffffffffffffffffffffffffffffffff168152602001908152602001600020600082825461243d91906142e5565b92505081905550816002600083815260200190815260200160002060006101000a81548173ffffffffffffffffffffffffffffffffffffffff021916908373ffffffffffffffffffffffffffffffffffffffff160217905550808273ffffffffffffffffffffffffffffffffffffffff168473ffffffffffffffffffffffffffffffffffffffff167fddf252ad1be2c89b69c2b068fc378daa952ba7f163c4a11628f55a4df523b3ef60405160405180910390a4505050565b6000826125038584612c95565b1490509392505050565b600073ffffffffffffffffffffffffffffffffffffffff168273ffffffffffffffffffffffffffffffffffffffff16141561257d576040517f08c379a00000000000000000000000000000000000000000000000000000000081526004016125749061407c565b60405180910390fd5b6125868161208f565b156125c6576040517f08c379a00000000000000000000000000000000000000000000000000000000081526004016125bd90613f3c565b60405180910390fd5b6125d260008383612b81565b6001600360008473ffffffffffffffffffffffffffffffffffffffff1673ffffffffffffffffffffffffffffffffffffffff168152602001908152602001600020600082825461262291906142e5565b92505081905550816002600083815260200190815260200160002060006101000a81548173ffffffffffffffffffffffffffffffffffffffff021916908373ffffffffffffffffffffffffffffffffffffffff160217905550808273ffffffffffffffffffffffffffffffffffffffff16600073ffffffffffffffffffffffffffffffffffffffff167fddf252ad1be2c89b69c2b068fc378daa952ba7f163c4a11628f55a4df523b3ef60405160405180910390a45050565b6000600a60009054906101000a900473ffffffffffffffffffffffffffffffffffffffff16905081600a60006101000a81548173ffffffffffffffffffffffffffffffffffffffff021916908373ffffffffffffffffffffffffffffffffffffffff1602179055508173ffffffffffffffffffffffffffffffffffffffff168173ffffffffffffffffffffffffffffffffffffffff167f8be0079c531659141344cd1fd0a4f28419497f9722a3daafe3b4186f6b6457e060405160405180910390a35050565b606060008214156127e9576040518060400160405280600181526020017f30000000000000000000000000000000000000000000000000000000000000008152509050612949565b600082905060005b6000821461281b5780806128049061451d565b915050600a82612814919061433b565b91506127f1565b60008167ffffffffffffffff81111561285d577f4e487b7100000000000000000000000000000000000000000000000000000000600052604160045260246000fd5b6040519080825280601f01601f19166020018201604052801561288f5781602001600182028036833780820191505090505b5090505b60008514612942576001826128a891906143c6565b9150600a856128b7919061459e565b60306128c391906142e5565b60f81b8183815181106128ff577f4e487b7100000000000000000000000000000000000000000000000000000000600052603260045260246000fd5b60200101907effffffffffffffffffffffffffffffffffffffffffffffffffffffffffffff1916908160001a905350600a8561293b919061433b565b9450612893565b8093505050505b919050565b8173ffffffffffffffffffffffffffffffffffffffff168373ffffffffffffffffffffffffffffffffffffffff1614156129bd576040517f08c379a00000000000000000000000000000000000000000000000000000000081526004016129b490613fdc565b60405180910390fd5b80600560008573ffffffffffffffffffffffffffffffffffffffff1673ffffffffffffffffffffffffffffffffffffffff16815260200190815260200160002060008473ffffffffffffffffffffffffffffffffffffffff1673ffffffffffffffffffffffffffffffffffffffff16815260200190815260200160002060006101000a81548160ff0219169083151502179055508173ffffffffffffffffffffffffffffffffffffffff168373ffffffffffffffffffffffffffffffffffffffff167f17307eab39ab6107e8899845ad3d59bd9653f200f220920489ca2b5937696c3183604051612aae9190613e44565b60405180910390a3505050565b612ac684848461229a565b612ad284848484612d6e565b612b11576040517f08c379a0000000000000000000000000000000000000000000000000000000008152600401612b0890613edc565b60405180910390fd5b50505050565b60007f01ffc9a7000000000000000000000000000000000000000000000000000000007bffffffffffffffffffffffffffffffffffffffffffffffffffffffff1916827bffffffffffffffffffffffffffffffffffffffffffffffffffffffff1916149050919050565b612b8c838383612f05565b600073ffffffffffffffffffffffffffffffffffffffff168373ffffffffffffffffffffffffffffffffffffffff161415612bcf57612bca81612f0a565b612c0e565b8173ffffffffffffffffffffffffffffffffffffffff168373ffffffffffffffffffffffffffffffffffffffff1614612c0d57612c0c8382612f53565b5b5b600073ffffffffffffffffffffffffffffffffffffffff168273ffffffffffffffffffffffffffffffffffffffff161415612c5157612c4c816130c0565b612c90565b8273ffffffffffffffffffffffffffffffffffffffff168273ffffffffffffffffffffffffffffffffffffffff1614612c8f57612c8e8282613203565b5b5b505050565b60008082905060005b8451811015612d63576000858281518110612ce2577f4e487b7100000000000000000000000000000000000000000000000000000000600052603260045260246000fd5b60200260200101519050808311612d23578281604051602001612d06929190613d8d565b604051602081830303815290604052805190602001209250612d4f565b8083604051602001612d36929190613d8d565b6040516020818303038152906040528051906020012092505b508080612d5b9061451d565b915050612c9e565b508091505092915050565b6000612d8f8473ffffffffffffffffffffffffffffffffffffffff16613282565b15612ef8578373ffffffffffffffffffffffffffffffffffffffff1663150b7a02612db86120fb565b8786866040518563ffffffff1660e01b8152600401612dda9493929190613df8565b602060405180830381600087803b158015612df457600080fd5b505af1925050508015612e2557506040513d601f19601f82011682018060405250810190612e22919061372c565b60015b612ea8573d8060008114612e55576040519150601f19603f3d011682016040523d82523d6000602084013e612e5a565b606091505b50600081511415612ea0576040517f08c379a0000000000000000000000000000000000000000000000000000000008152600401612e9790613edc565b60405180910390fd5b805181602001fd5b63150b7a0260e01b7bffffffffffffffffffffffffffffffffffffffffffffffffffffffff1916817bffffffffffffffffffffffffffffffffffffffffffffffffffffffff191614915050612efd565b600190505b949350505050565b505050565b6008805490506009600083815260200190815260200160002081905550600881908060018154018082558091505060019003906000526020600020016000909190919091505550565b60006001612f60846113ae565b612f6a91906143c6565b905060006007600084815260200190815260200160002054905081811461304f576000600660008673ffffffffffffffffffffffffffffffffffffffff1673ffffffffffffffffffffffffffffffffffffffff168152602001908152602001600020600084815260200190815260200160002054905080600660008773ffffffffffffffffffffffffffffffffffffffff1673ffffffffffffffffffffffffffffffffffffffff168152602001908152602001600020600084815260200190815260200160002081905550816007600083815260200190815260200160002081905550505b6007600084815260200190815260200160002060009055600660008573ffffffffffffffffffffffffffffffffffffffff1673ffffffffffffffffffffffffffffffffffffffff16815260200190815260200160002060008381526020019081526020016000206000905550505050565b600060016008805490506130d491906143c6565b905060006009600084815260200190815260200160002054905060006008838154811061312a577f4e487b7100000000000000000000000000000000000000000000000000000000600052603260045260246000fd5b906000526020600020015490508060088381548110613172577f4e487b7100000000000000000000000000000000000000000000000000000000600052603260045260246000fd5b9060005260206000200181905550816009600083815260200190815260200160002081905550600960008581526020019081526020016000206000905560088054806131e7577f4e487b7100000000000000000000000000000000000000000000000000000000600052603160045260246000fd5b6001900381819060005260206000200160009055905550505050565b600061320e836113ae565b905081600660008573ffffffffffffffffffffffffffffffffffffffff1673ffffffffffffffffffffffffffffffffffffffff168152602001908152602001600020600083815260200190815260200160002081905550806007600084815260200190815260200160002081905550505050565b600080823b905060008111915050919050565b8280546132a1906144ba565b90600052602060002090601f0160209004810192826132c3576000855561330a565b82601f106132dc57803560ff191683800117855561330a565b8280016001018555821561330a579182015b828111156133095782358255916020019190600101906132ee565b5b509050613317919061331b565b5090565b5b8082111561333457600081600090555060010161331c565b5090565b600061334b6133468461425c565b614237565b90508281526020810184848401111561336357600080fd5b61336e848285614478565b509392505050565b60008135905061338581614d13565b92915050565b60008083601f84011261339d57600080fd5b8235905067ffffffffffffffff8111156133b657600080fd5b6020830191508360208202830111156133ce57600080fd5b9250929050565b6000813590506133e481614d2a565b92915050565b6000813590506133f981614d41565b92915050565b60008135905061340e81614d58565b92915050565b60008151905061342381614d58565b92915050565b600082601f83011261343a57600080fd5b813561344a848260208601613338565b91505092915050565b60008083601f84011261346557600080fd5b8235905067ffffffffffffffff81111561347e57600080fd5b60208301915083600182028301111561349657600080fd5b9250929050565b6000813590506134ac81614d6f565b92915050565b6000602082840312156134c457600080fd5b60006134d284828501613376565b91505092915050565b600080604083850312156134ee57600080fd5b60006134fc85828601613376565b925050602061350d85828601613376565b9150509250929050565b60008060006060848603121561352c57600080fd5b600061353a86828701613376565b935050602061354b86828701613376565b925050604061355c8682870161349d565b9150509250925092565b6000806000806080858703121561357c57600080fd5b600061358a87828801613376565b945050602061359b87828801613376565b93505060406135ac8782880161349d565b925050606085013567ffffffffffffffff8111156135c957600080fd5b6135d587828801613429565b91505092959194509250565b600080604083850312156135f457600080fd5b600061360285828601613376565b9250506020613613858286016133d5565b9150509250929050565b6000806040838503121561363057600080fd5b600061363e85828601613376565b925050602061364f8582860161349d565b9150509250929050565b60006020828403121561366b57600080fd5b6000613679848285016133d5565b91505092915050565b60008060006040848603121561369757600080fd5b60006136a5868287016133d5565b935050602084013567ffffffffffffffff8111156136c257600080fd5b6136ce86828701613453565b92509250509250925092565b6000602082840312156136ec57600080fd5b60006136fa848285016133ea565b91505092915050565b60006020828403121561371557600080fd5b6000613723848285016133ff565b91505092915050565b60006020828403121561373e57600080fd5b600061374c84828501613414565b91505092915050565b60006020828403121561376757600080fd5b60006137758482850161349d565b91505092915050565b6000806000806060858703121561379457600080fd5b60006137a28782880161349d565b945050602085013567ffffffffffffffff8111156137bf57600080fd5b6137cb8782880161338b565b935093505060406137de8782880161349d565b91505092959194509250565b6137f3816143fa565b82525050565b61380a613805826143fa565b614566565b82525050565b6138198161440c565b82525050565b61382881614418565b82525050565b61383f61383a82614418565b614578565b82525050565b6000613850826142a2565b61385a81856142b8565b935061386a818560208601614487565b6138738161468b565b840191505092915050565b6000613889826142ad565b61389381856142c9565b93506138a3818560208601614487565b6138ac8161468b565b840191505092915050565b60006138c2826142ad565b6138cc81856142da565b93506138dc818560208601614487565b80840191505092915050565b600081546138f5816144ba565b6138ff81866142da565b9450600182166000811461391a576001811461392b5761395e565b60ff1983168652818601935061395e565b6139348561428d565b60005b8381101561395657815481890152600182019150602081019050613937565b838801955050505b50505092915050565b6000613974601f836142c9565b915061397f826146a9565b602082019050919050565b6000613997602b836142c9565b91506139a2826146d2565b604082019050919050565b60006139ba6032836142c9565b91506139c582614721565b604082019050919050565b60006139dd6026836142c9565b91506139e882614770565b604082019050919050565b6000613a006010836142c9565b9150613a0b826147bf565b602082019050919050565b6000613a23601c836142c9565b9150613a2e826147e8565b602082019050919050565b6000613a466016836142c9565b9150613a5182614811565b602082019050919050565b6000613a696018836142c9565b9150613a748261483a565b602082019050919050565b6000613a8c6018836142c9565b9150613a9782614863565b602082019050919050565b6000613aaf6024836142c9565b9150613aba8261488c565b604082019050919050565b6000613ad26019836142c9565b9150613add826148db565b602082019050919050565b6000613af5602c836142c9565b9150613b0082614904565b604082019050919050565b6000613b186038836142c9565b9150613b2382614953565b604082019050919050565b6000613b3b602a836142c9565b9150613b46826149a2565b604082019050919050565b6000613b5e6029836142c9565b9150613b69826149f1565b604082019050919050565b6000613b816020836142c9565b9150613b8c82614a40565b602082019050919050565b6000613ba4602c836142c9565b9150613baf82614a69565b604082019050919050565b6000613bc76020836142c9565b9150613bd282614ab8565b602082019050919050565b6000613bea6029836142c9565b9150613bf582614ae1565b604082019050919050565b6000613c0d6015836142c9565b9150613c1882614b30565b602082019050919050565b6000613c306021836142c9565b9150613c3b82614b59565b604082019050919050565b6000613c536031836142c9565b9150613c5e82614ba8565b604082019050919050565b6000613c76602c836142c9565b9150613c8182614bf7565b604082019050919050565b6000613c99600f836142c9565b9150613ca482614c46565b602082019050919050565b6000613cbc6019836142c9565b9150613cc782614c6f565b602082019050919050565b6000613cdf6012836142c9565b9150613cea82614c98565b602082019050919050565b6000613d02600e836142c9565b9150613d0d82614cc1565b602082019050919050565b6000613d256016836142c9565b9150613d3082614cea565b602082019050919050565b613d448161446e565b82525050565b613d5b613d568261446e565b614594565b82525050565b6000613d6d82856137f9565b601482019150613d7d8284613d4a565b6020820191508190509392505050565b6000613d99828561382e565b602082019150613da9828461382e565b6020820191508190509392505050565b6000613dc582856138e8565b9150613dd182846138b7565b91508190509392505050565b6000602082019050613df260008301846137ea565b92915050565b6000608082019050613e0d60008301876137ea565b613e1a60208301866137ea565b613e276040830185613d3b565b8181036060830152613e398184613845565b905095945050505050565b6000602082019050613e596000830184613810565b92915050565b6000602082019050613e74600083018461381f565b92915050565b60006020820190508181036000830152613e94818461387e565b905092915050565b60006020820190508181036000830152613eb581613967565b9050919050565b60006020820190508181036000830152613ed58161398a565b9050919050565b60006020820190508181036000830152613ef5816139ad565b9050919050565b60006020820190508181036000830152613f15816139d0565b9050919050565b60006020820190508181036000830152613f35816139f3565b9050919050565b60006020820190508181036000830152613f5581613a16565b9050919050565b60006020820190508181036000830152613f7581613a39565b9050919050565b60006020820190508181036000830152613f9581613a5c565b9050919050565b60006020820190508181036000830152613fb581613a7f565b9050919050565b60006020820190508181036000830152613fd581613aa2565b9050919050565b60006020820190508181036000830152613ff581613ac5565b9050919050565b6000602082019050818103600083015261401581613ae8565b9050919050565b6000602082019050818103600083015261403581613b0b565b9050919050565b6000602082019050818103600083015261405581613b2e565b9050919050565b6000602082019050818103600083015261407581613b51565b9050919050565b6000602082019050818103600083015261409581613b74565b9050919050565b600060208201905081810360008301526140b581613b97565b9050919050565b600060208201905081810360008301526140d581613bba565b9050919050565b600060208201905081810360008301526140f581613bdd565b9050919050565b6000602082019050818103600083015261411581613c00565b9050919050565b6000602082019050818103600083015261413581613c23565b9050919050565b6000602082019050818103600083015261415581613c46565b9050919050565b6000602082019050818103600083015261417581613c69565b9050919050565b6000602082019050818103600083015261419581613c8c565b9050919050565b600060208201905081810360008301526141b581613caf565b9050919050565b600060208201905081810360008301526141d581613cd2565b9050919050565b600060208201905081810360008301526141f581613cf5565b9050919050565b6000602082019050818103600083015261421581613d18565b9050919050565b60006020820190506142316000830184613d3b565b92915050565b6000614241614252565b905061424d82826144ec565b919050565b6000604051905090565b600067ffffffffffffffff8211156142775761427661465c565b5b6142808261468b565b9050602081019050919050565b60008190508160005260206000209050919050565b600081519050919050565b600081519050919050565b600082825260208201905092915050565b600082825260208201905092915050565b600081905092915050565b60006142f08261446e565b91506142fb8361446e565b9250827fffffffffffffffffffffffffffffffffffffffffffffffffffffffffffffffff038211156143305761432f6145cf565b5b828201905092915050565b60006143468261446e565b91506143518361446e565b925082614361576143606145fe565b5b828204905092915050565b60006143778261446e565b91506143828361446e565b9250817fffffffffffffffffffffffffffffffffffffffffffffffffffffffffffffffff04831182151516156143bb576143ba6145cf565b5b828202905092915050565b60006143d18261446e565b91506143dc8361446e565b9250828210156143ef576143ee6145cf565b5b828203905092915050565b60006144058261444e565b9050919050565b60008115159050919050565b6000819050919050565b60007fffffffff0000000000000000000000000000000000000000000000000000000082169050919050565b600073ffffffffffffffffffffffffffffffffffffffff82169050919050565b6000819050919050565b82818337600083830152505050565b60005b838110156144a557808201518184015260208101905061448a565b838111156144b4576000848401525b50505050565b600060028204905060018216806144d257607f821691505b602082108114156144e6576144e561462d565b5b50919050565b6144f58261468b565b810181811067ffffffffffffffff821117156145145761451361465c565b5b80604052505050565b60006145288261446e565b91507fffffffffffffffffffffffffffffffffffffffffffffffffffffffffffffffff82141561455b5761455a6145cf565b5b600182019050919050565b600061457182614582565b9050919050565b6000819050919050565b600061458d8261469c565b9050919050565b6000819050919050565b60006145a98261446e565b91506145b48361446e565b9250826145c4576145c36145fe565b5b828206905092915050565b7f4e487b7100000000000000000000000000000000000000000000000000000000600052601160045260246000fd5b7f4e487b7100000000000000000000000000000000000000000000000000000000600052601260045260246000fd5b7f4e487b7100000000000000000000000000000000000000000000000000000000600052602260045260246000fd5b7f4e487b7100000000000000000000000000000000000000000000000000000000600052604160045260246000fd5b6000601f19601f8301169050919050565b60008160601b9050919050565b7f55524920717565727920666f72206e6f6e6578697374656e7420746f6b656e00600082015250565b7f455243373231456e756d657261626c653a206f776e657220696e646578206f7560008201527f74206f6620626f756e6473000000000000000000000000000000000000000000602082015250565b7f4552433732313a207472616e7366657220746f206e6f6e20455243373231526560008201527f63656976657220696d706c656d656e7465720000000000000000000000000000602082015250565b7f4f776e61626c653a206e6577206f776e657220697320746865207a65726f206160008201527f6464726573730000000000000000000000000000000000000000000000000000602082015250565b7f4e4f54204f4e2057484954454c49535400000000000000000000000000000000600082015250565b7f4552433732313a20746f6b656e20616c7265616479206d696e74656400000000600082015250565b7f50524553414c45204f4e4c59205249474854204e4f5700000000000000000000600082015250565b7f494e434f5252454354205041594d454e5420414d4f554e540000000000000000600082015250565b7f4e4f5420454e4f554748204c45465420494e2053544f434b0000000000000000600082015250565b7f4552433732313a207472616e7366657220746f20746865207a65726f2061646460008201527f7265737300000000000000000000000000000000000000000000000000000000602082015250565b7f4552433732313a20617070726f766520746f2063616c6c657200000000000000600082015250565b7f4552433732313a206f70657261746f7220717565727920666f72206e6f6e657860008201527f697374656e7420746f6b656e0000000000000000000000000000000000000000602082015250565b7f4552433732313a20617070726f76652063616c6c6572206973206e6f74206f7760008201527f6e6572206e6f7220617070726f76656420666f7220616c6c0000000000000000602082015250565b7f4552433732313a2062616c616e636520717565727920666f7220746865207a6560008201527f726f206164647265737300000000000000000000000000000000000000000000602082015250565b7f4552433732313a206f776e657220717565727920666f72206e6f6e657869737460008201527f656e7420746f6b656e0000000000000000000000000000000000000000000000602082015250565b7f4552433732313a206d696e7420746f20746865207a65726f2061646472657373600082015250565b7f4552433732313a20617070726f76656420717565727920666f72206e6f6e657860008201527f697374656e7420746f6b656e0000000000000000000000000000000000000000602082015250565b7f4f776e61626c653a2063616c6c6572206973206e6f7420746865206f776e6572600082015250565b7f4552433732313a207472616e73666572206f6620746f6b656e2074686174206960008201527f73206e6f74206f776e0000000000000000000000000000000000000000000000602082015250565b7f53414c4520414354495645205249474854204e4f570000000000000000000000600082015250565b7f4552433732313a20617070726f76616c20746f2063757272656e74206f776e6560008201527f7200000000000000000000000000000000000000000000000000000000000000602082015250565b7f4552433732313a207472616e736665722063616c6c6572206973206e6f74206f60008201527f776e6572206e6f7220617070726f766564000000000000000000000000000000602082015250565b7f455243373231456e756d657261626c653a20676c6f62616c20696e646578206f60008201527f7574206f6620626f756e64730000000000000000000000000000000000000000602082015250565b7f53414c45204e4f54204143544956450000000000000000000000000000000000600082015250565b7f4d494e54494e47204d4f5245205448414e20414c4c4f57454400000000000000600082015250565b7f50524553414c45204e4f54204143544956450000000000000000000000000000600082015250565b7f5f726f6f7420697320656d707479000000000000000000000000000000000000600082015250565b7f5f746f6b656e4261736555524920697320656d70747900000000000000000000600082015250565b614d1c816143fa565b8114614d2757600080fd5b50565b614d338161440c565b8114614d3e57600080fd5b50565b614d4a81614418565b8114614d5557600080fd5b50565b614d6181614422565b8114614d6c57600080fd5b50565b614d788161446e565b8114614d8357600080fd5b5056fea2646970667358221220b456f51edc360fb8f1745e5dd38507de7181034027b1eb7187c90a3d7546640664736f6c63430008040033",
  "linkReferences": {},
  "deployedLinkReferences": {}
}