{
  "_format": "hh-sol-artifact-1",
  "contractName": "PMV",
  "sourceName": "contracts/PMV.sol",
  "abi": [
    {
      "inputs": [
        {
          "internalType": "bytes32",
          "name": "merkleroot",
          "type": "bytes32"
        },
        {
          "internalType": "string",
          "name": "uri",
          "type": "string"
        },
        {
          "internalType": "bytes32",
          "name": "_rootMintFree",
          "type": "bytes32"
        },
        {
          "internalType": "bytes32",
          "name": "_provenanceHash",
          "type": "bytes32"
        },
        {
          "internalType": "address",
          "name": "vrfCoordinator",
          "type": "address"
        },
        {
          "internalType": "address",
          "name": "link",
          "type": "address"
        },
        {
          "internalType": "bytes32",
          "name": "keyhash",
          "type": "bytes32"
        },
        {
          "internalType": "uint256",
          "name": "fee",
          "type": "uint256"
        },
        {
          "internalType": "address",
          "name": "_multiSigWallet",
          "type": "address"
        }
      ],
      "stateMutability": "nonpayable",
      "type": "constructor"
    },
    {
      "anonymous": false,
      "inputs": [
        {
          "indexed": true,
          "internalType": "address",
          "name": "owner",
          "type": "address"
        },
        {
          "indexed": true,
          "internalType": "address",
          "name": "approved",
          "type": "address"
        },
        {
          "indexed": true,
          "internalType": "uint256",
          "name": "tokenId",
          "type": "uint256"
        }
      ],
      "name": "Approval",
      "type": "event"
    },
    {
      "anonymous": false,
      "inputs": [
        {
          "indexed": true,
          "internalType": "address",
          "name": "owner",
          "type": "address"
        },
        {
          "indexed": true,
          "internalType": "address",
          "name": "operator",
          "type": "address"
        },
        {
          "indexed": false,
          "internalType": "bool",
          "name": "approved",
          "type": "bool"
        }
      ],
      "name": "ApprovalForAll",
      "type": "event"
    },
    {
      "anonymous": false,
      "inputs": [
        {
          "indexed": true,
          "internalType": "address",
          "name": "previousOwner",
          "type": "address"
        },
        {
          "indexed": true,
          "internalType": "address",
          "name": "newOwner",
          "type": "address"
        }
      ],
      "name": "OwnershipTransferred",
      "type": "event"
    },
    {
      "anonymous": false,
      "inputs": [
        {
          "indexed": true,
          "internalType": "address",
          "name": "from",
          "type": "address"
        },
        {
          "indexed": true,
          "internalType": "address",
          "name": "to",
          "type": "address"
        },
        {
          "indexed": true,
          "internalType": "uint256",
          "name": "tokenId",
          "type": "uint256"
        }
      ],
      "name": "Transfer",
      "type": "event"
    },
    {
      "inputs": [
        {
          "internalType": "uint256",
          "name": "tokenId",
          "type": "uint256"
        }
      ],
      "name": "_tokenURI",
      "outputs": [
        {
          "internalType": "string",
          "name": "",
          "type": "string"
        }
      ],
      "stateMutability": "view",
      "type": "function"
    },
    {
      "inputs": [
        {
          "internalType": "address",
          "name": "to",
          "type": "address"
        },
        {
          "internalType": "uint256",
          "name": "tokenId",
          "type": "uint256"
        }
      ],
      "name": "approve",
      "outputs": [],
      "stateMutability": "nonpayable",
      "type": "function"
    },
    {
      "inputs": [
        {
          "internalType": "address",
          "name": "owner",
          "type": "address"
        }
      ],
      "name": "balanceOf",
      "outputs": [
        {
          "internalType": "uint256",
          "name": "",
          "type": "uint256"
        }
      ],
      "stateMutability": "view",
      "type": "function"
    },
    {
      "inputs": [],
      "name": "freeMintAllowed",
      "outputs": [
        {
          "internalType": "bool",
          "name": "",
          "type": "bool"
        }
      ],
      "stateMutability": "view",
      "type": "function"
    },
    {
      "inputs": [],
      "name": "generateRandomOffset",
      "outputs": [
        {
          "internalType": "bytes32",
          "name": "requestId",
          "type": "bytes32"
        }
      ],
      "stateMutability": "nonpayable",
      "type": "function"
    },
    {
      "inputs": [
        {
          "internalType": "uint256",
          "name": "tokenId",
          "type": "uint256"
        }
      ],
      "name": "getApproved",
      "outputs": [
        {
          "internalType": "address",
          "name": "",
          "type": "address"
        }
      ],
      "stateMutability": "view",
      "type": "function"
    },
    {
      "inputs": [
        {
          "internalType": "address",
          "name": "owner",
          "type": "address"
        },
        {
          "internalType": "address",
          "name": "operator",
          "type": "address"
        }
      ],
      "name": "isApprovedForAll",
      "outputs": [
        {
          "internalType": "bool",
          "name": "",
          "type": "bool"
        }
      ],
      "stateMutability": "view",
      "type": "function"
    },
    {
      "inputs": [],
      "name": "letContractMint",
      "outputs": [
        {
          "internalType": "bool",
          "name": "",
          "type": "bool"
        }
      ],
      "stateMutability": "view",
      "type": "function"
    },
    {
      "inputs": [],
      "name": "maxPerTransaction",
      "outputs": [
        {
          "internalType": "uint256",
          "name": "",
          "type": "uint256"
        }
      ],
      "stateMutability": "view",
      "type": "function"
    },
    {
      "inputs": [],
      "name": "maxSupply",
      "outputs": [
        {
          "internalType": "uint256",
          "name": "",
          "type": "uint256"
        }
      ],
      "stateMutability": "view",
      "type": "function"
    },
    {
      "inputs": [
        {
          "internalType": "uint256",
          "name": "tokenQuantity",
          "type": "uint256"
        }
      ],
      "name": "mint",
      "outputs": [],
      "stateMutability": "payable",
      "type": "function"
    },
    {
      "inputs": [
        {
          "internalType": "uint256",
          "name": "allowance",
          "type": "uint256"
        },
        {
          "internalType": "bytes32[]",
          "name": "proof",
          "type": "bytes32[]"
        },
        {
          "internalType": "uint256",
          "name": "tokenQuantity",
          "type": "uint256"
        }
      ],
      "name": "mintFree",
      "outputs": [],
      "stateMutability": "nonpayable",
      "type": "function"
    },
    {
      "inputs": [
        {
          "internalType": "uint256",
          "name": "allowance",
          "type": "uint256"
        },
        {
          "internalType": "bytes32[]",
          "name": "proof",
          "type": "bytes32[]"
        },
        {
          "internalType": "uint256",
          "name": "tokenQuantity",
          "type": "uint256"
        }
      ],
      "name": "mintPresale",
      "outputs": [],
      "stateMutability": "payable",
      "type": "function"
    },
    {
      "inputs": [],
      "name": "multiSigWallet",
      "outputs": [
        {
          "internalType": "address",
          "name": "",
          "type": "address"
        }
      ],
      "stateMutability": "view",
      "type": "function"
    },
    {
      "inputs": [],
      "name": "name",
      "outputs": [
        {
          "internalType": "string",
          "name": "",
          "type": "string"
        }
      ],
      "stateMutability": "view",
      "type": "function"
    },
    {
      "inputs": [],
      "name": "offset",
      "outputs": [
        {
          "internalType": "uint256",
          "name": "",
          "type": "uint256"
        }
      ],
      "stateMutability": "view",
      "type": "function"
    },
    {
      "inputs": [],
      "name": "offsetRequested",
      "outputs": [
        {
          "internalType": "bool",
          "name": "",
          "type": "bool"
        }
      ],
      "stateMutability": "view",
      "type": "function"
    },
    {
      "inputs": [],
      "name": "owner",
      "outputs": [
        {
          "internalType": "address",
          "name": "",
          "type": "address"
        }
      ],
      "stateMutability": "view",
      "type": "function"
    },
    {
      "inputs": [
        {
          "internalType": "uint256",
          "name": "tokenQuantity",
          "type": "uint256"
        }
      ],
      "name": "ownerMint",
      "outputs": [],
      "stateMutability": "nonpayable",
      "type": "function"
    },
    {
      "inputs": [
        {
          "internalType": "uint256",
          "name": "tokenId",
          "type": "uint256"
        }
      ],
      "name": "ownerOf",
      "outputs": [
        {
          "internalType": "address",
          "name": "",
          "type": "address"
        }
      ],
      "stateMutability": "view",
      "type": "function"
    },
    {
      "inputs": [],
      "name": "presaleActive",
      "outputs": [
        {
          "internalType": "bool",
          "name": "",
          "type": "bool"
        }
      ],
      "stateMutability": "view",
      "type": "function"
    },
    {
      "inputs": [],
      "name": "presalePrice",
      "outputs": [
        {
          "internalType": "uint256",
          "name": "",
          "type": "uint256"
        }
      ],
      "stateMutability": "view",
      "type": "function"
    },
    {
      "inputs": [],
      "name": "provenanceHash",
      "outputs": [
        {
          "internalType": "bytes32",
          "name": "",
          "type": "bytes32"
        }
      ],
      "stateMutability": "view",
      "type": "function"
    },
    {
      "inputs": [
        {
          "internalType": "bytes32",
          "name": "requestId",
          "type": "bytes32"
        },
        {
          "internalType": "uint256",
          "name": "randomness",
          "type": "uint256"
        }
      ],
      "name": "rawFulfillRandomness",
      "outputs": [],
      "stateMutability": "nonpayable",
      "type": "function"
    },
    {
      "inputs": [],
      "name": "renounceOwnership",
      "outputs": [],
      "stateMutability": "nonpayable",
      "type": "function"
    },
    {
      "inputs": [],
      "name": "root",
      "outputs": [
        {
          "internalType": "bytes32",
          "name": "",
          "type": "bytes32"
        }
      ],
      "stateMutability": "view",
      "type": "function"
    },
    {
      "inputs": [],
      "name": "rootMintFree",
      "outputs": [
        {
          "internalType": "bytes32",
          "name": "",
          "type": "bytes32"
        }
      ],
      "stateMutability": "view",
      "type": "function"
    },
    {
      "inputs": [
        {
          "internalType": "address",
          "name": "from",
          "type": "address"
        },
        {
          "internalType": "address",
          "name": "to",
          "type": "address"
        },
        {
          "internalType": "uint256",
          "name": "tokenId",
          "type": "uint256"
        }
      ],
      "name": "safeTransferFrom",
      "outputs": [],
      "stateMutability": "nonpayable",
      "type": "function"
    },
    {
      "inputs": [
        {
          "internalType": "address",
          "name": "from",
          "type": "address"
        },
        {
          "internalType": "address",
          "name": "to",
          "type": "address"
        },
        {
          "internalType": "uint256",
          "name": "tokenId",
          "type": "uint256"
        },
        {
          "internalType": "bytes",
          "name": "_data",
          "type": "bytes"
        }
      ],
      "name": "safeTransferFrom",
      "outputs": [],
      "stateMutability": "nonpayable",
      "type": "function"
    },
    {
      "inputs": [],
      "name": "saleActive",
      "outputs": [
        {
          "internalType": "bool",
          "name": "",
          "type": "bool"
        }
      ],
      "stateMutability": "view",
      "type": "function"
    },
    {
      "inputs": [],
      "name": "salePrice",
      "outputs": [
        {
          "internalType": "uint256",
          "name": "",
          "type": "uint256"
        }
      ],
      "stateMutability": "view",
      "type": "function"
    },
    {
      "inputs": [
        {
          "internalType": "address",
          "name": "operator",
          "type": "address"
        },
        {
          "internalType": "bool",
          "name": "approved",
          "type": "bool"
        }
      ],
      "name": "setApprovalForAll",
      "outputs": [],
      "stateMutability": "nonpayable",
      "type": "function"
    },
    {
      "inputs": [
        {
          "internalType": "bool",
          "name": "_freeMintAllowed",
          "type": "bool"
        }
      ],
      "name": "setFreeMintAllowed",
      "outputs": [],
      "stateMutability": "nonpayable",
      "type": "function"
    },
    {
      "inputs": [
        {
          "internalType": "bool",
          "name": "_letContractMint",
          "type": "bool"
        }
      ],
      "name": "setLetContractMint",
      "outputs": [],
      "stateMutability": "nonpayable",
      "type": "function"
    },
    {
      "inputs": [
        {
          "internalType": "uint256",
          "name": "_maxPerTransaction",
          "type": "uint256"
        }
      ],
      "name": "setMaxPerTransaction",
      "outputs": [],
      "stateMutability": "nonpayable",
      "type": "function"
    },
    {
      "inputs": [
        {
          "internalType": "bool",
          "name": "_presaleStatus",
          "type": "bool"
        }
      ],
      "name": "setPresale",
      "outputs": [],
      "stateMutability": "nonpayable",
      "type": "function"
    },
    {
      "inputs": [
        {
          "internalType": "uint256",
          "name": "_presalePrice",
          "type": "uint256"
        }
      ],
      "name": "setPresalePrice",
      "outputs": [],
      "stateMutability": "nonpayable",
      "type": "function"
    },
    {
      "inputs": [
        {
          "internalType": "uint256",
          "name": "_salePrice",
          "type": "uint256"
        }
      ],
      "name": "setPrice",
      "outputs": [],
      "stateMutability": "nonpayable",
      "type": "function"
    },
    {
      "inputs": [
        {
          "internalType": "bytes32",
          "name": "_root",
          "type": "bytes32"
        }
      ],
      "name": "setRoot",
      "outputs": [],
      "stateMutability": "nonpayable",
      "type": "function"
    },
    {
      "inputs": [
        {
          "internalType": "bytes32",
          "name": "_root",
          "type": "bytes32"
        }
      ],
      "name": "setRootMintFree",
      "outputs": [],
      "stateMutability": "nonpayable",
      "type": "function"
    },
    {
      "inputs": [
        {
          "internalType": "bool",
          "name": "_saleStatus",
          "type": "bool"
        }
      ],
      "name": "setSale",
      "outputs": [],
      "stateMutability": "nonpayable",
      "type": "function"
    },
    {
      "inputs": [
        {
          "internalType": "bool",
          "name": "_revealed",
          "type": "bool"
        },
        {
          "internalType": "string",
          "name": "_tokenBaseURI",
          "type": "string"
        }
      ],
      "name": "setURIStatus",
      "outputs": [],
      "stateMutability": "nonpayable",
      "type": "function"
    },
    {
      "inputs": [
        {
          "internalType": "bytes4",
          "name": "interfaceId",
          "type": "bytes4"
        }
      ],
      "name": "supportsInterface",
      "outputs": [
        {
          "internalType": "bool",
          "name": "",
          "type": "bool"
        }
      ],
      "stateMutability": "view",
      "type": "function"
    },
    {
      "inputs": [],
      "name": "symbol",
      "outputs": [
        {
          "internalType": "string",
          "name": "",
          "type": "string"
        }
      ],
      "stateMutability": "view",
      "type": "function"
    },
    {
      "inputs": [
        {
          "internalType": "uint256",
          "name": "index",
          "type": "uint256"
        }
      ],
      "name": "tokenByIndex",
      "outputs": [
        {
          "internalType": "uint256",
          "name": "",
          "type": "uint256"
        }
      ],
      "stateMutability": "view",
      "type": "function"
    },
    {
      "inputs": [
        {
          "internalType": "address",
          "name": "owner",
          "type": "address"
        },
        {
          "internalType": "uint256",
          "name": "index",
          "type": "uint256"
        }
      ],
      "name": "tokenOfOwnerByIndex",
      "outputs": [
        {
          "internalType": "uint256",
          "name": "",
          "type": "uint256"
        }
      ],
      "stateMutability": "view",
      "type": "function"
    },
    {
      "inputs": [
        {
          "internalType": "uint256",
          "name": "tokenId",
          "type": "uint256"
        }
      ],
      "name": "tokenURI",
      "outputs": [
        {
          "internalType": "string",
          "name": "",
          "type": "string"
        }
      ],
      "stateMutability": "view",
      "type": "function"
    },
    {
      "inputs": [],
      "name": "totalSupply",
      "outputs": [
        {
          "internalType": "uint256",
          "name": "",
          "type": "uint256"
        }
      ],
      "stateMutability": "view",
      "type": "function"
    },
    {
      "inputs": [
        {
          "internalType": "address",
          "name": "from",
          "type": "address"
        },
        {
          "internalType": "address",
          "name": "to",
          "type": "address"
        },
        {
          "internalType": "uint256",
          "name": "tokenId",
          "type": "uint256"
        }
      ],
      "name": "transferFrom",
      "outputs": [],
      "stateMutability": "nonpayable",
      "type": "function"
    },
    {
      "inputs": [
        {
          "internalType": "address",
          "name": "newOwner",
          "type": "address"
        }
      ],
      "name": "transferOwnership",
      "outputs": [],
      "stateMutability": "nonpayable",
      "type": "function"
    },
    {
      "inputs": [],
      "name": "withdraw",
      "outputs": [],
      "stateMutability": "nonpayable",
      "type": "function"
    }
  ],
  "bytecode": "0x60c0604052600a600b5567016345785d8a0000600c556701118f178fb48000600d55600e805462ffffff191690556011805460ff191690556016805460ff60ff60a81b01191690553480156200005457600080fd5b506040516200425e3803806200425e833981016040819052620000779162000734565b60408051808201825260038152622826ab60e91b6020808301918252835180850190945260068452652826ab2a25a760d11b90840152815188938893929091620000c49160009162000671565b508051620000da90600190602084019062000671565b505050620000f7620000f16200017b60201b60201c565b6200017f565b6001600160601b0319606092831b811660a052911b16608052601289905587516200012a9060109060208b019062000671565b5060138790556014869055601b839055601c82905560168054610100600160a81b0319166101006001600160a01b038416021790556200016c336001620001d1565b50505050505050505062000918565b3390565b600a80546001600160a01b038381166001600160a01b0319831681179093556040519116919082907f8be0079c531659141344cd1fd0a4f28419497f9722a3daafe3b4186f6b6457e090600090a35050565b6001600160a01b0382166200022d5760405162461bcd60e51b815260206004820181905260248201527f4552433732313a206d696e7420746f20746865207a65726f206164647265737360448201526064015b60405180910390fd5b6000818152600260205260409020546001600160a01b031615620002945760405162461bcd60e51b815260206004820152601c60248201527f4552433732313a20746f6b656e20616c7265616479206d696e74656400000000604482015260640162000224565b620002a2600083836200032b565b6001600160a01b0382166000908152600360205260408120805460019290620002cd9084906200087a565b909155505060008181526002602052604080822080546001600160a01b0319166001600160a01b03861690811790915590518392907fddf252ad1be2c89b69c2b068fc378daa952ba7f163c4a11628f55a4df523b3ef908290a45050565b62000343838383620003e160201b62000bf21760201c565b6001600160a01b038316620003a1576200039b81600880546000838152600960205260408120829055600182018355919091527ff3f7a9fe364faab93b216da50a3214154f22a0a2b415b23a84c8169e8b636ee30155565b620003c7565b816001600160a01b0316836001600160a01b031614620003c757620003c783826200040c565b6001600160a01b038216620003e657620003e181620004b9565b505050565b826001600160a01b0316826001600160a01b031614620003e157620003e1828262000597565b600060016200042684620005e860201b620013fa1760201c565b62000432919062000895565b60008381526007602052604090205490915080821462000486576001600160a01b03841660009081526006602090815260408083208584528252808320548484528184208190558352600790915290208190555b5060009182526007602090815260408084208490556001600160a01b039094168352600681528383209183525290812055565b600854600090620004cd9060019062000895565b600083815260096020526040812054600880549394509092849081106200050457634e487b7160e01b600052603260045260246000fd5b9060005260206000200154905080600883815481106200053457634e487b7160e01b600052603260045260246000fd5b60009182526020808320909101929092558281526009909152604080822084905585825281205560088054806200057b57634e487b7160e01b600052603160045260246000fd5b6001900381819060005260206000200160009055905550505050565b6000620005af83620005e860201b620013fa1760201c565b6001600160a01b039093166000908152600660209081526040808320868452825280832085905593825260079052919091209190915550565b60006001600160a01b038216620006555760405162461bcd60e51b815260206004820152602a60248201527f4552433732313a2062616c616e636520717565727920666f7220746865207a65604482015269726f206164647265737360b01b606482015260840162000224565b506001600160a01b031660009081526003602052604090205490565b8280546200067f90620008af565b90600052602060002090601f016020900481019282620006a35760008555620006ee565b82601f10620006be57805160ff1916838001178555620006ee565b82800160010185558215620006ee579182015b82811115620006ee578251825591602001919060010190620006d1565b50620006fc92915062000700565b5090565b5b80821115620006fc576000815560010162000701565b80516001600160a01b03811681146200072f57600080fd5b919050565b60008060008060008060008060006101208a8c03121562000753578485fd5b895160208b01519099506001600160401b038082111562000772578687fd5b818c0191508c601f83011262000786578687fd5b8151818111156200079b576200079b62000902565b604051601f8201601f19908116603f01168101908382118183101715620007c657620007c662000902565b816040528281528f6020848701011115620007df57898afd5b8993505b8284101562000806576020848601015160208583010152602084019350620007e3565b82841115620008185789602084830101525b809c50505050505060408a0151965060608a015195506200083c60808b0162000717565b94506200084c60a08b0162000717565b935060c08a0151925060e08a015191506200086b6101008b0162000717565b90509295985092959850929598565b60008219821115620008905762000890620008ec565b500190565b600082821015620008aa57620008aa620008ec565b500390565b600181811c90821680620008c457607f821691505b60208210811415620008e657634e487b7160e01b600052602260045260246000fd5b50919050565b634e487b7160e01b600052601160045260246000fd5b634e487b7160e01b600052604160045260246000fd5b60805160601c60a05160601c61390c62000952600039600081816118050152612bd9015260008181611d810152612baa015261390c6000f3fe6080604052600436106103335760003560e01c806370a08231116101b0578063c56c0b92116100ec578063d5abeb0111610095578063ebf0c7171161006f578063ebf0c717146108e9578063f19e75d4146108ff578063f2fde38b1461091f578063f51f96dd1461093f57600080fd5b8063d5abeb011461086b578063dab5f34014610880578063e985e9c5146108a057600080fd5b8063cc7a856c116100c6578063cc7a856c14610820578063ccfdd2f814610835578063d55565441461085557600080fd5b8063c56c0b92146107ca578063c6ab67a3146107ea578063c87b56dd1461080057600080fd5b806394985ddd11610159578063a0712d6811610133578063a0712d6814610757578063a22cb4651461076a578063b88d4fde1461078a578063c54e73e3146107aa57600080fd5b806394985ddd1461070157806395d89b411461072157806398029d2a1461073657600080fd5b80638da5cb5b1161018a5780638da5cb5b146106a357806391b7f5ed146106c157806392c46da3146106e157600080fd5b806370a082311461064e578063715018a61461066e5780638d17e7121461068357600080fd5b80633549345e1161027f5780634f6ccce7116102285780636352211e116102025780636352211e146105d457806367753a15146105f457806368428a1b1461060e5780636f8d93051461062e57600080fd5b80634f6ccce71461058457806353135ca0146105a45780635fc9c0e6146105be57600080fd5b806342842e0e1161025957806342842e0e146105295780634b8feb4f146105495780634b980d671461056e57600080fd5b80633549345e146104e15780633c14a2de146105015780633ccfd60b1461051457600080fd5b80631d2e5a3a116102e157806329770e04116102bb57806329770e04146104825780632a613fa7146104a25780632f745c59146104c157600080fd5b80631d2e5a3a146104225780631fbb4e271461044257806323b872dd1461046257600080fd5b8063081812fc11610312578063081812fc146103b3578063095ea7b3146103eb57806318160ddd1461040d57600080fd5b80620e7fa81461033857806301ffc9a71461036157806306fdde0314610391575b600080fd5b34801561034457600080fd5b5061034e600d5481565b6040519081526020015b60405180910390f35b34801561036d57600080fd5b5061038161037c366004613523565b610955565b6040519015158152602001610358565b34801561039d57600080fd5b506103a6610999565b6040516103589190613745565b3480156103bf57600080fd5b506103d36103ce3660046134ea565b610a2b565b6040516001600160a01b039091168152602001610358565b3480156103f757600080fd5b5061040b610406366004613409565b610ac5565b005b34801561041957600080fd5b5060085461034e565b34801561042e57600080fd5b5061040b61043d366004613432565b610bf7565b34801561044e57600080fd5b5061040b61045d3660046134ea565b610c5b565b34801561046e57600080fd5b5061040b61047d3660046132c3565b610ca8565b34801561048e57600080fd5b5061040b61049d366004613432565b610d2f565b3480156104ae57600080fd5b50600e5461038190610100900460ff1681565b3480156104cd57600080fd5b5061034e6104dc366004613409565b610d91565b3480156104ed57600080fd5b5061040b6104fc3660046134ea565b610e39565b61040b61050f366004613573565b610e86565b34801561052057600080fd5b5061040b611188565b34801561053557600080fd5b5061040b6105443660046132c3565b6111ed565b34801561055557600080fd5b506016546103d39061010090046001600160a01b031681565b34801561057a57600080fd5b5061034e600b5481565b34801561059057600080fd5b5061034e61059f3660046134ea565b611208565b3480156105b057600080fd5b50600e546103819060ff1681565b3480156105ca57600080fd5b5061034e60135481565b3480156105e057600080fd5b506103d36105ef3660046134ea565b6112ba565b34801561060057600080fd5b506016546103819060ff1681565b34801561061a57600080fd5b50600e546103819062010000900460ff1681565b34801561063a57600080fd5b5061040b61064936600461346a565b611345565b34801561065a57600080fd5b5061034e610669366004613270565b6113fa565b34801561067a57600080fd5b5061040b611494565b34801561068f57600080fd5b506103a661069e3660046134ea565b6114e6565b3480156106af57600080fd5b50600a546001600160a01b03166103d3565b3480156106cd57600080fd5b5061040b6106dc3660046134ea565b6115bc565b3480156106ed57600080fd5b5061040b6106fc366004613573565b611609565b34801561070d57600080fd5b5061040b61071c366004613502565b6117fa565b34801561072d57600080fd5b506103a6611880565b34801561074257600080fd5b5060165461038190600160a81b900460ff1681565b61040b6107653660046134ea565b61188f565b34801561077657600080fd5b5061040b6107853660046133d3565b611b26565b34801561079657600080fd5b5061040b6107a53660046132fe565b611b31565b3480156107b657600080fd5b5061040b6107c5366004613432565b611bb9565b3480156107d657600080fd5b5061040b6107e5366004613432565b611c14565b3480156107f657600080fd5b5061034e60145481565b34801561080c57600080fd5b506103a661081b3660046134ea565b611c95565b34801561082c57600080fd5b5061034e611d05565b34801561084157600080fd5b5061040b6108503660046134ea565b611eb7565b34801561086157600080fd5b5061034e60155481565b34801561087757600080fd5b5061034e601e81565b34801561088c57600080fd5b5061040b61089b3660046134ea565b611f79565b3480156108ac57600080fd5b506103816108bb366004613291565b6001600160a01b03918216600090815260056020908152604080832093909416825291909152205460ff1690565b3480156108f557600080fd5b5061034e60125481565b34801561090b57600080fd5b5061040b61091a3660046134ea565b611fc6565b34801561092b57600080fd5b5061040b61093a366004613270565b612128565b34801561094b57600080fd5b5061034e600c5481565b60006001600160e01b031982167f780e9d630000000000000000000000000000000000000000000000000000000014806109935750610993826121f8565b92915050565b6060600080546109a8906137e6565b80601f01602080910402602001604051908101604052809291908181526020018280546109d4906137e6565b8015610a215780601f106109f657610100808354040283529160200191610a21565b820191906000526020600020905b815481529060010190602001808311610a0457829003601f168201915b5050505050905090565b6000818152600260205260408120546001600160a01b0316610aa95760405162461bcd60e51b815260206004820152602c60248201527f4552433732313a20617070726f76656420717565727920666f72206e6f6e657860448201526b34b9ba32b73a103a37b5b2b760a11b60648201526084015b60405180910390fd5b506000908152600460205260409020546001600160a01b031690565b6000610ad0826112ba565b9050806001600160a01b0316836001600160a01b03161415610b5a5760405162461bcd60e51b815260206004820152602160248201527f4552433732313a20617070726f76616c20746f2063757272656e74206f776e6560448201527f72000000000000000000000000000000000000000000000000000000000000006064820152608401610aa0565b336001600160a01b0382161480610b765750610b7681336108bb565b610be85760405162461bcd60e51b815260206004820152603860248201527f4552433732313a20617070726f76652063616c6c6572206973206e6f74206f7760448201527f6e6572206e6f7220617070726f76656420666f7220616c6c00000000000000006064820152608401610aa0565b610bf28383612293565b505050565b600a546001600160a01b03163314610c3f5760405162461bcd60e51b815260206004820181905260248201526000805160206138b78339815191526044820152606401610aa0565b600e8054911515620100000262ff000019909216919091179055565b600a546001600160a01b03163314610ca35760405162461bcd60e51b815260206004820181905260248201526000805160206138b78339815191526044820152606401610aa0565b601355565b610cb2338261230e565b610d245760405162461bcd60e51b815260206004820152603160248201527f4552433732313a207472616e736665722063616c6c6572206973206e6f74206f60448201527f776e6572206e6f7220617070726f7665640000000000000000000000000000006064820152608401610aa0565b610bf2838383612405565b600a546001600160a01b03163314610d775760405162461bcd60e51b815260206004820181905260248201526000805160206138b78339815191526044820152606401610aa0565b600e80549115156101000261ff0019909216919091179055565b6000610d9c836113fa565b8210610e105760405162461bcd60e51b815260206004820152602b60248201527f455243373231456e756d657261626c653a206f776e657220696e646578206f7560448201527f74206f6620626f756e64730000000000000000000000000000000000000000006064820152608401610aa0565b506001600160a01b03919091166000908152600660209081526040808320938352929052205490565b600a546001600160a01b03163314610e815760405162461bcd60e51b815260206004820181905260248201526000805160206138b78339815191526044820152606401610aa0565b600d55565b600e5460ff16610ed85760405162461bcd60e51b815260206004820152601260248201527f50524553414c45204e4f542041435449564500000000000000000000000000006044820152606401610aa0565b600e5462010000900460ff1615610f315760405162461bcd60e51b815260206004820152601560248201527f53414c4520414354495645205249474854204e4f5700000000000000000000006044820152606401610aa0565b6012546040516bffffffffffffffffffffffff193360601b16602082015260348101869052610fb291906054015b604051602081830303815290604052805190602001208585808060200260200160405190810160405280939291908181526020018383602002808284376000920191909152509294939250506125ea9050565b610ffe5760405162461bcd60e51b815260206004820152601060248201527f4e4f54204f4e20414c4c4f574c495354000000000000000000000000000000006044820152606401610aa0565b33600090815260186020526040902054849061101b908390613758565b11156110695760405162461bcd60e51b815260206004820152601960248201527f4d494e54494e47204d4f5245205448414e20414c4c4f574544000000000000006044820152606401610aa0565b34600d54826110789190613784565b11156110c65760405162461bcd60e51b815260206004820152601860248201527f494e434f5252454354205041594d454e5420414d4f554e5400000000000000006044820152606401610aa0565b60006110d160085490565b9050601e6110df8284613758565b111561112d5760405162461bcd60e51b815260206004820152601860248201527f4e4f5420454e4f554748204c45465420494e2053544f434b00000000000000006044820152606401610aa0565b60015b82811161115c5761114a336111458385613758565b612600565b8061115481613821565b915050611130565b50336000908152601860205260408120805484929061117c908490613758565b90915550505050505050565b600a546001600160a01b031633146111d05760405162461bcd60e51b815260206004820181905260248201526000805160206138b78339815191526044820152606401610aa0565b6016546111eb9061010090046001600160a01b03164761275b565b565b610bf283838360405180602001604052806000815250611b31565b600061121360085490565b82106112875760405162461bcd60e51b815260206004820152602c60248201527f455243373231456e756d657261626c653a20676c6f62616c20696e646578206f60448201527f7574206f6620626f756e647300000000000000000000000000000000000000006064820152608401610aa0565b600882815481106112a857634e487b7160e01b600052603260045260246000fd5b90600052602060002001549050919050565b6000818152600260205260408120546001600160a01b0316806109935760405162461bcd60e51b815260206004820152602960248201527f4552433732313a206f776e657220717565727920666f72206e6f6e657869737460448201527f656e7420746f6b656e00000000000000000000000000000000000000000000006064820152608401610aa0565b600a546001600160a01b0316331461138d5760405162461bcd60e51b815260206004820181905260248201526000805160206138b78339815191526044820152606401610aa0565b806113da5760405162461bcd60e51b815260206004820152601660248201527f5f746f6b656e4261736555524920697320656d707479000000000000000000006044820152606401610aa0565b6011805460ff19168415151790556113f4600f83836131c0565b50505050565b60006001600160a01b0382166114785760405162461bcd60e51b815260206004820152602a60248201527f4552433732313a2062616c616e636520717565727920666f7220746865207a6560448201527f726f2061646472657373000000000000000000000000000000000000000000006064820152608401610aa0565b506001600160a01b031660009081526003602052604090205490565b600a546001600160a01b031633146114dc5760405162461bcd60e51b815260206004820181905260248201526000805160206138b78339815191526044820152606401610aa0565b6111eb6000612874565b60115460609060ff166115855760108054611500906137e6565b80601f016020809104026020016040519081016040528092919081815260200182805461152c906137e6565b80156115795780601f1061154e57610100808354040283529160200191611579565b820191906000526020600020905b81548152906001019060200180831161155c57829003601f168201915b50505050509050919050565b600f611590836128d3565b6040516020016115a192919061363b565b6040516020818303038152906040529050919050565b919050565b600a546001600160a01b031633146116045760405162461bcd60e51b815260206004820181905260248201526000805160206138b78339815191526044820152606401610aa0565b600c55565b600e54610100900460ff166116605760405162461bcd60e51b815260206004820152601560248201527f46726565206d696e74206e6f7420616c6c6f77656400000000000000000000006044820152606401610aa0565b6013546040516bffffffffffffffffffffffff193360601b166020820152603481018690526116929190605401610f5f565b6116de5760405162461bcd60e51b815260206004820152601a60248201527f4e4f54204f4e2046524545204d494e5420414c4c4f574c4953540000000000006044820152606401610aa0565b3360009081526019602052604090205484906116fb908390613758565b11156117495760405162461bcd60e51b815260206004820152601960248201527f4d494e54494e47204d4f5245205448414e20414c4c4f574544000000000000006044820152606401610aa0565b600061175460085490565b9050601e6117628284613758565b11156117b05760405162461bcd60e51b815260206004820152601860248201527f4e4f5420454e4f554748204c45465420494e2053544f434b00000000000000006044820152606401610aa0565b60015b8281116117da576117c8336111458385613758565b806117d281613821565b9150506117b3565b50336000908152601960205260408120805484929061117c908490613758565b336001600160a01b037f000000000000000000000000000000000000000000000000000000000000000016146118725760405162461bcd60e51b815260206004820152601f60248201527f4f6e6c7920565246436f6f7264696e61746f722063616e2066756c66696c6c006044820152606401610aa0565b61187c8282612a21565b5050565b6060600180546109a8906137e6565b601654600160a81b900460ff16611915573332146119155760405162461bcd60e51b815260206004820152602b60248201527f434f4e5452414354204e4f5420414c4c4f57454420544f204d494e5420494e2060448201527f5055424c49432053414c450000000000000000000000000000000000000000006064820152608401610aa0565b600e5462010000900460ff1661196d5760405162461bcd60e51b815260206004820152600f60248201527f53414c45204e4f542041435449564500000000000000000000000000000000006044820152606401610aa0565b600e5460ff16156119c05760405162461bcd60e51b815260206004820152601660248201527f50524553414c45204f4e4c59205249474854204e4f57000000000000000000006044820152606401610aa0565b600b54811115611a385760405162461bcd60e51b815260206004820152603160248201527f4d494e54494e47204d4f5245205448414e20414c4c4f57454420494e2041205360448201527f494e474c45205452414e53414354494f4e0000000000000000000000000000006064820152608401610aa0565b34600c5482611a479190613784565b1115611a955760405162461bcd60e51b815260206004820152601860248201527f494e434f5252454354205041594d454e5420414d4f554e5400000000000000006044820152606401610aa0565b6000611aa060085490565b9050601e611aae8284613758565b1115611afc5760405162461bcd60e51b815260206004820152601860248201527f4e4f5420454e4f554748204c45465420494e2053544f434b00000000000000006044820152606401610aa0565b60015b828111610bf257611b14336111458385613758565b80611b1e81613821565b915050611aff565b61187c338383612a4e565b611b3b338361230e565b611bad5760405162461bcd60e51b815260206004820152603160248201527f4552433732313a207472616e736665722063616c6c6572206973206e6f74206f60448201527f776e6572206e6f7220617070726f7665640000000000000000000000000000006064820152608401610aa0565b6113f484848484612b1d565b600a546001600160a01b03163314611c015760405162461bcd60e51b815260206004820181905260248201526000805160206138b78339815191526044820152606401610aa0565b600e805460ff1916911515919091179055565b600a546001600160a01b03163314611c5c5760405162461bcd60e51b815260206004820181905260248201526000805160206138b78339815191526044820152606401610aa0565b60168054911515600160a81b027fffffffffffffffffffff00ffffffffffffffffffffffffffffffffffffffffff909216919091179055565b6000818152600260205260409020546060906001600160a01b0316611cfc5760405162461bcd60e51b815260206004820152601f60248201527f55524920717565727920666f72206e6f6e6578697374656e7420746f6b656e006044820152606401610aa0565b610993826114e6565b600a546000906001600160a01b03163314611d505760405162461bcd60e51b815260206004820181905260248201526000805160206138b78339815191526044820152606401610aa0565b601c546040517f70a082310000000000000000000000000000000000000000000000000000000081523060048201527f00000000000000000000000000000000000000000000000000000000000000006001600160a01b0316906370a082319060240160206040518083038186803b158015611dcb57600080fd5b505afa158015611ddf573d6000803e3d6000fd5b505050506040513d601f19601f82011682018060405250810190611e03919061355b565b1015611e515760405162461bcd60e51b815260206004820152601a60248201527f4e6f7420656e6f756768204c494e4b20746f20706179206665650000000000006044820152606401610aa0565b60165460ff1615611ea45760405162461bcd60e51b815260206004820152601f60248201527f416c72656164792067656e6572617465642072616e646f6d206f6666736574006044820152606401610aa0565b611eb2601b54601c54612ba6565b905090565b600a546001600160a01b03163314611eff5760405162461bcd60e51b815260206004820181905260248201526000805160206138b78339815191526044820152606401610aa0565b60008111611f745760405162461bcd60e51b8152602060048201526024808201527f6d61785065725472616e73616374696f6e2073686f756c6420626520706f736960448201527f74697665000000000000000000000000000000000000000000000000000000006064820152608401610aa0565b600b55565b600a546001600160a01b03163314611fc15760405162461bcd60e51b815260206004820181905260248201526000805160206138b78339815191526044820152606401610aa0565b601255565b600a546001600160a01b0316331461200e5760405162461bcd60e51b815260206004820181905260248201526000805160206138b78339815191526044820152606401610aa0565b600b548111156120865760405162461bcd60e51b815260206004820152603160248201527f4d494e54494e47204d4f5245205448414e20414c4c4f57454420494e2041205360448201527f494e474c45205452414e53414354494f4e0000000000000000000000000000006064820152608401610aa0565b600061209160085490565b9050601e61209f8284613758565b11156120ed5760405162461bcd60e51b815260206004820152601860248201527f4e4f5420454e4f554748204c45465420494e2053544f434b00000000000000006044820152606401610aa0565b60015b828111610bf2576016546121169061010090046001600160a01b03166111458385613758565b8061212081613821565b9150506120f0565b600a546001600160a01b031633146121705760405162461bcd60e51b815260206004820181905260248201526000805160206138b78339815191526044820152606401610aa0565b6001600160a01b0381166121ec5760405162461bcd60e51b815260206004820152602660248201527f4f776e61626c653a206e6577206f776e657220697320746865207a65726f206160448201527f64647265737300000000000000000000000000000000000000000000000000006064820152608401610aa0565b6121f581612874565b50565b60006001600160e01b031982167f80ac58cd00000000000000000000000000000000000000000000000000000000148061225b57506001600160e01b031982167f5b5e139f00000000000000000000000000000000000000000000000000000000145b8061099357507f01ffc9a7000000000000000000000000000000000000000000000000000000006001600160e01b0319831614610993565b6000818152600460205260409020805473ffffffffffffffffffffffffffffffffffffffff19166001600160a01b03841690811790915581906122d5826112ba565b6001600160a01b03167f8c5be1e5ebec7d5bd14f71427d1e84f3dd0314c0f7b2291e5b200ac8c7c3b92560405160405180910390a45050565b6000818152600260205260408120546001600160a01b03166123875760405162461bcd60e51b815260206004820152602c60248201527f4552433732313a206f70657261746f7220717565727920666f72206e6f6e657860448201526b34b9ba32b73a103a37b5b2b760a11b6064820152608401610aa0565b6000612392836112ba565b9050806001600160a01b0316846001600160a01b031614806123cd5750836001600160a01b03166123c284610a2b565b6001600160a01b0316145b806123fd57506001600160a01b0380821660009081526005602090815260408083209388168352929052205460ff165b949350505050565b826001600160a01b0316612418826112ba565b6001600160a01b0316146124945760405162461bcd60e51b815260206004820152602960248201527f4552433732313a207472616e73666572206f6620746f6b656e2074686174206960448201527f73206e6f74206f776e00000000000000000000000000000000000000000000006064820152608401610aa0565b6001600160a01b03821661250f5760405162461bcd60e51b8152602060048201526024808201527f4552433732313a207472616e7366657220746f20746865207a65726f2061646460448201527f72657373000000000000000000000000000000000000000000000000000000006064820152608401610aa0565b61251a838383612d31565b612525600082612293565b6001600160a01b038316600090815260036020526040812080546001929061254e9084906137a3565b90915550506001600160a01b038216600090815260036020526040812080546001929061257c908490613758565b9091555050600081815260026020526040808220805473ffffffffffffffffffffffffffffffffffffffff19166001600160a01b0386811691821790925591518493918716917fddf252ad1be2c89b69c2b068fc378daa952ba7f163c4a11628f55a4df523b3ef91a4505050565b6000826125f78584612de9565b14949350505050565b6001600160a01b0382166126565760405162461bcd60e51b815260206004820181905260248201527f4552433732313a206d696e7420746f20746865207a65726f20616464726573736044820152606401610aa0565b6000818152600260205260409020546001600160a01b0316156126bb5760405162461bcd60e51b815260206004820152601c60248201527f4552433732313a20746f6b656e20616c7265616479206d696e746564000000006044820152606401610aa0565b6126c760008383612d31565b6001600160a01b03821660009081526003602052604081208054600192906126f0908490613758565b9091555050600081815260026020526040808220805473ffffffffffffffffffffffffffffffffffffffff19166001600160a01b03861690811790915590518392907fddf252ad1be2c89b69c2b068fc378daa952ba7f163c4a11628f55a4df523b3ef908290a45050565b804710156127ab5760405162461bcd60e51b815260206004820152601d60248201527f416464726573733a20696e73756666696369656e742062616c616e63650000006044820152606401610aa0565b6000826001600160a01b03168260405160006040518083038185875af1925050503d80600081146127f8576040519150601f19603f3d011682016040523d82523d6000602084013e6127fd565b606091505b5050905080610bf25760405162461bcd60e51b815260206004820152603a60248201527f416464726573733a20756e61626c6520746f2073656e642076616c75652c207260448201527f6563697069656e74206d617920686176652072657665727465640000000000006064820152608401610aa0565b600a80546001600160a01b0383811673ffffffffffffffffffffffffffffffffffffffff19831681179093556040519116919082907f8be0079c531659141344cd1fd0a4f28419497f9722a3daafe3b4186f6b6457e090600090a35050565b60608161291357505060408051808201909152600181527f3000000000000000000000000000000000000000000000000000000000000000602082015290565b8160005b811561293d578061292781613821565b91506129369050600a83613770565b9150612917565b60008167ffffffffffffffff81111561296657634e487b7160e01b600052604160045260246000fd5b6040519080825280601f01601f191660200182016040528015612990576020820181803683370190505b5090505b84156123fd576129a56001836137a3565b91506129b2600a8661383c565b6129bd906030613758565b60f81b8183815181106129e057634e487b7160e01b600052603260045260246000fd5b60200101907effffffffffffffffffffffffffffffffffffffffffffffffffffffffffffff1916908160001a905350612a1a600a86613770565b9450612994565b6000612a2e601e8361383c565b612a39906001613758565b60155550506016805460ff1916600117905550565b816001600160a01b0316836001600160a01b03161415612ab05760405162461bcd60e51b815260206004820152601960248201527f4552433732313a20617070726f766520746f2063616c6c6572000000000000006044820152606401610aa0565b6001600160a01b03838116600081815260056020908152604080832094871680845294825291829020805460ff191686151590811790915591519182527f17307eab39ab6107e8899845ad3d59bd9653f200f220920489ca2b5937696c31910160405180910390a3505050565b612b28848484612405565b612b3484848484612ea3565b6113f45760405162461bcd60e51b815260206004820152603260248201527f4552433732313a207472616e7366657220746f206e6f6e20455243373231526560448201527f63656976657220696d706c656d656e74657200000000000000000000000000006064820152608401610aa0565b60007f00000000000000000000000000000000000000000000000000000000000000006001600160a01b0316634000aea07f000000000000000000000000000000000000000000000000000000000000000084866000604051602001612c16929190918252602082015260400190565b6040516020818303038152906040526040518463ffffffff1660e01b8152600401612c439392919061371d565b602060405180830381600087803b158015612c5d57600080fd5b505af1158015612c71573d6000803e3d6000fd5b505050506040513d601f19601f82011682018060405250810190612c95919061344e565b50600083815260176020818152604080842054815180840189905280830186905230606082015260808082018390528351808303909101815260a090910190925281519183019190912093879052919052612cf1906001613758565b6000858152601760205260409020556123fd8482604080516020808201949094528082019290925280518083038201815260609092019052805191012090565b6001600160a01b038316612d8c57612d8781600880546000838152600960205260408120829055600182018355919091527ff3f7a9fe364faab93b216da50a3214154f22a0a2b415b23a84c8169e8b636ee30155565b612daf565b816001600160a01b0316836001600160a01b031614612daf57612daf8382613006565b6001600160a01b038216612dc657610bf2816130a3565b826001600160a01b0316826001600160a01b031614610bf257610bf2828261317c565b600081815b8451811015612e9b576000858281518110612e1957634e487b7160e01b600052603260045260246000fd5b60200260200101519050808311612e5b576040805160208101859052908101829052606001604051602081830303815290604052805190602001209250612e88565b60408051602081018390529081018490526060016040516020818303038152906040528051906020012092505b5080612e9381613821565b915050612dee565b509392505050565b60006001600160a01b0384163b15612ffb57604051630a85bd0160e11b81526001600160a01b0385169063150b7a0290612ee79033908990889088906004016136e1565b602060405180830381600087803b158015612f0157600080fd5b505af1925050508015612f31575060408051601f3d908101601f19168201909252612f2e9181019061353f565b60015b612fe1573d808015612f5f576040519150601f19603f3d011682016040523d82523d6000602084013e612f64565b606091505b508051612fd95760405162461bcd60e51b815260206004820152603260248201527f4552433732313a207472616e7366657220746f206e6f6e20455243373231526560448201527f63656976657220696d706c656d656e74657200000000000000000000000000006064820152608401610aa0565b805181602001fd5b6001600160e01b031916630a85bd0160e11b1490506123fd565b506001949350505050565b60006001613013846113fa565b61301d91906137a3565b600083815260076020526040902054909150808214613070576001600160a01b03841660009081526006602090815260408083208584528252808320548484528184208190558352600790915290208190555b5060009182526007602090815260408084208490556001600160a01b039094168352600681528383209183525290812055565b6008546000906130b5906001906137a3565b600083815260096020526040812054600880549394509092849081106130eb57634e487b7160e01b600052603260045260246000fd5b90600052602060002001549050806008838154811061311a57634e487b7160e01b600052603260045260246000fd5b600091825260208083209091019290925582815260099091526040808220849055858252812055600880548061316057634e487b7160e01b600052603160045260246000fd5b6001900381819060005260206000200160009055905550505050565b6000613187836113fa565b6001600160a01b039093166000908152600660209081526040808320868452825280832085905593825260079052919091209190915550565b8280546131cc906137e6565b90600052602060002090601f0160209004810192826131ee5760008555613234565b82601f106132075782800160ff19823516178555613234565b82800160010185558215613234579182015b82811115613234578235825591602001919060010190613219565b50613240929150613244565b5090565b5b808211156132405760008155600101613245565b80356001600160a01b03811681146115b757600080fd5b600060208284031215613281578081fd5b61328a82613259565b9392505050565b600080604083850312156132a3578081fd5b6132ac83613259565b91506132ba60208401613259565b90509250929050565b6000806000606084860312156132d7578081fd5b6132e084613259565b92506132ee60208501613259565b9150604084013590509250925092565b60008060008060808587031215613313578081fd5b61331c85613259565b935061332a60208601613259565b925060408501359150606085013567ffffffffffffffff8082111561334d578283fd5b818701915087601f830112613360578283fd5b8135818111156133725761337261387c565b604051601f8201601f19908116603f0116810190838211818310171561339a5761339a61387c565b816040528281528a60208487010111156133b2578586fd5b82602086016020830137918201602001949094529598949750929550505050565b600080604083850312156133e5578182fd5b6133ee83613259565b915060208301356133fe81613892565b809150509250929050565b6000806040838503121561341b578182fd5b61342483613259565b946020939093013593505050565b600060208284031215613443578081fd5b813561328a81613892565b60006020828403121561345f578081fd5b815161328a81613892565b60008060006040848603121561347e578283fd5b833561348981613892565b9250602084013567ffffffffffffffff808211156134a5578384fd5b818601915086601f8301126134b8578384fd5b8135818111156134c6578485fd5b8760208285010111156134d7578485fd5b6020830194508093505050509250925092565b6000602082840312156134fb578081fd5b5035919050565b60008060408385031215613514578182fd5b50508035926020909101359150565b600060208284031215613534578081fd5b813561328a816138a0565b600060208284031215613550578081fd5b815161328a816138a0565b60006020828403121561356c578081fd5b5051919050565b60008060008060608587031215613588578182fd5b84359350602085013567ffffffffffffffff808211156135a6578384fd5b818701915087601f8301126135b9578384fd5b8135818111156135c7578485fd5b8860208260051b85010111156135db578485fd5b95986020929092019750949560400135945092505050565b6000815180845261360b8160208601602086016137ba565b601f01601f19169290920160200192915050565b600081516136318185602086016137ba565b9290920192915050565b600080845482600182811c91508083168061365757607f831692505b602080841082141561367757634e487b7160e01b87526022600452602487fd5b81801561368b576001811461369c576136c8565b60ff198616895284890196506136c8565b60008b815260209020885b868110156136c05781548b8201529085019083016136a7565b505084890196505b5050505050506136d8818561361f565b95945050505050565b60006001600160a01b0380871683528086166020840152508360408301526080606083015261371360808301846135f3565b9695505050505050565b6001600160a01b03841681528260208201526060604082015260006136d860608301846135f3565b60208152600061328a60208301846135f3565b6000821982111561376b5761376b613850565b500190565b60008261377f5761377f613866565b500490565b600081600019048311821515161561379e5761379e613850565b500290565b6000828210156137b5576137b5613850565b500390565b60005b838110156137d55781810151838201526020016137bd565b838111156113f45750506000910152565b600181811c908216806137fa57607f821691505b6020821081141561381b57634e487b7160e01b600052602260045260246000fd5b50919050565b600060001982141561383557613835613850565b5060010190565b60008261384b5761384b613866565b500690565b634e487b7160e01b600052601160045260246000fd5b634e487b7160e01b600052601260045260246000fd5b634e487b7160e01b600052604160045260246000fd5b80151581146121f557600080fd5b6001600160e01b0319811681146121f557600080fdfe4f776e61626c653a2063616c6c6572206973206e6f7420746865206f776e6572a2646970667358221220faf97936416f6994a2c1f3a1ed7cc8b8fe596ea1c8de40e286d83147c24f68a964736f6c63430008040033",
  "linkReferences": {},
  "deployedLinkReferences": {}
}