{
  "_format": "hh-sol-artifact-1",
  "contractName": "PMV",
  "sourceName": "contracts/PMV.sol",
  "abi": [
    {
      "inputs": [
        {
          "internalType": "bytes32",
          "name": "merkleroot",
          "type": "bytes32"
        },
        {
          "internalType": "string",
          "name": "uri",
          "type": "string"
        },
        {
          "internalType": "bytes32",
          "name": "_rootMintFree",
          "type": "bytes32"
        },
        {
          "internalType": "bytes32",
          "name": "_provenanceHash",
          "type": "bytes32"
        },
        {
          "internalType": "address",
          "name": "vrfCoordinator",
          "type": "address"
        },
        {
          "internalType": "address",
          "name": "link",
          "type": "address"
        },
        {
          "internalType": "bytes32",
          "name": "keyhash",
          "type": "bytes32"
        },
        {
          "internalType": "uint256",
          "name": "fee",
          "type": "uint256"
        },
        {
          "internalType": "address",
          "name": "_multiSigWallet",
          "type": "address"
        }
      ],
      "stateMutability": "nonpayable",
      "type": "constructor"
    },
    {
      "anonymous": false,
      "inputs": [
        {
          "indexed": true,
          "internalType": "address",
          "name": "owner",
          "type": "address"
        },
        {
          "indexed": true,
          "internalType": "address",
          "name": "approved",
          "type": "address"
        },
        {
          "indexed": true,
          "internalType": "uint256",
          "name": "tokenId",
          "type": "uint256"
        }
      ],
      "name": "Approval",
      "type": "event"
    },
    {
      "anonymous": false,
      "inputs": [
        {
          "indexed": true,
          "internalType": "address",
          "name": "owner",
          "type": "address"
        },
        {
          "indexed": true,
          "internalType": "address",
          "name": "operator",
          "type": "address"
        },
        {
          "indexed": false,
          "internalType": "bool",
          "name": "approved",
          "type": "bool"
        }
      ],
      "name": "ApprovalForAll",
      "type": "event"
    },
    {
      "anonymous": false,
      "inputs": [
        {
          "indexed": true,
          "internalType": "address",
          "name": "previousOwner",
          "type": "address"
        },
        {
          "indexed": true,
          "internalType": "address",
          "name": "newOwner",
          "type": "address"
        }
      ],
      "name": "OwnershipTransferred",
      "type": "event"
    },
    {
      "anonymous": false,
      "inputs": [
        {
          "indexed": true,
          "internalType": "address",
          "name": "from",
          "type": "address"
        },
        {
          "indexed": true,
          "internalType": "address",
          "name": "to",
          "type": "address"
        },
        {
          "indexed": true,
          "internalType": "uint256",
          "name": "tokenId",
          "type": "uint256"
        }
      ],
      "name": "Transfer",
      "type": "event"
    },
    {
      "inputs": [
        {
          "internalType": "uint256",
          "name": "tokenId",
          "type": "uint256"
        }
      ],
      "name": "_tokenURI",
      "outputs": [
        {
          "internalType": "string",
          "name": "",
          "type": "string"
        }
      ],
      "stateMutability": "view",
      "type": "function"
    },
    {
      "inputs": [
        {
          "internalType": "address",
          "name": "to",
          "type": "address"
        },
        {
          "internalType": "uint256",
          "name": "tokenId",
          "type": "uint256"
        }
      ],
      "name": "approve",
      "outputs": [],
      "stateMutability": "nonpayable",
      "type": "function"
    },
    {
      "inputs": [
        {
          "internalType": "address",
          "name": "owner",
          "type": "address"
        }
      ],
      "name": "balanceOf",
      "outputs": [
        {
          "internalType": "uint256",
          "name": "",
          "type": "uint256"
        }
      ],
      "stateMutability": "view",
      "type": "function"
    },
    {
      "inputs": [],
      "name": "freeMintAllowed",
      "outputs": [
        {
          "internalType": "bool",
          "name": "",
          "type": "bool"
        }
      ],
      "stateMutability": "view",
      "type": "function"
    },
    {
      "inputs": [],
      "name": "generateRandomOffset",
      "outputs": [
        {
          "internalType": "bytes32",
          "name": "requestId",
          "type": "bytes32"
        }
      ],
      "stateMutability": "nonpayable",
      "type": "function"
    },
    {
      "inputs": [
        {
          "internalType": "uint256",
          "name": "tokenId",
          "type": "uint256"
        }
      ],
      "name": "getApproved",
      "outputs": [
        {
          "internalType": "address",
          "name": "",
          "type": "address"
        }
      ],
      "stateMutability": "view",
      "type": "function"
    },
    {
      "inputs": [
        {
          "internalType": "address",
          "name": "owner",
          "type": "address"
        },
        {
          "internalType": "address",
          "name": "operator",
          "type": "address"
        }
      ],
      "name": "isApprovedForAll",
      "outputs": [
        {
          "internalType": "bool",
          "name": "",
          "type": "bool"
        }
      ],
      "stateMutability": "view",
      "type": "function"
    },
    {
      "inputs": [],
      "name": "maxPerTransaction",
      "outputs": [
        {
          "internalType": "uint256",
          "name": "",
          "type": "uint256"
        }
      ],
      "stateMutability": "view",
      "type": "function"
    },
    {
      "inputs": [],
      "name": "maxSupply",
      "outputs": [
        {
          "internalType": "uint256",
          "name": "",
          "type": "uint256"
        }
      ],
      "stateMutability": "view",
      "type": "function"
    },
    {
      "inputs": [
        {
          "internalType": "uint256",
          "name": "tokenQuantity",
          "type": "uint256"
        }
      ],
      "name": "mint",
      "outputs": [],
      "stateMutability": "payable",
      "type": "function"
    },
    {
      "inputs": [
        {
          "internalType": "uint256",
          "name": "allowance",
          "type": "uint256"
        },
        {
          "internalType": "bytes32[]",
          "name": "proof",
          "type": "bytes32[]"
        },
        {
          "internalType": "uint256",
          "name": "tokenQuantity",
          "type": "uint256"
        }
      ],
      "name": "mintFree",
      "outputs": [],
      "stateMutability": "nonpayable",
      "type": "function"
    },
    {
      "inputs": [
        {
          "internalType": "uint256",
          "name": "allowance",
          "type": "uint256"
        },
        {
          "internalType": "bytes32[]",
          "name": "proof",
          "type": "bytes32[]"
        },
        {
          "internalType": "uint256",
          "name": "tokenQuantity",
          "type": "uint256"
        }
      ],
      "name": "mintPresale",
      "outputs": [],
      "stateMutability": "payable",
      "type": "function"
    },
    {
      "inputs": [],
      "name": "multiSigWallet",
      "outputs": [
        {
          "internalType": "address",
          "name": "",
          "type": "address"
        }
      ],
      "stateMutability": "view",
      "type": "function"
    },
    {
      "inputs": [],
      "name": "name",
      "outputs": [
        {
          "internalType": "string",
          "name": "",
          "type": "string"
        }
      ],
      "stateMutability": "view",
      "type": "function"
    },
    {
      "inputs": [],
      "name": "offset",
      "outputs": [
        {
          "internalType": "uint256",
          "name": "",
          "type": "uint256"
        }
      ],
      "stateMutability": "view",
      "type": "function"
    },
    {
      "inputs": [],
      "name": "offsetRequested",
      "outputs": [
        {
          "internalType": "bool",
          "name": "",
          "type": "bool"
        }
      ],
      "stateMutability": "view",
      "type": "function"
    },
    {
      "inputs": [],
      "name": "owner",
      "outputs": [
        {
          "internalType": "address",
          "name": "",
          "type": "address"
        }
      ],
      "stateMutability": "view",
      "type": "function"
    },
    {
      "inputs": [
        {
          "internalType": "uint256",
          "name": "tokenId",
          "type": "uint256"
        }
      ],
      "name": "ownerOf",
      "outputs": [
        {
          "internalType": "address",
          "name": "",
          "type": "address"
        }
      ],
      "stateMutability": "view",
      "type": "function"
    },
    {
      "inputs": [],
      "name": "presaleActive",
      "outputs": [
        {
          "internalType": "bool",
          "name": "",
          "type": "bool"
        }
      ],
      "stateMutability": "view",
      "type": "function"
    },
    {
      "inputs": [],
      "name": "presalePrice",
      "outputs": [
        {
          "internalType": "uint256",
          "name": "",
          "type": "uint256"
        }
      ],
      "stateMutability": "view",
      "type": "function"
    },
    {
      "inputs": [],
      "name": "provenanceHash",
      "outputs": [
        {
          "internalType": "bytes32",
          "name": "",
          "type": "bytes32"
        }
      ],
      "stateMutability": "view",
      "type": "function"
    },
    {
      "inputs": [
        {
          "internalType": "bytes32",
          "name": "requestId",
          "type": "bytes32"
        },
        {
          "internalType": "uint256",
          "name": "randomness",
          "type": "uint256"
        }
      ],
      "name": "rawFulfillRandomness",
      "outputs": [],
      "stateMutability": "nonpayable",
      "type": "function"
    },
    {
      "inputs": [],
      "name": "renounceOwnership",
      "outputs": [],
      "stateMutability": "nonpayable",
      "type": "function"
    },
    {
      "inputs": [],
      "name": "root",
      "outputs": [
        {
          "internalType": "bytes32",
          "name": "",
          "type": "bytes32"
        }
      ],
      "stateMutability": "view",
      "type": "function"
    },
    {
      "inputs": [],
      "name": "rootMintFree",
      "outputs": [
        {
          "internalType": "bytes32",
          "name": "",
          "type": "bytes32"
        }
      ],
      "stateMutability": "view",
      "type": "function"
    },
    {
      "inputs": [
        {
          "internalType": "address",
          "name": "from",
          "type": "address"
        },
        {
          "internalType": "address",
          "name": "to",
          "type": "address"
        },
        {
          "internalType": "uint256",
          "name": "tokenId",
          "type": "uint256"
        }
      ],
      "name": "safeTransferFrom",
      "outputs": [],
      "stateMutability": "nonpayable",
      "type": "function"
    },
    {
      "inputs": [
        {
          "internalType": "address",
          "name": "from",
          "type": "address"
        },
        {
          "internalType": "address",
          "name": "to",
          "type": "address"
        },
        {
          "internalType": "uint256",
          "name": "tokenId",
          "type": "uint256"
        },
        {
          "internalType": "bytes",
          "name": "_data",
          "type": "bytes"
        }
      ],
      "name": "safeTransferFrom",
      "outputs": [],
      "stateMutability": "nonpayable",
      "type": "function"
    },
    {
      "inputs": [],
      "name": "saleActive",
      "outputs": [
        {
          "internalType": "bool",
          "name": "",
          "type": "bool"
        }
      ],
      "stateMutability": "view",
      "type": "function"
    },
    {
      "inputs": [],
      "name": "salePrice",
      "outputs": [
        {
          "internalType": "uint256",
          "name": "",
          "type": "uint256"
        }
      ],
      "stateMutability": "view",
      "type": "function"
    },
    {
      "inputs": [
        {
          "internalType": "address",
          "name": "operator",
          "type": "address"
        },
        {
          "internalType": "bool",
          "name": "approved",
          "type": "bool"
        }
      ],
      "name": "setApprovalForAll",
      "outputs": [],
      "stateMutability": "nonpayable",
      "type": "function"
    },
    {
      "inputs": [
        {
          "internalType": "bool",
          "name": "_freeMintAllowed",
          "type": "bool"
        }
      ],
      "name": "setFreeMintAllowed",
      "outputs": [],
      "stateMutability": "nonpayable",
      "type": "function"
    },
    {
      "inputs": [
        {
          "internalType": "uint256",
          "name": "_maxPerTransaction",
          "type": "uint256"
        }
      ],
      "name": "setMaxPerTransaction",
      "outputs": [],
      "stateMutability": "nonpayable",
      "type": "function"
    },
    {
      "inputs": [
        {
          "internalType": "bool",
          "name": "_presaleStatus",
          "type": "bool"
        }
      ],
      "name": "setPresale",
      "outputs": [],
      "stateMutability": "nonpayable",
      "type": "function"
    },
    {
      "inputs": [
        {
          "internalType": "uint256",
          "name": "_presalePrice",
          "type": "uint256"
        }
      ],
      "name": "setPresalePrice",
      "outputs": [],
      "stateMutability": "nonpayable",
      "type": "function"
    },
    {
      "inputs": [
        {
          "internalType": "uint256",
          "name": "_salePrice",
          "type": "uint256"
        }
      ],
      "name": "setPrice",
      "outputs": [],
      "stateMutability": "nonpayable",
      "type": "function"
    },
    {
      "inputs": [
        {
          "internalType": "bytes32",
          "name": "_root",
          "type": "bytes32"
        }
      ],
      "name": "setRoot",
      "outputs": [],
      "stateMutability": "nonpayable",
      "type": "function"
    },
    {
      "inputs": [
        {
          "internalType": "bytes32",
          "name": "_root",
          "type": "bytes32"
        }
      ],
      "name": "setRootMintFree",
      "outputs": [],
      "stateMutability": "nonpayable",
      "type": "function"
    },
    {
      "inputs": [
        {
          "internalType": "bool",
          "name": "_saleStatus",
          "type": "bool"
        }
      ],
      "name": "setSale",
      "outputs": [],
      "stateMutability": "nonpayable",
      "type": "function"
    },
    {
      "inputs": [
        {
          "internalType": "bool",
          "name": "_revealed",
          "type": "bool"
        },
        {
          "internalType": "string",
          "name": "_tokenBaseURI",
          "type": "string"
        }
      ],
      "name": "setURIStatus",
      "outputs": [],
      "stateMutability": "nonpayable",
      "type": "function"
    },
    {
      "inputs": [
        {
          "internalType": "bytes4",
          "name": "interfaceId",
          "type": "bytes4"
        }
      ],
      "name": "supportsInterface",
      "outputs": [
        {
          "internalType": "bool",
          "name": "",
          "type": "bool"
        }
      ],
      "stateMutability": "view",
      "type": "function"
    },
    {
      "inputs": [],
      "name": "symbol",
      "outputs": [
        {
          "internalType": "string",
          "name": "",
          "type": "string"
        }
      ],
      "stateMutability": "view",
      "type": "function"
    },
    {
      "inputs": [
        {
          "internalType": "uint256",
          "name": "index",
          "type": "uint256"
        }
      ],
      "name": "tokenByIndex",
      "outputs": [
        {
          "internalType": "uint256",
          "name": "",
          "type": "uint256"
        }
      ],
      "stateMutability": "view",
      "type": "function"
    },
    {
      "inputs": [
        {
          "internalType": "address",
          "name": "owner",
          "type": "address"
        },
        {
          "internalType": "uint256",
          "name": "index",
          "type": "uint256"
        }
      ],
      "name": "tokenOfOwnerByIndex",
      "outputs": [
        {
          "internalType": "uint256",
          "name": "",
          "type": "uint256"
        }
      ],
      "stateMutability": "view",
      "type": "function"
    },
    {
      "inputs": [
        {
          "internalType": "uint256",
          "name": "tokenId",
          "type": "uint256"
        }
      ],
      "name": "tokenURI",
      "outputs": [
        {
          "internalType": "string",
          "name": "",
          "type": "string"
        }
      ],
      "stateMutability": "view",
      "type": "function"
    },
    {
      "inputs": [],
      "name": "totalSupply",
      "outputs": [
        {
          "internalType": "uint256",
          "name": "",
          "type": "uint256"
        }
      ],
      "stateMutability": "view",
      "type": "function"
    },
    {
      "inputs": [
        {
          "internalType": "address",
          "name": "from",
          "type": "address"
        },
        {
          "internalType": "address",
          "name": "to",
          "type": "address"
        },
        {
          "internalType": "uint256",
          "name": "tokenId",
          "type": "uint256"
        }
      ],
      "name": "transferFrom",
      "outputs": [],
      "stateMutability": "nonpayable",
      "type": "function"
    },
    {
      "inputs": [
        {
          "internalType": "address",
          "name": "newOwner",
          "type": "address"
        }
      ],
      "name": "transferOwnership",
      "outputs": [],
      "stateMutability": "nonpayable",
      "type": "function"
    },
    {
      "inputs": [],
      "name": "withdraw",
      "outputs": [],
      "stateMutability": "nonpayable",
      "type": "function"
    }
  ],
  "bytecode": "0x60c0604052600a600b5567016345785d8a0000600c556701118f178fb48000600d556000600e60006101000a81548160ff0219169083151502179055506000600e60016101000a81548160ff0219169083151502179055506000600e60026101000a81548160ff0219169083151502179055506000601160006101000a81548160ff0219169083151502179055506000601660006101000a81548160ff021916908315150217905550348015620000b557600080fd5b5060405162007047380380620070478339818101604052810190620000db919062000cd4565b84846040518060400160405280600381526020017f504d5600000000000000000000000000000000000000000000000000000000008152506040518060400160405280600681526020017f504d56544b4e000000000000000000000000000000000000000000000000000081525081600090805190602001906200016192919062000b6d565b5080600190805190602001906200017a92919062000b6d565b5050506200019d62000191620002ac60201b60201c565b620002b460201b60201c565b8173ffffffffffffffffffffffffffffffffffffffff1660a08173ffffffffffffffffffffffffffffffffffffffff1660601b815250508073ffffffffffffffffffffffffffffffffffffffff1660808173ffffffffffffffffffffffffffffffffffffffff1660601b8152505050508860128190555087601090805190602001906200022c92919062000b6d565b50866013819055508560148190555082601b8190555081601c8190555080601660016101000a81548173ffffffffffffffffffffffffffffffffffffffff021916908373ffffffffffffffffffffffffffffffffffffffff1602179055506200029d3360016200037a60201b60201c565b50505050505050505062001220565b600033905090565b6000600a60009054906101000a900473ffffffffffffffffffffffffffffffffffffffff16905081600a60006101000a81548173ffffffffffffffffffffffffffffffffffffffff021916908373ffffffffffffffffffffffffffffffffffffffff1602179055508173ffffffffffffffffffffffffffffffffffffffff168173ffffffffffffffffffffffffffffffffffffffff167f8be0079c531659141344cd1fd0a4f28419497f9722a3daafe3b4186f6b6457e060405160405180910390a35050565b600073ffffffffffffffffffffffffffffffffffffffff168273ffffffffffffffffffffffffffffffffffffffff161415620003ed576040517f08c379a0000000000000000000000000000000000000000000000000000000008152600401620003e49062000e7f565b60405180910390fd5b620003fe816200056060201b60201c565b1562000441576040517f08c379a0000000000000000000000000000000000000000000000000000000008152600401620004389062000e3b565b60405180910390fd5b6200045560008383620005cc60201b60201c565b6001600360008473ffffffffffffffffffffffffffffffffffffffff1673ffffffffffffffffffffffffffffffffffffffff1681526020019081526020016000206000828254620004a7919062000f11565b92505081905550816002600083815260200190815260200160002060006101000a81548173ffffffffffffffffffffffffffffffffffffffff021916908373ffffffffffffffffffffffffffffffffffffffff160217905550808273ffffffffffffffffffffffffffffffffffffffff16600073ffffffffffffffffffffffffffffffffffffffff167fddf252ad1be2c89b69c2b068fc378daa952ba7f163c4a11628f55a4df523b3ef60405160405180910390a45050565b60008073ffffffffffffffffffffffffffffffffffffffff166002600084815260200190815260200160002060009054906101000a900473ffffffffffffffffffffffffffffffffffffffff1673ffffffffffffffffffffffffffffffffffffffff1614159050919050565b620005e48383836200071360201b620026c11760201c565b600073ffffffffffffffffffffffffffffffffffffffff168373ffffffffffffffffffffffffffffffffffffffff16141562000631576200062b816200071860201b60201c565b62000679565b8173ffffffffffffffffffffffffffffffffffffffff168373ffffffffffffffffffffffffffffffffffffffff161462000678576200067783826200076160201b60201c565b5b5b600073ffffffffffffffffffffffffffffffffffffffff168273ffffffffffffffffffffffffffffffffffffffff161415620006c657620006c081620008de60201b60201c565b6200070e565b8273ffffffffffffffffffffffffffffffffffffffff168273ffffffffffffffffffffffffffffffffffffffff16146200070d576200070c828262000a2660201b60201c565b5b5b505050565b505050565b6008805490506009600083815260200190815260200160002081905550600881908060018154018082558091505060019003906000526020600020016000909190919091505550565b600060016200077b8462000ab260201b620017f41760201c565b62000787919062000f6e565b90506000600760008481526020019081526020016000205490508181146200086d576000600660008673ffffffffffffffffffffffffffffffffffffffff1673ffffffffffffffffffffffffffffffffffffffff168152602001908152602001600020600084815260200190815260200160002054905080600660008773ffffffffffffffffffffffffffffffffffffffff1673ffffffffffffffffffffffffffffffffffffffff168152602001908152602001600020600084815260200190815260200160002081905550816007600083815260200190815260200160002081905550505b6007600084815260200190815260200160002060009055600660008573ffffffffffffffffffffffffffffffffffffffff1673ffffffffffffffffffffffffffffffffffffffff16815260200190815260200160002060008381526020019081526020016000206000905550505050565b60006001600880549050620008f4919062000f6e565b90506000600960008481526020019081526020016000205490506000600883815481106200094b577f4e487b7100000000000000000000000000000000000000000000000000000000600052603260045260246000fd5b90600052602060002001549050806008838154811062000994577f4e487b7100000000000000000000000000000000000000000000000000000000600052603260045260246000fd5b90600052602060002001819055508160096000838152602001908152602001600020819055506009600085815260200190815260200160002060009055600880548062000a0a577f4e487b7100000000000000000000000000000000000000000000000000000000600052603160045260246000fd5b6001900381819060005260206000200160009055905550505050565b600062000a3e8362000ab260201b620017f41760201c565b905081600660008573ffffffffffffffffffffffffffffffffffffffff1673ffffffffffffffffffffffffffffffffffffffff168152602001908152602001600020600083815260200190815260200160002081905550806007600084815260200190815260200160002081905550505050565b60008073ffffffffffffffffffffffffffffffffffffffff168273ffffffffffffffffffffffffffffffffffffffff16141562000b26576040517f08c379a000000000000000000000000000000000000000000000000000000000815260040162000b1d9062000e5d565b60405180910390fd5b600360008373ffffffffffffffffffffffffffffffffffffffff1673ffffffffffffffffffffffffffffffffffffffff168152602001908152602001600020549050919050565b82805462000b7b9062001027565b90600052602060002090601f01602090048101928262000b9f576000855562000beb565b82601f1062000bba57805160ff191683800117855562000beb565b8280016001018555821562000beb579182015b8281111562000bea57825182559160200191906001019062000bcd565b5b50905062000bfa919062000bfe565b5090565b5b8082111562000c1957600081600090555060010162000bff565b5090565b600062000c3462000c2e8462000eca565b62000ea1565b90508281526020810184848401111562000c4d57600080fd5b62000c5a84828562000ff1565b509392505050565b60008151905062000c7381620011d2565b92915050565b60008151905062000c8a81620011ec565b92915050565b600082601f83011262000ca257600080fd5b815162000cb484826020860162000c1d565b91505092915050565b60008151905062000cce8162001206565b92915050565b60008060008060008060008060006101208a8c03121562000cf457600080fd5b600062000d048c828d0162000c79565b99505060208a015167ffffffffffffffff81111562000d2257600080fd5b62000d308c828d0162000c90565b985050604062000d438c828d0162000c79565b975050606062000d568c828d0162000c79565b965050608062000d698c828d0162000c62565b95505060a062000d7c8c828d0162000c62565b94505060c062000d8f8c828d0162000c79565b93505060e062000da28c828d0162000cbd565b92505061010062000db68c828d0162000c62565b9150509295985092959850929598565b600062000dd5601c8362000f00565b915062000de28262001131565b602082019050919050565b600062000dfc602a8362000f00565b915062000e09826200115a565b604082019050919050565b600062000e2360208362000f00565b915062000e3082620011a9565b602082019050919050565b6000602082019050818103600083015262000e568162000dc6565b9050919050565b6000602082019050818103600083015262000e788162000ded565b9050919050565b6000602082019050818103600083015262000e9a8162000e14565b9050919050565b600062000ead62000ec0565b905062000ebb82826200105d565b919050565b6000604051905090565b600067ffffffffffffffff82111562000ee85762000ee7620010f1565b5b62000ef38262001120565b9050602081019050919050565b600082825260208201905092915050565b600062000f1e8262000fe7565b915062000f2b8362000fe7565b9250827fffffffffffffffffffffffffffffffffffffffffffffffffffffffffffffffff0382111562000f635762000f6262001093565b5b828201905092915050565b600062000f7b8262000fe7565b915062000f888362000fe7565b92508282101562000f9e5762000f9d62001093565b5b828203905092915050565b600062000fb68262000fc7565b9050919050565b6000819050919050565b600073ffffffffffffffffffffffffffffffffffffffff82169050919050565b6000819050919050565b60005b838110156200101157808201518184015260208101905062000ff4565b8381111562001021576000848401525b50505050565b600060028204905060018216806200104057607f821691505b60208210811415620010575762001056620010c2565b5b50919050565b620010688262001120565b810181811067ffffffffffffffff821117156200108a5762001089620010f1565b5b80604052505050565b7f4e487b7100000000000000000000000000000000000000000000000000000000600052601160045260246000fd5b7f4e487b7100000000000000000000000000000000000000000000000000000000600052602260045260246000fd5b7f4e487b7100000000000000000000000000000000000000000000000000000000600052604160045260246000fd5b6000601f19601f8301169050919050565b7f4552433732313a20746f6b656e20616c7265616479206d696e74656400000000600082015250565b7f4552433732313a2062616c616e636520717565727920666f7220746865207a6560008201527f726f206164647265737300000000000000000000000000000000000000000000602082015250565b7f4552433732313a206d696e7420746f20746865207a65726f2061646472657373600082015250565b620011dd8162000fa9565b8114620011e957600080fd5b50565b620011f78162000fbd565b81146200120357600080fd5b50565b620012118162000fe7565b81146200121d57600080fd5b50565b60805160601c60a05160601c615ded6200125a60003960008181611d5301526133a801526000818161223d015261336c0152615ded6000f3fe6080604052600436106102925760003560e01c80636f8d93051161015a578063c54e73e3116100c1578063d5abeb011161007a578063d5abeb01146109d1578063dab5f340146109fc578063e985e9c514610a25578063ebf0c71714610a62578063f2fde38b14610a8d578063f51f96dd14610ab657610292565b8063c54e73e3146108c1578063c6ab67a3146108ea578063c87b56dd14610915578063cc7a856c14610952578063ccfdd2f81461097d578063d5556544146109a657610292565b806392c46da31161011357806392c46da3146107d657806394985ddd146107ff57806395d89b4114610828578063a0712d6814610853578063a22cb4651461086f578063b88d4fde1461089857610292565b80636f8d9305146106c857806370a08231146106f1578063715018a61461072e5780638d17e712146107455780638da5cb5b1461078257806391b7f5ed146107ad57610292565b80633549345e116101fe5780634f6ccce7116101b75780634f6ccce7146105a257806353135ca0146105df5780635fc9c0e61461060a5780636352211e1461063557806367753a151461067257806368428a1b1461069d57610292565b80633549345e146104c75780633c14a2de146104f05780633ccfd60b1461050c57806342842e0e146105235780634b8feb4f1461054c5780634b980d671461057757610292565b80631d2e5a3a116102505780631d2e5a3a146103bb5780631fbb4e27146103e457806323b872dd1461040d57806329770e04146104365780632a613fa71461045f5780632f745c591461048a57610292565b80620e7fa81461029757806301ffc9a7146102c257806306fdde03146102ff578063081812fc1461032a578063095ea7b31461036757806318160ddd14610390575b600080fd5b3480156102a357600080fd5b506102ac610ae1565b6040516102b9919061505c565b60405180910390f35b3480156102ce57600080fd5b506102e960048036038101906102e491906141af565b610ae7565b6040516102f69190614af6565b60405180910390f35b34801561030b57600080fd5b50610314610b61565b6040516103219190614b9a565b60405180910390f35b34801561033657600080fd5b50610351600480360381019061034c9190614201565b610bf3565b60405161035e9190614a51565b60405180910390f35b34801561037357600080fd5b5061038e60048036038101906103899190614064565b610c78565b005b34801561039c57600080fd5b506103a5610d90565b6040516103b2919061505c565b60405180910390f35b3480156103c757600080fd5b506103e260048036038101906103dd91906140a0565b610d9d565b005b3480156103f057600080fd5b5061040b6004803603810190610406919061414a565b610e36565b005b34801561041957600080fd5b50610434600480360381019061042f9190613f5e565b610f03565b005b34801561044257600080fd5b5061045d600480360381019061045891906140a0565b610f63565b005b34801561046b57600080fd5b50610474610ffc565b6040516104819190614af6565b60405180910390f35b34801561049657600080fd5b506104b160048036038101906104ac9190614064565b61100f565b6040516104be919061505c565b60405180910390f35b3480156104d357600080fd5b506104ee60048036038101906104e99190614201565b6110b4565b005b61050a60048036038101906105059190614253565b61113a565b005b34801561051857600080fd5b50610521611464565b005b34801561052f57600080fd5b5061054a60048036038101906105459190613f5e565b61152d565b005b34801561055857600080fd5b5061056161154d565b60405161056e9190614a51565b60405180910390f35b34801561058357600080fd5b5061058c611573565b604051610599919061505c565b60405180910390f35b3480156105ae57600080fd5b506105c960048036038101906105c49190614201565b611579565b6040516105d6919061505c565b60405180910390f35b3480156105eb57600080fd5b506105f4611610565b6040516106019190614af6565b60405180910390f35b34801561061657600080fd5b5061061f611623565b60405161062c9190614b11565b60405180910390f35b34801561064157600080fd5b5061065c60048036038101906106579190614201565b611629565b6040516106699190614a51565b60405180910390f35b34801561067e57600080fd5b506106876116db565b6040516106949190614af6565b60405180910390f35b3480156106a957600080fd5b506106b26116ee565b6040516106bf9190614af6565b60405180910390f35b3480156106d457600080fd5b506106ef60048036038101906106ea91906140f2565b611701565b005b3480156106fd57600080fd5b5061071860048036038101906107139190613ef9565b6117f4565b604051610725919061505c565b60405180910390f35b34801561073a57600080fd5b506107436118ac565b005b34801561075157600080fd5b5061076c60048036038101906107679190614201565b611934565b6040516107799190614b9a565b60405180910390f35b34801561078e57600080fd5b50610797611a17565b6040516107a49190614a51565b60405180910390f35b3480156107b957600080fd5b506107d460048036038101906107cf9190614201565b611a41565b005b3480156107e257600080fd5b506107fd60048036038101906107f89190614253565b611ac7565b005b34801561080b57600080fd5b5061082660048036038101906108219190614173565b611d51565b005b34801561083457600080fd5b5061083d611ded565b60405161084a9190614b9a565b60405180910390f35b61086d60048036038101906108689190614201565b611e7f565b005b34801561087b57600080fd5b5061089660048036038101906108919190614028565b612049565b005b3480156108a457600080fd5b506108bf60048036038101906108ba9190613fad565b61205f565b005b3480156108cd57600080fd5b506108e860048036038101906108e391906140a0565b6120c1565b005b3480156108f657600080fd5b506108ff61215a565b60405161090c9190614b11565b60405180910390f35b34801561092157600080fd5b5061093c60048036038101906109379190614201565b612160565b6040516109499190614b9a565b60405180910390f35b34801561095e57600080fd5b506109676121ba565b6040516109749190614b11565b60405180910390f35b34801561098957600080fd5b506109a4600480360381019061099f9190614201565b612388565b005b3480156109b257600080fd5b506109bb612451565b6040516109c8919061505c565b60405180910390f35b3480156109dd57600080fd5b506109e6612457565b6040516109f3919061505c565b60405180910390f35b348015610a0857600080fd5b50610a236004803603810190610a1e919061414a565b61245c565b005b348015610a3157600080fd5b50610a4c6004803603810190610a479190613f22565b612529565b604051610a599190614af6565b60405180910390f35b348015610a6e57600080fd5b50610a776125bd565b604051610a849190614b11565b60405180910390f35b348015610a9957600080fd5b50610ab46004803603810190610aaf9190613ef9565b6125c3565b005b348015610ac257600080fd5b50610acb6126bb565b604051610ad8919061505c565b60405180910390f35b600d5481565b60007f780e9d63000000000000000000000000000000000000000000000000000000007bffffffffffffffffffffffffffffffffffffffffffffffffffffffff1916827bffffffffffffffffffffffffffffffffffffffffffffffffffffffff19161480610b5a5750610b59826126c6565b5b9050919050565b606060008054610b7090615305565b80601f0160208091040260200160405190810160405280929190818152602001828054610b9c90615305565b8015610be95780601f10610bbe57610100808354040283529160200191610be9565b820191906000526020600020905b815481529060010190602001808311610bcc57829003601f168201915b5050505050905090565b6000610bfe826127a8565b610c3d576040517f08c379a0000000000000000000000000000000000000000000000000000000008152600401610c3490614e3c565b60405180910390fd5b6004600083815260200190815260200160002060009054906101000a900473ffffffffffffffffffffffffffffffffffffffff169050919050565b6000610c8382611629565b90508073ffffffffffffffffffffffffffffffffffffffff168373ffffffffffffffffffffffffffffffffffffffff161415610cf4576040517f08c379a0000000000000000000000000000000000000000000000000000000008152600401610ceb90614f1c565b60405180910390fd5b8073ffffffffffffffffffffffffffffffffffffffff16610d13612814565b73ffffffffffffffffffffffffffffffffffffffff161480610d425750610d4181610d3c612814565b612529565b5b610d81576040517f08c379a0000000000000000000000000000000000000000000000000000000008152600401610d7890614dbc565b60405180910390fd5b610d8b838361281c565b505050565b6000600880549050905090565b610da5612814565b73ffffffffffffffffffffffffffffffffffffffff16610dc3611a17565b73ffffffffffffffffffffffffffffffffffffffff1614610e19576040517f08c379a0000000000000000000000000000000000000000000000000000000008152600401610e1090614e5c565b60405180910390fd5b80600e60026101000a81548160ff02191690831515021790555050565b610e3e612814565b73ffffffffffffffffffffffffffffffffffffffff16610e5c611a17565b73ffffffffffffffffffffffffffffffffffffffff1614610eb2576040517f08c379a0000000000000000000000000000000000000000000000000000000008152600401610ea990614e5c565b60405180910390fd5b6000602060ff1611610ef9576040517f08c379a0000000000000000000000000000000000000000000000000000000008152600401610ef09061501c565b60405180910390fd5b8060138190555050565b610f14610f0e612814565b826128d5565b610f53576040517f08c379a0000000000000000000000000000000000000000000000000000000008152600401610f4a90614f5c565b60405180910390fd5b610f5e8383836129b3565b505050565b610f6b612814565b73ffffffffffffffffffffffffffffffffffffffff16610f89611a17565b73ffffffffffffffffffffffffffffffffffffffff1614610fdf576040517f08c379a0000000000000000000000000000000000000000000000000000000008152600401610fd690614e5c565b60405180910390fd5b80600e60016101000a81548160ff02191690831515021790555050565b600e60019054906101000a900460ff1681565b600061101a836117f4565b821061105b576040517f08c379a000000000000000000000000000000000000000000000000000000000815260040161105290614bdc565b60405180910390fd5b600660008473ffffffffffffffffffffffffffffffffffffffff1673ffffffffffffffffffffffffffffffffffffffff168152602001908152602001600020600083815260200190815260200160002054905092915050565b6110bc612814565b73ffffffffffffffffffffffffffffffffffffffff166110da611a17565b73ffffffffffffffffffffffffffffffffffffffff1614611130576040517f08c379a000000000000000000000000000000000000000000000000000000000815260040161112790614e5c565b60405180910390fd5b80600d8190555050565b600e60009054906101000a900460ff16611189576040517f08c379a000000000000000000000000000000000000000000000000000000000815260040161118090614fdc565b60405180910390fd5b600e60029054906101000a900460ff16156111d9576040517f08c379a00000000000000000000000000000000000000000000000000000000081526004016111d090614efc565b60405180910390fd5b61125960125433866040516020016111f2929190614994565b60405160208183030381529060405280519060200120858580806020026020016040519081016040528093929190818152602001838360200280828437600081840152601f19601f82011690508083019250505050505050612c0f9092919063ffffffff16565b611298576040517f08c379a000000000000000000000000000000000000000000000000000000000815260040161128f90614d7c565b60405180910390fd5b8381601860003373ffffffffffffffffffffffffffffffffffffffff1673ffffffffffffffffffffffffffffffffffffffff168152602001908152602001600020546112e49190615130565b1115611325576040517f08c379a000000000000000000000000000000000000000000000000000000000815260040161131c90614fbc565b60405180910390fd5b34600d548261133491906151b7565b1115611375576040517f08c379a000000000000000000000000000000000000000000000000000000000815260040161136c90614c7c565b60405180910390fd5b600061137f610d90565b9050601e818361138f9190615130565b11156113d0576040517f08c379a00000000000000000000000000000000000000000000000000000000081526004016113c790614c9c565b60405180910390fd5b6000600190505b828111611406576113f33382846113ee9190615130565b612c26565b80806113fe90615368565b9150506113d7565b5081601860003373ffffffffffffffffffffffffffffffffffffffff1673ffffffffffffffffffffffffffffffffffffffff16815260200190815260200160002060008282546114569190615130565b925050819055505050505050565b61146c612814565b73ffffffffffffffffffffffffffffffffffffffff1661148a611a17565b73ffffffffffffffffffffffffffffffffffffffff16146114e0576040517f08c379a00000000000000000000000000000000000000000000000000000000081526004016114d790614e5c565b60405180910390fd5b61152b47601660019054906101000a900473ffffffffffffffffffffffffffffffffffffffff1673ffffffffffffffffffffffffffffffffffffffff16612df490919063ffffffff16565b565b6115488383836040518060200160405280600081525061205f565b505050565b601660019054906101000a900473ffffffffffffffffffffffffffffffffffffffff1681565b600b5481565b6000611583610d90565b82106115c4576040517f08c379a00000000000000000000000000000000000000000000000000000000081526004016115bb90614f7c565b60405180910390fd5b600882815481106115fe577f4e487b7100000000000000000000000000000000000000000000000000000000600052603260045260246000fd5b90600052602060002001549050919050565b600e60009054906101000a900460ff1681565b60135481565b6000806002600084815260200190815260200160002060009054906101000a900473ffffffffffffffffffffffffffffffffffffffff169050600073ffffffffffffffffffffffffffffffffffffffff168173ffffffffffffffffffffffffffffffffffffffff1614156116d2576040517f08c379a00000000000000000000000000000000000000000000000000000000081526004016116c990614dfc565b60405180910390fd5b80915050919050565b601660009054906101000a900460ff1681565b600e60029054906101000a900460ff1681565b611709612814565b73ffffffffffffffffffffffffffffffffffffffff16611727611a17565b73ffffffffffffffffffffffffffffffffffffffff161461177d576040517f08c379a000000000000000000000000000000000000000000000000000000000815260040161177490614e5c565b60405180910390fd5b600082829050116117c3576040517f08c379a00000000000000000000000000000000000000000000000000000000081526004016117ba9061503c565b60405180910390fd5b82601160006101000a81548160ff0219169083151502179055508181600f91906117ee929190613cb2565b50505050565b60008073ffffffffffffffffffffffffffffffffffffffff168273ffffffffffffffffffffffffffffffffffffffff161415611865576040517f08c379a000000000000000000000000000000000000000000000000000000000815260040161185c90614ddc565b60405180910390fd5b600360008373ffffffffffffffffffffffffffffffffffffffff1673ffffffffffffffffffffffffffffffffffffffff168152602001908152602001600020549050919050565b6118b4612814565b73ffffffffffffffffffffffffffffffffffffffff166118d2611a17565b73ffffffffffffffffffffffffffffffffffffffff1614611928576040517f08c379a000000000000000000000000000000000000000000000000000000000815260040161191f90614e5c565b60405180910390fd5b6119326000612ee8565b565b606060001515601160009054906101000a900460ff16151514156119e4576010805461195f90615305565b80601f016020809104026020016040519081016040528092919081815260200182805461198b90615305565b80156119d85780601f106119ad576101008083540402835291602001916119d8565b820191906000526020600020905b8154815290600101906020018083116119bb57829003601f168201915b50505050509050611a12565b600f6119ef83612fae565b604051602001611a00929190614a18565b60405160208183030381529060405290505b919050565b6000600a60009054906101000a900473ffffffffffffffffffffffffffffffffffffffff16905090565b611a49612814565b73ffffffffffffffffffffffffffffffffffffffff16611a67611a17565b73ffffffffffffffffffffffffffffffffffffffff1614611abd576040517f08c379a0000000000000000000000000000000000000000000000000000000008152600401611ab490614e5c565b60405180910390fd5b80600c8190555050565b600e60019054906101000a900460ff16611b16576040517f08c379a0000000000000000000000000000000000000000000000000000000008152600401611b0d90614ffc565b60405180910390fd5b611b966013543386604051602001611b2f929190614994565b60405160208183030381529060405280519060200120858580806020026020016040519081016040528093929190818152602001838360200280828437600081840152601f19601f82011690508083019250505050505050612c0f9092919063ffffffff16565b611bd5576040517f08c379a0000000000000000000000000000000000000000000000000000000008152600401611bcc90614ebc565b60405180910390fd5b8381601960003373ffffffffffffffffffffffffffffffffffffffff1673ffffffffffffffffffffffffffffffffffffffff16815260200190815260200160002054611c219190615130565b1115611c62576040517f08c379a0000000000000000000000000000000000000000000000000000000008152600401611c5990614fbc565b60405180910390fd5b6000611c6c610d90565b9050601e8183611c7c9190615130565b1115611cbd576040517f08c379a0000000000000000000000000000000000000000000000000000000008152600401611cb490614c9c565b60405180910390fd5b6000600190505b828111611cf357611ce0338284611cdb9190615130565b612c26565b8080611ceb90615368565b915050611cc4565b5081601960003373ffffffffffffffffffffffffffffffffffffffff1673ffffffffffffffffffffffffffffffffffffffff1681526020019081526020016000206000828254611d439190615130565b925050819055505050505050565b7f000000000000000000000000000000000000000000000000000000000000000073ffffffffffffffffffffffffffffffffffffffff163373ffffffffffffffffffffffffffffffffffffffff1614611ddf576040517f08c379a0000000000000000000000000000000000000000000000000000000008152600401611dd690614edc565b60405180910390fd5b611de9828261315b565b5050565b606060018054611dfc90615305565b80601f0160208091040260200160405190810160405280929190818152602001828054611e2890615305565b8015611e755780601f10611e4a57610100808354040283529160200191611e75565b820191906000526020600020905b815481529060010190602001808311611e5857829003601f168201915b5050505050905090565b600e60029054906101000a900460ff16611ece576040517f08c379a0000000000000000000000000000000000000000000000000000000008152600401611ec590614f9c565b60405180910390fd5b600e60009054906101000a900460ff1615611f1e576040517f08c379a0000000000000000000000000000000000000000000000000000000008152600401611f1590614c5c565b60405180910390fd5b600b54811115611f63576040517f08c379a0000000000000000000000000000000000000000000000000000000008152600401611f5a90614cbc565b60405180910390fd5b34600c5482611f7291906151b7565b1115611fb3576040517f08c379a0000000000000000000000000000000000000000000000000000000008152600401611faa90614c7c565b60405180910390fd5b6000611fbd610d90565b9050601e8183611fcd9190615130565b111561200e576040517f08c379a000000000000000000000000000000000000000000000000000000000815260040161200590614c9c565b60405180910390fd5b6000600190505b8281116120445761203133828461202c9190615130565b612c26565b808061203c90615368565b915050612015565b505050565b61205b612054612814565b838361319f565b5050565b61207061206a612814565b836128d5565b6120af576040517f08c379a00000000000000000000000000000000000000000000000000000000081526004016120a690614f5c565b60405180910390fd5b6120bb8484848461330c565b50505050565b6120c9612814565b73ffffffffffffffffffffffffffffffffffffffff166120e7611a17565b73ffffffffffffffffffffffffffffffffffffffff161461213d576040517f08c379a000000000000000000000000000000000000000000000000000000000815260040161213490614e5c565b60405180910390fd5b80600e60006101000a81548160ff02191690831515021790555050565b60145481565b606061216b826127a8565b6121aa576040517f08c379a00000000000000000000000000000000000000000000000000000000081526004016121a190614bbc565b60405180910390fd5b6121b382611934565b9050919050565b60006121c4612814565b73ffffffffffffffffffffffffffffffffffffffff166121e2611a17565b73ffffffffffffffffffffffffffffffffffffffff1614612238576040517f08c379a000000000000000000000000000000000000000000000000000000000815260040161222f90614e5c565b60405180910390fd5b601c547f000000000000000000000000000000000000000000000000000000000000000073ffffffffffffffffffffffffffffffffffffffff166370a08231306040518263ffffffff1660e01b81526004016122949190614a51565b60206040518083038186803b1580156122ac57600080fd5b505afa1580156122c0573d6000803e3d6000fd5b505050506040513d601f19601f820116820180604052508101906122e4919061422a565b1015612325576040517f08c379a000000000000000000000000000000000000000000000000000000000815260040161231c90614f3c565b60405180910390fd5b601660009054906101000a900460ff1615612375576040517f08c379a000000000000000000000000000000000000000000000000000000000815260040161236c90614e9c565b60405180910390fd5b612383601b54601c54613368565b905090565b612390612814565b73ffffffffffffffffffffffffffffffffffffffff166123ae611a17565b73ffffffffffffffffffffffffffffffffffffffff1614612404576040517f08c379a00000000000000000000000000000000000000000000000000000000081526004016123fb90614e5c565b60405180910390fd5b60008111612447576040517f08c379a000000000000000000000000000000000000000000000000000000000815260040161243e90614d9c565b60405180910390fd5b80600b8190555050565b60155481565b601e81565b612464612814565b73ffffffffffffffffffffffffffffffffffffffff16612482611a17565b73ffffffffffffffffffffffffffffffffffffffff16146124d8576040517f08c379a00000000000000000000000000000000000000000000000000000000081526004016124cf90614e5c565b60405180910390fd5b6000602060ff161161251f576040517f08c379a00000000000000000000000000000000000000000000000000000000081526004016125169061501c565b60405180910390fd5b8060128190555050565b6000600560008473ffffffffffffffffffffffffffffffffffffffff1673ffffffffffffffffffffffffffffffffffffffff16815260200190815260200160002060008373ffffffffffffffffffffffffffffffffffffffff1673ffffffffffffffffffffffffffffffffffffffff16815260200190815260200160002060009054906101000a900460ff16905092915050565b60125481565b6125cb612814565b73ffffffffffffffffffffffffffffffffffffffff166125e9611a17565b73ffffffffffffffffffffffffffffffffffffffff161461263f576040517f08c379a000000000000000000000000000000000000000000000000000000000815260040161263690614e5c565b60405180910390fd5b600073ffffffffffffffffffffffffffffffffffffffff168173ffffffffffffffffffffffffffffffffffffffff1614156126af576040517f08c379a00000000000000000000000000000000000000000000000000000000081526004016126a690614c1c565b60405180910390fd5b6126b881612ee8565b50565b600c5481565b505050565b60007f80ac58cd000000000000000000000000000000000000000000000000000000007bffffffffffffffffffffffffffffffffffffffffffffffffffffffff1916827bffffffffffffffffffffffffffffffffffffffffffffffffffffffff1916148061279157507f5b5e139f000000000000000000000000000000000000000000000000000000007bffffffffffffffffffffffffffffffffffffffffffffffffffffffff1916827bffffffffffffffffffffffffffffffffffffffffffffffffffffffff1916145b806127a157506127a0826134ca565b5b9050919050565b60008073ffffffffffffffffffffffffffffffffffffffff166002600084815260200190815260200160002060009054906101000a900473ffffffffffffffffffffffffffffffffffffffff1673ffffffffffffffffffffffffffffffffffffffff1614159050919050565b600033905090565b816004600083815260200190815260200160002060006101000a81548173ffffffffffffffffffffffffffffffffffffffff021916908373ffffffffffffffffffffffffffffffffffffffff160217905550808273ffffffffffffffffffffffffffffffffffffffff1661288f83611629565b73ffffffffffffffffffffffffffffffffffffffff167f8c5be1e5ebec7d5bd14f71427d1e84f3dd0314c0f7b2291e5b200ac8c7c3b92560405160405180910390a45050565b60006128e0826127a8565b61291f576040517f08c379a000000000000000000000000000000000000000000000000000000000815260040161291690614d5c565b60405180910390fd5b600061292a83611629565b90508073ffffffffffffffffffffffffffffffffffffffff168473ffffffffffffffffffffffffffffffffffffffff16148061299957508373ffffffffffffffffffffffffffffffffffffffff1661298184610bf3565b73ffffffffffffffffffffffffffffffffffffffff16145b806129aa57506129a98185612529565b5b91505092915050565b8273ffffffffffffffffffffffffffffffffffffffff166129d382611629565b73ffffffffffffffffffffffffffffffffffffffff1614612a29576040517f08c379a0000000000000000000000000000000000000000000000000000000008152600401612a2090614e7c565b60405180910390fd5b600073ffffffffffffffffffffffffffffffffffffffff168273ffffffffffffffffffffffffffffffffffffffff161415612a99576040517f08c379a0000000000000000000000000000000000000000000000000000000008152600401612a9090614cdc565b60405180910390fd5b612aa4838383613534565b612aaf60008261281c565b6001600360008573ffffffffffffffffffffffffffffffffffffffff1673ffffffffffffffffffffffffffffffffffffffff1681526020019081526020016000206000828254612aff9190615211565b925050819055506001600360008473ffffffffffffffffffffffffffffffffffffffff1673ffffffffffffffffffffffffffffffffffffffff1681526020019081526020016000206000828254612b569190615130565b92505081905550816002600083815260200190815260200160002060006101000a81548173ffffffffffffffffffffffffffffffffffffffff021916908373ffffffffffffffffffffffffffffffffffffffff160217905550808273ffffffffffffffffffffffffffffffffffffffff168473ffffffffffffffffffffffffffffffffffffffff167fddf252ad1be2c89b69c2b068fc378daa952ba7f163c4a11628f55a4df523b3ef60405160405180910390a4505050565b600082612c1c8584613648565b1490509392505050565b600073ffffffffffffffffffffffffffffffffffffffff168273ffffffffffffffffffffffffffffffffffffffff161415612c96576040517f08c379a0000000000000000000000000000000000000000000000000000000008152600401612c8d90614e1c565b60405180910390fd5b612c9f816127a8565b15612cdf576040517f08c379a0000000000000000000000000000000000000000000000000000000008152600401612cd690614c3c565b60405180910390fd5b612ceb60008383613534565b6001600360008473ffffffffffffffffffffffffffffffffffffffff1673ffffffffffffffffffffffffffffffffffffffff1681526020019081526020016000206000828254612d3b9190615130565b92505081905550816002600083815260200190815260200160002060006101000a81548173ffffffffffffffffffffffffffffffffffffffff021916908373ffffffffffffffffffffffffffffffffffffffff160217905550808273ffffffffffffffffffffffffffffffffffffffff16600073ffffffffffffffffffffffffffffffffffffffff167fddf252ad1be2c89b69c2b068fc378daa952ba7f163c4a11628f55a4df523b3ef60405160405180910390a45050565b80471015612e37576040517f08c379a0000000000000000000000000000000000000000000000000000000008152600401612e2e90614d3c565b60405180910390fd5b60008273ffffffffffffffffffffffffffffffffffffffff1682604051612e5d90614a3c565b60006040518083038185875af1925050503d8060008114612e9a576040519150601f19603f3d011682016040523d82523d6000602084013e612e9f565b606091505b5050905080612ee3576040517f08c379a0000000000000000000000000000000000000000000000000000000008152600401612eda90614d1c565b60405180910390fd5b505050565b6000600a60009054906101000a900473ffffffffffffffffffffffffffffffffffffffff16905081600a60006101000a81548173ffffffffffffffffffffffffffffffffffffffff021916908373ffffffffffffffffffffffffffffffffffffffff1602179055508173ffffffffffffffffffffffffffffffffffffffff168173ffffffffffffffffffffffffffffffffffffffff167f8be0079c531659141344cd1fd0a4f28419497f9722a3daafe3b4186f6b6457e060405160405180910390a35050565b60606000821415612ff6576040518060400160405280600181526020017f30000000000000000000000000000000000000000000000000000000000000008152509050613156565b600082905060005b6000821461302857808061301190615368565b915050600a826130219190615186565b9150612ffe565b60008167ffffffffffffffff81111561306a577f4e487b7100000000000000000000000000000000000000000000000000000000600052604160045260246000fd5b6040519080825280601f01601f19166020018201604052801561309c5781602001600182028036833780820191505090505b5090505b6000851461314f576001826130b59190615211565b9150600a856130c491906153e9565b60306130d09190615130565b60f81b81838151811061310c577f4e487b7100000000000000000000000000000000000000000000000000000000600052603260045260246000fd5b60200101907effffffffffffffffffffffffffffffffffffffffffffffffffffffffffffff1916908160001a905350600a856131489190615186565b94506130a0565b8093505050505b919050565b60006001601e8361316c91906153e9565b6131769190615130565b9050806015819055506001601660006101000a81548160ff021916908315150217905550505050565b8173ffffffffffffffffffffffffffffffffffffffff168373ffffffffffffffffffffffffffffffffffffffff16141561320e576040517f08c379a000000000000000000000000000000000000000000000000000000000815260040161320590614cfc565b60405180910390fd5b80600560008573ffffffffffffffffffffffffffffffffffffffff1673ffffffffffffffffffffffffffffffffffffffff16815260200190815260200160002060008473ffffffffffffffffffffffffffffffffffffffff1673ffffffffffffffffffffffffffffffffffffffff16815260200190815260200160002060006101000a81548160ff0219169083151502179055508173ffffffffffffffffffffffffffffffffffffffff168373ffffffffffffffffffffffffffffffffffffffff167f17307eab39ab6107e8899845ad3d59bd9653f200f220920489ca2b5937696c31836040516132ff9190614af6565b60405180910390a3505050565b6133178484846129b3565b61332384848484613721565b613362576040517f08c379a000000000000000000000000000000000000000000000000000000000815260040161335990614bfc565b60405180910390fd5b50505050565b60007f000000000000000000000000000000000000000000000000000000000000000073ffffffffffffffffffffffffffffffffffffffff16634000aea07f0000000000000000000000000000000000000000000000000000000000000000848660006040516020016133dc929190614b2c565b6040516020818303038152906040526040518463ffffffff1660e01b815260040161340993929190614ab8565b602060405180830381600087803b15801561342357600080fd5b505af1158015613437573d6000803e3d6000fd5b505050506040513d601f19601f8201168201806040525081019061345b91906140c9565b50600061347e8460003060176000898152602001908152602001600020546138b8565b9050600160176000868152602001908152602001600020546134a09190615130565b60176000868152602001908152602001600020819055506134c184826138f4565b91505092915050565b60007f01ffc9a7000000000000000000000000000000000000000000000000000000007bffffffffffffffffffffffffffffffffffffffffffffffffffffffff1916827bffffffffffffffffffffffffffffffffffffffffffffffffffffffff1916149050919050565b61353f8383836126c1565b600073ffffffffffffffffffffffffffffffffffffffff168373ffffffffffffffffffffffffffffffffffffffff1614156135825761357d81613927565b6135c1565b8173ffffffffffffffffffffffffffffffffffffffff168373ffffffffffffffffffffffffffffffffffffffff16146135c0576135bf8382613970565b5b5b600073ffffffffffffffffffffffffffffffffffffffff168273ffffffffffffffffffffffffffffffffffffffff161415613604576135ff81613add565b613643565b8273ffffffffffffffffffffffffffffffffffffffff168273ffffffffffffffffffffffffffffffffffffffff1614613642576136418282613c20565b5b5b505050565b60008082905060005b8451811015613716576000858281518110613695577f4e487b7100000000000000000000000000000000000000000000000000000000600052603260045260246000fd5b602002602001015190508083116136d65782816040516020016136b99291906149c0565b604051602081830303815290604052805190602001209250613702565b80836040516020016136e99291906149c0565b6040516020818303038152906040528051906020012092505b50808061370e90615368565b915050613651565b508091505092915050565b60006137428473ffffffffffffffffffffffffffffffffffffffff16613c9f565b156138ab578373ffffffffffffffffffffffffffffffffffffffff1663150b7a0261376b612814565b8786866040518563ffffffff1660e01b815260040161378d9493929190614a6c565b602060405180830381600087803b1580156137a757600080fd5b505af19250505080156137d857506040513d601f19601f820116820180604052508101906137d591906141d8565b60015b61385b573d8060008114613808576040519150601f19603f3d011682016040523d82523d6000602084013e61380d565b606091505b50600081511415613853576040517f08c379a000000000000000000000000000000000000000000000000000000000815260040161384a90614bfc565b60405180910390fd5b805181602001fd5b63150b7a0260e01b7bffffffffffffffffffffffffffffffffffffffffffffffffffffffff1916817bffffffffffffffffffffffffffffffffffffffffffffffffffffffff1916149150506138b0565b600190505b949350505050565b6000848484846040516020016138d19493929190614b55565b6040516020818303038152906040528051906020012060001c9050949350505050565b600082826040516020016139099291906149ec565b60405160208183030381529060405280519060200120905092915050565b6008805490506009600083815260200190815260200160002081905550600881908060018154018082558091505060019003906000526020600020016000909190919091505550565b6000600161397d846117f4565b6139879190615211565b9050600060076000848152602001908152602001600020549050818114613a6c576000600660008673ffffffffffffffffffffffffffffffffffffffff1673ffffffffffffffffffffffffffffffffffffffff168152602001908152602001600020600084815260200190815260200160002054905080600660008773ffffffffffffffffffffffffffffffffffffffff1673ffffffffffffffffffffffffffffffffffffffff168152602001908152602001600020600084815260200190815260200160002081905550816007600083815260200190815260200160002081905550505b6007600084815260200190815260200160002060009055600660008573ffffffffffffffffffffffffffffffffffffffff1673ffffffffffffffffffffffffffffffffffffffff16815260200190815260200160002060008381526020019081526020016000206000905550505050565b60006001600880549050613af19190615211565b9050600060096000848152602001908152602001600020549050600060088381548110613b47577f4e487b7100000000000000000000000000000000000000000000000000000000600052603260045260246000fd5b906000526020600020015490508060088381548110613b8f577f4e487b7100000000000000000000000000000000000000000000000000000000600052603260045260246000fd5b906000526020600020018190555081600960008381526020019081526020016000208190555060096000858152602001908152602001600020600090556008805480613c04577f4e487b7100000000000000000000000000000000000000000000000000000000600052603160045260246000fd5b6001900381819060005260206000200160009055905550505050565b6000613c2b836117f4565b905081600660008573ffffffffffffffffffffffffffffffffffffffff1673ffffffffffffffffffffffffffffffffffffffff168152602001908152602001600020600083815260200190815260200160002081905550806007600084815260200190815260200160002081905550505050565b600080823b905060008111915050919050565b828054613cbe90615305565b90600052602060002090601f016020900481019282613ce05760008555613d27565b82601f10613cf957803560ff1916838001178555613d27565b82800160010185558215613d27579182015b82811115613d26578235825591602001919060010190613d0b565b5b509050613d349190613d38565b5090565b5b80821115613d51576000816000905550600101613d39565b5090565b6000613d68613d638461509c565b615077565b905082815260208101848484011115613d8057600080fd5b613d8b8482856152c3565b509392505050565b600081359050613da281615d44565b92915050565b60008083601f840112613dba57600080fd5b8235905067ffffffffffffffff811115613dd357600080fd5b602083019150836020820283011115613deb57600080fd5b9250929050565b600081359050613e0181615d5b565b92915050565b600081519050613e1681615d5b565b92915050565b600081359050613e2b81615d72565b92915050565b600081359050613e4081615d89565b92915050565b600081519050613e5581615d89565b92915050565b600082601f830112613e6c57600080fd5b8135613e7c848260208601613d55565b91505092915050565b60008083601f840112613e9757600080fd5b8235905067ffffffffffffffff811115613eb057600080fd5b602083019150836001820283011115613ec857600080fd5b9250929050565b600081359050613ede81615da0565b92915050565b600081519050613ef381615da0565b92915050565b600060208284031215613f0b57600080fd5b6000613f1984828501613d93565b91505092915050565b60008060408385031215613f3557600080fd5b6000613f4385828601613d93565b9250506020613f5485828601613d93565b9150509250929050565b600080600060608486031215613f7357600080fd5b6000613f8186828701613d93565b9350506020613f9286828701613d93565b9250506040613fa386828701613ecf565b9150509250925092565b60008060008060808587031215613fc357600080fd5b6000613fd187828801613d93565b9450506020613fe287828801613d93565b9350506040613ff387828801613ecf565b925050606085013567ffffffffffffffff81111561401057600080fd5b61401c87828801613e5b565b91505092959194509250565b6000806040838503121561403b57600080fd5b600061404985828601613d93565b925050602061405a85828601613df2565b9150509250929050565b6000806040838503121561407757600080fd5b600061408585828601613d93565b925050602061409685828601613ecf565b9150509250929050565b6000602082840312156140b257600080fd5b60006140c084828501613df2565b91505092915050565b6000602082840312156140db57600080fd5b60006140e984828501613e07565b91505092915050565b60008060006040848603121561410757600080fd5b600061411586828701613df2565b935050602084013567ffffffffffffffff81111561413257600080fd5b61413e86828701613e85565b92509250509250925092565b60006020828403121561415c57600080fd5b600061416a84828501613e1c565b91505092915050565b6000806040838503121561418657600080fd5b600061419485828601613e1c565b92505060206141a585828601613ecf565b9150509250929050565b6000602082840312156141c157600080fd5b60006141cf84828501613e31565b91505092915050565b6000602082840312156141ea57600080fd5b60006141f884828501613e46565b91505092915050565b60006020828403121561421357600080fd5b600061422184828501613ecf565b91505092915050565b60006020828403121561423c57600080fd5b600061424a84828501613ee4565b91505092915050565b6000806000806060858703121561426957600080fd5b600061427787828801613ecf565b945050602085013567ffffffffffffffff81111561429457600080fd5b6142a087828801613da8565b935093505060406142b387828801613ecf565b91505092959194509250565b6142c881615245565b82525050565b6142df6142da82615245565b6153b1565b82525050565b6142ee81615257565b82525050565b6142fd81615263565b82525050565b61431461430f82615263565b6153c3565b82525050565b6000614325826150e2565b61432f81856150f8565b935061433f8185602086016152d2565b614348816154d6565b840191505092915050565b600061435e826150ed565b6143688185615114565b93506143788185602086016152d2565b614381816154d6565b840191505092915050565b6000614397826150ed565b6143a18185615125565b93506143b18185602086016152d2565b80840191505092915050565b600081546143ca81615305565b6143d48186615125565b945060018216600081146143ef576001811461440057614433565b60ff19831686528186019350614433565b614409856150cd565b60005b8381101561442b5781548189015260018201915060208101905061440c565b838801955050505b50505092915050565b6000614449601f83615114565b9150614454826154f4565b602082019050919050565b600061446c602b83615114565b91506144778261551d565b604082019050919050565b600061448f603283615114565b915061449a8261556c565b604082019050919050565b60006144b2602683615114565b91506144bd826155bb565b604082019050919050565b60006144d5601c83615114565b91506144e08261560a565b602082019050919050565b60006144f8601683615114565b915061450382615633565b602082019050919050565b600061451b601883615114565b91506145268261565c565b602082019050919050565b600061453e601883615114565b915061454982615685565b602082019050919050565b6000614561603183615114565b915061456c826156ae565b604082019050919050565b6000614584602483615114565b915061458f826156fd565b604082019050919050565b60006145a7601983615114565b91506145b28261574c565b602082019050919050565b60006145ca603a83615114565b91506145d582615775565b604082019050919050565b60006145ed601d83615114565b91506145f8826157c4565b602082019050919050565b6000614610602c83615114565b915061461b826157ed565b604082019050919050565b6000614633601083615114565b915061463e8261583c565b602082019050919050565b6000614656602483615114565b915061466182615865565b604082019050919050565b6000614679603883615114565b9150614684826158b4565b604082019050919050565b600061469c602a83615114565b91506146a782615903565b604082019050919050565b60006146bf602983615114565b91506146ca82615952565b604082019050919050565b60006146e2602083615114565b91506146ed826159a1565b602082019050919050565b6000614705602c83615114565b9150614710826159ca565b604082019050919050565b6000614728602083615114565b915061473382615a19565b602082019050919050565b600061474b602983615114565b915061475682615a42565b604082019050919050565b600061476e601f83615114565b915061477982615a91565b602082019050919050565b6000614791601a83615114565b915061479c82615aba565b602082019050919050565b60006147b4601f83615114565b91506147bf82615ae3565b602082019050919050565b60006147d7601583615114565b91506147e282615b0c565b602082019050919050565b60006147fa602183615114565b915061480582615b35565b604082019050919050565b600061481d601a83615114565b915061482882615b84565b602082019050919050565b6000614840600083615109565b915061484b82615bad565b600082019050919050565b6000614863603183615114565b915061486e82615bb0565b604082019050919050565b6000614886602c83615114565b915061489182615bff565b604082019050919050565b60006148a9600f83615114565b91506148b482615c4e565b602082019050919050565b60006148cc601983615114565b91506148d782615c77565b602082019050919050565b60006148ef601283615114565b91506148fa82615ca0565b602082019050919050565b6000614912601583615114565b915061491d82615cc9565b602082019050919050565b6000614935600e83615114565b915061494082615cf2565b602082019050919050565b6000614958601683615114565b915061496382615d1b565b602082019050919050565b614977816152b9565b82525050565b61498e614989826152b9565b6153df565b82525050565b60006149a082856142ce565b6014820191506149b0828461497d565b6020820191508190509392505050565b60006149cc8285614303565b6020820191506149dc8284614303565b6020820191508190509392505050565b60006149f88285614303565b602082019150614a08828461497d565b6020820191508190509392505050565b6000614a2482856143bd565b9150614a30828461438c565b91508190509392505050565b6000614a4782614833565b9150819050919050565b6000602082019050614a6660008301846142bf565b92915050565b6000608082019050614a8160008301876142bf565b614a8e60208301866142bf565b614a9b604083018561496e565b8181036060830152614aad818461431a565b905095945050505050565b6000606082019050614acd60008301866142bf565b614ada602083018561496e565b8181036040830152614aec818461431a565b9050949350505050565b6000602082019050614b0b60008301846142e5565b92915050565b6000602082019050614b2660008301846142f4565b92915050565b6000604082019050614b4160008301856142f4565b614b4e602083018461496e565b9392505050565b6000608082019050614b6a60008301876142f4565b614b77602083018661496e565b614b8460408301856142bf565b614b91606083018461496e565b95945050505050565b60006020820190508181036000830152614bb48184614353565b905092915050565b60006020820190508181036000830152614bd58161443c565b9050919050565b60006020820190508181036000830152614bf58161445f565b9050919050565b60006020820190508181036000830152614c1581614482565b9050919050565b60006020820190508181036000830152614c35816144a5565b9050919050565b60006020820190508181036000830152614c55816144c8565b9050919050565b60006020820190508181036000830152614c75816144eb565b9050919050565b60006020820190508181036000830152614c958161450e565b9050919050565b60006020820190508181036000830152614cb581614531565b9050919050565b60006020820190508181036000830152614cd581614554565b9050919050565b60006020820190508181036000830152614cf581614577565b9050919050565b60006020820190508181036000830152614d158161459a565b9050919050565b60006020820190508181036000830152614d35816145bd565b9050919050565b60006020820190508181036000830152614d55816145e0565b9050919050565b60006020820190508181036000830152614d7581614603565b9050919050565b60006020820190508181036000830152614d9581614626565b9050919050565b60006020820190508181036000830152614db581614649565b9050919050565b60006020820190508181036000830152614dd58161466c565b9050919050565b60006020820190508181036000830152614df58161468f565b9050919050565b60006020820190508181036000830152614e15816146b2565b9050919050565b60006020820190508181036000830152614e35816146d5565b9050919050565b60006020820190508181036000830152614e55816146f8565b9050919050565b60006020820190508181036000830152614e758161471b565b9050919050565b60006020820190508181036000830152614e958161473e565b9050919050565b60006020820190508181036000830152614eb581614761565b9050919050565b60006020820190508181036000830152614ed581614784565b9050919050565b60006020820190508181036000830152614ef5816147a7565b9050919050565b60006020820190508181036000830152614f15816147ca565b9050919050565b60006020820190508181036000830152614f35816147ed565b9050919050565b60006020820190508181036000830152614f5581614810565b9050919050565b60006020820190508181036000830152614f7581614856565b9050919050565b60006020820190508181036000830152614f9581614879565b9050919050565b60006020820190508181036000830152614fb58161489c565b9050919050565b60006020820190508181036000830152614fd5816148bf565b9050919050565b60006020820190508181036000830152614ff5816148e2565b9050919050565b6000602082019050818103600083015261501581614905565b9050919050565b6000602082019050818103600083015261503581614928565b9050919050565b600060208201905081810360008301526150558161494b565b9050919050565b6000602082019050615071600083018461496e565b92915050565b6000615081615092565b905061508d8282615337565b919050565b6000604051905090565b600067ffffffffffffffff8211156150b7576150b66154a7565b5b6150c0826154d6565b9050602081019050919050565b60008190508160005260206000209050919050565b600081519050919050565b600081519050919050565b600082825260208201905092915050565b600081905092915050565b600082825260208201905092915050565b600081905092915050565b600061513b826152b9565b9150615146836152b9565b9250827fffffffffffffffffffffffffffffffffffffffffffffffffffffffffffffffff0382111561517b5761517a61541a565b5b828201905092915050565b6000615191826152b9565b915061519c836152b9565b9250826151ac576151ab615449565b5b828204905092915050565b60006151c2826152b9565b91506151cd836152b9565b9250817fffffffffffffffffffffffffffffffffffffffffffffffffffffffffffffffff04831182151516156152065761520561541a565b5b828202905092915050565b600061521c826152b9565b9150615227836152b9565b92508282101561523a5761523961541a565b5b828203905092915050565b600061525082615299565b9050919050565b60008115159050919050565b6000819050919050565b60007fffffffff0000000000000000000000000000000000000000000000000000000082169050919050565b600073ffffffffffffffffffffffffffffffffffffffff82169050919050565b6000819050919050565b82818337600083830152505050565b60005b838110156152f05780820151818401526020810190506152d5565b838111156152ff576000848401525b50505050565b6000600282049050600182168061531d57607f821691505b6020821081141561533157615330615478565b5b50919050565b615340826154d6565b810181811067ffffffffffffffff8211171561535f5761535e6154a7565b5b80604052505050565b6000615373826152b9565b91507fffffffffffffffffffffffffffffffffffffffffffffffffffffffffffffffff8214156153a6576153a561541a565b5b600182019050919050565b60006153bc826153cd565b9050919050565b6000819050919050565b60006153d8826154e7565b9050919050565b6000819050919050565b60006153f4826152b9565b91506153ff836152b9565b92508261540f5761540e615449565b5b828206905092915050565b7f4e487b7100000000000000000000000000000000000000000000000000000000600052601160045260246000fd5b7f4e487b7100000000000000000000000000000000000000000000000000000000600052601260045260246000fd5b7f4e487b7100000000000000000000000000000000000000000000000000000000600052602260045260246000fd5b7f4e487b7100000000000000000000000000000000000000000000000000000000600052604160045260246000fd5b6000601f19601f8301169050919050565b60008160601b9050919050565b7f55524920717565727920666f72206e6f6e6578697374656e7420746f6b656e00600082015250565b7f455243373231456e756d657261626c653a206f776e657220696e646578206f7560008201527f74206f6620626f756e6473000000000000000000000000000000000000000000602082015250565b7f4552433732313a207472616e7366657220746f206e6f6e20455243373231526560008201527f63656976657220696d706c656d656e7465720000000000000000000000000000602082015250565b7f4f776e61626c653a206e6577206f776e657220697320746865207a65726f206160008201527f6464726573730000000000000000000000000000000000000000000000000000602082015250565b7f4552433732313a20746f6b656e20616c7265616479206d696e74656400000000600082015250565b7f50524553414c45204f4e4c59205249474854204e4f5700000000000000000000600082015250565b7f494e434f5252454354205041594d454e5420414d4f554e540000000000000000600082015250565b7f4e4f5420454e4f554748204c45465420494e2053544f434b0000000000000000600082015250565b7f4d494e54494e47204d4f5245205448414e20414c4c4f57454420494e2041205360008201527f494e474c45205452414e53414354494f4e000000000000000000000000000000602082015250565b7f4552433732313a207472616e7366657220746f20746865207a65726f2061646460008201527f7265737300000000000000000000000000000000000000000000000000000000602082015250565b7f4552433732313a20617070726f766520746f2063616c6c657200000000000000600082015250565b7f416464726573733a20756e61626c6520746f2073656e642076616c75652c207260008201527f6563697069656e74206d61792068617665207265766572746564000000000000602082015250565b7f416464726573733a20696e73756666696369656e742062616c616e6365000000600082015250565b7f4552433732313a206f70657261746f7220717565727920666f72206e6f6e657860008201527f697374656e7420746f6b656e0000000000000000000000000000000000000000602082015250565b7f4e4f54204f4e20414c4c4f574c49535400000000000000000000000000000000600082015250565b7f6d61785065725472616e73616374696f6e2073686f756c6420626520706f736960008201527f7469766500000000000000000000000000000000000000000000000000000000602082015250565b7f4552433732313a20617070726f76652063616c6c6572206973206e6f74206f7760008201527f6e6572206e6f7220617070726f76656420666f7220616c6c0000000000000000602082015250565b7f4552433732313a2062616c616e636520717565727920666f7220746865207a6560008201527f726f206164647265737300000000000000000000000000000000000000000000602082015250565b7f4552433732313a206f776e657220717565727920666f72206e6f6e657869737460008201527f656e7420746f6b656e0000000000000000000000000000000000000000000000602082015250565b7f4552433732313a206d696e7420746f20746865207a65726f2061646472657373600082015250565b7f4552433732313a20617070726f76656420717565727920666f72206e6f6e657860008201527f697374656e7420746f6b656e0000000000000000000000000000000000000000602082015250565b7f4f776e61626c653a2063616c6c6572206973206e6f7420746865206f776e6572600082015250565b7f4552433732313a207472616e73666572206f6620746f6b656e2074686174206960008201527f73206e6f74206f776e0000000000000000000000000000000000000000000000602082015250565b7f416c72656164792067656e6572617465642072616e646f6d206f666673657400600082015250565b7f4e4f54204f4e2046524545204d494e5420414c4c4f574c495354000000000000600082015250565b7f4f6e6c7920565246436f6f7264696e61746f722063616e2066756c66696c6c00600082015250565b7f53414c4520414354495645205249474854204e4f570000000000000000000000600082015250565b7f4552433732313a20617070726f76616c20746f2063757272656e74206f776e6560008201527f7200000000000000000000000000000000000000000000000000000000000000602082015250565b7f4e6f7420656e6f756768204c494e4b20746f2070617920666565000000000000600082015250565b50565b7f4552433732313a207472616e736665722063616c6c6572206973206e6f74206f60008201527f776e6572206e6f7220617070726f766564000000000000000000000000000000602082015250565b7f455243373231456e756d657261626c653a20676c6f62616c20696e646578206f60008201527f7574206f6620626f756e64730000000000000000000000000000000000000000602082015250565b7f53414c45204e4f54204143544956450000000000000000000000000000000000600082015250565b7f4d494e54494e47204d4f5245205448414e20414c4c4f57454400000000000000600082015250565b7f50524553414c45204e4f54204143544956450000000000000000000000000000600082015250565b7f46726565206d696e74206e6f7420616c6c6f7765640000000000000000000000600082015250565b7f5f726f6f7420697320656d707479000000000000000000000000000000000000600082015250565b7f5f746f6b656e4261736555524920697320656d70747900000000000000000000600082015250565b615d4d81615245565b8114615d5857600080fd5b50565b615d6481615257565b8114615d6f57600080fd5b50565b615d7b81615263565b8114615d8657600080fd5b50565b615d928161526d565b8114615d9d57600080fd5b50565b615da9816152b9565b8114615db457600080fd5b5056fea2646970667358221220ede376693183583d1cc405c64c774a665fcb46803f599f5be438febda120472d64736f6c63430008040033",
  "linkReferences": {},
  "deployedLinkReferences": {}
}