{
  "_format": "hh-sol-artifact-1",
  "contractName": "PMVOptimized",
  "sourceName": "contracts/PMVOptimized.sol",
  "abi": [
    {
      "inputs": [
        {
          "internalType": "bytes32",
          "name": "merkleroot",
          "type": "bytes32"
        },
        {
          "internalType": "string",
          "name": "uri",
          "type": "string"
        }
      ],
      "stateMutability": "nonpayable",
      "type": "constructor"
    },
    {
      "anonymous": false,
      "inputs": [
        {
          "indexed": true,
          "internalType": "address",
          "name": "owner",
          "type": "address"
        },
        {
          "indexed": true,
          "internalType": "address",
          "name": "approved",
          "type": "address"
        },
        {
          "indexed": true,
          "internalType": "uint256",
          "name": "tokenId",
          "type": "uint256"
        }
      ],
      "name": "Approval",
      "type": "event"
    },
    {
      "anonymous": false,
      "inputs": [
        {
          "indexed": true,
          "internalType": "address",
          "name": "owner",
          "type": "address"
        },
        {
          "indexed": true,
          "internalType": "address",
          "name": "operator",
          "type": "address"
        },
        {
          "indexed": false,
          "internalType": "bool",
          "name": "approved",
          "type": "bool"
        }
      ],
      "name": "ApprovalForAll",
      "type": "event"
    },
    {
      "anonymous": false,
      "inputs": [
        {
          "indexed": true,
          "internalType": "address",
          "name": "previousOwner",
          "type": "address"
        },
        {
          "indexed": true,
          "internalType": "address",
          "name": "newOwner",
          "type": "address"
        }
      ],
      "name": "OwnershipTransferred",
      "type": "event"
    },
    {
      "anonymous": false,
      "inputs": [
        {
          "indexed": true,
          "internalType": "address",
          "name": "from",
          "type": "address"
        },
        {
          "indexed": true,
          "internalType": "address",
          "name": "to",
          "type": "address"
        },
        {
          "indexed": true,
          "internalType": "uint256",
          "name": "tokenId",
          "type": "uint256"
        }
      ],
      "name": "Transfer",
      "type": "event"
    },
    {
      "inputs": [
        {
          "internalType": "address",
          "name": "to",
          "type": "address"
        },
        {
          "internalType": "uint256",
          "name": "tokenId",
          "type": "uint256"
        }
      ],
      "name": "approve",
      "outputs": [],
      "stateMutability": "nonpayable",
      "type": "function"
    },
    {
      "inputs": [
        {
          "internalType": "address",
          "name": "owner",
          "type": "address"
        }
      ],
      "name": "balanceOf",
      "outputs": [
        {
          "internalType": "uint256",
          "name": "",
          "type": "uint256"
        }
      ],
      "stateMutability": "view",
      "type": "function"
    },
    {
      "inputs": [
        {
          "internalType": "uint256",
          "name": "tokenId",
          "type": "uint256"
        }
      ],
      "name": "getApproved",
      "outputs": [
        {
          "internalType": "address",
          "name": "",
          "type": "address"
        }
      ],
      "stateMutability": "view",
      "type": "function"
    },
    {
      "inputs": [
        {
          "internalType": "address",
          "name": "owner",
          "type": "address"
        },
        {
          "internalType": "address",
          "name": "operator",
          "type": "address"
        }
      ],
      "name": "isApprovedForAll",
      "outputs": [
        {
          "internalType": "bool",
          "name": "",
          "type": "bool"
        }
      ],
      "stateMutability": "view",
      "type": "function"
    },
    {
      "inputs": [],
      "name": "maxPerWallet",
      "outputs": [
        {
          "internalType": "uint256",
          "name": "",
          "type": "uint256"
        }
      ],
      "stateMutability": "view",
      "type": "function"
    },
    {
      "inputs": [],
      "name": "maxSupply",
      "outputs": [
        {
          "internalType": "uint256",
          "name": "",
          "type": "uint256"
        }
      ],
      "stateMutability": "view",
      "type": "function"
    },
    {
      "inputs": [
        {
          "internalType": "uint256",
          "name": "tokenQuantity",
          "type": "uint256"
        }
      ],
      "name": "mint",
      "outputs": [],
      "stateMutability": "payable",
      "type": "function"
    },
    {
      "inputs": [
        {
          "internalType": "uint256",
          "name": "allowance",
          "type": "uint256"
        },
        {
          "internalType": "bytes32[]",
          "name": "proof",
          "type": "bytes32[]"
        },
        {
          "internalType": "uint256",
          "name": "tokenQuantity",
          "type": "uint256"
        }
      ],
      "name": "mintPresale",
      "outputs": [],
      "stateMutability": "payable",
      "type": "function"
    },
    {
      "inputs": [],
      "name": "name",
      "outputs": [
        {
          "internalType": "string",
          "name": "",
          "type": "string"
        }
      ],
      "stateMutability": "view",
      "type": "function"
    },
    {
      "inputs": [],
      "name": "owner",
      "outputs": [
        {
          "internalType": "address",
          "name": "",
          "type": "address"
        }
      ],
      "stateMutability": "view",
      "type": "function"
    },
    {
      "inputs": [
        {
          "internalType": "uint256",
          "name": "tokenId",
          "type": "uint256"
        }
      ],
      "name": "ownerOf",
      "outputs": [
        {
          "internalType": "address",
          "name": "",
          "type": "address"
        }
      ],
      "stateMutability": "view",
      "type": "function"
    },
    {
      "inputs": [],
      "name": "presaleActive",
      "outputs": [
        {
          "internalType": "bool",
          "name": "",
          "type": "bool"
        }
      ],
      "stateMutability": "view",
      "type": "function"
    },
    {
      "inputs": [],
      "name": "renounceOwnership",
      "outputs": [],
      "stateMutability": "nonpayable",
      "type": "function"
    },
    {
      "inputs": [],
      "name": "root",
      "outputs": [
        {
          "internalType": "bytes32",
          "name": "",
          "type": "bytes32"
        }
      ],
      "stateMutability": "view",
      "type": "function"
    },
    {
      "inputs": [
        {
          "internalType": "address",
          "name": "from",
          "type": "address"
        },
        {
          "internalType": "address",
          "name": "to",
          "type": "address"
        },
        {
          "internalType": "uint256",
          "name": "tokenId",
          "type": "uint256"
        }
      ],
      "name": "safeTransferFrom",
      "outputs": [],
      "stateMutability": "nonpayable",
      "type": "function"
    },
    {
      "inputs": [
        {
          "internalType": "address",
          "name": "from",
          "type": "address"
        },
        {
          "internalType": "address",
          "name": "to",
          "type": "address"
        },
        {
          "internalType": "uint256",
          "name": "tokenId",
          "type": "uint256"
        },
        {
          "internalType": "bytes",
          "name": "_data",
          "type": "bytes"
        }
      ],
      "name": "safeTransferFrom",
      "outputs": [],
      "stateMutability": "nonpayable",
      "type": "function"
    },
    {
      "inputs": [],
      "name": "saleActive",
      "outputs": [
        {
          "internalType": "bool",
          "name": "",
          "type": "bool"
        }
      ],
      "stateMutability": "view",
      "type": "function"
    },
    {
      "inputs": [],
      "name": "salePrice",
      "outputs": [
        {
          "internalType": "uint256",
          "name": "",
          "type": "uint256"
        }
      ],
      "stateMutability": "view",
      "type": "function"
    },
    {
      "inputs": [
        {
          "internalType": "address",
          "name": "operator",
          "type": "address"
        },
        {
          "internalType": "bool",
          "name": "approved",
          "type": "bool"
        }
      ],
      "name": "setApprovalForAll",
      "outputs": [],
      "stateMutability": "nonpayable",
      "type": "function"
    },
    {
      "inputs": [
        {
          "internalType": "bool",
          "name": "_presaleStatus",
          "type": "bool"
        }
      ],
      "name": "setPresale",
      "outputs": [],
      "stateMutability": "nonpayable",
      "type": "function"
    },
    {
      "inputs": [
        {
          "internalType": "bytes32",
          "name": "_root",
          "type": "bytes32"
        }
      ],
      "name": "setRoot",
      "outputs": [],
      "stateMutability": "nonpayable",
      "type": "function"
    },
    {
      "inputs": [
        {
          "internalType": "bool",
          "name": "_saleStatus",
          "type": "bool"
        }
      ],
      "name": "setSale",
      "outputs": [],
      "stateMutability": "nonpayable",
      "type": "function"
    },
    {
      "inputs": [
        {
          "internalType": "bool",
          "name": "_revealed",
          "type": "bool"
        },
        {
          "internalType": "string",
          "name": "_tokenBaseURI",
          "type": "string"
        }
      ],
      "name": "setURIStatus",
      "outputs": [],
      "stateMutability": "nonpayable",
      "type": "function"
    },
    {
      "inputs": [
        {
          "internalType": "bytes4",
          "name": "interfaceId",
          "type": "bytes4"
        }
      ],
      "name": "supportsInterface",
      "outputs": [
        {
          "internalType": "bool",
          "name": "",
          "type": "bool"
        }
      ],
      "stateMutability": "view",
      "type": "function"
    },
    {
      "inputs": [],
      "name": "symbol",
      "outputs": [
        {
          "internalType": "string",
          "name": "",
          "type": "string"
        }
      ],
      "stateMutability": "view",
      "type": "function"
    },
    {
      "inputs": [
        {
          "internalType": "uint256",
          "name": "index",
          "type": "uint256"
        }
      ],
      "name": "tokenByIndex",
      "outputs": [
        {
          "internalType": "uint256",
          "name": "",
          "type": "uint256"
        }
      ],
      "stateMutability": "view",
      "type": "function"
    },
    {
      "inputs": [
        {
          "internalType": "address",
          "name": "owner",
          "type": "address"
        },
        {
          "internalType": "uint256",
          "name": "index",
          "type": "uint256"
        }
      ],
      "name": "tokenOfOwnerByIndex",
      "outputs": [
        {
          "internalType": "uint256",
          "name": "",
          "type": "uint256"
        }
      ],
      "stateMutability": "view",
      "type": "function"
    },
    {
      "inputs": [
        {
          "internalType": "uint256",
          "name": "tokenId",
          "type": "uint256"
        }
      ],
      "name": "tokenURI",
      "outputs": [
        {
          "internalType": "string",
          "name": "",
          "type": "string"
        }
      ],
      "stateMutability": "view",
      "type": "function"
    },
    {
      "inputs": [],
      "name": "totalNonBurnedSupply",
      "outputs": [
        {
          "internalType": "uint256",
          "name": "",
          "type": "uint256"
        }
      ],
      "stateMutability": "view",
      "type": "function"
    },
    {
      "inputs": [],
      "name": "totalSupply",
      "outputs": [
        {
          "internalType": "uint256",
          "name": "",
          "type": "uint256"
        }
      ],
      "stateMutability": "view",
      "type": "function"
    },
    {
      "inputs": [
        {
          "internalType": "address",
          "name": "from",
          "type": "address"
        },
        {
          "internalType": "address",
          "name": "to",
          "type": "address"
        },
        {
          "internalType": "uint256",
          "name": "tokenId",
          "type": "uint256"
        }
      ],
      "name": "transferFrom",
      "outputs": [],
      "stateMutability": "nonpayable",
      "type": "function"
    },
    {
      "inputs": [
        {
          "internalType": "address",
          "name": "newOwner",
          "type": "address"
        }
      ],
      "name": "transferOwnership",
      "outputs": [],
      "stateMutability": "nonpayable",
      "type": "function"
    },
    {
      "inputs": [],
      "name": "withdraw",
      "outputs": [],
      "stateMutability": "nonpayable",
      "type": "function"
    }
  ],
  "bytecode": "0x60806040526000600860006101000a81548160ff0219169083151502179055506000600860016101000a81548160ff0219169083151502179055506000600d60006101000a81548160ff0219169083151502179055503480156200006257600080fd5b5060405162004f4f38038062004f4f833981810160405281019062000088919062000377565b6040518060400160405280600381526020017f504d5600000000000000000000000000000000000000000000000000000000008152506040518060400160405280600681526020017f504d56544b4e000000000000000000000000000000000000000000000000000081525081600090805190602001906200010c9291906200023e565b508060019080519060200190620001259291906200023e565b505050620001486200013c6200017060201b60201c565b6200017860201b60201c565b8160078190555080600c9080519060200190620001679291906200023e565b50505062000565565b600033905090565b6000600660009054906101000a900473ffffffffffffffffffffffffffffffffffffffff16905081600660006101000a81548173ffffffffffffffffffffffffffffffffffffffff021916908373ffffffffffffffffffffffffffffffffffffffff1602179055508173ffffffffffffffffffffffffffffffffffffffff168173ffffffffffffffffffffffffffffffffffffffff167f8be0079c531659141344cd1fd0a4f28419497f9722a3daafe3b4186f6b6457e060405160405180910390a35050565b8280546200024c9062000470565b90600052602060002090601f016020900481019282620002705760008555620002bc565b82601f106200028b57805160ff1916838001178555620002bc565b82800160010185558215620002bc579182015b82811115620002bb5782518255916020019190600101906200029e565b5b509050620002cb9190620002cf565b5090565b5b80821115620002ea576000816000905550600101620002d0565b5090565b600062000305620002ff84620003fa565b620003d1565b9050828152602081018484840111156200031e57600080fd5b6200032b8482856200043a565b509392505050565b60008151905062000344816200054b565b92915050565b600082601f8301126200035c57600080fd5b81516200036e848260208601620002ee565b91505092915050565b600080604083850312156200038b57600080fd5b60006200039b8582860162000333565b925050602083015167ffffffffffffffff811115620003b957600080fd5b620003c7858286016200034a565b9150509250929050565b6000620003dd620003f0565b9050620003eb8282620004a6565b919050565b6000604051905090565b600067ffffffffffffffff8211156200041857620004176200050b565b5b62000423826200053a565b9050602081019050919050565b6000819050919050565b60005b838110156200045a5780820151818401526020810190506200043d565b838111156200046a576000848401525b50505050565b600060028204905060018216806200048957607f821691505b60208210811415620004a0576200049f620004dc565b5b50919050565b620004b1826200053a565b810181811067ffffffffffffffff82111715620004d357620004d26200050b565b5b80604052505050565b7f4e487b7100000000000000000000000000000000000000000000000000000000600052602260045260246000fd5b7f4e487b7100000000000000000000000000000000000000000000000000000000600052604160045260246000fd5b6000601f19601f8301169050919050565b620005568162000430565b81146200056257600080fd5b50565b6149da80620005756000396000f3fe6080604052600436106101ee5760003560e01c806368428a1b1161010d578063b88d4fde116100a0578063dab5f3401161006f578063dab5f340146106cf578063e985e9c5146106f8578063ebf0c71714610735578063f2fde38b14610760578063f51f96dd14610789576101ee565b8063b88d4fde14610615578063c54e73e31461063e578063c87b56dd14610667578063d5abeb01146106a4576101ee565b80638da5cb5b116100dc5780638da5cb5b1461057a57806395d89b41146105a5578063a0712d68146105d0578063a22cb465146105ec576101ee565b806368428a1b146104d25780636f8d9305146104fd57806370a0823114610526578063715018a614610563576101ee565b80633c14a2de116101855780634f6ccce7116101545780634f6ccce714610402578063513f9ff71461043f57806353135ca01461046a5780636352211e14610495576101ee565b80633c14a2de1461037b5780633ccfd60b1461039757806342842e0e146103ae578063453c2310146103d7576101ee565b806318160ddd116101c157806318160ddd146102c15780631d2e5a3a146102ec57806323b872dd146103155780632f745c591461033e576101ee565b806301ffc9a7146101f357806306fdde0314610230578063081812fc1461025b578063095ea7b314610298575b600080fd5b3480156101ff57600080fd5b5061021a600480360381019061021591906131f1565b6107b4565b6040516102279190613955565b60405180910390f35b34801561023c57600080fd5b506102456108fe565b604051610252919061398b565b60405180910390f35b34801561026757600080fd5b50610282600480360381019061027d9190613243565b610990565b60405161028f91906138ee565b60405180910390f35b3480156102a457600080fd5b506102bf60048036038101906102ba919061310b565b610a15565b005b3480156102cd57600080fd5b506102d6610b2d565b6040516102e39190613d4d565b60405180910390f35b3480156102f857600080fd5b50610313600480360381019061030e9190613147565b610b47565b005b34801561032157600080fd5b5061033c60048036038101906103379190613005565b610be0565b005b34801561034a57600080fd5b506103656004803603810190610360919061310b565b610c40565b6040516103729190613d4d565b60405180910390f35b6103956004803603810190610390919061326c565b610dbf565b005b3480156103a357600080fd5b506103ac6110ec565b005b3480156103ba57600080fd5b506103d560048036038101906103d09190613005565b6111b1565b005b3480156103e357600080fd5b506103ec6111d1565b6040516103f99190613d4d565b60405180910390f35b34801561040e57600080fd5b5061042960048036038101906104249190613243565b6111d6565b6040516104369190613d4d565b60405180910390f35b34801561044b57600080fd5b50610454611364565b6040516104619190613d4d565b60405180910390f35b34801561047657600080fd5b5061047f611371565b60405161048c9190613955565b60405180910390f35b3480156104a157600080fd5b506104bc60048036038101906104b79190613243565b611384565b6040516104c991906138ee565b60405180910390f35b3480156104de57600080fd5b506104e7611446565b6040516104f49190613955565b60405180910390f35b34801561050957600080fd5b50610524600480360381019061051f9190613170565b611459565b005b34801561053257600080fd5b5061054d60048036038101906105489190612fa0565b61154c565b60405161055a9190613d4d565b60405180910390f35b34801561056f57600080fd5b50610578611692565b005b34801561058657600080fd5b5061058f61171a565b60405161059c91906138ee565b60405180910390f35b3480156105b157600080fd5b506105ba611744565b6040516105c7919061398b565b60405180910390f35b6105ea60048036038101906105e59190613243565b6117d6565b005b3480156105f857600080fd5b50610613600480360381019061060e91906130cf565b611a43565b005b34801561062157600080fd5b5061063c60048036038101906106379190613054565b611a59565b005b34801561064a57600080fd5b5061066560048036038101906106609190613147565b611abb565b005b34801561067357600080fd5b5061068e60048036038101906106899190613243565b611b54565b60405161069b919061398b565b60405180910390f35b3480156106b057600080fd5b506106b9611c7f565b6040516106c69190613d4d565b60405180910390f35b3480156106db57600080fd5b506106f660048036038101906106f191906131c8565b611c84565b005b34801561070457600080fd5b5061071f600480360381019061071a9190612fc9565b611d51565b60405161072c9190613955565b60405180910390f35b34801561074157600080fd5b5061074a611de5565b6040516107579190613970565b60405180910390f35b34801561076c57600080fd5b5061078760048036038101906107829190612fa0565b611deb565b005b34801561079557600080fd5b5061079e611ee3565b6040516107ab9190613d4d565b60405180910390f35b60007f80ac58cd000000000000000000000000000000000000000000000000000000007bffffffffffffffffffffffffffffffffffffffffffffffffffffffff1916827bffffffffffffffffffffffffffffffffffffffffffffffffffffffff1916148061087f57507f5b5e139f000000000000000000000000000000000000000000000000000000007bffffffffffffffffffffffffffffffffffffffffffffffffffffffff1916827bffffffffffffffffffffffffffffffffffffffffffffffffffffffff1916145b806108e757507f780e9d63000000000000000000000000000000000000000000000000000000007bffffffffffffffffffffffffffffffffffffffffffffffffffffffff1916827bffffffffffffffffffffffffffffffffffffffffffffffffffffffff1916145b806108f757506108f682611eee565b5b9050919050565b60606000805461090d90614089565b80601f016020809104026020016040519081016040528092919081815260200182805461093990614089565b80156109865780601f1061095b57610100808354040283529160200191610986565b820191906000526020600020905b81548152906001019060200180831161096957829003601f168201915b5050505050905090565b600061099b82611f58565b6109da576040517f08c379a00000000000000000000000000000000000000000000000000000000081526004016109d190613bcd565b60405180910390fd5b6003600083815260200190815260200160002060009054906101000a900473ffffffffffffffffffffffffffffffffffffffff169050919050565b6000610a2082611384565b90508073ffffffffffffffffffffffffffffffffffffffff168373ffffffffffffffffffffffffffffffffffffffff161415610a91576040517f08c379a0000000000000000000000000000000000000000000000000000000008152600401610a8890613c2d565b60405180910390fd5b8073ffffffffffffffffffffffffffffffffffffffff16610ab061204e565b73ffffffffffffffffffffffffffffffffffffffff161480610adf5750610ade81610ad961204e565b611d51565b5b610b1e576040517f08c379a0000000000000000000000000000000000000000000000000000000008152600401610b1590613b4d565b60405180910390fd5b610b288383612056565b505050565b6000600554600280549050610b429190613f8b565b905090565b610b4f61204e565b73ffffffffffffffffffffffffffffffffffffffff16610b6d61171a565b73ffffffffffffffffffffffffffffffffffffffff1614610bc3576040517f08c379a0000000000000000000000000000000000000000000000000000000008152600401610bba90613bed565b60405180910390fd5b80600860016101000a81548160ff02191690831515021790555050565b610bf1610beb61204e565b8261210f565b610c30576040517f08c379a0000000000000000000000000000000000000000000000000000000008152600401610c2790613c4d565b60405180910390fd5b610c3b8383836121ed565b505050565b6000610c4b8361154c565b8210610c8c576040517f08c379a0000000000000000000000000000000000000000000000000000000008152600401610c83906139cd565b60405180910390fd5b6000805b600280549050811015610d755760028181548110610cd7577f4e487b7100000000000000000000000000000000000000000000000000000000600052603260045260246000fd5b9060005260206000200160009054906101000a900473ffffffffffffffffffffffffffffffffffffffff1673ffffffffffffffffffffffffffffffffffffffff168573ffffffffffffffffffffffffffffffffffffffff161415610d625783821415610d5357600181610d4a9190613e16565b92505050610db9565b8180610d5e906140ec565b9250505b8080610d6d906140ec565b915050610c90565b506000610db7576040517f08c379a0000000000000000000000000000000000000000000000000000000008152600401610dae906139cd565b60405180910390fd5b505b92915050565b600860009054906101000a900460ff16610e0e576040517f08c379a0000000000000000000000000000000000000000000000000000000008152600401610e0590613ced565b60405180910390fd5b600860019054906101000a900460ff1615610e5e576040517f08c379a0000000000000000000000000000000000000000000000000000000008152600401610e5590613c0d565b60405180910390fd5b610ede6007543386604051602001610e77929190613872565b60405160208183030381529060405280519060200120858580806020026020016040519081016040528093929190818152602001838360200280828437600081840152601f19601f820116905080830192505050505050506123e39092919063ffffffff16565b610f1d576040517f08c379a0000000000000000000000000000000000000000000000000000000008152600401610f1490613a2d565b60405180910390fd5b8381600960003373ffffffffffffffffffffffffffffffffffffffff1673ffffffffffffffffffffffffffffffffffffffff16815260200190815260200160002054610f699190613e16565b1115610faa576040517f08c379a0000000000000000000000000000000000000000000000000000000008152600401610fa190613ccd565b60405180910390fd5b601e610fb4611364565b82610fbf9190613e16565b1115611000576040517f08c379a0000000000000000000000000000000000000000000000000000000008152600401610ff790613acd565b60405180910390fd5b3466470de4df820000826110149190613e9d565b14611054576040517f08c379a000000000000000000000000000000000000000000000000000000000815260040161104b90613aad565b60405180910390fd5b60005b8181101561108f5761107c33600161106d611364565b6110779190613e16565b6123fa565b8080611087906140ec565b915050611057565b5080600960003373ffffffffffffffffffffffffffffffffffffffff1673ffffffffffffffffffffffffffffffffffffffff16815260200190815260200160002060008282546110df9190613e16565b9250508190555050505050565b6110f461204e565b73ffffffffffffffffffffffffffffffffffffffff1661111261171a565b73ffffffffffffffffffffffffffffffffffffffff1614611168576040517f08c379a000000000000000000000000000000000000000000000000000000000815260040161115f90613bed565b60405180910390fd5b3373ffffffffffffffffffffffffffffffffffffffff166108fc479081150290604051600060405180830381858888f193505050501580156111ae573d6000803e3d6000fd5b50565b6111cc83838360405180602001604052806000815250611a59565b505050565b600a81565b60006111e0610b2d565b8210611221576040517f08c379a000000000000000000000000000000000000000000000000000000000815260040161121890613c6d565b60405180910390fd5b600080600090505b60028054905081101561131b57600073ffffffffffffffffffffffffffffffffffffffff1660028281548110611288577f4e487b7100000000000000000000000000000000000000000000000000000000600052603260045260246000fd5b9060005260206000200160009054906101000a900473ffffffffffffffffffffffffffffffffffffffff1673ffffffffffffffffffffffffffffffffffffffff1614156112df576001826112dc9190613e16565b91505b8382826112ec9190613ef7565b1415611308576001816112ff9190613e16565b9250505061135f565b8080611313906140ec565b915050611229565b50600061135d576040517f08c379a000000000000000000000000000000000000000000000000000000000815260040161135490613cad565b60405180910390fd5b505b919050565b6000600280549050905090565b600860009054906101000a900460ff1681565b600061138f82611f58565b6113ce576040517f08c379a00000000000000000000000000000000000000000000000000000000081526004016113c590613b8d565b60405180910390fd5b60026001836113dd9190613f8b565b81548110611414577f4e487b7100000000000000000000000000000000000000000000000000000000600052603260045260246000fd5b9060005260206000200160009054906101000a900473ffffffffffffffffffffffffffffffffffffffff169050919050565b600860019054906101000a900460ff1681565b61146161204e565b73ffffffffffffffffffffffffffffffffffffffff1661147f61171a565b73ffffffffffffffffffffffffffffffffffffffff16146114d5576040517f08c379a00000000000000000000000000000000000000000000000000000000081526004016114cc90613bed565b60405180910390fd5b6000828290501161151b576040517f08c379a000000000000000000000000000000000000000000000000000000000815260040161151290613d2d565b60405180910390fd5b82600d60006101000a81548160ff0219169083151502179055508181600b9190611546929190612d83565b50505050565b60008073ffffffffffffffffffffffffffffffffffffffff168273ffffffffffffffffffffffffffffffffffffffff1614156115bd576040517f08c379a00000000000000000000000000000000000000000000000000000000081526004016115b490613b6d565b60405180910390fd5b6000805b6002805490508110156116885760028181548110611608577f4e487b7100000000000000000000000000000000000000000000000000000000600052603260045260246000fd5b9060005260206000200160009054906101000a900473ffffffffffffffffffffffffffffffffffffffff1673ffffffffffffffffffffffffffffffffffffffff168473ffffffffffffffffffffffffffffffffffffffff161415611675578180611671906140ec565b9250505b8080611680906140ec565b9150506115c1565b5080915050919050565b61169a61204e565b73ffffffffffffffffffffffffffffffffffffffff166116b861171a565b73ffffffffffffffffffffffffffffffffffffffff161461170e576040517f08c379a000000000000000000000000000000000000000000000000000000000815260040161170590613bed565b60405180910390fd5b611718600061258e565b565b6000600660009054906101000a900473ffffffffffffffffffffffffffffffffffffffff16905090565b60606001805461175390614089565b80601f016020809104026020016040519081016040528092919081815260200182805461177f90614089565b80156117cc5780601f106117a1576101008083540402835291602001916117cc565b820191906000526020600020905b8154815290600101906020018083116117af57829003601f168201915b5050505050905090565b600860019054906101000a900460ff16611825576040517f08c379a000000000000000000000000000000000000000000000000000000000815260040161181c90613c8d565b60405180910390fd5b600860009054906101000a900460ff1615611875576040517f08c379a000000000000000000000000000000000000000000000000000000000815260040161186c90613a8d565b60405180910390fd5b600a81600a60003373ffffffffffffffffffffffffffffffffffffffff1673ffffffffffffffffffffffffffffffffffffffff168152602001908152602001600020546118c29190613e16565b1115611903576040517f08c379a00000000000000000000000000000000000000000000000000000000081526004016118fa90613ccd565b60405180910390fd5b601e61190d611364565b826119189190613e16565b1115611959576040517f08c379a000000000000000000000000000000000000000000000000000000000815260040161195090613acd565b60405180910390fd5b3466470de4df8200008261196d9190613e9d565b11156119ae576040517f08c379a00000000000000000000000000000000000000000000000000000000081526004016119a590613aad565b60405180910390fd5b60005b818110156119e9576119d63360016119c7611364565b6119d19190613e16565b6123fa565b80806119e1906140ec565b9150506119b1565b5080600a60003373ffffffffffffffffffffffffffffffffffffffff1673ffffffffffffffffffffffffffffffffffffffff1681526020019081526020016000206000828254611a399190613e16565b9250508190555050565b611a55611a4e61204e565b8383612654565b5050565b611a6a611a6461204e565b8361210f565b611aa9576040517f08c379a0000000000000000000000000000000000000000000000000000000008152600401611aa090613c4d565b60405180910390fd5b611ab5848484846127c1565b50505050565b611ac361204e565b73ffffffffffffffffffffffffffffffffffffffff16611ae161171a565b73ffffffffffffffffffffffffffffffffffffffff1614611b37576040517f08c379a0000000000000000000000000000000000000000000000000000000008152600401611b2e90613bed565b60405180910390fd5b80600860006101000a81548160ff02191690831515021790555050565b6060611b5f82611f58565b611b9e576040517f08c379a0000000000000000000000000000000000000000000000000000000008152600401611b95906139ad565b60405180910390fd5b60001515600d60009054906101000a900460ff1615151415611c4c57600c8054611bc790614089565b80601f0160208091040260200160405190810160405280929190818152602001828054611bf390614089565b8015611c405780601f10611c1557610100808354040283529160200191611c40565b820191906000526020600020905b815481529060010190602001808311611c2357829003601f168201915b50505050509050611c7a565b600b611c578361281d565b604051602001611c689291906138ca565b60405160208183030381529060405290505b919050565b601e81565b611c8c61204e565b73ffffffffffffffffffffffffffffffffffffffff16611caa61171a565b73ffffffffffffffffffffffffffffffffffffffff1614611d00576040517f08c379a0000000000000000000000000000000000000000000000000000000008152600401611cf790613bed565b60405180910390fd5b6000602060ff1611611d47576040517f08c379a0000000000000000000000000000000000000000000000000000000008152600401611d3e90613d0d565b60405180910390fd5b8060078190555050565b6000600460008473ffffffffffffffffffffffffffffffffffffffff1673ffffffffffffffffffffffffffffffffffffffff16815260200190815260200160002060008373ffffffffffffffffffffffffffffffffffffffff1673ffffffffffffffffffffffffffffffffffffffff16815260200190815260200160002060009054906101000a900460ff16905092915050565b60075481565b611df361204e565b73ffffffffffffffffffffffffffffffffffffffff16611e1161171a565b73ffffffffffffffffffffffffffffffffffffffff1614611e67576040517f08c379a0000000000000000000000000000000000000000000000000000000008152600401611e5e90613bed565b60405180910390fd5b600073ffffffffffffffffffffffffffffffffffffffff168173ffffffffffffffffffffffffffffffffffffffff161415611ed7576040517f08c379a0000000000000000000000000000000000000000000000000000000008152600401611ece90613a0d565b60405180910390fd5b611ee08161258e565b50565b66470de4df82000081565b60007f01ffc9a7000000000000000000000000000000000000000000000000000000007bffffffffffffffffffffffffffffffffffffffffffffffffffffffff1916827bffffffffffffffffffffffffffffffffffffffffffffffffffffffff1916149050919050565b60008060008311905060006001611f6d611364565b611f779190613e16565b8410905060006001905081156120315760006002600187611f989190613f8b565b81548110611fcf577f4e487b7100000000000000000000000000000000000000000000000000000000600052603260045260246000fd5b9060005260206000200160009054906101000a900473ffffffffffffffffffffffffffffffffffffffff169050600073ffffffffffffffffffffffffffffffffffffffff168173ffffffffffffffffffffffffffffffffffffffff1614159150505b82801561203b5750815b80156120445750805b9350505050919050565b600033905090565b816003600083815260200190815260200160002060006101000a81548173ffffffffffffffffffffffffffffffffffffffff021916908373ffffffffffffffffffffffffffffffffffffffff160217905550808273ffffffffffffffffffffffffffffffffffffffff166120c983611384565b73ffffffffffffffffffffffffffffffffffffffff167f8c5be1e5ebec7d5bd14f71427d1e84f3dd0314c0f7b2291e5b200ac8c7c3b92560405160405180910390a45050565b600061211a82611f58565b612159576040517f08c379a000000000000000000000000000000000000000000000000000000000815260040161215090613b2d565b60405180910390fd5b600061216483611384565b90508073ffffffffffffffffffffffffffffffffffffffff168473ffffffffffffffffffffffffffffffffffffffff1614806121d357508373ffffffffffffffffffffffffffffffffffffffff166121bb84610990565b73ffffffffffffffffffffffffffffffffffffffff16145b806121e457506121e38185611d51565b5b91505092915050565b8273ffffffffffffffffffffffffffffffffffffffff1661220d82611384565b73ffffffffffffffffffffffffffffffffffffffff1614612263576040517f08c379a000000000000000000000000000000000000000000000000000000000815260040161225a90613a4d565b60405180910390fd5b600073ffffffffffffffffffffffffffffffffffffffff168273ffffffffffffffffffffffffffffffffffffffff1614156122d3576040517f08c379a00000000000000000000000000000000000000000000000000000000081526004016122ca90613aed565b60405180910390fd5b6122de8383836129ca565b6122e9600082612056565b8160026001836122f99190613f8b565b81548110612330577f4e487b7100000000000000000000000000000000000000000000000000000000600052603260045260246000fd5b9060005260206000200160006101000a81548173ffffffffffffffffffffffffffffffffffffffff021916908373ffffffffffffffffffffffffffffffffffffffff160217905550808273ffffffffffffffffffffffffffffffffffffffff168473ffffffffffffffffffffffffffffffffffffffff167fddf252ad1be2c89b69c2b068fc378daa952ba7f163c4a11628f55a4df523b3ef60405160405180910390a46123de838383612ad3565b505050565b6000826123f08584612ad8565b1490509392505050565b600073ffffffffffffffffffffffffffffffffffffffff168273ffffffffffffffffffffffffffffffffffffffff16141561246a576040517f08c379a000000000000000000000000000000000000000000000000000000000815260040161246190613bad565b60405180910390fd5b61247381611f58565b156124b3576040517f08c379a00000000000000000000000000000000000000000000000000000000081526004016124aa90613a6d565b60405180910390fd5b6124bf600083836129ca565b6002829080600181540180825580915050600190039060005260206000200160009091909190916101000a81548173ffffffffffffffffffffffffffffffffffffffff021916908373ffffffffffffffffffffffffffffffffffffffff160217905550808273ffffffffffffffffffffffffffffffffffffffff16600073ffffffffffffffffffffffffffffffffffffffff167fddf252ad1be2c89b69c2b068fc378daa952ba7f163c4a11628f55a4df523b3ef60405160405180910390a461258a60008383612ad3565b5050565b6000600660009054906101000a900473ffffffffffffffffffffffffffffffffffffffff16905081600660006101000a81548173ffffffffffffffffffffffffffffffffffffffff021916908373ffffffffffffffffffffffffffffffffffffffff1602179055508173ffffffffffffffffffffffffffffffffffffffff168173ffffffffffffffffffffffffffffffffffffffff167f8be0079c531659141344cd1fd0a4f28419497f9722a3daafe3b4186f6b6457e060405160405180910390a35050565b8173ffffffffffffffffffffffffffffffffffffffff168373ffffffffffffffffffffffffffffffffffffffff1614156126c3576040517f08c379a00000000000000000000000000000000000000000000000000000000081526004016126ba90613b0d565b60405180910390fd5b80600460008573ffffffffffffffffffffffffffffffffffffffff1673ffffffffffffffffffffffffffffffffffffffff16815260200190815260200160002060008473ffffffffffffffffffffffffffffffffffffffff1673ffffffffffffffffffffffffffffffffffffffff16815260200190815260200160002060006101000a81548160ff0219169083151502179055508173ffffffffffffffffffffffffffffffffffffffff168373ffffffffffffffffffffffffffffffffffffffff167f17307eab39ab6107e8899845ad3d59bd9653f200f220920489ca2b5937696c31836040516127b49190613955565b60405180910390a3505050565b6127cc8484846121ed565b6127d884848484612bb1565b612817576040517f08c379a000000000000000000000000000000000000000000000000000000000815260040161280e906139ed565b60405180910390fd5b50505050565b60606000821415612865576040518060400160405280600181526020017f300000000000000000000000000000000000000000000000000000000000000081525090506129c5565b600082905060005b60008214612897578080612880906140ec565b915050600a826128909190613e6c565b915061286d565b60008167ffffffffffffffff8111156128d9577f4e487b7100000000000000000000000000000000000000000000000000000000600052604160045260246000fd5b6040519080825280601f01601f19166020018201604052801561290b5781602001600182028036833780820191505090505b5090505b600085146129be576001826129249190613f8b565b9150600a85612933919061416d565b603061293f9190613e16565b60f81b81838151811061297b577f4e487b7100000000000000000000000000000000000000000000000000000000600052603260045260246000fd5b60200101907effffffffffffffffffffffffffffffffffffffffffffffffffffffffffffff1916908160001a905350600a856129b79190613e6c565b945061290f565b8093505050505b919050565b600073ffffffffffffffffffffffffffffffffffffffff168373ffffffffffffffffffffffffffffffffffffffff161415612a0d57612a0881612d48565b612a4c565b8173ffffffffffffffffffffffffffffffffffffffff168373ffffffffffffffffffffffffffffffffffffffff1614612a4b57612a4a8382612d4b565b5b5b600073ffffffffffffffffffffffffffffffffffffffff168273ffffffffffffffffffffffffffffffffffffffff161415612a8f57612a8a81612d4f565b612ace565b8273ffffffffffffffffffffffffffffffffffffffff168273ffffffffffffffffffffffffffffffffffffffff1614612acd57612acc8282612d6c565b5b5b505050565b505050565b60008082905060005b8451811015612ba6576000858281518110612b25577f4e487b7100000000000000000000000000000000000000000000000000000000600052603260045260246000fd5b60200260200101519050808311612b66578281604051602001612b4992919061389e565b604051602081830303815290604052805190602001209250612b92565b8083604051602001612b7992919061389e565b6040516020818303038152906040528051906020012092505b508080612b9e906140ec565b915050612ae1565b508091505092915050565b6000612bd28473ffffffffffffffffffffffffffffffffffffffff16612d70565b15612d3b578373ffffffffffffffffffffffffffffffffffffffff1663150b7a02612bfb61204e565b8786866040518563ffffffff1660e01b8152600401612c1d9493929190613909565b602060405180830381600087803b158015612c3757600080fd5b505af1925050508015612c6857506040513d601f19601f82011682018060405250810190612c65919061321a565b60015b612ceb573d8060008114612c98576040519150601f19603f3d011682016040523d82523d6000602084013e612c9d565b606091505b50600081511415612ce3576040517f08c379a0000000000000000000000000000000000000000000000000000000008152600401612cda906139ed565b60405180910390fd5b805181602001fd5b63150b7a0260e01b7bffffffffffffffffffffffffffffffffffffffffffffffffffffffff1916817bffffffffffffffffffffffffffffffffffffffffffffffffffffffff191614915050612d40565b600190505b949350505050565b50565b5050565b600160056000828254612d629190613e16565b9250508190555050565b5050565b600080823b905060008111915050919050565b828054612d8f90614089565b90600052602060002090601f016020900481019282612db15760008555612df8565b82601f10612dca57803560ff1916838001178555612df8565b82800160010185558215612df8579182015b82811115612df7578235825591602001919060010190612ddc565b5b509050612e059190612e09565b5090565b5b80821115612e22576000816000905550600101612e0a565b5090565b6000612e39612e3484613d8d565b613d68565b905082815260208101848484011115612e5157600080fd5b612e5c848285614047565b509392505050565b600081359050612e7381614931565b92915050565b60008083601f840112612e8b57600080fd5b8235905067ffffffffffffffff811115612ea457600080fd5b602083019150836020820283011115612ebc57600080fd5b9250929050565b600081359050612ed281614948565b92915050565b600081359050612ee78161495f565b92915050565b600081359050612efc81614976565b92915050565b600081519050612f1181614976565b92915050565b600082601f830112612f2857600080fd5b8135612f38848260208601612e26565b91505092915050565b60008083601f840112612f5357600080fd5b8235905067ffffffffffffffff811115612f6c57600080fd5b602083019150836001820283011115612f8457600080fd5b9250929050565b600081359050612f9a8161498d565b92915050565b600060208284031215612fb257600080fd5b6000612fc084828501612e64565b91505092915050565b60008060408385031215612fdc57600080fd5b6000612fea85828601612e64565b9250506020612ffb85828601612e64565b9150509250929050565b60008060006060848603121561301a57600080fd5b600061302886828701612e64565b935050602061303986828701612e64565b925050604061304a86828701612f8b565b9150509250925092565b6000806000806080858703121561306a57600080fd5b600061307887828801612e64565b945050602061308987828801612e64565b935050604061309a87828801612f8b565b925050606085013567ffffffffffffffff8111156130b757600080fd5b6130c387828801612f17565b91505092959194509250565b600080604083850312156130e257600080fd5b60006130f085828601612e64565b925050602061310185828601612ec3565b9150509250929050565b6000806040838503121561311e57600080fd5b600061312c85828601612e64565b925050602061313d85828601612f8b565b9150509250929050565b60006020828403121561315957600080fd5b600061316784828501612ec3565b91505092915050565b60008060006040848603121561318557600080fd5b600061319386828701612ec3565b935050602084013567ffffffffffffffff8111156131b057600080fd5b6131bc86828701612f41565b92509250509250925092565b6000602082840312156131da57600080fd5b60006131e884828501612ed8565b91505092915050565b60006020828403121561320357600080fd5b600061321184828501612eed565b91505092915050565b60006020828403121561322c57600080fd5b600061323a84828501612f02565b91505092915050565b60006020828403121561325557600080fd5b600061326384828501612f8b565b91505092915050565b6000806000806060858703121561328257600080fd5b600061329087828801612f8b565b945050602085013567ffffffffffffffff8111156132ad57600080fd5b6132b987828801612e79565b935093505060406132cc87828801612f8b565b91505092959194509250565b6132e181613fbf565b82525050565b6132f86132f382613fbf565b614135565b82525050565b61330781613fd1565b82525050565b61331681613fdd565b82525050565b61332d61332882613fdd565b614147565b82525050565b600061333e82613dd3565b6133488185613de9565b9350613358818560208601614056565b6133618161425a565b840191505092915050565b600061337782613dde565b6133818185613dfa565b9350613391818560208601614056565b61339a8161425a565b840191505092915050565b60006133b082613dde565b6133ba8185613e0b565b93506133ca818560208601614056565b80840191505092915050565b600081546133e381614089565b6133ed8186613e0b565b9450600182166000811461340857600181146134195761344c565b60ff1983168652818601935061344c565b61342285613dbe565b60005b8381101561344457815481890152600182019150602081019050613425565b838801955050505b50505092915050565b6000613462601f83613dfa565b915061346d82614278565b602082019050919050565b6000613485602b83613dfa565b9150613490826142a1565b604082019050919050565b60006134a8603283613dfa565b91506134b3826142f0565b604082019050919050565b60006134cb602683613dfa565b91506134d68261433f565b604082019050919050565b60006134ee601083613dfa565b91506134f98261438e565b602082019050919050565b6000613511602583613dfa565b915061351c826143b7565b604082019050919050565b6000613534601c83613dfa565b915061353f82614406565b602082019050919050565b6000613557601683613dfa565b91506135628261442f565b602082019050919050565b600061357a601883613dfa565b915061358582614458565b602082019050919050565b600061359d601883613dfa565b91506135a882614481565b602082019050919050565b60006135c0602483613dfa565b91506135cb826144aa565b604082019050919050565b60006135e3601983613dfa565b91506135ee826144f9565b602082019050919050565b6000613606602c83613dfa565b915061361182614522565b604082019050919050565b6000613629603883613dfa565b915061363482614571565b604082019050919050565b600061364c602a83613dfa565b9150613657826145c0565b604082019050919050565b600061366f602983613dfa565b915061367a8261460f565b604082019050919050565b6000613692602083613dfa565b915061369d8261465e565b602082019050919050565b60006136b5602c83613dfa565b91506136c082614687565b604082019050919050565b60006136d8602083613dfa565b91506136e3826146d6565b602082019050919050565b60006136fb601583613dfa565b9150613706826146ff565b602082019050919050565b600061371e602183613dfa565b915061372982614728565b604082019050919050565b6000613741603183613dfa565b915061374c82614777565b604082019050919050565b6000613764602c83613dfa565b915061376f826147c6565b604082019050919050565b6000613787600f83613dfa565b915061379282614815565b602082019050919050565b60006137aa602183613dfa565b91506137b58261483e565b604082019050919050565b60006137cd601983613dfa565b91506137d88261488d565b602082019050919050565b60006137f0601283613dfa565b91506137fb826148b6565b602082019050919050565b6000613813600e83613dfa565b915061381e826148df565b602082019050919050565b6000613836601683613dfa565b915061384182614908565b602082019050919050565b6138558161403d565b82525050565b61386c6138678261403d565b614163565b82525050565b600061387e82856132e7565b60148201915061388e828461385b565b6020820191508190509392505050565b60006138aa828561331c565b6020820191506138ba828461331c565b6020820191508190509392505050565b60006138d682856133d6565b91506138e282846133a5565b91508190509392505050565b600060208201905061390360008301846132d8565b92915050565b600060808201905061391e60008301876132d8565b61392b60208301866132d8565b613938604083018561384c565b818103606083015261394a8184613333565b905095945050505050565b600060208201905061396a60008301846132fe565b92915050565b6000602082019050613985600083018461330d565b92915050565b600060208201905081810360008301526139a5818461336c565b905092915050565b600060208201905081810360008301526139c681613455565b9050919050565b600060208201905081810360008301526139e681613478565b9050919050565b60006020820190508181036000830152613a068161349b565b9050919050565b60006020820190508181036000830152613a26816134be565b9050919050565b60006020820190508181036000830152613a46816134e1565b9050919050565b60006020820190508181036000830152613a6681613504565b9050919050565b60006020820190508181036000830152613a8681613527565b9050919050565b60006020820190508181036000830152613aa68161354a565b9050919050565b60006020820190508181036000830152613ac68161356d565b9050919050565b60006020820190508181036000830152613ae681613590565b9050919050565b60006020820190508181036000830152613b06816135b3565b9050919050565b60006020820190508181036000830152613b26816135d6565b9050919050565b60006020820190508181036000830152613b46816135f9565b9050919050565b60006020820190508181036000830152613b668161361c565b9050919050565b60006020820190508181036000830152613b868161363f565b9050919050565b60006020820190508181036000830152613ba681613662565b9050919050565b60006020820190508181036000830152613bc681613685565b9050919050565b60006020820190508181036000830152613be6816136a8565b9050919050565b60006020820190508181036000830152613c06816136cb565b9050919050565b60006020820190508181036000830152613c26816136ee565b9050919050565b60006020820190508181036000830152613c4681613711565b9050919050565b60006020820190508181036000830152613c6681613734565b9050919050565b60006020820190508181036000830152613c8681613757565b9050919050565b60006020820190508181036000830152613ca68161377a565b9050919050565b60006020820190508181036000830152613cc68161379d565b9050919050565b60006020820190508181036000830152613ce6816137c0565b9050919050565b60006020820190508181036000830152613d06816137e3565b9050919050565b60006020820190508181036000830152613d2681613806565b9050919050565b60006020820190508181036000830152613d4681613829565b9050919050565b6000602082019050613d62600083018461384c565b92915050565b6000613d72613d83565b9050613d7e82826140bb565b919050565b6000604051905090565b600067ffffffffffffffff821115613da857613da761422b565b5b613db18261425a565b9050602081019050919050565b60008190508160005260206000209050919050565b600081519050919050565b600081519050919050565b600082825260208201905092915050565b600082825260208201905092915050565b600081905092915050565b6000613e218261403d565b9150613e2c8361403d565b9250827fffffffffffffffffffffffffffffffffffffffffffffffffffffffffffffffff03821115613e6157613e6061419e565b5b828201905092915050565b6000613e778261403d565b9150613e828361403d565b925082613e9257613e916141cd565b5b828204905092915050565b6000613ea88261403d565b9150613eb38361403d565b9250817fffffffffffffffffffffffffffffffffffffffffffffffffffffffffffffffff0483118215151615613eec57613eeb61419e565b5b828202905092915050565b6000613f0282614013565b9150613f0d83614013565b9250827f800000000000000000000000000000000000000000000000000000000000000001821260008412151615613f4857613f4761419e565b5b827f7fffffffffffffffffffffffffffffffffffffffffffffffffffffffffffffff018213600084121615613f8057613f7f61419e565b5b828203905092915050565b6000613f968261403d565b9150613fa18361403d565b925082821015613fb457613fb361419e565b5b828203905092915050565b6000613fca8261401d565b9050919050565b60008115159050919050565b6000819050919050565b60007fffffffff0000000000000000000000000000000000000000000000000000000082169050919050565b6000819050919050565b600073ffffffffffffffffffffffffffffffffffffffff82169050919050565b6000819050919050565b82818337600083830152505050565b60005b83811015614074578082015181840152602081019050614059565b83811115614083576000848401525b50505050565b600060028204905060018216806140a157607f821691505b602082108114156140b5576140b46141fc565b5b50919050565b6140c48261425a565b810181811067ffffffffffffffff821117156140e3576140e261422b565b5b80604052505050565b60006140f78261403d565b91507fffffffffffffffffffffffffffffffffffffffffffffffffffffffffffffffff82141561412a5761412961419e565b5b600182019050919050565b600061414082614151565b9050919050565b6000819050919050565b600061415c8261426b565b9050919050565b6000819050919050565b60006141788261403d565b91506141838361403d565b925082614193576141926141cd565b5b828206905092915050565b7f4e487b7100000000000000000000000000000000000000000000000000000000600052601160045260246000fd5b7f4e487b7100000000000000000000000000000000000000000000000000000000600052601260045260246000fd5b7f4e487b7100000000000000000000000000000000000000000000000000000000600052602260045260246000fd5b7f4e487b7100000000000000000000000000000000000000000000000000000000600052604160045260246000fd5b6000601f19601f8301169050919050565b60008160601b9050919050565b7f55524920717565727920666f72206e6f6e6578697374656e7420746f6b656e00600082015250565b7f455243373231456e756d657261626c653a206f776e657220696e646578206f7560008201527f74206f6620626f756e6473000000000000000000000000000000000000000000602082015250565b7f4552433732313a207472616e7366657220746f206e6f6e20455243373231526560008201527f63656976657220696d706c656d656e7465720000000000000000000000000000602082015250565b7f4f776e61626c653a206e6577206f776e657220697320746865207a65726f206160008201527f6464726573730000000000000000000000000000000000000000000000000000602082015250565b7f4e4f54204f4e2057484954454c49535400000000000000000000000000000000600082015250565b7f4552433732313a207472616e736665722066726f6d20696e636f72726563742060008201527f6f776e6572000000000000000000000000000000000000000000000000000000602082015250565b7f4552433732313a20746f6b656e20616c7265616479206d696e74656400000000600082015250565b7f50524553414c45204f4e4c59205249474854204e4f5700000000000000000000600082015250565b7f494e434f5252454354205041594d454e5420414d4f554e540000000000000000600082015250565b7f4e4f5420454e4f554748204c45465420494e2053544f434b0000000000000000600082015250565b7f4552433732313a207472616e7366657220746f20746865207a65726f2061646460008201527f7265737300000000000000000000000000000000000000000000000000000000602082015250565b7f4552433732313a20617070726f766520746f2063616c6c657200000000000000600082015250565b7f4552433732313a206f70657261746f7220717565727920666f72206e6f6e657860008201527f697374656e7420746f6b656e0000000000000000000000000000000000000000602082015250565b7f4552433732313a20617070726f76652063616c6c6572206973206e6f74206f7760008201527f6e6572206e6f7220617070726f76656420666f7220616c6c0000000000000000602082015250565b7f4552433732313a2062616c616e636520717565727920666f7220746865207a6560008201527f726f206164647265737300000000000000000000000000000000000000000000602082015250565b7f4552433732313a206f776e657220717565727920666f72206e6f6e657869737460008201527f656e7420746f6b656e0000000000000000000000000000000000000000000000602082015250565b7f4552433732313a206d696e7420746f20746865207a65726f2061646472657373600082015250565b7f4552433732313a20617070726f76656420717565727920666f72206e6f6e657860008201527f697374656e7420746f6b656e0000000000000000000000000000000000000000602082015250565b7f4f776e61626c653a2063616c6c6572206973206e6f7420746865206f776e6572600082015250565b7f53414c4520414354495645205249474854204e4f570000000000000000000000600082015250565b7f4552433732313a20617070726f76616c20746f2063757272656e74206f776e6560008201527f7200000000000000000000000000000000000000000000000000000000000000602082015250565b7f4552433732313a207472616e736665722063616c6c6572206973206e6f74206f60008201527f776e6572206e6f7220617070726f766564000000000000000000000000000000602082015250565b7f455243373231456e756d657261626c653a20676c6f62616c20696e646578206f60008201527f7574206f6620626f756e64730000000000000000000000000000000000000000602082015250565b7f53414c45204e4f54204143544956450000000000000000000000000000000000600082015250565b7f455243373231456e756d657261626c653a20696e646578206e6f7420666f756e60008201527f6400000000000000000000000000000000000000000000000000000000000000602082015250565b7f4d494e54494e47204d4f5245205448414e20414c4c4f57454400000000000000600082015250565b7f50524553414c45204e4f54204143544956450000000000000000000000000000600082015250565b7f5f726f6f7420697320656d707479000000000000000000000000000000000000600082015250565b7f5f746f6b656e4261736555524920697320656d70747900000000000000000000600082015250565b61493a81613fbf565b811461494557600080fd5b50565b61495181613fd1565b811461495c57600080fd5b50565b61496881613fdd565b811461497357600080fd5b50565b61497f81613fe7565b811461498a57600080fd5b50565b6149968161403d565b81146149a157600080fd5b5056fea264697066735822122097d1e405b2b71e1cfec38b1842d662e1088fdcba4bc46fe0e07f66538bfa0e0764736f6c63430008040033",
  "linkReferences": {},
  "deployedLinkReferences": {}
}